:100000000C94E1010C9402020C9402020C94020282
:100010000C9402020C9402020C9402020C94020250
:100020000C9402020C9402020C9402020C94020240
:100030000C9402020C9467560C9402020C94020277
:100040000C9402020C9402020C9402020C94020220
:100050000C9402020C9402020C9402020C94020210
:100060000C9402020C9417090C9402020C94460999
:100070000C9402020C9402020C9402020C940202F0
:100080000C9402020C9402020C9402020C940202E0
:100090000C9402020C9402020C9402020C940202D0
:1000A0000C9402020C9402020C9402020C940202C0
:1000B0000C9402020C9402020C9499560C940202C5
:1000C0000C9402020C9402020C9402020C940202A0
:1000D0000C9402020C9402020C9402020C94020290
:1000E0000C9402020C9402020C9402020C94020280
:1000F0000C9402020C9402020C9402020C94020270
:100100000C9402020C9402020C9402020C9402025F
:100110000C9402020C9402020C9402020C9402024F
:100120000C9402020C9402020C9402020C9402023F
:100130000C9402020C9402020C9402020C9402022F
:100140000C9402020C9402020C9402020C9402021F
:100150000C9402020C9402020C9402020C9402020F
:100160000C9402020C9402020C9402020C940202FF
:100170000C9402020C9402020C9402020C940202EF
:100180000C9402020C9402020C9402020C940202DF
:100190000C9402020C9402020C9402020C940202CF
:1001A0000C9402020C9402020C9402020C940202BF
:1001B0000C9402020C9402020C9402020C940202AF
:1001C0000C9402020C9402020C9402020C9402029F
:1001D0000C9402020C9402020C9402020C9402028F
:1001E0000C9402020C9402027B3D933D983DA63D87
:1001F000B43DF83DFD3D2A3E453E4A3E743E8F3EAD
:10020000943E184D1D4D224D274D2C4D314D364DF0
:100210003B4D404D454D4A4D4F4D544D594D5E4D12
:10022000634D0C94274D0C94943E0C940A140C943A
:1002300076020C94F83D0C941D4D0C94184D0C94C2
:10024000933D0C94E2080C94364D0C940C020C94E3
:10025000B43D0C94594D0C9440020C947D0C0C94BC
:10026000CC0B0C94AC020C9402600C9433110C94E3
:1002700066550C941F020C94EC0E0C94224D0C94B9
:1002800055060C94544D0C94470B0C94F9120C9495
:100290005E4D0C945B020C94D2050C945A030C94A2
:1002A0009E070C946A050C94453E0C942A3E0C94CF
:1002B000A63D0C94634D0C94C7020C9416030C9449
:1002C0008F3E0C948D0E0C948F0B0C94F8110C94A3
:1002D0004A3E0C94CB030C94314D0C94FD0A0C94C3
:1002E0003D120C945A080C940A020C949A0D0C942A
:1002F000983D0C94FC070C943B4D0C94F1130C941A
:100300004A4D0C94C20A0C94E2060C940B050C9412
:10031000404D0C94FB020C9402040C945B120C9460
:10032000FD3D0C9479060C944C050C941C030C9424
:1003300084060C9440070C9412040C9491020C94C3
:100340008F030C94A8050C9488050C947B3D0C94A9
:100350002C4D0C94E4040C944F4D0C942F140C94DD
:1003600025020C9425030C9440040C94743E0C94C8
:10037000630A0C94454D0C940A040C940E026364B9
:10038000696E6F70737578585B00BCE5ACC59C8571
:10039000960392C1912190961D03ED01DCFDCCF5F1
:1003A000BCE5ACC5A86EBCE5ACC59C85960392C106
:1003B000912190961D03ED01DCFDCCF5BCE5ACC5AB
:1003C000A86E11241FBECFEFCDBFDFE3DEBF00E07C
:1003D0000CBF1BE3A0E0B0E2E8E5FDE201E00BBFEB
:1003E00002C007900D92AE32B107D9F71DE3AEE21D
:1003F000BBE301C01D92A731B107E1F70E940D8D4B
:100400000C94AA960C94000061507109810991091D
:10041000D9F7089580E0089580E008958091EB2158
:100420009091EC212091323B3091333B821B930B16
:1004300001968093323B9093333B80E00895109275
:10044000323B1092333B80E00895EDE1F3E283818B
:100450008F9382818F9381818F9380818F938091FD
:1004600096241F928F938BE496E29F938F930E9422
:100470005A908DB79EB708968DBF9EBF80E00895B5
:10048000E1E4F3E283818F9382818F9381818F9363
:1004900080818F93809196241F928F938EE596E2B0
:1004A0009F938F930E945A908DB79EB708968DBFE9
:1004B0009EBF80E00895E3E5F3E283818F9382811C
:1004C0008F9381818F9380818F93809196241F9247
:1004D0008F938DE696E29F938F930E945A908DB7EB
:1004E0009EB708968DBF9EBF80E00895E5E6F3E2D3
:1004F00083818F9382818F9381818F9380818F936A
:10050000809196241F928F938CE796E29F938F930E
:100510000E945A908DB79EB708968DBF9EBF80E00F
:100520000895E7E7F3E283818F9382818F9381813E
:100530008F9380818F93809196241F928F938BE865
:1005400096E29F938F930E945A908DB79EB708961C
:100550008DBF9EBF80E00895EDEAF3E283818F9323
:1005600082818F9381818F9380818F938091962454
:100570001F928F938BE996E29F938F930E945A90DC
:100580008DB79EB708968DBF9EBF80E00895CF932C
:10059000DF9300D01F92CDB7DEB7CE010196AA2718
:1005A00097FDA095BA2F40910D3D50910E3D4115FC
:1005B000510511F447E15DE3662757FD6095762FFD
:1005C000841B950BA60BB70BBF93AF939F938F9391
:1005D0008CEA96E29F938F930E945A900F900F900F
:1005E0000F900F900F900F9080E02496CDBFDEBF4C
:1005F000DF91CF9108958091333B8F938091323B6F
:100600008F9381EC96E29F938F930E945A908091F2
:10061000323B9091333B01968093323B9093333B36
:100620000F900F900F900F9080E0089585EC96E268
:100630000E94749080E00895682F809141249091E9
:1006400042240E94396880E0089561E070E00090E3
:10065000452202C0660F771F0A94E2F741E088E561
:100660009CE30E949617882341F082ED96E29F93C7
:100670008F930E945A900F900F90809148228F93F1
:10068000809147228F93809146228F9380914522BB
:100690008F93809196241F928F938AED96E29F9379
:1006A0008F930E945A908DB79EB708968DBF9EBFBC
:1006B00080E0089561E070E00090572202C0660F6C
:1006C000771F0A94E2F740E088E59CE30E949617C2
:1006D000882341F082ED96E29F938F930E945A9077
:1006E0000F900F9080915A228F93809159228F936F
:1006F000809158228F93809157228F9380919624D6
:100700001F928F938AED96E29F938F930E945A9047
:100710008DB79EB708968DBF9EBF80E008958091EB
:10072000A7209091A820A091A920B091AA20892B60
:100730008A2B8B2B29F08BEE9CE30E94863204C01F
:100740008BEE9CE30E94E732882341F082ED96E233
:100750009F938F930E945A900F900F908091AA20A0
:100760008F938091A9208F938091A8208F9380915F
:10077000A7208F93809196241F928F9387EF96E204
:100780009F938F930E945A908DB79EB708968DBF06
:100790009EBF80E008958091B9209091BA20A091E9
:1007A000BB20B091BC20892B8A2B8B2B71F481EE5E
:1007B0009CE30E946D22882341F082ED96E29F9394
:1007C0008F930E945A900F900F908091BC208F932E
:1007D0008091BB208F938091BA208F938091B92014
:1007E0008F93809196241F928F9389E097E29F9335
:1007F0008F930E945A908DB79EB708968DBF9EBF6B
:1008000080E008950E94837C8BE197E20E947490BF
:1008100080E008958AE297E20E9474900E94837CAF
:1008200080E00895CF93DF931F921F92CDB7DEB77C
:10083000AE014E5F5F4F60E08BEE9CE30E94A634FA
:10084000AE014F5F5F4F61E08BEE9CE30E94A634E8
:1008500089811F928F938A811F928F9381E597E2FE
:100860009F938F930E945A900F900F900F900F902C
:100870000F900F9080E00F900F90DF91CF9108952F
:100880002F923F924F925F926F927F928F929F92A0
:10089000AF92BF92CF92DF92EF92FF920F931F938E
:1008A000CF93DF9300D000D0CDB7DEB787E5282EF9
:1008B00084E2382E0FE514E298E5A92E94E2B92ED1
:1008C0007101C12CD12C81E082198D832BE6422E3F
:1008D00027E2522E8091962490E00C2C02C0959530
:1008E00087950A94E2F780FF48C020E14E2D421917
:1008F000F7016081F801808191810E94E47620E116
:100900004D814E0DF5016081F801828193810E9435
:10091000E47622E3612C712C812C912CAE014D5F89
:100920005F4FF7016081F801808191812E830E94E1
:100930003977AE014F5F5F4FF5016081F801828129
:1009400093810E9439778B819C81880E991E8981C1
:100950009A81680E791E2E81215001F77F926F9245
:100960009F928F92C6018F5B9F4F9F938F935F9251
:100970004F920E945A90CDBFDEBF9FEFC91AD90A8D
:10098000E2E0EE0EF11C0C5F1F4FF2E0AF0EB11C67
:1009900084E0C816D10409F09DCF80E02696CDBF33
:1009A000DEBFDF91CF911F910F91FF90EF90DF900D
:1009B000CF90BF90AF909F908F907F906F905F90FF
:1009C0004F903F902F900895CF93DF93C1EDD3E2E6
:1009D000488159816A817B8188E49CE30E94AD4A09
:1009E0008B818F938A818F9389818F9388818F9355
:1009F000809196241F928F938CE897E29F938F9318
:100A00000E945A908DB79EB708968DBF9EBF80E01A
:100A1000DF91CF910895CF93DF931F921F92CDB7AF
:100A2000DEB719821A82BE016F5F7F4F8BEE9CE3A7
:100A30000E94FF32882341F08EE997E29F938F93C3
:100A40000E945A900F900F9086EA97E20E9474904D
:100A500089811F928F938EEB97E29F938F930E94D1
:100A60005A908A811F928F938CEC97E29F938F9379
:100A70000E945A90809196241F928F938AED97E25C
:100A80009F938F930E945A90CDBFDEBF80E00F905E
:100A90000F90DF91CF91089581EE9CE30E941B158A
:100AA000882341F082ED96E29F938F930E945A90A3
:100AB0000F900F90809196241F928F938BEE97E268
:100AC0009F938F930E945A900F900F900F900F90CA
:100AD00080E008958BEE9CE30E94C814882341F0C7
:100AE00082ED96E29F938F930E945A900F900F9001
:100AF000809196241F928F9388EF97E29F938F9314
:100B00000E945A900F900F900F900F9080E00895E0
:100B100066E974E288E59CE30E94AD15882341F004
:100B200082ED96E29F938F930E945A900F900F90C0
:100B3000809196241F928F9385E098E29F938F93E4
:100B40000E945A900F900F900F900F9080E00895A0
:100B50006091912181EE9CE30E94EB25882341F076
:100B600082ED96E29F938F930E945A900F900F9080
:100B7000809194218F93809193218F9380919221E2
:100B80008F93809191218F938BE198E29F938F9324
:100B90000E945A900F900F900F900F900F900F900F
:100BA00080E00895CF9380917F2190918021A09142
:100BB0008121B09182210697A105B10540F082ED17
:100BC00096E29F938F930E945A900F900F9080917E
:100BD0007F2190918021A0918121B091822182304A
:100BE0009105A105B10529F170F40097A105B105A2
:100BF000D1F00197A105B10571F58EE498E20E944C
:100C00007490C8E029C084309105A105B105E9F0D0
:100C1000B0F00597A105B105F1F488E998E20E94CA
:100C20007490CAE019C08AE398E20E947490C0E010
:100C300013C08FE598E20E947490C7E00DC080E772
:100C400098E20E947490C5E007C088E898E20E948C
:100C50007490C6E001C0C0E060E081EE9CE30E94B9
:100C6000D62C60E081EE9CE30E94EB256C2F81EE98
:100C70009CE30E943C2DC63031F462E070E081EECE
:100C80009CE30E94A52D60E081EE9CE30E946B3006
:100C900061E081EE9CE30E94EB2561E081EE9CE344
:100CA0000E94D62C80E0CF91089560E081EE9CE315
:100CB0000E94EB2560E081EE9CE30E94D62C60E070
:100CC00081EE9CE30E943C2D61E081EE9CE30E945A
:100CD0006B3061E081EE9CE30E94D62C61E081EEF6
:100CE0009CE30E94EB258EEA98E20E94749080E0DB
:100CF000089581ED98E20E94749040914D2069E042
:100D000080E090E20C94CD8B8091E3239091E423DA
:100D1000A091E523B091E623AC01BD0141505109FA
:100D200061097109443651056105710558F4AC013A
:100D3000BD014051510961097109413551056105F4
:100D40007105F8F482ED96E29F938F930E945A907A
:100D50008091E6238F938091E5238F938091E42304
:100D60008F938091E3238F938BED98E29F938F93E2
:100D70000E945A908DB79EB708968DBF9EBF81E0A6
:100D8000089581369105A105B10550F0815691096C
:100D900091E001C0990F8A95EAF79093962402C0DA
:100DA00080939624809196241F928F938BEE98E2E5
:100DB0009F938F930E945A900F900F900F900F90D7
:100DC00080E008958091C3229091C422A091C52211
:100DD000B091C622AC01BD014150510961097109B0
:100DE000443651056105710558F4AC01BD0140510F
:100DF0005109610971094135510561057105F8F421
:100E000082ED96E29F938F930E945A908091C62222
:100E10008F938091C5228F938091C4228F9380916C
:100E2000C3228F938BED98E29F938F930E945A90E9
:100E30008DB79EB708968DBF9EBF81E0089581361D
:100E40009105A105B10550F08156910991E001C0CD
:100E5000990F8A95EAF79093962402C0809396247E
:100E6000809196241F928F938BEE98E29F938F939D
:100E70000E945A900F900F900F900F9080E008956D
:100E800080917B2290917C22A0917D22B0917E2244
:100E9000AC01BD0141505109610971094436510548
:100EA0006105710558F4AC01BD014051510961095A
:100EB00071094135510561057105F8F482ED96E23D
:100EC0009F938F930E945A9080917E228F9380915E
:100ED0007D228F9380917C228F9380917B228F93B0
:100EE0008BED98E29F938F930E945A908DB79EB797
:100EF00008968DBF9EBF81E0089581369105A105BA
:100F0000B10550F08156910991E001C0990F8A9581
:100F1000EAF79093962402C08093962480919624B9
:100F20001F928F938BEE98E29F938F930E945A901B
:100F30000F900F900F900F9080E0089580910F22F6
:100F400090911022A0911122B0911222AC01BD010A
:100F50004150510961097109443651056105710516
:100F600058F4AC01BD014051510961097109413585
:100F7000510561057105F8F482ED96E29F938F9318
:100F80000E945A90809112228F93809111228F9308
:100F9000809110228F9380910F228F938BED98E296
:100FA0009F938F930E945A908DB79EB708968DBFDE
:100FB0009EBF81E0089581369105A105B10550F0ED
:100FC0008156910991E001C0990F8A95EAF79093B3
:100FD000962402C080939624809196241F928F932A
:100FE0008BEE98E29F938F930E945A900F900F90F0
:100FF0000F900F9080E008958091CB209091CC20AD
:10100000A091CD20B091CE20AC01BD01415051093D
:1010100061097109443651056105710558F4AC0147
:10102000BD01405151096109710941355105610501
:101030007105F8F482ED96E29F938F930E945A9087
:101040008091CE208F938091CD208F938091CC2062
:101050008F938091CB208F938BED98E29F938F930A
:101060000E945A908DB79EB708968DBF9EBF81E0B3
:10107000089581369105A105B10550F08156910979
:1010800091E001C0990F8A95EAF79093962402C0E7
:1010900080939624809196241F928F938BEE98E2F2
:1010A0009F938F930E945A900F900F900F900F90E4
:1010B00080E008958091832090918420A0918520E4
:1010C000B0918620AC01BD014150510961097109FF
:1010D000443651056105710558F4AC01BD0140511C
:1010E0005109610971094135510561057105F8F42E
:1010F00082ED96E29F938F930E945A908091862072
:101100008F93809185208F93809184208F938091FD
:1011100083208F938BED98E29F938F930E945A9038
:101120008DB79EB708968DBF9EBF81E0089581362A
:101130009105A105B10550F08156910991E001C0DA
:10114000990F8A95EAF79093962402C0809396248B
:10115000809196241F928F938BEE98E29F938F93AA
:101160000E945A900F900F900F900F9080E008957A
:101170004091962450E080E090E061E070E09A01B8
:10118000082E02C0359527950A94E2F720FF15C076
:10119000FC01ED57FB4D2081E22FE695E695E695A3
:1011A00030E2E39FF0011124FA5F2770DB0102C0F7
:1011B000AA0FBB1F2A95E2F7A783019684309105F9
:1011C000F1F608956091BF237091C0238091C123EF
:1011D0009091C223603871058105910528F08AEF4E
:1011E00098E20E94749021C08AE49CE30E944A37EE
:1011F0000E94B8088091C2238F938091C1238F935E
:101200008091C0238F938091BF238F9380919624E8
:101210001F928F9380E099E29F938F930E945A9040
:101220008DB79EB708968DBF9EBF80E008951F9230
:101230000F920FB60F9211240BB60F922F933F937C
:101240004F935F936F937F938F939F93AF93BF93CE
:10125000EF93FF9320E040E050E060E070E083E433
:1012600094E20E942766FF91EF91BF91AF919F9109
:101270008F917F916F915F914F913F912F910F903F
:101280000BBE0F900FBE0F901F9018951F920F92DC
:101290000FB60F9211240BB60F922F933F934F93DB
:1012A0005F936F937F938F939F93AF93BF93EF93CE
:1012B000FF9383E494E20E949866FF91EF91BF91BF
:1012C000AF919F918F917F916F915F914F913F91DE
:1012D0002F910F900BBE0F900FBE0F901F9018957F
:1012E000CF93DF9380915000826080935000809173
:1012F000510081FFFCCFD8EDD4BFC1E0C0934000C6
:1013000065ED7CED82E390E00E940402F894D4BF86
:10131000C093960062E087ED94E20E94C55CC82FFE
:1013200064E08EE994E20E94DC5DC80F23E641E0B0
:1013300064E37BE38AE59CE30E94F97C23E641E0D9
:1013400068E97BE383EE9CE30E94F97C61E083E43F
:1013500094E20E94CB66D82F62E086E095E20E947C
:10136000D5528C0FC82FCD0F97E09093A20080919B
:10137000A20080688093A2009093A20078940E94BB
:101380002C7C8AE00E94C57B20E148E060916F24BC
:1013900080917324909174240E94E47620E149E0C6
:1013A0006091702480917524909176240E94E47657
:1013B00020E14AE060917124809177249091782413
:1013C0000E94E47620E14BE06091722480917924C0
:1013D00090917A240E94E47620E140E060915724C5
:1013E00080915F24909160240E94E47620E141E0A6
:1013F0006091582480916124909162240E94E47647
:1014000020E142E06091592480916324909164240A
:101410000E94E47620E143E060915A2480916524A3
:10142000909166240E94E47620E144E060915B2480
:1014300080916724909168240E94E47620E145E041
:1014400060915C248091692490916A240E94E476E2
:1014500020E146E060915D2480916B2490916C24A2
:101460000E94E47620E147E060915E2480916D2443
:1014700090916E240E94E4768C2FDF91CF91089595
:1014800080E008950E94837C80E00895CF938AE4F1
:101490009CE30E94DC36C82F0E94B80888E49CE3D5
:1014A0000E94224BC80F40E064E088E59CE30E9464
:1014B0009617C80F40E068E088E59CE30E94961705
:1014C0008C0FCF9108950E94460A882341F082ED47
:1014D00096E29F938F930E945A900F900F9083E112
:1014E00099E20E94749080E0089580E00895CF937F
:1014F0008FE0809396248AE49CE30E94F536C82FFF
:101500000E94B8088BEE9CE30E94D632C80F81EE91
:101510009CE30E949823C80F88E49CE30E945D4BE3
:10152000C80F40E064E088E59CE30E949617C80F6E
:1015300040E068E088E59CE30E949617C80F40E011
:1015400060E488E59CE30E949617C80F6AE37FE891
:1015500080E090E00E94040240E060E888E59CE3BF
:101560000E949617C80F6AE37FE880E090E00E942F
:10157000040240E060E288E59CE30E9496178C0F2D
:10158000CF9108950E94770A882341F082ED96E278
:101590009F938F930E945A900F900F9080E299E250
:1015A0000E94749080E008958EE299E20E94749007
:1015B00080E499E29F938F9386E499E29F938F93BF
:1015C0000E945A908BE599E29F938F938FE699E260
:1015D0009F938F930E945A9085E899E29F938F93EF
:1015E00089E999E29F938F930E945A908DB79EB795
:1015F0000C968DBF9EBF80E008950E94D40A882378
:1016000041F082ED96E29F938F930E945A900F9043
:101610000F9082EB99E20E94749080E0089562300E
:10162000A0F59FEF980F9F3080F58093962461304E
:10163000A1F441E062E088E59CE30E94961740E057
:1016400064E088E59CE30E94961741E068E088E545
:101650009CE30E94961780E0089540E062E088E5F0
:101660009CE30E94961741E064E088E59CE30E94B9
:10167000961740E068E088E59CE30E94961788E4AE
:101680009CE30E94224B80E0089581E008956091E0
:10169000D522809196240E940F0B882341F082ED81
:1016A00096E29F938F930E945A900F900F90809193
:1016B000D8228F938091D7228F938091D6228F93B7
:1016C0008091D5228F93809196241F928F9382ECE4
:1016D00099E29F938F930E945A908DB79EB7089678
:1016E0008DBF9EBF80E008956230B8F49FEF980FE1
:1016F0009F3098F480939624613039F441E088E576
:101700009CE30E94961780E0089540E061E088E540
:101710009CE30E94961780E0089581E0089560910F
:10172000E722809196240E94740B882341F082ED79
:1017300096E29F938F930E945A900F900F90809102
:10174000EA228F938091E9228F938091E8228F93F0
:101750008091E7228F93809196241F928F9389ED39
:1017600099E29F938F930E945A908DB79EB70896E7
:101770008DBF9EBF80E00895603460F49FEF980FA6
:101780009F3040F4809396248BEE9CE30E941734A4
:1017900080E0089581E008958091F5239091F623EB
:1017A000A091F723B091F82380349105A105B105EC
:1017B00060F08FE390E0A0E0B0E08093F523909399
:1017C000F623A093F723B093F823809119249091E6
:1017D0001A24A0911B24B0911C240097A105B105E7
:1017E00041F56091F523809196240E94BC0B8823DB
:1017F00021F081EF99E20E9474908091F8238F93F9
:101800008091F7238F938091F6238F938091F52316
:101810008F93809196241F928F9381E09AE29F93F9
:101820008F930E945A908DB79EB708968DBF9EBF2A
:1018300011C04091F5230197A105B10531F460E095
:101840008BEE9CE30E94383405C061E08BEE9CE394
:101850000E94383480E00895CF92DF92EF92FF9299
:101860000F931F93CF93DF931F92CDB7DEB79FEFF8
:10187000980F9F30B8F58093962400E010E084E143
:10188000C82E8AE2D82E9DE1E92E9AE2F92E802F09
:10189000837051F41F930F93DF92CF920E945A905E
:1018A0000F900F900F900F90AE014F5F5F4FB801F8
:1018B00081EE9CE30E94632389811F928F93FF92A4
:1018C000EF920E945A900F5F1F4F0F900F900F9052
:1018D0000F9001371105D9F68AE090E00E946E90D2
:1018E00080E001C081E00F90DF91CF911F910F91B7
:1018F000FF90EF90DF90CF900895CF93DF931F92EA
:10190000CDB7DEB7809196240E942C0C882341F03D
:1019100082ED96E29F938F930E945A900F900F90C2
:10192000809196241F928F9385E29AE29F938F93E2
:101930000E945A9085E39AE20E947490BE016F5F04
:101940007F4F81EE9CE30E9434300F900F900F90F8
:101950000F908981811105C083E49AE20E947490FE
:1019600004C081E69AE20E947490BE016F5F7F4FCF
:1019700081EE9CE30E94182F8981811105C08BE7BD
:101980009AE20E94749004C084EA9AE20E947490E1
:10199000BE016F5F7F4F81EE9CE30E94DA2E89814A
:1019A000811105C089EC9AE20E94749004C088EE0F
:1019B0009AE20E947490BE016F5F7F4F81EE9CE3BC
:1019C0000E94962E8981811105C083E09BE20E94CE
:1019D000749004C085E39BE20E947490BE016F5F27
:1019E0007F4F81EE9CE30E94832F8981811105C086
:1019F0008FE49BE20E94749004C082E89BE20E9404
:101A00007490BE016F5F7F4F81EE9CE30E94542E65
:101A10008981811105C081EB9BE20E94749004C012
:101A200086ED9BE20E94749080E00F90DF91CF9151
:101A300008950F931F93CF93DF9300D01F92CDB7DC
:101A4000DEB79FEF980F9F3008F06BC0809396240D
:101A50008E010F5F1F4F9E012E5F3F4FAE014D5F06
:101A60005F4FBE016C5F7F4F88E59CE30E940A1CBC
:101A70008C811F928F938AEF9BE29F938F930E949A
:101A80005A908B811F928F9381E19CE29F938F9359
:101A90000E945A908A811F928F9389E29CE29F93C1
:101AA0008F930E945A9089811F928F9383E49CE2C6
:101AB0009F938F930E945A909E012E5F3F4FAE01DD
:101AC0004D5F5F4FBE016C5F7F4F89EE9CE30E94CC
:101AD0000A1C8C811F928F9387EF9BE29F938F93B9
:101AE0000E945A908B811F928F938EE09CE29F936D
:101AF0008F930E945A908A811F928F9386E29CE274
:101B00009F938F930E945A9089811F928F9380E4B4
:101B10009CE29F938F930E945A90CDBFDEBF80E0DE
:101B200001C081E02496CDBFDEBFDF91CF911F9130
:101B30000F910895809196240E94190D882341F0F9
:101B40008EE997E29F938F930E945A900F900F9087
:101B5000809196241F928F938BE59CE29F938F93A5
:101B60000E945A900F900F900F900F9080E0089570
:101B7000CF92DF92EF92FF920F931F93CF93DF9359
:101B80001F921F92CDB7DEB79FEF980F9F3008F0DE
:101B9000B8C08093962420E148E060916F24809142
:101BA0007324909174240E94E47620E149E06091CE
:101BB000702480917524909176240E94E47620E12F
:101BC0004AE06091712480917724909178240E945A
:101BD000E47620E14BE06091722480917924909129
:101BE0007A240E94E47683E7E82E84E2F82E00E06F
:101BF00010E09DE6C92E9CE2D92E8091962490E0BB
:101C0000002E02C0959587950A94E2F780FF1FC0C9
:101C1000AE014F5F5F4FF801E159FB4D6081F70165
:101C2000808191810E948C778A818F9389818F93A3
:101C3000C8018F5B9F4F9F938F93DF92CF920E943B
:101C40005A900F900F900F900F900F900F900F5F82
:101C50001F4FF2E0EF0EF11C0430110571F620E188
:101C600040E06091572480915F24909160240E940D
:101C7000E47620E141E060915824809161249091C4
:101C800062240E94E47620E142E060915924809130
:101C90006324909164240E94E47620E143E0609103
:101CA0005A2480916524909166240E94E47620E174
:101CB00044E060915B2480916724909168240E94A5
:101CC000E47620E145E060915C2480916924909164
:101CD0006A240E94E47620E146E060915D248091D0
:101CE0006B2490916C240E94E47620E147E060919F
:101CF0005E2480916D2490916E240E94E47680E0B1
:101D000001C081E00F900F90DF91CF911F910F9153
:101D1000FF90EF90DF90CF900895809196240E94DD
:101D2000B80D882341F082ED96E29F938F930E9435
:101D30005A900F900F90809196241F928F9380E875
:101D40009CE29F938F930E945A900F900F900F9058
:101D50000F9080E00895CF92DF92EF92FF920F9361
:101D60001F93CF93DF938B3068F5062F069506956A
:101D7000069590E2099F800111241A5F677021E0A7
:101D800030E07901062E01C0EE0C0A94EAF7CE2C61
:101D9000F801E682C82FD0E0CC0FDD1FD12C8D2DAD
:101DA00090E08C179D0754F465E176E185E090E0C2
:101DB0000E940402F801C782D394F1CFF801E682B1
:101DC00080E001C081E0DF91CF911F910F91FF90E2
:101DD000EF90DF90CF90089568E28091C7210E9434
:101DE000AB0E882341F082ED96E29F938F930E9481
:101DF0005A900F900F901F9288E28F938091CA2182
:101E00008F938091C9218F938091C8218F93809166
:101E1000C7218F9384E99CE29F938F930E945A90ED
:101E20008DB79EB708968DBF9EBF80E00895CF9274
:101E3000DF92EF92FF926B017C0140E060E189EE5E
:101E40009CE30E94961740E060E289EE9CE30E94CA
:101E5000961740E060E489EE9CE30E94961740E00C
:101E600060E889EE9CE30E94961781E2C8168AEA30
:101E7000D80684E4E806F10440F040E060E189EE31
:101E80009CE30E94961741E072C081ECC81686EC74
:101E9000D8068DE2E806F10440F040E060E189EE0A
:101EA0009CE30E94961740E03BC081E6C81683EE93
:101EB000D80686E1E806F10470F041E060E189EEC1
:101EC0009CE30E94961741E060E289EE9CE30E9449
:101ED000961741E052C081EBC81681E7D8068BE027
:101EE000E806F10470F041E060E189EE9CE30E94B5
:101EF000961740E060E289EE9CE30E94961741E06D
:101F000015C089EDC81688EBD80685E0E806F1040F
:101F1000C8F041E060E189EE9CE30E94961741E041
:101F200060E289EE9CE30E94961740E060E489EE4F
:101F30009CE30E94961741E060E889EE9CE30E94D2
:101F4000961726C040E060E189EE9CE3CD28CE28BC
:101F5000CF2851F00E94961740E060E289EE9CE3A2
:101F60000E94961741E009C00E94961740E060E287
:101F700089EE9CE30E94961740E060E489EE9CE3C2
:101F80000E94961740E060E889EE9CE30E94961755
:101F900080E0FF90EF90DF90CF9008950F931F9314
:101FA000CF93DF931092E03CDFE0D09396242EE4B1
:101FB0003CE343E55CE369EE74E288E59CE30E9460
:101FC000DC16C82F2EE43CE343E55CE367EF74E2E4
:101FD00089EE9CE30E94DC16C80F2EE934E24EE441
:101FE0005CE363E57CE38BEE9CE30E941132C80F57
:101FF0002CEA34E24EE45CE363E57CE381EE9CE3AF
:102000000E940D1EC80F2AEB34E24EE45CE363E548
:102010007CE388E49CE30E941539C80F08EC14E2C5
:102020002EE43CE343E55CE36FE274E28AE49CE384
:102030000E946036C80FD093962488E59CE30E94E6
:102040000B17C80F89EE9CE30E940B17C80F40E0E6
:1020500060E889EE9CE30E941819C80F40E060E434
:1020600089EE9CE30E941819C80F40E060E289EEF7
:102070009CE30E941819C80F40E060E189EE9CE3E0
:102080000E941819C80F40E068E089EE9CE30E94A6
:102090001819C80F40E064E089EE9CE30E9418190B
:1020A000C80F41E062E089EE9CE30E941819C80F56
:1020B00040E061E089EE9CE30E941819C80F40E0FF
:1020C00064E088E59CE30E941819C80F40E068E0CE
:1020D00088E59CE30E941819C80F40E060E188E59C
:1020E0009CE30E941819C80F40E060E288E59CE379
:1020F0000E941819C80F40E062E088E59CE30E9446
:102100001819C80F40E061E088E59CE30E941819A7
:10211000C80F40E060E488E59CE30E941819C80FEE
:1021200040E060E888E59CE30E941819C80F41E090
:1021300061E089EE9CE30E949617C80F41E068E0D9
:1021400089EE9CE30E949617C80F41E064E088E5A1
:102150009CE30E949617C80F41E068E088E59CE385
:102160000E949617C80F41E060E188E59CE30E9459
:102170009617C80F41E060E288E59CE30E9496173D
:10218000C80F6AE37FE880E090E00E94040241E02B
:1021900060E888E59CE30E949617C80F6AE37FE831
:1021A00080E090E00E94040241E060E488E59CE366
:1021B0000E949617C80F41E062E088E59CE30E9408
:1021C0009617C80F40E061E088E59CE30E949617EF
:1021D000C80F6AE67EE689E190E00E940402D0938F
:1021E000962480E2809305068AE49CE30E94AA3646
:1021F000C80F0E94B8088BEE9CE30E944E32C80FB5
:1022000081EE9CE30E943C1EC80F00E010E080912C
:10221000962490E0002E02C0959587950A94E2F7E7
:1022200080FF07C041E068E089EE9CE30E949617BA
:10223000C80F0F5F1F4F0430110549F788E49CE376
:102240000E945239C80F88E49CE30E946E4BC80F6D
:1022500060E070E0CB010E94170F8C0FDF91CF91EF
:102260001F910F9108950E94CE0F882341F082EDB7
:1022700096E29F938F930E945A900F900F9086EA58
:102280009CE20E94749080E00895CF939FEF980F96
:102290009F3008F0AAC08093962441E060E889EE60
:1022A0009CE30E949617C82F40E060E489EE9CE30F
:1022B0000E949617C80F41E060E289EE9CE30E94FD
:1022C0009617C80F41E060E189EE9CE30E949617E3
:1022D000C80F41E064E089EE9CE30E949617C80FA6
:1022E00040E061E088E59CE30E949617C80F41E05A
:1022F00062E088E59CE30E949617C80F41E064E025
:1023000088E59CE30E949617C80F41E068E088E5E5
:102310009CE30E949617C80F41E060E188E59CE3CA
:102320000E949617C80F41E060E288E59CE30E9496
:102330009617C80F6AE37FE880E090E00E940402ED
:1023400041E060E888E59CE30E949617C80F6AE3C5
:102350007FE880E090E00E94040241E060E488E5CC
:102360009CE30E949617C80F6AE37FE880E090E044
:102370000E94040281EE9CE30E943C1E8AE49CE3DE
:102380000E94C336C80F8BEE9CE30E948632C80FB2
:1023900081EE9CE30E94471FC80F88E49CE30E94E3
:1023A0006E4BC80F60E070E0CB010E94170FC80FA2
:1023B00041E060E889EE9CE30E949617C80F40E078
:1023C00060E489EE9CE30E949617C80F41E060E24A
:1023D00089EE9CE30E949617C80F41E060E189EE08
:1023E0009CE30E9496178C0F01C081E0CF91089565
:1023F000809196240E944511882341F082ED96E257
:102400009F938F930E945A900F900F9080919624E3
:102410001F928F9383EB9CE29F938F930E945A901D
:102420000F900F900F900F9080E00895CF939FEF43
:10243000980F9F30F8F4809396248AE49CE30E94DE
:102440000637C82F0E94B8088BEE9CE30E94E73243
:10245000C80F81EE9CE30E946D22C80F88E49CE3C4
:102460000E946E4BC80F60E070E0CB010E94170F16
:102470008C0F01C081E0CF910895809196240E9435
:102480001612882341F082ED96E29F938F930E946B
:102490005A900F900F90809196241F928F9383EC07
:1024A0009CE29F938F930E945A900F900F900F90F1
:1024B0000F9080E008954F925F926F927F928F927B
:1024C0009F92AF92BF92CF92DF92EF92FF920F93C3
:1024D0001F93CF93DF93C090F922D090FA22E0901F
:1024E000FB22F090FC2220911D2330911E2340916D
:1024F0001F2350912023A8EEB3E00E94B18D2B0141
:102500003C018090412390904223C0915323D0916D
:102510005423109165230091AD2381E0C81685E80E
:10252000D8068FECE806F10428F08AEF98E20E94C2
:1025300074904DC088E49CE30E946E4BC701B601C5
:102540000E94170F41E064E089EE9CE30E94961719
:1025500061E270E080E090E00E94040281E098E196
:10256000C91696ECD90698E0E906F10408F080E077
:102570008F930F931F93DF93CF9382E0A82EB12CFC
:10258000C12CD12CE12CF12C8701A301920160E038
:1025900088E49CE30E94193B8091FC228F938091F8
:1025A000FB228F938091FA228F938091F9228F934F
:1025B000809196241F928F9383ED9CE29F938F933B
:1025C0000E945A908DB79EB70D968DBF9EBF80E03A
:1025D000DF91CF911F910F91FF90EF90DF90CF90FF
:1025E000BF90AF909F908F907F906F905F904F9033
:1025F00008952F923F924F925F926F927F928F92A7
:102600009F92AF92BF92CF92DF92EF92FF920F9381
:102610001F93CF93DF93CDB7DEB72997CDBFDEBF32
:102620008AE090E00E946E901F921F9285EE9CE2DD
:102630009F938F930E945A900F900F900F900F903E
:1026400018861986912C712C19821A82612C1B8292
:102650001C821D821E821F8228EC222E312C412CCE
:10266000512CE7E0F0E0CC24C394AC2DB0E0A20103
:1026700091010E94B18DDC01CB0188549D40A109DC
:10268000B10989349D40A105B10560F080E4C8120C
:1026900006C088EE9CE20E94749081E08CC0CC0C55
:1026A000319719F788E49CE30E946E4BA8EEB3E0E3
:1026B000A20191010E94B18D0E94170FC201B101C8
:1026C00025E030E040E050E00E94EC8D812CA12C10
:1026D000790101E410E020E43BE14FE553E160E0E3
:1026E00088E49CE30E94513A68857985892D972D6D
:1026F00028EA36E140E050E00E94EC8D69017A0161
:102700008C819D81AE81BF8182179307A407B50795
:1027100041F188EAA82E96E1B92EC12CD12CE12CEA
:10272000F12C00E010E028853985492D572D69816D
:102730007A81862D9B810E94278EC22ED32EE42E75
:10274000F52E5F934F933F932F93AEE1BDE2BF937E
:10275000AF930E945A900F900F900F900F900F9090
:102760000F90A895FFEF2F1A3F0A4F0A5F0A28859E
:102770003985492D572D69817A81862D9B81A4E663
:102780000E940F8F28873987942E752E69837A834C
:10279000682E9B8321E7221627E13206410451046B
:1027A00029F0CC82DD82EE82FF825BCF8AE090E06E
:1027B0000E946E9080E02996CDBFDEBFDF91CF9161
:1027C0001F910F91FF90EF90DF90CF90BF90AF904F
:1027D0009F908F907F906F905F904F903F902F9041
:1027E000089588E49CE30E946E4B60E070E0CB01AA
:1027F0000E94170F809196241F928F9386E29DE28C
:102800009F938F930E945A900F900F900F900F906C
:1028100080E00895CF93DF93CBE9D3E2688179819B
:102820008A819B810E94170F8B818F938A818F935E
:1028300089818F9388818F93809196241F928F93A3
:1028400083E39DE29F938F930E945A908DB79EB72A
:1028500008968DBF9EBF80E0DF91CF910895CF9302
:102860008091952090919620A0919720B0919820EA
:10287000892B8A2B8B2B29F088E49CE30E94E84A61
:102880000BC088E49CE30E946E4BC82F60E070E0B0
:10289000CB010E94170F8C0F882341F082ED96E246
:1028A0009F938F930E945A900F900F908091982041
:1028B0008F93809197208F93809196208F93809112
:1028C00095208F93809196241F928F9382E59DE2AD
:1028D0009F938F930E945A908DB79EB708968DBF95
:1028E0009EBF80E0CF9108950F931F938A0129E046
:1028F00040E050E20E94EE8481508A3070F440E063
:1029000069E080E090E20E94CD8B86E69DE29F9395
:102910008F930E945A900F900F9080E01F910F911B
:10292000089585E196E1A5E0B0E00197A109B1091C
:10293000E1F708951F93CF93DF93009721F1EC0106
:102940008DE299E30E9474908CEC99E30E9474905C
:1029500081E499E30E94749085E699E30E94749063
:1029600010E0612FCE010E944A370E949114175E39
:102970001038B9F717E6612FCE010E944A370E943E
:1029800091141951F8CF81E0DF91CF911F910895F3
:10299000EF92FF920F931F93CF93DF931F921F929B
:1029A000CDB7DEB70097E9F18C018BE899E30E947F
:1029B00074908BEC99E30E94749040E560E0C8014C
:1029C0000E943834AE014F5F5F4F60E0C8010E9443
:1029D000A6348A818F9389818F938FE9E82E89E3CA
:1029E000F82EFF92EF920E945A9040E561E0C801F4
:1029F0000E943834AE014F5F5F4F61E0C8010E9412
:102A0000A6348A818F9389818F93FF92EF920E94DF
:102A10005A908AE090E00E946E90CDBFDEBF80E0C9
:102A200001C081E00F900F90DF91CF911F910F9126
:102A3000FF90EF900895EF92FF920F931F93CF9323
:102A4000DF9300D0CDB7DEB7009709F456C08C01F4
:102A500082EB99E30E94749089EC99E30E94749050
:102A6000BE016D5F7F4FC8010E9450248B811F9271
:102A70008F9380EE99E39F938F930E945A90BE01AB
:102A80006F5F7F4FC8010E941F258A818F938981C4
:102A90008F9383EF99E39F938F930E945A9062E004
:102AA000C8010E94E723BE016D5F7F4FC8010E94ED
:102AB00019248B811F928F9386E0E82E8AE3F82EEB
:102AC000FF92EF920E945A9060E0C8010E94E723B3
:102AD000BE016D5F7F4FC8010E9419248B811F9238
:102AE0008F93FF92EF920E945A908AE090E00E94AA
:102AF0006E90CDBFDEBF80E001C081E02396CDBFE8
:102B0000DEBFDF91CF911F910F91FF90EF9008955D
:102B1000CF93DF930097E9F0EC0188E19AE30E94FC
:102B200074908BEC99E30E947490CE010E9452390C
:102B3000CE010E94E84A8CE29AE30E94749080E5FC
:102B40009AE30E9474908AE090E00E946E9080E088
:102B500001C081E0DF91CF910895BF92CF92DF92C3
:102B6000EF92FF920F931F93CF93DF9300D01F92AA
:102B7000CDB7DEB7009709F411C16B017C018FE07E
:102B8000B82EFB01B08240E061E0C7010E94181935
:102B900040E062E0C7010E94181940E064E0C7010C
:102BA0000E94181940E068E0C7010E94181940E02F
:102BB00060E1C7010E94181940E060E2C7010E946D
:102BC000181940E060E4C7010E94181940E060E86D
:102BD000C7010E94181940E061E0C7010E949617E2
:102BE00040E062E0C7010E94961740E064E0C70140
:102BF0000E94961740E068E0C7010E94961740E0E7
:102C000060E1C7010E94961740E060E2C7010E94A0
:102C1000961740E060E4C7010E94961740E060E824
:102C2000C7010E94961785E0F601808341E061E0CC
:102C3000C7010E94961741E064E0C7010E94961701
:102C400041E060E1C7010E94961741E060E4C701DE
:102C50000E9496178AE0F601808341E062E0C70196
:102C60000E94961741E068E0C7010E94961741E074
:102C700060E2C7010E94961741E060E8C7010E9428
:102C8000961781E0F60180838E010F5F1F4F9E0132
:102C90002E5F3F4FAE014D5F5F4FBE016C5F7F4FB8
:102CA000C7010E940A1C89811F928F938A811F92FB
:102CB0008F938B811F928F938C811F928F9385E7C7
:102CC0009AE39F938F930E945A9082E0F60180834B
:102CD0009E012E5F3F4FAE014D5F5F4FBE016C5FA7
:102CE0007F4FC7010E940A1C89811F928F938A819E
:102CF0001F928F938B811F928F938C811F928F9342
:102D000083EA9AE39F938F930E945A9084E0F6019E
:102D100080839E012E5F3F4FAE014D5F5F4FBE012E
:102D20006C5F7F4FC7010E940A1C89811F928F939D
:102D30008A811F928F938B811F928F938C811F9218
:102D40008F9381ED9AE39F938F930E945A9088E02E
:102D5000F60180839E012E5F3F4FAE014D5F5F4FB6
:102D6000BE016C5F7F4FC7010E940A1C89811F92C0
:102D70008F938A811F928F938B811F928F938C8167
:102D80001F928F938FEF9AE39F938F930E945A9095
:102D9000F601B082CDBFDEBF80E001C081E02496A5
:102DA000CDBFDEBFDF91CF911F910F91FF90EF90CC
:102DB000DF90CF90BF900895CF93DF93CDB7DEB76C
:102DC0002897CDBFDEBF89839A836B837C834D8335
:102DD0005E832F83388789819A81009711F481E07F
:102DE00014C08D819E818093FC3B9093FD3B8F812D
:102DF00098858093FE3B9093FF3B89819A812B813C
:102E00003C81FC012083318380E02896CDBFDEBF6A
:102E1000DF91CF910895CF93DF931F921F92CDB78B
:102E2000DEB789839A8389819A81009711F481E0C2
:102E300078C08091FE3B9091FF3BFC011082809115
:102E4000FE3B9091FF3B22E0FC0121838091FE3B01
:102E50009091FF3BFC018281938121E0FC01208362
:102E60008091FE3B9091FF3BFC0182819381019612
:102E7000FC0110828091FE3B9091FF3BFC0182811E
:102E80009381029622E0FC0120838091FE3B909189
:102E9000FF3BFC01828193810396FC0110828091AB
:102EA000FE3B9091FF3BFC0182819381049623E0DD
:102EB000FC0120838091FE3B9091FF3BFC018281CD
:102EC000938105962FEFFC0120838091FE3B90912A
:102ED000FF3B26E0FC0124838091FC3B9091FD3B6D
:102EE00020E1FC0121838091FC3B9091FD3BFC01A2
:102EF000148289819A81FC0180819181FC01208169
:102F000031814091FC3B5091FD3B6091FE3B7091C3
:102F1000FF3B89819A81FC0180819181F90119959A
:102F200080E00F900F90DF91CF910895CF93DF93C2
:102F3000CDB7DEB72597CDBFDEBF8A839B836C8379
:102F40004D838A819B81009711F481E0AAC0198288
:102F50008091FE3B9091FF3BFC0110828091FE3BF3
:102F60009091FF3B21E0FC0121838091FE3B9091F9
:102F7000FF3BFC018281938121E0FC012083809151
:102F8000FE3B9091FF3B21E0FC0124838091FC3BC0
:102F90009091FD3B20E1FC0121838091FC3B9091CD
:102FA000FD3B21E0FC0124838A819B81FC0180811F
:102FB0009181FC01208131814091FC3B5091FD3B8E
:102FC0006091FE3B7091FF3B8A819B81FC01808177
:102FD0009181F90119958091FC3B9091FD3BFC0199
:102FE00082819381FC01808189838D81882329F0EE
:102FF00099818C81892B898306C08C81982F90952B
:103000008981892389838091FE3B9091FF3BFC015C
:1030100010828091FE3B9091FF3B22E0FC012183D6
:103020008091FE3B9091FF3BFC018281938121E0E6
:10303000FC0120838091FE3B9091FF3BFC0182814B
:10304000938101962981FC0120838091FE3B909120
:10305000FF3B22E0FC0124838091FC3B9091FD3BEF
:1030600020E1FC0121838091FC3B9091FD3BFC0120
:1030700014828A819B81FC0180819181FC012081E5
:1030800031814091FC3B5091FD3B6091FE3B709142
:10309000FF3B8A819B81FC0180819181F901199517
:1030A00080E02596CDBFDEBFDF91CF910895CF930D
:1030B000DF93CDB7DEB72597CDBFDEBF8A839B8375
:1030C0006C834D838A819B81009711F481E0AAC0B3
:1030D00019828091FE3B9091FF3BFC011082809110
:1030E000FE3B9091FF3B21E0FC0121838091FE3B60
:1030F0009091FF3BFC018281938122E0FC012083BF
:103100008091FE3B9091FF3B21E0FC012483809164
:10311000FC3B9091FD3B20E1FC0121838091FC3B35
:103120009091FD3B21E0FC0124838A819B81FC017D
:1031300080819181FC01208131814091FC3B509143
:10314000FD3B6091FE3B7091FF3B8A819B81FC01BE
:1031500080819181F90119958091FC3B9091FD3B13
:10316000FC0182819381FC01808189838D81882388
:1031700029F099818C81892B898306C08C81982FB5
:1031800090958981892389838091FE3B9091FF3BB3
:10319000FC0110828091FE3B9091FF3B22E0FC01FC
:1031A00021838091FE3B9091FF3BFC0182819381C2
:1031B00022E0FC0120838091FE3B9091FF3BFC01CB
:1031C0008281938101962981FC0120838091FE3BBD
:1031D0009091FF3B22E0FC0124838091FC3B909185
:1031E000FD3B20E1FC0121838091FC3B9091FD3B64
:1031F000FC0114828A819B81FC0180819181FC0108
:10320000208131814091FC3B5091FD3B6091FE3B20
:103210007091FF3B8A819B81FC0180819181F90142
:10322000199580E02596CDBFDEBFDF91CF9108953F
:10323000CF93DF93CDB7DEB72597CDBFDEBF8A83AF
:103240009B836C834D838A819B81009711F481E07D
:10325000AAC019828091FE3B9091FF3BFC01108235
:103260008091FE3B9091FF3B21E0FC012183809106
:10327000FE3B9091FF3BFC018281938123E0FC01A6
:1032800020838091FE3B9091FF3B21E0FC01248351
:103290008091FC3B9091FD3B20E1FC0121838091DA
:1032A000FC3B9091FD3B21E0FC0124838A819B81C2
:1032B000FC0180819181FC01208131814091FC3BA6
:1032C0005091FD3B6091FE3B7091FF3B8A819B8159
:1032D000FC0180819181F90119958091FC3B9091CD
:1032E000FD3BFC0182819381FC01808189838D817A
:1032F000882329F099818C81892B898306C08C8150
:10330000982F90958981892389838091FE3B9091A4
:10331000FF3BFC0110828091FE3B9091FF3B22E03D
:10332000FC0121838091FE3B9091FF3BFC01828157
:10333000938123E0FC0120838091FE3B9091FF3B31
:10334000FC018281938101962981FC012083809177
:10335000FE3B9091FF3B22E0FC0124838091FC3BEB
:103360009091FD3B20E1FC0121838091FC3B9091F9
:10337000FD3BFC0114828A819B81FC01808191814B
:10338000FC01208131814091FC3B5091FD3B6091DB
:10339000FE3B7091FF3B8A819B81FC018081918182
:1033A000F901199580E02596CDBFDEBFDF91CF9161
:1033B0000895CF93DF93CDB7DEB72597CDBFDEBF9E
:1033C00089839A836B834C835D8389819A8100977B
:1033D00011F481E05AC08091FE3B9091FF3BFC01CB
:1033E00010828091FE3B9091FF3B21E0FC01218304
:1033F0008091FE3B9091FF3BFC0182819381FC0117
:1034000010828091FE3B9091FF3B21E0FC012483E0
:103410008091FC3B9091FD3B20E1FC012183809158
:10342000FC3B9091FD3B21E0FC01248389819A8142
:10343000FC0180819181FC01208131814091FC3B24
:103440005091FD3B6091FE3B7091FF3B89819A81D9
:10345000FC0180819181F90119958091FC3B90914B
:10346000FD3BFC0182819381FC0190818B8189234A
:10347000882331F08C819D8121E0FC01208304C0F0
:103480008C819D81FC01108280E02596CDBFDEBF3E
:10349000DF91CF910895CF93DF93CDB7DEB7259716
:1034A000CDBFDEBF89839A836B834C835D83898123
:1034B0009A81009711F481E05BC08091FE3B90916E
:1034C000FF3BFC0110828091FE3B9091FF3B21E08D
:1034D000FC0121838091FE3B9091FF3BFC018281A6
:1034E000938121E0FC0120838091FE3B9091FF3B82
:1034F00021E0FC0124838091FC3B9091FD3B20E185
:10350000FC0121838091FC3B9091FD3B21E0FC017B
:10351000248389819A81FC0180819181FC01208131
:1035200031814091FC3B5091FD3B6091FE3B70919D
:10353000FF3B89819A81FC0180819181F901199574
:103540008091FC3B9091FD3BFC0182819381FC01C9
:1035500090818B818923882331F08C819D8121E0AA
:10356000FC01208304C08C819D81FC01108280E0DD
:103570002596CDBFDEBFDF91CF910895CF93DF9326
:10358000CDB7DEB72597CDBFDEBF89839A836B8326
:103590004C835D8389819A81009711F481E05BC03F
:1035A0008091FE3B9091FF3BFC0110828091FE3B9D
:1035B0009091FF3B21E0FC0121838091FE3B9091A3
:1035C000FF3BFC018281938122E0FC0120838091FA
:1035D000FE3B9091FF3B21E0FC0124838091FC3B6A
:1035E0009091FD3B20E1FC0121838091FC3B909177
:1035F000FD3B21E0FC01248389819A81FC018081CB
:103600009181FC01208131814091FC3B5091FD3B37
:103610006091FE3B7091FF3B89819A81FC01808122
:103620009181F90119958091FC3B9091FD3BFC0142
:1036300082819381FC0190818B818923882331F0E1
:103640008C819D8121E0FC01208304C08C819D81BF
:10365000FC01108280E02596CDBFDEBFDF91CF91C7
:103660000895CF93DF93CDB7DEB72597CDBFDEBFEB
:1036700089839A836B834C835D8389819A810097C8
:1036800011F481E060C08091FE3B9091FF3BFC0112
:1036900010828091FE3B9091FF3B21E0FC01218351
:1036A0008091FE3B9091FF3BFC018281938123E05E
:1036B000FC0120838091FE3B9091FF3B21E0FC01C7
:1036C00024838091FC3B9091FD3B20E1FC01218310
:1036D0008091FC3B9091FD3B21E0FC01248389819A
:1036E0009A81FC0180819181FC012081318140918E
:1036F000FC3B5091FD3B6091FE3B7091FF3B89810B
:103700009A81FC0180819181F90119958091FC3B9E
:103710009091FD3BFC0182819381FC0190818B8122
:103720008923882331F08C819D8121E0FC01208355
:1037300004C08C819D81FC0110828091FC3B9091A2
:10374000FD3BFC0180812596CDBFDEBFDF91CF918F
:103750000895CF93DF931F921F92CDB7DEB7898371
:103760009A8389819A81009711F481E04EC08091FB
:10377000FE3B9091FF3BFC0110828091FE3B9091BB
:10378000FF3B21E0FC0121838091FE3B9091FF3BB8
:10379000FC018281938123E0FC0120838091FE3B28
:1037A0009091FF3BFC018281938101962FEFFC01F8
:1037B00020838091FE3B9091FF3B22E0FC0124831B
:1037C0008091FC3B9091FD3B20E1FC0121838091A5
:1037D000FC3B9091FD3BFC01148289819A81FC01A4
:1037E00080819181FC01208131814091FC3B50918D
:1037F000FD3B6091FE3B7091FF3B89819A81FC010A
:1038000080819181F901199580E00F900F90DF91EF
:10381000CF9108950F931F93CF93DF93CDB7DEB76A
:103820002A97CDBFDEBF89839A836B837C834D83C8
:103830005E832F83388709871A8789819A81009749
:1038400011F481E052C18B819C81009761F08D81E0
:103850009E81009741F08F819885009721F089859E
:103860009A85009711F482E040C18091FE3B9091CF
:10387000FF3BFC0110828091FE3B9091FF3B21E0D9
:10388000FC0121838091FE3B9091FF3BFC018281F2
:10389000938123E0FC0120838091FE3B9091FF3BCC
:1038A00021E0FC0124838091FC3B9091FD3B20E1D1
:1038B000FC0121838091FC3B9091FD3B21E0FC01C8
:1038C000248389819A81FC0180819181FC0120817E
:1038D00031814091FC3B5091FD3B6091FE3B7091EA
:1038E000FF3B89819A81FC0180819181F9011995C1
:1038F0008091FC3B9091FD3BFC0182819381FC0116
:1039000020818D819E81FC0120838091FE3B9091DE
:10391000FF3BFC0110828091FE3B9091FF3B21E038
:10392000FC0121838091FE3B9091FF3BFC01828151
:10393000938122E0FC0120838091FE3B9091FF3B2C
:1039400021E0FC0124838091FC3B9091FD3B20E130
:10395000FC0121838091FC3B9091FD3B21E0FC0127
:10396000248389819A81FC0180819181FC012081DD
:1039700031814091FC3B5091FD3B6091FE3B709149
:10398000FF3B89819A81FC0180819181F901199520
:103990008091FC3B9091FD3BFC0182819381FC0175
:1039A00020818B819C81FC0120838091FE3B909142
:1039B000FF3BFC0110828091FE3B9091FF3B21E098
:1039C000FC0121838091FE3B9091FF3BFC018281B1
:1039D0009381FC0110828091FE3B9091FF3B21E09E
:1039E000FC0124838091FC3B9091FD3B20E1FC0194
:1039F00021838091FC3B9091FD3B21E0FC012483DD
:103A000089819A81FC0180819181FC012081318131
:103A10004091FC3B5091FD3B6091FE3B7091FF3B20
:103A200089819A81FC0180819181F90119958091A8
:103A3000FC3B9091FD3BFC0182819381FC01208144
:103A40008F819885FC0120838091FE3B9091FF3B04
:103A5000FC0110828091FE3B9091FF3B21E0FC0134
:103A600021838091FE3B9091FF3BFC0182819381F9
:103A700021E0FC0120838091FE3B9091FF3B21E0FF
:103A8000FC0124838091FC3B9091FD3B20E1FC01F3
:103A900021838091FC3B9091FD3B21E0FC0124833C
:103AA00089819A81FC0180819181FC012081318191
:103AB0004091FC3B5091FD3B6091FE3B7091FF3B80
:103AC00089819A81FC0180819181F9011995809108
:103AD000FC3B9091FD3BFC0182819381FC012081A4
:103AE00089859A85FC01208380E02A96CDBFDEBFC0
:103AF000DF91CF911F910F910895EF920F93CF9384
:103B0000DF93CDB7DEB72797CDBFDEBF89839A831A
:103B10006B837C834D832E830F838D81882F90E070
:103B20002E81222F30E002C0880F991F2A95E2F7DC
:103B3000E82F8091003C9091013CDC0112968D9120
:103B40009C9113979C012E5F3F4F6091003C7091B8
:103B5000013C8091023C9091033C4B815C81EF8061
:103B60000E2F0E94D83089819A81FC018081918139
:103B7000DC012D913C914091003C5091013C6091C1
:103B8000023C7091033C89819A81FC018081918182
:103B9000F901199500002796CDBFDEBFDF91CF91C7
:103BA0000F91EF900895CF93DF9300D01F92CDB780
:103BB000DEB789839A836B837C832091003C3091AC
:103BC000013C8091023C9091033C4B815C81B901A6
:103BD0000E942F3189819A81FC0180819181FC01B1
:103BE000208131814091003C5091013C6091023C28
:103BF0007091033C89819A81FC0180819181F90156
:103C000019958091003C9091013CFC0180812496A3
:103C1000CDBFDEBFDF91CF910895CF93DF93CDB7B6
:103C2000DEB72897CDBFDEBF89839A836B837C8301
:103C30004D835E832F83388789819A81009711F4A1
:103C400081E014C089819A812F813885FC0120830D
:103C500031838B819C818093003C9093013C8D81CA
:103C60009E818093023C9093033C80E02896CDBFD8
:103C7000DEBFDF91CF9108950F93CF93DF931F9213
:103C80001F92CDB7DEB789839A8389819A81009785
:103C900011F481E0F6C089819A8160E670E00E94AB
:103CA000D31D882311F082E0ECC089819A8101E064
:103CB00020E040E060E670E00E947D1D89819A81ED
:103CC0000FEF20E04CE360E070E00E947D1D8981F1
:103CD0009A810FEF20E040E062E070E00E947D1DDD
:103CE00089819A810FEF20E043E063E070E00E9459
:103CF0007D1D89819A810FEF20E042E064E070E051
:103D00000E947D1D89819A810FEF20E040E065E0EF
:103D100070E00E947D1D89819A810FEF20E041E0D3
:103D200066E070E00E947D1D89819A810FEF20E09E
:103D300041E56CE070E00E947D1D89819A810FEF62
:103D400020E044E06DE070E00E947D1D89819A8151
:103D50000FEF20E041E060E170E00E947D1D89816D
:103D60009A810FEF20E049E862E170E00E947D1D3A
:103D700089819A810FEF20E040E463E170E00E94C6
:103D80007D1D89819A810FEF20E040E064E170E0C1
:103D90000E947D1D89819A810FEF20E040E065E15E
:103DA00070E00E947D1D89819A810FEF20E040E044
:103DB00069E170E00E947D1D89819A810FEF20E00A
:103DC00040E06BE370E00E947D1D89819A810FEFD6
:103DD00020E040E06CE370E00E947D1D89819A81C3
:103DE0000FEF20E040E06DE370E00E947D1D8981CF
:103DF0009A810FEF20E040E067E470E00E947D1DB3
:103E000089819A810FEF20E04CE360E670E00E9428
:103E10007D1D89819A810FEF20E040E061E670E02E
:103E20000E947D1D89819A810FEF20E042E062E6C9
:103E300070E00E947D1D89819A810FEF20E040E0B3
:103E400063E670E00E947D1D89819A810FEF20E07A
:103E500042E260E770E00E947D1D89819A8160E600
:103E600070E00E94D31D882311F082E00AC089818E
:103E70009A8101E020E041E060E670E00E947D1D53
:103E800080E00F900F90DF91CF910F9108950F93E5
:103E9000CF93DF931F921F92CDB7DEB789839A83AA
:103EA00089819A81009711F481E0E5C089819A8126
:103EB00060E670E00E94D31D882311F082E0DBC031
:103EC00089819A8101E020E040E060E670E00E9494
:103ED0007D1D89819A8162E070E00E94D31D882354
:103EE00011F082E0C8C089819A8103E020E040E0BF
:103EF00062E070E00E947D1D89819A8162E170E03C
:103F00000E94D31D882311F082E0B5C089819A8177
:103F100004E022E040E062E170E00E947D1D8981C2
:103F20009A8162E170E00E94D31D882311F082E043
:103F3000A2C089819A8108E123E041E062E170E05A
:103F40000E947D1D89819A816DE370E00E94D31DDE
:103F5000882311F082E08FC089819A8101E020E0FE
:103F600041E06DE370E00E947D1D89819A8160E6E9
:103F700070E00E94D31D882311F082E07CC089810B
:103F80009A8102E021E040E060E670E00E947D1D41
:103F900089819A8160E670E00E94D31D882311F028
:103FA00082E069C089819A810CE722E04FE060E6F7
:103FB00070E00E947D1D89819A8161E670E00E9417
:103FC000D31D882311F082E056C089819A810FE0C9
:103FD00020E040E061E670E00E947D1D89819A81C9
:103FE00060E770E00E94D31D882311F082E043C097
:103FF00089819A8104E022E040E060E770E00E945D
:104000007D1D89819A8167E470E00E94D31D882319
:1040100011F082E030C089819A8100E724E044E019
:1040200067E470E00E947D1D89819A8162E170E001
:104030000E94D31D882311F082E01DC089819A81DE
:1040400004E022E041E062E170E00E947D1D898190
:104050009A8160E670E00E94D31D882311F082E00F
:104060000AC089819A8101E020E041E060E670E0C9
:104070000E947D1D80E00F900F90DF91CF910F91F6
:104080000895CF93DF9300D01F92CDB7DEB7898319
:104090009A836B837C8389819A81009711F481E0F4
:1040A00016C28B819C81009711F483E010C2898134
:1040B0009A8160E070E00E94D31D882369F48091AA
:1040C000003C9091013CFC0182819381FC012281A2
:1040D0008B819C81FC01208389819A8162E070E060
:1040E0000E94D31D882371F48B819C8101962091BD
:1040F000003C3091013CF90122813381F901228198
:10410000FC01208389819A8163E070E00E94D31DC5
:10411000882371F48B819C8102962091003C309120
:10412000013CF90122813381F9012281FC012083C4
:1041300089819A8164E070E00E94D31D882371F424
:104140008B819C8103962091003C3091013CF901C8
:1041500022813381F9012281FC01208389819A81A6
:1041600065E070E00E94D31D882371F48B819C81EF
:1041700004962091003C3091013CF9012281338169
:10418000F9012281FC01208389819A8166E070E037
:104190000E94D31D882371F48B819C810596209108
:1041A000003C3091013CF90122813381F9012281E7
:1041B000FC01208389819A816CE070E00E94D31D0C
:1041C000882371F48B819C8106962091003C30916C
:1041D000013CF90122813381F9012281FC01208314
:1041E00089819A816DE070E00E94D31D882371F46B
:1041F0008B819C8107962091003C3091013CF90114
:1042000022813381F9012281FC01208389819A81F5
:1042100060E170E00E94D31D882371F48B819C8142
:1042200008962091003C3091013CF90122813381B4
:10423000F9012281FC01208389819A8162E170E089
:104240000E94D31D882371F48B819C810996209153
:10425000003C3091013CF90122813381F901228136
:10426000FC01208389819A8163E170E00E94D31D63
:10427000882371F48B819C810A962091003C3091B7
:10428000013CF90122813381F9012281FC01208363
:1042900089819A8164E170E00E94D31D882371F4C2
:1042A0008B819C810B962091003C3091013CF9015F
:1042B00022813381F9012281FC01208389819A8145
:1042C00065E170E00E94D31D882371F48B819C818D
:1042D0000C962091003C3091013CF9012281338100
:1042E000F9012281FC01208389819A8169E170E0D2
:1042F0000E94D31D882371F48B819C810D9620919F
:10430000003C3091013CF90122813381F901228185
:10431000FC01208389819A816BE370E00E94D31DA8
:10432000882371F48B819C810E962091003C309102
:10433000013CF90122813381F9012281FC012083B2
:1043400089819A816CE370E00E94D31D882371F407
:104350008B819C810F962091003C3091013CF901AA
:1043600022813381F9012281FC01208389819A8194
:104370006DE370E00E94D31D882371F48B819C81D2
:1043800040962091003C3091013CF901228133811B
:10439000F9012281FC01208389819A8167E470E020
:1043A0000E94D31D882371F48B819C8141962091BA
:1043B000003C3091013CF90122813381F9012281D5
:1043C000FC01208389819A8160E670E00E94D31D00
:1043D000882371F48B819C8142962091003C30911E
:1043E000013CF90122813381F9012281FC01208302
:1043F00089819A8161E670E00E94D31D882371F45F
:104400008B819C8143962091003C3091013CF901C5
:1044100022813381F9012281FC01208389819A81E3
:1044200062E670E00E94D31D882371F48B819C8129
:1044300044962091003C3091013CF9012281338166
:10444000F9012281FC01208389819A8163E670E071
:104450000E94D31D882371F48B819C814596209105
:10446000003C3091013CF90122813381F901228124
:10447000FC01208389819A816CE670E00E94D31D43
:10448000882371F48B819C8146962091003C309169
:10449000013CF90122813381F9012281FC01208351
:1044A00089819A8160E770E00E94D31D882371F4AE
:1044B0008B819C8147962091003C3091013CF90111
:1044C00022813381F9012281FC01208380E024963E
:1044D000CDBFDEBFDF91CF9108950F93CF93DF93D0
:1044E0001F921F92CDB7DEB789839A8389819A8103
:1044F000009711F481E03AC089819A8162E070E00E
:104500000E94D31D882311F082E030C089819A81F6
:1045100003E020E043E062E070E00E947D1D8981BD
:104520009A8162E170E00E94D31D882311F082E03D
:104530001DC089819A8104E022E040E062E170E0E0
:104540000E947D1D89819A8160E670E00E94D31DE2
:10455000882311F082E00AC089819A8101E020E07D
:1045600040E060E670E00E947D1D80E00F900F90BB
:10457000DF91CF910F9108950F93CF93DF931F9207
:104580001F92CDB7DEB789839A8389819A8100977C
:1045900011F481E014C089819A8160E070E00E948A
:1045A000D31D882311F082E00AC089819A8100E836
:1045B00027E041E060E070E00E947D1D80E00F9008
:1045C0000F90DF91CF910F9108950F93CF93DF93C9
:1045D0001F921F92CDB7DEB789839A8389819A8112
:1045E000009711F481E03AC089819A8162E070E01D
:1045F0000E94D31D882311F082E030C089819A8106
:1046000003E020E043E062E070E00E947D1D8981CC
:104610009A8162E170E00E94D31D882311F082E04C
:104620001DC089819A8104E022E040E062E170E0EF
:104630000E947D1D89819A8160E670E00E94D31DF1
:10464000882311F082E00AC089819A8101E020E08C
:1046500040E060E670E00E947D1D80E00F900F90CA
:10466000DF91CF910F9108950F93CF93DF93CDB743
:10467000DEB72597CDBFDEBF89839A836B837C83AA
:104680004D8389819A81009711F481E015C02B81B7
:104690003C8189819A81B9010E94D31D882311F040
:1046A00082E00AC06B817C8189819A810FEF20E0D2
:1046B0004D810E947D1D80E02596CDBFDEBFDF913C
:1046C000CF910F910895CF93DF9300D000D0CDB755
:1046D000DEB789839A836B837C834D835E83898174
:1046E0009A81009711F481E01DC08D819E81009711
:1046F00011F483E017C02B813C8189819A81B90133
:104700000E94D31D882369F48091003C9091013C64
:10471000FC0182819381FC0122818D819E81FC01BB
:10472000208380E02696CDBFDEBFDF91CF91089534
:104730000F93CF93DF931F921F92CDB7DEB789837C
:104740009A8389819A81009711F481E03AC0898126
:104750009A8162E070E00E94D31D882311F082E00C
:1047600030C089819A8103E020E043E062E070E09C
:104770000E947D1D89819A8162E170E00E94D31DB3
:10478000882311F082E01DC089819A8104E022E033
:1047900040E062E170E00E947D1D89819A8160E6BF
:1047A00070E00E94D31D882311F082E00AC0898145
:1047B0009A8101E020E040E060E670E00E947D1D0B
:1047C00080E00F900F90DF91CF910F9108950F939C
:1047D000CF93DF9300D0CDB7DEB789839A836B8305
:1047E00089819A81009711F481E01CC08B8184300B
:1047F00018F48B81813011F483E014C089819A818F
:1048000062E070E00E94D31D882311F082E00AC0AC
:1048100089819A8103E020E04B8162E070E00E9490
:104820007D1D80E02396CDBFDEBFDF91CF910F913C
:104830000895CF93DF9300D01F92CDB7DEB7898361
:104840009A836B837C8389819A81009711F481E03C
:1048500021C08B819C81009711F483E01BC089816A
:104860009A8162E070E00E94D31D882311F082E0FB
:1048700011C08091003C9091013CFC0182819381A8
:104880000296FC018081282F23708B819C81FC0182
:10489000208380E02496CDBFDEBFDF91CF910895C5
:1048A000CF93DF9300D01F92CDB7DEB789839A8371
:1048B0006B837C8389819A81009711F481E021C008
:1048C0008B819C81009711F483E01BC089819A81C0
:1048D00063E070E00E94D31D882311F082E011C0D4
:1048E0008091003C9091013CFC0182819381029671
:1048F000FC018081282F2F708B819C81FC012083FB
:1049000080E02496CDBFDEBFDF91CF910895CF9395
:10491000DF9300D01F92CDB7DEB789839A836B8374
:104920007C8389819A81009711F481E01EC08B817C
:104930009C81009711F483E018C089819A8166E018
:1049400070E00E94D31D882311F082E00EC0809198
:10495000003C9091013CFC0182819381FC01228109
:104960008B819C81FC01208380E02496CDBFDEBF3B
:10497000DF91CF910895CF93DF9300D01F92CDB7F1
:10498000DEB789839A836B837C8389819A810097C0
:1049900011F481E04EC08B819C81009711F483E07B
:1049A00048C08B819C81FC011082118289819A818F
:1049B00064E070E00E94D31D882311F082E039C0CA
:1049C0008091003C9091013CFC0182819381029690
:1049D000FC018081882F90E09C0133278B819C8192
:1049E000FC012083318389819A8165E070E00E9417
:1049F000D31D882311F082E01CC08B819C81FC01B7
:104A0000808191812091003C3091013CF90122810B
:104A100033812E5F3F4FF9012081222F30E0322F6A
:104A20002227282B392B8B819C81FC012083318309
:104A300080E02496CDBFDEBFDF91CF910895CF9364
:104A4000DF9300D01F92CDB7DEB789839A836B8343
:104A50007C8389819A81009711F481E04EC08B811B
:104A60009C81009711F483E048C08B819C81FC01FC
:104A70001082118289819A816CE070E00E94D31DBE
:104A8000882311F082E039C08091003C9091013C74
:104A9000FC01828193810296FC018081882F90E045
:104AA0009C0133278B819C81FC0120833183898188
:104AB0009A816DE070E00E94D31D882311F082E09E
:104AC0001CC08B819C81FC01808191812091003CE4
:104AD0003091013CF901228133812E5F3F4FF90172
:104AE0002081222F30E0322F2227282B392B8B8157
:104AF0009C81FC012083318380E02496CDBFDEBF02
:104B0000DF91CF9108950F93CF93DF9300D0CDB76E
:104B1000DEB789839A836B8389819A81009711F428
:104B200081E019C08B81823010F083E014C089814C
:104B30009A8162E170E00E94D31D882311F082E027
:104B40000AC089819A8100E827E04B8162E170E028
:104B50000E947D1D80E02396CDBFDEBFDF91CF9107
:104B60000F910895CF93DF9300D01F92CDB7DEB79A
:104B700089839A836B837C8389819A81009711F45E
:104B800081E023C08B819C81009711F483E01DC0DC
:104B900089819A8162E170E00E94D31D882311F01F
:104BA00082E013C08091003C9091013CFC01828125
:104BB00093810296FC018081282F221F2227221F29
:104BC0008B819C81FC01208380E02496CDBFDEBFD9
:104BD000DF91CF9108950F93CF93DF9300D0CDB79E
:104BE000DEB789839A836B8389819A81009711F458
:104BF00081E019C08B81823010F083E014C089817C
:104C00009A8162E170E00E94D31D882311F082E056
:104C10000AC089819A8104E022E04B8162E170E060
:104C20000E947D1D80E02396CDBFDEBFDF91CF9136
:104C30000F910895CF93DF9300D01F92CDB7DEB7C9
:104C400089839A836B837C8389819A81009711F48D
:104C500081E028C08B819C81009711F483E022C001
:104C600089819A8162E170E00E94D31D882311F04E
:104C700082E018C08091003C9091013CFC0182814F
:104C800093810296FC018081882F90E0847099279F
:104C90009595879595958795282F8B819C81FC010B
:104CA000208380E02496CDBFDEBFDF91CF910895B1
:104CB0000F93CF93DF9300D0CDB7DEB789839A836C
:104CC0006B8389819A81009711F481E019C08B81EF
:104CD000833010F083E014C089819A8162E170E032
:104CE0000E94D31D882311F082E00AC089819A8135
:104CF00008E123E04B8162E170E00E947D1D80E0CD
:104D00002396CDBFDEBFDF91CF910F910895CF9352
:104D1000DF9300D01F92CDB7DEB789839A836B8370
:104D20007C8389819A81009711F481E02AC08B816C
:104D30009C81009711F483E024C089819A8162E10B
:104D400070E00E94D31D882311F082E01AC0809188
:104D5000003C9091013CFC01828193810296FC0110
:104D60008081882F90E088719927959587959595F2
:104D7000879595958795282F8B819C81FC012083B1
:104D800080E02496CDBFDEBFDF91CF9108950F93D1
:104D9000CF93DF9300D0CDB7DEB789839A836B833F
:104DA00089819A81009711F481E019C08B81843048
:104DB00010F083E014C089819A8163E170E00E9461
:104DC000D31D882311F082E00AC089819A8108E10D
:104DD00023E04B8163E170E00E947D1D80E023961B
:104DE000CDBFDEBFDF91CF910F910895CF93DF93B9
:104DF00000D01F92CDB7DEB789839A836B837C8303
:104E000089819A81009711F481E02AC08B819C816D
:104E1000009711F483E024C089819A8163E170E0F6
:104E20000E94D31D882311F082E01AC08091003CBB
:104E30009091013CFC01828193810296FC0180816A
:104E4000882F90E0887199279595879595958795F6
:104E500095958795282F8B819C81FC01208380E08C
:104E60002496CDBFDEBFDF91CF9108950F93CF93EE
:104E7000DF9300D01F92CDB7DEB789839A836B830F
:104E80004C8389819A81009711F481E03BC08B812A
:104E9000823010F083E036C08C81883018F48C8129
:104EA000843011F483E02EC08B818823A1F48981A2
:104EB0009A8164E170E00E94D31D882311F082E0A2
:104EC00021C089819A8100E724E04C8164E170E08F
:104ED0000E947D1D16C08B81813099F489819A8151
:104EE00065E170E00E94D31D882311F082E00AC0C2
:104EF00089819A8100E724E04C8165E170E00E949D
:104F00007D1D80E02496CDBFDEBFDF91CF910F9154
:104F10000895CF93DF93CDB7DEB72597CDBFDEBF22
:104F200089839A836B834C835D8389819A810097FF
:104F300011F481E05DC08B81823010F083E058C0B5
:104F40008C819D81009711F483E052C08B8188236E
:104F500031F589819A8164E170E00E94D31D882334
:104F600011F082E045C08091003C9091013CFC0131
:104F7000828193810296FC018081882F90E0807766
:104F80009927959587959595879595958795959565
:104F90008795282F8C819D81FC01208328C08B81DF
:104FA000813029F589819A8165E170E00E94D31DE5
:104FB000882311F082E01CC08091003C9091013C5C
:104FC000FC01828193810296FC018081882F90E010
:104FD0008077992795958795959587959595879548
:104FE00095958795282F8C819D81FC01208380E0F9
:104FF0002596CDBFDEBFDF91CF9108950F93CF935C
:10500000DF9300D01F92CDB7DEB789839A836B837D
:105010004C8389819A81009711F481E03BC08B8198
:10502000823010F083E036C08C81883018F48C8197
:10503000843011F483E02EC08B818823A1F4898110
:105040009A8164E170E00E94D31D882311F082E010
:1050500021C089819A810FE020E04C8164E170E0F9
:105060000E947D1D16C08B81813099F489819A81BF
:1050700065E170E00E94D31D882311F082E00AC030
:1050800089819A810FE020E04C8165E170E00E9407
:105090007D1D80E02496CDBFDEBFDF91CF910F91C3
:1050A0000895CF93DF93CDB7DEB72597CDBFDEBF91
:1050B00089839A836B834C835D8389819A8100976E
:1050C00011F481E047C08B81823010F083E042C050
:1050D0008C819D81009711F483E03CC08B818823F3
:1050E000D9F489819A8164E170E00E94D31D8823FC
:1050F00011F082E02FC08091003C9091013CFC01B6
:10510000828193810296FC018081282F2F708C81EF
:105110009D81FC0120831DC08B818130D1F4898168
:105120009A8165E170E00E94D31D882311F082E02E
:1051300011C08091003C9091013CFC0182819381DF
:105140000296FC018081282F2F708C819D81FC01AB
:10515000208380E02596CDBFDEBFDF91CF910895FB
:105160000F93CF93DF9300D0CDB7DEB789839A83B7
:105170006B8389819A81009711F481E019C08B813A
:10518000823010F083E014C089819A8169E170E077
:105190000E94D31D882311F082E00AC089819A8180
:1051A00000E124E04B8169E170E00E947D1D80E018
:1051B0002396CDBFDEBFDF91CF910F910895CF939E
:1051C000DF9300D01F92CDB7DEB789839A836B83BC
:1051D0007C8389819A81009711F481E02CC08B81B6
:1051E0009C81009711F483E026C089819A8169E14E
:1051F00070E00E94D31D882311F082E01CC08091D2
:10520000003C9091013CFC01828193810296FC015B
:105210008081882F90E08071992795958795959545
:1052200087959595879595958795282F8B819C8156
:10523000FC01208380E02496CDBFDEBFDF91CF91BB
:1052400008950F93CF93DF9300D0CDB7DEB7898356
:105250009A836B8389819A81009711F481E014C04D
:1052600089819A8169E170E00E94D31D882311F041
:1052700082E00AC089819A810FE020E04B8169E1D8
:1052800070E00E947D1D80E02396CDBFDEBFDF91E0
:10529000CF910F910895CF93DF9300D01F92CDB798
:1052A000DEB789839A836B837C8389819A81009797
:1052B00011F481E021C08B819C81009711F483E07F
:1052C0001BC089819A8169E170E00E94D31D882307
:1052D00011F082E011C08091003C9091013CFC01F2
:1052E000828193810296FC018081282F2F708B810F
:1052F0009C81FC01208380E02496CDBFDEBFDF913E
:10530000CF9108950F93CF93DF9300D0CDB7DEB741
:1053100089839A836B8389819A81009711F481E054
:1053200014C089819A816CE370E00E94D31D8823A8
:1053300011F082E00AC089819A810FEF20E04B8151
:105340006CE370E00E947D1D80E02396CDBFDEBF40
:10535000DF91CF910F910895CF93DF9300D01F92EB
:10536000CDB7DEB789839A836B837C8389819A81E9
:10537000009711F481E01EC08B819C81009711F48D
:1053800083E018C089819A816CE370E00E94D31D8C
:10539000882311F082E00EC08091003C9091013C86
:1053A000FC0182819381FC0122818B819C81FC0123
:1053B000208380E02496CDBFDEBFDF91CF9108959A
:1053C0000F93CF93DF9300D0CDB7DEB789839A8355
:1053D0006B8389819A81009711F481E019C08B81D8
:1053E000843010F083E014C089819A816DE370E00D
:1053F0000E94D31D882311F082E00AC089819A811E
:1054000006E021E04B816DE370E00E947D1D80E0AD
:105410002396CDBFDEBFDF91CF910F910895CF933B
:10542000DF9300D01F92CDB7DEB789839A836B8359
:105430007C8389819A81009711F481E026C08B8159
:105440009C81009711F483E020C089819A816DE3EB
:1054500070E00E94D31D882311F082E016C0809175
:10546000003C9091013CFC01828193810296FC01F9
:105470008081882F90E08670992795958795282FB1
:105480008B819C81FC01208380E02496CDBFDEBF10
:10549000DF91CF9108950F93CF93DF9300D0CDB7D5
:1054A000DEB789839A836B8389819A81009711F48F
:1054B00081E019C08B81823010F083E014C08981B3
:1054C0009A816DE370E00E94D31D882311F082E081
:1054D0000AC089819A8101E020E04B816DE370E090
:1054E0000E947D1D80E02396CDBFDEBFDF91CF916E
:1054F0000F910895CF93DF9300D01F92CDB7DEB701
:1055000089839A836B837C8389819A81009711F4C4
:1055100081E021C08B819C81009711F483E01BC046
:1055200089819A816DE370E00E94D31D882311F078
:1055300082E011C08091003C9091013CFC0182818D
:1055400093810296FC018081282F21708B819C81A0
:10555000FC01208380E02496CDBFDEBFDF91CF9198
:1055600008950F93CF93DF9300D0CDB7DEB7898333
:105570009A836B8389819A81009711F481E019C025
:105580008B81883010F083E014C089819A8167E4B0
:1055900070E00E94D31D882311F082E00AC0898147
:1055A0009A8100E724E04B8167E470E00E947D1D52
:1055B00080E02396CDBFDEBFDF91CF910F9108959C
:1055C000CF93DF9300D01F92CDB7DEB789839A8344
:1055D0006B837C8389819A81009711F481E02CC0D0
:1055E0008B819C81009711F483E026C089819A8188
:1055F00067E470E00E94D31D882311F082E01CC094
:105600008091003C9091013CFC0182819381029643
:10561000FC018081882F90E0807799279595879568
:10562000959587959595879595958795282F8B8145
:105630009C81FC01208380E02496CDBFDEBFDF91FA
:10564000CF9108950F93CF93DF9300D0CDB7DEB7FE
:1056500089839A836B8389819A81009711F481E011
:1056600019C08B81883010F083E014C089819A8141
:1056700067E470E00E94D31D882311F082E00AC025
:1056800089819A8107E020E04B8167E470E00E9405
:105690007D1D80E02396CDBFDEBFDF91CF910F91BE
:1056A0000895CF93DF9300D01F92CDB7DEB78983E3
:1056B0009A836B837C8389819A81009711F481E0BE
:1056C00021C08B819C81009711F483E01BC08981EC
:1056D0009A8167E470E00E94D31D882311F082E074
:1056E00011C08091003C9091013CFC01828193812A
:1056F0000296FC018081282F27708B819C81FC0100
:10570000208380E02496CDBFDEBFDF91CF91089546
:105710000F93CF93DF9300D0CDB7DEB789839A8301
:105720006B8389819A81009711F481E019C08B8184
:10573000823010F083E014C089819A8160E670E0C5
:105740000E94D31D882311F082E00AC089819A81CA
:1057500000E827E04B8160E670E00E947D1D80E05C
:105760002396CDBFDEBFDF91CF910F910895CF93E8
:10577000DF9300D01F92CDB7DEB789839A836B8306
:105780007C8389819A81009711F481E023C08B8109
:105790009C81009711F483E01DC089819A8160E6A5
:1057A00070E00E94D31D882311F082E013C0809125
:1057B000003C9091013CFC01828193810296FC01A6
:1057C0008081282F221F2227221F8B819C81FC0190
:1057D000208380E02496CDBFDEBFDF91CF91089576
:1057E0000F93CF93DF9300D0CDB7DEB789839A8331
:1057F0006B8389819A81009711F481E01FC08B81AE
:10580000813218F48B81893010F483E017C08981CC
:105810009A8160E670E00E94D31D882311F082E037
:105820000DC08B813FEF380F89819A810CE722E010
:10583000432F60E670E00E947D1D80E02396CDBF7F
:10584000DEBFDF91CF910F910895CF93DF9300D00A
:105850001F92CDB7DEB789839A836B837C8389815E
:105860009A81009711F481E029C08B819C81009777
:1058700011F483E023C089819A8160E670E00E9480
:10588000D31D882311F082E019C08091003C9091D3
:10589000013CFC01828193810296FC018081882F6A
:1058A00090E08C779927959587959595879521E038
:1058B000280F8B819C81FC01208380E02496CDBF42
:1058C000DEBFDF91CF9108950F93CF93DF9300D088
:1058D000CDB7DEB789839A836B8389819A810097DC
:1058E00011F481E01FC08B81833018F48B818823F1
:1058F00011F483E017C089819A8160E670E00E940C
:10590000D31D882311F082E00DC08B813FEF380F4B
:1059100089819A8102E021E0432F60E670E00E94D5
:105920007D1D80E02396CDBFDEBFDF91CF910F912B
:105930000895CF93DF9300D01F92CDB7DEB7898350
:105940009A836B837C8389819A81009711F481E02B
:1059500027C08B819C81009711F483E021C089814D
:105960009A8160E670E00E94D31D882311F082E0E6
:1059700017C08091003C9091013CFC018281938191
:105980000296FC018081882F90E08270992795957E
:10599000879521E0280F8B819C81FC01208380E08A
:1059A0002496CDBFDEBFDF91CF9108950F93CF93A3
:1059B000DF9300D0CDB7DEB789839A836B8389816B
:1059C0009A81009711F481E019C08B81823010F028
:1059D00083E014C089819A8160E670E00E94D31D43
:1059E000882311F082E00AC089819A8101E020E0D9
:1059F0004B8160E670E00E947D1D80E02396CDBF64
:105A0000DEBFDF91CF910F910895CF93DF9300D048
:105A10001F92CDB7DEB789839A836B837C8389819C
:105A20009A81009711F481E021C08B819C810097BD
:105A300011F483E01BC089819A8160E670E00E94C6
:105A4000D31D882311F082E011C08091003C909119
:105A5000013CFC01828193810296FC018081282F08
:105A600021708B819C81FC01208380E02496CDBF36
:105A7000DEBFDF91CF9108950F93CF93DF9300D0D6
:105A8000CDB7DEB789839A836B8389819A8100972A
:105A900011F481E01CC08B818B3018F48B81843031
:105AA00011F483E014C089819A8161E670E00E945C
:105AB000D31D882311F082E00AC089819A810FE00A
:105AC00020E04B8161E670E00E947D1D80E023961E
:105AD000CDBFDEBFDF91CF910F910895CF93DF93BC
