:100000000C9410140C9431140C9431140C9431147D
:100010000C9431140C9431140C9431140C9431144C
:100020000C9431140C9431140C9431140C9431143C
:100030000C9431140C946E680C9431140C9431149B
:100040000C9431140C9431140C9431140C9431141C
:100050000C9431140C9431140C9431140C9431140C
:100060000C9431140C94D21A0C9431140C94011B7E
:100070000C9431140C9431140C9431140C943114EC
:100080000C9431140C9431140C9431140C943114DC
:100090000C9431140C9431140C9431140C943114CC
:1000A0000C9431140C9431140C9431140C943114BC
:1000B0000C9431140C9431140C94A0680C943114E9
:1000C0000C9431140C9431140C9431140C9431149C
:1000D0000C9431140C9431140C9431140C9431148C
:1000E0000C9431140C9431140C9431140C9431147C
:1000F0000C9431140C9431140C9431140C9431146C
:100100000C9431140C9431140C9431140C9431145B
:100110000C9431140C9431140C9431140C9431144B
:100120000C9431140C9431140C9431140C9431143B
:100130000C9431140C9431140C9431140C9431142B
:100140000C9431140C9431140C9431140C9431141B
:100150000C9431140C9431140C9431140C9431140B
:100160000C9431140C9431140C9431140C943114FB
:100170000C9431140C9431140C9431140C943114EB
:100180000C9431140C9431140C9431140C943114DB
:100190000C9431140C9431140C9431140C943114CB
:1001A0000C9431140C9431140C9431140C943114BB
:1001B0000C9431140C9431140C9431140C943114AB
:1001C0000C9431140C9431140C9431140C9431149B
:1001D0000C9431140C9431140C9431140C9431148B
:1001E0000C9431140C9431149D52B452B952C7522C
:1001F000CC5207530C5342535D5362538C53B1534B
:10020000B6532D61326137613C61416146614B619A
:10021000506155615A615F61646169616E617361CA
:1002200078610C9420170C9455610C94041C0C9468
:10023000161E0C9443250C9462530C945A170C947C
:100240005A610C94E01C0C94C7520C9432610C94CB
:100250005F610C948C530C94331F0C943B140C94DE
:10026000AA230C94A1180C94EB150C942C170C9445
:1002700032240C946D670C949A150C94C2140C944F
:100280003A160C9450610C9469610C9424170C94E8
:10029000F6170C94B4520C940E200C94B1180C94D4
:1002A000651D0C9450140C94B8190C94AD160C9454
:1002B000A4220C945F200C94D1180C9464610C94CB
:1002C00078610C949D520C94161A0C9407530C945C
:1002D0004D720C944B610C9456140C9449150C946B
:1002E00037610C946E610C945D1C0C94DD140C94BD
:1002F000281D0C9439140C949A1C0C94E9160C9437
:100300003C610C9443160C94A7140C94FB180C94A9
:10031000A2190C9446610C949A230C94B9520C9433
:1003200065230C94B1530C94741A0C943F140C94E0
:100330000C530C9441610C9442530C94CC520C9489
:1003400073610C94B6530C9468250C942A250C9474
:100350005D530C9450180C9429180C942E150C9481
:1003600078160C9413150C942D610C94F8140C94BD
:100370007E190C943D140C941F160C949118636410
:10038000696E6F70737578585B00BCE5ACC59C8571
:10039000960392C1912190961D03ED01DCFDCCF5F1
:1003A000BCE5ACC5A86EBCE5ACC59C85960392C106
:1003B000912190961D03ED01DCFDCCF5BCE5ACC5AB
:1003C000A86E436F6D6D616E647320666F722074EA
:1003D000686520414452463635313820766172696D
:1003E00061626C65206761696E20616D706C696621
:1003F0006965722E00436F6E74726F6C732074683F
:10040000652066726F6E74656E6420524620737745
:100410006974636865732E005265676973746572E9
:100420002064756D707320666F72207265737065DD
:100430006374697665207065726970686572616C55
:10044000732E0045786563757465732074657374E5
:1004500020766563746F72732E00436F6E74726FD3
:100460006C732074686520626F617264206C6576BD
:10047000656C2066756E6374696F6E732E205365AC
:100480007175656E7469616C2065786563206F664F
:1004900020617267756D656E74732E00537461749C
:1004A000757320616E642066756E6374696F6E7318
:1004B000207573656420666F7220636865636B697D
:1004C0006E672074686520626F6172642E20004F31
:1004D0004E2F4F46462073776974636865732C20EE
:1004E0002830206973204F46462C20312069732024
:1004F0004F4E2900426F6F746C6F61646572206F9C
:100500007074696F6E732E0045786974732066721B
:100510006F6D207468697320626F6172642062611C
:10052000636B20746F2074686520444947495441C7
:100530004C20626F6172642E005072696E74732079
:100540006F7574207468652068656C70206D656EC9
:100550007520666F722074686520626F6172642E08
:1005600000C203F503180443045A049C04CF04F4A6
:1005700004080539055370656369667920776869F1
:100580006368206368616E6E656C20612C622C6309
:100590002C64204F5220626974206D61736B2E2091
:1005A0004D5553542073706563696679206669728E
:1005B00073742E004E756C6C20746865205647412C
:1005C0002773206F7574707574204443206F6666BE
:1005D000736574732E203120746F20656E61626CB8
:1005E000652E0042797061737320746865205647E8
:1005F000412773204C502066696C7465722E20313F
:1006000020746F20656E61626C652E0053657420E6
:100610005647412773204C5020636F726E657220DD
:100620006672657120696E204D487A2E005365749C
:10063000205647412773206761696E2E2028436149
:100640006C6C7320646761696E20616E6420616701
:1006500061696E292E20496E7075743A2030202D04
:1006600020393520282D36306442202D2033356442
:100670004229004765742056474127732067616906
:100680006E2E0053656C65637420564741204368A5
:10069000616E6E656C2028303A20426F74682C20A1
:1006A000493A20312C20513A2032290043686563B1
:1006B0006B20696620564741206761696E20697327
:1006C00020746F6F204869676820666F72207468B5
:1006D00065204144432E2028303A204E6F2C203193
:1006E0003A20596573290053657420564741277392
:1006F000206469676974616C206761696E2E2033BC
:10070000644220696E6372656D656E74732C204956
:100710006E7075743A2030202D20382028343264D1
:1007200042202D20363664422900536574205647F6
:1007300041277320616E616C6F67206761696E2E5F
:1007400020302E31644220636F6E74726F6C6C6562
:10075000642C20496E7075743A2030202D20373279
:100760003020282D3130326442202D202D3330644A
:1007700042290053657420564741277320706F73D8
:100780007420616D70206761696E2E20302D313AC2
:1007900020332F3964422E00536574205647412779
:1007A0007320696E70757420616E616C6F67206173
:1007B0007474656E756174696F6E20696E20644231
:1007C0002E20476F6573207468726F7567682041CB
:1007D0004435363234522E00536574205647412733
:1007E00073207077722D6D6F64652062617365642C
:1007F000206F6E204C5020636F726E65722066729F
:1008000065712E20312069662066696C74657220DE
:100810006D6F646520616E642033314D487A203CF1
:100820002042572C20656C7365203630204D487A65
:10083000203C204257007505B405E3050C062D0643
:1008400073068306AC06E7062A0773079807D807DE
:1008500043686F6F736520746865206869676820F6
:1008600028302E352D362047487A29206F72206C8B
:100870006F7720284443202D20302E352047487A9A
:10088000292062616E642E2048696768283129201A
:100890006F72206C6F772830292E00427970617357
:1008A0007320746865204C4E41206F6E207468651B
:1008B00020686967682062616E642E2042797061E9
:1008C000737328312920746865204C4E41206F7263
:1008D000206E6F742830292E005365747320667261
:1008E0006571206F6620484D43383333206F75742F
:1008F0007075742C20696E204B487A2E00537765F2
:1009000065707320484D43383333206672657175C6
:10091000656E63792066726F6D20302E3247487A9B
:1009200020746F203647487A2077697468206120E8
:1009300073746570206F662031304D487A00504CDA
:100940004C20496E707574205265666572656E63E1
:1009500065204672657175656E63790053657473C1
:1009600020426173652042616E642056617261634A
:10097000746F7220766F6C746167652028302D3437
:1009800030393629203056202D20322E355600534E
:10099000656C656374207468652074617267657442
:1009A00020504C4C2028302920484D4338333020EB
:1009B00028312920484D4338333300536574205083
:1009C0004C4C20496E707574204469766964657278
:1009D0002076616C75652E203120746F203136339E
:1009E00038330053657420504C4C20466565646272
:1009F00061636B20446976696465722076616C7509
:100A0000652E20313620746F203532343235350072
:100A100053657420504C4C2056434F204F757470D2
:100A2000757420446976696465722076616C7565B9
:100A30002E20312C20322C20342C2036202E2E201B
:100A4000363200456E61626C652F44697361626C79
:100A5000652056434F204F7574707574204672653B
:100A60007175656E637920446F75626C65720053B1
:100A7000656C656374732074686520636F7272655A
:100A800063742046696C7465722042616E6B2066E7
:100A90006F72206120676976656E20667265717578
:100AA000656E637920696E206B487A004D757465B8
:100AB0007320746865204C4F204672657175656EB1
:100AC00063792053796E74686573697A65722077EB
:100AD00068656E20757365640053656C656374208A
:100AE000504C4C204F757470757420506F77657240
:100AF0002028303A202D3464426D2C20313A202DAC
:100B00003164426D2C20323A203264426D2C203305
:100B10003A203564426D290053656C656374732017
:100B200044534120417474656E756174696F6E2C15
:100B30002028303A203064426D202D3E203132375B
:100B40003A2033312E373564426D29004144463412
:100B50003335352F41444635333535204469726588
:100B600063742052656769737465722041636365BD
:100B70007373203C3C323862697420646174613E56
:100B80003C3462697420616464726573733E3E0034
:100B9000750550089B08D908FD083E095C098F09B6
:100BA000BB09E309100A430A6F0AAC0AD90A180BF9
:100BB0004C0B44756D707320616C6C2074686520FB
:100BC00072656769737465727320666F72207468EA
:100BD0006520414443313644583337302E00447544
:100BE0006D707320746865207265676973746572CF
:100BF0007320666F722074686520726567756C611A
:100C00007220616E64205246204750494F5800447C
:100C1000756D707320616C6C2074686520726567F7
:100C200069737465727320666F7220746865204101
:100C300044524636353138007505B20BDE0B0F0CC9
:100C400053657420746865207370656369666965AF
:100C500064204750494F582070696E206869676862
:100C60002E00436C65617220746865207370656343
:100C70006966696564204750494F582070696E2045
:100C80006C6F772E0052756E7320737065636966A2
:100C9000696564207465737420766563746F72206F
:100CA0006F662074686520504341393533382E0013
:100CB00052756E732073706563696669656420742C
:100CC00065737420766563746F72206F6620746834
:100CD0006520414443313644583337300052756EF5
:100CE00073207370656369666965642074657374E5
:100CF00020766563746F72206F662074686520418A
:100D000044524636353138007505400C620C850C6E
:100D1000B00CDD0C5265777269746520616C6C20D3
:100D20007265677320666F7220656E7469726520E4
:100D3000626F6172642E005475726E206F6E206F48
:100D40007574707574732028706572206368616EA5
:100D50006E656C292E0052756E7320646961676E32
:100D60006F73746963206F6E207065726970686557
:100D700072616C2028706572206368616E6E656CAC
:100D8000292E2053686F756C64207072696E742010
:100D9000616C6C207265676973746572732E0054A0
:100DA00075726E206F6666206F757470757473202F
:100DB00028706572206368616E6E656C292E005024
:100DC0006F776572206379636C65207065726970F6
:100DD000686572616C7320616E642072756E732039
:100DE000626F61726420696E697420287065722078
:100DF0006368616E6E656C292E005475726E206F8B
:100E00006666207065726970686572616C732E0029
:100E10005475726E732065766572797468696E6751
:100E2000206F66662E005072696E7473206F757441
:100E30002074686520736F66747761726520616ED7
:100E40006420686172647761726520766572736987
:100E50006F6E2E0050726F766964657320746865DA
:100E600020616D6F756E74206F662052414D206C4D
:100E700065667420286279746573292E005468654C
:100E8000204144432077696C6C20656E61626C651B
:100E90002074686520535953524546206465746533
:100EA0006374696F6E206761746520666F72204A93
:100EB00045534420696E697469616C697A6174692B
:100EC0006F6E2E00546865204144432077696C6C36
:100ED000206F7574707574204A45534420546573AF
:100EE00074205061747465726E732E20303A206FD6
:100EF00066662C20313A204432312E352C20323A8D
:100F0000204B32382E352C20333A20727074204911
:100F10004C412C20343A2072616D702C20353A20DF
:100F2000484947482E00456E61626C696E672074BF
:100F3000686520535953524546206465746563744F
:100F4000696F6E20676174652E203120746F206593
:100F50006E61626C652C203020746F20646973614F
:100F6000626C65004F757470757473206120313642
:100F70002D62697420726570656174696E67207393
:100F8000657175656E6365205B302C2032363238B2
:100F9000302C20302C202D32363332385D206672D2
:100FA0006F6D207468652041444320636F72652E25
:100FB0000050726F7669646573207468652074658B
:100FC0006D70657261747572652028302D31292E1F
:100FD00000426C696E6B7320746865204C45442038
:100FE0006120737065636966696564206E756D6202
:100FF0006572206F662074696D65732E0075051427
:101000000D370D560D9F0DBF0DFA0D100E260E5407
:101010000E7D0EC40E260F640FB10FD10F436F6DFE
:101020006D616E6420666F72207072696E74696E95
:1010300067207468652063757272656E74206865D8
:10104000617274626561742076616C7565206F668B
:101050002074686520525820626F61726400436F8B
:101060006D6D616E6420666F722072657365747455
:10107000696E672074686520686561727462656175
:10108000742076616C756520666F722074686520C7
:10109000525820626F6172640048656172746265C3
:1010A000617420696E7469616C697A6174696F6ECC
:1010B0002066756E6374696F6E20746F207365743B
:1010C00020636F756E74657220746F2030001D1080
:1010D0005E109910484D433833784C5036470041E4
:1010E0004452463635313800414443313644583352
:1010F0003730007505D410DF10E8104E6F20617294
:1011000067756D656E74206E656365737361727962
:101110002E00FB10456E7465722074686520626F46
:101120006F746C6F616465722E0014115072696E79
:101130007473206F757420696E20766572626F73A8
:1011400065206D6F64652E203120746F20656E619F
:10115000626C652E002C11436F6D6D616E6473209F
:10116000666F72207468652044414333384A3834CE
:101170002E00436F6E74726F6C7320746865206606
:10118000726F6E74656E6420524620737769746363
:101190006865732E005265676973746572206475A3
:1011A0006D707320666F7220726573706563746909
:1011B0007665207065726970686572616C732E0067
:1011C00050726F766964657320746865207374610A
:1011D000747573206F662074686520626F61726435
:1011E0002E00436F6E74726F6C732074686520629A
:1011F0006F617264206C6576656C2066756E6374D1
:10120000696F6E732E2053657175656E7469616CBC
:101210002065786563206F6620617267756D656E05
:1012200074732E004F4E2F4F4646207377697463B8
:101230006865732C202830206973204F46462C2087
:1012400031206973204F4E2900426F6F746C6F61BB
:10125000646572206F7074696F6E732E00457869D3
:1012600074732066726F6D207468697320626F6199
:101270007264206261636B20746F2074686520441F
:1012800049474954414C20626F6172642E0050728C
:10129000696E7473206F7574207468652068656C5E
:1012A00070206D656E7520666F72207468652062AF
:1012B0006F6172642E00571172119511C011E21105
:1012C000241249125D128E1253706563696679208B
:1012D0007768696368206368616E6E656C20612C55
:1012E000622C632C642C204F5220626974206D6143
:1012F000736B2E204D555354207370656369667966
:101300002066697273742E00537065636966792074
:10131000776869636820696E7465726E616C2044D9
:101320004143206368616E6E656C3A2028302D332E
:101330002920412D442E0053657420746865206671
:10134000726571206F7574707574206F6620657892
:101350007465726E616C2044414320636C6B206144
:101360006674657220696E7465726E616C20434CA0
:101370004B206369726375697420284D487A292E61
:101380000053657420746865204E434F207570705B
:1013900065722033322D62697473207265676973D8
:1013A0007465722E0053657420746865204E434F37
:1013B000206C6F7765722033322D626974732072EE
:1013C000656769737465722C20777269746520741F
:1013D0006F2075707065722033322D6269747320CE
:1013E000666972737421212A2A0053657420746817
:1013F0006520284C29206C616E6573207065722011
:101400006C696E6B2E005365742074686520284DDE
:101410002920636F6E7665727465727320706572D1
:10142000206C696E6B2E00536574207468652028EB
:101430004629206672616D657320706572206D7536
:101440006C74692D6672616D652E0053657420742D
:10145000686520636D6420696E7075742066726FB4
:101460006D204A455344283029206F72205350493B
:101470002831292E00456E61626C652074686520F4
:101480006D697865722E203120746F20656E6162FF
:101490006C652E00456E61626C6520746865205035
:1014A000412028706F77657220616D706C69666984
:1014B0006572292070726F74656374696F6E206342
:1014C0006972637569742E203120746F20656E61B6
:1014D000626C652E005365742074686520696E74B3
:1014E0006572706F6C6174696F6E20317828302975
:1014F0002C2032782831292C2034782832292C20AD
:101500003878283429206F72203136782838292EEF
:10151000004578656375746520746865207365722D
:1015200064657320746573742E2028302D3529204E
:1015300074657374207061747465726E2E004765F3
:101540007473207468652074656D7065726174755C
:101550007265206F6620746865204441432E004404
:10156000756D70206F757420616C6C206F662074CF
:101570006865207265676973746572732E00496EC1
:10158000697469616C697A657320616E6420636F48
:101590006E6669677572657320746865204A455385
:1015A00044206C696E6B2E004269742062616E6724
:1015B0002061646472657373206F66204441432E1A
:1015C000004269742062616E672064617461206FFB
:1015D00066204441432E004269742062616E672098
:1015E0006F7065726174696F6E2E20313A20777268
:1015F00069746520303A207265616400514D432062
:101600004443206F66667365742C203133626974BD
:10161000732C206D6561737572656420696E20445A
:101620004143204C5342277300514D432067616969
:101630006E206F66667365742C2031316269747335
:101640002C20646563696D616C20706E742040208D
:101650006C656674206F6620626974392C20726133
:101660006E67652030202D20312E393939302C20FD
:101670004C53423D302E3030303937363600514DE4
:1016800043207068617365206F66667365742C20F3
:101690003132626974732C202D302E35202D20308C
:1016A0002E34393937352C20726566657220746F97
:1016B00020646174617368656574004C617267656C
:1016C000204672616374696F6E616C2044656C6161
:1016D000792053657474696E677300536D616C6C27
:1016E000204672616374696F6E616C2044656C6141
:1016F000792053657474696E677300536D616C6C07
:10170000204672616374696F6E616C2044656C6120
:101710007920506174682053657474696E67730032
:10172000456E61626C652F44697361626C65204926
:101730006E76657273652053696E632046696C74BA
:10174000657200456E61626C652F44697361626CFD
:101750006520446974686572696E6700456E6162F0
:101760006C652F44697361626C65204469746865B7
:1017700072204D6978657200536574207468652025
:1017800044697468657220416D706C697475646534
:101790002C2030206973204D6178696D756D20288B
:1017A00034206269747329004C6172676520467247
:1017B000616374696F6E616C2044656C61792C2083
:1017C000436F656666696369656E7420536574204E
:1017D00073656C656374696F6E2E2028496E2044B2
:1017E00061746173686565742900536D616C6C2068
:1017F0004672616374696F6E616C2044656C6179D7
:10180000205461702073656C6563746F720053655A
:1018100074207468652073656C6563746564205416
:1018200061702076616C756520666F7220746865E2
:1018300020536D616C6C204672616374696F6E61D8
:101840006C2044656C617900C81208138113A513DC
:1018500075143E155F157E15FC1529167E16BB16F0
:10186000DB16FB16201743175C177817A817EA1723
:101870000E1843686F6F7365207468652068696728
:10188000682028302E352D362047487A29206F725F
:10189000206C6F7720284443202D20302E352047A0
:1018A000487A292062616E642E2048696768283171
:1018B00029206F72206C6F772830292E00427970B2
:1018C00061737320746865204C4E41206F6E2074E4
:1018D000686520686967682062616E642E204279BD
:1018E0007061737328312920746865204C4E412043
:1018F0006F72206E6F742830292E00536574732028
:1019000066726571206F6620484D43383333206F0F
:1019100075747075742C20696E204B487A2E0053B4
:101920006574207468652052465341206174746563
:101930006E74756174696F6E2E203020746F203262
:1019400038202830644220746F202D3238644229B8
:101950002E00504C4C205265666572656E636520A2
:10196000496E7075742028696E206B487A2900537F
:10197000657420746865204951204D6F64756C61F1
:10198000746F722049206269617320766F6C746194
:1019900067652028696E2064562C2066726F6D2062
:1019A000302D3234206456292E005365742074681B
:1019B00065204951204D6F64756C61746F722051C0
:1019C000206269617320766F6C7461676520286995
:1019D0006E2064562C2066726F6D20302D323420BC
:1019E0006456292E004E6565647320746F2062650D
:1019F0002063616C6C6564206C6173742E20536588
:101A0000747320746865204951204D6F64756C6152
:101A1000746F722E202869652E202D6920313720A1
:101A20002D71203133202D6D290053656C65637451
:101A3000207468652074617267657420504C4C2076
:101A400028302920484D4338333020283129204878
:101A50004D433833330053657420504C4C20496E4D
:101A600070757420446976696465722076616C755E
:101A7000652E203120746F203136333833005365A2
:101A80007420504C4C20466565646261636B204451
:101A90006976696465722076616C75652E203136D1
:101AA00020746F2035323432353500536574205040
:101AB0004C4C2056434F204F757470757420446908
:101AC00076696465722076616C75652E20312C20F4
:101AD000322C20342C2036202E2E20363200456E1B
:101AE00061626C652F44697361626C652056434F77
:101AF000204F7574707574204672657175656E63DC
:101B00007920446F75626C6572004D757465732041
:101B1000746865204C4F204672657175656E6379F7
:101B20002053796E74686573697A65722077686589
:101B30006E20757365640053656C656374732074FF
:101B4000686520636F72726563742046696C7465A2
:101B5000722042616E6B20666F7220612067697629
:101B6000656E206672657175656E637920696E2099
:101B70006B487A00504C4C204F757470757420502F
:101B80006F7765722028303A202D3464426D2C2006
:101B9000313A202D3164426D2C20323A202B3264B0
:101BA000426D2C20333A202B3564426D2900524679
:101BB00020417474656E7561746F7220536574741E
:101BC000696E672028303A20306442202D3E203153
:101BD00032373A202D33312E3735644229004144C3
:101BE00046343335352F4144463533353520446945
:101BF000726563742052656769737465722041630E
:101C000063657373203C3C3238626974206461748C
:101C1000613E3C3462697420616464726573733E32
:101C20003E00C8127218BD18FB1852196F19AA1974
:101C3000E5192A1A561A7E1AAB1ADE1A0A1B371B26
:101C4000741BAE1BDE1B44756D70732074686520B9
:101C500072656769737465727320666F7220746849
:101C60006520726567756C617220616E64205246F2
:101C7000204750494F580044756D70732074686553
:101C80002072656769737465727320666F72207461
:101C900068652044414333384A383400C812461C32
:101CA000771C436F6D6D616E6420666F722074687F
:101CB000652063757272656E742068656172746206
:101CC0006561742076616C7565206F662074686547
:101CD00020545820626F61726400436F6D6D616EB5
:101CE0006420666F7220726573657474696E672014
:101CF0007468652063757272656E742068656172C0
:101D000074626561742076616C7565206F6620541D
:101D10005820626F61726400486561727462656127
:101D20007420696E697469616C697A6174696F6E37
:101D30002066756E6374696F6E20746F20736574AE
:101D400020636F756E74657220746F203000C81246
:101D5000A21CDA1C181D5265777269746520616CCB
:101D60006C207265677320666F7220656E7469728D
:101D70006520626F6172642E005475726E206F6E02
:101D8000206F757470757473202870657220636895
:101D9000616E6E656C292E0052756E7320646961E8
:101DA000676E6F73746963206F6E207065726970FF
:101DB000686572616C2028706572206368616E6E60
:101DC000656C292E2053686F756C64207072696E83
:101DD0007420616C6C207265676973746572732E10
:101DE000005475726E206F6666206F75747075741E
:101DF000732028706572206368616E6E656C292E91
:101E000000506F776572206379636C65207065722E
:101E10006970686572616C7320616E642072756EA2
:101E20007320626F61726420696E69742028706526
:101E300072206368616E6E656C292E005475726E37
:101E4000206F6666207065726970686572616C7378
:101E50002E005475726E73206576657279746869A8
:101E60006E67206F66662E005072696E7473206F05
:101E700075742074686520736F667477617265206D
:101E8000616E642068617264776172652076657244
:101E900073696F6E2E00426C696E6B732074686597
:101EA000204C4544206120737065636966696564F0
:101EB000206E756D626572206F662074696D657342
:101EC0002E0050726F7669646573207468652061B6
:101ED0006D6F756E74206F662052414D206C656683
:101EE0007420286279746573292E0050726F7669A8
:101EF000646573207468652074656D7065726174C3
:101F00007572652028302D31292E004F757470753B
:101F10007420656E61626C65283129206F722064BF
:101F2000697361626C652830292E00456E61626CB0
:101F30006573204A45534420535953524546204720
:101F400061746500C812561D791D981DE11D011EA2
:101F50003C1E521E681E961EEB1EC21E0B1F2B1F20
:101F600044414333384A383400484D433833784C81
:101F7000503647004144524636353138204869676B
:101F8000682062616E640041445246363531382023
:101F90004C6F772042616E6400C812601F691F4554
:101FA0006E7465722074686520626F6F746C6F6107
:101FB0006465722E009F1F4E6F20617267756D659C
:101FC0006E74206E65636573736172792E00B71F3E
:101FD0005072696E7473206F757420696E20766517
:101FE00072626F7365206D6F64652E203120746F8F
:101FF00020656E61626C652E00D01F436F6D6D6150
:102000006E647320666F72206D616E6167696E67C2
:102010002074686520434C4B2067656E657261745F
:10202000696F6E207468726F756768204C4D4B3015
:10203000343832382C20414435363234522C204842
:102040004D433938372E00436F6D6D616E647320D8
:10205000666F72206D616E6167696E672074686576
:1020600020434C4B2067656E65726174696F6E200A
:102070007468726F756768204C4D4B303438323855
:102080002C20414435363234522C20484D433938C7
:10209000372E00436F6D6D616E647320666F722022
:1020A00073657474696E6720746865204C4D4B309D
:1020B000343832382064656C617920636C6F636BEF
:1020C000732E00436F6D6D616E647320666F7220B6
:1020D00073657474696E6720746865204C4D4B306D
:1020E000343832382064656C617920636C6F636BBF
:1020F000732E00436F6D6D616E647320666F722086
:1021000073657474696E67204A4553442F504C4C74
:10211000204E2F5220646976696465727300436FA4
:102120006D6D616E647320666F722073657474697F
:102130006E6720484D433938382067726F757020BC
:1021400064656C6179732E005265616420616E6410
:1021500020777269746520636F6D6D616E647320A2
:10216000666F7220646562756767696E672E0043EB
:102170006F6E74726F6C732074686520626F617229
:1021800064206C6576656C2066756E6374696F6E2D
:10219000732E2053657175656E7469616C20657866
:1021A0006563206F6620617267756D656E74732E4E
:1021B00000436F6D6D616E647320666F72206163A2
:1021C00063657373696E6720746865206865617202
:1021D000746265617420737461747573004F4E2F5F
:1021E0004F46462073776974636865732C202830E6
:1021F000206973204F46462C2031206973204F4EB2
:102200002900426F6F746C6F61646572206F707427
:10221000696F6E732E0045786974732066726F6DF6
:10222000207468697320626F617264206261636BFD
:1022300020746F20746865204449474954414C20FC
:10224000626F6172642E005072696E7473206F75D4
:1022500074207468652068656C70206D656E7520EB
:10226000666F722074686520626F6172642E00FB75
:102270001F47209320C320F3201E2148216F21B146
:1022800021DD21022216224722456E61626C652003
:102290006578742D31304D487A20726566657265B7
:1022A0006E6365202831292E0049737375652053AC
:1022B00059535245462070756C7365732066726F72
:1022C0006D204A4553442E00536574207468652080
:1022D00044414320636F6E74726F6C6C696E67204B
:1022E000584F20567265662C20302D3430393620F8
:1022F0006672616374696F6E205665787400436816
:10230000616E676520696E7465726E616C207265BE
:10231000666572656E636520444143206F75747015
:10232000757420766F6C746167650052652D7379E2
:102330006368726F6E697A65206F7574707574204A
:1023400064697669646572732066726F6D20626F6E
:102350007468204C4D4B73008922A922C822A922FF
:102360002B2353656C656374204A455344206F7278
:1023700020504C4C2E0053656C6563742064657668
:1023800069636520636C6F636B2E00536574206412
:1023900069676974616C2064656C617920636C6F36
:1023A000636B2E00622376238B23622376238B2399
:1023B00053656C6563742064697669646572207422
:1023C0006F207365742E0053657420522064697603
:1023D0006964657220666F7220504C4C2E00536504
:1023E00074204E206469766964657220666F72207D
:1023F000504C4C2E005365742063616C6C696272A2
:102400006174696F6E204E20646976696465722E0E
:1024100000536574207072657363616C617220662D
:102420006F722063616C6C6962726174696F6E2E89
:102430000053657420636C6F636B20646976696414
:1024400065722E006223B023C723DE233124536537
:102450006C65637473206265747765656E2074685B
:10246000652074776F20484D43393838206465768D
:102470006963657320287265666572656E636520A1
:10248000616E64206C6D6B292E004765742F736537
:1024900074207468652053594E432064656C6179DB
:1024A00020646976696465722E00536574206569DD
:1024B000746865722053594E43206F7220534C4903
:1024C00050207573696E672053504920636F6D6D9E
:1024D000756E69636174696F6E2E004765742F7342
:1024E000657420746865206F7574707574206C61F4
:1024F000756E63682070686173652E004765742F80
:102500007365742064656C6179206C696E652073F5
:102510006574706F696E742E004E248A24AA24DBC1
:1025200024FC245265616420616E642077726974B2
:102530006520636F6D6D616E647320666F722064D9
:102540006562756767696E672E0062232325526591
:10255000777269746520616C6C20726567732066A0
:102560006F7220656E7469726520626F6172642E8D
:10257000005475726E206F6E206F75747075747371
:102580002028706572206368616E6E656C292E006C
:1025900052756E7320646961676E6F73746963202E
:1025A0006F6E207065726970686572616C2028704A
:1025B0006572206368616E6E656C292E2053686FAA
:1025C000756C64207072696E7420616C6C20726529
:1025D000676973746572732E005475726E206F662E
:1025E00066206F757470757473202870657220632F
:1025F00068616E6E656C292E00506F77657220637E
:1026000079636C65207065726970686572616C735E
:1026100020616E642072756E7320626F6172642037
:10262000696E69742028706572206368616E6E65DA
:102630006C292E005475726E206F6666207065726C
:102640006970686572616C732E005475726E7320C8
:1026500065766572797468696E67206F66662E00AC
:102660005072696E7473206F75742074686520737E
:102670006F66747761726520616E64206861726450
:10268000776172652076657273696F6E2E00426C99
:10269000696E6B7320746865204C4544206120731B
:1026A0007065636966696564206E756D6265722028
:1026B0006F662074696D65732E0050726F76696461
:1026C0006573207468652074656D706572617475DA
:1026D00072652028302D31292E0050726F76696482
:1026E00065732074686520616D6F756E74206F6608
:1026F0002052414D206C65667420286279746573A0
:10270000292E004E2571259025F92534264A26606C
:10271000268E26BA26DA264865617274626561746F
:102720002066756E6374696F6E20746F20616E64CD
:102730002066726F6D2074686520736572766572AD
:10274000004865617274626561742066756E6374B9
:10275000696F6E20746F207265736574207468658C
:102760002068656172746265617420636F756E7450
:1027700065720048656172746265617420696E6992
:102780007469616C697A6174696F6E2066756E63D5
:1027900074696F6E20746F2073657420636F756E3B
:1027A00074657220746F2030001727412773274CFF
:1027B0004D4B303430323800484D4339383700AF54
:1027C00027B8274E6F20617267756D656E74206E35
:1027D00065636573736172792E00C327456E7465F6
:1027E000722074686520626F6F746C6F61646572CB
:1027F0002E00DC275072696E7473206F7574206927
:102800006E20766572626F7365206D6F64652E2031
:102810003120746F20656E61626C652E00F42700B4
:1028200011241FBECFEFCDBFDFE3DEBF00E00CBF42
:102830001FE2A0E0B0E2E8E2F0E601E00BBF02C078
:1028400007900D92AA3AB107D9F718E3AAEABFE2B6
:1028500001C01D92AA31B107E1F70E94B5A60C9400
:1028600012B00C9400006150710981099109D9F7E7
:10287000089580E0089580E0089580E008958091B3
:10288000D1209091D2202091AD2F3091AE2F821B7C
:10289000930B01968093AD2F9093AE2F80E0089517
:1028A0001092AD2F1092AE2F80E008958091AC234E
:1028B0009091AD23A091AE23B091AF23AC01BD01A7
:1028C000415051096109710944365105610571058D
:1028D00058F4AC01BD0140515109610971094135FC
:1028E000510561057105F8F481E196E29F938F939C
:1028F0000E94C2A98091AF238F938091AE238F93C2
:102900008091AD238F938091AC238F9389E196E2E0
:102910009F938F930E94C2A98DB79EB708968DBFD3
:102920009EBF81E0089581369105A105B10558F05B
:102930008156910991E001C0990F8A95EAF7909329
:10294000442480E008958093442480E00895E1EFDA
:10295000F2E283818F9382818F9381818F93808133
:102960008F93809144241F928F9389E296E29F93E4
:102970008F930E94C2A98DB79EB708968DBF9EBF48
:1029800080E00895E3E1F3E283818F9382818F9366
:1029900081818F9380818F93809144241F928F93A4
:1029A0008CE396E29F938F930E94C2A98DB79EB746
:1029B00008968DBF9EBF80E00895E4E2F3E2838134
:1029C0008F9382818F9381818F9380818F93809168
:1029D00044241F928F938BE496E29F938F930E94DF
:1029E000C2A98DB79EB708968DBF9EBF80E008959F
:1029F000E5E3F3E283818F9382818F9381818F93CB
:102A000080818F93809144241F928F938AE596E270
:102A10009F938F930E94C2A98DB79EB708968DBFD2
:102A20009EBF80E00895E6E4F3E283818F93828184
:102A30008F9381818F9380818F93809144241F9203
:102A40008F9389E696E29F938F930E94C2A98DB7D8
:102A50009EB708968DBF9EBF80E00895E9E7F3E238
:102A600083818F9382818F9381818F9380818F93D4
:102A7000809144241F928F9389E796E29F938F93CE
:102A80000E94C2A98DB79EB708968DBF9EBF80E0F9
:102A900008958091F2219091F321A091F421B091B9
:102AA000F521AC01BD01415051096109710944365C
:102AB00051056105710558F4AC01BD014051510942
:102AC000610971094135510561057105F8F481E12C
:102AD00096E29F938F930E94C2A98091F5218F93D4
:102AE0008091F4218F938091F3218F938091F22133
:102AF0008F9389E196E29F938F930E94C2A98DB72D
:102B00009EB708968DBF9EBF81E0089581369105DE
:102B1000A105B10558F08156910991E001C0990FC6
:102B20008A95EAF79093442480E0089580934424A2
:102B300080E008958091F3209091F420A091F520F9
:102B4000B091F620AC01BD014150510961097109F4
:102B5000443651056105710558F4AC01BD01405181
:102B60005109610971094135510561057105F8F493
:102B700081E196E29F938F930E94C2A98091F620F3
:102B80008F938091F5208F938091F4208F93809183
:102B9000F3208F9389E196E29F938F930E94C2A9BD
:102BA0008DB79EB708968DBF9EBF81E00895813690
:102BB0009105A105B10558F08156910991E001C038
:102BC000990F8A95EAF79093442480E008958093C2
:102BD000442480E00895CF93DF9300D01F92CDB7B7
:102BE000DEB7CE010196AA2797FDA095BA2F409196
:102BF0001038509111384115510511F44AE158E34C
:102C0000662757FD6095762F841B950BA60BB70B97
:102C1000BF93AF939F938F938AE896E29F938F938E
:102C20000E94C2A90F900F900F900F900F900F90DD
:102C300080E02496CDBFDEBFDF91CF9108958091D3
:102C4000AE2F8F938091AD2F8F938FE996E29F9354
:102C50008F930E94C2A98091AD2F9091AE2F0196C3
:102C60008093AD2F9093AE2F0F900F900F900F90F9
:102C700080E00895682F80910624909107240E9497
:102C8000847A80E0089561E070E00090252202C01F
:102C9000660F771F0A94E2F741E08BED97E30E94FD
:102CA000D028882341F081E196E29F938F930E9480
:102CB000C2A90F900F90809128228F938091272294
:102CC0008F93809126228F93809125228F938091DC
:102CD00044241F928F9383EA96E29F938F930E94DE
:102CE000C2A98DB79EB708968DBF9EBF80E008959C
:102CF00061E070E00090362202C0660F771F0A94F0
:102D0000E2F740E08BED97E30E94D028882341F062
:102D100081E196E29F938F930E94C2A90F900F903A
:102D2000809139228F93809138228F93809137221E
:102D30008F93809136228F93809144241F928F939A
:102D400083EA96E29F938F930E94C2A98DB79EB7A4
:102D500008968DBF9EBF80E0089580919E2090913F
:102D60009F20A091A020B091A120892B8A2B8B2B92
:102D700029F08EEE97E30E94C04304C08EEE97E3E5
:102D80000E942144882341F081E196E29F938F9332
:102D90000E94C2A90F900F908091A1208F938091E3
:102DA000A0208F9380919F208F9380919E208F935E
:102DB000809144241F928F9380EC96E29F938F938F
:102DC0000E94C2A98DB79EB708968DBF9EBF80E0B6
:102DD00008958091AF209091B020A091B120B09142
:102DE000B220892B8A2B8B2B71F484EE97E30E94FF
:102DF000A733882341F081E196E29F938F930E944D
:102E0000C2A90F900F908091B2208F938091B12032
:102E10008F938091B0208F938091AF208F9380917A
:102E200044241F928F9382ED96E29F938F930E948A
:102E3000C2A98DB79EB708968DBF9EBF80E008954A
:102E40000E94CE8E80E0089584EE96E20E94DCA976
:102E50000E94CE8E80E00895CF93DF931F921F9241
:102E6000CDB7DEB7AE014E5F5F4F60E08EEE97E309
:102E70000E94E045AE014F5F5F4F61E08EEE97E349
:102E80000E94E04589811F928F938A811F928F93C0
:102E90008BE097E29F938F930E94C2A90F900F90AF
:102EA0000F900F900F900F9080E00F900F90DF9198
:102EB000CF9108952F923F924F925F926F927F929F
:102EC0008F929F92AF92BF92CF92DF92EF92FF923A
:102ED0000F931F93CF93DF93CDB7DEB72797CDBF67
:102EE000DEBF8DEEC82E84E2D82EE12CF12C00E05E
:102EF00010E095E2292E97E2392E8091442490E04B
:102F0000002E02C0959587950A94E2F780FF4BC08A
:102F1000C7018B519B4D5C01FC01F081FD83F601E3
:102F20006080718020E14E2D6D81C3010E942F8948
:102F3000F501F181FE83F6014280538020E141E0FA
:102F40004E0D6E81C2010E942F8922E3812C912CAB
:102F5000A12CB12CAE014D5F5F4F6D81C3012F835A
:102F60000E948489AE014F5F5F4F6E81C2010E9453
:102F700084898B819C81A80EB91E89819A81880ED3
:102F8000991E2F81215031F79F928F92BF92AF925D
:102F9000C8018F5B9F4F9F938F933F922F920E9408
:102FA000C2A9CDBFDEBF0F5F1F4F92E0E90EF11C3B
:102FB000E4E0CE0ED11C0430110509F09ECF80E074
:102FC0002796CDBFDEBFDF91CF911F910F91FF906C
:102FD000EF90DF90CF90BF90AF909F908F907F90B9
:102FE0006F905F904F903F902F90089560918A234B
:102FF00070918B2380918C2390918D236038710583
:103000008105910528F086E497E20E94DCA91FC0A3
:103010008DEC97E30E94844880918D238F9380915B
:103020008C238F9380918B238F9380918A238F930E
:10303000809144241F928F938CE497E29F938F9307
:103040000E94C2A98DB79EB708968DBF9EBF80E033
:103050000895CF93DF93CBE9D3E2488159816A8108
:103060007B818BEC97E30E94CC5E8B818F938A816E
:103070008F9389818F9388818F93809144241F92AD
:103080008F938FE597E29F938F930E94C2A98DB78C
:103090009EB708968DBF9EBF80E0DF91CF910895C7
:1030A000CF93DF931F921F92CDB7DEB719821A829A
:1030B000BE016F5F7F4F8EEE97E30E9439448823F5
:1030C00041F081E797E29F938F930E94C2A90F90EE
:1030D0000F9089E797E20E94DCA989811F928F9364
:1030E00081E997E29F938F930E94C2A98A811F92E0
:1030F0008F938FE997E29F938F930E94C2A980914B
:1031000044241F928F938DEA97E29F938F930E949E
:10311000C2A9CDBFDEBF80E00F900F90DF91CF91AD
:10312000089584EE97E30E945526882341F081E1BB
:1031300096E29F938F930E94C2A90F900F9080E018
:1031400008958EEE97E30E940226882341F081E1E4
:1031500096E29F938F930E94C2A90F900F9080E0F8
:10316000089564E474E28BED97E30E94E7268823D8
:1031700041F081E196E29F938F930E94C2A90F9044
:103180000F90809144241F928F938EEB97E29F9330
:103190008F930E94C2A90F900F900F900F9080E024
:1031A00008956091AE2184EE97E30E94253788232D
:1031B00041F081E196E29F938F930E94C2A90F9004
:1031C0000F908091B1218F938091B0218F93809146
:1031D000AF218F938091AE218F9384ED97E29F93DF
:1031E0008F930E94C2A90F900F900F900F900F9095
:1031F0000F9080E00895CF9380919D2190919E2122
:10320000A0919F21B091A0210697A105B10540F0A2
:1032100081E196E29F938F930E94C2A90F900F9035
:1032200080919D2190919E21A0919F21B091A021FC
:1032300082309105A105B10529F170F40097A1052F
:10324000B105D1F00197A105B10571F587E098E2CC
:103250000E94DCA9C8E029C084309105A105B10510
:10326000E9F0B0F00597A105B105F1F481E598E228
:103270000E94DCA9CAE019C083EF97E20E94DCA992
:10328000C0E013C088E198E20E94DCA9C7E00DC04D
:1032900089E298E20E94DCA9C5E007C081E498E2D7
:1032A0000E94DCA9C6E001C0C0E060E084EE97E3C4
:1032B0000E94103E60E084EE97E30E9425376C2F59
:1032C00084EE97E30E94763EC63031F462E070E00F
:1032D00084EE97E30E94DF3E60E084EE97E30E9475
:1032E000A54161E084EE97E30E94253761E084EE1A
:1032F00097E30E94103E80E0CF91089560E084EE55
:1033000097E30E94253760E084EE97E30E94103E29
:1033100060E084EE97E30E94763E61E084EE97E3FE
:103320000E94A54161E084EE97E30E94103E61E0B7
:1033300084EE97E30E94253787E698E20E94DCA995
:1033400080E008958AE898E29F938F938DE898E251
:103350009F938F930E94C2A90F900F900F900F9090
:1033600021E0409149206AE080E090E20C9429A598
:1033700080919C2290919D22A0919E22B0919F22AB
:10338000AC01BD0141505109610971094436510533
:103390006105710558F4AC01BD0140515109610945
:1033A00071094135510561057105F8F481E196E235
:1033B0009F938F930E94C2A980919F228F938091A7
:1033C0009E228F9380919D228F9380919C228F9338
:1033D00089E196E29F938F930E94C2A98DB79EB711
:1033E00008968DBF9EBF81E0089581369105A105A5
:1033F000B10550F08156910991E001C0990F8A956D
:10340000EAF79093442402C080934424809144249A
:103410001F928F9380EA98E29F938F930E94C2A994
:103420000F900F900F900F9080E008958091582298
:1034300090915922A0915A22B0915B22AC01BD011A
:103440004150510961097109443651056105710501
:1034500058F4AC01BD014051510961097109413570
:10346000510561057105F8F481E196E29F938F9310
:103470000E94C2A980915B228F9380915A228F93E0
:10348000809159228F93809158228F9389E196E2FF
:103490009F938F930E94C2A98DB79EB708968DBF48
:1034A0009EBF81E0089581369105A105B10550F0D8
:1034B0008156910991E001C0990F8A95EAF790939E
:1034C000442402C080934424809144241F928F930B
:1034D00080EA98E29F938F930E94C2A90F900F9069
:1034E0000F900F9080E0089580917C2090917D2036
:1034F000A0917E20B0917F20AC01BD0141505109C7
:1035000061097109443651056105710558F4AC0132
:10351000BD014051510961097109413551056105EC
:103520007105F8F481E196E29F938F930E94C2A9FE
:1035300080917F208F9380917E208F9380917D203A
:103540008F9380917C208F9389E196E29F938F9354
:103550000E94C2A98DB79EB708968DBF9EBF81E01D
:10356000089581369105A105B10550F08156910964
:1035700091E001C0990F8A95EAF79093442402C024
:1035800080934424809144241F928F9380EA98E290
:103590009F938F930E94C2A90F900F900F900F904E
:1035A00080E008951F920F920FB60F9211240BB670
:1035B0000F922F933F934F935F936F937F938F93CC
:1035C0009F93AF93BF93EF93FF9320E040E050E0D1
:1035D00060E070E088E094E20E947278FF91EF91E1
:1035E000BF91AF919F918F917F916F915F914F911B
:1035F0003F912F910F900BBE0F900FBE0F901F9019
:1036000018951F920F920FB60F9211240BB60F92BE
:103610002F933F934F935F936F937F938F939F93DA
:10362000AF93BF93EF93FF9388E094E20E94E37817
:10363000FF91EF91BF91AF919F918F917F916F918A
:103640005F914F913F912F910F900BBE0F900FBE46
:103650000F901F901895CF93DF9380915000826058
:10366000809350008091510081FFFCCFD8EDD4BFF2
:10367000C1E0C093400065ED7CED82E390E00E94E4
:103680003314F894D4BFC093960062E085E894E2C6
:103690000E94CC6EC82F64E08CE494E20E94E36F39
:1036A000C80F23EF41E06FEA7FE28DED97E30E94C0
:1036B000448F2BED41E063EA71E386EE97E30E94CD
:1036C000448F61E088E094E20E941679D82F62E08E
:1036D00084EB94E20E94DC648C0FC82FCD0F97E03E
:1036E0009093A2008091A20080688093A2009093A2
:1036F000A20078940E94778E8AE00E94108E20E1CA
:1037000048E060911C2480912024909121240E9403
:103710002F8920E149E060911D248091222490911D
:1037200023240E942F8920E14AE060911E24809189
:103730002424909125240E942F8920E14BE0609160
:103740001F2480912624909127240E942F8920E114
:1037500040E061E080E092E00E942F8920E141E0BA
:1037600062E080E092E00E942F8920E142E061E087
:1037700080E092E00E942F8920E143E062E080E057
:1037800092E00E942F8920E144E061E080E092E035
:103790000E942F8920E145E062E080E092E00E94F3
:1037A0002F8920E146E061E080E092E00E942F89CD
:1037B00020E147E062E080E092E00E942F898C2FB8
:1037C000DF91CF91089580E008950E94CE8E80E031
:1037D0000895CF938DEC97E30E941648C82F8BEC89
:1037E00097E30E94405FC80F40E064E08BED97E3F1
:1037F0000E94D028C80F40E068E08BED97E30E945C
:10380000D0288C0FCF9108950E94E91B882341F0A6
:1038100081E196E29F938F930E94C2A90F900F902F
:1038200080E0089580E00895CF938FE08093442452
:103830008DEC97E30E942F48C82F8EEE97E30E94ED
:103840001044C80F84EE97E30E94D234C80F8BEC6B
:1038500097E30E94585FC80F40E064E08BED97E368
:103860000E94D028C80F40E068E08BED97E30E94EB
:10387000D028C80F40E060E48BED97E30E94D02889
:10388000C80F6AE37FE880E090E00E94331440E0D4
:1038900060E88BED97E30E94D028C80F6AE37FE8C9
:1038A00080E090E00E94331440E060E28BED97E30B
:1038B0000E94D0288C0FCF9108950E94141C882359
:1038C00041F081E196E29F938F930E94C2A90F90ED
:1038D0000F9080E008958AE898E29F938F938DE897
:1038E00098E29F938F930E94C2A98FEA98E29F93D8
:1038F0008F9386EB98E29F938F930E94C2A982ECEC
:1039000098E29F938F9389ED98E29F938F930E9403
:10391000C2A987EE98E29F938F938BEF98E29F93D3
:103920008F930E94C2A98DB79EB740968DBF9EBF50
:1039300080E008950E946B1C882341F081E196E2AB
:103940009F938F930E94C2A90F900F9080E00895DB
:103950006230A0F59FEF980F9F3080F5809344244C
:103960006130A1F441E062E08BED97E30E94D02842
:1039700040E064E08BED97E30E94D02841E068E0EE
:103980008BED97E30E94D02880E0089540E062E04C
:103990008BED97E30E94D02841E064E08BED97E344
:1039A0000E94D02840E068E08BED97E30E94D02889
:1039B0008BEC97E30E94405F80E0089581E00895DA
:1039C0006091AD22809144240E94A81C882341F07C
:1039D00081E196E29F938F930E94C2A90F900F906E
:1039E0008091B0228F938091AF228F938091AE22ED
:1039F0008F938091AD228F93809144241F928F9357
:103A000089E099E29F938F930E94C2A98DB79EB7D8
:103A100008968DBF9EBF80E008956230B8F49FEF96
:103A2000980F9F3098F480934424613039F441E03A
:103A30008BED97E30E94D02880E0089540E061E09C
:103A40008BED97E30E94D02880E0089581E00895EF
:103A50006091BE22809144240E940D1D882341F074
:103A600081E196E29F938F930E94C2A90F900F90DD
:103A70008091C1228F938091C0228F938091BF2229
:103A80008F938091BE228F93809144241F928F93B5
:103A900080E299E29F938F930E94C2A98DB79EB74F
:103AA00008968DBF9EBF80E00895603460F49FEF5C
:103AB000980F9F3040F4809344248EEE97E30E9449
:103AC000514580E0089581E008958091BD23909153
:103AD000BE23A091BF23B091C02380349105A105DE
:103AE000B10560F08FE390E0A0E0B0E08093BD23EB
:103AF0009093BE23A093BF23B093C0238091DF2374
:103B00009091E023A091E123B091E2230097A105D9
:103B1000B10541F56091BD23809144240E94551D5B
:103B2000882321F088E399E20E94DCA98091C023D8
:103B30008F938091BF238F938091BE238F93809129
:103B4000BD238F93809144241F928F9388E499E240
:103B50009F938F930E94C2A98DB79EB708968DBF81
:103B60009EBF11C04091BD230197A105B10531F45D
:103B700060E08EEE97E30E94724505C061E08EEE34
:103B800097E30E94724580E00895CF92DF92EF9212
:103B9000FF920F931F93CF93DF931F92CDB7DEB7A2
:103BA0009FEF980F9F30B8F58093442400E010E019
:103BB0008BE5C82E89E2D82E94E6E92E99E2F92EFB
:103BC000802F837051F41F930F93DF92CF920E9446
:103BD000C2A90F900F900F900F90AE014F5F5F4FF3
:103BE000B80184EE97E30E949D3489811F928F93E0
:103BF000FF92EF920E94C2A90F5F1F4F0F900F908C
:103C00000F900F9001371105D9F68AE090E00E94DD
:103C1000D6A980E001C081E00F90DF91CF911F9184
:103C20000F91FF90EF90DF90CF900895CF93DF93A7
:103C30001F92CDB7DEB7809144240E94C51D882312
:103C400041F081E196E29F938F930E94C2A90F9069
:103C50000F90809144241F928F938CE699E29F935A
:103C60008F930E94C2A98CE799E20E94DCA9BE0151
:103C70006F5F7F4F84EE97E30E946E410F900F902D
:103C80000F900F908981811105C08AE899E20E9406
:103C9000DCA904C088EA99E20E94DCA9BE016F5F3A
:103CA0007F4F84EE97E30E9452408981811105C0C5
:103CB00082EC99E20E94DCA904C08BEE99E20E949A
:103CC000DCA9BE016F5F7F4F84EE97E30E94144032
:103CD0008981811105C080E19AE20E94DCA904C0BB
:103CE0008FE29AE20E94DCA9BE016F5F7F4F84EEF3
:103CF00097E30E94D03F8981811105C08AE49AE24E
:103D00000E94DCA904C088E79AE20E94DCA9BE01F7
:103D10006F5F7F4F84EE97E30E94BD4089818111E0
:103D200005C082E99AE20E94DCA904C085EC9AE20F
:103D30000E94DCA9BE016F5F7F4F84EE97E30E9473
:103D40008E3F8981811105C084EF9AE20E94DCA92F
:103D500004C089E19BE20E94DCA980E00F90DF9122
:103D6000CF9108950F931F93CF93DF9300D01F92AD
:103D7000CDB7DEB79FEF980F9F3008F06BC08093F0
:103D800044248E010F5F1F4F9E012E5F3F4FAE01F7
:103D90004D5F5F4FBE016C5F7F4F8BED97E30E94DD
:103DA000442D8C811F928F938DE39BE29F938F9381
:103DB0000E94C2A98B811F928F9384E59BE29F93FF
:103DC0008F930E94C2A98A811F928F938CE69BE2F7
:103DD0009F938F930E94C2A989811F928F9386E837
:103DE0009BE29F938F930E94C2A99E012E5F3F4F3B
:103DF000AE014D5F5F4FBE016C5F7F4F8CEE97E36E
:103E00000E94442D8C811F928F938AE39BE29F93A3
:103E10008F930E94C2A98B811F928F9381E59BE2B1
:103E20009F938F930E94C2A98A811F928F9389E6E4
:103E30009BE29F938F930E94C2A989811F928F93C7
:103E400083E89BE29F938F930E94C2A9CDBFDEBF00
:103E500080E001C081E02496CDBFDEBFDF91CF912D
:103E60001F910F910895809144240E94B21E8823CF
:103E700041F081E797E29F938F930E94C2A90F9030
:103E80000F90809144241F928F938EE99BE29F9321
:103E90008F930E94C2A90F900F900F900F9080E017
:103EA0000895CF92DF92EF92FF920F931F93CF93DB
:103EB000DF931F921F92CDB7DEB79FEF980F9F3011
:103EC00008F0A0C08093442420E148E060911C24C5
:103ED00080912024909121240E942F8920E149E0A3
:103EE00060911D2480912224909123240E942F8987
:103EF00020E14AE060911E248091242490912524A1
:103F00000E942F8920E14BE060911F24809126249C
:103F1000909127240E942F8980E2E82E84E2F82ED7
:103F200000E010E090EBC92E9BE2D92E8091442452
:103F300090E0002E02C0959587950A94E2F780FFE5
:103F40001FC0AE014F5F5F4FF801E45EFB4D608123
:103F5000F701808191810E94D7898A818F9389811D
:103F60008F93C8018F5B9F4F9F938F93DF92CF9268
:103F70000E94C2A90F900F900F900F900F900F907A
:103F80000F5F1F4FF2E0EF0EF11C0430110571F6C8
:103F900020E140E061E080E092E00E942F8920E192
:103FA00041E062E080E092E00E942F8920E142E05F
:103FB00061E080E092E00E942F8920E143E062E02E
:103FC00080E092E00E942F8920E144E061E080E0FF
:103FD00092E00E942F8920E145E062E080E092E0DB
:103FE0000E942F8920E146E061E080E092E00E949B
:103FF0002F8920E147E062E080E092E00E942F8973
:1040000080E001C081E00F900F90DF91CF911F9170
:104010000F91FF90EF90DF90CF900895809144240E
:104020000E94511F882341F081E196E29F938F9374
:104030000E94C2A90F900F9080E00895CF92DF9266
:10404000EF92FF920F931F93CF93DF938B3068F51E
:10405000062F06950695069590E2099F800111248A
:104060001A5F677021E030E07901062E01C0EE0C86
:104070000A94EAF7CE2CF801E682C82FD0E0CC0FE4
:10408000DD1FD12C8D2D90E08C179D0754F465E138
:1040900076E185E090E00E943314F801C782D39462
:1040A000F1CFF801E68280E001C081E0DF91CF919D
:1040B0001F910F91FF90EF90DF90CF90089568E2ED
:1040C0008091E1210E941E20882341F081E196E247
:1040D0009F938F930E94C2A90F900F901F9288E226
:1040E0008F938091E4218F938091E3218F9380912E
:1040F000E2218F938091E1218F9383EC9BE29F9348
:104100008F930E94C2A98DB79EB708968DBF9EBFA0
:1041100080E00895CF92DF92EF92FF926B017C01D5
:1041200040E060E18CEE97E30E94D02840E060E23E
:104130008CEE97E30E94D02840E060E48CEE97E399
:104140000E94D02840E060E88CEE97E30E94D028DF
:1041500081E2C8168AEAD80684E4E806F10440F051
:1041600040E060E18CEE97E30E94D02841E072C00D
:1041700081ECC81686ECD8068DE2E806F10440F022
:1041800040E060E18CEE97E30E94D02840E03BC025
:1041900081E6C81683EED80686E1E806F10470F0E1
:1041A00041E060E18CEE97E30E94D02841E060E2BC
:1041B0008CEE97E30E94D02841E052C081EBC816F4
:1041C00081E7D8068BE0E806F10470F041E060E199
:1041D0008CEE97E30E94D02840E060E28CEE97E3FB
:1041E0000E94D02841E015C089EDC81688EBD8069A
:1041F00085E0E806F104C8F041E060E18CEE97E369
:104200000E94D02841E060E28CEE97E30E94D02823
:1042100040E060E48CEE97E30E94D02841E060E843
:104220008CEE97E30E94D02826C040E060E18CEE3F
:1042300097E3CD28CE28CF2851F00E94D02840E027
:1042400060E28CEE97E30E94D02841E009C00E9412
:10425000D02840E060E28CEE97E30E94D02840E056
:1042600060E48CEE97E30E94D02840E060E88CEE9A
:1042700097E30E94D02880E0FF90EF90DF90CF90EE
:1042800008950F931F93CF93DF931092E337DFE0EE
:10429000D093442421ED37E346ED57E367E974E218
:1042A0008BED97E30E941628C82F21ED37E346EDEA
:1042B00057E365EA74E28CEE97E30E941628C80F74
:1042C0002CE434E241ED57E366ED77E38EEE97E3BD
:1042D0000E944B43C80F2AE534E241ED57E366EDF7
:1042E00077E384EE97E30E94472FC80F28E634E275
:1042F00041ED57E366ED77E38BEC97E30E944F4A7D
:10430000C80F06E714E221ED37E346ED57E364EF0B
:1043100073E28DEC97E30E949A47C80FD093442430
:104320008BED97E30E944528C80F8CEE97E30E941F
:104330004528C80F40E060E88CEE97E30E94522ABF
:10434000C80F40E060E48CEE97E30E94522AC80F49
:1043500040E060E28CEE97E30E94522AC80F40E0F2
:1043600060E18CEE97E30E94522AC80F40E068E0BB
:104370008CEE97E30E94522AC80F40E064E08CEE76
:1043800097E30E94522AC80F41E062E08CEE97E367
:104390000E94522AC80F40E061E08CEE97E30E9431
:1043A000522AC80F40E064E08BED97E30E94522A46
:1043B000C80F40E068E08BED97E30E94522AC80FD7
:1043C00040E060E18BED97E30E94522AC80F40E085
:1043D00060E28BED97E30E94522AC80F40E062E052
:1043E0008BED97E30E94522AC80F40E061E08BED0D
:1043F00097E30E94522AC80F40E060E48BED97E3F8
:104400000E94522AC80F40E060E88BED97E30E94BB
:10441000522AC80F41E061E08CEE97E30E94D02859
:10442000C80F41E068E08CEE97E30E94D028C80FE7
:1044300041E064E08BED97E30E94D028C80F41E093
:1044400068E08BED97E30E94D028C80F41E060E15F
:104450008BED97E30E94D028C80F41E060E28BED1E
:1044600097E30E94D028C80F6AE37FE880E090E0DD
:104470000E94331441E060E88BED97E30E94D0285E
:10448000C80F6AE37FE880E090E00E94331441E0C7
:1044900060E48BED97E30E94D028C80F41E062E012
:1044A0008BED97E30E94D028C80F40E061E08BEDD0
:1044B00097E30E94D028C80F6AE67EE689E190E083
:1044C0000E943314D093442480E2809305068DEC3F
:1044D00097E30E94E447C80F8EEE97E30E9488435B
:1044E000C80F84EE97E30E94762FC80F00E010E01B
:1044F0008091442490E0002E02C0959587950A94FF
:10450000E2F780FF07C041E068E08CEE97E30E948D
:10451000D028C80F0F5F1F4F0430110549F78BECEF
:1045200097E30E948C4AC80F8BEC97E30E94695F67
:10453000C80F60E070E0CB010E948A208C0FDF91F1
:10454000CF911F910F9108950E944121882341F03E
:1045500081E196E29F938F930E94C2A90F900F90E2
:1045600080E00895CF939FEF980F9F3008F0AAC086
:104570008093442441E060E88CEE97E30E94D028C9
:10458000C82F40E060E48CEE97E30E94D028C80F6B
:1045900041E060E28CEE97E30E94D028C80F41E032
:1045A00060E18CEE97E30E94D028C80F41E064E000
:1045B0008CEE97E30E94D028C80F40E061E08BEDBD
:1045C00097E30E94D028C80F41E062E08BED97E3AB
:1045D0000E94D028C80F41E064E08BED97E30E9471
:1045E000D028C80F41E068E08BED97E30E94D02807
:1045F000C80F41E060E18BED97E30E94D028C80F1F
:1046000041E060E28BED97E30E94D028C80F6AE397
:104610007FE880E090E00E94331441E060E88BED99
:1046200097E30E94D028C80F6AE37FE880E090E01B
:104630000E94331441E060E48BED97E30E94D028A0
:10464000C80F6AE37FE880E090E00E94331484EEB4
:1046500097E30E94762F8DEC97E30E94FD47C80FE9
:104660008EEE97E30E94C043C80F84EE97E30E944A
:104670008130C80F8BEC97E30E94695FC80F60E040
:1046800070E0CB010E948A20C80F41E060E88CEE08
:1046900097E30E94D028C80F40E060E48CEE97E3D7
:1046A0000E94D028C80F41E060E28CEE97E30E94A0
:1046B000D028C80F41E060E18CEE97E30E94D0283B
:1046C0008C0F01C081E0CF910895809144240E9415
:1046D000B222882341F081E196E29F938F930E945A
:1046E000C2A90F900F9080E00895CF939FEF980F8D
:1046F0009F30E8F4809344248DEC97E30E94404877
:10470000C82F8EEE97E30E942144C80F84EE97E3F2
:104710000E94A733C80F8BEC97E30E94695FC80F14
:1047200060E070E0CB010E948A208C0F01C081E024
:10473000CF910895809144240E947523882341F0ED
:1047400081E196E29F938F930E94C2A90F900F90F0
:1047500080E008954F925F926F927F928F929F9226
:10476000AF92BF92CF92DF92EF92FF920F931F937F
:10477000CF93DF93C090CF22D090D022E090D1226F
:10478000F090D2222091F1223091F2224091F32236
:104790005091F422A8EEB3E00E943EA72B013C0109
:1047A0008090132390901423C0912423D09125232B
:1047B000109135230091792381E0C81685E8D80649
:1047C0008FECE806F10428F086E497E20E94DCA969
:1047D00037C08BEC97E30E94695FC701B6010E9466
:1047E0008A2041E064E08CEE97E30E94D02861E2E9
:1047F00070E080E090E00E94331481E098E1C916F7
:1048000096ECD90698E0E906F10408F080E08F9371
:104810000F931F93DF93CF9382E0A82EB12CC12C6E
:10482000D12CE12CF12C8701A301920160E08BECEB
:1048300097E30E94AC4C0F900F900F900F900F9049
:1048400080E0DF91CF911F910F91FF90EF90DF906B
:10485000CF90BF90AF909F908F907F906F905F9020
:104860004F9008952F923F924F925F926F927F9256
:104870008F929F92AF92BF92CF92DF92EF92FF9270
:104880000F931F93CF93DF93CDB7DEB72997CDBF9B
:10489000DEBF8AE090E00E94D6A91F921F9285EDAC
:1048A0009BE29F938F930E94C2A90F900F900F904D
:1048B0000F9018861986912C712C19821A82612CFE
:1048C0001B821C821D821E821F8228EC222E312C0C
:1048D000412C512CE7E0F0E0CC24C394AC2DB0E0A7
:1048E000A20191010E943EA7DC01CB0188549D40AA
:1048F000A109B10989349D40A105B10560F080E4AA
:10490000C81206C088ED9BE20E94DCA981E08CC041
:10491000CC0C319719F78BEC97E30E94695FA8EEF6
:10492000B3E0A20191010E943EA70E948A20C20129
:10493000B10125E030E040E050E00E9455A7812C15
:10494000A12C790101E410E020E43BE14FE553E1C3
:1049500060E08BEC97E30E94E34B68857985892DB5
:10496000972D28EA36E140E050E00E9455A7690102
:104970007A018C819D81AE81BF8182179307A40744
:10498000B50741F188EAA82E96E1B92EC12CD12CA9
:10499000E12CF12C00E010E028853985492D572DB8
:1049A00069817A81862D9B810E9479A7C22ED32EA0
:1049B000E42EF52E5F934F933F932F93AEE0BCE22E
:1049C000BF93AF930E94C2A90F900F900F900F90CA
:1049D0000F900F90A895FFEF2F1A3F0A4F0A5F0A1A
:1049E00028853985492D572D69817A81862D9B81AE
:1049F000A4E60E9459A828873987942E752E6983CA
:104A00007A83682E9B8321E7221627E13206410430
:104A1000510429F0CC82DD82EE82FF825BCF8AE0F6
:104A200090E00E94D6A980E02996CDBFDEBFDF913D
:104A3000CF911F910F91FF90EF90DF90CF90BF909B
:104A4000AF909F908F907F906F905F904F903F902E
:104A50002F9008958BEC97E30E94695F60E070E00F
:104A6000CB010E948A20809144241F928F9386E17B
:104A70009CE29F938F930E94C2A90F900F900F907A
:104A80000F9080E00895CF93DF93C8E6D3E268816A
:104A900079818A819B810E948A208B818F938A8170
:104AA0008F9389818F9388818F93809144241F9263
:104AB0008F9383E29CE29F938F930E94C2A98DB74C
:104AC0009EB708968DBF9EBF80E0DF91CF9108957D
:104AD000CF9380918D2090918E20A0918F20B091C6
:104AE0009020892B8A2B8B2B29F08BEC97E30E944B
:104AF000075F0BC08BEC97E30E94695FC82F60E0F3
:104B000070E0CB010E948A208C0F882341F081E164
:104B100096E29F938F930E94C2A90F900F9080916D
:104B200090208F9380918F208F9380918E208F93F0
:104B300080918D208F93809144241F928F9382E4E3
:104B40009CE29F938F930E94C2A98DB79EB708964F
:104B50008DBF9EBF80E0CF9108950F931F938A0170
:104B60002AE040E050E20E94399781508B3078F47F
:104B700021E040E06AE080E090E20E9429A586E51D
:104B80009CE29F938F930E94C2A90F900F9080E0A8
:104B90001F910F91089585E196E1A5E0B0E001979E
:104BA000A109B109E1F708951F93CF93DF9300970F
:104BB00021F1EC0189EA9DE20E94DCA988E49EE2F1
:104BC0000E94DCA98DEB9DE20E94DCA981EE9DE2B2
:104BD0000E94DCA910E0612FCE010E9484480E944F
:104BE000CB25175E1038B9F717E6612FCE010E946A
:104BF00084480E94CB251951F8CF81E0DF91CF91F5
:104C00001F910895EF92FF920F931F93CF93DF931D
:104C10001F921F92CDB7DEB70097E9F18C0187E0B4
:104C20009EE20E94DCA987E49EE20E94DCA940E5A6
:104C300060E0C8010E947245AE014F5F5F4F60E0C7
:104C4000C8010E94E0458A818F9389818F938BE10F
:104C5000E82E8EE2F82EFF92EF920E94C2A940E564
:104C600061E0C8010E947245AE014F5F5F4F61E095
:104C7000C8010E94E0458A818F9389818F93FF92BA
:104C8000EF920E94C2A98AE090E00E94D6A9CDBF0F
:104C9000DEBF80E001C081E00F900F90DF91CF91E7
:104CA0001F910F91FF90EF900895EF92FF920F9355
:104CB0001F93CF93DF9300D0CDB7DEB7009709F4F1
:104CC00056C08C018EE29EE20E94DCA985E49EE241
:104CD0000E94DCA9BE016D5F7F4FC8010E948A352A
:104CE0008B811F928F938CE59EE29F938F930E94FE
:104CF000C2A9BE016F5F7F4FC8010E9459368A81E9
:104D00008F9389818F938FE69EE29F938F930E946A
:104D1000C2A962E0C8010E942135BE016D5F7F4FCC
:104D2000C8010E9453358B811F928F9382E8E82E31
:104D30008EE2F82EFF92EF920E94C2A960E0C801B5
:104D40000E942135BE016D5F7F4FC8010E9453351F
:104D50008B811F928F93FF92EF920E94C2A98AE0EB
:104D600090E00E94D6A9CDBFDEBF80E001C081E007
:104D70002396CDBFDEBFDF91CF911F910F91FF90A2
:104D8000EF900895CF93DF930097E9F0EC0184E969
:104D90009EE20E94DCA987E49EE20E94DCA9CE018B
:104DA0000E948C4ACE010E94075F88EA9EE20E9420
:104DB000DCA98CEC9EE20E94DCA98AE090E00E94D3
:104DC000D6A980E001C081E0DF91CF910895BF9224
:104DD000CF92DF92EF92FF920F931F93CF93DF93C7
:104DE00000D01F92CDB7DEB7009709F411C16B0157
:104DF0007C018FE0B82EFB01B08240E061E0C7018A
:104E00000E94522A40E062E0C7010E94522A40E01C
:104E100064E0C7010E94522A40E068E0C7010E9496
:104E2000522A40E060E1C7010E94522A40E060E25D
:104E3000C7010E94522A40E060E4C7010E94522A42
:104E400040E060E8C7010E94522A40E061E0C701EB
:104E50000E94D02840E062E0C7010E94D02840E0D4
:104E600064E0C7010E94D02840E068E0C7010E94CA
:104E7000D02840E060E1C7010E94D02840E060E215
:104E8000C7010E94D02840E060E4C7010E94D028FA
:104E900040E060E8C7010E94D02885E0F6018083E9
:104EA00041E061E0C7010E94D02841E064E0C70111
:104EB0000E94D02841E060E1C7010E94D02841E073
:104EC00060E4C7010E94D0288AE0F601808341E0B7
:104ED00062E0C7010E94D02841E068E0C7010E945B
:104EE000D02841E060E2C7010E94D02841E060E89C
:104EF000C7010E94D02881E0F60180838E010F5FF8
:104F00001F4F9E012E5F3F4FAE014D5F5F4FBE01B1
:104F10006C5F7F4FC7010E94442D89811F928F9340
:104F20008A811F928F938B811F928F938C811F9206
:104F30008F9381EF9EE29F938F930E94C2A982E09C
:104F4000F60180839E012E5F3F4FAE014D5F5F4FA4
:104F5000BE016C5F7F4FC7010E94442D89811F9263
:104F60008F938A811F928F938B811F928F938C8155
:104F70001F928F938FE19FE29F938F930E94C2A90C
:104F800084E0F60180839E012E5F3F4FAE014D5FAE
:104F90005F4FBE016C5F7F4FC7010E94442D898126
:104FA0001F928F938A811F928F938B811F928F9371
:104FB0008C811F928F938DE49FE29F938F930E9429
:104FC000C2A988E0F60180839E012E5F3F4FAE01AB
:104FD0004D5F5F4FBE016C5F7F4FC7010E94442D44
:104FE00089811F928F938A811F928F938B811F9249
:104FF0008F938C811F928F938BE79FE29F938F9368
:105000000E94C2A9F601B082CDBFDEBF80E001C020
:1050100081E02496CDBFDEBFDF91CF911F910F912C
:10502000FF90EF90DF90CF90BF900895CF93DF93E4
:10503000CDB7DEB72897CDBFDEBF89839A836B8358
:105040007C834D835E832F83388789819A81009783
:1050500011F481E014C08D819E8180937F379093FD
:1050600080378F81988580938137909382378981AB
:105070009A812B813C81FC012083318380E028963A
:10508000CDBFDEBFDF91CF910895CF93DF931F9205
:105090001F92CDB7DEB789839A8389819A81009761
:1050A00011F481E078C08091813790918237FC01C2
:1050B0001082809181379091823722E0FC01218318
:1050C0008091813790918237FC018281938121E028
:1050D000FC0120838091813790918237FC0182818D
:1050E00093810196FC0110828091813790918237E3
:1050F000FC0182819381029622E0FC012083809151
:10510000813790918237FC01828193810396FC0163
:1051100010828091813790918237FC018281938146
:10512000049623E0FC01208380918137909182379F
:10513000FC018281938105962FEFFC0120838091F1
:1051400081379091823726E0FC01248380917F375C
:105150009091803720E1FC01218380917F379091ED
:105160008037FC01148289819A81FC0180819181C0
:10517000FC012081318140917F37509180376091CF
:1051800081377091823789819A81FC018081918178
:10519000F901199580E00F900F90DF91CF9108955C
:1051A000CF93DF93CDB7DEB72597CDBFDEBF8A8320
:1051B0009B836C834D838A819B81009711F481E0EE
:1051C000AAC019828091813790918237FC011082A8
:1051D000809181379091823721E0FC012183809179
:1051E000813790918237FC018281938121E0FC011B
:1051F0002083809181379091823721E0FC012483C4
:1052000080917F379091803720E1FC01218380914C
:105210007F379091803721E0FC0124838A819B8134
:10522000FC0180819181FC012081318140917F3797
:105230005091803760918137709182378A819B814C
:10524000FC0180819181F901199580917F379091BE
:105250008037FC0182819381FC01808189838D816B
:10526000882329F099818C81892B898306C08C81C0
:10527000982F909589818923898380918137909196
:105280008237FC011082809181379091823722E031
:10529000FC0121838091813790918237FC018281CA
:1052A000938121E0FC0120838091813790918237A6
:1052B000FC018281938101962981FC0120838091E8
:1052C00081379091823722E0FC01248380917F37DF
:1052D0009091803720E1FC01218380917F3790916C
:1052E0008037FC0114828A819B81FC01808191813D
:1052F000FC012081318140917F375091803760914E
:105300008137709182378A819B81FC0180819181F4
:10531000F901199580E02596CDBFDEBFDF91CF91D1
:105320000895CF93DF93CDB7DEB72597CDBFDEBF0E
:105330008A839B836C834D838A819B81009711F4C0
:1053400081E0AAC019828091813790918237FC0157
:105350001082809181379091823721E0FC01218376
:105360008091813790918237FC018281938122E084
:10537000FC012083809181379091823721E0FC01EC
:10538000248380917F379091803720E1FC01218335
:1053900080917F379091803721E0FC0124838A81BE
:1053A0009B81FC0180819181FC01208131814091B0
:1053B0007F375091803760918137709182378A8131
:1053C0009B81FC0180819181F901199580917F3742
:1053D00090918037FC0182819381FC0180818983D7
:1053E0008D81882329F099818C81892B898306C03E
:1053F0008C81982F90958981892389838091813729
:1054000090918237FC011082809181379091823790
:1054100022E0FC0121838091813790918237FC0149
:105420008281938122E0FC012083809181379091D9
:105430008237FC018281938101962981FC012083BE
:10544000809181379091823722E0FC012483809102
:105450007F379091803720E1FC01218380917F3755
:1054600090918037FC0114828A819B81FC018081AC
:105470009181FC012081318140917F3750918037AB
:1054800060918137709182378A819B81FC01808194
:105490009181F901199580E02596CDBFDEBFDF919E
:1054A000CF910895CF93DF93CDB7DEB72597CDBFCA
:1054B000DEBF8A839B836C834D838A819B810097A7
:1054C00011F481E0AAC019828091813790918237CE
:1054D000FC011082809181379091823721E0FC019C
:1054E00021838091813790918237FC018281938161
:1054F00023E0FC012083809181379091823721E065
:10550000FC01248380917F379091803720E1FC015A
:10551000218380917F379091803721E0FC012483A3
:105520008A819B81FC0180819181FC0120813181F4
:1055300040917F37509180376091813770918237E9
:105540008A819B81FC0180819181F901199580916B
:105550007F3790918037FC0182819381FC018081AB
:1055600089838D81882329F099818C81892B898376
:1055700006C08C81982F9095898189238983809199
:10558000813790918237FC01108280918137909110
:10559000823722E0FC01218380918137909182370C
:1055A000FC018281938123E0FC012083809181377B
:1055B00090918237FC018281938101962981FC01BF
:1055C0002083809181379091823722E0FC012483EF
:1055D00080917F379091803720E1FC012183809179
:1055E0007F3790918037FC0114828A819B81FC0176
:1055F00080819181FC012081318140917F375091E0
:10560000803760918137709182378A819B81FC015C
:1056100080819181F901199580E02596CDBFDEBF8B
:10562000DF91CF910895CF93DF93CDB7DEB7259764
:10563000CDBFDEBF89839A836B834C835D83898171
:105640009A81009711F481E05AC08091813790913E
:105650008237FC011082809181379091823721E05E
:10566000FC0121838091813790918237FC018281F6
:105670009381FC011082809181379091823721E0E3
:10568000FC01248380917F379091803720E1FC01D9
:10569000218380917F379091803721E0FC01248322
:1056A00089819A81FC0180819181FC012081318175
:1056B00040917F3750918037609181377091823768
:1056C00089819A81FC0180819181F90119958091EC
:1056D0007F3790918037FC0182819381FC0190811A
:1056E0008B818923882331F08C819D8121E0FC010D
:1056F000208304C08C819D81FC01108280E025966E
:10570000CDBFDEBFDF91CF910895CF93DF93CDB7AB
:10571000DEB72597CDBFDEBF89839A836B834C8329
:105720005D8389819A81009711F481E05BC080914B
:10573000813790918237FC0110828091813790915E
:10574000823721E0FC01218380918137909182375B
:10575000FC018281938121E0FC01208380918137CB
:105760009091823721E0FC01248380917F379091D2
:10577000803720E1FC01218380917F379091803731
:1057800021E0FC01248389819A81FC01808191813F
:10579000FC012081318140917F37509180376091A9
:1057A00081377091823789819A81FC018081918152
:1057B000F901199580917F3790918037FC018281A2
:1057C0009381FC0190818B818923882331F08C8126
:1057D0009D8121E0FC01208304C08C819D81FC011E
:1057E000108280E02596CDBFDEBFDF91CF91089576
:1057F000CF93DF93CDB7DEB72597CDBFDEBF8983CB
:105800009A836B834C835D8389819A81009711F41D
:1058100081E05BC08091813790918237FC011082DA
:10582000809181379091823721E0FC012183809122
:10583000813790918237FC018281938122E0FC01C3
:105840002083809181379091823721E0FC0124836D
:1058500080917F379091803720E1FC0121838091F6
:105860007F379091803721E0FC01248389819A81E0
:10587000FC0180819181FC012081318140917F3741
:1058800050918037609181377091823789819A81F8
:10589000FC0180819181F901199580917F37909168
:1058A0008037FC0182819381FC0190818B81892367
:1058B000882331F08C819D8121E0FC01208304C08C
:1058C0008C819D81FC01108280E02596CDBFDEBFDA
:1058D000DF91CF910895CF93DF93CDB7DEB72597B2
:1058E000CDBFDEBF89839A836B834C835D838981BF
:1058F0009A81009711F481E060C080918137909186
:105900008237FC011082809181379091823721E0AB
:10591000FC0121838091813790918237FC01828143
:10592000938123E0FC01208380918137909182371D
:1059300021E0FC01248380917F379091803720E122
:10594000FC01218380917F379091803721E0FC0119
:10595000248389819A81FC0180819181FC012081CD
:10596000318140917F3750918037609181377091BC
:10597000823789819A81FC0180819181F901199591
:1059800080917F3790918037FC0182819381FC0167
:1059900090818B818923882331F08C819D8121E046
:1059A000FC01208304C08C819D81FC0110828091C8
:1059B0007F3790918037FC0180812596CDBFDEBF77
:1059C000DF91CF910895CF93DF931F921F92CDB7B0
:1059D000DEB789839A8389819A81009711F481E0E7
:1059E0004EC08091813790918237FC011082809166
:1059F00081379091823721E0FC01218380918137AA
:105A000090918237FC018281938123E0FC01208305
:105A10008091813790918237FC0182819381019638
:105A20002FEFFC012083809181379091823722E013
:105A3000FC01248380917F379091803720E1FC0125
:105A4000218380917F3790918037FC011482898176
:105A50009A81FC0180819181FC01208131814091FA
:105A60007F3750918037609181377091823789817B
:105A70009A81FC0180819181F901199580E00F9054
:105A80000F90DF91CF9108950F931F93CF93DF93E2
:105A9000CDB7DEB72A97CDBFDEBF89839A836B83EC
:105AA0007C834D835E832F83388709871A8789819A
:105AB0009A81009711F481E052C18B819C810097FB
:105AC00061F08D819E81009741F08F8198850097CC
:105AD00021F089859A85009711F482E040C1809178
