:100000000C94521A0C94731A0C94731A0C94731A5D
:100010000C94731A0C94731A0C94731A0C94731A2C
:100020000C94731A0C94731A0C94731A0C94731A1C
:100030000C94731A0C942F5E0C94731A0C94731A0C
:100040000C94731A0C94731A0C94731A0C94731AFC
:100050000C94731A0C94731A0C94731A0C94731AEC
:100060000C94731A0C94DD230C94731A0C940C24C6
:100070000C94731A0C94731A0C94731A0C94731ACC
:100080000C94731A0C94731A0C94731A0C94731ABC
:100090000C94731A0C94731A0C94731A0C94731AAC
:1000A0000C94731A0C94731A0C94731A0C94731A9C
:1000B0000C94731A0C94731A0C94615E0C94731A5A
:1000C0000C94731A0C94731A0C94731A0C94731A7C
:1000D0000C94731A0C94731A0C94731A0C94731A6C
:1000E0000C94731A0C94731A0C94731A0C94731A5C
:1000F0000C94731A0C94731A0C94731A0C94731A4C
:100100000C94731A0C94731A0C94731A0C94731A3B
:100110000C94731A0C94731A0C94731A0C94731A2B
:100120000C94731A0C94731A0C94731A0C94731A1B
:100130000C94731A0C94731A0C94731A0C94731A0B
:100140000C94731A0C94731A0C94731A0C94731AFB
:100150000C94731A0C94731A0C94731A0C94731AEB
:100160000C94731A0C94731A0C94731A0C94731ADB
:100170000C94731A0C94731A0C94731A0C94731ACB
:100180000C94731A0C94731A0C94731A0C94731ABB
:100190000C94731A0C94731A0C94731A0C94731AAB
:1001A0000C94731A0C94731A0C94731A0C94731A9B
:1001B0000C94731A0C94731A0C94731A0C94731A8B
:1001C0000C94731A0C94731A0C94731A0C94731A7B
:1001D0000C94731A0C94731A0C94731A0C94731A6B
:1001E0000C94731A0C94731A11361E363D364D3624
:1001F000673681369136A1361A38373A3A3A373A65
:10020000373A373A373A373A373A373A373A373A66
:10021000373A373A373A373A373A373A373A373A56
:10022000373A373A373A373A373A373A373A373A46
:10023000373A373A373A373A373A373A373A373A36
:10024000373A373A373A373A373A373A373A373A26
:10025000373A373A373A373A373A373A373A373A16
:10026000373A373A373A373A373A373A373A373A06
:10027000373A373A373A373A373A373A373A373AF6
:10028000373A373A373A373A373A373A373A373AE6
:10029000373A373A373A373A373A373A373A373AD6
:1002A000373A373A373A373A373A373A373A373AC6
:1002B000373A373A373A373A373A373A373A373AB6
:1002C000373A373A373A373A373A373A373A373AA6
:1002D000373A373A373A373A373A373A373A373A96
:1002E000373A373A373A373A373A373A373A373A86
:1002F000373A373A373A373A373A373A373A373A76
:10030000373A373A373A373A373A373A373A373A65
:10031000373A373A373A373A373A373A373A373A55
:10032000373A373A373A373A373A373A373A373A45
:10033000373A373A373A373A373A373A373A373A35
:10034000373A373A373A373A373A373A373A373A25
:10035000373A373A373A373A373A373A373A373A15
:10036000373A373A373A373A373A373A373A373A05
:10037000373A373A373A373A373A373A373A373AF5
:10038000373A373A373A373A373A373A373A373AE5
:10039000373A373A373A373A373A373A373A373AD5
:1003A000373A373A373A373A373A373A373A373AC5
:1003B000373A373A373A373A373A373A373A373AB5
:1003C000373A373A373A373A373A373A373A373AA5
:1003D000373A373A373A373A373A373A373A373A95
:1003E000373A373A373A373A373A373A373A373A85
:1003F000373A373A373A373A1E382238373A3A3AA4
:1004000029383038373844384B384F38373A3A3A49
:1004100056385D386438713878387C38373A3A3A2B
:1004200083388A3891389E38A5383A3A373A3A3A7A
:10043000A938B038B738C438CB38CF38373A3A3A19
:10044000D638DD38E438F138F838FC38373A3A3AFB
:1004500003390A3911391E3925392939373A3A3AD7
:10046000303937393E394B39523959395D393A3A91
:100470003A3A61396539693970393A3A74397839B3
:100480003A3A88398C39903997399B393A3AA239B6
:100490003A3A3A3AAC39B039B439BB393A3A3A3ADD
:1004A000BF393A3AC3393A3AC7393A3ACB39CF39F0
:1004B000D639DA393A3ADE393A3AE539E9393A3A67
:1004C0003A3AED393A3A3A3AF139F539FF39033ADD
:1004D0003A3A3A3A073A373A373A0E3A123A3A3A09
:1004E000373A373A373A373A373A373A373A373A84
:1004F000163A1A3A373A373A373A373A1E3A253ADD
:100500002C3A333A373A373A3A3A703A543C573CF5
:10051000543C543C543C543C543C543C543C543C5B
:10052000543C543C543C543C543C543C543C543C4B
:10053000543C543C543C543C543C543C543C543C3B
:10054000543C543C543C543C543C543C543C543C2B
:10055000543C543C543C543C543C543C543C543C1B
:10056000543C543C543C543C543C543C543C543C0B
:10057000543C543C543C543C543C543C543C543CFB
:10058000543C543C543C543C543C543C543C543CEB
:10059000543C543C543C543C543C543C543C543CDB
:1005A000543C543C543C543C543C543C543C543CCB
:1005B000543C543C543C543C543C543C543C543CBB
:1005C000543C543C543C543C543C543C543C543CAB
:1005D000543C543C543C543C543C543C543C543C9B
:1005E000543C543C543C543C543C543C543C543C8B
:1005F000543C543C543C543C543C543C543C543C7B
:10060000543C543C543C543C543C543C543C543C6A
:10061000543C543C543C543C543C543C543C543C5A
:10062000543C543C543C543C543C543C543C543C4A
:10063000543C543C543C543C543C543C543C543C3A
:10064000543C543C543C543C543C543C543C543C2A
:10065000543C543C543C543C543C543C543C543C1A
:10066000543C543C543C543C543C543C543C543C0A
:10067000543C543C543C543C543C543C543C543CFA
:10068000543C543C543C543C543C543C543C543CEA
:10069000543C543C543C543C543C543C543C543CDA
:1006A000543C543C543C543C543C543C543C543CCA
:1006B000543C543C543C543C543C543C543C543CBA
:1006C000543C543C543C543C543C543C543C543CAA
:1006D000543C543C543C543C543C543C543C543C9A
:1006E000543C543C543C543C543C543C543C543C8A
:1006F000543C543C543C543C543C543C543C543C7A
:10070000543C543C543C543C543C743A783A543C29
:10071000573C7F3A573C833A903A973A9B3A543C3D
:10072000573CA23A573CA63AB33ABA3ABE3A543C7E
:10073000573CC53A573CC93AD63ADD3A573C543C47
:10074000573CE13A573CE53AF23AF93AFD3A543C23
:10075000573C043B573C083B153B1C3B203B543C5F
:10076000573C273B573C2B3B383B3F3B433B543CA0
:10077000573C4A3B573C4E3B5B3B623B6C3B573CD8
:10078000703B573C743B783B7C3B833B573C8A3BFC
:100790008E3B573C9E3BA23BA63BAD3BB13B573CFF
:1007A000B83B573C573CC23BC63BCA3BD13B573C8E
:1007B000573CD53B573CD93B573CDD3B573CE13B95
:1007C000E53BEC3BF03B573CF43B573CFB3BFF3BF2
:1007D000573C573C063C573C573C0A3C0E3C183CA7
:1007E0001C3C573C573C203C543C543C273C2B3C45
:1007F000573C2F3C543C543C543C543C543C543C9B
:10080000543C333C373C543C543C543C543C3B3CBF
:10081000423C493C503C543C543C573C5C440B45A6
:1008200075440B458E440B45A7440B45C0440B450E
:10083000D9440B45F2440B464A4614464A461D46E7
:100840004A4626464A462F464A4638464A46414682
:100850006647DD477747DD478847DD479947DD47EE
:10086000AA47DD47BB47DD47CC47A348E248AC4831
:10087000E248B548E248BE48E248C748E248D048A6
:10088000E248D9489049144AA249144AB549144A41
:10089000C849144ADB49144AEE49144A014AC54B77
:1008A000044CCE4B044CD74B044CE04B044CE94B6E
:1008B000044CF24B044CFB4BC44C644DDA4C644D7D
:1008C000F14C644D084D644D1F4D644D364D644DE3
:1008D0004D4DE54E244FEE4E244FF74E244F004F22
:1008E000244F094F244F124F244F1B4FAC506D50D3
:1008F000B5507650BE507F50C7508850D050915060
:10090000D9509A50E250A3507651ED518751ED5194
:100910009851ED51A951ED51BA51ED51CB51ED51D5
:10092000DC51A652E552AF52E552B852E552C152DF
:10093000E552CA52E552D352E552DC528B530F5462
:100940009D530F54B0530F54C3530F54D6530F54E9
:10095000E9530F54FC53FB543A5504553A550D5581
:100960003A5516553A551F553A5528553A55315569
:10097000FE5600570357065709570C570F57635732
:100980007857785778577857665778577857785701
:1009900078577557785778577857785778577857E2
:1009A0007857785778576957785778576C577857EA
:1009B000785778577257785778576F570C94383B59
:1009C0000C9491380C94183C0C9487510C94A61AF2
:1009D0000C94FB4B0C94C0440C9478390C941E3846
:1009E0000C94F1380C9426460C94C63B0C9476512A
:1009F0000C949A500C9478380C944E3B0C948A3892
:100A00000C941F550C944D360C940B460C94635764
:100A10000C9477470C94C4380C94B7380C94743900
:100A20000C94644D0C94073A0C94CA3B0C947F5080
:100A30000C947D1A0C94EC3B0C948A3B0C94253955
:100A40000C946C3B0C94831A0C948D250C945C4490
:100A50000C94BB470C94DA390C941B4F0C941A3845
:100A60000C94033A0C94E5390C947C3B0C947C3840
:100A70000C94493C0C94AF520C94063C0C94D35209
:100A80000C94AC390C94FF390C94E9390C94E9536B
:100A90000C94783A0C9461390C94891A0C94203C8B
:100AA0000C94273C0C94C53A0C94FB3B0C943D36BB
:100AB0000C94CB390C94951A0C94253A0C94A538C7
:100AC0000C9430380C9429390C944B210C94DD385B
:100AD0000C94153B0C94FF3B0C94A3500C942C3AB3
:100AE0000C94CB380C943B3C0C94A1360C94665778
:100AF0000C94FB1B0C94CF380C948B1A0C947857E5
:100B00000C9430390C948B290C9481360C94DD3A7A
:100B10000C94373C0C94DA4C0C9469570C94DD3BE4
:100B20000C9445250C94E3200C941D220C94094F41
:100B30000C9406570C94FB540C94D6530C94D74B3E
:100B40000C9476500C945D380C9471380C94885049
:100B50000C9497390C9475440C943A550C940339C1
:100B60000C9440220C9416550C94BF390C94833885
:100B70000C949A1B0C94A63A0C949E380C94CF3982
:100B80000C94E6210C940E3C0C942B3B0C94FE56DA
:100B90000C94F8380C94F81A0C94E53B0C946647C6
:100BA0000C942B3C0C94BA3A0C9469390C94871E23
:100BB0000C94E53A0C94C8490C949D530C941E393E
:100BC0000C9490490C94A2490C94D01F0C944A3B6D
:100BD0000C941C260C94EE4E0C940B450C9452393C
:100BE0000C9429380C941A3A0C943E390C94921BAC
:100BF0000C948E3B0C94AC480C949B390C94F23AB8
:100C00000C94B0390C94AC500C9404550C94C73926
:100C10000C947D290C94124F0C94163A0C94014AB2
:100C20000C94E2500C94A2390C944B380C94A348C9
:100C30000C94CB510C9422380C943A3A0C94783B97
:100C40000C94A9510C94DC510C94B33A0C94D950E7
:100C50000C94DC520C940F540C94DD470C949E3B86
:100C60000C94FD3A0C94E4380C94C3530C94BB39A7
:100C70000C94BE3A0C9414460C940E3A0C944D4DC0
:100C80000C94C1520C94743B0C94D6390C94903A49
:100C90000C9472570C94F24B0C94C41A0C94623B53
:100CA0000C94083B0C94911A0C94BD1C0C94144A9F
:100CB0000C948F1A0C94084D0C94503C0C94B83B37
:100CC0000C94E04B0C94AD3B0C940D230C949823A6
:100CD0000C94C44C0C9437380C94D63A0C940057AE
:100CE0000C94B5500C94ED510C940A390C94703A54
:100CF0000C9491500C94A23B0C9488390C94994715
:100D00000C94703B0C94044C0C94F1390C94F53910
:100D10000C9437390C9488470C94043B0C94711D47
:100D20000C94E5520C94433B0C94ED390C9437250C
:100D30000C9438460C94B4390C94743A0C943F3BA0
:100D40000C9444380C9470390C947B1A0C94A23A8D
:100D50000C947F3A0C94A9380C94833B0C9464381F
:100D60000C948D1A0C940F570C94D53B0C94F11ED7
:100D70000C94871A0C94EE490C9436200C94203B6A
:100D80000C94C7480C944B390C94E2480C94851A87
:100D90000C94C54B0C94491F0C9403570C94792068
:100DA0000C9411360C94833A0C945C1C0C946C5784
:100DB0000C94931A0C946F570C94F14C0C94F244CD
:100DC0000C94973A0C94CA520C94491B0C946736B5
:100DD0000C94BA510C9441460C9498510C94D93B04
:100DE0000C945B3B0C9477220C941C3C0C94582381
:100DF0000C9491360C944F380C94E94B0C94C339F5
:100E00000C941C3B0C9465390C94573C0C94B13BEE
:100E10000C94AC1A0C94E54E0C94811A0C94B548C1
:100E20000C94543C0C948E440C94F43B0C94A744C6
:100E30000C94D9440C942F460C94BE500C941E3A3A
:100E40000C94F93A0C949B3A0C946E1B0C949039C8
:100E50000C9431550C9406210C94A6520C94E13B51
:100E60000C94D0480C94FC530C94AC200C94C91DE9
:100E70000C940D550C9411250C94333C0C9456385D
:100E80000C94B8520C9403200C94CC470C94A622DA
:100E90000C94C93A0C940A3C0C94191E0C94D05032
:100EA0000C94C7500C941F4D0C94D13B0C945939A1
:100EB0000C9475570C94BE480C94244F0C94CD257B
:100EC0000C94B5490C94B0530C94DE390C94961BD9
:100ED0000C94273B0C94991F0C946D500C94F74E76
:100EE0000C94C3210C94641B0C94373A0C940C574B
:100EF0000C9434230C94123A0C9473280C94423CB6
:100F00000C941E360C94C23B0C948C390C945D39B5
:100F10000C944A460C94CE4B0C942F3C0C94B03855
:100F20000C941D460C94364D0C94AA470C94004F1B
:100F30000C946E6A0C9409570C94FC380C94DB49A1
:100F40000C94881B0C948C210C94F7220C9428553B
:100F50000C94D6380C9411390C947F1A0C94F03BF5
:100F60000C94333A0C948B530C94A63B0C94D948B4
:100F70000C94E13A6364696E6F70737578585B0026
:100F8000BCE5ACC59C85960392C1912190961D034A
:100F9000ED01DCFDCCF5BCE5ACC5A86EBCE5ACC58F
:100FA0009C85960392C1912190961D03ED01DCFD75
:100FB000CCF5BCE5ACC5A86E436F6D6D616E647316
:100FC00020666F7220746865204144524636353180
:100FD00038207661726961626C65206761696E2094
:100FE000616D706C69666965722E00436F6E747214
:100FF0006F6C73207468652066726F6E74656E64C2
:101000002052462073776974636865732E005265B9
:101010006769737465722064756D707320666F7292
:101020002072657370656374697665207065726996
:1010300070686572616C732E0045786563757465C0
:1010400073207465737420766563746F72732E00F9
:10105000436F6E74726F6C732074686520626F6189
:101060007264206C6576656C2066756E6374696F5A
:101070006E732E2053657175656E7469616C2065A1
:10108000786563206F6620617267756D656E747335
:101090002E0053746174757320616E642066756EE2
:1010A0006374696F6E73207573656420666F722058
:1010B000636865636B696E672074686520626F6141
:1010C00072642E20004F4E2F4F464620737769746E
:1010D000636865732C202830206973204F46462CA6
:1010E0002031206973204F4E2900426F6F746C6F5E
:1010F00061646572206F7074696F6E732E0045783D
:101100006974732066726F6D207468697320626FF2
:10111000617264206261636B20746F207468652063
:101120004449474954414C20626F6172642E00501B
:1011300072696E7473206F757420746865206865B9
:101140006C70206D656E7520666F72207468652006
:10115000626F6172642E00B80FEB0F0E10391050E1
:10116000109210C510EA10FE102F115370656369BC
:101170006679207768696368206368616E6E656C64
:1011800020612C622C632C64204F522062697420F1
:101190006D61736B2E204D555354207370656369D8
:1011A00066792066697273742E004E756C6C2074BB
:1011B0006865205647412773206F757470757420D9
:1011C0004443206F6666736574732E203120746FFC
:1011D00020656E61626C652E0042797061737320C8
:1011E000746865205647412773204C502066696C0F
:1011F0007465722E203120746F20656E61626C659B
:101200002E00536574205647412773204C502063AD
:101210006F726E6572206672657120696E204D482E
:101220007A2E005365742056474127732067616901
:101230006E2E202843616C6C7320646761696E2098
:10124000616E6420616761696E292E20496E707538
:10125000743A2030202D20393520282D3630644234
:10126000202D2033356442290047657420564741BC
:101270002773206761696E2E0053656C6563742067
:10128000564741204368616E6E656C2028303A20D5
:10129000426F74682C20493A20312C20513A203278
:1012A0002900436865636B206966205647412067C3
:1012B00061696E20697320746F6F204869676820C8
:1012C000666F7220746865204144432E2028303AAE
:1012D000204E6F2C20313A205965732900536574D4
:1012E000205647412773206469676974616C2067E1
:1012F00061696E2E2033644220696E6372656D658C
:101300006E74732C20496E7075743A2030202D2035
:1013100038202834326442202D2036366442290099
:1013200053657420564741277320616E616C6F6767
:10133000206761696E2E20302E31644220636F6E0B
:1013400074726F6C6C65642C20496E7075743A20F1
:1013500030202D2037323020282D31303264422089
:101360002D202D33306442290053657420564741A7
:10137000277320706F737420616D70206761696ED0
:101380002E20302D313A20332F3964422E00536500
:101390007420564741277320696E70757420616E02
:1013A000616C6F6720617474656E756174696F6ECE
:1013B00020696E2064422E20476F65732074687226
:1013C0006F75676820414435363234522E005365BC
:1013D00074205647412773207077722D6D6F6465B6
:1013E000206261736564206F6E204C5020636F72C1
:1013F0006E657220667265712E20312069662066E6
:10140000696C746572206D6F646520616E64203351
:10141000314D487A203C2042572C20656C73652062
:101420003630204D487A203C204257006B11AA11DB
:10143000D9110212231269127912A212DD1220139D
:1014400069138E13CE1343686F6F736520746865DC
:1014500020686967682028302E352D362047487A65
:1014600029206F72206C6F7720284443202D203074
:101470002E352047487A292062616E642E20486903
:101480006768283129206F72206C6F772830292EE9
:101490000042797061737320746865204C4E41205E
:1014A0006F6E2074686520686967682062616E6489
:1014B0002E20427970617373283129207468652069
:1014C0004C4E41206F72206E6F742830292E0053CD
:1014D0006574732066726571206F6620484D4338CD
:1014E0003333206F75747075742C20696E204B48EF
:1014F0007A2E0053776565707320484D4338333337
:10150000206672657175656E63792066726F6D20F5
:10151000302E3247487A20746F203647487A207739
:1015200069746820612073746570206F66203130A3
:101530004D487A00504C4C20496E707574205265AD
:10154000666572656E6365204672657175656E636A
:1015500079005365747320426173652042616E6443
:10156000205661726163746F7220766F6C7461676C
:10157000652028302D3430393629203056202D2052
:10158000322E35560053656C65637420746865208F
:1015900074617267657420504C4C202830292048B3
:1015A0004D433833302028312920484D43383333D8
:1015B0000053657420504C4C20496E707574204463
:1015C0006976696465722076616C75652E203120BC
:1015D000746F2031363338330053657420504C4CCF
:1015E00020466565646261636B2044697669646561
:1015F000722076616C75652E20313620746F20352F
:1016000032343235350053657420504C4C205643EB
:101610004F204F75747075742044697669646572E3
:101620002076616C75652E20312C20322C20342CD4
:101630002036202E2E20363200456E61626C652FDA
:1016400044697361626C652056434F204F75747016
:101650007574204672657175656E637920446F7587
:10166000626C65720053656C6563747320746865A1
:1016700020636F72726563742046696C74657220B2
:1016800042616E6B20666F72206120676976656EBD
:10169000206672657175656E637920696E206B488E
:1016A0007A004D7574657320746865204C4F204630
:1016B00072657175656E63792053796E74686573B0
:1016C000697A6572207768656E207573656400536A
:1016D000656C65637420504C4C204F757470757444
:1016E00020506F7765722028303A202D3464426D87
:1016F0002C20313A202D3164426D2C20323A203298
:1017000064426D2C20333A203564426D29005365C4
:101710006C656374732044534120417474656E7525
:101720006174696F6E2C2028303A203064426D203D
:101730002D3E203132373A2033312E373564426D19
:101740002900414446343335352F4144463533353D
:1017500035204469726563742052656769737465E6
:101760007220416363657373203C3C323862697454
:1017700020646174613E3C34626974206164647207
:101780006573733E3E006B1146149114CF14F3142D
:10179000341552158515B115D91506163916651665
:1017A000A216CF160E17421744756D707320616C28
:1017B0006C20746865207265676973746572732044
:1017C000666F722074686520414443313644583353
:1017D00037302E0044756D70732074686520726513
:1017E0006769737465727320666F72207468652010
:1017F000726567756C617220616E64205246204785
:1018000050494F580044756D707320616C6C2074A2
:1018100068652072656769737465727320666F729C
:1018200020746865204144524636353138006B11CA
:10183000A817D41705185365742074686520737051
:1018400065636966696564204750494F582070692F
:101850006E20686967682E00436C65617220746849
:101860006520737065636966696564204750494FF8
:10187000582070696E206C6F772E0052756E732041
:101880007370656369666965642074657374207636
:101890006563746F72206F662074686520504341E1
:1018A000393533382E0052756E7320737065636955
:1018B00066696564207465737420766563746F72FD
:1018C000206F6620746865204144433136445833A4
:1018D00037300052756E7320737065636966696591
:1018E00064207465737420766563746F72206F660C
:1018F00020746865204144524636353138006B11FA
:10190000361858187B18A618D31852657772697460
:101910006520616C6C207265677320666F7220654C
:101920006E7469726520626F6172642E0054757204
:101930006E206F6E206F75747075747320287065DB
:1019400072206368616E6E656C292E0052756E732D
:1019500020646961676E6F73746963206F6E2070B5
:1019600065726970686572616C20287065722063A9
:1019700068616E6E656C292E2053686F756C6420EB
:101980007072696E7420616C6C2072656769737423
:101990006572732E005475726E206F6666206F75C7
:1019A00074707574732028706572206368616E6E40
:1019B000656C292E00506F776572206379636C65C2
:1019C000207065726970686572616C7320616E6405
:1019D0002072756E7320626F61726420696E697423
:1019E0002028706572206368616E6E656C292E0018
:1019F0005475726E206F66662070657269706865D6
:101A000072616C732E005475726E73206576657208
:101A1000797468696E67206F66662E005072696E11
:101A20007473206F75742074686520736F667477A3
:101A300061726520616E64206861726477617265AD
:101A40002076657273696F6E2E0050726F766964CE
:101A500065732074686520616D6F756E74206F66A4
:101A60002052414D206C656674202862797465733C
:101A7000292E00546865204144432077696C6C200E
:101A8000656E61626C6520746865205359535245D8
:101A90004620646574656374696F6E206761746560
:101AA00020666F72204A45534420696E69746961EB
:101AB0006C697A6174696F6E2E00546865204144C8
:101AC000432077696C6C206F7574707574204A457B
:101AD00053442054657374205061747465726E733E
:101AE0002E20303A206F66662C20313A2044323165
:101AF0002E352C20323A204B32382E352C20333ADA
:101B00002072707420494C412C20343A2072616D4F
:101B1000702C20353A20484947482E00456E6162B6
:101B20006C696E672074686520535953524546208E
:101B3000646574656374696F6E20676174652E20D7
:101B40003120746F20656E61626C652C20302074CA
:101B50006F2064697361626C65004F757470757491
:101B60007320612031362D62697420726570656161
:101B700074696E672073657175656E6365205B308F
:101B80002C2032363238302C20302C202D32363377
:101B900032385D2066726F6D207468652041444361
:101BA00020636F72652E0050726F766964657320D2
:101BB0007468652074656D706572617475726520F6
:101BC00028302D31292E00426C696E6B73207468A9
:101BD00065204C45442061207370656369666965C2
:101BE00064206E756D626572206F662074696D6524
:101BF000732E0053656C6563747320474C45206DEC
:101C00006F64653A204D43555F474C452831292084
:101C10006F7220465047415F474C452028322900CB
:101C20006B110A192D194C199519B519F019061AC5
:101C30001C1A4A1A731ABA1A1C1B5A1BA71BC71B59
:101C4000F31B436F6D6D616E6420666F722070725E
:101C5000696E74696E672074686520637572726559
:101C60006E74206865617274626561742076616C5F
:101C70007565206F662074686520525820626F6118
:101C8000726400436F6D6D616E6420666F722072C6
:101C90006573657474696E67207468652068656132
:101CA0007274626561742076616C756520666F720E
:101CB0002074686520525820626F61726400486524
:101CC0006172746265617420696E7469616C697AAD
:101CD0006174696F6E2066756E6374696F6E2074CF
:101CE0006F2073657420636F756E74657220746FF6
:101CF000203000421C831CBE1C484D433833784CB6
:101D0000503647004144524636353138004144434D
:101D100031364458333730006B11F91C041D0D1D4A
:101D20004E6F20617267756D656E74206E656365B8
:101D300073736172792E00201D456E746572207474
:101D4000686520626F6F746C6F616465722E003914
:101D50001D5072696E7473206F757420696E2076E1
:101D60006572626F7365206D6F64652E203120741B
:101D70006F20656E61626C652E00511D436F6D6D45
:101D8000616E647320666F722074686520444143FD
:101D900033384A38342E00436F6E74726F6C732080
:101DA0007468652066726F6E74656E64205246209A
:101DB00073776974636865732E005265676973741D
:101DC00065722064756D707320666F722072657322
:101DD0007065637469766520706572697068657294
:101DE000616C732E0050726F76696465732074683D
:101DF0006520737461747573206F66207468652044
:101E0000626F6172642E00436F6E74726F6C732028
:101E100074686520626F617264206C6576656C2001
:101E200066756E6374696F6E732E20536571756588
:101E30006E7469616C2065786563206F66206172DD
:101E400067756D656E74732E004F4E2F4F4646209A
:101E500073776974636865732C2028302069732058
:101E60004F46462C2031206973204F4E2900426F87
:101E70006F746C6F61646572206F7074696F6E73DC
:101E80002E0045786974732066726F6D20746869DE
:101E90007320626F617264206261636B20746F20D3
:101EA000746865204449474954414C20626F61720F
:101EB000642E005072696E7473206F75742074689C
:101EC000652068656C70206D656E7520666F722088
:101ED00074686520626F6172642E007C1D971DBA64
:101EE0001DE51D071E491E6E1E821EB31E53706522
:101EF00063696679207768696368206368616E6EDC
:101F0000656C20612C622C632C642C204F52206263
:101F10006974206D61736B2E204D5553542073707E
:101F200065636966792066697273742E0053706503
:101F30006369667920776869636820696E74657281
:101F40006E616C20444143206368616E6E656C3A3B
:101F50002028302D332920412D442E005365742034
:101F60007468652066726571206F75747075742071
:101F70006F662065787465726E616C204441432001
:101F8000636C6B20616674657220696E7465726E35
:101F9000616C20434C4B206369726375697420281F
:101FA0004D487A292E0053657420746865204E438D
:101FB0004F2075707065722033322D626974732002
:101FC00072656769737465722E0053657420746856
:101FD00065204E434F206C6F7765722033322D623F
:101FE0006974732072656769737465722C207772E7
:101FF00069746520746F2075707065722033322D9E
:102000006269747320666972737421212A2A0053ED
:1020100065742074686520284C29206C616E657396
:1020200020706572206C696E6B2E0053657420748D
:10203000686520284D2920636F6E7665727465721D
:102040007320706572206C696E6B2E00536574206E
:1020500074686520284629206672616D657320705A
:102060006572206D756C74692D6672616D652E00E8
:102070005365742074686520636D6420696E7075A3
:10208000742066726F6D204A455344283029206FB2
:1020900072205350492831292E00456E61626C65CB
:1020A00020746865206D697865722E203120746F08
:1020B00020656E61626C652E00456E61626C652004
:1020C0007468652050412028706F77657220616DBB
:1020D000706C6966696572292070726F74656374CB
:1020E000696F6E20636972637569742E2031207484
:1020F0006F20656E61626C652E0053657420746894
:102100006520696E746572706F6C6174696F6E20A2
:1021100031782830292C2032782831292C20347825
:102120002832292C203878283429206F7220313623
:10213000782838292E0045786563757465207468A1
:10214000652073657264657320746573742E20282E
:10215000302D352920746573742070617474657234
:102160006E2E0047657473207468652074656D7009
:1021700065726174757265206F66207468652044AD
:1021800041432E0044756D70206F757420616C6C36
:10219000206F662074686520726567697374657264
:1021A000732E00496E697469616C697A6573206188
:1021B0006E6420636F6E66696775726573207468FC
:1021C00065204A455344206C696E6B2E0042697449
:1021D0002062616E672061646472657373206F664C
:1021E000204441432E004269742062616E6720647E
:1021F000617461206F66204441432E00426974205F
:1022000062616E67206F7065726174696F6E2E20F7
:10221000313A20777269746520303A2072656164C2
:1022200000514D43204443206F66667365742C2033
:102230003133626974732C206D65617375726564E6
:1022400020696E20444143204C5342277300514D76
:1022500043206761696E206F66667365742C203158
:1022600031626974732C20646563696D616C2070E0
:102270006E742040206C656674206F6620626974FD
:10228000392C2072616E67652030202D20312E3967
:102290003939302C204C53423D302E3030303937D4
:1022A000363600514D43207068617365206F666655
:1022B0007365742C203132626974732C202D302E9A
:1022C00035202D20302E34393937352C2072656673
:1022D000657220746F206461746173686565740051
:1022E0004C61726765204672616374696F6E616CE0
:1022F0002044656C61792053657474696E6773005E
:10230000536D616C6C204672616374696F6E616CB1
:102310002044656C61792053657474696E6773003D
:10232000536D616C6C204672616374696F6E616C91
:102330002044656C61792050617468205365747421
:10234000696E677300456E61626C652F44697361E5
:10235000626C6520496E76657273652053696E63A1
:102360002046696C74657200456E61626C652F442D
:10237000697361626C6520446974686572696E672F
:1023800000456E61626C652F44697361626C652003
:10239000446974686572204D69786572005365748C
:1023A000207468652044697468657220416D706CA2
:1023B00069747564652C2030206973204D617869DB
:1023C0006D756D202834206269747329004C617228
:1023D0006765204672616374696F6E616C20446545
:1023E0006C61792C20436F656666696369656E74FC
:1023F000205365742073656C656374696F6E2E205D
:1024000028496E20446174617368656574290053BE
:102410006D616C6C204672616374696F6E616C20D3
:1024200044656C6179205461702073656C656374D8
:102430006F7200536574207468652073656C656302
:10244000746564205461702076616C756520666FD8
:10245000722074686520536D616C6C2046726163F4
:1024600074696F6E616C2044656C617900ED1E2D9E
:102470001FA61FCA1F9A2063218421A32121224E57
:1024800022A322E022002320234523682381239DC9
:1024900023CD230F24332443686F6F736520746842
:1024A0006520686967682028302E352D362047481A
:1024B0007A29206F72206C6F7720284443202D20CA
:1024C000302E352047487A292062616E642E2048DC
:1024D000696768283129206F72206C6F772830294E
:1024E0002E0042797061737320746865204C4E41F0
:1024F000206F6E2074686520686967682062616E6D
:10250000642E2042797061737328312920746865C4
:10251000204C4E41206F72206E6F742830292E009F
:10252000536574732066726571206F6620484D4351
:10253000383333206F75747075742C20696E204B9E
:10254000487A2E00536574207468652052465341C2
:1025500020617474656E74756174696F6E2E2030BD
:1025600020746F203238202830644220746F202D70
:1025700032386442292E00504C4C205265666572F8
:10258000656E636520496E7075742028696E206BD6
:10259000487A290053657420746865204951204D9C
:1025A0006F64756C61746F72204920626961732079
:1025B000766F6C746167652028696E2064562C20E4
:1025C00066726F6D20302D3234206456292E0053F0
:1025D000657420746865204951204D6F64756C6185
:1025E000746F722051206269617320766F6C746120
:1025F00067652028696E2064562C2066726F6D20F6
:10260000302D3234206456292E004E6565647320C7
:10261000746F2062652063616C6C6564206C61730B
:10262000742E205365747320746865204951204DC1
:102630006F64756C61746F722E202869652E202D71
:1026400069203137202D71203133202D6D29005321
:10265000656C656374207468652074617267657465
:1026600020504C4C2028302920484D43383330200E
:1026700028312920484D43383333005365742050A6
:102680004C4C20496E70757420446976696465729B
:102690002076616C75652E203120746F20313633C1
:1026A00038330053657420504C4C20466565646295
:1026B00061636B20446976696465722076616C752C
:1026C000652E20313620746F203532343235350096
:1026D00053657420504C4C2056434F204F757470F6
:1026E000757420446976696465722076616C7565DD
:1026F0002E20312C20322C20342C2036202E2E203F
:10270000363200456E61626C652F44697361626C9C
:10271000652056434F204F7574707574204672655E
:102720007175656E637920446F75626C6572004DDA
:102730007574657320746865204C4F20467265710E
:1027400075656E63792053796E74686573697A650F
:1027500072207768656E20757365640053656C65DB
:102760006374732074686520636F7272656374208C
:1027700046696C7465722042616E6B20666F7220D0
:102780006120676976656E206672657175656E6336
:102790007920696E206B487A00504C4C204F75743C
:1027A00070757420506F7765722028303A202D3470
:1027B00064426D2C20313A202D3164426D2C203240
:1027C0003A202B3264426D2C20333A202B35644260
:1027D0006D2900524620417474656E7561746F7284
:1027E0002053657474696E672028303A2030644243
:1027F000202D3E203132373A202D33312E373564AB
:10280000422900414446343335352F41444635335F
:102810003535204469726563742052656769737445
:10282000657220416363657373203C3C3238626992
:102830007420646174613E3C346269742061646434
:10284000726573733E3E00ED1E9724E224202577C7
:10285000259425CF250A264F267B26A326D026039E
:10286000272F275C279927D327032844756D70737A
:102870002074686520726567697374657273206679
:102880006F722074686520726567756C6172206173
:102890006E64205246204750494F580044756D7071
:1028A000732074686520726567697374657273203C
:1028B000666F72207468652044414333384A383467
:1028C00000ED1E6B289C28436F6D6D616E64206661
:1028D0006F72207468652063757272656E7420680B
:1028E00065617274626561742076616C7565206FD4
:1028F000662074686520545820626F6172640043DA
:102900006F6D6D616E6420666F72207265736574A1
:1029100074696E67207468652063757272656E7481
:10292000206865617274626561742076616C75659A
:10293000206F6620545820626F61726400486561A0
:1029400072746265617420696E697469616C697A18
:102950006174696F6E2066756E6374696F6E207442
:102960006F2073657420636F756E74657220746F69
:10297000203000ED1EC728FF283D29526577726977
:10298000746520616C6C207265677320666F7220BD
:10299000656E7469726520626F6172642E00547591
:1029A000726E206F6E206F7574707574732028704E
:1029B0006572206368616E6E656C292E0052756EBB
:1029C0007320646961676E6F73746963206F6E2032
:1029D0007065726970686572616C2028706572201C
:1029E0006368616E6E656C292E2053686F756C6428
:1029F000207072696E7420616C6C207265676973F7
:102A0000746572732E005475726E206F6666206F47
:102A10007574707574732028706572206368616EB8
:102A20006E656C292E00506F776572206379636C38
:102A300065207065726970686572616C7320616E83
:102A4000642072756E7320626F61726420696E69B2
:102A5000742028706572206368616E6E656C292E23
:102A6000005475726E206F666620706572697068BA
:102A70006572616C732E005475726E732065766595
:102A800072797468696E67206F66662E005072698D
:102A90006E7473206F75742074686520736F66742C
:102AA0007761726520616E6420686172647761721B
:102AB000652076657273696F6E2E00426C696E6B6D
:102AC0007320746865204C454420612073706563F1
:102AD0006966696564206E756D626572206F662037
:102AE00074696D65732E0050726F7669646573202A
:102AF00074686520616D6F756E74206F6620524139
:102B00004D206C65667420286279746573292E00E7
:102B100050726F7669646573207468652074656DA2
:102B200070657261747572652028302D31292E0010
:102B30004F757470757420656E61626C65283129FB
:102B4000206F722064697361626C652830292E00E1
:102B5000456E61626C6573204A4553442053595356
:102B600052454620476174650053656C6563742067
:102B7000474C45206D6F64653A204D43555F474C87
:102B80004528312920465047415F474C4528322986
:102B900000ED1E7B299E29BD29062A262A612A7757
:102BA0002A8D2ABB2A102BE72A302B502B692B4465
:102BB000414333384A383400484D433833784C5019
:102BC00036470041445246363531382048696768F7
:102BD0002062616E64004144524636353138204CE3
:102BE0006F772042616E6400ED1EAF2BB82B456EEF
:102BF0007465722074686520626F6F746C6F6164B5
:102C000065722E00EE2B4E6F20617267756D656EDA
:102C100074206E65636573736172792E00062C50A3
:102C200072696E7473206F757420696E2076657298
:102C3000626F7365206D6F64652E203120746F2084
:102C4000656E61626C652E001F2C436F6D6D616E49
:102C5000647320666F72206D616E6167696E6720B4
:102C600074686520434C4B2067656E6572617469BA
:102C70006F6E207468726F756768204C4D4B3034EE
:102C80003832382C20414435363234522C20484DCD
:102C9000433938372E00436F6D6D616E6473206663
:102CA0006F72206D616E6167696E67207468652060
:102CB000434C4B2067656E65726174696F6E20745A
:102CC00068726F756768204C4D4B30343832382C41
:102CD00020414435363234522C20484D4339383760
:102CE0002E00436F6D6D616E647320666F7220738A
:102CF000657474696E6720746865204C4D4B303480
:102D00003832382064656C617920636C6F636B7353
:102D10002E00436F6D6D616E647320666F72207359
:102D2000657474696E6720746865204C4D4B30344F
:102D30003832382064656C617920636C6F636B7323
:102D40002E00436F6D6D616E647320666F72207329
:102D5000657474696E67204A4553442F504C4C206B
:102D60004E2F5220646976696465727300436F6DFB
:102D70006D616E647320666F722073657474696E22
:102D80006720484D433938382067726F757020646A
:102D9000656C6179732E005265616420616E6420F8
:102DA000777269746520636F6D6D616E6473206600
:102DB0006F7220646562756767696E672E00436F86
:102DC0006E74726F6C732074686520626F617264D8
:102DD000206C6576656C2066756E6374696F6E73C2
:102DE0002E2053657175656E7469616C2065786518
:102DF00063206F6620617267756D656E74732E0057
:102E0000436F6D6D616E647320666F7220616363E2
:102E1000657373696E672074686520686561727494
:102E20006265617420737461747573004F4E2F4F27
:102E300046462073776974636865732C20283020B8
:102E40006973204F46462C2031206973204F4E294C
:102E500000426F6F746C6F61646572206F7074698B
:102E60006F6E732E0045786974732066726F6D20E3
:102E70007468697320626F617264206261636B20A1
:102E8000746F20746865204449474954414C20625E
:102E90006F6172642E005072696E7473206F757466
:102EA000207468652068656C70206D656E7520669D
:102EB0006F722074686520626F6172642E004A2C04
:102EC000962CE22C122D422D6D2D972DBE2D002E0D
:102ED0002C2E512E652E962E456E61626C652065F6
:102EE00078742D31304D487A207265666572656E52
:102EF0006365202831292E00497373756520535965
:102F0000535245462070756C7365732066726F6D01
:102F1000204A4553442E005365742074686520444C
:102F2000414320636F6E74726F6C6C696E672058DA
:102F30004F20567265662C20302D3430393620668D
:102F400072616374696F6E205665787400436861BE
:102F50006E676520696E7465726E616C207265665D
:102F60006572656E636520444143206F75747075AA
:102F70007420766F6C746167650052652D73796398
:102F800068726F6E697A65206F75747075742064ED
:102F9000697669646572732066726F6D20626F7402
:102FA00068204C4D4B7300D82EF82E172FF82E7A30
:102FB0002F53656C656374204A455344206F72201B
:102FC000504C4C2E0053656C6563742064657669C3
:102FD000636520636C6F636B2E00536574206469B6
:102FE000676974616C2064656C617920636C6F63E0
:102FF0006B2E00B12FC52FDA2FB12FC52FDA2F532B
:10300000656C656374206469766964657220746FA9
:10301000207365742E0053657420522064697669AC
:1030200064657220666F7220504C4C2E005365749C
:10303000204E206469766964657220666F72205044
:103040004C4C2E005365742063616C6C6962726134
:1030500074696F6E204E20646976696465722E0013
:10306000536574207072657363616C617220666F62
:10307000722063616C6C6962726174696F6E2E009C
:1030800053657420636C6F636B2064697669646553
:10309000722E00B12FFF2F16302D30803053656C0B
:1030A00065637473206265747765656E2074686506
:1030B0002074776F20484D4339383820646576692D
:1030C00063657320287265666572656E636520614D
:1030D0006E64206C6D6B292E004765742F736574C8
:1030E000207468652053594E432064656C617920D3
:1030F000646976696465722E00536574206569742D
:103100006865722053594E43206F7220534C4950CA
:10311000207573696E672053504920636F6D6D751C
:103120006E69636174696F6E2E004765742F7365F5
:103130007420746865206F7574707574206C617587
:103140006E63682070686173652E004765742F7325
:1031500065742064656C6179206C696E65207365A7
:1031600074706F696E742E009D30D930F9302A3139
:103170004B315265616420616E64207772697465B9
:1031800020636F6D6D616E647320666F722064657D
:1031900062756767696E672E00B12F72315265776D
:1031A0007269746520616C6C207265677320666F4C
:1031B0007220656E7469726520626F6172642E00A0
:1031C0005475726E206F6E206F75747075747320F5
:1031D00028706572206368616E6E656C292E0052DE
:1031E000756E7320646961676E6F73746963206FB5
:1031F0006E207065726970686572616C20287065F8
:1032000072206368616E6E656C292E2053686F753D
:103210006C64207072696E7420616C6C20726567DA
:103220006973746572732E005475726E206F6666D2
:10323000206F7574707574732028706572206368D0
:10324000616E6E656C292E00506F77657220637910
:10325000636C65207065726970686572616C73205B
:10326000616E642072756E7320626F617264206992
:103270006E69742028706572206368616E6E656C7B
:10328000292E005475726E206F6666207065726913
:1032900070686572616C732E005475726E73206570
:1032A000766572797468696E67206F66662E005065
:1032B00072696E7473206F75742074686520736F03
:1032C00066747761726520616E64206861726477EC
:1032D0006172652076657273696F6E2E00426C694B
:1032E0006E6B7320746865204C45442061207370B8
:1032F00065636966696564206E756D626572206FCD
:10330000662074696D65732E0050726F766964650E
:1033100073207468652074656D7065726174757270
:10332000652028302D31292E0050726F7669646532
:10333000732074686520616D6F756E74206F6620F0
:1033400052414D206C65667420286279746573293A
:103350002E0053656C6563747320474C45206D6F78
:1033600064653A204D43555F474C45283129206F0D
:10337000722053594E54485F465047415F474C4571
:1033800020283229009D31C031DF31483283329903
:1033900032AF32DD320933293352334865617274FA
:1033A000626561742066756E6374696F6E20746FF8
:1033B00020616E642066726F6D207468652073658D
:1033C0007276657200486561727462656174206628
:1033D000756E6374696F6E20746F207265736574A7
:1033E0002074686520686561727462656174206329
:1033F0006F756E74657200486561727462656174A0
:1034000020696E697469616C697A6174696F6E2094
:1034100066756E6374696F6E20746F2073657420B7
:10342000636F756E74657220746F2030009B33C5B6
:1034300033F7334C4D4B303430323800484D43393C
:1034400038370033343C344E6F20617267756D65D8
:103450006E74206E65636573736172792E004734F4
:10346000456E7465722074686520626F6F746C6F4E
:10347000616465722E0060345072696E7473206FDF
:10348000757420696E20766572626F7365206D6F4A
:1034900064652E203120746F20656E61626C652E2C
:1034A0000078340011241FBECFEFCDBFDFE3DEBFB5
:1034B00000E00CBF15E3A0E0B0E2EEE7F3E501E0C9
:1034C0000BBF02C007900D92A434B107D9F71DE3DA
:1034D000A4E4B5E301C01D92A03CB107E1F70E944E
:1034E000FA9F0C94BDA90C940000615071098109E8
:1034F0009109D9F7089580E0089580E0089580E06B
:10350000089580E0089580E0089580E0089580E0C7
:10351000089580E0089580E0089580E0089580E0B7
:10352000089580E0089580E0089580919F20909113
:10353000A0202091573530915835821B930B01966E
:10354000809357359093583580E008951092573501
:103550001092583580E00895EFE6F1E281A18F9353
:1035600080A18F93878D8F93868D8F938EE79BE2BB
:103570009F938F930E946DA30F900F900F900F90C9
:103580000F900F9080E00895CF93DF9300D01F92AB
:10359000CDB7DEB7CE010196AA2797FDA095BA2F29
:1035A0004091B63D5091B73D4115510511F440ECA5
:1035B0005DE3662757FD6095762F841B950BA60B60
:1035C000B70BBF93AF939F938F938CE89BE29F932E
:1035D0008F930E946DA30F900F900F900F900F90FC
:1035E0000F9080E02496CDBFDEBFDF91CF9108958C
:1035F0008091B7241F928F9381EA9BE29F938F93D0
:103600000E946DA38091B6241F928F938BEB9BE257
:103610009F938F930E946DA380916B2190916C2159
:10362000A0916D21B0916E212DB73EB7285F3F4F1D
:103630002DBF3EBF81309105A105B10531F481E078
:103640008093B7248093B62409C00297A105B105E1
:1036500029F483E08093B7248093B6248091B72423
:103660001F928F9385ED9BE29F938F930E946DA392
:103670008091B6241F928F938BEE9BE29F938F9342
:103680000E946DA38DB79EB708968DBF9EBF80E048
:103690000895809158358F93809157358F938AE79D
:1036A0009CE29F938F930E946DA3809157359091D8
:1036B0005835019680935735909358350F900F9059
:1036C0000F900F9080E00895682F80919E24909134
:1036D0009F240E94A57280E090E00895CF9388E82F
:1036E0009DE30E94903DC82F65E176E185E090E082
:1036F0000E94751A84EB9DE30E94A23EC80F65E10B
:1037000076E185E090E00E94751A8C2FCF910895A4
:1037100088E89DE30E94013E81E09CE20E9487A32D
:1037200080E0089588E89DE30C94013E84EB9DE3DE
:103730000C94013ECF934091CF235091D0236091C0
:10374000D1237091D2238091AD239091AE23A0918B
:10375000AF23B091B0234115510561057105D9F42E
:1037600081309105A105B10531F488E89DE30E94FF
:10377000C33FC82F35C00297A105B10531F484EBD2
:103780009DE30E94C33FC82F2BC083E19CE20E94AF
:1037900087A381E02EC081309105A105B10531F4E8
:1037A00088E89DE30E947A3FC82F1AC082309105B5
:1037B000A105B10531F484EB9DE30E947A3FC82F47
:1037C0000FC00397A105B10501F783E08093BD24E5
:1037D00088E89DE30E947A3FC82F81E08093BD2452
:1037E000CC2331F086E39CE20E9487A38C2F01C09A
:1037F00080E0CF910895CF934091E0235091E12351
:103800006091E2237091E3238091AD239091AE23E8
:10381000A091AF23B091B023411551056105710509
:10382000D9F481309105A105B10531F488E89DE313
:103830000E945740C82F35C00297A105B10531F449
:1038400084EB9DE30E945740C82F2BC083E19CE28C
:103850000E9487A381E02EC081309105A105B105AA
:1038600031F488E89DE30E940E40C82F1AC08230D0
:103870009105A105B10531F484EB9DE30E940E4052
:10388000C82F0FC00397A105B10501F783E080930E
:10389000BD2488E89DE30E940E40C82F81E08093FC
:1038A000BD24CC2331F086E39CE20E9487A38C2FB9
:1038B00001C080E0CF910895CF934091F1235091C2
:1038C000F2236091F3237091F4238091AD239091C2
:1038D000AE23A091AF23B091B023411551056105EE
:1038E0007105D9F481309105A105B10531F488E85D
:1038F0009DE30E940141C82F35C00297A105B10583
:1039000031F484EB9DE30E940141C82F2BC083E179
:103910009CE20E9487A381E02EC081309105A10521
:10392000B10531F488E89DE30E94B840C82F1AC061
:1039300082309105A105B10531F484EB9DE30E942D
:10394000B840C82F0FC00397A105B10501F783E068
:103950008093BD2488E89DE30E94B840C82F81E091
:103960008093BD24CC2331F084E59CE20E9487A3A0
:103970008C2F01C080E0CF9108951F93CF93DF93E8
:103980001F92CDB7DEB7409102245091032460917D
:103990000424709105248091AD239091AE23A091D1
:1039A000AF23B091B023452B462B472BF9F4813040
:1039B0009105A105B10531F488E89DE30E94064315
:1039C000182F81C00297A105B10551F484EB9DE346
:1039D0000E940643182F77C00397A105B105B1F1E6
:1039E00083E19CE20E9487A381E076C0813091054B
:1039F000A105B10599F488E89DE30E944F414091EB
:103A00000224509103246091042470910524282FEE
:103A100088E89DE30E947241182F55C082309105BD
:103A2000A105B105C9F688E89DE30E944F41409188
:103A30000224509103246091042470910524282FBE
:103A400084EB9DE30E947241182F3DC083E0809378
:103A5000BD2488E89DE30E944F41282F1F928F9339
:103A600082E79CE29F938F9329830E946DA384EB4E
:103A70009DE30E944F41182F1F928F938EE79CE287
:103A80009F938F930E946DA3CDBFDEBF2981211725
:103A900051F08AE89CE29F938F930E946DA30F9050
:103AA0000F9083E019C0409102245091032460914B
:103AB00004247091052488E89DE30E947241182F28
:103AC00081E08093BD24112331F084E59CE20E94C3
:103AD00087A3812F01C080E00F90DF91CF911F91CC
:103AE0000895CF934091132450911424609115248C
:103AF000709116248091AD239091AE23A091AF23B5
:103B0000B091B0234115510561057105F9F481307B
:103B10009105A105B10541F46091BE2388E89DE3BC
:103B20000E94CF45C82F2AC00297A105B10541F4D4
:103B30006091BE2384EB9DE30E94CF45C82F1EC039
:103B400083E19CE20E9487A381E021C0813091053E
:103B5000A105B10541F42091BE2388E89DE30E94B0
:103B60001444C82F0BC00297A105B10549F7209155
:103B7000BE2384EB9DE30E941444C82FCC2331F074
:103B800087EA9CE20E9487A38C2F01C080E0CF913E
:103B90000895CF93409124245091252460912624A8
:103BA000709127248091AD239091AE23A091AF23F3
:103BB000B091B0234115510561057105D9F48130EB
:103BC0009105A105B10531F488E89DE30E94BD4649
:103BD000C82F24C00297A105B10531F484EB9DE301
:103BE0000E94BD46C82F1AC083E19CE20E9487A3B1
:103BF00081E01DC081309105A105B10531F488E84F
:103C00009DE30E947346C82F09C00297A105B10524
:103C100059F784EB9DE30E947346C82FCC2331F003
:103C200089EC9CE20E9487A38C2F01C080E0CF9199
:103C300008950F93CF930091142360913623409100
:103C4000472320918B238091252390912623A091B7
:103C50002723B09128230097A105B10529F580916C
:103C6000032390910423A0910523B0910623813072
:103C70009105A105B10539F4602F88E89DE30E9404
:103C8000894BC82F38C00297A105B10539F4602FC0
:103C900084EB9DE30E94894BC82F2DC083E19CE2F9
:103CA0000E9487A381E030C00197A105B105E9F426
:103CB0008091032390910423A0910523B0910623C2
:103CC00081309105A105B10531F488E89DE30E949A
:103CD0001249C82F10C00297A105B105F9F684EB6F
:103CE0009DE30E941249C82F06C082EF9CE20E9409
:103CF00087A3C1E002C0CC2331F089E29DE20E949B
:103D000087A38C2F01C080E0CF910F910895CF93AE
:103D100020911423609136234091472380919C2366
:103D200090919D23A0919E23B0919F230097A10580
:103D3000B10529F58091032390910423A0910523D7
:103D4000B091062381309105A105B10539F4622FA8
:103D500088E89DE30E94A94EC82F38C00297A105AC
:103D6000B10539F4622F84EB9DE30E94A94EC82F60
:103D70002DC083E19CE20E9487A381E030C00197BF
:103D8000A105B105E9F48091032390910423A0914A
:103D90000523B091062381309105A105B10531F4C9
:103DA00088E89DE30E94464CC82F10C00297A105E9
:103DB000B105F9F684EB9DE30E94464CC82F06C07E
:103DC00082EF9CE20E9487A3C1E002C0CC2331F0C5
:103DD00089E29DE20E9487A38C2F01C080E0CF91F1
:103DE0000895CF93409158235091592360915A23BD
:103DF00070915B238091032390910423A09105236C
:103E0000B09106234115510561057105F9F4813022
:103E10009105A105B10541F46091142388E89DE363
:103E20000E946748C82F2AC00297A105B10541F436
:103E30006091142384EB9DE30E946748C82F1EC045
:103E400083E19CE20E9487A381E021C0813091053B
:103E5000A105B10541F42091142388E89DE30E9457
:103E60000B47C82F0BC00297A105B10549F7209158
:103E7000142384EB9DE30E940B47C82FCC2331F021
:103E800089E29DE20E9487A38C2F01C080E0CF9140
:103E90000895CF934091692350916A2360916B23D9
:103EA00070916C238091032390910423A0910523AA
:103EB000B09106234115510561057105D9F4813092
:103EC0009105A105B10531F488E89DE30E94CC4F2E
:103ED000C82F24C00297A105B10531F484EB9DE3FE
:103EE0000E94CC4FC82F1AC083E19CE20E9487A396
:103EF00081E01DC081309105A105B10531F488E84C
:103F00009DE30E94664FC82F09C00297A105B10525
:103F100059F784EB9DE30E94664FC82FCC2331F004
:103F20008DE49DE20E9487A38C2F01C080E0CF9199
:103F30000895CF938091032390910423A0910523AA
:103F4000B091062381309105A105B10551F440914E
:103F5000142360917A2388E89DE30E943450C82F8F
:103F600014C00297A105B10551F44091142360914A
:103F70007A2384EB9DE30E943450C82F06C083E16E
:103F80009CE20E9487A381E009C0CC2331F08DE43C
:103F90009DE20E9487A38C2F01C080E0CF910895FD
:103FA000CF934091AE226091BF2280919D2290914B
:103FB0009E22A0919F22B091A02281309105A1055F
:103FC000B10531F488E89DE30E940E53C82F10C05C
:103FD0000297A105B10531F484EB9DE30E940E53D5
:103FE000C82F06C083E19CE20E9487A381E009C03C
:103FF000CC2331F088E79DE20E9487A38C2F01C07B
:1040000080E0CF910895CF9380919D2290919E2240
:10401000A0919F22B091A02281309105A105B10508
:1040200041F46091AE2288E89DE30E94BF54C82FFE
:1040300012C00297A105B10541F46091AE2284EB54
:104040009DE30E94BF54C82F06C083E19CE20E94FA
:1040500087A381E009C0CC2331F089E29DE20E9470
:1040600087A38C2F01C080E0CF910895CF938091DA
:104070009D2290919E22A0919F22B091A0228130FA
:104080009105A105B10581F44091E1225091E22210
:104090006091E3227091E4222091AE2288E89DE3B2
:1040A0000E943251C82F1AC00297A105B10581F4B0
:1040B0004091E1225091E2226091E3227091E4224A
:1040C0002091AE2284EB9DE30E943251C82F06C09E
:1040D00083E19CE20E9487A381E009C0CC2331F0F8
:1040E00088E79DE20E9487A38C2F01C080E0CF91DA
:1040F0000895CF9380919D2290919E22A0919F221E
:10410000B091A02281309105A105B10541F46091E3
:10411000AE2288E89DE30E946A52C82F12C002971F
:10412000A105B10541F46091AE2284EB9DE30E94AC
:104130006A52C82F06C083E19CE20E9487A381E0F7
:1041400009C0CC2331F08BE99DE20E9487A38C2F1C
:1041500001C080E0CF910895CF9380919E219091EE
:104160009F21A091A021B091A12181309105A105AD
:10417000B10551F46091AF217091B02184E79DE3C6
:104180000E949D33C82F14C00297A105B10551F4B8
:104190006091AF217091B02189E69DE30E949D332B
:1041A000C82F06C08FEB9DE20E9487A381E009C063
:1041B000CC2331F083EF9DE20E9487A38C2F01C0B6
:1041C00080E0CF91089580919E2190919F21A091B0
:1041D000A021B091A12181309105A105B10531F453
:1041E00084E79DE30E94D23380E008950297A10501
:1041F000B10531F489E69DE30E94D23380E0089551
:104200008FEB9DE20E9487A381E00895CF93809178
:10421000D1219091D221A091D321B091D421892B89
:104220008A2B8B2B51F083E19EE29F938F930E9408
:104230006DA30F900F9081E02CC080919E219091F2
:104240009F21A091A021B091A12181309105A105CC
:10425000B10531F484E79DE30E94EA34C82F10C011
:104260000297A105B10531F489E69DE30E94EA3485
:10427000C82F06C08FEB9DE20E9487A381E009C092
:10428000CC2331F081E39EE20E9487A38C2F01C0F2
:1042900080E0CF910895CF938091E2219091E32126
:1042A000A091E421B091E521892B8A2B8B2B31F051
:1042B00083E19EE20E9487A381E02CC080919E2131
:1042C00090919F21A091A021B091A12181309105D1
:1042D000A105B10531F484E79DE30E942435C82F80
:1042E00010C00297A105B10531F489E69DE30E9453
:1042F0002435C82F06C08FEB9DE20E9487A381E082
:1043000009C0CC2331F08FE49EE20E9487A38C2F5A
:1043100001C080E0CF910895CF9380919E2190912C
:104320009F21A091A021B091A12181309105A105EB
:10433000B10551F46091F3217091F42184E79DE37C
:104340000E940034C82F14C00297A105B10551F492
:104350006091F3217091F42189E69DE30E9400347D
:10436000C82F06C08FEB9DE20E9487A381E009C0A1
:10437000CC2331F08DE69EE20E9487A38C2F01C0F2
:1043800080E0CF91089580919E2190919F21A091EE
:10439000A021B091A12181309105A105B10531F491
:1043A00084E79DE30E94353480E008950297A105DB
:1043B000B10531F489E69DE30E94353480E008952B
:1043C0008FEB9DE20E9487A381E00895CF938091B7
:1043D0009E2190919F21A091A021B091A121813097
:1043E0009105A105B10551F4609115227091162235
:1043F00084E79DE30E946334C82F14C00297A1058F
:10440000B10551F4609115227091162289E69DE361
:104410000E946334C82F06C08FEB9DE20E9487A3E1
:1044200081E009C0CC2331F08FE89EE20E9487A38F
:104430008C2F01C080E0CF91089580919E219091B2
:104440009F21A091A021B091A12181309105A105CA
:10445000B10531F484E79DE30E94BC3480E0089507
:104460000297A105B10531F489E69DE30E94BC34B1
:1044700080E008958FEB9DE20E9487A381E008957C
:10448000CF9380919E2190919F21A091A021B091E6
:10449000A12181309105A105B10551F46091372228
:1044A0007091382284E79DE30E946C35C82F14C0B8
:1044B0000297A105B10551F460913722709138221D
:1044C00089E69DE30E946C35C82F06C08FEB9DE204
:1044D0000E9487A381E009C0CC2331F08FE49EE2E3
:1044E0000E9487A38C2F01C080E0CF910895CF93C5
:1044F00080919E2190919F21A091A021B091A12116
:1045000081309105A105B10531F484E79DE30E9456
:10451000AF35C82F10C00297A105B10531F489E667
:104520009DE30E94AF35C82F06C08FEB9DE20E942D
:1045300087A381E009C0CC2331F08FE49EE20E9482
:1045400087A38C2F01C080E0CF910895CF938091F5
:104550007C2190917D21A0917E21B0917F21892B9A
:104560008A2B8B2BA9F088E89DE30E94413EC82F3F
:1045700088E89DE30E94903DC80F84EB9DE30E9474
:10458000133FC80F84EB9DE30E94A23EC80F0AC0F0
:1045900088E89DE30E947C55C82F84EB9DE30E9430
:1045A0007C55C80FCC2341F08FEA9EE29F938F93F6
:1045B0000E946DA30F900F9080917F218F93809127
:1045C0007E218F9380917D218F9380917C218F9389
:1045D00087EB9EE29F938F930E946DA30F900F90A5
:1045E0000F900F900F900F908C2FCF91089585EC26
:1045F0009EE29F938F938AEC9EE29F938F930E94FB
:104600006DA30F900F900F900F9022E040915B20D0
:104610006DE080E090E20C946E9ECF9360918A24CE
:1046200070918B2482E79DE30E94652DC82F88231B
:10463000C1F080918D248F9380918C248F938091F1
:104640008B248F9380918A248F938DED9EE29F938C
:104650008F930E946DA30F900F900F900F900F906B
:104660000F908C2FCF9108958091682490916924A8
:10467000A0916A24B0916B2421E00097A105B105B7
:1046800019F02093A50602C02093A606BF93AF930E
:104690009F938F9386E09FE29F938F930E946DA3D9
:1046A0000F900F900F900F900F900F9080E0089553
:1046B0008091592290915A22A0915B22B0915C2264
:1046C00081309105A105B10539F460916A2270919C
:1046D0006B2288E89DE30AC00297A105B10511F598
:1046E00060916A2270916B2284EB9DE30E94993C59
:1046F0001F928F9386E19FE29F938F930E946DA3F9
:104700000F900F900F900F9083E090E0A0E0B0E04A
:104710008093592290935A22A0935B22B0935C22FB
:1047200080E0089583E19CE20E9487A381E00895E0
:10473000CF938091592290915A22A0915B22B091FF
:104740005C2281309105A105B10561F460917B2265
:1047500070917C2240918C2288E89DE30E944B3D21
:10476000C82F16C00297A105B10561F460917B22A4
:1047700070917C2240918C2284EB9DE30E944B3D02
:10478000C82F06C083E19CE20E9487A381E013C08A
:10479000CC2321F087E29FE20E9487A383E090E090
:1047A000A0E0B0E08093592290935A22A0935B221C
:1047B000B0935C228C2FCF9108951F920F920FB669
:1047C0000F9211240BB60F922F933F934F935F9349
:1047D0006F937F938F939F93AF93BF93EF93FF93C9
:1047E00020E040E050E060E070E080EA94E20E9467
:1047F0009370FF91EF91BF91AF919F918F917F91B6
:104800006F915F914F913F912F910F900BBE0F9041
:104810000FBE0F901F9018951F920F920FB60F9218
:1048200011240BB60F922F933F934F935F936F9387
:104830007F938F939F93AF93BF93EF93FF9380EA00
:1048400094E20E940471FF91EF91BF91AF919F910B
:104850008F917F916F915F914F913F912F910F9029
:104860000BBE0F900FBE0F901F901895A0EAB6E0F8
:1048700040E111964C93119730E211963C931197B9
:10488000E0E2F6E021E0218382E0818394E09183FD
:10489000E0E6F6E02183818391834183318350E810
:1048A000518360E46183E0E8F6E0228381839183B1
:1048B00078E07183428331836183518311962C9315
:1048C000119711968C93119711969C9380930106E2
:1048D00008951F93CF93DF9380915000826080935F
:1048E00050008091510081FFFCCF98ED94BF81E092
:1048F0008093400017E01093A200F89494BF809337
:10490000960061E085E395E20E942365C82F65E08B
:104910008EEE94E20E943A66C80F23EF31E041E048
:1049200050E069E575E38DE79DE30E9465872BED17
:1049300035E041E050E06DE477E38AE89DE30E94D2
:10494000658761E080EA94E20E943771D82F60E0C9
:1049500080E495E20E949D5A8C0FC82FCD0F1093D2
:10496000A2008091A20080688093A20078940E94A7
:1049700098868AE00E94318620E148E061E080E08C
:1049800092E00E94508120E149E062E080E092E004
:104990000E9450810E9436248C2FDF91CF911F916D
:1049A0000895CF938130D1F588E89DE30E94413E80
:1049B000C82F65E372E880E090E00E94751A88E8ED
:1049C0009DE30E94903DC80F65E176E185E090E0AF
:1049D0000E94751A63E070E088E89DE30E94993CAC
:1049E00084EB9DE30E94133FC80F65E372E880E00B
:1049F00090E00E94751A84EB9DE30E94A23EC80FCE
:104A000065E176E185E090E00E94751A63E070E070
:104A100084EB9DE30E94993C8C2F01C081E0CF91F3
:104A200008958091BD240E94D124882341F08BE415
:104A30009FE29F938F930E946DA30F900F9080E051
:104A40000895E0EAF6E084E0868382E086830E94AF
:104A5000EF8663E070E088E89DE30E94993C63E0A4
:104A600070E084EB9DE30E94993C80E008950E94F1
:104A70002125882341F08FEA9EE29F938F930E9425
:104A80006DA30F900F9080E00895CF9384E69FE28E
:104A90000E9487A30E942125C82F882341F08BE81C
:104AA0009FE29F938F930E946DA30F900F908C2F86
:104AB000CF91089580E0089580E0089585EC9EE20E
:104AC0009F938F938AEC9EE29F938F930E946DA396
:104AD00086EA9FE29F938F938DEA9FE29F938F9345
:104AE0000E946DA389EB9FE29F938F9381ED9FE2DC
:104AF0009F938F930E946DA38FED9FE29F938F935F
:104B000083EF9FE29F938F930E946DA38DB79EB713
:104B100040968DBF9EBF80E008950E945E25882349
:104B200041F08FEA9EE29F938F930E946DA30F90B6
:104B30000F9080E00895CF93DF931F921F92CDB71F
:104B4000DEB7AE014F5F5F4F61E080E092E00E9410
:104B5000F8818A818F9389818F9381E090E39F937D
:104B60008F930E946DA3AE014F5F5F4F62E080E0C4
:104B700092E00E94F8818A818F9389818F938FE0E0
:104B800090E39F938F930E946DA3CDBFDEBF80E023
:104B90000F900F90DF91CF9108950E949B2588235D
:104BA00041F08DE190E39F938F930E946DA30F904E
:104BB0000F9080E00895CF92DF92EF92FF920F93D3
:104BC0001F93CF93DF938B3068F5062F06950695DC
:104BD000069590E2099F800111241A5F677021E019
:104BE00030E07901062E01C0EE0C0A94EAF7CE2CD3
:104BF000F801E682C82FD0E0CC0FDD1FD12C8D2D1F
:104C000090E08C179D0754F465E176E185E090E033
:104C10000E94751AF801C782D394F1CFF801E68299
:104C200080E001C081E0DF91CF911F910F91FF9053
:104C3000EF90DF90CF9008956CE2809138210E9430
:104C4000DB25882341F083E490E39F938F930E94B8
:104C50006DA30F900F9080E00895EF92FF920F9355
:104C60001F93CF93DF93C0E0D0E03BE4E32E30E32B
:104C7000F32E04E510E3CE0183709927892B51F4BC
:104C8000DF93CF93FF92EF920E946DA30F900F904E
:104C90000F900F906C2F84E79DE30E945D33880F87
:104CA000892F881F990B91959F938F931F930F9333
:104CB0000E946DA321960F900F900F900F90C83017
:104CC000D105C9F68AE090E0DF91CF911F910F9155
:104CD000FF90EF900C9481A3EF92FF920F931F939C
:104CE000CF93DF93C0E0D0E03BE4E32E30E3F32E3C
:104CF00004E510E3CE0183709927892B51F4DF93EB
:104D0000CF93FF92EF920E946DA30F900F900F90A0
:104D10000F906C2F89E69DE30E945D33880F892FE9
:104D2000881F990B91959F938F931F930F930E94C8
:104D30006DA321960F900F900F900F90C830D10562
:104D4000C9F68AE090E0DF91CF911F910F91FF901B
:104D5000EF900C9481A3EF92FF920F931F93CF9348
:104D6000DF938DE590E30E9487A3C0E0D0E00AE6E0
:104D700010E39BE4E92E90E3F92ECE0103978D3FDB
:104D80009105F0F0CE0183709927892B51F4DF93C0
:104D9000CF93FF92EF920E946DA30F900F900F9010
:104DA0000F90BE0188E89DE30E94993C1F928F936B
:104DB0001F930F930E946DA30F900F900F900F9071
:104DC0002196C83881E0D807C1F682E790E30E94B7
:104DD00087A3C0E0D0E00AE610E38BE4E82E80E38E
:104DE000F82ECE0103978D3F9105F0F0CE01837030
:104DF0009927892B51F4DF93CF93FF92EF920E9472
:104E00006DA30F900F900F900F90BE0184EB9DE368
:104E10000E94993C1F928F931F930F930E946DA342
:104E20000F900F900F900F902196C83881E0D8070F
:104E3000C1F68AE090E0DF91CF911F910F91FF9032
:104E4000EF900C9481A30F931F93CF93DF938EE782
:104E500090E30E9487A362E871E088E89DE30E94E6
:104E6000993CC82F869581701F928F938BE990E3B0
:104E70009F938F930E946DA3C2FBCC27C0F91F9212
:104E8000CF938BEB90E39F938F930E946DA363E886
:104E900071E088E89DE30E94993CC82F8695817057
:104EA0001F928F9389ED90E39F938F930E946DA340
:104EB000C2FBCC27C0F91F92CF9389EF90E39F9359
:104EC0008F930E946DA362E871E084EB9DE30E94E2
:104ED000993CC82F869581701F928F9387E191E34B
:104EE0009F938F930E946DA3C2FBCC27C0F91F92A2
:104EF000CF9386E391E39F938F930E946DA363E822
:104F000071E084EB9DE30E94993CC82F86958170E7
:104F10001F928F9383E591E39F938F930E946DA3DC
:104F2000C2FBCC27C0F91F92CF9382E791E39F93F6
:104F30008F930E946DA38DB79EB780968DBF9EBF45
:104F40008FE891E30E9487A341E062E871E088E87E
:104F50009DE30E944B3D40E062E871E088E89DE3FC
:104F60000E944B3D41E063E871E088E89DE30E94C8
:104F70004B3D40E063E871E088E89DE30E944B3DD3
:104F800041E062E871E084EB9DE30E944B3D40E02C
:104F900062E871E084EB9DE30E944B3D41E063E8F1
:104FA00071E084EB9DE30E944B3D40E063E871E0DB
:104FB00084EB9DE30E944B3D00E816E0F8018085FC
:104FC00081701F928F93C8EAD1E3DF93CF930E9441
:104FD0006DA3F801808581701F928F93DF93CF932B
:104FE0000E946DA3F8018085829581701F928F9336
:104FF00084EC91E39F938F930E946DA361E084E71B
:105000009DE30E945D339F938F938FED91E39F9378
:105010008F930E946DA361E084E79DE30E945D335E
:105020009F938F938FEF91E39F938F930E946DA334
:1050300061E089E69DE30E945D339F938F938EE14B
:1050400092E39F938F930E946DA361E089E69DE3B5
:105050000E945D339F938F938DE392E39F938F9391
:105060000E946DA363E070E088E89DE30E94993C94
:105070001F928F938CE592E39F938F930E946DA371
:105080008DB79EB780968DBF9EBF63E070E084EBC6
:105090009DE30E94993C1F928F938BE792E39F932D
:1050A0008F930E946DA38AE090E00E9481A30E94EA
:1050B000AB268AE090E00E9481A389E992E30E94F6
:1050C00087A30E942D2687EB92E30E9487A30E946C
:1050D0006C260F900F900F900F9080E0DF91CF9192
:1050E0001F910F9108950E942327882341F08FEA92
:1050F0009EE29F938F930E946DA30F900F9080E08C
:105100000895EEEEF4E290E0A481B5812C9128138D
:1051100007C02EE0929FC001112482519B4D08953B
:105120009F5F3E96953081F780E090E00895AF92C2
:10513000BF92CF92DF92EF92FF920F931F93CF9384
:10514000DF9300EA16E081E0F801868380E8E82E2C
:1051500086E0F82E92E0A92EF701A58220E2B22E79
:10516000B582D4E0D68388E0858380E4868380E8B6
:1051700085836AE07BE882E090E00E94751AF8017E
:10518000D5836AE27CE28AE090E00E94751AF80119
:10519000A5826AE27CE28AE090E00E94751AA09201
:1051A00005062AE035E24DE65DE368E77DE382E748
:1051B0009DE30E945C2AC82F82E79DE30E948B2A10
:1051C000C80F60E082E79DE30E94BE2EC80F82E711
:1051D0009DE30E944E2BC80F64E476E082E79DE3D6
:1051E0000E94652DC80F8CE10E9481288C012DE65C
:1051F0003DE348E75DE36FE874E284E79DE30E94E6
:105200009832C80F84E79DE30E94E232C80F30E66F
:10521000C32E36E0D32E80E1F6018683858388E1B4
:105220000E9481289C014DE65DE368E77DE388E804
:105230009DE30E946A3CC80FF701A68265E372E80D
:1052400080E090E00E94751A88E89DE30E94C737CD
:10525000C80F65E176E185E090E00E94751A8DE166
:105260000E9481288C012DE63DE348E75DE36EE86E
:1052700074E289E69DE30E949832C80F89E69DE3B7
:105280000E94E232C80FF601B682B58289E10E941F
:1052900081289C014DE65DE368E77DE384EB9DE3B7
:1052A0000E946A3CC80FF701B68265E372E880E0AD
:1052B00090E00E94751A84EB9DE30E94C737C80FE7
:1052C00065E176E185E090E00E94751AD0932606AC
:1052D0008C2FDF91CF911F910F91FF90EF90DF9076
:1052E000CF90BF90AF9008950E949728E0EAF6E033
:1052F00094E0968392E0968308950E94742988230F
:1053000041F08FEA9EE29F938F930E946DA30F90CE
:105310000F9080E008950E949728882341F08FEA3B
:105320009EE29F938F930E946DA30F900F9080E059
:105330000895843689F583E090E0A0E0B0E08093A2
:10534000032390930423A0930523B09306238FE0B7
:1053500090E0A0E0B0E08093142390931523A093F5
:105360001623B093172310923623109237231092EE
:105370003823109239231092472310924823109219
:10538000492310924A2310927A2310927B23109281
:105390007C2310927D2358C08037C9F483E090E0CD
:1053A000A0E0B0E08093AD239093AE23A093AF2311
:1053B000B093B0238FE090E0A0E0B0E08093BE23F4
:1053C0009093BF23A093C023B093C1233DC08236E6
:1053D00069F483E090E0A0E0B0E0809359229093DC
:1053E0005A22A0935B22B0935C222EC0813661F5D5
:1053F00083E090E0A0E0B0E080939D2290939E2215
:10540000A0939F22B093A0228FE090E0A0E0B0E0B4
:105410008093AE229093AF22A093B022B093B1229A
:1054200081E190E0A0E0B0E08093BF229093C022A1
:10543000A093C122B093C2228093E1229093E222F2
:10544000A093E322B093E42280E0089580E00895E1
:1054500080E0089510929E2110929F211092A02129
:105460001092A12180E0089586ED92E39F938F939F
:105470000E946DA30F900F9080E008950F931F93EB
:105480008A012DE040E050E20E94419081508E3030
:1054900078F422E040E06DE080E090E20E946E9EB1
:1054A0008EEE92E39F938F930E946DA30F900F90C7
:1054B00080E01F910F910895CF93DF93CDB7DEB7B2
:1054C0002897CDBFDEBF89839A836B837C834D830E
:1054D0005E832F83388789819A81009711F481E058
:1054E00014C089819A812F813885FC012083318302
:1054F0008B819C818093293D90932A3D8D819E8153
:1055000080932B3D90932C3D80E02896CDBFDEBF4D
:10551000DF91CF910895CF93DF931F921F92CDB764
:10552000DEB789839A8389819A81009711F481E09B
:10553000B0C02091293D30912A3D80912B3D909122
:105540002C3D41E0B9010E940B3089819A81FC0118
:1055500080819181FC01208131814091293D5091D0
:105560002A3D60912B3D70912C3D89819A81FC01EF
:1055700080819181F90119952091293D30912A3D31
:1055800080912B3D90912C3D40E0B9010E94D0309C
:1055900089819A81FC0180819181FC012081318186
:1055A0004091293D50912A3D60912B3D70912C3DB9
:1055B00089819A81FC0180819181F901199560911D
:1055C000293D70912A3D80912B3D90912C3D2FE0FB
:1055D00043E00E94873089819A81FC01808191811A
:1055E000FC01208131814091293D50912A3D6091FB
:1055F0002B3D70912C3D89819A81FC0180819181A4
:10560000F90119952091293D30912A3D80912B3D3A
:1056100090912C3D40E050E0B9010E94872F898194
:105620009A81FC0180819181FC012081318140912E
:10563000293D50912A3D60912B3D70912C3D8981EF
:105640009A81FC0180819181F90119952091293D70
:1056500030912A3D80912B3D90912C3DB9010E94C3
:10566000D02F89819A81FC0180819181FC01208168
:1056700031814091293D50912A3D60912B3D70919F
:105680002C3D89819A81FC0180819181F9011995D4
:1056900080E00F900F90DF91CF910895CF93DF932B
:1056A0001F921F92CDB7DEB789839A8389819A8131
:1056B000009711F481E06EC089819A810E948B2A43
:1056C0002091293D30912A3D80912B3D90912C3D98
:1056D0004FEF57E0B9010E94872F89819A81FC0121
:1056E00080819181FC01208131814091293D50913F
:1056F0002A3D60912B3D70912C3D89819A81FC015E
:1057000080819181F90119952091293D30912A3D9F
:1057100080912B3D90912C3DB9010E94D02F898121
:105720009A81FC0180819181FC012081318140912D
:10573000293D50912A3D60912B3D70912C3D8981EE
:105740009A81FC0180819181F90119956091293D2F
:1057500070912A3D80912B3D90912C3D2FE040E0AF
:105760000E94873089819A81FC0180819181FC01AE
:10577000208131814091293D50912A3D60912B3DFE
:1057800070912C3D89819A81FC0180819181F90180
:10579000199580E00F900F90DF91CF910895CF93EE
:1057A000DF931F921F92CDB7DEB789839A838981D9
:1057B0009A81009711F481E001C080E00F900F9072
:1057C000DF91CF910895CF93DF931F921F92CDB7B2
:1057D000DEB789839A8389819A81009711F481E0E9
:1057E00024C06091293D70912A3D80912B3D90917C
:1057F0002C3D2FE043E00E94873089819A81FC0193
:1058000080819181FC01208131814091293D50911D
:105810002A3D60912B3D70912C3D89819A81FC013C
:1058200080819181F901199580E00F900F90DF91AF
:10583000CF910895CF93DF931F921F92CDB7DEB71C
:1058400089839A8389819A81009711F481E024C029
:105850002091293D30912A3D80912B3D90912C3D06
:1058600041E0B9010E94493089819A81FC0180811F
:105870009181FC01208131814091293D50912A3D47
:1058800060912B3D70912C3D89819A81FC01808132
:105890009181F901199580E00F900F90DF91CF91E0
:1058A0000895CF93DF931F921F92CDB7DEB7898300
:1058B0009A8389819A81009711F481E024C06091D4
:1058C000293D70912A3D80912B3D90912C3D2FE0F8
:1058D00043E00E94873089819A81FC018081918117
:1058E000FC01208131814091293D50912A3D6091F8
:1058F0002B3D70912C3D89819A81FC0180819181A1
:10590000F901199580E00F900F90DF91CF910895E4
:10591000CF93DF9300D000D0CDB7DEB789839A83D1
:105920004B835C836D837E8389819A81009711F418
:1059300081E029C06091293D70912A3DE0912B3D85
:10594000F0912C3D8B819C81AD81BE819C01AD018C
:10595000CF010E940E3189819A81FC018081918161
:10596000FC01208131814091293D50912A3D609177
:105970002B3D70912C3D89819A81FC018081918120
:10598000F901199580E02696CDBFDEBFDF91CF915A
:105990000895CF93DF931F921F92CDB7DEB789830F
:1059A0009A8389819A81009711F481E024C06091E3
:1059B000293D70912A3D80912B3D90912C3D2FE007
:1059C00043E00E94873089819A81FC018081918126
:1059D000FC01208131814091293D50912A3D609107
:1059E0002B3D70912C3D89819A81FC0180819181B0
:1059F000F901199580E00F900F90DF91CF910895F4
:105A0000CF93DF93CDB7DEB72597CDBFDEBF8983B8
:105A10009A836B837C834D8389819A81009711F4EB
:105A200080E04DC08D81843010F082E048C06091EC
:105A3000293D70912A3D80912B3D90912C3D4B81C9
:105A40005C812D810E94FE2E89819A81FC018081DA
:105A50009181FC01208131814091293D50912A3D65
:105A600060912B3D70912C3D89819A81FC01808150
:105A70009181F90119952091293D30912A3D80911C
:105A80002B3D90912C3D4D81B9010E94492F898178
:105A90009A81FC0180819181FC01208131814091BA
:105AA000293D50912A3D60912B3D70912C3D89817B
:105AB0009A81FC0180819181F901199580E02596F8
:105AC000CDBFDEBFDF91CF910895CF93DF9300D09C
:105AD0001F92CDB7DEB789839A836B837C838981DC
