:100000000C94DA070C94FB070C94FB070C94FB0789
:100010000C94FB070C94FB070C94FB070C94FB0758
:100020000C94FB070C94FB070C94FB070C94FB0748
:100030000C94FB070C947B4A0C94FB070C94FB0775
:100040000C94FB070C94FB070C94FB070C94FB0728
:100050000C94FB070C94FB070C94FB070C94FB0718
:100060000C94FB070C9413110C94FB070C94421195
:100070000C94FB070C94FB070C94FB070C94FB07F8
:100080000C94FB070C94FB070C94FB070C94FB07E8
:100090000C94FB070C94FB070C94FB070C94FB07D8
:1000A0000C94FB070C94FB070C94FB070C94FB07C8
:1000B0000C94FB070C94FB070C94AD4A0C94FB07C3
:1000C0000C94FB070C94FB070C94FB070C94FB07A8
:1000D0000C94FB070C94FB070C94FB070C94FB0798
:1000E0000C94FB070C94FB070C94FB070C94FB0788
:1000F0000C94FB070C94FB070C94FB070C94FB0778
:100100000C94FB070C94FB070C94FB070C94FB0767
:100110000C94FB070C94FB070C94FB070C94FB0757
:100120000C94FB070C94FB070C94FB070C94FB0747
:100130000C94FB070C94FB070C94FB070C94FB0737
:100140000C94FB070C94FB070C94FB070C94FB0727
:100150000C94FB070C94FB070C94FB070C94FB0717
:100160000C94FB070C94FB070C94FB070C94FB0707
:100170000C94FB070C94FB070C94FB070C94FB07F7
:100180000C94FB070C94FB070C94FB070C94FB07E7
:100190000C94FB070C94FB070C94FB070C94FB07D7
:1001A0000C94FB070C94FB070C94FB070C94FB07C7
:1001B0000C94FB070C94FB070C94FB070C94FB07B7
:1001C0000C94FB070C94FB070C94FB070C94FB07A7
:1001D0000C94FB070C94FB070C94FB070C94FB0797
:1001E0000C94FB070C94FB075D226A22892299225A
:1001F000B322CD22DD22ED226624832686268326A5
:1002000083268326832683268326832683268326A6
:100210008326832683268326832683268326832696
:100220008326832683268326832683268326832686
:100230008326832683268326832683268326832676
:100240008326832683268326832683268326832666
:100250008326832683268326832683268326832656
:100260008326832683268326832683268326832646
:100270008326832683268326832683268326832636
:100280008326832683268326832683268326832626
:100290008326832683268326832683268326832616
:1002A0008326832683268326832683268326832606
:1002B00083268326832683268326832683268326F6
:1002C00083268326832683268326832683268326E6
:1002D00083268326832683268326832683268326D6
:1002E00083268326832683268326832683268326C6
:1002F00083268326832683268326832683268326B6
:1003000083268326832683268326832683268326A5
:100310008326832683268326832683268326832695
:100320008326832683268326832683268326832685
:100330008326832683268326832683268326832675
:100340008326832683268326832683268326832665
:100350008326832683268326832683268326832655
:100360008326832683268326832683268326832645
:100370008326832683268326832683268326832635
:100380008326832683268326832683268326832625
:100390008326832683268326832683268326832615
:1003A0008326832683268326832683268326832605
:1003B00083268326832683268326832683268326F5
:1003C00083268326832683268326832683268326E5
:1003D00083268326832683268326832683268326D5
:1003E00083268326832683268326832683268326C5
:1003F00083268326832683266A246E2483268626E4
:1004000075247C248324902497249B248326862689
:10041000A224A924B024BD24C424C824832686266B
:10042000CF24D624DD24EA24F124862683268626BA
:10043000F524FC240325102517251B258326862655
:100440002225292530253D25442548258326862635
:100450004F2556255D256A25712575258326862617
:100460007C2583258A2597259E25A525A9258626D1
:100470008626AD25B125B525BC258626C025C425F3
:100480008626D425D825DC25E325E7258626EE25F6
:1004900086268626F825FC2500260726862686261B
:1004A0000B2686260F2686261326862617261B262B
:1004B0002226262686262A268626312635268626A2
:1004C00086263926862686263D2641264B264F2619
:1004D000862686265326832683265A265E26862649
:1004E00083268326832683268326832683268326C4
:1004F0006226662683268326832683266A2671261D
:1005000078267F26832683268626BC26A028A32835
:10051000A028A028A028A028A028A028A028A0289B
:10052000A028A028A028A028A028A028A028A0288B
:10053000A028A028A028A028A028A028A028A0287B
:10054000A028A028A028A028A028A028A028A0286B
:10055000A028A028A028A028A028A028A028A0285B
:10056000A028A028A028A028A028A028A028A0284B
:10057000A028A028A028A028A028A028A028A0283B
:10058000A028A028A028A028A028A028A028A0282B
:10059000A028A028A028A028A028A028A028A0281B
:1005A000A028A028A028A028A028A028A028A0280B
:1005B000A028A028A028A028A028A028A028A028FB
:1005C000A028A028A028A028A028A028A028A028EB
:1005D000A028A028A028A028A028A028A028A028DB
:1005E000A028A028A028A028A028A028A028A028CB
:1005F000A028A028A028A028A028A028A028A028BB
:10060000A028A028A028A028A028A028A028A028AA
:10061000A028A028A028A028A028A028A028A0289A
:10062000A028A028A028A028A028A028A028A0288A
:10063000A028A028A028A028A028A028A028A0287A
:10064000A028A028A028A028A028A028A028A0286A
:10065000A028A028A028A028A028A028A028A0285A
:10066000A028A028A028A028A028A028A028A0284A
:10067000A028A028A028A028A028A028A028A0283A
:10068000A028A028A028A028A028A028A028A0282A
:10069000A028A028A028A028A028A028A028A0281A
:1006A000A028A028A028A028A028A028A028A0280A
:1006B000A028A028A028A028A028A028A028A028FA
:1006C000A028A028A028A028A028A028A028A028EA
:1006D000A028A028A028A028A028A028A028A028DA
:1006E000A028A028A028A028A028A028A028A028CA
:1006F000A028A028A028A028A028A028A028A028BA
:10070000A028A028A028A028A028C026C426A02869
:10071000A328CB26A328CF26DC26E326E726A0287D
:10072000A328EE26A328F226FF2606270A27A028BC
:10073000A3281127A328152722272927A328A02883
:10074000A3282D27A32831273E2745274927A0285E
:10075000A3285027A3285427612768276C27A0289F
:10076000A3287327A328772784278B278F27A028E0
:10077000A3289627A3289A27A727AE27B827A32818
:10078000BC27A328C027C427C827CF27A328D6273C
:10079000DA27A328EA27EE27F227F927FD27A3283F
:1007A0000428A328A3280E28122816281D28A328C9
:1007B000A3282128A3282528A3282928A3282D28D1
:1007C000312838283C28A3284028A32847284B282C
:1007D000A328A3285228A328A32856285A286428E7
:1007E0006828A328A3286C28A028A0287328772885
:1007F000A3287B28A028A028A028A028A028A028DB
:10080000A0287F288328A028A028A028A0288728FF
:100810008E2895289C28A028A028A328A8305731E6
:10082000C1305731DA305731F33057310C3157314D
:10083000253157313E315732963260329632693225
:100840009632723296327B329632843296328D32C2
:10085000B2332934C3332934D4332934E53329342A
:10086000F6332934073429341834EF342E35F8346C
:100870002E3501352E350A352E3513352E351C35DE
:100880002E352535DC356036EE356036013660367E
:1008900014366036273660363A3660364D361138B3
:1008A00050381A385038233850382C3850383538AA
:1008B00050383E38503847381039B0392639B039B9
:1008C0003D39B0395439B0396B39B0398239B03922
:1008D0009939313B703B3A3B703B433B703B4C3B5F
:1008E000703B553B703B5E3B703B673BF83CB93C13
:1008F000013DC23C0A3DCB3C133DD43C1C3DDD3C9C
:10090000253DE63C2E3DEF3CC23D393ED33D393ED0
:10091000E43D393EF53D393E063E393E173E393E0F
:10092000283EF23E313FFB3E313F043F313F0D3F19
:10093000313F163F313F1F3F313F283FD73F5B409C
:10094000E93F5B40FC3F5B400F405B4022405B4027
:1009500035405B40484047418641504186415941BE
:100960008641624186416B418641744186417D41A9
:100970004A434C434F435243554358435B43AF4371
:10098000C443C443C443C443B243C443C443C44341
:10099000C443C143C443C443C443C443C443C44322
:1009A000C443C443C443B543C443C443B843C4432A
:1009B000C443C443BE43C443C443BB430C948427D1
:1009C0000C94DD240C9464280C94070D0C94D33DF6
:1009D0000C942E080C9447380C940C310C94000B9A
:1009E0000C94C4250C946A240C94280C0C943D257A
:1009F0000C9472320C9412280C94C23D0C94E63C78
:100A00000C94C4240C949A270C94D6240C946B4117
:100A10000C9499220C9457320C94AF430C94C3332A
:100A20000C9416540C9432090C9410250C948A12D0
:100A30000C9403250C94C0250C94B0390C945326C7
:100A40000C9416280C94CB3C0C9405080C94382874
:100A50000C94D6270C9471250C94B8270C940B0891
:100A60000C94A8300C9407340C9426260C94673B05
:100A70000C9466240C944F260C94A5080C943126F3
:100A80000C94C8270C94C8240C9495280C94FB3E15
:100A90000C9452280C941F3F0C94F8250C944B2670
:100AA0000C9435260C9435400C94C4260C94540FA9
:100AB0000C94AD250C9411080C946C280C9473289C
:100AC0000C9411270C9447280C9489220C94172617
:100AD0000C941D080C9471260C94F1240C947C2425
:100AE0000C9475250C9429250C9461270C944B28A3
:100AF0000C94EF3C0C9478260C9417250C948728C2
:100B00000C948E100C94ED220C94B2430C941B2583
:100B10000C9413080C94C4430C947C250C94CD22A3
:100B20000C9429270C9483280C9426390C94B543F3
:100B30000C9429280C94553B0C9452430C94474137
:100B40000C9422400C9423380C94C23C0C94C90899
:100B50000C94A9240C94BD240C94D43C0C94E3254F
:100B60000C94C1300C9486410C944F250C94624136
:100B70000C940B260C94CF240C94CA120C94F226DD
:100B80000C94EA240C940E120C941B260C946D0DFC
:100B90000C945A280C9477270C944A430C94AC1468
:100BA0000C9444250C9480080C9431280C94B23396
:100BB0000C9477280C9406270C94B5250C943127B7
:100BC0000C9414360C94E93F0C946A250C94DC3593
:100BD0000C94EE350C9496270C94E30D0C943A3B50
:100BE0000C9457310C949E250C9475240C94662615
:100BF0000C948A250C94DA270C94F8340C94E7258D
:100C00000C943E270C94FC250C94F83C0C94504119
:100C10000C9413260C94D8150C945E3B0C9462260D
:100C20000C944D360C942E3D0C94EE250C94972488
:100C30000C94EF340C94CD080C94173E0C946E2455
:100C40000C9486260C94C4270C94F53D0C94283EF5
:100C50000C94FF260C94253D0C94283F0C945B408B
:100C60000C9429340C94BE0B0C94EA270C9449275D
:100C70000C9430250C940F400C9407260C940A27F2
:100C80000C9460320C945A260C9499390C940D3FB4
:100C90000C94C0270C9422260C94DC260C94BE43A2
:100CA0000C943E380C944C080C94AE270C945427AA
:100CB0000C9419080C9460360C9417080C94543951
:100CC0000C949C280C9404280C942C380C94F92730
:100CD0000C94CE100C9410390C9483240C9422277D
:100CE0000C944C430C94013D0C94393E0C945625C5
:100CF0000C94800C0C94BC260C94DD3C0C94EE27D8
:100D00000C94D4250C94E5330C94BC270C945038E7
:100D10000C943D260C9441260C9483250C94D433DA
:100D20000C9450270C9419130C94313F0C948F277A
:100D30000C9493090C9439260C94F4090C94843285
:100D40000C9400260C94C0260C946A100C948B27EB
:100D50000C9490240C94BC250C9403080C94EE265F
:100D60000C94CB260C94AE0F0C94F5240C94B00D7F
:100D70000C94CF270C94B0240C9415080C945B436E
:100D80000C9421280C940F080C943A360C946C2780
:100D90000C9413350C9497250C942E350C940D0857
:100DA0000C9411380C944F430C94C30E0C945D2298
:100DB0000C94CF260C94B8430C94A80A0C94500BB6
:100DC0000C941B080C94BB430C943D390C943E319D
:100DD0000C94E3260C943A0D0C94163F0C94D10815
:100DE0000C94B3220C94063E0C948D320C94E43D8A
:100DF0000C9425280C94770F0C94A7270C94682842
:100E00000C94DD220C949B240C9435380C940F2602
:100E10000C9468270C94B1250C94A3280C94FD27FE
:100E20000C9434080C94313B0C9434120C94090843
:100E30000C9401350C94A0280C94DA300C944028C2
:100E40000C9442120C94F3300C9425310C947B32A8
:100E50000C940A3D0C946A260C9445270C941D0FA3
:100E60000C94E7260C94CA150C94DC250C947D4157
:100E70000C94F23E0C942D280C941C350C94FA0E14
:100E80000C9448400C9459410C94BF080C94DD0F0D
:100E90000C94820E0C947F280C94A2240C94043F92
:100EA0000C9418340C942E100C9415270C9456287E
:100EB0000C941C3D0C94133D0C946B390C941D2820
:100EC0000C94A5250C941A0E0C943D0E0C94C14361
:100ED0000C940A350C94703B0C9401360C94FC3F36
:100EE0000C942A260C9473270C94B93C0C94433B25
:100EF0000C9483260C9458430C945E260C948E28F4
:100F00000C946A220C940E280C94D8250C9443104F
:100F10000C94A9250C9496320C94D00C0C941A388D
:100F20000C947B280C94FC240C9469320C94823928
:100F30000C94F6330C944C3B0C9455430C9448257C
:100F40000C9427360C9474410C9422250C945D2546
:100F50000C949B080C9407080C943C280C947F2656
:100F60000C94D73F0C94F2270C9425350C942D2724
:100F70006364696E6F70737578585B00BCE5ACC5CF
:100F80009C85960392C1912190961D03ED01DCFD95
:100F9000CCF5BCE5ACC5A86EBCE5ACC59C8596039C
:100FA00092C1912190961D03ED01DCFDCCF5BCE5CD
:100FB000ACC5A86E11241FBECFEFCDBFDFE3DEBFEF
:100FC00000E00CBF1AE3A0E0B0E2EEEAF5E101E0D8
:100FD0000BBF02C007900D92AC35B107D9F71BE3E8
:100FE000ACE5BAE301C01D92AA3CB107E1F70E944B
:100FF00021810C94D58A0C940000615071098109FB
:101000009109D9F7089580E0089580E0089580E07F
:10101000089580E0089580E0089580E0089580E0DC
:10102000089580E0089580E0089580E0089580E0CC
:10103000089580E0089580E0089580915E21909168
:101040005F212091713A3091723A821B930B019685
:101050008093713A9093723A80E008951092713AB9
:101060001092723A80E00895E4E7F1E283A18F9351
:1010700082A18F9381A18F9380A18F9380EB9BE2BC
:101080009F938F930E9485840F900F900F900F90E5
:101090000F900F9080E00895CF93DF9300D01F92C0
:1010A000CDB7DEB7CE010196AA2797FDA095BA2F3E
:1010B0004091C03B5091C13B4115510511F44AECA0
:1010C0005BE3662757FD6095762F841B950BA60B77
:1010D000B70BBF93AF939F938F938EEB9BE29F933E
:1010E0008F930E9485840F900F900F900F900F9018
:1010F0000F9080E02496CDBFDEBFDF91CF910895A1
:101100008091723A8F938091713A8F938CE49CE234
:101110009F938F930E9485848091713A9091723A47
:1011200001968093713A9093723A0F900F900F90BE
:101130000F9080E00895682F8091D2249091D3245D
:101140000E944D5C80E090E00895CF9386E99BE398
:101150000E94DC29C82F65E176E185E090E00E94DD
:10116000FD078EEB9BE30E94EE2AC80F65E176E156
:1011700085E090E00E94FD078C2FCF91089586E9CD
:101180009BE30E944D2A83ED9BE20E949F8480E0B6
:10119000089586E99BE30C944D2A8EEB9BE30C9417
:1011A0004D2ACF934091F8235091F9236091FA236F
:1011B0007091FB238091D4239091D523A091D623C5
:1011C000B091D7234115510561057105D9F48130DE
:1011D0009105A105B10531F486E99BE30E940F2C2E
:1011E000C82F35C00297A105B10531F48EEB9BE302
:1011F0000E940F2CC82F2BC085EE9BE20E949F847B
:1012000081E02EC081309105A105B10531F486E958
:101210009BE30E94C62BC82F1AC082309105A105FE
:10122000B10531F48EEB9BE30E94C62BC82F0FC093
:101230000397A105B10501F783E08093EF2486E9C8
:101240009BE30E94C62BC82F81E08093EF24CC2320
:1012500031F088E09CE20E949F848C2F01C080E0E6
:10126000CF910895CF9340910A2450910B2460911F
:101270000C2470910D248091D4239091D523A091BA
:10128000D623B091D7234115510561057105D9F4D5
:1012900081309105A105B10531F486E99BE30E94F7
:1012A000A32CC82F35C00297A105B10531F48EEBF0
:1012B0009BE30E94A32CC82F2BC085EE9BE20E94CB
:1012C0009F8481E02EC081309105A105B10531F4E4
:1012D00086E99BE30E945A2CC82F1AC082309105E0
:1012E000A105B10531F48EEB9BE30E945A2CC82F67
:1012F0000FC00397A105B10501F783E08093EF24A8
:1013000086E99BE30E945A2CC82F81E08093EF244A
:10131000CC2331F088E09CE20E949F848C2F01C096
:1013200080E0CF910895CF9340911C2450911D24CB
:1013300060911E2470911F248091D4239091D52315
:10134000A091D623B091D7234115510561057105B0
:10135000D9F481309105A105B10531F486E99BE30B
:101360000E944D2DC82F35C00297A105B10531F45B
:101370008EEB9BE30E944D2DC82F2BC085EE9BE288
:101380000E949F8481E02EC081309105A105B105A6
:1013900031F486E99BE30E94042DC82F1AC08230E5
:1013A0009105A105B10531F48EEB9BE30E94042D5C
:1013B000C82F0FC00397A105B10501F783E0809303
:1013C000EF2486E99BE30E94042DC82F81E08093DF
:1013D000EF24CC2331F086E29CE20E949F848C2F84
:1013E00001C080E0CF9108951F93CF93DF931F92A8
:1013F000CDB7DEB740912E2450912F246091302438
:10140000709131248091D4239091D523A091D6233B
:10141000B091D723452B462B472BF9F4813091050A
:10142000A105B10531F486E99BE30E94522F182FE4
:1014300081C00297A105B10551F48EEB9BE30E9498
:10144000522F182F77C00397A105B105B1F185EE92
:101450009BE20E949F8481E076C081309105A105C6
:10146000B10599F486E99BE30E949B2D40912E24BF
:1014700050912F246091302470913124282F86E9D7
:101480009BE30E94BE2D182F55C082309105A10507
:10149000B105C9F686E99BE30E949B2D40912E245D
:1014A00050912F246091302470913124282F8EEB9D
:1014B0009BE30E94BE2D182F3DC083E08093EF2454
:1014C00086E99BE30E949B2D282F1F928F9384E433
:1014D0009CE29F938F9329830E9485848EEB9BE3EC
:1014E0000E949B2D182F1F928F9380E59CE29F9363
:1014F0008F930E948584CDBFDEBF2981211751F0D3
:101500008CE59CE29F938F930E9485840F900F90AF
:1015100083E019C040912E2450912F2460913024F3
:101520007091312486E99BE30E94BE2D182F81E043
:101530008093EF24112331F086E29CE20E949F8485
:10154000812F01C080E00F90DF91CF911F9108950E
:10155000CF93409140245091412460914224709156
:1015600043248091D4239091D523A091D623B09188
:10157000D7234115510561057105F9F481309105B5
:10158000A105B10541F46091E62386E99BE30E9441
:101590001B32C82F2AC00297A105B10541F4609102
:1015A000E6238EEB9BE30E941B32C82F1EC085EE04
:1015B0009BE20E949F8481E021C081309105A105BA
:1015C000B10541F42091E62386E99BE30E94603057
:1015D000C82F0BC00297A105B10549F72091E6235A
:1015E0008EEB9BE30E946030C82FCC2331F089E75B
:1015F0009CE20E949F848C2F01C080E0CF910895CF
:10160000CF9340915224509153246091542470916F
:1016100055248091D4239091D523A091D623B091C5
:10162000D7234115510561057105D9F48130910524
:10163000A105B10531F486E99BE30E940933C82F67
:1016400024C00297A105B10531F48EEB9BE30E9403
:101650000933C82F1AC085EE9BE20E949F8481E067
:101660001DC081309105A105B10531F486E99BE3E8
:101670000E94BF32C82F09C00297A105B10559F7D2
:101680008EEB9BE30E94BF32C82FCC2331F08BE955
:101690009CE20E949F848C2F01C080E0CF9108952E
:1016A0000F93CF930091322360915623409168238A
:1016B0002091B0238091442390914523A09146230B
:1016C000B09147230097A105B10529F5809120230A
:1016D00090912123A0912223B09123238130910561
:1016E000A105B10539F4602F86E99BE30E94D53747
:1016F000C82F38C00297A105B10539F4602F8EEBD1
:101700009BE30E94D537C82F2DC085EE9BE20E9437
:101710009F8481E030C00197A105B105E9F4809173
:10172000202390912123A0912223B0912323813063
:101730009105A105B10531F486E99BE30E945E3570
:10174000C82F10C00297A105B105F9F68EEB9BE3F7
:101750000E945E35C82F06C084EC9CE20E949F84E4
:10176000C1E002C0CC2331F08BEF9CE20E949F8449
:101770008C2F01C080E0CF910F910895CF932091DD
:10178000322360915623409168238091C223909127
:10179000C323A091C423B091C5230097A105B1052F
:1017A00029F58091202390912123A0912223B091AB
:1017B000232381309105A105B10539F4622F86E913
:1017C0009BE30E94F53AC82F38C00297A105B105E6
:1017D00039F4622F8EEB9BE30E94F53AC82F2DC09F
:1017E00085EE9BE20E949F8481E030C00197A105B5
:1017F000B105E9F48091202390912123A091222327
:10180000B091232381309105A105B10531F486E91A
:101810009BE30E949238C82F10C00297A105B10522
:10182000F9F68EEB9BE30E949238C82F06C084EC39
:101830009CE20E949F84C1E002C0CC2331F08BEF78
:101840009CE20E949F848C2F01C080E0CF9108957C
:10185000CF9340917A2350917B2360917C237091A8
:101860007D238091202390912123A0912223B09168
:1018700023234115510561057105F9F48130910566
:10188000A105B10541F46091322386E99BE30E94F2
:10189000B334C82F2AC00297A105B10541F4609165
:1018A00032238EEB9BE30E94B334C82F1EC085EE1B
:1018B0009BE20E949F8481E021C081309105A105B7
:1018C000B10541F42091322386E99BE30E9457330E
:1018D000C82F0BC00297A105B10549F7209132230B
:1018E0008EEB9BE30E945733C82FCC2331F08BEF54
:1018F0009CE20E949F848C2F01C080E0CF910895CC
:10190000CF9340918C2350918D2360918E237091C1
:101910008F238091202390912123A0912223B091A5
:1019200023234115510561057105D9F481309105D5
:10193000A105B10531F486E99BE30E94183CC82F4C
:1019400024C00297A105B10531F48EEB9BE30E9400
:10195000183CC82F1AC085EE9BE20E949F8481E04C
:101960001DC081309105A105B10531F486E99BE3E5
:101970000E94B23BC82F09C00297A105B10559F7D3
:101980008EEB9BE30E94B23BC82FCC2331F08FE15A
:101990009DE20E949F848C2F01C080E0CF9108952A
:1019A000CF938091202390912123A0912223B09165
:1019B000232381309105A105B10551F440913223D3
:1019C00060919E2386E99BE30E94803CC82F14C04F
:1019D0000297A105B10551F44091322360919E23F5
:1019E0008EEB9BE30E94803CC82F06C085EE9BE2F5
:1019F0000E949F8481E009C0CC2331F08FE19DE2F9
:101A00000E949F848C2F01C080E0CF910895CF93D6
:101A10004091C6226091D8228091B4229091B52243
:101A2000A091B622B091B72281309105A105B105F0
:101A300031F486E99BE30E945A3FC82F10C00297F9
:101A4000A105B10531F48EEB9BE30E945A3FC82FEC
:101A500006C085EE9BE20E949F8481E009C0CC23F2
:101A600031F08AE49DE20E949F848C2F01C080E0C7
:101A7000CF910895CF938091B4229091B522A091F7
:101A8000B622B091B72281309105A105B10541F48C
:101A90006091C62286E99BE30E940B41C82F12C0C9
:101AA0000297A105B10541F46091C6228EEB9BE33C
:101AB0000E940B41C82F06C085EE9BE20E949F84C6
:101AC00081E009C0CC2331F08BEF9CE20E949F841F
:101AD0008C2F01C080E0CF910895CF938091B422E4
:101AE0009091B522A091B622B091B7228130910594
:101AF000A105B10581F44091FC225091FD22609135
:101B0000FE227091FF222091C62286E99BE30E946B
:101B10007E3DC82F1AC00297A105B10581F44091FE
:101B2000FC225091FD226091FE227091FF222091B3
:101B3000C6228EEB9BE30E947E3DC82F06C085EE39
:101B40009BE20E949F8481E009C0CC2331F08AE4AB
:101B50009DE20E949F848C2F01C080E0CF91089568
:101B6000CF938091B4229091B522A091B622B091EA
:101B7000B72281309105A105B10541F46091C622DB
:101B800086E99BE30E94B63EC82F12C00297A105CA
:101B9000B10541F46091C6228EEB9BE30E94B63EF4
:101BA000C82F06C085EE9BE20E949F8481E009C099
:101BB000CC2331F08DE69DE20E949F848C2F01C0E2
:101BC00080E0CF910895CF938091A6219091A72195
:101BD000A091A821B091A92181309105A105B1055D
:101BE00051F46091B8217091B92186E89BE30E947D
:101BF000E91FC82F14C00297A105B10551F46091E7
:101C0000B8217091B9218BE79BE30E94E91FC82F8F
:101C100006C081E99DE20E949F8481E009C0CC2337
:101C200031F085EC9DE20E949F848C2F01C080E002
:101C3000CF9108958091A6219091A721A091A821EC
:101C4000B091A92181309105A105B10531F486E853
:101C50009BE30E941E2080E008950297A105B10534
:101C600031F48BE79BE30E941E2080E0089581E918
:101C70009DE20E949F8481E00895CF938091DC21B2
:101C80009091DD21A091DE21B091DF21892B8A2B5B
:101C90008B2B51F085EE9DE29F938F930E9485845C
:101CA0000F900F9081E02CC08091A6219091A721E8
:101CB000A091A821B091A92181309105A105B1057C
:101CC00031F486E89BE30E943621C82F10C00297AA
:101CD000A105B10531F48BE79BE30E943621C82FA3
:101CE00006C081E99DE20E949F8481E009C0CC2367
:101CF00031F083E09EE20E949F848C2F01C080E03F
:101D0000CF910895CF938091EE219091EF21A091F2
:101D1000F021B091F121892B8A2B8B2B31F085EEAC
:101D20009DE20E949F8481E02CC08091A621909129
:101D3000A721A091A821B091A92181309105A105E9
:101D4000B10531F486E89BE30E947021C82F10C0D2
:101D50000297A105B10531F48BE79BE30E94702146
:101D6000C82F06C081E99DE20E949F8481E009C0DE
:101D7000CC2331F081E29EE20E949F848C2F01C02F
:101D800080E0CF910895CF938091A6219091A721D3
:101D9000A091A821B091A92181309105A105B1059B
:101DA00051F4609100227091012286E89BE30E9429
:101DB0004C20C82F14C00297A105B10551F46091C1
:101DC0000022709101228BE79BE30E944C20C82FD8
:101DD00006C081E99DE20E949F8481E009C0CC2376
:101DE00031F08FE39EE20E949F848C2F01C080E03F
:101DF000CF9108958091A6219091A721A091A8212B
:101E0000B091A92181309105A105B10531F486E891
:101E10009BE30E94812080E008950297A105B1050F
:101E200031F48BE79BE30E94812080E0089581E9F3
:101E30009DE20E949F8481E00895CF938091A62126
:101E40009091A721A091A821B091A921813091055D
:101E5000A105B10551F4609124227091252286E8F4
:101E60009BE30E94AF20C82F14C00297A105B105C3
:101E700051F460912422709125228BE79BE30E940C
:101E8000AF20C82F06C081E99DE20E949F8481E0B7
:101E900009C0CC2331F081E69EE20E949F848C2F02
:101EA00001C080E0CF9108958091A6219091A72153
:101EB000A091A821B091A92181309105A105B1057A
:101EC00031F486E89BE30E94082180E008950297A0
:101ED000A105B10531F48BE79BE30E94082180E066
:101EE000089581E99DE20E949F8481E00895CF9347
:101EF0008091A6219091A721A091A821B091A9211C
:101F000081309105A105B10551F46091482270918D
:101F1000492286E89BE30E94B821C82F14C002978B
:101F2000A105B10551F460914822709149228BE7D7
:101F30009BE30E94B821C82F06C081E99DE20E9460
:101F40009F8481E009C0CC2331F081E29EE20E94AF
:101F50009F848C2F01C080E0CF910895CF93809112
:101F6000A6219091A721A091A821B091A92181300B
:101F70009105A105B10531F486E89BE30E94FB21A0
:101F8000C82F10C00297A105B10531F48BE79BE380
:101F90000E94FB21C82F06C081E99DE20E949F8418
:101FA00081E009C0CC2331F081E29EE20E949F844F
:101FB0008C2F01C080E0CF910895CF938091822132
:101FC00090918321A0918421B0918521892B8A2B26
:101FD0008B2BA9F086E99BE30E948D2AC82F86E906
:101FE0009BE30E94DC29C80F8EEB9BE30E945F2BD2
:101FF000C80F8EEB9BE30E94EE2AC80F0AC086E949
:102000009BE30E94C841C82F8EEB9BE30E94C8410E
:10201000C80FCC2341F081E89EE29F938F930E94EA
:1020200085840F900F90809185218F9380918421DA
:102030008F93809183218F93809182218F9389E860
:102040009EE29F938F930E9485840F900F900F9034
:102050000F900F900F908C2FCF91089587E99EE2FB
:102060009F938F938CE99EE29F938F930E94858428
:102070000F900F900F900F90409162206CE080E0E5
:1020800090E20C94E17FCF936091BE247091BF24C5
:1020900084E89BE30E94B119C82F8823C1F0809186
:1020A000C1248F938091C0248F938091BF248F93FC
:1020B0008091BE248F938FEA9EE29F938F930E941C
:1020C00085840F900F900F900F900F900F908C2F92
:1020D000CF91089580919A2490919B24A0919C2463
:1020E000B0919D2421E00097A105B10519F020933E
:1020F000A50602C02093A606BF93AF939F938F932C
:1021000088ED9EE29F938F930E9485840F900F909D
:102110000F900F900F900F9080E0089580916C22A7
:1021200090916D22A0916E22B0916F228130910525
:10213000A105B10539F460917E2270917F2286E974
:102140009BE30AC00297A105B10511F560917E22BB
:1021500070917F228EEB9BE30E94E5281F928F9364
:1021600088EE9EE29F938F930E9485840F900F903C
:102170000F900F9083E090E0A0E0B0E080936C229D
:1021800090936D22A0936E22B0936F2280E0089509
:1021900085EE9BE20E949F8481E00895CF93809119
:1021A0006C2290916D22A0916E22B0916F228130AD
:1021B0009105A105B10561F4609190227091912281
:1021C0004091A22286E99BE30E949729C82F16C05E
:1021D0000297A105B10561F460919022709191225E
:1021E0004091A2228EEB9BE30E949729C82F06C044
:1021F00085EE9BE20E949F8481E013C0CC2321F0F6
:1022000089EF9EE20E949F8483E090E0A0E0B0E02E
:1022100080936C2290936D22A0936E22B0936F22D4
:102220008C2FCF9108951F920F920FB60F92112409
:102230000BB60F922F933F934F935F936F937F93C0
:102240008F939F93AF93BF93EF93FF9320E040E072
:1022500050E060E070E084ED94E20E943B5AFF9110
:10226000EF91BF91AF919F918F917F916F915F910E
:102270004F913F912F910F900BBE0F900FBE0F907B
:102280001F9018951F920F920FB60F9211240BB644
:102290000F922F933F934F935F936F937F938F93FF
:1022A0009F93AF93BF93EF93FF9384ED94E20E94CB
:1022B000AC5AFF91EF91BF91AF919F918F917F9118
:1022C0006F915F914F913F912F910F900BBE0F90A7
:1022D0000FBE0F901F9018951F93CF93DF9380919F
:1022E00050008260809350008091510081FFFCCFAC
:1022F00098ED94BF81E08093400017E01093A20016
:10230000F89494BF8093960061E087E695E20E947E
:10231000D950C82F65E080E295E20E94F051C80FC5
:1023200023E641E063E77AE38FE89BE30E940D71C7
:1023300023E641E067ED7AE388E99BE30E940D71B3
:1023400061E084ED94E20E94DF5AD82F60E082E7DA
:1023500095E20E94E9468C0FC82FCD0F1093A20082
:102360008091A20080688093A20078940E944070BF
:102370008AE00E94D96F20E148E061E080E092E0CD
:102380000E94F86A20E149E062E080E092E00E9469
:10239000F86A8C2FDF91CF911F910895CF938130F0
:1023A000D1F586E99BE30E948D2AC82F65E372E888
:1023B00080E090E00E94FD0786E99BE30E94DC2913
:1023C000C80F65E176E185E090E00E94FD0763E0DB
:1023D00070E086E99BE30E94E5288EEB9BE30E9478
:1023E0005F2BC80F65E372E880E090E00E94FD0774
:1023F0008EEB9BE30E94EE2AC80F65E176E185E053
:1024000090E00E94FD0763E070E08EEB9BE30E948A
:10241000E5288C2F01C081E0CF9108958091EF24B1
:102420000E94CE11882341F08DE19FE29F938F930C
:102430000E9485840F900F9080E00895E0EAF6E016
:1024400084E0868382E086830E94977063E070E078
:1024500086E99BE30E94E52863E070E08EEB9BE356
:102460000E94E52880E008950E941E12882341F012
:1024700081E89EE29F938F930E9485840F900F9036
:1024800080E00895CF9386E39FE20E949F840E949C
:102490001E12C82F882341F08DE59FE29F938F93F2
:1024A0000E9485840F900F908C2FCF91089580E02B
:1024B000089580E0089587E99EE29F938F938CE9C9
:1024C0009EE29F938F930E94858488E79FE29F936B
:1024D0008F938FE79FE29F938F930E9485848BE871
:1024E0009FE29F938F9381EA9FE29F938F930E9435
:1024F00085848FEA9FE29F938F9383EC9FE29F9363
:102500008F930E9485848DB79EB740968DBF9EBFE6
:1025100080E008950E945B12882341F081E89EE2EA
:102520009F938F930E9485840F900F9080E0089571
:10253000CF93DF931F921F92CDB7DEB7AE014F5FEF
:102540005F4F61E080E092E00E94A06B8A818F93F0
:1025500089818F9381ED9FE29F938F930E94858461
:10256000AE014F5F5F4F62E080E092E00E94A06B9F
:102570008A818F9389818F938FED9FE29F938F93B1
:102580000E948584CDBFDEBF80E00F900F90DF9169
:10259000CF9108950E949812882341F08DEE9FE21A
:1025A0009F938F930E9485840F900F9080E00895F1
:1025B000CF92DF92EF92FF920F931F93CF93DF930F
:1025C0008B3068F5062F06950695069590E2099FD3
:1025D000800111241A5F677021E030E07901062E36
:1025E00001C0EE0C0A94EAF7CE2CF801E682C82F5F
:1025F000D0E0CC0FDD1FD12C8D2D90E08C179D07E6
:1026000054F465E176E185E090E00E94FD07F80171
:10261000C782D394F1CFF801E68280E001C081E067
:10262000DF91CF911F910F91FF90EF90DF90CF90AE
:1026300008956CE2809116210E94D812882341F0FF
:1026400083E190E39F938F930E9485840F900F9076
:1026500080E00895EF92FF920F931F93CF93DF9343
:10266000C0E0D0E03BE1E32E30E3F32E04E210E3E0
:10267000CE0183709927892B51F4DF93CF93FF927A
:10268000EF920E9485840F900F900F900F906C2F07
:1026900086E89BE30E94A91F880F892F881F990B4A
:1026A00091959F938F931F930F930E9485842196FA
:1026B0000F900F900F900F90C830D105C9F68AE0A7
:1026C00090E0DF91CF911F910F91FF90EF900C94CC
:1026D0009984EF92FF920F931F93CF93DF93C0E003
:1026E000D0E03BE1E32E30E3F32E04E210E3CE0131
:1026F00083709927892B51F4DF93CF93FF92EF9248
:102700000E9485840F900F900F900F906C2F8BE795
:102710009BE30E94A91F880F892F881F990B919511
:102720009F938F931F930F930E94858421960F9000
:102730000F900F900F90C830D105C9F68AE090E055
:10274000DF91CF911F910F91FF90EF900C9499849E
:10275000EF92FF920F931F93CF93DF938DE290E35D
:102760000E949F84C0E0D0E00AE310E39BE1E92EE1
:1027700090E3F92ECE0103978D3F9105F0F0CE0145
:1027800083709927892B51F4DF93CF93FF92EF92B7
:102790000E9485840F900F900F900F90BE0186E9E4
:1027A0009BE30E94E5281F928F931F930F930E9433
:1027B00085840F900F900F900F902196C83881E07C
:1027C000D807C1F682E490E30E949F84C0E0D0E085
:1027D0000AE310E38BE1E82E80E3F82ECE010397A5
:1027E0008D3F9105F0F0CE0183709927892B51F42C
:1027F000DF93CF93FF92EF920E9485840F900F900A
:102800000F900F90BE018EEB9BE30E94E5281F9274
:102810008F931F930F930E9485840F900F900F90BA
:102820000F902196C83881E0D807C1F68AE090E081
:10283000DF91CF911F910F91FF90EF900C949984AD
:10284000CF93DF938EE490E30E949F84C0E8D6E0AC
:10285000888581701F928F938BE690E39F938F936F
:102860000E9485848885829581701F928F9387E866
:1028700090E39F938F930E94858461E086E89BE3B9
:102880000E94A91F9F938F9382EA90E39F938F9357
:102890000E94858461E086E89BE30E94A91F9F93C4
:1028A0008F9382EC90E39F938F930E94858461E0E5
:1028B0008BE79BE30E94A91F9F938F9381EE90E388
:1028C0009F938F930E94858461E08BE79BE30E9436
:1028D000A91F9F938F9380E091E39F938F930E9412
:1028E000858463E070E086E99BE30E94E5281F92FF
:1028F0008F938FE191E39F938F930E94858463E090
:1029000070E08EEB9BE30E94E5281F928F938EE38D
:1029100091E39F938F930E9485848DB79EB7809695
:102920008DBF9EBF8AE090E00E9499840E94A81308
:102930008AE090E00E9499848CE591E30E949F8454
:102940000E942A138AE791E30E949F840E946913E0
:1029500080E0DF91CF9108950E942014882341F0F8
:1029600081E89EE29F938F930E9485840F900F9041
:1029700080E00895E0E2F5E290E0A481B5812C9139
:10298000281307C02EE0929FC0011124805E9A4D4B
:1029900008959F5F3E96953081F780E090E008951E
:1029A0008F929F92AF92BF92CF92DF92EF92FF925F
:1029B0000F931F93CF93DF9300EA16E081E0F801B5
:1029C0008183868390E8E92E96E0F92E22E0A22EFC
:1029D000F701A182A58230E2B32EB182B582828353
:1029E000D4E0D183D68388E08183858340E1842E3F
:1029F000828250E4952E9182968280E8818385833D
:102A00006AE07BE882E090E00E94FD07F801D18354
:102A1000D5836AE27CE28AE090E00E94FD07F8013B
:102A2000A182A5826AE27CE28AE090E00E94FD0732
:102A3000E0E0F6E0A182A5822CE335E24FE75BE31C
:102A40006AE87BE384E89BE30E94A816C82F84E829
:102A50009BE30E94D716C80F60E084E89BE30E94C6
:102A60000A1BC80F84E89BE30E949A17C80F64E40E
:102A700076E084E89BE30E94B119C80F8CE10E94C4
:102A8000BA148C012FE73BE34AE85BE363EC74E2A2
:102A900086E89BE30E94E41EC80F86E89BE30E9441
:102AA0002E1FC80F60E6C62E66E0D62EF60186827F
:102AB0008582958288E10E94BA149C014FE75BE30E
:102AC0006AE87BE386E99BE30E94B628C80FF7011A
:102AD000A68265E372E880E090E00E94FD0786E947
:102AE0009BE30E941324C80F65E176E185E090E046
:102AF0000E94FD078DE10E94BA148C012FE73BE391
:102B00004AE85BE362EC74E28BE79BE30E94E41E1D
:102B1000C80F8BE79BE30E942E1FC80FF601B682F9
:102B2000B58289E10E94BA149C014FE75BE36AE831
:102B30007BE38EEB9BE30E94B628C80FF701B682B9
:102B400065E372E880E090E00E94FD078EEB9BE376
:102B50000E941324C80F65E176E185E090E00E94B1
:102B6000FD07D09326068C2FDF91CF911F910F91F7
:102B7000FF90EF90DF90CF90BF90AF909F908F909D
:102B800008950E94D014E0EAF6E094E0968392E083
:102B9000968308950E94C115882341F081E89EE242
:102BA0009F938F930E9485840F900F9080E00895EB
:102BB0000E94D014882341F081E89EE29F938F9376
:102BC0000E9485840F900F9080E00895843689F5E7
:102BD00083E090E0A0E0B0E0809320239093212355
:102BE000A0932223B09323238FE090E0A0E0B0E0F5
:102BF0008093322390933323A0933423B0933523CF
:102C00001092562310925723109258231092592352
:102C1000109268231092692310926A2310926B23FA
:102C200010929E2310929F231092A0231092A12312
:102C300058C08037C9F483E090E0A0E0B0E0809312
:102C4000D4239093D523A093D623B093D7238FE09A
:102C500090E0A0E0B0E08093E6239093E723A09378
:102C6000E823B093E9233DC0823669F483E090E025
:102C7000A0E0B0E080936C2290936D22A0936E222E
:102C8000B0936F222EC0813661F583E090E0A0E022
:102C9000B0E08093B4229093B522A093B622B09373
:102CA000B7228FE090E0A0E0B0E08093C62290933E
:102CB000C722A093C822B093C92281E190E0A0E08E
:102CC000B0E08093D8229093D922A093DA22B093D7
:102CD000DB228093FC229093FD22A093FE22B093EE
:102CE000FF2280E0089580E0089580E0089510922A
:102CF000A6211092A7211092A8211092A92180E06C
:102D0000089589E991E39F938F930E9485840F90A2
:102D10000F9080E008950F931F938A012CE040E00C
:102D200050E20E94027981508D3070F440E06CE0F6
:102D300080E090E20E94E17F81EB91E39F938F938B
:102D40000E9485840F900F9080E01F910F9108954D
:102D5000CF93DF93CDB7DEB72897CDBFDEBF898392
:102D60009A836B837C834D835E832F83388789812D
:102D70009A81009711F481E014C089819A812F8192
:102D80003885FC01208331838B819C8180933B3B80
:102D900090933C3B8D819E8180933D3B90933E3B45
:102DA00080E02896CDBFDEBFDF91CF910895CF930D
:102DB000DF931F921F92CDB7DEB789839A838981F3
:102DC0009A81009711F481E0B0C020913B3B309193
:102DD0003C3B80913D3B90913E3B41E0B9010E94DC
:102DE000571C89819A81FC0180819181FC0120819D
:102DF000318140913B3B50913C3B60913D3B709118
:102E00003E3B89819A81FC0180819181F90119956C
:102E100020913B3B30913C3B80913D3B90913E3B30
:102E200040E0B9010E941C1D89819A81FC018081CA
:102E30009181FC012081318140913B3B50913C3B91
:102E400060913D3B70913E3B89819A81FC0180817C
:102E50009181F901199560913B3B70913C3B8091C8
:102E60003D3B90913E3B2FE043E00E94D31C898183
:102E70009A81FC0180819181FC0120813181409106
:102E80003B3B50913C3B60913D3B70913E3B898187
:102E90009A81FC0180819181F901199520913B3B38
:102EA00030913C3B80913D3B90913E3B40E050E077
:102EB000B9010E94D31B89819A81FC018081918193
:102EC000FC012081318140913B3B50913C3B609122
:102ED0003D3B70913E3B89819A81FC0180819181CB
:102EE000F901199520913B3B30913C3B80913D3B52
:102EF00090913E3BB9010E941C1C89819A81FC0182
:102F000080819181FC012081318140913B3B509136
:102F10003C3B60913D3B70913E3B89819A81FC0135
:102F200080819181F901199580E00F900F90DF91D8
:102F3000CF910895CF93DF931F921F92CDB7DEB745
:102F400089839A8389819A81009711F481E06EC008
:102F500089819A810E94D71620913B3B30913C3B5E
:102F600080913D3B90913E3B4FEF57E0B9010E946D
:102F7000D31B89819A81FC0180819181FC01208190
:102F8000318140913B3B50913C3B60913D3B709186
:102F90003E3B89819A81FC0180819181F9011995DB
:102FA00020913B3B30913C3B80913D3B90913E3B9F
:102FB000B9010E941C1C89819A81FC018081918148
:102FC000FC012081318140913B3B50913C3B609121
:102FD0003D3B70913E3B89819A81FC0180819181CA
:102FE000F901199560913B3B70913C3B80913D3BD1
:102FF00090913E3B2FE040E00E94D31C89819A8152
:10300000FC0180819181FC012081318140913B3B19
:1030100050913C3B60913D3B70913E3B89819A8150
:10302000FC0180819181F901199580E00F900F904A
:10303000DF91CF910895CF93DF931F921F92CDB769
:10304000DEB789839A8389819A81009711F481E0A0
:1030500001C080E00F900F90DF91CF910895CF9342
:10306000DF931F921F92CDB7DEB789839A83898140
:103070009A81009711F481E024C060913B3B7091EC
:103080003C3B80913D3B90913E3B2FE043E00E94D2
:10309000D31C89819A81FC0180819181FC0120816E
:1030A000318140913B3B50913C3B60913D3B709165
:1030B0003E3B89819A81FC0180819181F9011995BA
:1030C00080E00F900F90DF91CF910895CF93DF9321
:1030D0001F921F92CDB7DEB789839A8389819A8127
:1030E000009711F481E024C020913B3B30913C3BA0
:1030F00080913D3B90913E3B41E0B9010E94951C7F
:1031000089819A81FC0180819181FC01208131813A
:1031100040913B3B50913C3B60913D3B70913E3B2D
:1031200089819A81FC0180819181F901199580E062
:103130000F900F90DF91CF910895CF93DF931F925F
:103140001F92CDB7DEB789839A8389819A810097D0
:1031500011F481E024C060913B3B70913C3B809135
:103160003D3B90913E3B2FE043E00E94D31C898180
:103170009A81FC0180819181FC0120813181409103
:103180003B3B50913C3B60913D3B70913E3B898184
:103190009A81FC0180819181F901199580E00F905D
:1031A0000F90DF91CF910895CF93DF9300D000D09F
:1031B000CDB7DEB789839A834B835C836D837E832F
:1031C00089819A81009711F481E029C060913B3B8D
:1031D00070913C3BE0913D3BF0913E3B8B819C816B
:1031E000AD81BE819C01AD01CF010E945A1D898134
:1031F0009A81FC0180819181FC0120813181409183
:103200003B3B50913C3B60913D3B70913E3B898103
:103210009A81FC0180819181F901199580E02696BF
:10322000CDBFDEBFDF91CF910895CF93DF931F9283
:103230001F92CDB7DEB789839A8389819A810097DF
:1032400011F481E024C060913B3B70913C3B809144
:103250003D3B90913E3B2FE043E00E94D31C89818F
:103260009A81FC0180819181FC0120813181409112
:103270003B3B50913C3B60913D3B70913E3B898193
:103280009A81FC0180819181F901199580E00F906C
:103290000F90DF91CF910895CF93DF93CDB7DEB735
:1032A0002597CDBFDEBF89839A836B837C834D8353
:1032B00089819A81009711F480E04DC08D8184301E
:1032C00010F082E048C060913B3B70913C3B8091A4
:1032D0003D3B90913E3B4B815C812D810E944A1B7E
:1032E00089819A81FC0180819181FC012081318159
:1032F00040913B3B50913C3B60913D3B70913E3B4C
:1033000089819A81FC0180819181F901199520912F
:103310003B3B30913C3B80913D3B90913E3B4D810E
:10332000B9010E94951B89819A81FC01808191815C
:10333000FC012081318140913B3B50913C3B6091AD
:103340003D3B70913E3B89819A81FC018081918156
:10335000F901199580E02596CDBFDEBFDF91CF91B1
:103360000895CF93DF9300D01F92CDB7DEB7898346
:103370009A836B837C8389819A81009711F481E021
:1033800047C020913B3B30913C3B80913D3B90912D
:103390003E3B4B815C81B9010E94D31B89819A819C
:1033A000FC0180819181FC012081318140913B3B76
:1033B00050913C3B60913D3B70913E3B89819A81AD
:1033C000FC0180819181F901199520913B3B30915D
:1033D0003C3B80913D3B90913E3BB9010E941C1CBF
:1033E00089819A81FC0180819181FC012081318158
:1033F00040913B3B50913C3B60913D3B70913E3B4B
:1034000089819A81FC0180819181F901199580E07F
:103410002496CDBFDEBFDF91CF910895CF93DF9388
:1034200000D0CDB7DEB789839A836B8389819A8177
:10343000009711F481E033C08B81843010F082E07A
:103440002EC08B81282F30E081E090E002C0880FF1
:10345000991F2A95E2F7282F60913B3B70913C3BE6
:1034600080913D3B90913E3B40E00E94D31C89817E
:103470009A81FC0180819181FC0120813181409100
:103480003B3B50913C3B60913D3B70913E3B898181
:103490009A81FC0180819181F901199580E0239640
:1034A000CDBFDEBFDF91CF910895CF93DF931F9201
:1034B0001F92CDB7DEB789839A8389819A8100975D
:1034C00011F481E024C060913B3B70913C3B8091C2
:1034D0003D3B90913E3B2FE040E00E94D31C898110
:1034E0009A81FC0180819181FC0120813181409190
:1034F0003B3B50913C3B60913D3B70913E3B898111
:103500009A81FC0180819181F901199580E00F90E9
:103510000F90DF91CF910895CF93DF9300D0CDB777
:10352000DEB789839A836B8389819A81009711F42E
:1035300081E033C08B81843010F082E02EC08B811B
:10354000282F30E081E090E002C0880F991F2A9573
:10355000E2F7282F60913B3B70913C3B80913D3BD3
:1035600090913E3B43E00E94D31C89819A81FC01EB
:1035700080819181FC012081318140913B3B5091C0
:103580003C3B60913D3B70913E3B89819A81FC01BF
:1035900080819181F901199580E02396CDBFDEBF2E
:1035A000DF91CF910895CF93DF931F921F92CDB7F4
:1035B000DEB789839A8389819A81009711F481E02B
:1035C00024C060913B3B70913C3B80913D3B90918E
:1035D0003E3B2FE043E00E94D31C89819A81FC018D
:1035E00080819181FC012081318140913B3B509150
:1035F0003C3B60913D3B70913E3B89819A81FC014F
:1036000080819181F901199580E00F900F90DF91F1
:10361000CF910895CF93DF9300D0CDB7DEB78983E4
:103620009A836B8389819A81009711F481E02CC081
:103630008B81813029F08B81882311F082E024C0B6
:1036400020913B3B30913C3B80913D3B90913E3BF8
:103650004B81B9010E94571C89819A81FC018081AC
:103660009181FC012081318140913B3B50913C3B59
:1036700060913D3B70913E3B89819A81FC01808144
:103680009181F901199580E02396CDBFDEBFDF91CE
:10369000CF910895CF93DF93CDB7DEB72797CDBFF6
:1036A000DEBF89839A836B837C834D835E832F8304
:1036B00089819A81FC01108289819A8123E0FC0131
:1036C000218389819A8123E0FC01248389819A8165
:1036D000FC01828193812F81FC01208389819A8161
:1036E000FC018281938101962D813E813F7032954C
:1036F00022952F7023273F702327FC012083898187
:103700009A81FC018281938102962D812295207FEE
:10371000FC0120838B819C81FC0114820000279690
:10372000CDBFDEBFDF91CF910895CF93DF93CDB7AB
:10373000DEB72597CDBFDEBF89839A836B837C83F9
:103740004D8389819A81FC01108289819A8123E0CD
:10375000FC01218389819A8123E0FC0124838981F2
:103760009A81FC01828193812D812860FC01208354
:1037700089819A81FC01828193810196FC011082EA
:1037800089819A81FC01828193810296FC011082D9
:103790008B819C81FC01148200002596CDBFDEBF89
:1037A000DF91CF910895CF93DF9300D000D0CDB7B4
:1037B000DEB789839A836B837C834D835E838981A3
:1037C0009A81FC01108289819A8123E0FC01218386
:1037D00089819A8123E0FC01248389819A81FC01FB
:1037E0008281938127E0FC01208389819A81FC01F9
:1037F0008281938101962D813E813F703295229581
:103800002F7023273F702327FC01208389819A8111
:10381000FC018281938102962D812295207FFC01FB
:1038200020838B819C81FC01148200002696CDBFF1
:10383000DEBFDF91CF910895CF93DF9300D01F9229
:10384000CDB7DEB789839A836B837C8389819A8124
:10385000FC01108289819A8123E0FC012183898106
:103860009A8123E0FC01248389819A81FC01828171
:1038700093812FE0FC01208389819A81FC01828160
:1038800093810196FC01108289819A81FC018281D9
:1038900093810296FC0110828B819C81FC01148231
:1038A00000002496CDBFDEBFDF91CF910895CF9366
:1038B000DF93CDB7DEB72597CDBFDEBF89839A836F
:1038C0006B837C834D8389819A81FC01108289817D
:1038D0009A8123E0FC01218389819A8123E0FC0104
:1038E000248389819A81FC018281938128E3FC01F0
:1038F000208389819A81FC01828193810196FC0158
:10390000108289819A81FC018281938102962D81A6
:10391000FC0120838B819C81FC0114820000259690
:10392000CDBFDEBFDF91CF910895CF93DF93CDB7A9
:10393000DEB72597CDBFDEBF89839A836B837C83F7
:103940004D8389819A81FC01108289819A8123E0CB
:10395000FC01218389819A8123E0FC0124838981F0
:103960009A81FC018281938128E2FC012083898174
:103970009A81FC01828193810196FC0110828981E8
:103980009A81FC018281938102962D81FC01208322
:103990008B819C81FC01148200002596CDBFDEBF87
:1039A000DF91CF910895CF93DF9300D000D0CDB7B2
:1039B000DEB789839A836B837C834D832E838981D1
:1039C0009A81FC01108289819A8123E0FC01218384
:1039D00089819A8123E0FC01248389819A81FC01F9
:1039E0008281938120E2FC01208389819A81FC01FC
:1039F000828193810196FC01108289819A81FC0168
:103A00008281938102962D81222F30E0229532957A
:103A1000307F3227207F3227322F2E81232BFC014B
:103A200020838B819C81FC01148200002696CDBFEF
:103A3000DEBFDF91CF910895CF93DF93CDB7DEB78F
:103A40002597CDBFDEBF89839A836B837C834D83AB
:103A500089819A81FC01108289819A8123E0FC018D
:103A6000218389819A8123E0FC01248389819A81C1
:103A7000FC018281938120E3FC01208389819A816A
:103A8000FC01828193810196FC01108289819A81D7
:103A9000FC018281938102962D81FC0120838B8120
:103AA0009C81FC01148200002596CDBFDEBFDF9112
:103AB000CF910895CF93DF93CDB7DEB72897CDBFD1
:103AC000DEBF89839A836B837C832D833E834F8300
:103AD000588789819A81FC01108289819A8123E02B
:103AE000FC01218389819A8123E0FC01248389815F
:103AF0009A81FC01228133818D819E81AF81B885BD
:103B0000CD01AA27BB27F901808389819A81FC0115
:103B1000828193819C012F5F3F4F8D819E81AF8178
:103B2000B885892F9A2FAB2FBB27F9018083898114
:103B30009A81FC018281938102962D81FC01208370
:103B40008B819C81FC01148200002896CDBFDEBFD2
:103B5000DF91CF910895CF92DF92EF92FF920F9372
:103B60001F93CF93DF93CDB7DEB72897CDBFDEBFCE
:103B700089839A836B834C835D832E830F8318879D
:103B800089819A81FC01A281B3818E81282F30E046
:103B90008C819D81AC0102C0440F551F2A95E2F72C
:103BA00080913F3B9091403BFC01228133816091A9
:103BB0003F3B7091403B8091413B9091423BEF8174
:103BC000F8856D017F018A014B810E940023898164
:103BD0009A81FC0180819181FC0120813181409199
:103BE0003F3B5091403B6091413B7091423B89810A
:103BF0009A81FC0180819181F90119950000289634
:103C0000CDBFDEBFDF91CF911F910F91FF90EF905D
:103C1000DF90CF9008950F931F93CF93DF93CDB78D
:103C2000DEB72597CDBFDEBF8B839C836D83198262
:103C30001A8289819A81806189839A8349815A8114
:103C40008B819C810FEF10E020E065E00E94AB1DAE
:103C50008B819C81FC012281338160913F3B70917B
:103C6000403B8091413B9091423B4D810E94952386
:103C70008B819C81FC0180819181FC0120813181BB
:103C800040913F3B5091403B6091413B7091423BA2
:103C90008B819C81FC0180819181F90119951092A1
:103CA000433B1092443B80913F3B9091403BFC0151
:103CB00082819381FC018081882F90E0880F991F79
:103CC000382F22278091433B9091443B822B932BAA
:103CD0008093433B9093443B80913F3B9091403B8A
:103CE000FC01828193810196FC018081882F90E004
:103CF0009C01220F331F8091433B9091443B822BC8
:103D0000932B8093433B9093443B80913F3B909116
:103D1000403BFC01828193810296FC018081881FD7
:103D20008827881F882F90E09C012170332780917D
:103D3000433B9091443B822B932B8093433B909346
:103D4000443B8B819C8165E00E9437228091433BFC
:103D50009091443B880F892F881F990B91958983F7
:103D60009A8380913F3B9091403BFC0182819381FB
:103D70000296FC01108280913F3B9091403BFC01F8
:103D80008281938101962981279522272795FC011D
:103D9000208380913F3B9091403BFC018281938145
:103DA00029813A8136952795FC01208380913F3BFC
:103DB0009091403BFC0180812596CDBFDEBFDF9115
:103DC000CF911F910F9108950F931F93CF93DF937E
:103DD000CDB7DEB72A97CDBFDEBF89839A836B83C9
:103DE0007C834D835E832F83388709871A87898177
:103DF0009A81009711F481E029C08D819E810097FE
:103E000041F08F819885009721F089859A850097E8
:103E100011F483E01BC089819A812B813C81FC01D4
:103E20002283338389819A8129853A85FC01208305
:103E300031838D819E8180933F3B9093403B8F8166
:103E400098858093413B9093423B80E02A96CDBF7A
:103E5000DEBFDF91CF911F910F910895CF93DF9334
:103E600000D0CDB7DEB78A839B838A819B81009780
:103E700011F481E00EC0198208C08A819B8169819A
:103E80000E94372289818F5F898389818830A8F3D6
:103E900080E02396CDBFDEBFDF91CF910895CF9311
:103EA000DF931F921F92CDB7DEB789839A838981F2
:103EB0009A81009711F481E001C080E00F900F908B
:103EC000DF91CF910895CF93DF931F921F92CDB7CB
:103ED000DEB789839A8389819A81009711F481E002
:103EE0000AC089819A8160E00E940B1E882311F02C
:103EF00082E001C080E00F900F90DF91CF91089594
:103F00000F931F93CF93DF93CDB7DEB72597CDBF28
:103F1000DEBF89839A836B834C835D8389819A8119
:103F2000009719F481E090E00CC04C815D8189819B
:103F30009A810FEF1FEF20E06B810E94AB1D80E0A4
:103F400090E02596CDBFDEBFDF91CF911F910F91FD
:103F50000895CF93DF9300D0CDB7DEB789839A83DE
:103F60006B8389819A81009719F481E090E009C000
:103F700089819A816B810E940B1E8091433B9091B5
:103F8000443B2396CDBFDEBFDF91CF910895CF9301
:103F9000DF9300D01F92CDB7DEB789839A836B83FE
:103FA0007C8380E02496CDBFDEBFDF91CF91089562
:103FB000CF93DF9300D01F92CDB7DEB789839A836A
:103FC0006B837C8380E02496CDBFDEBFDF91CF91F1
:103FD00008950F931F93CF93DF9300D01F92CDB717
:103FE000DEB789839A836B837C8389819A8100976A
:103FF00011F481E01BC08B819C818630910530F0EB
:1040000083E795E20E949F8483E010C089819A81B2
:1040100062E00E940B1E4B815C8189819A8103E0E2
:1040200010E020E062E00E94AB1D80E02496CDBF4E
:10403000DEBFDF91CF911F910F910895CF93DF9352
:104040001F921F92CDB7DEB789839A8389819A81A7
:10405000009711F481E01BC089819A8162E00E947F
:10406000A91F880F892F881F990B9195292F2F93AE
:104070008F938AE995E2892F8F938AE995E28F934E
:104080000E9485840F900F900F900F9080E00F900A
:104090000F90DF91CF9108950F931F93CF93DF93EC
:1040A00000D01F92CDB7DEB789839A836B837C8360
:1040B00089819A81009711F481E01BC08B819C81DA
:1040C0008230910530F082EA95E20E949F8483E07D
:1040D00010C089819A8166E00E940B1E4B815C8131
:1040E00089819A8101E010E022E066E00E94AB1D28
:1040F00080E02496CDBFDEBFDF91CF911F910F915D
:104100000895CF93DF931F921F92CDB7DEB78983B7
:104110009A8389819A81009711F481E01BC089817B
:104120009A8166E00E94A91F880F892F881F990B2A
:104130009195292F2F938F938AE995E2892F8F9359
:104140008AE995E28F930E9485840F900F900F90DB
:104150000F9080E00F900F90DF91CF9108950F9313
:104160001F93CF93DF9300D01F92CDB7DEB7898323
:104170009A836B837C8389819A81009711F481E013
:104180003FC08B819C818E33910530F08CED95E2A0
:104190000E949F8483E034C08B819C818D33910584
:1041A00081F489819A8164E00E940B1E89819A8141
:1041B00000E110E024E040E050E064E00E94AB1D2C
:1041C0001EC089819A8164E00E940B1E89819A81B8
:1041D00000E110E024E041E050E064E00E94AB1D0B
:1041E00089819A8167E00E940B1E4B815C818981E5
:1041F0009A810FE310E020E067E00E94AB1D80E0B1
:104200002496CDBFDEBFDF91CF911F910F9108950E
:10421000CF93DF931F921F92CDB7DEB789839A8326
:1042200089819A81009711F481E01BC089819A816C
:1042300067E00E94A91F880F892F881F990B91950D
:10424000292F2F938F938AE995E2892F8F938AE9FB
:1042500095E28F930E9485840F900F900F900F909E
:1042600080E00F900F90DF91CF9108950F931F93EF
:10427000CF93DF9300D0CDB7DEB78A839B838A814B
:104280009B81009711F481E023C08A819B8166E0C5
:104290000E94A91F898389818E7F89838981482F04
:1042A00050E08A819B810FEF1FEF20E066E00E94C3
:1042B000AB1D8981816089838981482F50E08A8183
:1042C0009B810FEF1FEF20E066E00E94AB1D80E0B6
:1042D0002396CDBFDEBFDF91CF911F910F9108953F
:1042E0000F931F93CF93DF9300D0CDB7DEB78A83B0
:1042F0009B838A819B81009711F481E031C08A8180
:104300009B8166E00E94A91F898389818D7F8983B3
:104310008981482F50E08A819B810FEF1FEF20E0B9
:1043200066E00E94AB1D8981826089838981482F64
:1043300050E08A819B810FEF1FEF20E066E00E9432
:10434000AB1D89818D7F89838981482F50E08A81C7
:104350009B810FEF1FEF20E066E00E94AB1D80E025
:104360002396CDBFDEBFDF91CF911F910F910895AE
:104370000F931F93CF93DF93CDB7DEB72597CDBFB4
:10438000DEBF8A839B836C837D838A819B810097B8
:1043900011F481E028C08C819D818230910530F03C
:1043A00082E096E20E949F8483E01DC08A819B8107
:1043B00064E00E94A91F89838C819D81009721F070
:1043C00089818260898303C089818D7F8983898106
:1043D000482F50E08A819B810FEF1FEF20E064E0BF
:1043E0000E94AB1D80E02596CDBFDEBFDF91CF914F
:1043F0001F910F910895CF93DF931F921F92CDB716
:10440000DEB789839A8389819A8164E00E94A91F1B
:10441000292F2F938F9388E296E2892F8F9388E23A
:1044200096E28F930E9485840F900F900F900F90CB
:1044300089819A8164E00E94A91F892F9927817040
:104440009927292F2F938F938AE995E2892F8F93AC
:104450008AE995E28F930E9485840F900F900F90C8
:104460000F9080E00F900F90DF91CF9108950F9300
:104470001F93CF93DF93CDB7DEB72597CDBFDEBFB8
:104480008B839C836D8319821A828D81882F90E0A3
:10449000AA2797FDA095BA2F40E050E027E030E032
:1044A000841B950B2817390708F4A2C0FC01882744
:1044B000EC50FF4F8F4F0C94028319821A8249816E
:1044C0005A818B819C810FEF1FEF20E06D810E944C
:1044D000AB1D8EC089819A81886089839A83898186
:1044E0009A81846089839A8389819A818260898391
:1044F0009A8389819A81816089839A8349815A81CB
:104500008B819C810FEF1FEF20E06D810E94AB1D1E
:104510006FC089819A81816089839A8349815A8198
:104520008B819C810FEF1FEF20E06D810E94AB1DFE
:104530005FC089819A81826089839A8389819A8107
:10454000886089839A8389819A81806389839A8329
:1045500049815A818B819C810FEF1FEF20E06D8193
:104560000E94AB1D45C089819A81886089839A83A6
:1045700089819A81826089839A8389819A81816005
:1045800089839A8349815A818B819C810FEF1FEF28
:1045900020E06D810E94AB1D2BC089819A818062D1
:1045A00089839A8349815A818B819C810FEF1FEF08
:1045B00020E06D810E94AB1D1BC089819A818160C2
:1045C00089839A8349815A818B819C810FEF1FEFE8
:1045D00020E06D810E94AB1D0BC049815A818B8107
:1045E0009C810FEF1FEF20E06D810E94AB1D00004A
:1045F0002596CDBFDEBFDF91CF911F910F9108951A
:10460000CF92DF92EF92FF920F931F93CF93DF939E
:10461000CDB7DEB72D97CDBFDEBF89839A836B837D
:104620007C834D832E833F8308871987EA86FB8628
:10463000CC86DD86288539858A859B8582239323D0
:104640008887998789819A81FC01108289819A8162
:1046500022E0FC01218389819A8122E0FC012483EC
:1046600089819A81FC01828193812E813F81F901A8
:1046700040812A853B8536952795209542232885BC
:10468000398536952795242BFC01208389819A81D1
:10469000FC018281938101962E813F812F5F3F4FE4
:1046A000F90130812A8527952227279520953223E5
:1046B0002885279522272795232BFC012083898194
:1046C0009A81FC0182819381019629813A81F901C5
:1046D000228133812F5F3F4FF9012081422F4078A3
:1046E0002D81222F30E02F703327220F331F220F0E
:1046F000331F220F331F422B2C853D85F90120816A
:104700002770242BFC0120838B819C81FC01148267
:1047100000002D96CDBFDEBFDF91CF911F910F918D
:10472000FF90EF90DF90CF900895CF93DF93CDB7B8
:10473000DEB72797CDBFDEBF89839A836B837C83E7
:104740004D832E833F8389819A81FC011082898168
:104750009A8122E0FC01218389819A8122E0FC0177
:10476000248389819A81FC01828193812D81269500
:104770002770FC01208389819A81FC0182819381C9
:1047800001962D81222F30E03695322F2227379542
:104790002795422F2E813F81F90120812770242BFC
:1047A000FC0120838B819C81FC0110828B819C8188
:1047B00022E1FC0121838B819C8123E0FC01248385
:1047C0008B819C81FC018281938129813A81F9014D
:1047D00022813381F9012081FC0120838B819C811E
:1047E000FC0182819381019629813A81F90122811C
:1047F0003381F9012181FC0120838B819C81FC01A3
:1048000082819381029629813A81F9012281338143
:10481000F9012181FC01208300002796CDBFDEBF76
:10482000DF91CF910895CF93DF931F921F92CDB761
:10483000DEB789839A8389819A81009711F481E098
:104840001DC089819A8140E960E070E00E9497294B
:1048500089819A8140E160E070E00E949729898116
:104860009A8140E062E070E00E94972989819A81F4
:104870004FE36FE571E00E94972980E00F900F9061
:10488000DF91CF910895CF93DF9300D000D0CDB7C3
:10489000DEB78B839C836D837E83198281E08A835C
:1048A0008D819E81CC01A0E0B0E040E050E028E89E
:1048B00031E0841B950B2817390708F424C2FC014A
:1048C0008827E450FF4F8F4F0C94028389818061C9
:1048D00089831DC289818860898319C28981806426
:1048E000898389818460898312C2898188608983F0
:1048F0008981806289830BC289818B6089838981E8
:104900008061898304C28981806189838981806211
:104910008983898180688983898182608983F7C1DD
:10492000898185608983898180658983F0C18981D6
:1049300088608983ECC189818064898389818460EE
:104940008983E5C1898188608983898180628983BF
:10495000DEC189818B608983898180618983D7C128
:104960008981806189838981806289838981806866
:104970008983898182608983CAC1898185608983AD
:10498000898180658983C3C1898188608983BFC12A
:10499000898180648983898184608983B8C18981A0
:1049A00088608983898180628983B1C189818B60B4
:1049B0008983898180618983AAC189818061898392
:1049C0008981806289838981806889838981826005
:1049D00089839DC189818560898389818065898377
:1049E00096C189818860898392C189818860898321
:1049F0008981806289838BC189818B608983898168
:104A00008061898384C18981806189838981806291
:104A1000898389818068898389818260898377C15C
:104A200089818560898389818065898370C1898155
:104A3000886089836CC1898180648983898184606D
:104A4000898365C18981886089838981806289833E
:104A50005EC189818B60898389818061898357C127
:104A60008981806189838981806289838981806865
:104A700089838981826089834AC18981856089832C
:104A800089818065898343C18981886089833FC129
:104A900089818064898389818460898338C189811F
:104AA0008860898389818062898331C189818B6033
:104AB00089838981806189832AC189818061898311
:104AC0008981806289838981806889838981826004
:104AD00089831DC1898185608983898180658983F6
:104AE00016C189818860898312C189818064898324
:104AF0008981846089830BC18981886089838981E8
:104B00008062898304C189818B6089838981806106
:104B10008983FDC0898180618983898180628983DD
:104B2000898180688983898182608983F0C08981D5
:104B300085608983898180658983E9C089818160F5
:104B40008983898180618983E2C0898182608983C8
:104B5000DEC0898182608983DAC089818860898327
:104B6000D6C0898182608983D2C08981816089832E
:104B7000898188608983CBC0898182608983C7C02D
:104B8000898186608983C3C08981826089838981A4
:104B90008460898389818860898389818061898330
:104BA000898180648983B3C089818F678983AFC01D
:104BB000898180618983ABC089818860898389818B
:104BC00080618983A4C0898182608983A0C0898132
:104BD0008064898389818260898399C089818260A8
:104BE00089838981846089838981806189838FC079
:104BF0008981806C89838BC089818F67898387C015
:104C000089818160898389818260898380C089816B
:104C1000826089837CC089818160898378C0898131
:104C20008160898374C089818160898370C0898132
:104C3000816489836CC089818E6089838981806168
:104C4000898365C089818B61898361C089818A601C
:104C500089835DC089818360898389818863898331
:104C600056C089818460898352C089818460898328
:104C70004EC089818D6089834AC089818D60898316
:104C800046C0898181608983898180618983898126
:104C9000806489833CC089818F61898338C0898120
:104CA0008D6B898334C08981836089838981886021
:104CB00089832DC089818A6A898329C0898182601C
:104CC000898325C089818561898321C08981836326
:104CD00089831DC0898184608983898182608983F9
:104CE00016C08981846089838981826089830FC02D
:104CF00089818064898389818061898308C08981F1
:104D00008D60898304C019821A8201C000008A81E3
:104D1000882341F02D813E818B819C814981B9019D
:104D20000E94972989812696CDBFDEBFDF91CF9162
:104D30000895CF93DF9300D000D0CDB7DEB78B833B
:104D40009C836D837E83198281E08A838D819E811D
:104D5000CC01A0E0B0E040E050E028E831E0841B66
:104D6000950B2817390708F4EBC1FC018827EB578E
:104D7000FD4F8F4F0C940283898180618983E4C148
:104D800089818F608983E0C1898180648983898179
:104D900084608983D9C1898188608983D5C18981EB
:104DA0008061898389818062898389818068898320
:104DB000898182608983C8C189818560898389816D
:104DC00080658983C1C189818F608983BDC18981E3
:104DD00080648983898184608983B6C18981886080
:104DE0008983B2C189818061898389818062898355
:104DF000898180688983898182608983A5C189814D
:104E0000856089838981806589839EC189818F605E
:104E100089839AC189818064898389818460898337
:104E200093C18981886089838FC1898180618983E9
:104E30008981806289838981806889838981826090
:104E4000898382C18981856089838981806589831D
:104E50007BC189818F60898377C1898188608983DB
:104E600073C1898180618983898180628983898115
:104E70008068898389818260898366C18981856030
:104E800089838981806589835FC189818F608983F6
:104E90005BC189818064898389818460898354C1ED
:104EA00089818860898350C18981806189838981F2
:104EB000806289838981806889838981826089830E
:104EC00043C18981856089838981806589833CC1EB
:104ED00089818F60898338C18981806489838981D0
:104EE0008460898331C18981886089832DC18981EA
:104EF00080618983898180628983898180688983CF
:104F000089818260898320C18981856089838981C3
:104F10008065898319C189818F60898315C18981E1
:104F2000806489838981846089830EC189818860D6
:104F300089830AC1898180618983898180628983AB
:104F4000898180688983898182608983FDC08981A4
:104F500085608983898180658983F6C089818160C4
:104F60008983898180618983898180628983ECC09A
:104F7000898183608983E8C089818F608983E4C0E7
:104F8000898188608983E0C0898182608983DCC0EF
:104F9000898181608983898188608983D5C089817D
:104FA00081608983898182608983CEC0898186609E
:104FB0008983CAC08981816089838981846089836A
:104FC00089818860898389818061898389818064FE
:104FD0008983BAC089818F678983B6C089818061DE
:104FE0008983B2C08981886089838981806189834E
:104FF000ABC0898182608983A7C0898180648983ED
:10500000898182608983A0C0898182608983898146
:105010008460898389818061898396C08981806C5D
:10502000898392C089818F6789838EC089818160DD
:10503000898389818260898387C08981826089832D
:1050400083C08981816089837FC0898181608983F0
:105050007BC089818160898377C0898185608983EC
:1050600073C089818E6089838981806189836CC0E6
:1050700089818B61898368C089818A60898364C0E2
:105080008981836089838981886389835DC08981FF
:105090008460898359C08981846089838981806A19
:1050A000898352C08981836089834EC089818360EE
:1050B00089834AC0898181608983898188618983E4
:1050C00089818064898340C089818F6189833CC0E4
:1050D00089818D6B898338C08981836089838981C7
:1050E0008860898331C089818A6A89832DC08981DA
:1050F0008260898329C089818A60898325C08981EA
:105100008561898321C08981836389831DC08981E9
:105110008460898389818260898316C089818460E3
:1051200089838981826089830FC0898180648983B2
:1051300089818061898308C089818D60898304C0E9
:1051400019821A8201C000008A81882341F02D81D2
:105150003E818B819C814981B9010E949729898177
:105160002696CDBFDEBFDF91CF910895CF93DF9319
:10517000CDB7DEB72897CDBFDEBF89839A836B8317
:105180007C834D835E832F83388789819A81009742
:1051900011F481E014C089819A812F813885FC0146
:1051A000208331838B819C818093453B9093463B48
:1051B0008D819E818093473B9093483B80E0289669
:1051C000CDBFDEBFDF91CF910895EF920F93CF93C4
:1051D000DF9300D000D0CDB7DEB78B839C836D8387
:1051E0007E838BE38A836091453B7091463B80913F
:1051F000473B9091483B9E012E5F3F4FE12C00E0E2
:105200004FE551E00E94E1438B819C81FC0180814C
:105210009181FC01208131814091453B5091463B79
:105220006091473B7091483B8B819C81FC01808160
:105230009181F90119958B819C81FC01808191817B
:10524000FC01208131814091453B5091463B60916A
:10525000473B7091483B8B819C81FC01808191810F
:10526000F9011995882311F082E059C02091453B3E
:105270003091463B8091473B9091483B4D815E8108
:10528000B9010E943A448B819C81FC01808191810B
:10529000FC01208131814091453B5091463B60911A
:1052A000473B7091483B8B819C81FC0180819181BF
:1052B000F90119958091453B9091463BFC01828113
:1052C0009381FC01828189838AE38A836091453BD3
:1052D0007091463B8091473B9091483B9E012E5FE9
:1052E0003F4FE12C00E04FE551E00E94E1438B810C
:1052F0009C81FC0180819181FC0120813181409160
:10530000453B5091463B6091473B7091483B8B81B8
:105310009C81FC0180819181F901199589812696F2
:10532000CDBFDEBFDF91CF910F91EF900895EF9247
:105330000F93CF93DF93CDB7DEB72597CDBFDEBFF9
:1053400089839A836B837C834D8389819A810097BB
:1053500011F481E029C06091453B7091463B8091FA
:10536000473B9091483B9E012B5F3F4F4B815C81B7
:10537000E12C00E00E94E14389819A81FC01808157
:105380009181FC01208131814091453B5091463B08
:105390006091473B7091483B89819A81FC018081F3
:1053A0009181F901199580E02596CDBFDEBFDF918F
:1053B000CF910F91EF900895CF93DF931F921F929B
:1053C000CDB7DEB789839A8389819A81009711F4DA
:1053D00081E05EC089819A814DE563E471E00E94BD
:1053E000972989819A8140E069E371E00E949729B9
:1053F00089819A816AE371E00E94432489819A81BC
:105400006BE371E00E94432489819A8140E060E46B
:1054100071E00E94972989819A814DED63E471E0E2
:105420000E94972989819A8140E064E471E00E949A
:10543000972989819A814DEF63E471E00E94972951
:1054400089819A814DED63E471E00E9497298981F9
:105450009A814FEF64E471E00E94972989819A81D3
:105460004DE563E471E00E94972989819A8163E4A4
:1054700071E00E94432489819A8160E471E00E9476
:10548000432489819A8169E371E00E94432480E08A
:105490000F900F90DF91CF910895CF93DF9300D0BD
:1054A0001F92CDB7DEB78B839C838B819C81009745
:1054B00011F481E02CC08B819C8163E070E00E943C
:1054C000E5288B819C8163E471E00E94E528882FA8
:1054D00090E089839A8389819A81806289839A8303
:1054E00029818B819C81422F63E471E00E9497297E
:1054F00089819A818F7D992789839A8329818B81DC
:105500009C81422F63E471E00E94972980E02496F9
:10551000CDBFDEBFDF91CF910895CF93DF9300D051
:105520001F92CDB7DEB78B839C838B819C810097C4
:1055300011F481E04DC080E091E089839A830CC032
:1055400029813A818B819C81B9010E944324898100
:105550009A81019689839A8389819A81863621E08E
:10556000920770F38B819C8165E471E00E94432473
:105570008B819C8161E771E00E9443248B819C8137
:1055800062E771E00E9443248B819C816CE771E0AB
:105590000E9443248B819C816DE771E00E9443242B
:1055A00086E691E089839A830CC029813A818B81B8
:1055B0009C81B9010E94432489819A810196898343
:1055C0009A8389819A81893821E0920770F380E07B
:1055D0002496CDBFDEBFDF91CF910895CF93DF93A7
:1055E0001F921F92CDB7DEB789839A8389819A81F2
:1055F000009711F481E05EC089819A8149E563E4F6
:1056000071E00E94972989819A8140E069E371E005
:105610000E94972989819A816AE371E00E94992604
:1056200089819A816BE371E00E94992689819A8130
:1056300040E060E471E00E94972989819A8149EDF8
:1056400063E471E00E94972989819A8140E064E4D3
:1056500071E00E94972989819A8149EF63E471E0A2
:105660000E94972989819A8149ED63E471E00E9443
:10567000972989819A814FEF64E471E00E9497290C
:1056800089819A8149E563E471E00E9497298981C3
:105690009A8163E471E00E94992689819A8160E48D
:1056A00071E00E94992689819A8169E371E00E94E4
:1056B000992680E00F900F90DF91CF910895CF93BE
:1056C000DF9300D01F92CDB7DEB78B839C838B8195
:1056D0009C81009711F481E053C08B819C8164E729
:1056E00071E00E94992680E091E089839A830CC042
:1056F00029813A818B819C81B9010E9499268981F7
:105700009A81019689839A8389819A81863621E0DC
:10571000920770F38B819C8165E471E00E94992669
:105720008B819C8161E771E00E9499268B819C812D
:1057300062E771E00E9499268B819C816CE771E0A1
:105740000E9499268B819C816DE771E00E949926C9
:1057500086E691E089839A830CC029813A818B8106
:105760009C81B9010E94992689819A810196898339
:105770009A8389819A81893821E0920770F380E0C9
:105780002496CDBFDEBFDF91CF910895CF93DF93F5
:1057900000D000D0CDB7DEB789839A834B835C837A
:1057A0006D837E8389819A81009711F481E031C0F5
:1057B0008B819C81AD81BE81811520E49207A1057A
:1057C000B10540F48B819C81AD81BE810097A1051C
:1057D000B10531F485E396E20E949F8483E019C00D
:1057E0008B819C81AD81BE81892F9A2FAB2FBB27E6
:1057F000282F89819A81422F65E571E00E949729BF
:105800002B8189819A81422F66E571E00E94972958
:1058100080E02696CDBFDEBFDF91CF910895CF9374
:10582000DF9300D000D0CDB7DEB78D839E838D810E
:105830009E81009711F481E037C08D819E8166E5DD
:1058400071E00E94E52889838D819E8165E571E084
:105850000E94E5288A831B821C828A81882F90E01F
:10586000982F88279C018B819C81822B932B8B8383
:105870009C838981882F90E02B813C81822B932B04
:105880008B839C838C818F938B818F9380E696E2B0
:10589000892F8F9380E696E28F930E9485840F90E4
:1058A0000F900F900F9080E02696CDBFDEBFDF9166
:1058B000CF910895CF93DF9300D000D0CDB7DEB75E
:1058C00089839A834B835C836D837E8389819A81EC
:1058D000009711F481E031C08B819C81AD81BE8144
:1058E000811520E49207A105B10540F48B819C81CC
:1058F000AD81BE810097A105B10531F485E396E243
:105900000E949F8483E019C08B819C81AD81BE8100
:10591000892F9A2FAB2FBB27282F89819A81422F5D
:1059200069E571E00E9497292B8189819A81422F34
:105930006AE571E00E94972980E02696CDBFDEBF20
:10594000DF91CF910895CF93DF9300D000D0CDB7F2
:10595000DEB78D839E838D819E81009711F481E057
:105960004DC08D819E816AE571E00E94E5288983A2
:105970008D819E8169E571E00E94E5288A838A8194
:105980008F738A838A81882F90E0292F2F938F939A
:1059900080E796E2892F8F9380E796E28F930E94AB
:1059A00085840F900F900F900F901B821C828A812C
:1059B000882F90E0982F88279C018B819C81822BD7
:1059C000932B8B839C838981882F90E02B813C8152
:1059D000822B932B8B839C838C818F938B818F93D2
:1059E0008FE796E2892F8F938FE796E28F930E943D
:1059F00085840F900F900F900F9080E02696CDBF7A
:105A0000DEBFDF91CF910895CF93DF9300D000D018
:105A1000CDB7DEB789839A834B835C836D837E83A6
:105A200089819A81009711F481E031C08B819C813A
:105A3000AD81BE81811520E19207A105B10540F439
:105A40008B819C81AD81BE810097A105B10531F4A8
:105A50008FE896E20E949F8483E019C08B819C812D
:105A6000AD81BE81892F9A2FAB2FBB27282F89812B
:105A70009A81422F60E671E00E9497292B818981EB
:105A80009A81422F61E671E00E94972980E0269674
:105A9000CDBFDEBFDF91CF910895CF93DF9300D0CC
:105AA00000D0CDB7DEB78D839E838D819E81009718
:105AB00011F481E03AC08D819E8161E671E00E941F
:105AC000E52889838D819E8160E671E00E94E5284A
:105AD0008A838A818F708A831B821C828A81882FA5
