:100000000C94DA070C94FB070C94FB070C94FB0789
:100010000C94FB070C94FB070C94FB070C94FB0758
:100020000C94FB070C94FB070C94FB070C94FB0748
:100030000C94FB070C94C04A0C94FB070C94FB0730
:100040000C94FB070C94FB070C94FB070C94FB0728
:100050000C94FB070C94FB070C94FB070C94FB0718
:100060000C94FB070C9409110C94FB070C943811A9
:100070000C94FB070C94FB070C94FB070C94FB07F8
:100080000C94FB070C94FB070C94FB070C94FB07E8
:100090000C94FB070C94FB070C94FB070C94FB07D8
:1000A0000C94FB070C94FB070C94FB070C94FB07C8
:1000B0000C94FB070C94FB070C94F24A0C94FB077E
:1000C0000C94FB070C94FB070C94FB070C94FB07A8
:1000D0000C94FB070C94FB070C94FB070C94FB0798
:1000E0000C94FB070C94FB070C94FB070C94FB0788
:1000F0000C94FB070C94FB070C94FB070C94FB0778
:100100000C94FB070C94FB070C94FB070C94FB0767
:100110000C94FB070C94FB070C94FB070C94FB0757
:100120000C94FB070C94FB070C94FB070C94FB0747
:100130000C94FB070C94FB070C94FB070C94FB0737
:100140000C94FB070C94FB070C94FB070C94FB0727
:100150000C94FB070C94FB070C94FB070C94FB0717
:100160000C94FB070C94FB070C94FB070C94FB0707
:100170000C94FB070C94FB070C94FB070C94FB07F7
:100180000C94FB070C94FB070C94FB070C94FB07E7
:100190000C94FB070C94FB070C94FB070C94FB07D7
:1001A0000C94FB070C94FB070C94FB070C94FB07C7
:1001B0000C94FB070C94FB070C94FB070C94FB07B7
:1001C0000C94FB070C94FB070C94FB070C94FB07A7
:1001D0000C94FB070C94FB070C94FB070C94FB0797
:1001E0000C94FB070C94FB078D229A22B922C9229A
:1001F000E322FD220D231D239624B326B626B32623
:10020000B326B326B326B326B326B326B326B32626
:10021000B326B326B326B326B326B326B326B32616
:10022000B326B326B326B326B326B326B326B32606
:10023000B326B326B326B326B326B326B326B326F6
:10024000B326B326B326B326B326B326B326B326E6
:10025000B326B326B326B326B326B326B326B326D6
:10026000B326B326B326B326B326B326B326B326C6
:10027000B326B326B326B326B326B326B326B326B6
:10028000B326B326B326B326B326B326B326B326A6
:10029000B326B326B326B326B326B326B326B32696
:1002A000B326B326B326B326B326B326B326B32686
:1002B000B326B326B326B326B326B326B326B32676
:1002C000B326B326B326B326B326B326B326B32666
:1002D000B326B326B326B326B326B326B326B32656
:1002E000B326B326B326B326B326B326B326B32646
:1002F000B326B326B326B326B326B326B326B32636
:10030000B326B326B326B326B326B326B326B32625
:10031000B326B326B326B326B326B326B326B32615
:10032000B326B326B326B326B326B326B326B32605
:10033000B326B326B326B326B326B326B326B326F5
:10034000B326B326B326B326B326B326B326B326E5
:10035000B326B326B326B326B326B326B326B326D5
:10036000B326B326B326B326B326B326B326B326C5
:10037000B326B326B326B326B326B326B326B326B5
:10038000B326B326B326B326B326B326B326B326A5
:10039000B326B326B326B326B326B326B326B32695
:1003A000B326B326B326B326B326B326B326B32685
:1003B000B326B326B326B326B326B326B326B32675
:1003C000B326B326B326B326B326B326B326B32665
:1003D000B326B326B326B326B326B326B326B32655
:1003E000B326B326B326B326B326B326B326B32645
:1003F000B326B326B326B3269A249E24B326B62664
:10040000A524AC24B324C024C724CB24B326B62609
:10041000D224D924E024ED24F424F824B326B626EB
:10042000FF2406250D251A252125B626B326B62636
:1004300025252C253325402547254B25B326B626D3
:100440005225592560256D2574257825B326B626B5
:100450007F2586258D259A25A125A525B326B62697
:10046000AC25B325BA25C725CE25D525D925B62651
:10047000B626DD25E125E525EC25B626F025F42573
:10048000B626042608260C2613261726B6261E2670
:10049000B626B62628262C2630263726B626B62699
:1004A0003B26B6263F26B6264326B62647264B26AB
:1004B00052265626B6265A26B62661266526B62622
:1004C000B6266926B626B6266D2671267B267F2699
:1004D000B626B6268326B326B3268A268E26B626C9
:1004E000B326B326B326B326B326B326B326B32644
:1004F00092269626B326B326B326B3269A26A1269D
:10050000A826AF26B326B326B626EC26E528E8288B
:10051000E528E528E528E528E528E528E528E52873
:10052000E528E528E528E528E528E528E528E52863
:10053000E528E528E528E528E528E528E528E52853
:10054000E528E528E528E528E528E528E528E52843
:10055000E528E528E528E528E528E528E528E52833
:10056000E528E528E528E528E528E528E528E52823
:10057000E528E528E528E528E528E528E528E52813
:10058000E528E528E528E528E528E528E528E52803
:10059000E528E528E528E528E528E528E528E528F3
:1005A000E528E528E528E528E528E528E528E528E3
:1005B000E528E528E528E528E528E528E528E528D3
:1005C000E528E528E528E528E528E528E528E528C3
:1005D000E528E528E528E528E528E528E528E528B3
:1005E000E528E528E528E528E528E528E528E528A3
:1005F000E528E528E528E528E528E528E528E52893
:10060000E528E528E528E528E528E528E528E52882
:10061000E528E528E528E528E528E528E528E52872
:10062000E528E528E528E528E528E528E528E52862
:10063000E528E528E528E528E528E528E528E52852
:10064000E528E528E528E528E528E528E528E52842
:10065000E528E528E528E528E528E528E528E52832
:10066000E528E528E528E528E528E528E528E52822
:10067000E528E528E528E528E528E528E528E52812
:10068000E528E528E528E528E528E528E528E52802
:10069000E528E528E528E528E528E528E528E528F2
:1006A000E528E528E528E528E528E528E528E528E2
:1006B000E528E528E528E528E528E528E528E528D2
:1006C000E528E528E528E528E528E528E528E528C2
:1006D000E528E528E528E528E528E528E528E528B2
:1006E000E528E528E528E528E528E528E528E528A2
:1006F000E528E528E528E528E528E528E528E52892
:10070000E528E528E528E528E528F026F426E5286B
:10071000E828FB26E82802270F2716271A27E528AE
:10072000E8282127E828282735273C274027E528DF
:10073000E8284727E8284E275B276227E828E5288E
:10074000E8286627E8286D277A2781278527E52866
:10075000E8288C27E8289327A027A727AB27E52898
:10076000E828B227E828B927C627CD27D127E528CA
:10077000E828D827E828DF27EC27F327FD27E828F3
:100780000128E828052809280D281428E8281B280E
:100790001F28E8282F28332837283E284228E82811
:1007A0004928E828E828532857285B286228E828A1
:1007B000E8286628E8286A28E8286E28E8287228A9
:1007C00076287D288128E8288528E8288C28902804
:1007D000E828E8289728E828E8289B289F28A928BF
:1007E000AD28E828E828B128E528E528B828BC285D
:1007F000E828C028E528E528E528E528E528E528B3
:10080000E528C428C828E528E528E528E528CC28D7
:10081000D328DA28E128E528E528E828ED309C31BE
:1008200006319C311F319C3138319C3151319C3122
:100830006A319C3183319C32DB32A532DB32AE32FD
:10084000DB32B732DB32C032DB32C932DB32D2329A
:10085000F7336E3408346E3419346E342A346E34FF
:100860003B346E344C346E345D34343573353D3541
:100870007335463573354F357335583573356135B6
:1008800073356A352136A5363336A5364636A53654
:100890005936A5366C36A5367F36A536923656388B
:1008A00095385F38953868389538713895387A3882
:1008B0009538833895388C385539F5396B39F53991
:1008C0008239F5399939F539B039F539C739F539FA
:1008D000DE39763BB53B7F3BB53B883BB53B913B37
:1008E000B53B9A3BB53BA33BB53BAC3B3D3DFE3CEA
:1008F000463D073D4F3D103D583D193D613D223D70
:100900006A3D2B3D733D343D073E7E3E183E7E3EA4
:10091000293E7E3E3A3E7E3E4B3E7E3E5C3E7E3EE5
:100920006D3E373F763F403F763F493F763F523FEF
:10093000763F5B3F763F643F763F6D3F1C40A04073
:100940002E40A0404140A0405440A0406740A040FD
:100950007A40A0408D408C41CB419541CB419E4196
:10096000CB41A741CB41B041CB41B941CB41C24181
:100970008F439143944397439A439D43A043F44349
:100980000944094409440944F74309440944094412
:1009900009440644094409440944094409440944F2
:1009A000094409440944FA4309440944FD430944FC
:1009B0000944094403440944094400440C9482391D
:1009C0000C94CD270C940D250C9499390C94070D9B
:1009D0000C947A400C942E080C94000B0C94F42583
:1009E0000C949A240C94280C0C946D250C9462277A
:1009F0000C9442280C94F4240C9406250C94343561
:100A00000C94913B0C94F7330C94343D0C94A0401F
:100A10000C94B2270C94C9220C946E340C945B5441
:100A20000C9432090C9440250C9456380C943325C0
:100A30000C9459360C94F0250C9483260C947A2748
:100A40000C94FD430C9405080C94A7410C94A1252B
:100A50000C940B080C949B280C94D0140C94AC3B75
:100A60000C9492360C94C4100C9483380C942F2858
:100A70000C9456260C94DA280C946E280C94962428
:100A80000C947F260C945B3F0C94A5080C94E828EA
:100A90000C9461260C94F8240C9471380C9433282F
:100AA0000C9485270C947F3B0C943B340C942826A3
:100AB0000C947B260C9465260C947D280C94F426CB
:100AC0000C94540F0C9405280C94DD250C941108FB
:100AD0000C9481270C94B9220C944F3D0C9447261A
:100AE0000C941D080C94A1260C9495380C94212587
:100AF0000C94AC240C949F280C94A5250C94592597
:100B00000C9402270C94A8260C941A270C944725C1
:100B10000C948C380C941D230C943D3D0C94C028EF
:100B20000C9438310C944B250C9413080C948D4084
:100B30000C9437280C941F310C94F4430C94AC257E
:100B40000C94F7430C94073E0C948F430C94FD22B5
:100B50000C94583D0C94FA430C9414280C943910BE
:100B60000C941C400C94C7390C94C9080C94D924DB
:100B70000C94493F0C94A0270C94ED240C94C032A3
:100B80000C94073D0C9447270C94B9410C94132600
:100B90000C9406310C947A380C947F250C94C24145
:100BA0000C948C120C943B260C9421270C94FF245B
:100BB0000C949A430C945F380C941A250C944B2691
:100BC0000C9483310C946D0D0C94A7270C94841015
:100BD0000C9474250C9480080C94AE320C944F3510
:100BE0000C9451310C940D280C94E5250C941B2881
:100BF0000C94BC280C94D0120C94373F0C94ED301C
:100C00000C949A250C94E5280C9419340C94C6275E
:100C10000C9446360C94A5360C94643F0C946135C4
:100C20000C9446350C94E30D0C9453280C94CE256B
:100C30000C946A350C940F270C94A5240C949626DA
:100C40000C94BA250C94613D0C9417260C94A53293
:100C50000C942C260C94F5390C9495410C94432655
:100C60000C945B280C9492260C941E260C94C7249A
:100C70000C9476280C94CD080C949E240C94B626E3
:100C80000C9403440C944A120C9416270C945C3E6A
:100C90000C94BE0B0C94D2320C9460250C947F36CD
:100CA0000C9408340C9437260C946B390C94CB417B
:100CB0000C9460100C9438120C948A260C945226D2
:100CC0000C944C080C9419080C9417080C94CC281C
:100CD0000C94403F0C94B8280C946A280C94B324CC
:100CE0000C94763F0C94C8280C946D270C94223DEC
:100CF0000C94293E0C945D340C9486250C94800C45
:100D00000C94EC260C949A3B0C94183E0C942136CF
:100D10000C94763B0C9404260C949D430C943A3E20
:100D20000C94EC270C943D350C946D260C94712694
:100D30000C9485280C94B3250C9473350C94B1282D
:100D40000C9441400C9493090C94193D0C94333647
:100D50000C948C270C9469260C94F4090C9481282B
:100D60000C9430260C94F0260C949E410C946C3616
:100D70000C94C0240C94EC250C94A33B0C94030815
:100D80000C94FB260C94AE0F0C9425250C9468381B
:100D90000C94B00D0C9440270C946D3E0C94E02400
:100DA0000C9415080C9467400C94463D0C945835EF
:100DB0000C940F080C942A340C94B9270C94D8275F
:100DC0000C9491430C94C7250C94A9280C94DB3205
:100DD0000C94733D0C940D080C9462280C942827F5
:100DE0000C94C30E0C94AB270C94FE3C0C948D22F7
:100DF0000C946A310C94A80A0C94500B0C941B08A8
:100E00000C9494430C943A0D0C94D1080C94E32266
:100E10000C9404160C94770F0C9454400C940D23EE
:100E20000C94CB240C943F260C94B0390C940928D4
:100E30000C94E1250C944C340C9493270C944B3E69
:100E40000C94D3280C94103D0C9404120C94340888
:100E50000C94AD280C9409440C9409080C94662752
:100E60000C9497280C94B0410C94F3270C947E3E7C
:100E70000C9497430C949A260C94DE390C941D0F15
:100E80000C9466280C942E400C940C260C94FA0EAC
:100E90000C9400440C944E270C94BF080C94DD0F66
:100EA0000C94820E0C94C4280C94D2240C94883B8D
:100EB0000C942E100C942B3D0C94E1280C945B2781
:100EC0000C94FD270C94D5250C941A0E0C943D0E11
:100ED0000C9406440C9449280C946D3F0C94B53B3B
:100EE0000C9490280C948C280C945A260C947228FC
:100EF0000C94523F0C946A3D0C941F280C94B3261A
:100F00000C94A0430C9435270C948E260C949A22B2
:100F10000C9401280C943E280C9408260C94D92596
:100F20000C949C310C94D00C0C94C9320C942C254C
:100F30000C949C320C9455390C9457280C94231320
:100F40000C9478250C943C270C94D1270C94F21522
:100F50000C94DF270C94B7320C9452250C948D25F9
:100F60000C949B080C9407080C948C410C94AF26AD
:100F70006364696E6F70737578585B00BCE5ACC5CF
:100F80009C85960392C1912190961D03ED01DCFD95
:100F9000CCF5BCE5ACC5A86EBCE5ACC59C8596039C
:100FA00092C1912190961D03ED01DCFDCCF5BCE5CD
:100FB000ACC5A86E11241FBECFEFCDBFDFE3DEBFEF
:100FC00000E00CBF1BE3A0E0B0E2E0E5F6E101E0E9
:100FD0000BBF02C007900D92A830B107D9F71CE3F0
:100FE000A8E0BBE301C01D92A637B107E1F70E945C
:100FF00066810C94268B0C94000061507109810964
:101000009109D9F7089580E0089580E0089580E07F
:10101000089580E0089580E0089580E0089580E0DC
:10102000089580E0089580E0089580E0089580E0CC
:10103000089580E0089580E0089580915E21909168
:101040005F2120911D3B30911E3B821B930B01962B
:1010500080931D3B90931E3B80E0089510921D3BB2
:1010600010921E3B80E00895E4E7F1E283A18F93A4
:1010700082A18F9381A18F9380A18F9380EB9BE2BC
:101080009F938F930E94D6840F900F900F900F9094
:101090000F900F9080E00895CF93DF9300D01F92C0
:1010A000CDB7DEB7CE010196AA2797FDA095BA2F3E
:1010B00040916C3C50916D3C4115510511F446E74F
:1010C0005CE3662757FD6095762F841B950BA60B76
:1010D000B70BBF93AF939F938F938EEB9BE29F933E
:1010E0008F930E94D6840F900F900F900F900F90C7
:1010F0000F9080E02496CDBFDEBFDF91CF910895A1
:1011000080911E3B8F9380911D3B8F938CE49CE2DA
:101110009F938F930E94D68480911D3B90911E3B9C
:10112000019680931D3B90931E3B0F900F900F9064
:101130000F9080E00895682F8091D2249091D3245D
:101140000E94925C80E090E00895CF9382E49CE35B
:101150000E94212AC82F65E176E185E090E00E9497
:10116000FD078AE69CE30E94332BC80F65E176E118
:1011700085E090E00E94FD078C2FCF91089582E4D6
:101180009CE30E94922A83ED9BE20E94F08480E01F
:10119000089582E49CE30C94922A8AE69CE30C94E2
:1011A000922ACF934091F8235091F9236091FA232A
:1011B0007091FB238091D4239091D523A091D623C5
:1011C000B091D7234115510561057105D9F48130DE
:1011D0009105A105B10531F482E49CE30E94542CF1
:1011E000C82F35C00297A105B10531F48AE69CE30A
:1011F0000E94542CC82F2BC085EE9BE20E94F084E5
:1012000081E02EC081309105A105B10531F482E461
:101210009CE30E940B2CC82F1AC082309105A105B7
:10122000B10531F48AE69CE30E940B2CC82F0FC055
:101230000397A105B10501F783E08093EF2482E4D1
:101240009CE30E940B2CC82F81E08093EF24CC23D9
:1012500031F088E09CE20E94F0848C2F01C080E095
:10126000CF910895CF9340910A2450910B2460911F
:101270000C2470910D248091D4239091D523A091BA
:10128000D623B091D7234115510561057105D9F4D5
:1012900081309105A105B10531F482E49CE30E94FF
:1012A000E82CC82F35C00297A105B10531F48AE6B4
:1012B0009CE30E94E82CC82F2BC085EE9BE20E9485
:1012C000F08481E02EC081309105A105B10531F493
:1012D00082E49CE30E949F2CC82F1AC082309105A3
:1012E000A105B10531F48AE69CE30E949F2CC82F2A
:1012F0000FC00397A105B10501F783E08093EF24A8
:1013000082E49CE30E949F2CC82F81E08093EF240D
:10131000CC2331F088E09CE20E94F0848C2F01C045
:1013200080E0CF910895CF9340911C2450911D24CB
:1013300060911E2470911F248091D4239091D52315
:10134000A091D623B091D7234115510561057105B0
:10135000D9F481309105A105B10531F482E49CE313
:101360000E94922DC82F35C00297A105B10531F416
:101370008AE69CE30E94922DC82F2BC085EE9BE24B
:101380000E94F08481E02EC081309105A105B10555
:1013900031F482E49CE30E94492DC82F1AC08230A8
:1013A0009105A105B10531F48AE69CE30E94492D1F
:1013B000C82F0FC00397A105B10501F783E0809303
:1013C000EF2482E49CE30E94492DC82F81E08093A2
:1013D000EF24CC2331F086E29CE20E94F0848C2F33
:1013E00001C080E0CF9108951F93CF93DF931F92A8
:1013F000CDB7DEB740912E2450912F246091302438
:10140000709131248091D4239091D523A091D6233B
:10141000B091D723452B462B472BF9F4813091050A
:10142000A105B10531F482E49CE30E94972F182FA7
:1014300081C00297A105B10551F48AE69CE30E94A0
:10144000972F182F77C00397A105B105B1F185EE4D
:101450009BE20E94F08481E076C081309105A10575
:10146000B10599F482E49CE30E94E02D40912E2482
:1014700050912F246091302470913124282F82E4E0
:101480009CE30E94032E182F55C082309105A105C0
:10149000B105C9F682E49CE30E94E02D40912E2420
:1014A00050912F246091302470913124282F8AE6A6
:1014B0009CE30E94032E182F3DC083E08093EF240D
:1014C00082E49CE30E94E02D282F1F928F9384E4F6
:1014D0009CE29F938F9329830E94D6848AE69CE3A3
:1014E0000E94E02D182F1F928F9380E59CE29F931E
:1014F0008F930E94D684CDBFDEBF2981211751F082
:101500008CE59CE29F938F930E94D6840F900F905E
:1015100083E019C040912E2450912F2460913024F3
:101520007091312482E49CE30E94032E182F81E005
:101530008093EF24112331F086E29CE20E94F08434
:10154000812F01C080E00F90DF91CF911F9108950E
:10155000CF93409140245091412460914224709156
:1015600043248091D4239091D523A091D623B09188
:10157000D7234115510561057105F9F481309105B5
:10158000A105B10541F46091E62382E49CE30E9449
:101590006032C82F2AC00297A105B10541F46091BD
:1015A000E6238AE69CE30E946032C82F1EC085EEC7
:1015B0009BE20E94F08481E021C081309105A10569
:1015C000B10541F42091E62382E49CE30E94A5301A
:1015D000C82F0BC00297A105B10549F72091E6235A
:1015E0008AE69CE30E94A530C82FCC2331F089E71E
:1015F0009CE20E94F0848C2F01C080E0CF9108957E
:10160000CF9340915224509153246091542470916F
:1016100055248091D4239091D523A091D623B091C5
:10162000D7234115510561057105D9F48130910524
:10163000A105B10531F482E49CE30E944E33C82F2A
:1016400024C00297A105B10531F48AE69CE30E940B
:101650004E33C82F1AC085EE9BE20E94F08481E0D1
:101660001DC081309105A105B10531F482E49CE3F0
:101670000E940433C82F09C00297A105B10559F78C
:101680008AE69CE30E940433C82FCC2331F08BE917
:101690009CE20E94F0848C2F01C080E0CF910895DD
:1016A0000F93CF930091322360915623409168238A
:1016B0002091B0238091442390914523A09146230B
:1016C000B09147230097A105B10529F5809120230A
:1016D00090912123A0912223B09123238130910561
:1016E000A105B10539F4602F82E49CE30E941A3809
:1016F000C82F38C00297A105B10539F4602F8AE6DA
:101700009CE30E941A38C82F2DC085EE9BE20E94F0
:10171000F08481E030C00197A105B105E9F4809122
:10172000202390912123A0912223B0912323813063
:101730009105A105B10531F482E49CE30E94A33533
:10174000C82F10C00297A105B105F9F68AE69CE3FF
:101750000E94A335C82F06C084EC9CE20E94F0844E
:10176000C1E002C0CC2331F08BEF9CE20E94F084F8
:101770008C2F01C080E0CF910F910895CF932091DD
:10178000322360915623409168238091C223909127
:10179000C323A091C423B091C5230097A105B1052F
:1017A00029F58091202390912123A0912223B091AB
:1017B000232381309105A105B10539F4622F82E41C
:1017C0009CE30E943A3BC82F38C00297A105B1059F
:1017D00039F4622F8AE69CE30E943A3BC82F2DC061
:1017E00085EE9BE20E94F08481E030C00197A10564
:1017F000B105E9F48091202390912123A091222327
:10180000B091232381309105A105B10531F482E423
:101810009CE30E94D738C82F10C00297A105B105DC
:10182000F9F68AE69CE30E94D738C82F06C084ECFC
:101830009CE20E94F084C1E002C0CC2331F08BEF27
:101840009CE20E94F0848C2F01C080E0CF9108952B
:10185000CF9340917A2350917B2360917C237091A8
:101860007D238091202390912123A0912223B09168
:1018700023234115510561057105F9F48130910566
:10188000A105B10541F46091322382E49CE30E94FA
:10189000F834C82F2AC00297A105B10541F4609120
:1018A00032238AE69CE30E94F834C82F1EC085EEDE
:1018B0009BE20E94F08481E021C081309105A10566
:1018C000B10541F42091322382E49CE30E949C33D1
:1018D000C82F0BC00297A105B10549F7209132230B
:1018E0008AE69CE30E949C33C82FCC2331F08BEF17
:1018F0009CE20E94F0848C2F01C080E0CF9108957B
:10190000CF9340918C2350918D2360918E237091C1
:101910008F238091202390912123A0912223B091A5
:1019200023234115510561057105D9F481309105D5
:10193000A105B10531F482E49CE30E945D3CC82F0F
:1019400024C00297A105B10531F48AE69CE30E9408
:101950005D3CC82F1AC085EE9BE20E94F08481E0B6
:101960001DC081309105A105B10531F482E49CE3ED
:101970000E94F73BC82F09C00297A105B10559F78E
:101980008AE69CE30E94F73BC82FCC2331F08FE11D
:101990009DE20E94F0848C2F01C080E0CF910895D9
:1019A000CF938091202390912123A0912223B09165
:1019B000232381309105A105B10551F440913223D3
:1019C00060919E2382E49CE30E94C53CC82F14C012
:1019D0000297A105B10551F44091322360919E23F5
:1019E0008AE69CE30E94C53CC82F06C085EE9BE2B8
:1019F0000E94F08481E009C0CC2331F08FE19DE2A8
:101A00000E94F0848C2F01C080E0CF910895CF9385
:101A10004091C6226091D8228091B4229091B52243
:101A2000A091B622B091B72281309105A105B105F0
:101A300031F482E49CE30E949F3FC82F10C00297BC
:101A4000A105B10531F48AE69CE30E949F3FC82FAF
:101A500006C085EE9BE20E94F08481E009C0CC23A1
:101A600031F08AE49DE20E94F0848C2F01C080E076
:101A7000CF910895CF938091B4229091B522A091F7
:101A8000B622B091B72281309105A105B10541F48C
:101A90006091C62282E49CE30E945041C82F12C08C
:101AA0000297A105B10541F46091C6228AE69CE344
:101AB0000E945041C82F06C085EE9BE20E94F08430
:101AC00081E009C0CC2331F08BEF9CE20E94F084CE
:101AD0008C2F01C080E0CF910895CF938091B422E4
:101AE0009091B522A091B622B091B7228130910594
:101AF000A105B10581F44091FC225091FD22609135
:101B0000FE227091FF222091C62282E49CE30E9473
:101B1000C33DC82F1AC00297A105B10581F44091B9
:101B2000FC225091FD226091FE227091FF222091B3
:101B3000C6228AE69CE30E94C33DC82F06C085EEFC
:101B40009BE20E94F08481E009C0CC2331F08AE45A
:101B50009DE20E94F0848C2F01C080E0CF91089517
:101B6000CF938091B4229091B522A091B622B091EA
:101B7000B72281309105A105B10541F46091C622DB
:101B800082E49CE30E94FB3EC82F12C00297A1058D
:101B9000B10541F46091C6228AE69CE30E94FB3EB7
:101BA000C82F06C085EE9BE20E94F08481E009C048
:101BB000CC2331F08DE69DE20E94F0848C2F01C091
:101BC00080E0CF910895CF938091A6219091A72195
:101BD000A091A821B091A92181309105A105B1055D
:101BE00051F46091B8217091B92182E39CE30E9485
:101BF0001920C82F14C00297A105B10551F46091B6
:101C0000B8217091B92187E29CE30E941920C82F66
:101C100006C081E99DE20E94F08481E009C0CC23E6
:101C200031F085EC9DE20E94F0848C2F01C080E0B1
:101C3000CF9108958091A6219091A721A091A821EC
:101C4000B091A92181309105A105B10531F482E35C
:101C50009CE30E944E2080E008950297A105B10503
:101C600031F487E29CE30E944E2080E0089581E9F0
:101C70009DE20E94F08481E00895CF938091DC2161
:101C80009091DD21A091DE21B091DF21892B8A2B5B
:101C90008B2B51F085EE9DE29F938F930E94D6840B
:101CA0000F900F9081E02CC08091A6219091A721E8
:101CB000A091A821B091A92181309105A105B1057C
:101CC00031F482E39CE30E946621C82F10C0029782
:101CD000A105B10531F487E29CE30E946621C82F7B
:101CE00006C081E99DE20E94F08481E009C0CC2316
:101CF00031F083E09EE20E94F0848C2F01C080E0EE
:101D0000CF910895CF938091EE219091EF21A091F2
:101D1000F021B091F121892B8A2B8B2B31F085EEAC
:101D20009DE20E94F08481E02CC08091A6219091D8
:101D3000A721A091A821B091A92181309105A105E9
:101D4000B10531F482E39CE30E94A021C82F10C0AA
:101D50000297A105B10531F487E29CE30E94A0211E
:101D6000C82F06C081E99DE20E94F08481E009C08D
:101D7000CC2331F081E29EE20E94F0848C2F01C0DE
:101D800080E0CF910895CF938091A6219091A721D3
:101D9000A091A821B091A92181309105A105B1059B
:101DA00051F4609100227091012282E39CE30E9431
:101DB0007C20C82F14C00297A105B10551F4609191
:101DC00000227091012287E29CE30E947C20C82FB0
:101DD00006C081E99DE20E94F08481E009C0CC2325
:101DE00031F08FE39EE20E94F0848C2F01C080E0EE
:101DF000CF9108958091A6219091A721A091A8212B
:101E0000B091A92181309105A105B10531F482E39A
:101E10009CE30E94B12080E008950297A105B105DE
:101E200031F487E29CE30E94B12080E0089581E9CB
:101E30009DE20E94F08481E00895CF938091A621D5
:101E40009091A721A091A821B091A921813091055D
:101E5000A105B10551F4609124227091252282E3FD
:101E60009CE30E94DF20C82F14C00297A105B10592
:101E700051F4609124227091252287E29CE30E9414
:101E8000DF20C82F06C081E99DE20E94F08481E036
:101E900009C0CC2331F081E69EE20E94F0848C2FB1
:101EA00001C080E0CF9108958091A6219091A72153
:101EB000A091A821B091A92181309105A105B1057A
:101EC00031F482E39CE30E94382180E00895029778
:101ED000A105B10531F487E29CE30E94382180E03E
:101EE000089581E99DE20E94F08481E00895CF93F6
:101EF0008091A6219091A721A091A821B091A9211C
:101F000081309105A105B10551F46091482270918D
:101F1000492282E39CE30E94E821C82F14C0029763
:101F2000A105B10551F4609148227091492287E2E0
:101F30009CE30E94E821C82F06C081E99DE20E942F
:101F4000F08481E009C0CC2331F081E29EE20E945E
:101F5000F0848C2F01C080E0CF910895CF938091C1
:101F6000A6219091A721A091A821B091A92181300B
:101F70009105A105B10531F482E39CE30E942B2277
:101F8000C82F10C00297A105B10531F487E29CE388
:101F90000E942B22C82F06C081E99DE20E94F08496
:101FA00081E009C0CC2331F081E29EE20E94F084FE
:101FB0008C2F01C080E0CF910895CF938091822132
:101FC00090918321A0918421B0918521892B8A2B26
:101FD0008B2BA9F082E49CE30E94D22AC82F82E4D2
:101FE0009CE30E94212AC80F8AE69CE30E94A42B4E
:101FF000C80F8AE69CE30E94332BC80F0AC082E414
:102000009CE30E940D42C82F8AE69CE30E940D4289
:10201000C80FCC2341F081E89EE29F938F930E94EA
:10202000D6840F900F90809185218F938091842189
:102030008F93809183218F93809182218F9389E860
:102040009EE29F938F930E94D6840F900F900F90E3
:102050000F900F900F908C2FCF91089587E99EE2FB
:102060000E94F084409162206CE080E090E20C9449
:102070002680CF936091BE247091BF2480E39CE3BF
:102080000E94E119C82F8823C1F08091C1248F9349
:102090008091C0248F938091BF248F938091BE2420
:1020A0008F9384EA9EE29F938F930E94D6840F9031
:1020B0000F900F900F900F900F908C2FCF9108954D
:1020C00080919A2490919B24A0919C24B0919D246E
:1020D00021E00097A105B10519F02093A50602C0E3
:1020E0002093A606BF93AF939F938F938DEC9EE2B0
:1020F0009F938F930E94D6840F900F900F900F9014
:102100000F900F9080E0089580916C2290916D2245
:10211000A0916E22B0916F2281309105A105B10589
:1021200039F460917E2270917F2282E49CE30AC0A0
:102130000297A105B10511F560917E2270917F2271
:102140008AE69CE30E942A291F928F938DED9EE2DE
:102150009F938F930E94D6840F900F900F900F90B3
:1021600083E090E0A0E0B0E080936C2290936D2239
:10217000A0936E22B0936F2280E0089585EE9BE2DB
:102180000E94F08481E00895CF9380916C22909119
:102190006D22A0916E22B0916F2281309105A10530
:1021A000B10561F460919022709191224091A22238
:1021B00082E49CE30E94DC29C82F16C00297A10587
:1021C000B10561F460919022709191224091A22218
:1021D0008AE69CE30E94DC29C82F06C085EE9BE2BC
:1021E0000E94F08481E013C0CC2321F08EEE9EE2A9
:1021F0000E94F08483E090E0A0E0B0E080936C2245
:1022000090936D22A0936E22B0936F228C2FCF916A
:1022100008951F920F920FB60F9211240BB60F92D2
:102220002F933F934F935F936F937F938F939F93DE
:10223000AF93BF93EF93FF9320E040E050E060E066
:1022400070E084ED94E20E94805AFF91EF91BF917B
:10225000AF919F918F917F916F915F914F913F913E
:102260002F910F900BBE0F900FBE0F901F901895DF
:102270001F920F920FB60F9211240BB60F922F934D
:102280003F934F935F936F937F938F939F93AF93FE
:10229000BF93EF93FF9384ED94E20E94F15AFF9174
:1022A000EF91BF91AF919F918F917F916F915F91CE
:1022B0004F913F912F910F900BBE0F900FBE0F903B
:1022C0001F9018951F93CF93DF93809150008260E9
:1022D000809350008091510081FFFCCF98ED94BF16
:1022E00081E08093400017E01093A200F89494BF1F
:1022F0008093960061E087E695E20E941E51C82F08
:1023000065E080E295E20E943552C80F23E641E085
:102310006FE17BE38BE39CE30E94527123E641E093
:1023200063E87BE384E49CE30E94527161E084ED06
:1023300094E20E94245BD82F60E082E795E20E943D
:102340002E478C0FC82FCD0F1093A2008091A200B2
:1023500080688093A20078940E9485708AE00E9431
:102360001E7020E148E061E080E092E00E943D6B59
:1023700020E149E062E080E092E00E943D6B8C2F1A
:10238000DF91CF911F910895CF938130D1F582E4F1
:102390009CE30E94D22AC82F65E372E880E090E0B7
:1023A0000E94FD0782E49CE30E94212AC80F65E198
:1023B00076E185E090E00E94FD0763E070E082E452
:1023C0009CE30E942A298AE69CE30E94A42BC80F62
:1023D00065E372E880E090E00E94FD078AE69CE3F6
:1023E0000E94332BC80F65E176E185E090E00E9402
:1023F000FD0763E070E08AE69CE30E942A298C2FA7
:1024000001C081E0CF9108958091EF240E94C41112
:10241000882341F082E19FE29F938F930E94D684AC
:102420000F900F908091EF241F928F938BE29FE289
:102430009F938F930E94D6840F900F900F900F90D0
:1024400080E00895E0EAF6E084E0868382E0868317
:102450000E94DC7063E070E082E49CE30E942A2921
:1024600063E070E08AE69CE30E942A2980E00895F8
:102470000E942212882341F081E89EE29F938F936D
:102480000E94D6840F900F908BE39FE20E94F0840D
:1024900080E00895CF938AE49FE20E94F0840E9436
:1024A0002212C82F882341F081E79FE29F938F93E8
:1024B0000E94D6840F900F908C2FCF91089580E0CA
:1024C000089580E008958CE89FE20E94F08481EAFC
:1024D0009FE29F938F9387EA9FE29F938F930E943F
:1024E000D6848CEB9FE29F938F9380ED9FE29F9326
:1024F0008F930E94D68486EE9FE29F938F938AEFFC
:102500009FE29F938F930E94D6848DB79EB70C96BF
:102510008DBF9EBF80E008950E946312882341F022
:1025200081E89EE29F938F930E94D6840F900F9034
:1025300083E190E30E94F08480E00895CF93DF93DD
:102540001F921F92CDB7DEB7AE014F5F5F4F61E0C4
:1025500080E092E00E94E56B8A818F9389818F935E
:1025600083E290E39F938F930E94D684AE014F5FE6
:102570005F4F62E080E092E00E94E56B8A818F937A
:1025800089818F9381E390E39F938F930E94D684F8
:10259000CDBFDEBF80E00F900F90DF91CF91089507
:1025A0000E949E12882341F08FE390E39F938F93C4
:1025B0000E94D6840F900F9085E690E30E94F084ED
:1025C00080E00895CF92DF92EF92FF920F931F93D6
:1025D000CF93DF938B3068F5062F06950695069509
:1025E00090E2099F800111241A5F677021E030E0BA
:1025F0007901062E01C0EE0C0A94EAF7CE2CF80100
:10260000E682C82FD0E0CC0FDD1FD12C8D2D90E0BD
:102610008C179D0754F465E176E185E090E00E9417
:10262000FD07F801C782D394F1CFF801E68280E07C
:1026300001C081E0DF91CF911F910F91FF90EF904A
:10264000DF90CF9008956CE2809116210E94E212F3
:10265000882341F086E790E39F938F930E94D6846E
:102660000F900F901F928CE28F93809119218F937E
:10267000809118218F93809117218F93809116213B
:102680008F938EE790E39F938F930E94D6848DB7AC
:102690009EB708968DBF9EBF80E00895EF92FF928F
:1026A0000F931F93CF93DF93C0E0D0E030E9E32E88
:1026B00030E3F32E09E910E3CE0183709927892BCB
:1026C00051F4DF93CF93FF92EF920E94D6840F9044
:1026D0000F900F900F906C2F82E39CE30E94D91F04
:1026E000880F892F881F990B91959F938F931F9324
:1026F0000F930E94D68421960F900F900F900F9009
:10270000C830D105C9F68AE090E0DF91CF911F91E2
:102710000F91FF90EF900C94EA84EF92FF920F9349
:102720001F93CF93DF93C0E0D0E030E9E32E30E396
:10273000F32E09E910E3CE0183709927892B51F418
:10274000DF93CF93FF92EF920E94D6840F900F9069
:102750000F900F906C2F87E29CE30E94D91F880F87
:10276000892F881F990B91959F938F931F930F9398
:102770000E94D68421960F900F900F900F90C83032
:10278000D105C9F68AE090E0DF91CF911F910F91BA
:10279000FF90EF900C94EA84EF92FF920F931F93B7
:1027A000CF93DF9382EA90E30E94F084C0E0D0E010
:1027B0000FEA10E390E9E92E90E3F92ECE0103979A
:1027C0008D3F9105F0F0CE0183709927892B51F44C
:1027D000DF93CF93FF92EF920E94D6840F900F90D9
:1027E0000F900F90BE0182E49CE30E942A291F9261
:1027F0008F931F930F930E94D6840F900F900F908A
:102800000F902196C83881E0D807C1F687EB90E396
:102810000E94F084C0E0D0E00FEA10E380E9E82EE7
:1028200080E3F82ECE0103978D3F9105F0F0CE01A5
:1028300083709927892B51F4DF93CF93FF92EF9206
:102840000E94D6840F900F900F900F90BE018AE6E1
:102850009CE30E942A291F928F931F930F930E943B
:10286000D6840F900F900F900F902196C83881E07A
:10287000D807C1F68AE090E0DF91CF911F910F91C8
:10288000FF90EF900C94EA84CF93DF9383EC90E376
:102890000E94F084C0E8D6E0888581701F928F93F3
:1028A00080EE90E39F938F930E94D68488858295D3
:1028B00081701F928F938CEF90E39F938F930E9470
:1028C000D68461E082E39CE30E94D91F9F938F939B
:1028D00087E191E39F938F930E94D68461E082E326
:1028E0009CE30E94D91F9F938F9387E391E39F936B
:1028F0008F930E94D68461E087E29CE30E94D91FF7
:102900009F938F9386E591E39F938F930E94D68444
:1029100061E087E29CE30E94D91F9F938F9385E734
:1029200091E39F938F930E94D68463E070E082E4EA
:102930009CE30E942A291F928F9384E991E39F933D
:102940008F930E94D68463E070E08AE69CE30E9445
:102950002A291F928F9383EB91E39F938F930E9479
:10296000D6848DB79EB780968DBF9EBF8AE090E0DB
:102970000E94EA840E94CC138AE090E00E94EA84DC
:1029800081ED91E30E94F0840E944E138FEE91E35B
:102990000E94F0840E948D1380E0DF91CF91089512
:1029A0000E944414882341F081E89EE29F938F9314
:1029B0000E94D6840F900F908EE092E30E94F084E4
:1029C00080E00895E0E2F5E290E0A481B5812C91E9
:1029D000281307C02EE0929FC0011124805E9A4DFB
:1029E00008959F5F3E96953081F780E090E00895CE
:1029F0008F929F92AF92BF92CF92DF92EF92FF920F
:102A00000F931F93CF93DF9300EA16E081E0F80164
:102A10008183868390E8E92E96E0F92E22E0A22EAB
:102A2000F701A182A58230E2B32EB182B582828302
:102A3000D4E0D183D68388E08183858340E1842EEE
:102A4000828250E4952E9182968280E881838583EC
:102A50006AE07BE882E090E00E94FD07F801D18304
:102A6000D5836AE27CE28AE090E00E94FD07F801EB
:102A7000A182A5826AE27CE28AE090E00E94FD07E2
:102A8000E0E0F6E0A182A5822CE335E24BE25CE3D4
:102A900066E37CE380E39CE30E94D816C82F80E3C2
:102AA0009CE30E940717C80F60E080E39CE30E944C
:102AB0003A1BC80F80E39CE30E94CA17C80F64E466
:102AC00076E080E39CE30E94E119C80F8CE10E944C
:102AD000E2148C012BE23CE346E35CE363EC74E23A
:102AE00082E39CE30E94141FC80F82E39CE30E94D0
:102AF0005E1FC80F60E6C62E66E0D62EF6018682FF
:102B00008582958288E10E94E2149C014BE25CE39D
:102B100066E37CE382E49CE30E94FB28C80FF70194
:102B2000A68265E372E880E090E00E94FD0782E4FF
:102B30009CE30E944324C80F65E176E185E090E0C4
:102B40000E94FD078DE10E94E2148C012BE23CE320
:102B500046E35CE362EC74E287E29CE30E94141FAC
:102B6000C80F87E29CE30E945E1FC80FF601B68281
:102B7000B58289E10E94E2149C014BE25CE366E3CA
:102B80007CE38AE69CE30E94FB28C80FF701B6822B
:102B900065E372E880E090E00E94FD078AE69CE32E
:102BA0000E944324C80F65E176E185E090E00E9431
:102BB000FD07D09326068C2FDF91CF911F910F91A7
:102BC000FF90EF90DF90CF90BF90AF909F908F904D
:102BD00008950E94F814E0EAF6E094E0968392E00B
:102BE000968308950E94E915882341F081E89EE2CA
:102BF0009F938F930E94D6840F900F908BE192E366
:102C00000E94F08480E008950E94F814882341F027
:102C100081E89EE29F938F930E94D6840F900F903D
:102C200088E292E30E94F08480E00895843689F57A
:102C300083E090E0A0E0B0E08093202390932123F4
:102C4000A0932223B09323238FE090E0A0E0B0E094
:102C50008093322390933323A0933423B09335236E
:102C600010925623109257231092582310925923F2
:102C7000109268231092692310926A2310926B239A
:102C800010929E2310929F231092A0231092A123B2
:102C900058C08037C9F483E090E0A0E0B0E08093B2
:102CA000D4239093D523A093D623B093D7238FE03A
:102CB00090E0A0E0B0E08093E6239093E723A09318
:102CC000E823B093E9233DC0823669F483E090E0C5
:102CD000A0E0B0E080936C2290936D22A0936E22CE
:102CE000B0936F222EC0813661F583E090E0A0E0C2
:102CF000B0E08093B4229093B522A093B622B09313
:102D0000B7228FE090E0A0E0B0E08093C6229093DD
:102D1000C722A093C822B093C92281E190E0A0E02D
:102D2000B0E08093D8229093D922A093DA22B09376
:102D3000DB228093FC229093FD22A093FE22B0938D
:102D4000FF2280E0089580E0089580E008951092C9
:102D5000A6211092A7211092A8211092A92180E00B
:102D6000089585E392E39F938F930E94D6840F90FA
:102D70000F9080E008950F931F938A012CE040E0AC
:102D800050E20E94477981508D3070F440E06CE051
:102D900080E090E20E9426808DE492E39F938F93DF
:102DA0000E94D6840F900F9080E01F910F9108959C
:102DB000CF93DF93CDB7DEB72897CDBFDEBF898332
:102DC0009A836B837C834D835E832F8338878981CD
:102DD0009A81009711F481E014C089819A812F8132
:102DE0003885FC01208331838B819C818093E73B74
:102DF0009093E83B8D819E818093E93B9093EA3BE1
:102E000080E02896CDBFDEBFDF91CF910895CF93AC
:102E1000DF931F921F92CDB7DEB789839A83898192
:102E20009A81009711F481E0B0C02091E73B309186
:102E3000E83B8091E93B9091EA3B41E0B9010E9477
:102E4000871C89819A81FC0180819181FC0120810C
:102E500031814091E73B5091E83B6091E93B7091B3
:102E6000EA3B89819A81FC0180819181F901199560
:102E70002091E73B3091E83B8091E93B9091EA3B20
:102E800040E0B9010E944C1D89819A81FC0180813A
:102E90009181FC01208131814091E73B5091E83BD9
:102EA0006091E93B7091EA3B89819A81FC018081C4
:102EB0009181F90119956091E73B7091E83B809110
:102EC000E93B9091EA3B2FE043E00E94031D89819A
:102ED0009A81FC0180819181FC01208131814091A6
:102EE000E73B5091E83B6091E93B7091EA3B898177
:102EF0009A81FC0180819181F90119952091E73B2C
:102F00003091E83B8091E93B9091EA3B40E050E012
:102F1000B9010E94031C89819A81FC018081918101
:102F2000FC01208131814091E73B5091E83B609169
:102F3000E93B7091EA3B89819A81FC018081918112
:102F4000F90119952091E73B3091E83B8091E93BED
:102F50009091EA3BB9010E944C1C89819A81FC0145
:102F600080819181FC01208131814091E73B50912A
:102F7000E83B6091E93B7091EA3B89819A81FC01D1
:102F800080819181F901199580E00F900F90DF9178
:102F9000CF910895CF93DF931F921F92CDB7DEB7E5
:102FA00089839A8389819A81009711F481E06EC0A8
:102FB00089819A810E9407172091E73B3091E83B75
:102FC0008091E93B9091EA3B4FEF57E0B9010E94B5
:102FD000031C89819A81FC0180819181FC012081FF
:102FE00031814091E73B5091E83B6091E93B709122
:102FF000EA3B89819A81FC0180819181F9011995CF
:103000002091E73B3091E83B8091E93B9091EA3B8E
:10301000B9010E944C1C89819A81FC0180819181B7
:10302000FC01208131814091E73B5091E83B609168
:10303000E93B7091EA3B89819A81FC018081918111
:10304000F90119956091E73B7091E83B8091E93B6C
:103050009091EA3B2FE040E00E94031D89819A8114
:10306000FC0180819181FC01208131814091E73B0D
:103070005091E83B6091E93B7091EA3B89819A81EC
:10308000FC0180819181F901199580E00F900F90EA
:10309000DF91CF910895CF93DF931F921F92CDB709
:1030A000DEB789839A8389819A81009711F481E040
:1030B00001C080E00F900F90DF91CF910895CF93E2
:1030C000DF931F921F92CDB7DEB789839A838981E0
:1030D0009A81009711F481E024C06091E73B7091E0
:1030E000E83B8091E93B9091EA3B2FE043E00E946E
:1030F000031D89819A81FC0180819181FC012081DD
:1031000031814091E73B5091E83B6091E93B709100
:10311000EA3B89819A81FC0180819181F9011995AD
:1031200080E00F900F90DF91CF910895CF93DF93C0
:103130001F921F92CDB7DEB789839A8389819A81C6
:10314000009711F481E024C02091E73B3091E83BE7
:103150008091E93B9091EA3B41E0B9010E94C51C96
:1031600089819A81FC0180819181FC0120813181DA
:103170004091E73B5091E83B6091E93B7091EA3B1D
:1031800089819A81FC0180819181F901199580E002
:103190000F900F90DF91CF910895CF93DF931F92FF
:1031A0001F92CDB7DEB789839A8389819A81009770
:1031B00011F481E024C06091E73B7091E83B80917D
:1031C000E93B9091EA3B2FE043E00E94031D898197
:1031D0009A81FC0180819181FC01208131814091A3
:1031E000E73B5091E83B6091E93B7091EA3B898174
:1031F0009A81FC0180819181F901199580E00F90FD
:103200000F90DF91CF910895CF93DF9300D000D03E
:10321000CDB7DEB789839A834B835C836D837E83CE
:1032200089819A81009711F481E029C06091E73B80
:103230007091E83BE091E93BF091EA3B8B819C8106
:10324000AD81BE819C01AD01CF010E948A1D8981A3
:103250009A81FC0180819181FC0120813181409122
:10326000E73B5091E83B6091E93B7091EA3B8981F3
:103270009A81FC0180819181F901199580E026965F
:10328000CDBFDEBFDF91CF910895CF93DF931F9223
:103290001F92CDB7DEB789839A8389819A8100977F
:1032A00011F481E024C06091E73B7091E83B80918C
:1032B000E93B9091EA3B2FE043E00E94031D8981A6
:1032C0009A81FC0180819181FC01208131814091B2
:1032D000E73B5091E83B6091E93B7091EA3B898183
:1032E0009A81FC0180819181F901199580E00F900C
:1032F0000F90DF91CF910895CF93DF93CDB7DEB7D5
:103300002597CDBFDEBF89839A836B837C834D83F2
:1033100089819A81009711F480E04DC08D818430BD
:1033200010F082E048C06091E73B7091E83B8091EB
:10333000E93B9091EA3B4B815C812D810E947A1B95
:1033400089819A81FC0180819181FC0120813181F8
:103350004091E73B5091E83B6091E93B7091EA3B3B
:1033600089819A81FC0180819181F90119952091CF
:10337000E73B3091E83B8091E93B9091EA3B4D81FE
:10338000B9010E94C51B89819A81FC0180819181CC
:10339000FC01208131814091E73B5091E83B6091F5
:1033A000E93B7091EA3B89819A81FC01808191819E
:1033B000F901199580E02596CDBFDEBFDF91CF9151
:1033C0000895CF93DF9300D01F92CDB7DEB78983E6
:1033D0009A836B837C8389819A81009711F481E0C1
:1033E00047C02091E73B3091E83B8091E93B9091C9
:1033F000EA3B4B815C81B9010E94031C89819A815F
:10340000FC0180819181FC01208131814091E73B69
:103410005091E83B6091E93B7091EA3B89819A8148
:10342000FC0180819181F90119952091E73B309150
:10343000E83B8091E93B9091EA3BB9010E944C1C2A
:1034400089819A81FC0180819181FC0120813181F7
:103450004091E73B5091E83B6091E93B7091EA3B3A
:1034600089819A81FC0180819181F901199580E01F
:103470002496CDBFDEBFDF91CF910895CF93DF9328
:1034800000D0CDB7DEB789839A836B8389819A8117
:10349000009711F481E033C08B81843010F082E01A
:1034A0002EC08B81282F30E081E090E002C0880F91
:1034B000991F2A95E2F7282F6091E73B7091E83B2E
:1034C0008091E93B9091EA3B40E00E94031D898195
:1034D0009A81FC0180819181FC01208131814091A0
:1034E000E73B5091E83B6091E93B7091EA3B898171
:1034F0009A81FC0180819181F901199580E02396E0
:10350000CDBFDEBFDF91CF910895CF93DF931F92A0
:103510001F92CDB7DEB789839A8389819A810097FC
:1035200011F481E024C06091E73B7091E83B809109
:10353000E93B9091EA3B2FE040E00E94031D898126
:103540009A81FC0180819181FC012081318140912F
:10355000E73B5091E83B6091E93B7091EA3B898100
:103560009A81FC0180819181F901199580E00F9089
:103570000F90DF91CF910895CF93DF9300D0CDB717
:10358000DEB789839A836B8389819A81009711F4CE
:1035900081E033C08B81843010F082E02EC08B81BB
:1035A000282F30E081E090E002C0880F991F2A9513
:1035B000E2F7282F6091E73B7091E83B8091E93B6F
:1035C0009091EA3B43E00E94031D89819A81FC01AE
:1035D00080819181FC01208131814091E73B5091B4
:1035E000E83B6091E93B7091EA3B89819A81FC015B
:1035F00080819181F901199580E02396CDBFDEBFCE
:10360000DF91CF910895CF93DF931F921F92CDB793
:10361000DEB789839A8389819A81009711F481E0CA
:1036200024C06091E73B7091E83B8091E93B909129
:10363000EA3B2FE043E00E94031D89819A81FC014F
:1036400080819181FC01208131814091E73B509143
:10365000E83B6091E93B7091EA3B89819A81FC01EA
:1036600080819181F901199580E00F900F90DF9191
:10367000CF910895CF93DF9300D0CDB7DEB7898384
:103680009A836B8389819A81009711F481E02CC021
:103690008B81813029F08B81882311F082E024C056
:1036A0002091E73B3091E83B8091E93B9091EA3BE8
:1036B0004B81B9010E94871C89819A81FC0180811C
:1036C0009181FC01208131814091E73B5091E83BA1
:1036D0006091E93B7091EA3B89819A81FC0180818C
:1036E0009181F901199580E02396CDBFDEBFDF916E
:1036F000CF910895CF93DF93CDB7DEB72797CDBF96
:10370000DEBF89839A836B837C834D835E832F83A3
:1037100089819A81FC01108289819A8123E0FC01D0
:10372000218389819A8123E0FC01248389819A8104
:10373000FC01828193812F81FC01208389819A8100
:10374000FC018281938101962D813E813F703295EB
:1037500022952F7023273F702327FC012083898126
:103760009A81FC018281938102962D812295207F8E
:10377000FC0120838B819C81FC0114820000279630
:10378000CDBFDEBFDF91CF910895CF93DF93CDB74B
:10379000DEB72597CDBFDEBF89839A836B837C8399
:1037A0004D8389819A81FC01108289819A8123E06D
:1037B000FC01218389819A8123E0FC012483898192
:1037C0009A81FC01828193812D812860FC012083F4
:1037D00089819A81FC01828193810196FC0110828A
:1037E00089819A81FC01828193810296FC01108279
:1037F0008B819C81FC01148200002596CDBFDEBF29
:10380000DF91CF910895CF93DF9300D000D0CDB753
:10381000DEB789839A836B837C834D835E83898142
:103820009A81FC01108289819A8123E0FC01218325
:1038300089819A8123E0FC01248389819A81FC019A
:103840008281938127E0FC01208389819A81FC0198
:103850008281938101962D813E813F703295229520
:103860002F7023273F702327FC01208389819A81B1
:10387000FC018281938102962D812295207FFC019B
:1038800020838B819C81FC01148200002696CDBF91
:10389000DEBFDF91CF910895CF93DF9300D01F92C9
:1038A000CDB7DEB789839A836B837C8389819A81C4
:1038B000FC01108289819A8123E0FC0121838981A6
:1038C0009A8123E0FC01248389819A81FC01828111
:1038D00093812FE0FC01208389819A81FC01828100
:1038E00093810196FC01108289819A81FC01828179
:1038F00093810296FC0110828B819C81FC011482D1
:1039000000002496CDBFDEBFDF91CF910895CF9305
:10391000DF93CDB7DEB72597CDBFDEBF89839A830E
:103920006B837C834D8389819A81FC01108289811C
:103930009A8123E0FC01218389819A8123E0FC01A3
:10394000248389819A81FC018281938128E3FC018F
:10395000208389819A81FC01828193810196FC01F7
:10396000108289819A81FC018281938102962D8146
:10397000FC0120838B819C81FC0114820000259630
:10398000CDBFDEBFDF91CF910895CF93DF93CDB749
:10399000DEB72597CDBFDEBF89839A836B837C8397
:1039A0004D8389819A81FC01108289819A8123E06B
:1039B000FC01218389819A8123E0FC012483898190
:1039C0009A81FC018281938128E2FC012083898114
:1039D0009A81FC01828193810196FC011082898188
:1039E0009A81FC018281938102962D81FC012083C2
:1039F0008B819C81FC01148200002596CDBFDEBF27
:103A0000DF91CF910895CF93DF9300D000D0CDB751
:103A1000DEB789839A836B837C834D832E83898170
:103A20009A81FC01108289819A8123E0FC01218323
:103A300089819A8123E0FC01248389819A81FC0198
:103A40008281938120E2FC01208389819A81FC019B
:103A5000828193810196FC01108289819A81FC0107
:103A60008281938102962D81222F30E0229532951A
:103A7000307F3227207F3227322F2E81232BFC01EB
:103A800020838B819C81FC01148200002696CDBF8F
:103A9000DEBFDF91CF910895CF93DF93CDB7DEB72F
:103AA0002597CDBFDEBF89839A836B837C834D834B
:103AB00089819A81FC01108289819A8123E0FC012D
:103AC000218389819A8123E0FC01248389819A8161
:103AD000FC018281938120E3FC01208389819A810A
:103AE000FC01828193810196FC01108289819A8177
:103AF000FC018281938102962D81FC0120838B81C0
:103B00009C81FC01148200002596CDBFDEBFDF91B1
:103B1000CF910895CF93DF93CDB7DEB72897CDBF70
:103B2000DEBF89839A836B837C832D833E834F839F
:103B3000588789819A81FC01108289819A8123E0CA
:103B4000FC01218389819A8123E0FC0124838981FE
:103B50009A81FC01228133818D819E81AF81B8855C
:103B6000CD01AA27BB27F901808389819A81FC01B5
:103B7000828193819C012F5F3F4F8D819E81AF8118
:103B8000B885892F9A2FAB2FBB27F90180838981B4
:103B90009A81FC018281938102962D81FC01208310
:103BA0008B819C81FC01148200002896CDBFDEBF72
:103BB000DF91CF910895CF92DF92EF92FF920F9312
:103BC0001F93CF93DF93CDB7DEB72897CDBFDEBF6E
:103BD00089839A836B834C835D832E830F8318873D
:103BE00089819A81FC01A281B3818E81282F30E0E6
:103BF0008C819D81AC0102C0440F551F2A95E2F7CC
:103C00008091EB3B9091EC3BFC01228133816091F0
:103C1000EB3B7091EC3B8091ED3B9091EE3BEF8163
:103C2000F8856D017F018A014B810E9430238981D3
:103C30009A81FC0180819181FC0120813181409138
:103C4000EB3B5091EC3B6091ED3B7091EE3B8981F9
:103C50009A81FC0180819181F901199500002896D3
:103C6000CDBFDEBFDF91CF911F910F91FF90EF90FD
:103C7000DF90CF9008950F931F93CF93DF93CDB72D
:103C8000DEB72597CDBFDEBF8B839C836D83198202
:103C90001A8289819A81806189839A8349815A81B4
:103CA0008B819C810FEF10E020E065E00E94DB1D1E
:103CB0008B819C81FC01228133816091EB3B70916F
:103CC000EC3B8091ED3B9091EE3B4D810E94C523F2
:103CD0008B819C81FC0180819181FC01208131815B
:103CE0004091EB3B5091EC3B6091ED3B7091EE3B92
:103CF0008B819C81FC0180819181F9011995109241
:103D0000EF3B1092F03B8091EB3B9091EC3BFC0140
:103D100082819381FC018081882F90E0880F991F18
:103D2000382F22278091EF3B9091F03B822B932BF1
:103D30008093EF3B9093F03B8091EB3B9091EC3B79
:103D4000FC01828193810196FC018081882F90E0A3
:103D50009C01220F331F8091EF3B9091F03B822B0F
:103D6000932B8093EF3B9093F03B8091EB3B9091B2
:103D7000EC3BFC01828193810296FC018081881FCB
:103D80008827881F882F90E09C012170332780911D
:103D9000EF3B9091F03B822B932B8093EF3B9093E2
:103DA000F03B8B819C8165E00E9467228091EF3B14
:103DB0009091F03B880F892F881F990B91958983EB
:103DC0009A838091EB3B9091EC3BFC018281938143
:103DD0000296FC0110828091EB3B9091EC3BFC0140
:103DE0008281938101962981279522272795FC01BD
:103DF00020838091EB3B9091EC3BFC01828193818D
:103E000029813A8136952795FC0120838091EB3BEF
:103E10009091EC3BFC0180812596CDBFDEBFDF9108
:103E2000CF911F910F9108950F931F93CF93DF931D
:103E3000CDB7DEB72A97CDBFDEBF89839A836B8368
:103E40007C834D835E832F83388709871A87898116
:103E50009A81009711F481E029C08D819E8100979D
:103E600041F08F819885009721F089859A85009788
:103E700011F483E01BC089819A812B813C81FC0174
:103E80002283338389819A8129853A85FC012083A5
:103E900031838D819E818093EB3B9093EC3B8F81AE
:103EA00098858093ED3B9093EE3B80E02A96CDBFC2
:103EB000DEBFDF91CF911F910F910895CF93DF93D4
:103EC00000D0CDB7DEB78A839B838A819B81009720
:103ED00011F481E00EC0198208C08A819B8169813A
:103EE0000E94672289818F5F898389818830A8F346
:103EF00080E02396CDBFDEBFDF91CF910895CF93B1
:103F0000DF931F921F92CDB7DEB789839A83898191
:103F10009A81009711F481E001C080E00F900F902A
:103F2000DF91CF910895CF93DF931F921F92CDB76A
:103F3000DEB789839A8389819A81009711F481E0A1
:103F40000AC089819A8160E00E943B1E882311F09B
:103F500082E001C080E00F900F90DF91CF91089533
:103F60000F931F93CF93DF93CDB7DEB72597CDBFC8
:103F7000DEBF89839A836B834C835D8389819A81B9
:103F8000009719F481E090E00CC04C815D8189813B
:103F90009A810FEF1FEF20E06B810E94DB1D80E014
:103FA00090E02596CDBFDEBFDF91CF911F910F919D
:103FB0000895CF93DF9300D0CDB7DEB789839A837E
:103FC0006B8389819A81009719F481E090E009C0A0
:103FD00089819A816B810E943B1E8091EF3B909179
:103FE000F03B2396CDBFDEBFDF91CF910895CF93F5
:103FF000DF9300D01F92CDB7DEB789839A836B839E
:104000007C8380E02496CDBFDEBFDF91CF91089501
:10401000CF93DF9300D01F92CDB7DEB789839A8309
:104020006B837C8380E02496CDBFDEBFDF91CF9190
:1040300008950F931F93CF93DF9300D01F92CDB7B6
:10404000DEB789839A836B837C8389819A81009709
:1040500011F481E01BC08B819C818630910530F08A
:1040600083E795E20E94F08483E010C089819A8101
:1040700062E00E943B1E4B815C8189819A8103E052
:1040800010E020E062E00E94DB1D80E02496CDBFBE
:10409000DEBFDF91CF911F910F910895CF93DF93F2
:1040A0001F921F92CDB7DEB789839A8389819A8147
:1040B000009711F481E01BC089819A8162E00E941F
:1040C000D91F880F892F881F990B9195292F2F931E
:1040D0008F938AE995E2892F8F938AE995E28F93EE
:1040E0000E94D6840F900F900F900F9080E00F9059
:1040F0000F90DF91CF9108950F931F93CF93DF938C
:1041000000D01F92CDB7DEB789839A836B837C83FF
:1041100089819A81009711F481E01BC08B819C8179
:104120008230910530F082EA95E20E94F08483E0CB
:1041300010C089819A8166E00E943B1E4B815C81A0
:1041400089819A8101E010E022E066E00E94DB1D97
:1041500080E02496CDBFDEBFDF91CF911F910F91FC
:104160000895CF93DF931F921F92CDB7DEB7898357
:104170009A8389819A81009711F481E01BC089811B
:104180009A8166E00E94D91F880F892F881F990B9A
:104190009195292F2F938F938AE995E2892F8F93F9
:1041A0008AE995E28F930E94D6840F900F900F902A
:1041B0000F9080E00F900F90DF91CF9108950F93B3
:1041C0001F93CF93DF9300D01F92CDB7DEB78983C3
:1041D0009A836B837C8389819A81009711F481E0B3
:1041E0003FC08B819C818E33910530F08CED95E240
:1041F0000E94F08483E034C08B819C818D339105D3
:1042000081F489819A8164E00E943B1E89819A81B0
:1042100000E110E024E040E050E064E00E94DB1D9B
:104220001EC089819A8164E00E943B1E89819A8127
:1042300000E110E024E041E050E064E00E94DB1D7A
:1042400089819A8167E00E943B1E4B815C81898154
:104250009A810FE310E020E067E00E94DB1D80E020
:104260002496CDBFDEBFDF91CF911F910F910895AE
:10427000CF93DF931F921F92CDB7DEB789839A83C6
:1042800089819A81009711F481E01BC089819A810C
:1042900067E00E94D91F880F892F881F990B91957D
:1042A000292F2F938F938AE995E2892F8F938AE99B
:1042B00095E28F930E94D6840F900F900F900F90ED
:1042C00080E00F900F90DF91CF9108950F931F938F
:1042D000CF93DF9300D0CDB7DEB78A839B838A81EB
:1042E0009B81009711F481E023C08A819B8166E065
:1042F0000E94D91F898389818E7F89838981482F74
:1043000050E08A819B810FEF1FEF20E066E00E9462
:10431000DB1D8981816089838981482F50E08A81F2
:104320009B810FEF1FEF20E066E00E94DB1D80E025
:104330002396CDBFDEBFDF91CF911F910F910895DE
:104340000F931F93CF93DF9300D0CDB7DEB78A834F
:104350009B838A819B81009711F481E031C08A811F
:104360009B8166E00E94D91F898389818D7F898323
:104370008981482F50E08A819B810FEF1FEF20E059
:1043800066E00E94DB1D8981826089838981482FD4
:1043900050E08A819B810FEF1FEF20E066E00E94D2
:1043A000DB1D89818D7F89838981482F50E08A8137
:1043B0009B810FEF1FEF20E066E00E94DB1D80E095
:1043C0002396CDBFDEBFDF91CF911F910F9108954E
:1043D0000F931F93CF93DF93CDB7DEB72597CDBF54
:1043E000DEBF8A839B836C837D838A819B81009758
:1043F00011F481E028C08C819D818230910530F0DC
:1044000082E096E20E94F08483E01DC08A819B8155
:1044100064E00E94D91F89838C819D81009721F0DF
:1044200089818260898303C089818D7F89838981A5
:10443000482F50E08A819B810FEF1FEF20E064E05E
:104440000E94DB1D80E02596CDBFDEBFDF91CF91BE
:104450001F910F910895CF93DF931F921F92CDB7B5
:10446000DEB789839A8389819A8164E00E94D91F8B
:10447000292F2F938F9388E296E2892F8F9388E2DA
:1044800096E28F930E94D6840F900F900F900F901A
:1044900089819A8164E00E94D91F892F99278170B0
:1044A0009927292F2F938F938AE995E2892F8F934C
:1044B0008AE995E28F930E94D6840F900F900F9017
:1044C0000F9080E00F900F90DF91CF9108950F93A0
:1044D0001F93CF93DF93CDB7DEB72597CDBFDEBF58
:1044E0008B839C836D8319821A828D81882F90E043
:1044F000AA2797FDA095BA2F40E050E027E030E0D2
:10450000841B950B2817390708F4A2C0FC018827E3
:10451000EC50FF4F8F4F0C94538319821A824981BC
:104520005A818B819C810FEF1FEF20E06D810E94EB
:10453000DB1D8EC089819A81886089839A838981F5
:104540009A81846089839A8389819A818260898330
:104550009A8389819A81816089839A8349815A816A
:104560008B819C810FEF1FEF20E06D810E94DB1D8E
:104570006FC089819A81816089839A8349815A8138
:104580008B819C810FEF1FEF20E06D810E94DB1D6E
:104590005FC089819A81826089839A8389819A81A7
:1045A000886089839A8389819A81806389839A83C9
:1045B00049815A818B819C810FEF1FEF20E06D8133
:1045C0000E94DB1D45C089819A81886089839A8316
:1045D00089819A81826089839A8389819A818160A5
:1045E00089839A8349815A818B819C810FEF1FEFC8
:1045F00020E06D810E94DB1D2BC089819A81806241
:1046000089839A8349815A818B819C810FEF1FEFA7
:1046100020E06D810E94DB1D1BC089819A81816031
:1046200089839A8349815A818B819C810FEF1FEF87
:1046300020E06D810E94DB1D0BC049815A818B8176
:104640009C810FEF1FEF20E06D810E94DB1D0000B9
:104650002596CDBFDEBFDF91CF911F910F910895B9
:10466000CF92DF92EF92FF920F931F93CF93DF933E
:10467000CDB7DEB72D97CDBFDEBF89839A836B831D
:104680007C834D832E833F8308871987EA86FB86C8
:10469000CC86DD86288539858A859B858223932370
:1046A0008887998789819A81FC01108289819A8102
:1046B00022E0FC01218389819A8122E0FC0124838C
:1046C00089819A81FC01828193812E813F81F90148
:1046D00040812A853B85369527952095422328855C
:1046E000398536952795242BFC01208389819A8171
:1046F000FC018281938101962E813F812F5F3F4F84
:10470000F90130812A852795222727952095322384
:104710002885279522272795232BFC012083898133
:104720009A81FC0182819381019629813A81F90164
:10473000228133812F5F3F4FF9012081422F407842
:104740002D81222F30E02F703327220F331F220FAD
:10475000331F220F331F422B2C853D85F901208109
:104760002770242BFC0120838B819C81FC01148207
:1047700000002D96CDBFDEBFDF91CF911F910F912D
:10478000FF90EF90DF90CF900895CF93DF93CDB758
:10479000DEB72797CDBFDEBF89839A836B837C8387
:1047A0004D832E833F8389819A81FC011082898108
:1047B0009A8122E0FC01218389819A8122E0FC0117
:1047C000248389819A81FC01828193812D812695A0
:1047D0002770FC01208389819A81FC018281938169
:1047E00001962D81222F30E03695322F22273795E2
:1047F0002795422F2E813F81F90120812770242B9C
:10480000FC0120838B819C81FC0110828B819C8127
:1048100022E1FC0121838B819C8123E0FC01248324
:104820008B819C81FC018281938129813A81F901EC
:1048300022813381F9012081FC0120838B819C81BD
:10484000FC0182819381019629813A81F9012281BB
:104850003381F9012181FC0120838B819C81FC0142
:1048600082819381029629813A81F90122813381E3
:10487000F9012181FC01208300002796CDBFDEBF16
:10488000DF91CF910895CF93DF931F921F92CDB701
:10489000DEB789839A8389819A81009711F481E038
:1048A0001DC089819A8140E960E070E00E94DC29A6
:1048B00089819A8140E160E070E00E94DC29898171
:1048C0009A8140E062E070E00E94DC2989819A814F
:1048D0004FE36FE571E00E94DC2980E00F900F90BC
:1048E000DF91CF910895CF93DF9300D000D0CDB763
:1048F000DEB78B839C836D837E83198281E08A83FC
:104900008D819E81CC01A0E0B0E040E050E028E83D
:1049100031E0841B950B2817390708F424C2FC01E9
:104920008827E450FF4F8F4F0C9453838981806117
:1049300089831DC289818860898319C289818064C5
:10494000898389818460898312C28981886089838F
:104950008981806289830BC289818860898389818A
:104960008061898304C289818061898389818062B1
:104970008983898180688983898182608983F7C17D
:10498000898185608983898180658983F0C1898176
:1049900088608983ECC1898180648983898184608E
:1049A0008983E5C18981886089838981806289835F
:1049B000DEC1898188608983898180618983D7C1CB
:1049C0008981806189838981806289838981806806
:1049D0008983898182608983CAC18981856089834D
:1049E000898180658983C3C1898188608983BFC1CA
:1049F000898180648983898184608983B8C1898140
:104A000088608983898180628983B1C18981886056
:104A10008983898180618983AAC189818061898331
:104A200089818062898389818068898389818260A4
:104A300089839DC189818560898389818065898316
:104A400096C189818860898392C1898188608983C0
:104A50008981806289838BC189818860898389810A
:104A60008061898384C18981806189838981806231
:104A7000898389818068898389818260898377C1FC
:104A800089818560898389818065898370C18981F5
:104A9000886089836CC1898180648983898184600D
:104AA000898365C1898188608983898180628983DE
:104AB0005EC189818860898389818061898357C1CA
:104AC0008981806189838981806289838981806805
:104AD00089838981826089834AC1898185608983CC
:104AE00089818065898343C18981886089833FC1C9
:104AF00089818064898389818460898338C18981BF
:104B00008860898389818062898331C189818860D5
:104B100089838981806189832AC1898180618983B0
:104B200089818062898389818068898389818260A3
:104B300089831DC189818560898389818065898395
:104B400016C189818860898312C1898180648983C3
:104B50008981846089830BC1898188608983898187
:104B60008062898304C189818860898389818061A9
:104B70008983FDC08981806189838981806289837D
:104B8000898180688983898182608983F0C0898175
:104B900085608983898180658983E9C08981816095
:104BA0008983898180618983E2C089818260898368
:104BB000DEC0898182608983DAC0898188608983C7
:104BC000D6C0898182608983D2C0898181608983CE
:104BD000898188608983CBC0898182608983C7C0CD
:104BE000898186608983C3C0898182608983898144
:104BF00084608983898188608983898180618983D0
:104C0000898180648983B3C089818F678983AFC0BC
:104C1000898180618983ABC089818860898389812A
:104C200080618983A4C0898182608983A0C08981D1
:104C30008064898389818260898399C08981826047
:104C400089838981846089838981806189838FC018
:104C50008981806C89838BC089818F67898387C0B4
:104C600089818160898389818260898380C089810B
:104C7000826089837CC089818160898378C08981D1
:104C80008160898374C089818160898370C08981D2
:104C9000816489836CC089818E6089838981806108
:104CA000898365C089818B61898361C089818A60BC
:104CB00089835DC0898183608983898188638983D1
:104CC00056C089818460898352C0898184608983C8
:104CD0004EC089818D6089834AC089818D608983B6
:104CE00046C08981816089838981806189838981C6
:104CF000806489833CC089818F61898338C08981C0
:104D00008D6B898334C089818360898389818860C0
:104D100089832DC089818A6A898329C089818260BB
:104D2000898325C089818561898321C089818363C5
:104D300089831DC089818460898389818260898398
:104D400016C08981846089838981826089830FC0CC
:104D500089818064898389818061898308C0898190
:104D60008D60898304C019821A8201C000008A8183
:104D7000882341F02D813E818B819C814981B9013D
:104D80000E94DC2989812696CDBFDEBFDF91CF91BD
:104D90000895CF93DF9300D000D0CDB7DEB78B83DB
:104DA0009C836D837E83198281E08A838D819E81BD
:104DB000CC01A0E0B0E040E050E028E831E0841B06
:104DC000950B2817390708F400C2FC018827EB5718
:104DD000FD4F8F4F0C945383898180618983F9C182
:104DE00089818F608983F5C1898180648983898104
:104DF00084608983EEC1898188608983898180622A
:104E00008983E7C1898180618983898180628983FF
:104E1000898180688983898182608983DAC18981F7
:104E200085608983898180658983D3C189818F6009
:104E30008983CFC1898180648983898184608983E2
:104E4000C8C1898188608983898180628983C1C161
:104E50008981806189838981806289838981806871
:104E60008983898182608983B4C1898185608983CE
:104E7000898180658983ADC189818F608983A9C15A
:104E8000898180648983898184608983A2C18981C1
:104E9000886089838981806289839BC189818061DF
:104EA00089838981806289838981806889838981F6
:104EB000826089838EC189818560898389818065CB
:104EC000898387C189818F60898383C18981886053
:104ED00089838981806289837CC18981806189839A
:104EE00089818062898389818068898389818260E0
:104EF00089836FC189818560898389818065898380
:104F000068C189818F60898364C189818064898354
:104F10008981846089835DC1898188608983898171
:104F20008062898356C18981806189838981806299
:104F3000898389818068898389818260898349C165
:104F400089818560898389818065898342C189815E
:104F50008F6089833EC1898180648983898184606F
:104F6000898337C189818860898389818062898347
:104F700030C1898180618983898180628983898147
:104F80008068898389818260898323C18981856062
:104F900089838981806589831CC18981886089832F
:104FA00018C189818064898389818460898311C162
:104FB0008981886089838981806289830AC1898126
:104FC00080618983898180628983898180688983FE
:104FD000898182608983FDC0898185608983898117
:104FE00080658983F6C08981816089838981806138
:104FF0008983898180628983ECC089818360898308
:10500000E8C089818F608983E4C089818860898351
:10501000E0C0898182608983DCC089818160898365
:10502000898188608983D5C08981816089838981EC
:1050300082608983CEC0898186608983CAC0898164
:10504000816089838981846089838981886089837B
:10505000898180618983898180648983BAC08981DB
:105060008F678983B6C0898180618983B2C0898155
:1050700088608983898180618983ABC089818260EE
:105080008983A7C0898180648983898182608983BB
:10509000A0C08981826089838981846089838981B4
:1050A0008061898396C08981806C898392C089815F
:1050B0008F6789838EC089818160898389818260BD
:1050C000898387C089818260898383C08981816067
:1050D00089837FC08981816089837BC08981816068
:1050E000898377C089818560898373C089818E6057
:1050F00089838981806189836CC089818B6189837F
:1051000068C089818A60898364C08981836089835A
:105110008981886389835DC089818460898359C05E
:105120008981846089838981806A898352C0898169
:10513000836089834EC08981836089834AC0898165
:105140008160898389818861898389818064898379
:1051500040C089818F6189833CC089818D6B89833F
:1051600038C089818360898389818860898331C05F
:1051700089818A6A89832DC089818260898329C057
:1051800089818A60898325C089818561898321C05D
:105190008981836389831DC0898184608983898132
:1051A0008260898316C08981846089838981826055
:1051B00089830FC089818064898389818061898323
:1051C00008C089818D60898304C019821A8201C058
:1051D00000008A81882341F02D813E818B819C8152
:1051E0004981B9010E94DC2989812696CDBFDEBFA5
:1051F000DF91CF910895CF93DF93CDB7DEB7289796
:10520000CDBFDEBF89839A836B837C834D835E83AE
:105210002F83388789819A81009711F481E014C027
:1052200089819A812F813885FC01208331838B818C
:105230009C818093F13B9093F23B8D819E81809382
:10524000F33B9093F43B80E02896CDBFDEBFDF9127
:10525000CF910895EF920F93CF93DF9300D000D0BA
:10526000CDB7DEB78B839C836D837E838BE38A838C
:105270006091F13B7091F23B8091F33B9091F43B54
:105280009E012E5F3F4FE12C00E04FE551E00E9470
:1052900026448B819C81FC0180819181FC012081CD
:1052A00031814091F13B5091F23B6091F33B709121
:1052B000F43B8B819C81FC0180819181F9011995DE
:1052C0008B819C81FC0180819181FC012081318155
:1052D0004091F13B5091F23B6091F33B7091F43B74
:1052E0008B819C81FC0180819181F9011995882332
:1052F00011F082E059C02091F13B3091F23B809156
:10530000F33B9091F43B4D815E81B9010E947F4453
:105310008B819C81FC0180819181FC012081318104
:105320004091F13B5091F23B6091F33B7091F43B23
:105330008B819C81FC0180819181F901199580917B
:10534000F13B9091F23BFC0182819381FC018281CF
:1053500089838AE38A836091F13B7091F23B80916B
:10536000F33B9091F43B9E012E5F3F4FE12C00E018
:105370004FE551E00E9426448B819C81FC01808195
:105380009181FC01208131814091F13B5091F23BB0
:105390006091F33B7091F43B8B819C81FC01808197
:1053A0009181F901199589812696CDBFDEBFDF91E4
:1053B000CF910F91EF900895EF920F93CF93DF93DA
:1053C000CDB7DEB72597CDBFDEBF89839A836B83C8
:1053D0007C834D8389819A81009711F481E029C0F3
:1053E0006091F13B7091F23B8091F33B9091F43BE3
:1053F0009E012B5F3F4F4B815C81E12C00E00E94BE
:10540000264489819A81FC0180819181FC0120815F
:1054100031814091F13B5091F23B6091F33B7091AF
:10542000F43B89819A81FC0180819181F901199570
:1054300080E02596CDBFDEBFDF91CF910F91EF9039
:105440000895CF93DF931F921F92CDB7DEB7898364
:105450009A8389819A81009711F481E05EC08981E5
:105460009A814DE563E471E00E94DC2989819A818B
:1054700040E069E371E00E94DC2989819A816AE356
:1054800071E00E94732489819A816BE371E00E942C
:10549000732489819A8140E060E471E00E94DC29F4
:1054A00089819A814DED63E471E00E94DC29898154
:1054B0009A8140E064E471E00E94DC2989819A814C
:1054C0004DEF63E471E00E94DC2989819A814DED02
:1054D00063E471E00E94DC2989819A814FEF64E4E2
:1054E00071E00E94DC2989819A814DE563E471E0D5
:1054F0000E94DC2989819A8163E471E00E9473240F
:1055000089819A8160E471E00E94732489819A8183
:1055100069E371E00E94732480E00F900F90DF91A7
:10552000CF910895CF93DF9300D01F92CDB7DEB710
:105530008B839C838B819C81009711F481E02CC02C
:105540008B819C8163E070E00E942A298B819C8181
:1055500063E471E00E942A29882F90E089839A836E
:1055600089819A81806289839A8329818B819C8138
:10557000422F63E471E00E94DC2989819A818F7D4A
:10558000992789839A8329818B819C81422F63E4A7
:1055900071E00E94DC2980E02496CDBFDEBFDF9160
:1055A000CF910895CF93DF9300D01F92CDB7DEB790
:1055B0008B839C838B819C81009711F481E04DC08B
:1055C00080E091E089839A830CC029813A818B81A4
:1055D0009C81B9010E94732489819A8101968983F3
:1055E0009A8389819A81863621E0920770F38B81B4
:1055F0009C8165E471E00E9473248B819C8161E74A
:1056000071E00E9473248B819C8162E771E00E94AB
:1056100073248B819C816CE771E00E9473248B81E1
:105620009C816DE771E00E94732486E691E0898396
:105630009A830CC029813A818B819C81B9010E9497
:10564000732489819A81019689839A8389819A81B9
:10565000893821E0920770F380E02496CDBFDEBF49
:10566000DF91CF910895CF93DF931F921F92CDB713
:10567000DEB789839A8389819A81009711F481E04A
:105680005EC089819A8149E563E471E00E94DC296A
:1056900089819A8140E069E371E00E94DC29898177
:1056A0009A816AE371E00E94C92689819A816BE33D
:1056B00071E00E94C92689819A8140E060E471E02E
:1056C0000E94DC2989819A8149ED63E471E00E949E
:1056D000DC2989819A8140E064E471E00E94DC2940
:1056E00089819A8149EF63E471E00E94DC29898114
:1056F0009A8149ED63E471E00E94DC2989819A81F5
:105700004FEF64E471E00E94DC2989819A8149E5C8
:1057100063E471E00E94DC2989819A8163E471E08D
:105720000E94C92689819A8160E471E00E94C9269D
:1057300089819A8169E371E00E94C92680E00F9017
:105740000F90DF91CF910895CF93DF9300D01F92F8
:10575000CDB7DEB78B839C838B819C81009711F43E
:1057600081E053C08B819C8164E771E00E94C9266F
:1057700080E091E089839A830CC029813A818B81F2
:105780009C81B9010E94C92689819A8101968983E9
:105790009A8389819A81863621E0920770F38B8102
:1057A0009C8165E471E00E94C9268B819C8161E740
:1057B00071E00E94C9268B819C8162E771E00E94A2
:1057C000C9268B819C816CE771E00E94C9268B8180
:1057D0009C816DE771E00E94C92686E691E089838D
:1057E0009A830CC029813A818B819C81B9010E94E6
:1057F000C92689819A81019689839A8389819A81B0
:10580000893821E0920770F380E02496CDBFDEBF97
:10581000DF91CF910895CF93DF9300D000D0CDB723
:10582000DEB789839A834B835C836D837E83898112
:105830009A81009711F481E031C08B819C81AD8108
:10584000BE81811520E49207A105B10540F48B814A
:105850009C81AD81BE810097A105B10531F485E33E
:1058600096E20E94F08483E019C08B819C81AD8117
:10587000BE81892F9A2FAB2FBB27282F89819A8130
:10588000422F65E571E00E94DC292B8189819A8194
:10589000422F66E571E00E94DC2980E02696CDBFAC
:1058A000DEBFDF91CF910895CF93DF9300D000D07A
:1058B000CDB7DEB78D839E838D819E81009711F4D5
:1058C00081E037C08D819E8166E571E00E942A29C2
:1058D00089838D819E8165E571E00E942A298A83F2
:1058E0001B821C828A81882F90E0982F88279C0138
:1058F0008B819C81822B932B8B839C838981882F26
:1059000090E02B813C81822B932B8B839C838C8119
:105910008F938B818F9380E696E2892F8F9380E619
:1059200096E28F930E94D6840F900F900F900F9065
:1059300080E02696CDBFDEBFDF91CF910895CF9353
:10594000DF9300D000D0CDB7DEB789839A834B8335
:105950005C836D837E8389819A81009711F481E055
:1059600031C08B819C81AD81BE81811520E492077D
:10597000A105B10540F48B819C81AD81BE8100976A
:10598000A105B10531F485E396E20E94F08483E03D
:1059900019C08B819C81AD81BE81892F9A2FAB2F3D
:1059A000BB27282F89819A81422F69E571E00E94E7
:1059B000DC292B8189819A81422F6AE571E00E945E
:1059C000DC2980E02696CDBFDEBFDF91CF91089520
:1059D000CF93DF9300D000D0CDB7DEB78D839E8309
:1059E0008D819E81009711F481E04DC08D819E8153
:1059F0006AE571E00E942A2989838D819E8169E58B
:105A000071E00E942A298A838A818F738A838A811E
:105A1000882F90E0292F2F938F9380E796E2892F8C
:105A20008F9380E796E28F930E94D6840F900F9019
:105A30000F900F901B821C828A81882F90E0982FF4
:105A400088279C018B819C81822B932B8B839C8349
:105A50008981882F90E02B813C81822B932B8B8333
:105A60009C838C818F938B818F938FE796E2892F14
:105A70008F938FE796E28F930E94D6840F900F90BA
:105A80000F900F9080E02696CDBFDEBFDF91CF91C3
:105A90000895CF93DF9300D000D0CDB7DEB78983D0
:105AA0009A834B835C836D837E8389819A8100977F
:105AB00011F481E031C08B819C81AD81BE81811563
:105AC00020E19207A105B10540F48B819C81AD8155
:105AD000BE810097A105B10531F48FE896E20E94DE
