:100000000C94A6030C94C7030C94C7030C94C70369
:100010000C94C7030C94C7030C94C7030C94C70338
:100020000C94C7030C94C7030C94C7030C94C70328
:100030000C94C7030C9445860C94C7030C94C70317
:100040000C94C7030C94C7030C94C7030C94C70308
:100050000C94C7030C94C7030C94C7030C94C703F8
:100060000C94C7030C94BA0A0C94C7030C94E90AC5
:100070000C94C7030C94C7030C94C7030C94C703D8
:100080000C94C7030C94C7030C94C7030C94C703C8
:100090000C94C7030C94C7030C94C7030C94C703B8
:1000A0000C94C7030C94C7030C94C7030C94C703A8
:1000B0000C94C7030C94C7030C9477860C94C70365
:1000C0000C94C7030C94C7030C94C7030C94C70388
:1000D0000C94C7030C94C7030C94C7030C94C70378
:1000E0000C94C7030C94C7030C94C7030C94C70368
:1000F0000C94C7030C94C7030C94C7030C94C70358
:100100000C94C7030C94C7030C94C7030C94C70347
:100110000C94C7030C94C7030C94C7030C94C70337
:100120000C94C7030C94C7030C94C7030C94C70327
:100130000C94C7030C94C7030C94C7030C94C70317
:100140000C94C7030C94C7030C94C7030C94C70307
:100150000C94C7030C94C7030C94C7030C94C703F7
:100160000C94C7030C94C7030C94C7030C94C703E7
:100170000C94C7030C94C7030C94C7030C94C703D7
:100180000C94C7030C94C7030C94C7030C94C703C7
:100190000C94C7030C94C7030C94C7030C94C703B7
:1001A0000C94C7030C94C7030C94C7030C94C703A7
:1001B0000C94C7030C94C7030C94C7030C94C70397
:1001C0000C94C7030C94C7030C94C7030C94C70387
:1001D0000C94C7030C94C7030C94C7030C94C70377
:1001E0000C94C7030C94C703AE1AA91AA41A9F1A39
:1001F0009A1A951A901A594164416F417A41854182
:10020000A041AB41B641C141CC41F041FB41064266
:1002100011421C42374242424D4258426342C85446
:10022000EC54FC541B55355568558C551B5CBF551B
:10023000CA55D555E055EB55F65501560C5617568F
:100240002856395644564F565A56655670567B5660
:10025000865691569C561B5C1B5CA756DA56125765
:100260001B5C2757505788579857A8571B5C1B5C37
:100270001B5C1B5C1B5C1B5CB357C357D257E2571C
:10028000ED570258175832581B5C1B5C1B5C1B5CFB
:100290001B5C1B5C3D5852586C58815896581B5C2F
:1002A0001B5C1B5C1B5C1B5C1B5CA158B658D058CC
:1002B000F0580A592E59435953595E597359925956
:1002C0009D59B259BD59C859DD59E859F359035AD6
:1002D0000E5A195A295A345A1B5C535A5E5A785A84
:1002E000975A1B5C1B5CB15AC15AD15AE15AF15A58
:1002F000065B1B5B305B455B505B605B6B5B765BFF
:10030000815B8C5B975BA25BAD5BB85BC35BCE5BD9
:10031000D95BE45BEF5BFA5B055C1B5C105C2C6DEE
:10032000446D496D576D656DA96DAE6DD26DED6D06
:10033000F26D1C6E376E3C6EF67CFB7C007D057D9D
:100340000A7D0F7D147D197D1E7D237D287D2D7DE9
:10035000327D377D3C7D417D0C94D8040C943C6EFD
:100360000C9450570C94FA030C943C090C945A5674
:100370000C94F3040C94197D0C94FB7C0C943C08B5
:100380000C94B15A0C947A070C949F1A0C94DA5678
:100390000C941B5B0C94F15A0C945E590C94778F5F
:1003A0000C94E15A0C94B80D0C94FC030C94285650
:1003B0000C9456080C9444850C94065B0C94A91A72
:1003C0000C941C6E0C94D1030C94D7030C948C5594
:1003D0000C940F7D0C9470560C9491560C942C6DCB
:1003E0000C9454170C94105C0C94327D0C94CC41FA
:1003F0000C94D15A0C945E5A0C946B5B0C946D1750
:100400000C94F0410C94D95B0C9444560C943258E3
:100410000C9412570C94B85B0C94F6030C94055C86
:100420000C9488570C942E590C94DD030C94BD59F0
:100430000C94C3090C9427570C94975B0C94576D3C
:100440000C94FA5B0C94EE030C946F410C94F655EB
:100450000C9442420C94230C0C9492590C94E45B3F
:100460000C9426080C94815B0C94CD0E0C9473595B
:100470000C9464090C94E4060C941E7D0C943A04CC
:100480000C94F4030C9457130C94EC540C94D8076C
:100490000C94237D0C9429050C9426090C942F07A9
:1004A0000C94F00B0C941B550C94370D0C94F80520
:1004B0000C94850A0C94605B0C94455B0C94685515
:1004C0000C94785A0C94901A0C940E050C94057D9B
:1004D0000C9458420C94D4150C94920C0C94FB413F
:1004E0000C9437420C94FE030C94C5130C948C04AA
:1004F0000C94AE1A0C949C560C94BD040C9464415C
:100500000C94F3590C94377D0C94D0580C94A85744
:100510000C948C5B0C94F8030C9407150C94C60790
:100520000C94A6080C94F0580C94C8590C941C42D6
:100530000C94E0550C94147D0C94C35B0C94505BAC
:100540000C9401560C9434060C9465050C94BF551C
:100550000C94C1410C94F67C0C94A1050C94680693
:100560000C94A1580C9496580C94A0410C94007DC6
:100570000C9486560C940C560C9406420C94820EE5
:100580000C94B2590C94951A0C94295A0C94EF5B64
:100590000C949A1A0C9435550C94EB550C94A40DAC
:1005A0000C94AD5B0C942D7D0C9459410C94B40FBC
:1005B0000C94CF030C94B3570C94CA550C944D4231
:1005C0000C9463420C94FC540C94DB030C9465561D
:1005D0000C94D26D0C94AB410C94C15A0C94D5552B
:1005E0000C947E080C94A0070C947E070C94D903FD
:1005F0000C9498570C9411420C94E8590C9453594C
:100600000C9417580C9492170C94E20B0C94BC05A4
:100610000C947B560C943D580C94975A0C940258A9
:100620000C94E2570C940A590C94AE6D0C94395604
:100630000C94DE060C94500A0C94E30C0C94A96DF7
:100640000C94F26D0C940E090C94D5030C940A7D55
:100650000C9443590C94446D0C941B5C0C94C3573C
:100660000C94C8540C94195A0C94656D0C948541E3
:100670000C94B6580C947A410C94A7560C94A2048E
:100680000C94A25B0C94B6410C94ED570C94A41AF4
:100690000C94496D0C949D590C944F560C94535ADC
:1006A0000C949C090C94287D0C94305B0C945004A1
:1006B0000C9417560C94CE080C94376E0C94DD599C
:1006C0000C9481580C94D2570C943C7D0C94F608F1
:1006D0000C9452580C94CE5B0C940E5A0C946C589B
:1006E0000C948C160C9486070C94417D0C94A406F3
:1006F0000C94035A0C94D3030C94A3160C94345A00
:100700000C94765B0C94ED6D6364696E6F70737519
:1007100078585B00BCE5ACC59C85960392C19121DD
:1007200090961D03ED01DCFDCCF5BCE5ACC5A86ED3
:10073000BCE5ACC59C85960392C1912190961D03A2
:10074000ED01DCFDCCF5BCE5ACC5A86E11241FBEE7
:10075000CFEFCDBFDFE3DEBF00E00CBF1CE3A0E0C6
:10076000B0E2E0E7FFE801E00BBF02C007900D92A6
:10077000AC3AB107D9F71EE3ACEABCE301C01D9265
:10078000A539B107E1F70E9482BC0C94B6C70C945E
:1007900000006150710981099109D9F7089580E03D
:1007A000089580E0089580E0089580E0089580E055
:1007B000089580E0089580E00895809170229091DE
:1007C00071222091AC3C3091AD3C821B930B019681
:1007D0008093AC3C9093AD3C80E008951092AC3C8B
:1007E0001092AD3C80E0089580E0089580E0089587
:1007F00080E0089580E0089580E0089580912024AD
:1008000090912124A0912224B0912324AC01BD0118
:10081000415051096109710944365105610571055D
:1008200058F4AC01BD0140515109610971094135CC
:1008300051056105710550F482EA97E29F938F9309
:100840000E9466C10F900F9081E008958136910556
:10085000A105B10558F08156910991E001C0990FA9
:100860008A95EAF79093D82580E008958093D8255B
:1008700080E008958091762590917725A091782544
:10088000B09179250A97A105B10540F082EA97E277
:100890009F938F930E9466C10F900F9080E0089500
:1008A0008091CA229091CB22A091CC22B091CD22EE
:1008B000AC01BD014150510961097109443651052E
:1008C0006105710558F4AC01BD0140515109610940
:1008D0007109413551056105710550F482EA97E2CD
:1008E0009F938F930E9466C10F900F9081E00895AF
:1008F00081369105A105B10558F08156910991E025
:1009000001C0990F8A95EAF79093D82580E0089561
:100910008093D82580E0089580915A2390915B239D
:10092000A0915C23B0915D230297A105B10540F031
:1009300088EA97E29F938F930E9466C10F900F9071
:1009400080E00895ECE6F3E283818F9382818F93B8
:1009500081818F9380818F938091D8251F928F936F
:100960008EEB97E29F938F930E9466C18DB79EB7DF
:1009700008968DBF9EBF80E00895EEE7F3E2838185
:100980008F9382818F9381818F9380818F938091C8
:10099000D8251F928F938DEC97E29F938F930E949F
:1009A00066C18DB79EB708968DBF9EBF80E0089543
:1009B000E0E9F3E283818F9382818F9381818F932A
:1009C00080818F938091D8251F928F938CED97E231
:1009D0009F938F930E9466C18DB79EB708968DBF77
:1009E0009EBF80E00895E2EAF3E283818F938281E3
:1009F0008F9381818F9380818F938091D8251F92CF
:100A00008F938BEE97E29F938F930E9466C18DB771
:100A10009EB708968DBF9EBF80E00895E8EDF3E293
:100A200083818F9382818F9381818F9380818F9334
:100A30008091D8251F928F938BEF97E29F938F938E
:100A40000E9466C18DB79EB708968DBF9EBF80E09D
:100A500008958091942290919522A0919622B09130
:100A60009722AC01BD014150510961097109443619
:100A700051056105710558F4AC01BD0140515109A2
:100A800061097109413551056105710550F482EA2A
:100A900097E29F938F930E9466C10F900F9081E021
:100AA000089581369105A105B10558F08156910947
:100AB00091E001C0990F8A95EAF79093D82580E0DC
:100AC00008958093D82580E0089580914C229091DC
:100AD0004D22A0914E22B0914F22AC01BD01415058
:100AE000510961097109443651056105710558F4D0
:100AF000AC01BD01405151096109710941355105F0
:100B00006105710550F482EA97E29F938F930E94EA
:100B100066C10F900F9081E0089581369105A1057F
:100B2000B10558F08156910991E001C0990F8A955D
:100B3000EAF79093D82580E008958093D82580E047
:100B400008958091AD3C8F938091AC3C8F938CE065
:100B500098E29F938F930E9466C18091AC3C9091E4
:100B6000AD3C01968093AC3C9093AD3C0F900F90C0
:100B70000F900F9080E008958091BC219091BD214D
:100B8000A091BE21B091BF21AC01BD0141505109DE
:100B900061097109443651056105710558F4AC01CC
:100BA000BD01405151096109710941355105610586
:100BB000710550F482EA97E29F938F930E9466C179
:100BC0000F900F9081E0089581369105A105B10540
:100BD00058F08156910991E001C0990F8A95EAF782
:100BE0009093D82580E008958093D82580E00895DB
:100BF0008091C0209091C120A091C220B091C320CB
:100C0000AC01BD01415051096109710944365105DA
:100C10006105710558F4AC01BD01405151096109EC
:100C20007109413551056105710550F482EA97E279
:100C30009F938F930E9466C10F900F9081E008955B
:100C400081369105A105B10558F08156910991E0D1
:100C500001C0990F8A95EAF79093D82580E008950E
:100C60008093D82580E00895CF93DF9300D01F9222
:100C7000CDB7DEB7CE010196AA2797FDA095BA2F72
:100C800040918B3E50918C3E4115510511F445E940
:100C90005EE3662757FD6095762F841B950BA60BA8
:100CA000B70BBF93AF939F938F9380E198E29F938D
:100CB0008F930E9466C10F900F900F900F900F902E
:100CC0000F9080E02496CDBFDEBFDF91CF910895D5
:100CD00080918A2090918B20A0918C20B0918D20C2
:100CE000AC01BD01415051096109710944365105FA
:100CF0006105710558F4AC01BD014051510961090C
:100D00007109413551056105710550F482EA97E298
:100D10009F938F930E9466C10F900F9081E008957A
:100D200081369105A105B10558F08156910991E0F0
:100D300001C0990F8A95EAF79093D82580E008952D
:100D40008093D82580E00895682F80919E2590910A
:100D50009F250E94AE9780E090E00895CF93C091C8
:100D6000D82581E08093D82540E060E286ED9DE3C0
:100D70000E94F65D84E08093D82540E060E286ED35
:100D80009DE30E94F65DC093D825CF910895CF933F
:100D90000E94AE06C091D8258C2F837011F081E09F
:100DA00001C084E08093D82541E060E286ED9DE3B8
:100DB0000E94F65DC093D825CF9108950E94C70682
:100DC0000E94AE0680E00895CF92DF92EF92FF92EC
:100DD0000F931F93CF93DF930091D825C0E0D0E00D
:100DE00010E0C02ED12CEE24E394F12CC6010C2E81
:100DF00002C0959587950A94E2F780FF18C08E2D62
:100E00000C2E01C0880F0A94EAF78093D825B70109
:100E10000090CE2102C0660F771F0A94E2F741E0EE
:100E200086ED9DE30E94F65D180F0093D82521966C
:100E3000C430D105D9F6112341F082EA97E29F939D
:100E40008F930E9466C10F900F9080E0DF91CF9149
:100E50001F910F91FF90EF90DF90CF900895CF9268
:100E6000DF92EF92FF920F931F93CF93DF93009146
:100E7000D825C0E0D0E010E0C02ED12CEE24E394C1
:100E8000F12CC6010C2E02C0959587950A94E2F7C5
:100E900080FF18C08E2D0C2E01C0880F0A94EAF72F
:100EA0008093D825B7010090E02102C0660F771F1C
:100EB0000A94E2F740E086ED9DE30E94F65D180F8C
:100EC0000093D8252196C430D105D9F6112341F0DD
:100ED00082EA97E29F938F930E9466C10F900F90D2
:100EE00080E0DF91CF911F910F91FF90EF90DF9005
:100EF000CF9008950E94F8AB80E0089585E298E2D3
:100F00000E9480C10E94F8AB80E008950E94C7064D
:100F10004091C2245091C3246091322484EC9DE31B
:100F20000E945D2F882341F082EA97E29F938F937E
:100F30000E9466C10F900F900E94AE0680E0089557
:100F40000E94C7064091D4245091D52461E080913D
:100F5000322490913324A0913424B0913524029707
:100F6000A105B10508F460E084EC9DE30E947130B6
:100F7000882341F082EA97E29F938F930E9466C193
:100F80000F900F900E94AE0680E0089568ED75E224
:100F900086ED9DE30E941319882341F082EA97E2CF
:100FA0009F938F930E9466C10F900F9080E00895E9
:100FB0008F929F92AF92BF92CF92DF92EF92FF9269
:100FC0000F931F930E94C70680904424909045245D
:100FD000A0904624B09047249401A50160E070E001
:100FE00080E090E000E20E9465BE809056249090E0
:100FF0005724A0905824B09059242829E32FE92998
:10100000042F0A29152F1B29E22EFE2E9B01AC016D
:101010006091322484EC9DE30E94042A882341F0ED
:1010200082EA97E29F938F930E9466C10F900F9080
:101030000E94AE0680E01F910F91FF90EF90DF902D
:10104000CF90BF90AF909F908F9008950E94C70659
:101050006091682484EC9DE30E949C3A882341F0CF
:1010600082EA97E29F938F930E9466C10F900F9040
:101070000E94AE0680E008950E94C7064091B02409
:101080005091B1246091322484EC9DE30E94E72FBB
:10109000882341F082EA97E29F938F930E9466C172
:1010A0000F900F900E94AE0680E008950F931F935B
:1010B0000E94C7060091E6241091E7242091E824BD
:1010C0003091E924409132245091332460913424AA
:1010D0007091352484EC9DE30E94C72D892B41F04B
:1010E00082EA97E29F938F930E9466C10F900F90C0
:1010F0000E94AE0680E01F910F9108950F931F93F9
:101100000E94C7060091F8241091F9242091FA2436
:101110003091FB2440913224509133246091342447
:101120007091352484EC9DE30E94132D892B41F0AE
:1011300082EA97E29F938F930E9466C10F900F906F
:101140000E94AE0680E01F910F9108950F931F93A8
:101150000E94C70600910A2510910B2520910C25AD
:1011600030910D25409132245091332460913424E4
:101170007091352484EC9DE30E946D2D892B41F004
:1011800082EA97E29F938F930E9466C10F900F901F
:101190000E94AE0680E01F910F9108950F931F9358
:1011A0000E94C70600911C2510911D2520911E2527
:1011B00030911F2540913224509133246091342482
:1011C0007091352484EC9DE30E94552C892B41F0CD
:1011D00082EA97E29F938F930E9466C10F900F90CF
:1011E0000E94AE0680E01F910F9108950E94C706ED
:1011F00040912E256091202484EC9DE30E94733B56
:10120000882341F082EA97E29F938F930E9466C100
:101210000F900F900E94AE0680E008950E94C706CE
:10122000409140256091202484EC9DE30E943C3C49
:10123000882341F082EA97E29F938F930E9466C1D0
:101240000F900F900E94AE0680E008950E94C7069E
:101250006091522584EC9DE30E94033D882341F078
:1012600082EA97E29F938F930E9466C10F900F903E
:101270000E94AE0680E008950F931F930E94C70658
:101280000091642510916525209166253091672590
:10129000409132245091332460913424709135244C
:1012A00084EC9DE30E94212E892B41F082EA97E293
:1012B0009F938F930E9466C10F900F900E94AE067D
:1012C00080E01F910F910895CF92DF92EF92FF92ED
:1012D0000F931F930E94C706C0908825D090892540
:1012E000E0908A25F0908B25009176251091772546
:1012F00020917825309179254091322450913324E2
:10130000609134247091352484EC9DE30E94214146
:10131000892B41F082EA97E29F938F930E9466C1E6
:101320000F900F900E94AE0680E01F910F91FF90EA
:10133000EF90DF90CF900895CF93DF93CEE0D4E28B
:10134000488159816A817B818FE59EE30E948B7A77
:101350008B818F938A818F9389818F9388818F93DB
:101360008091D8251F928F938DE498E29F938F935D
:101370000E9466C18DB79EB708968DBF9EBF80E064
:10138000DF91CF910895CF938091AA219091AB21C5
:10139000A091AC21B091AD21C091D825892B8A2B89
:1013A0008B2BE9F1C0FF0DC081E08093D8250E940E
:1013B000C70661E070E084EC9DE30E940C540E943B
:1013C000AE06C1FF0DC081E08093D8250E94C706FC
:1013D00061E070E084EC9DE30E940C540E94AE0634
:1013E000C2FF0DC084E08093D8250E94C70661E04B
:1013F00070E084EC9DE30E940C540E94AE06C3FF93
:101400004AC084E08093D8250E94C70661E070E05E
:1014100084EC9DE30E940C540E94AE063CC0C0FFC9
:101420000DC081E08093D8250E94C70660E070E07F
:1014300084EC9DE30E940C540E94AE06C1FF0DC0D7
:1014400081E08093D8250E94C70660E070E084ECBC
:101450009DE30E940C540E94AE06C2FF0DC084E0C2
:101460008093D8250E94C70660E070E084EC9DE37D
:101470000E940C540E94AE06C3FF0DC084E080930E
:10148000D8250E94C70660E070E084EC9DE30E94CE
:101490000C540E94AE06C093D82580E0CF910895E9
:1014A0008FE598E20E9480C1409154206AE080E07C
:1014B00090E20C9442BB4091D82550E080E090E04F
:1014C00061E070E09A01082E02C0359527950A94D4
:1014D000E2F720FF15C0FC01E453FA4D2081E22F12
:1014E000E695E695E69530E2E39FF0011124FA5F78
:1014F0002770DB0102C0AA0FBB1F2A95E2F7A78362
:10150000019684309105F1F608956091EA23709177
:10151000EB238091EC239091ED23603871058105D8
:10152000910528F082EA97E20E9480C121C086ECF2
:101530009DE30E94BE660E945B0A8091ED238F931B
:101540008091EC238F938091EB238F938091EA23FA
:101550008F938091D8251F928F9389E698E29F936D
:101560008F930E9466C18DB79EB708968DBF9EBFB0
:1015700080E008951F920F920FB60F9211240BB6C0
:101580000F922F933F934F935F936F937F938F931C
:101590009F93AF93BF93EF93FF9320E040E050E021
:1015A00060E070E080EA95E20E949C95FF91EF91E7
:1015B000BF91AF919F918F917F916F915F914F916B
:1015C0003F912F910F900BBE0F900FBE0F901F9069
:1015D00018951F920F920FB60F9211240BB60F920F
:1015E0002F933F934F935F936F937F938F939F932B
:1015F000AF93BF93EF93FF9380EA95E20E940D961D
:10160000FF91EF91BF91AF919F918F917F916F91DA
:101610005F914F913F912F910F900BBE0F900FBE96
:101620000F901F901895CF93DF93809150008260A8
:10163000809350008091510081FFFCCFD8EDD4BF42
:10164000C1E0C093400065ED7CED82E390E00E9434
:10165000C903F894D4BFC093960062E08CE396E28D
:101660000E94A38CC82F64E083E196E20E94BA8DA9
:10167000C80F23E641E06EEA7CE388ED9DE30E941B
:101680006EAC23E641E062E17DE381E69EE30E94E9
:101690006EAC61E080EA95E20E944096D82F62E04D
:1016A00083E696E20E94B3828C0FC82FCD0F97E09D
:1016B0009093A2008091A20080688093A2009093F2
:1016C000A20078940E94A1AB8AE00E943AAB20E18C
:1016D00048E06091B4258091B8259091B9250E9489
:1016E00059A620E149E06091B5258091BA259091F5
:1016F000BB250E9459A620E14AE06091B625809161
:10170000BC259091BD250E9459A620E14BE0609137
:10171000B7258091BE259091BF250E9459A68C2F98
:10172000DF91CF91089580E008950E94F8AB80E0AA
:101730000895EF92FF920F931F93CF93DF9386EC60
:101740009DE30E945066C82F0E945B0A8FE59EE3CE
:101750000E94007BC80FF090D82500E010E0EE2436
:10176000E3948091D82590E0002E02C0959587954E
:101770000A94E2F780FF19C08E2D002E01C0880F59
:101780000A94EAF78093D82540E061E086ED9DE376
:101790000E94F65DD82F40E060E886ED9DE30E9450
:1017A000F65D8D0FC80FF092D8250F5F1F4F0430E4
:1017B0001105B9F68C2FDF91CF911F910F91FF90FA
:1017C000EF9008950E94990B882341F082EA97E2F6
:1017D0009F938F930E9466C10F900F9080E00895B1
:1017E0000E94990B80E0089580E008950E94990B73
:1017F00080E008958CE798E20E9480C18EE898E22C
:101800009F938F9384E998E29F938F930E9466C180
:1018100089EA98E29F938F938DEB98E29F938F9341
:101820000E9466C183ED98E29F938F9387EE98E2C2
:101830009F938F930E9466C18DB79EB70C968DBF04
:101840009EBF80E008950E94FA0B882341F082EA4F
:1018500097E29F938F930E9466C10F900F9080E054
:10186000089580E0089580E00895CF92DF92EF928E
:10187000FF920F931F93CF93DF931F921F92CDB7C9
:10188000DEB79FEF980F9F3008F040C08093D825B7
:1018900088EBE82E85E2F82E00E010E090E0C92EFB
:1018A00099E2D92E8091D82590E0002E02C095951E
:1018B00087950A94E2F780FF1FC0AE014F5F5F4F2C
:1018C000F801EC54FA4D6081F701808191810E940A
:1018D00001A78A818F9389818F93C8018F5B9F4F66
:1018E0009F938F93DF92CF920E9466C10F900F90CB
:1018F0000F900F900F900F900F5F1F4FF2E0EF0EC1
:10190000F11C0430110571F680E001C081E00F90F8
:101910000F90DF91CF911F910F91FF90EF90DF908B
:10192000CF9008958091D8250E94350C882341F0EE
:1019300082EA97E29F938F930E9466C10F900F9067
:1019400080E00895CF92DF92EF92FF920F931F9362
:10195000CF93DF938B3068F5062F06950695069595
:1019600090E2099F800111241A5F677021E030E046
:101970007901062E01C0EE0C0A94EAF7CE2CF8018C
:10198000E682C82FD0E0CC0FDD1FD12C8D2D90E04A
:101990008C179D0754F465E176E185E090E00E94A4
:1019A000C903F801C782D394F1CFF801E68280E041
:1019B00001C081E0DF91CF911F910F91FF90EF90D7
:1019C000DF90CF90089566E0809162210E94A20C82
:1019D000882341F082EA97E29F938F930E9466C129
:1019E0000F900F9080E00895CF93DF931F92CDB7B3
:1019F000DEB79FEF980F9F30A8F58093D8250E94FF
:101A0000C70661E08091C43D9091C53D0E94E7907A
:101A1000BE016F5F7F4F84EC9DE30E94872460E0EE
:101A20008091C43D9091C53D0E94E7906AE184ECAD
:101A30009DE30E9494239F938F9383E199E29F9368
:101A40008F930E9466C189811F928F9389E399E2E7
:101A50009F938F930E9466C10E94AE06CDBFDEBFEA
:101A600080E001C081E00F90DF91CF9108950E9446
:101A7000C7068091D8250E94F40C882341F082EAA1
:101A800097E29F938F930E9466C10F900F900E94E0
:101A9000AE0680E00895CF92DF92EF92FF920F930F
:101AA0001F93CF93DF931F92CDB7DEB79FEF980FB1
:101AB0009F3008F03EC08093D8250E94C706C12CF5
:101AC000D12C02E519E289E1E82E8AE2F82E6C2D8C
:101AD00080E8C816D10409F18C2D837061F4DF927F
:101AE000CF921F930F9369830E9466C10F900F904E
:101AF0000F900F90698184EC9DE30E9494239F9343
:101B00008F93FF92EF920E9466C18FEFC81AD80A96
:101B10000F900F900F900F90DACF8AE090E00E9424
:101B20007AC184EC9DE30E9463230E94AE0680E0AC
:101B300001C081E00F90DF91CF911F910F91FF9035
:101B4000EF90DF90CF9008950E94C7068091D8252E
:101B50000E944B0D882341F082EA97E29F938F9376
:101B60000E9466C10F900F900E94AE0680E008951B
:101B70000E94C7068091D8250E944B0D882341F012
:101B800082EA97E29F938F930E9466C10F900F9015
:101B90000E94AE0680E00895BF92CF92DF92EF924E
:101BA000FF920F931F93CF93DF931F92CDB7DEB7B2
:101BB000663008F048C09FEF980F9F3008F043C090
:101BC0007A01D62E182F8093D8250E94C70660E090
:101BD00084EC9DE30E94404700E084E0C82EBB24D3
:101BE000B394402F6D2D84EC9DE30E94663E6AE61F
:101BF0007EE689E190E00E94C903143018F4B092A7
:101C0000D82502C0C092D825AE014F5F5F4F60E477
:101C100086ED9DE30E941E61F70190818981892BE9
:101C200080831093D82584EC9DE30E94C43E0F5F0F
:101C30000830B9F661E084EC9DE30E9440470E94C1
:101C4000AE0680E001C081E00F90DF91CF911F913F
:101C50000F91FF90EF90DF90CF90BF900895CF93BA
:101C60009FEF980F9F3008F04AC08093D8250E94BC
:101C7000C70661E084EC9DE30E9440476FE084EC7E
:101C80009DE30E94BE47C0E041E06C2F84EC9DE3E1
:101C90000E94E54540E06C2F84EC9DE30E94544493
:101CA000CF5FC43089F761E084EC9DE30E946F460A
:101CB00060E084EC9DE30E94BE4760E084EC9DE31D
:101CC0000E94404741E060E084EC9DE30E94FF23D6
:101CD00041E061E084EC9DE30E94FF23C0E06C2FB3
:101CE00084EC9DE30E94A935CF5FC430C1F784EC3A
:101CF0009DE30E947E360E94AE0680E001C081E036
:101D0000CF9108950E94C7068091D8250E942F0E7A
:101D1000882341F082EA97E29F938F930E9466C1E5
:101D20000F900F900E94AE0680E008959FEF980FED
:101D30009F3040F48093D82568ED75E286ED9DE3F1
:101D40000C94131981E00895CF939FEF980F9F3063
:101D500068F48093D825C0E06C2F84EC9DE30E944A
:101D6000421ACF5FC830C1F780E001C081E0CF9157
:101D700008959FEF980F9F3040F48093D82584EC0E
:101D80009DE30E942E1B80E0089581E00895AB0141
:101D9000BC0189E79EE30C94DD636091362370916A
:101DA000372380912423909125230E94C70E8823F6
:101DB00041F082EA97E29F938F930E9466C10F9051
:101DC0000F9080E008953F924F925F926F927F92C2
:101DD0008F929F92AF92BF92CF92DF92EF92FF923B
:101DE0000F931F93CF93DF9300D01F92CDB7DEB731
:101DF0009FEF980F9F3008F0A1C0382E8093D82510
:101E0000E12CF12C682E712C8EE9482E89E2582E97
:101E100098EBC92E99E2D92E2CE6A22E29E2B22EF9
:101E200033E8832E39E2932EC3010E2C02C0959520
:101E300087950A94E2F780FF77C081E090E00E2C4E
:101E400002C0880F991F0A94E2F78093D8259F93C8
:101E50008F93ABE5B9E2BF93AF930E9466C18E0149
:101E60000F5F1F4F9E012E5F3F4FAE014D5F5F4FD3
:101E7000BE016C5F7F4F86ED9DE30E946A628C819C
:101E80001F928F93AFE6B9E2BF93AF930E9466C1F2
:101E90008B811F928F93A6E8B9E2BF93AF930E9404
:101EA00066C18A811F928F935F924F920E9466C192
:101EB00089811F928F93DF92CF920E9466C19E010B
:101EC0002E5F3F4FAE014D5F5F4FBE016C5F7F4F96
:101ED00087E69EE30E946A628C811F928F93BF9275
:101EE000AF920E9466C18B811F928F939F928F92B7
:101EF0000E9466C18A811F928F938BE999E29F931A
:101F00008F930E9466C1CDBFDEBF89811F928F93E0
:101F100085EB99E29F938F930E9466C13092D825FA
:101F20000F900F900F900F90BFEFEB1AFB0A84E019
:101F3000E816F10409F078CF80E001C081E0249632
:101F4000CDBFDEBFDF91CF911F910F91FF90EF903A
:101F5000DF90CF90BF90AF909F908F907F906F90C9
:101F60005F904F903F9008958091D8250E94E30E96
:101F7000882341F082EA97E29F938F930E9466C183
:101F80000F900F9080E008958F929F92AF92BF9232
:101F9000CF92DF92EF92FF920F931F93CF93DF9335
:101FA0006B017C019090D82500E010E0C0E0A92CE6
:101FB000B12C88248394C501002E02C09595879585
:101FC0000A94E2F780FFBBC0882D002E01C0880F65
:101FD0000A94EAF78093D82540E060E187E69EE323
:101FE0000E94F65DD82F40E060E287E69EE30E9403
:101FF000F65D8D0FC80F40E060E487E69EE30E9427
:10200000F65DC80F40E060E887E69EE30E94F65D5B
:10201000C80F81E2C8168AEAD80684E4E806F1040B
:1020200040F040E060E187E69EE30E94F65D41E01B
:1020300073C081ECC81686ECD8068DE2E806F10480
:1020400040F040E060E187E69EE30E94F65D40E0FC
:102050003BC081E6C81683EED80686E1E806F104A7
:1020600070F041E060E187E69EE30E94F65D41E0AA
:1020700060E287E69EE30E94F65D41E053C081EB9B
:10208000C81681E7D8068BE0E806F10470F041E05D
:1020900060E187E69EE30E94F65D40E060E287E64D
:1020A0009EE30E94F65D41E015C089EDC81688EBFD
:1020B000D80685E0E806F104C8F041E060E187E673
:1020C0009EE30E94F65D41E060E287E69EE30E94A7
:1020D000F65D40E060E487E69EE30E94F65D41E045
:1020E00060E887E69EE30E94F65D27C040E060E17D
:1020F00087E69EE3C114D104E104F10451F00E948B
:10210000F65D40E060E287E69EE30E94F65D41E016
:1021100009C00E94F65D40E060E287E69EE30E940F
:10212000F65D40E060E487E69EE30E94F65D40E0F5
:1021300060E887E69EE30E94F65D9092D8250F5FE7
:102140001F4F0430110509F036CF8C2FDF91CF914E
:102150001F910F91FF90EF90DF90CF90BF90AF90C5
:102160009F908F900895DF92EF92FF920F931F93AD
:10217000CF93DF938FE08093D8252CEC3DE341EDA6
:102180005DE363E176E284EC9DE30E940B4EC82F91
:102190002DE136E24CEC5DE361ED7DE38AEC9DE3FD
:1021A0000E945E1BC80FD091D8252CEC3DE341ED79
:1021B0005DE36EE476E286ED9DE30E943C5DC80F30
:1021C0002CEC3DE341ED5DE368E576E287E69EE3D6
:1021D0000E943C5DC80F01E316E22CEC3DE341EDAB
:1021E0005DE36CE875E286EC9DE30E94D465C80F60
:1021F000D093D82527E236E24CEC5DE361ED7DE338
:102200008FE59EE30E948968C80F6AEC7DE389E749
:102210009EE30E94BE64E12CF12C0FE010E0D1E0BF
:10222000C8010E2C02C0959587950A94E2F780FFAD
:1022300098C08D2F0E2C01C0880F0A94EAF7809366
:10224000D82586ED9DE30E946B5DD82E87E69EE340
:102250000E946B5D8D0DC80F40E061E087E69EE354
:102260000E94785FC80F41E062E087E69EE30E942B
:10227000785FC80F40E064E087E69EE30E94785FE5
:10228000C80F40E068E087E69EE30E94785FC80FD1
:1022900040E060E187E69EE30E94785FC80F40E07F
:1022A00060E287E69EE30E94785FC80F40E060E44A
:1022B00087E69EE30E94785FC80F40E060E887E60B
:1022C0009EE30E94785FC80F40E061E086ED9DE3E9
:1022D0000E94785FC80F40E060E886ED9DE30E94B1
:1022E000785FC80F41E061E087E69EE30E94F65DFB
:1022F000C80F41E064E087E69EE30E94F65DC80FE8
:1023000041E068E087E69EE30E94F65DC80F41E089
:1023100060E187E69EE30E94F65DC80F41E060E25F
:1023200087E69EE30E94F65DC80F40E060E487E622
:102330009EE30E94F65DC80F41E060E887E69EE3F9
:102340000E94F65DC80F41E061E086ED9DE30E94CA
:10235000F65DC80F41E060E886ED9DE30E94F65D02
:10236000C80F8FEFE81AF80A84E0E816F10409F0C4
:1023700057CF00E010E085E0E82EF12CDD24D39467
:10238000C701002E02C0959587950A94E2F780FF59
:102390002CC08D2D002E01C0880F0A94EAF780937F
:1023A000D82540E064E086ED9DE30E94785FD82F59
:1023B00040E060E286ED9DE30E94785F8D0FC80FDC
:1023C00041E060E486ED9DE30E94785FC80F41E044
:1023D00064E086ED9DE30E94F65DC80F40E060E298
:1023E00086ED9DE30E94F65DC80F0F5F1F4F04301E
:1023F000110531F6E12CF12C0AE010E0DD24D39434
:10240000C8010E2C02C0959587950A94E2F780FFCB
:1024100063C08D2D0E2C01C0880F0A94EAF78093BB
:10242000D82540E068E086ED9DE30E94785FD82FD4
:1024300040E064E086ED9DE30E94785F8D0FC80F59
:1024400040E060E486ED9DE30E94785FC80F40E0C5
:1024500060E286ED9DE30E94785FC80F40E060E196
:1024600086ED9DE30E94785FC80F41E060E486ED51
:102470009DE30E94F65DC80F60E472E48FE090E097
:102480000E94C90341E068E086ED9DE30E94F65D8D
:10249000C80F40E060E286ED9DE30E94F65DC80F44
:1024A00041E060E186ED9DE30E94F65DC80F41E0EA
:1024B00064E086ED9DE30E94F65DC80F40E060E4B5
:1024C00086ED9DE30E94F65DC80F41E060E486ED75
:1024D0009DE30E94F65DC80F8FEFE81AF80A84E0CA
:1024E000E816F10409F08CCF8FE08093D82500E046
:1024F00010E08091D82590E0002E02C09595879538
:102500000A94E2F780FF07C041E068E087E69EE3B7
:102510000E94F65DC80F0F5F1F4F0430110549F789
:102520008FE59EE30E94C668C80F8AEC9DE30E9477
:102530008D1BC80F86EC9DE30E941E66C80F0E948B
:102540005B0A81E08093D8250E94C70684EC9DE356
:102550000E94484EC80F0E94AE0684E08093D825A2
:102560000E94C70684EC9DE30E94484EC80F40E0DD
:102570006BE178E084EC9DE30E94824B4FE060E0E9
:1025800070EA84EC9DE30E94824B4AE46EE178E0BD
:1025900084EC9DE30E94824B4AE461E078E084ECA5
:1025A0009DE30E94824B49E460E070E084EC9DE38F
:1025B0000E94824B4BE467E07EE084EC9DE30E9446
:1025C000824B4CE460E07FE084EC9DE30E94824B10
:1025D0004DE460E073E084EC9DE30E94824B4FE5A4
:1025E00060E271E384EC9DE30E94824B41E566E08A
:1025F00070E084EC9DE30E94824B44E560E070E073
:1026000084EC9DE30E94824B47E560E070E084EC3F
:102610009DE30E94824B4AE560E070E084EC9DE31C
:102620000E94824B41E661E171E084EC9DE30E94EF
:10263000824B4AE461E078E084EC9DE30E94824BA7
:102640000E94AE0600E010E0D1E08D2F002E01C008
:10265000880F0A94EAF78093D82561E170E081E160
:1026600090E00E94C70EC80F0F5F1F4F0430110586
:1026700061F761E786EC9DE30E94BE66C80F0E9489
:102680005B0A8FE08093D8258FE59EE30E944C7B08
:10269000C80F60E070E0CB010E94C40F8C0FDF9187
:1026A000CF911F910F91FF90EF90DF9008950E94BE
:1026B000B310882341F082EA97E29F938F930E94A0
:1026C00066C10F900F9080E00895CF93DF939FEF46
:1026D000980F9F3008F053C0D82F8093D8258FE5EE
:1026E0009EE30E944C7BC82F60E070E0CB010E940B
:1026F000C40FC80F86EC9DE30E947A66C80F0E9443
:102700005B0AD0FF0DC081E08093D8250E94C706E8
:1027100040E060E084EC9DE30E94FF230E94AE064F
:10272000D1FF0DC081E08093D8250E94C70640E00C
:1027300061E084EC9DE30E94FF230E94AE06D2FF7D
:102740000DC084E08093D8250E94C70640E060E079
:1027500084EC9DE30E94FF230E94AE06D3FF11C0CC
:1027600084E08093D8250E94C70640E061E084ECB5
:102770009DE30E94FF230E94AE068C2F03C081E0E0
:1027800001C08C2FDF91CF9108958091D8250E94B0
:102790006513882341F082EA97E29F938F930E940A
:1027A00066C10F900F9080E00895BF92CF92DF92A4
:1027B000EF92FF920F931F93CF93DF9300D0CDB78B
:1027C000DEB7623008F015C19FEF980F9F3008F018
:1027D00010C1B82E8093D82500E010E0FF24F394B8
:1027E000611181C08091D82590E0002E02C095959E
:1027F00087950A94E2F780FF1CC08F2D002E01C040
:10280000880F0A94EAF78093D82540E064E086EDCB
:102810009DE30E94F65D40E061E086ED9DE30E944D
:10282000F65D41E060E886ED9DE30E94F65DB092C2
:10283000D8250F5F1F4F04301105A1F600E010E00E
:10284000EB2CF12CCC24C394D12C302FC701002EBB
:1028500002C0959587950A94E2F780FF36C0C601BD
:10286000002E02C0880F991F0A94E2F7823091056A
:1028700039F08830910521F070E021E060E003C07C
:1028800071E023E062E030FD86958093D8252A83AD
:1028900069837B830E94C7064FEF51E0698184EC16
:1028A0009DE30E945D2F4FEF51E02A81622F84EC5F
:1028B0009DE30E945D2F40E050E07B81672F84EC18
:1028C0009DE30E9471300E94AE060F5F1F4F0430DF
:1028D000110509F0BACFB092D8258FE59EE30E948A
:1028E000007B80E087C08091D82590E0002E02C058
:1028F000959587950A94E2F780FF1CC08F2D002ED6
:1029000001C0880F0A94EAF78093D82541E064E07B
:1029100086ED9DE30E94F65D41E061E086ED9DE37A
:102920000E94F65D40E060E886ED9DE30E94F65D62
:10293000B092D8250F5F1F4F04301105A1F600E0BB
:1029400010E0EB2CF12CCC24C394D12C302FC701F8
:10295000002E02C0959587950A94E2F780FF36C055
:10296000C601002E02C0880F991F0A94E2F7823038
:10297000910539F08830910521F070E021E060E0A8
:1029800003C071E023E062E030FD86958093D82596
:102990002A8369837B830E94C7064FEF51E06981D8
:1029A00084EC9DE30E945D2F4FEF51E02A81622F5E
:1029B00084EC9DE30E945D2F40E050E07B81672F17
:1029C00084EC9DE30E9471300E94AE060F5F1F4FA2
:1029D0000430110509F0BACFB092D8258FE59EE3F7
:1029E0000E944C7B60E070E0CB010E94C40F80E04D
:1029F00001C081E02396CDBFDEBFDF91CF911F9153
:102A00000F91FF90EF90DF90CF90BF90089560916D
:102A1000DC228091D8250E94D513882341F082EAD8
:102A200097E29F938F930E9466C10F900F9080E072
:102A30000895DF92EF92FF920F931F93CF93DF934E
:102A40009FEF980F9F3008F0A6C0D82F8093D8250D
:102A500061E00E94D51300E010E0C0E0ED2EF12C03
:102A6000DD24D394C701002E02C0959587950A9462
:102A7000E2F780FF11C08D2D002E01C0880F0A944F
:102A8000EAF78093D82541E061E086ED9DE30E945E
:102A9000F65DC80FD093D8250F5F1F4F0430110586
:102AA00009F700E010E0FF24F3948091D82590E02E
:102AB000002E02C0959587950A94E2F780FF11C019
:102AC0008F2D002E01C0880F0A94EAF78093D82535
:102AD00061E170E081E190E00E94C70EC80FD093E1
:102AE000D8250F5F1F4F04301105F9F6D093D82574
:102AF00061E786EC9DE30E94BE66C80F0E945B0AF8
:102B00008FE59EE30E944C7BC80F60E070E0CB0134
:102B10000E94C40FC80FD0FF0DC081E08093D8255C
:102B20000E94C70641E060E084EC9DE30E94FF2321
:102B30000E94AE06D1FF0DC081E08093D8250E948F
:102B4000C70641E061E084EC9DE30E94FF230E9400
:102B5000AE06D2FF0DC084E08093D8250E94C70640
:102B600041E060E084EC9DE30E94FF230E94AE06FA
:102B7000D3FF0DC084E08093D8250E94C70641E0B2
:102B800061E084EC9DE30E94FF230E94AE06D09397
:102B9000D8258C2F01C081E0DF91CF911F910F913B
:102BA000FF90EF90DF9008958091D8250E9419152D
:102BB000882341F082EA97E29F938F930E9466C137
:102BC0000F900F9080E00895EF92FF920F931F9364
:102BD000CF93DF939FEF960F9F3008F095C0C62FDD
:102BE0006093D825E62EF12C882319F100E010E03F
:102BF000D1E0C701002E02C0959587950A94E2F7AF
:102C000080FF10C08D2F002E01C0880F0A94EAF7B4
:102C10008093D82541E060E886ED9DE30E94F65D53
:102C2000C093D8250F5F1F4F0430110511F7D1E075
:102C30002BC08FE59EE30E944C7B60E070E0CB01EF
:102C40000E94C40F00E010E0D1E0C701002E02C0D6
:102C5000959587950A94E2F780FF10C08D2F002E7E
:102C600001C0880F0A94EAF78093D82540E060E815
:102C700086ED9DE30E94F65DC093D8250F5F1F4F40
:102C80000430110511F7D0E0C0FF0DC081E0809342
:102C9000D8250E94C7064D2F60E084EC9DE30E947A
:102CA000FF230E94AE06C1FF0DC081E08093D825AE
:102CB0000E94C7064D2F61E084EC9DE30E94FF2334
:102CC0000E94AE06C2FF0DC084E08093D8250E940A
:102CD000C7064D2F60E084EC9DE30E94FF230E9415
:102CE000AE068C2F8870C3FF10C084E08093D82577
:102CF0000E94C7064D2F61E084EC9DE30E94FF23F4
:102D00000E94AE0680E001C081E0DF91CF911F916B
:102D10000F91FF90EF9008958091982190919921C3
:102D2000A0919A21B0919B216091D825892B8A2B63
:102D30008B2B21F081E00E94E41503C080E00E940B
:102D4000E41580E008952F923F924F925F927F9218
:102D50008F929F92AF92BF92CF92DF92EF92FF92AB
:102D60000F931F93CF93DF93C0900023D090012344
:102D7000E0900223F090032320901223309013233D
:102D8000409014235090152380906C2390906D23D5
:102D9000A0906E23B0906F23D0917E2310917F235B
:102DA000009190237090D82381E8C81682ECD80651
:102DB00087E6E806F10428F082EA97E20E9480C1E3
:102DC00060C08FE59EE30E944C7B91E2C91695E7B7
:102DD000D90698E3E906F10468F060E070E0CB0101
:102DE0000E94C40F40E064E087E69EE30E94F65D27
:102DF000C1E00BC0C701B6010E94C40F41E064E00E
:102E000087E69EE30E94F65DC0E061E270E080E04C
:102E100090E00E94C903A8EEB3E0A20191010E94D4
:102E200029BD9B01AC0181E08F937F920F931F938B
:102E3000DF9382E0A82EB12CC12CD12CE12CF12CF7
:102E400087016C2F8FE59EE30E948D6A809103239A
:102E50008F93809102238F93809101238F93809190
:102E600000238F938091D8251F928F9380ED99E254
:102E70009F938F930E9466C18DB79EB70D968DBFAD
:102E80009EBF80E0DF91CF911F910F91FF90EF9057
:102E9000DF90CF90BF90AF909F908F907F905F908A
:102EA0004F903F902F9008958FE59EE30E944C7BBA
:102EB00060E070E0CB010E94C40F8091D8251F9282
:102EC0008F9382EE99E29F938F930E9466C10F9039
:102ED0000F900F900F9080E00895CF93DF93C6EC92
:102EE000D3E2688179818A819B810E94C40F8B81A2
:102EF0008F938A818F9389818F9388818F9380911B
:102F0000D8251F928F938FEE99E29F938F930E9403
:102F100066C18DB79EB708968DBF9EBF80E0DF91DA
:102F2000CF910895CF938091AE209091AF20A09142
:102F3000B020B091B120892B8A2B8B2B29F08FE503
:102F40009EE30E94C67A0BC08FE59EE30E944C7BF5
:102F5000C82F60E070E0CB010E94C40F8C0F882363
:102F600041F082EA97E29F938F930E9466C10F908F
:102F70000F9080E0CF91089580E008950E94C706E9
:102F80004FEF5FEF60918C2484EC9DE30E94B24B85
:102F9000882341F082EA97E29F938F930E9466C153
:102FA0000F900F900E94AE0680E0089580919E24BD
:102FB00090919F24A091A024B091A12483309105E9
:102FC000A105B10598F084309105A105B10571F016
:102FD0000897A105B10551F082EA97E29F938F937C
:102FE0000E9466C10F900F9081E008950E94C7066D
:102FF00060919E2484EC9DE30E944C2B0E94AE06BF
:1030000080E00895CF93DF931F92CDB7DEB7809114
:10301000B0249091B124A091B224B091B32406972A
:10302000A105B10550F082EA97E29F938F930E9429
:1030300066C10F900F9081E018C00E94C706AE01D4
:103040004F5F5F4F6091B0248091D8250E94CC0DD6
:10305000882341F082EA97E29F938F930E9466C192
:103060000F900F900E94AE0680E00F90DF91CF91FD
:10307000089580E0089580E00895CF93DF93C09194
:10308000C224D091C3240E94C7068091D424909179
:10309000D524A091D624B091D7240197A105B105DC
:1030A00039F5AE016091B02484EC9DE30E94C32306
:1030B0008091B3248F938091B2248F938091B12417
:1030C0008F938091B0248F938EE09AE29F938F9399
:1030D0000E9466C1DF93CF9381E29AE29F938F9320
:1030E0000E9466C18DB79EB70A968DBF9EBF26C04F
:1030F0006091B02484EC9DE30E949423EC018091C4
:10310000B3248F938091B2248F938091B1248F93B5
:103110008091B0248F932FE23AE23F932F930E9445
:1031200066C1DF93CF9381E29AE29F938F930E94CF
:1031300066C18DB79EB70A968DBF9EBF0E94AE0630
:1031400080E0DF91CF91089580E0089580E00895B8
:1031500080E0089580E008950F931F938A012AE08C
:1031600040E050E20E9463B481508B3070F440E044
:103170006AE080E090E20E9442BB82E49AE29F9380
:103180008F930E9466C10F900F9080E01F910F9166
:103190000895EF92FF920F931F93CF93DF930097C1
:1031A000D1F161157105B9F18B017C0187E299E3D9
:1031B0000E9480C18BE399E30E9480C1C0E0D0E00F
:1031C00040E0BE01C8010E94021E41E0BE01C801EC
:1031D0000E94021EBE01C7010E94671E2F96CF3FAC
:1031E0008FE0D80769F742E0BE01C8010E94021EC5
:1031F00043E0BE01C8010E94021EBE01C7010E9439
:10320000671E2F97CE31D10571F78AE090E00E94BA
:103210007AC180E001C081E0DF91CF911F910F91D1
:10322000FF90EF900895BF92CF92DF92EF92FF92BE
:103230000F931F93CF93DF9300D01F92CDB7DEB7CC
:10324000009709F411C16B017C018FE0B82EFB01DE
:10325000B08240E061E0C7010E94785F40E062E038
:10326000C7010E94785F40E064E0C7010E94785F78
:1032700040E068E0C7010E94785F40E060E1C7017C
:103280000E94785F40E060E2C7010E94785F40E002
:1032900060E4C7010E94785F40E060E8C7010E94D7
:1032A000785F40E061E0C7010E94F65D40E062E0C7
:1032B000C7010E94F65D40E064E0C7010E94F65D30
:1032C00040E068E0C7010E94F65D40E060E1C701B0
:1032D0000E94F65D40E060E2C7010E94F65D40E0BA
:1032E00060E4C7010E94F65D40E060E8C7010E940B
:1032F000F65D85E0F601808341E061E0C7010E9450
:10330000F65D41E064E0C7010E94F65D41E060E1E6
:10331000C7010E94F65D41E060E4C7010E94F65DCE
:103320008AE0F601808341E062E0C7010E94F65D19
:1033300041E068E0C7010E94F65D41E060E2C7013C
:103340000E94F65D41E060E8C7010E94F65D81E001
:10335000F60180838E010F5F1F4F9E012E5F3F4F4E
:10336000AE014D5F5F4FBE016C5F7F4FC7010E9492
:103370006A6289811F928F938A811F928F938B81BA
:103380001F928F938C811F928F938FE499E39F9369
:103390008F930E9466C182E0F60180839E012E5FBA
:1033A0003F4FAE014D5F5F4FBE016C5F7F4FC70166
:1033B0000E946A6289811F928F938A811F928F93E4
:1033C0008B811F928F938C811F928F938DE799E34E
:1033D0009F938F930E9466C184E0F60180839E01D3
:1033E0002E5F3F4FAE014D5F5F4FBE016C5F7F4F61
:1033F000C7010E946A6289811F928F938A811F92FE
:103400008F938B811F928F938C811F928F938BEA66
:1034100099E39F938F930E9466C188E0F6018083B1
:103420009E012E5F3F4FAE014D5F5F4FBE016C5F4F
:103430007F4FC7010E946A6289811F928F938A81A0
:103440001F928F938B811F928F938C811F928F93EA
:1034500089ED99E39F938F930E9466C1F601B08234
:10346000CDBFDEBF80E001C081E02496CDBFDEBFCE
:10347000DF91CF911F910F91FF90EF90DF90CF9050
:10348000BF9008952F923F925F926F927F928F929A
:103490009F92AF92BF92CF92DF92EF92FF920F93E3
:1034A0001F93CF93DF931F92CDB7DEB7009709F438
:1034B000C1C0683008F0BEC0562E3C01AE014F5F5F
:1034C0005F4F0E94703500E010E047EF242E4AE382
:1034D000342E56E9E52E5AE3F52E66E6C62E6AE34B
:1034E000D62E79E3A72E7AE3B72EE7E08E2EEAE315
:1034F0009E2E898190E0002E02C0959587950A94B2
:10350000E2F780FF3CC0802F90E0FC013197E7306C
:10351000F10548F58827EC50FF4F8F4F0C945DBEA6
:103520001F925F929F928F9224C01F925F92BF92D0
:10353000AF921FC01F925F92DF92CF921AC01F926C
:103540005F92FF92EF9215C01F925F92A5ECBAE3D3
:103550000EC01F925F923F922F920BC01F925F92FC
:10356000A9E2BBE304C01F925F92AAE5BBE3BF934D
:10357000AF930E9466C10F900F900F900F900F5F56
:103580001F4F0830110509F0B4CF652DC3010E940B
:10359000A935AE014F5F5F4F652DC3010E94E03535
:1035A00000E010E08EEB882E8BE3982E98E8E92E51
:1035B0009BE3F92E29E1C22E2CE3D22E32EEA32E6C
:1035C0003BE3B32E898190E0002E02C0959587954C
:1035D0000A94E2F780FF1FC0023071F0033039F027
:1035E000013079F41F925F92BF92AF920EC01F928A
:1035F0005F92FF92EF9209C01F925F929F928F920B
:1036000004C01F925F92DF92CF920E9466C10F901A
:103610000F900F900F900F5F1F4F0430110591F620
:10362000652DC3010E9418368AE090E00E947AC19D
:1036300080E001C081E00F90DF91CF911F910F9149
:10364000FF90EF90DF90CF90BF90AF909F908F90C2
:103650007F906F905F903F902F9008950F931F93EE
:10366000CF93DF931F92CDB7DEB7009701F18C01A6
:10367000BE016F5F7F4F0E944F36898183FF04C078
:103680008EE39CE30E9480C1898182FF04C084E6AE
:103690009CE30E9480C1898180FF04C08AE89CE38A
:1036A0000E9480C1C8010E947E3680E001C081E096
:1036B0000F90DF91CF911F910F910895CF93DF93DA
:1036C000CDB7DEB72897CDBFDEBF89839A836B83E2
:1036D0007C834D835E832F83388789819A8100970D
:1036E00011F481E014C089819A812F813885FC0111
:1036F000208331838B819C818093763D9093773DAD
:103700008D819E818093783D9093793D80E02896CD
:10371000CDBFDEBFDF91CF910895CF93DF931F928E
:103720001F92CDB7DEB789839A8389819A810097EA
:1037300011F481E0B0C02091763D3091773D8091C9
:10374000783D9091793D41E0B9010E940D21898138
:103750009A81FC0180819181FC012081318140911D
:10376000763D5091773D6091783D7091793D8981AA
:103770009A81FC0180819181F90119952091763D12
:103780003091773D8091783D9091793D40E0B9014D
:103790000E94D22189819A81FC0180819181FC0162
:1037A000208131814091763D5091773D6091783D07
:1037B0007091793D89819A81FC0180819181F90123
:1037C00019956091763D7091773D8091783D90910B
:1037D000793D2FE043E00E94892189819A81FC0193
:1037E00080819181FC01208131814091763D509111
:1037F000773D6091783D7091793D89819A81FC0196
:1038000080819181F90119952091763D3091773D24
:103810008091783D9091793D40E050E0B9010E945F
:10382000892089819A81FC0180819181FC0120811C
:1038300031814091763D5091773D6091783D709116
:10384000793D89819A81FC0180819181F9011995E5
:103850002091763D3091773D8091783D9091793DF2
:10386000B9010E94D22089819A81FC0180819181D5
:10387000FC01208131814091763D5091773D6091EE
:10388000783D7091793D89819A81FC018081918197
:10389000F901199580E00F900F90DF91CF91089575
:1038A000CF93DF931F921F92CDB7DEB789839A83A0
:1038B00089819A81009711F481E06EC089819A8193
:1038C0000E948D1B2091763D3091773D8091783D0F
:1038D0009091793D4FEF57E0B9010E94892089818D
:1038E0009A81FC0180819181FC012081318140918C
:1038F000763D5091773D6091783D7091793D898119
:103900009A81FC0180819181F90119952091763D80
:103910003091773D8091783D9091793DB9010E9439
:10392000D22089819A81FC0180819181FC012081D2
:1039300031814091763D5091773D6091783D709115
:10394000793D89819A81FC0180819181F9011995E4
:103950006091763D7091773D8091783D9091793D71
:103960002FE040E00E94892189819A81FC018081B9
:103970009181FC01208131814091763D5091773DCC
:103980006091783D7091793D89819A81FC018081B7
:103990009181F901199580E00F900F90DF91CF91FF
:1039A0000895CF93DF931F921F92CDB7DEB789831F
:1039B0009A8389819A81009711F481E001C080E0A7
:1039C0000F900F90DF91CF910895CF93DF931F92C7
:1039D0001F92CDB7DEB789839A8389819A81009738
:1039E00011F481E024C06091763D7091773D809123
:1039F000783D9091793D2FE043E00E9489218981B3
:103A00009A81FC0180819181FC012081318140916A
:103A1000763D5091773D6091783D7091793D8981F7
:103A20009A81FC0180819181F901199580E00F90C4
:103A30000F90DF91CF910895CF93DF931F921F9244
:103A4000CDB7DEB789839A8389819A81009711F473
:103A500081E024C02091763D3091773D8091783D82
:103A60009091793D41E0B9010E944B2189819A8171
:103A7000FC0180819181FC01208131814091763D62
:103A80005091773D6091783D7091793D89819A811F
:103A9000FC0180819181F901199580E00F900F90D0
:103AA000DF91CF910895CF93DF931F921F92CDB7EF
:103AB000DEB789839A8389819A81009711F481E026
:103AC00024C06091763D7091773D8091783D9091D2
:103AD000793D2FE043E00E94892189819A81FC0190
:103AE00080819181FC01208131814091763D50910E
:103AF000773D6091783D7091793D89819A81FC0193
:103B000080819181F901199580E00F900F90DF91EC
:103B1000CF910895CF93DF9300D000D0CDB7DEB71B
:103B200089839A834B835C836D837E8389819A81A9
:103B3000009711F481E029C06091763D7091773D46
:103B4000E091783DF091793D8B819C81AD81BE8182
:103B50009C01AD01CF010E94102289819A81FC0154
:103B600080819181FC01208131814091763D50918D
:103B7000773D6091783D7091793D89819A81FC0112
:103B800080819181F901199580E02696CDBFDEBF35
:103B9000DF91CF910895CF93DF931F921F92CDB7FE
:103BA000DEB789839A8389819A81009711F481E035
:103BB00024C06091763D7091773D8091783D9091E1
:103BC000793D2FE043E00E94892189819A81FC019F
:103BD00080819181FC01208131814091763D50911D
:103BE000773D6091783D7091793D89819A81FC01A2
:103BF00080819181F901199580E00F900F90DF91FC
:103C0000CF910895CF93DF93CDB7DEB72597CDBF82
:103C1000DEBF89839A836B837C834D8389819A81FC
:103C2000009711F480E04DC08D81843010F082E067
:103C300048C06091763D7091773D8091783D90913C
:103C4000793D4B815C812D810E94002089819A8180
:103C5000FC0180819181FC01208131814091763D80
:103C60005091773D6091783D7091793D89819A813D
:103C7000FC0180819181F90119952091763D309167
:103C8000773D8091783D9091793D4D81B9010E94B9
:103C90004B2089819A81FC0180819181FC012081E6
:103CA00031814091763D5091773D6091783D7091A2
:103CB000793D89819A81FC0180819181F901199571
:103CC00080E02596CDBFDEBFDF91CF910895CF93E1
:103CD000DF9300D01F92CDB7DEB789839A836B83C1
:103CE0007C8389819A81009711F481E047C02091FB
:103CF000763D3091773D8091783D9091793D4B8133
:103D00005C81B9010E94892089819A81FC018081AE
:103D10009181FC01208131814091763D5091773D28
:103D20006091783D7091793D89819A81FC01808113
:103D30009181F90119952091763D3091773D8091DF
:103D4000783D9091793DB9010E94D22089819A8174
:103D5000FC0180819181FC01208131814091763D7F
:103D60005091773D6091783D7091793D89819A813C
:103D7000FC0180819181F901199580E02496CDBFE5
:103D8000DEBFDF91CF910895CF93DF9300D0CDB701
:103D9000DEB789839A836B8389819A81009711F4B6
:103DA00081E033C08B81843010F082E02EC08B81A3
:103DB000282F30E081E090E002C0880F991F2A95FB
:103DC000E2F7282F6091763D7091773D8091783DA4
:103DD0009091793D40E00E94892189819A81FC017E
:103DE00080819181FC01208131814091763D50910B
:103DF000773D6091783D7091793D89819A81FC0190
:103E000080819181F901199580E02396CDBFDEBFB5
:103E1000DF91CF910895CF93DF931F921F92CDB77B
:103E2000DEB789839A8389819A81009711F481E0B2
:103E300024C06091763D7091773D8091783D90915E
:103E4000793D2FE040E00E94892189819A81FC011F
:103E500080819181FC01208131814091763D50919A
:103E6000773D6091783D7091793D89819A81FC011F
:103E700080819181F901199580E00F900F90DF9179
:103E8000CF910895CF93DF9300D0CDB7DEB789836C
:103E90009A836B8389819A81009711F481E033C002
:103EA0008B81843010F082E02EC08B81282F30E08F
:103EB00081E090E002C0880F991F2A95E2F7282F31
:103EC0006091763D7091773D8091783D9091793DFC
:103ED00043E00E94892189819A81FC01808191813E
:103EE000FC01208131814091763D5091773D609178
:103EF000783D7091793D89819A81FC018081918121
:103F0000F901199580E02396CDBFDEBFDF91CF91F7
:103F10000895CF93DF931F921F92CDB7DEB78983A9
:103F20009A8389819A81009711F481E024C060917D
:103F3000763D7091773D8091783D9091793D2FE06D
:103F400043E00E94892189819A81FC0180819181CD
:103F5000FC01208131814091763D5091773D609107
:103F6000783D7091793D89819A81FC0180819181B0
:103F7000F901199580E00F900F90DF91CF9108958E
:103F8000CF93DF9300D0CDB7DEB789839A836B835D
:103F900089819A81009711F481E02CC08B81813056
:103FA00029F08B81882311F082E024C02091763D96
:103FB0003091773D8091783D9091793D4B81B90169
:103FC0000E940D2189819A81FC0180819181FC01EF
:103FD000208131814091763D5091773D6091783DCF
:103FE0007091793D89819A81FC0180819181F901EB
:103FF000199580E02396CDBFDEBFDF91CF91089564
:10400000CF93DF93CDB7DEB72797CDBFDEBF8983D0
:104010009A836B837C834D835E832F8389819A810E
:10402000FC01108289819A8123E0FC01218389812E
:104030009A8123E0FC01248389819A81FC01828199
:1040400093812F81FC01208389819A81FC018281E7
:10405000938101962D813E813F70329522952F707C
:1040600023273F702327FC01208389819A81FC014B
:104070008281938102962D812295207FFC012083ED
:104080008B819C81FC01148200002796CDBFDEBF8E
:10409000DF91CF910895CF93DF93CDB7DEB725970A
:1040A000CDBFDEBF89839A836B837C834D838981F7
:1040B0009A81FC01108289819A8123E0FC0121838D
:1040C00089819A8123E0FC01248389819A81FC0102
:1040D000828193812D812860FC01208389819A81CE
:1040E000FC01828193810196FC01108289819A8171
:1040F000FC01828193810296FC0110828B819C815C
:10410000FC01148200002596CDBFDEBFDF91CF9168
:104110000895CF93DF9300D000D0CDB7DEB7898369
:104120009A836B837C834D835E8389819A81FC01B2
:10413000108289819A8123E0FC01218389819A81FF
:1041400023E0FC01248389819A81FC01828193818F
:1041500027E0FC01208389819A81FC01828193817F
:1041600001962D813E813F70329522952F70232735
:104170003F702327FC01208389819A81FC01828181
:10418000938102962D812295207FFC0120838B81D3
:104190009C81FC01148200002696CDBFDEBFDF911A
:1041A000CF910895CF93DF9300D01F92CDB7DEB7A4
:1041B00089839A836B837C8389819A81FC01108235
:1041C00089819A8123E0FC01218389819A8123E0FE
:1041D000FC01248389819A81FC01828193812FE0F3
:1041E000FC01208389819A81FC018281938101965F
:1041F000FC01108289819A81FC018281938102965F
:10420000FC0110828B819C81FC01148200002496A9
:10421000CDBFDEBFDF91CF910895CF93DF93CDB7B0
:10422000DEB72597CDBFDEBF89839A836B837C83FE
:104230004D8389819A81FC01108289819A8123E0D2
:10424000FC01218389819A8123E0FC0124838981F7
:104250009A81FC018281938128E3FC01208389817A
:104260009A81FC01828193810196FC0110828981EF
:104270009A81FC018281938102962D81FC01208329
:104280008B819C81FC01148200002596CDBFDEBF8E
:10429000DF91CF910895CF93DF93CDB7DEB7259708
:1042A000CDBFDEBF89839A836B837C834D838981F5
:1042B0009A81FC01108289819A8123E0FC0121838B
:1042C00089819A8123E0FC01248389819A81FC0100
:1042D0008281938128E2FC01208389819A81FC01FB
:1042E000828193810196FC01108289819A81FC016F
:1042F0008281938102962D81FC0120838B819C8198
:10430000FC01148200002596CDBFDEBFDF91CF9166
:104310000895CF93DF9300D000D0CDB7DEB7898367
:104320009A836B837C834D832E8389819A81FC01E0
:10433000108289819A8123E0FC01218389819A81FD
:1043400023E0FC01248389819A81FC01828193818D
:1043500020E2FC01208389819A81FC018281938182
:104360000196FC01108289819A81FC0182819381EE
:1043700002962D81222F30E022953295307F322710
:10438000207F3227322F2E81232BFC0120838B812B
:104390009C81FC01148200002696CDBFDEBFDF9118
:1043A000CF910895CF93DF93CDB7DEB72597CDBFDB
:1043B000DEBF89839A836B837C834D8389819A8155
:1043C000FC01108289819A8123E0FC01218389818B
:1043D0009A8123E0FC01248389819A81FC018281F6
:1043E000938120E3FC01208389819A81FC018281F1
:1043F00093810196FC01108289819A81FC0182815E
:10440000938102962D81FC0120838B819C81FC018C
:10441000148200002596CDBFDEBFDF91CF910895B5
:10442000CF93DF93CDB7DEB72897CDBFDEBF8983AB
:104430009A836B837C832D833E834F835887898146
:104440009A81FC01108289819A8123E0FC012183F9
:1044500089819A8123E0FC01248389819A81FC016E
:10446000228133818D819E81AF81B885CD01AA27BC
:10447000BB27F901808389819A81FC018281938124
:104480009C012F5F3F4F8D819E81AF81B885892F21
:104490009A2FAB2FBB27F901808389819A81FC0178
:1044A0008281938102962D81FC0120838B819C81E6
:1044B000FC01148200002896CDBFDEBFDF91CF91B2
:1044C0000895CF93DF93CDB7DEB780E098E4A8EEF0
:1044D000B1E0BC01CD01DF91CF910895CF93DF937F
:1044E0001F92CDB7DEB719820E946122DC01CB0199
:1044F0002981222F30E0022E04C0B695A79597950A
:1045000087950A94D2F7BC01CD010F90DF91CF912E
:104510000895CF93DF93CDB7DEB70E946E22DC0102
:10452000CB01BC01CD01DF91CF910895CF93DF93F3
:10453000CDB7DEB70E948922DC01CB01BC01CD01E1
:10454000DF91CF910895CF93DF93CDB7DEB70E946F
:104550009622DC01CB01BC01CD01DF91CF91089502
:104560006150710981099109D9F70895EF92FF927D
:104570000F931F93CF93DF93CDB7DEB72897CDBFAF
:10458000DEBF89839A836B834C835D832E830F8385
:1045900018878E81282F30E08C819D81AC0102C06C
:1045A000440F551F2A95E2F780917A3D90917B3D0B
:1045B000FC012281338160917A3D70917B3D809135
:1045C0007C3D90917D3DEF81F8857F018A014B8193
:1045D0000E948D5C89819A81FC0180819181FC011E
:1045E0002081318140917A3D50917B3D60917C3DAD
:1045F00070917D3D89819A81FC0180819181F901D1
:10460000199500002896CDBFDEBFDF91CF911F9195
:104610000F91FF90EF900895CF93DF9300D0CDB727
:10462000DEB789839A836B8320917A3D30917B3DFD
:1046300080917C3D90917D3D4B81B9010E94F55C5C
:1046400089819A81FC0180819181FC0120813181E5
:1046500040917A3D50917B3D60917C3D70917D3DD4
:1046600089819A81FC0180819181F901199580915C
:104670007A3D90917B3DFC01828193810196FC0102
:104680008081882F90E0382F222780917A3D909169
:104690007B3DFC01828193810296FC018081882F01
:1046A00090E0822B932B80937E3D90937F3D809171
:1046B0007A3D90917B3DFC0180812396CDBFDEBF8A
:1046C000DF91CF9108950F931F93CF93DF931F92A4
:1046D0001F92CDB7DEB789839A8389819A810FEFC4
:1046E0001FEF20E040E050E06CE60E94B622898196
:1046F0009A810FEF1FEF20E040E050E06DE60E944E
:10470000B62289819A810FEF1FEF20E040E050E050
:1047100064E60E94B62280E090E00F900F90DF9157
:10472000CF911F910F910895CF93DF9300D0CDB714
:10473000DEB789839A836B8389819A816B810E941A
:104740000C2380917A3D90917B3DFC018281938185
:104750000196FC018081882F90E0382F22278091DC
:104760007A3D90917B3DFC01828193810296FC0110
:104770008081882F90E0822B932B2396CDBFDEBFC4
:10478000DF91CF9108950F931F93CF93DF93CDB710
:10479000DEB72597CDBFDEBF89839A836B834C83B9
:1047A0005D834C815D8189819A810FEF1FEF20E04D
:1047B0006B810E94B62280E02596CDBFDEBFDF91DF
:1047C000CF911F910F910895CF93DF931F921F9266
:1047D000CDB7DEB789839A8389819A816FE70E947A
:1047E0000C2380917A3D90917B3DFC0182819381E5
:1047F000FC0182810F900F90DF91CF9108950F936C
:104800001F93CF93DF9300D01F92CDB7DEB789837C
:104810009A836B834C8389819A816AE10E940C237D
:104820008C818823C9F08B81882359F489819A81EE
:104830000CE010E022E040E050E06AE10E94B62285
:1048400023C089819A8103E010E020E040E050E03D
:104850006AE10E94B62218C08B81882359F48981AD
:104860009A810CE010E022E043E050E06AE10E940F
:10487000B6220AC089819A8103E010E020E043E07B
:1048800050E06AE10E94B62280E02496CDBFDEBFF0
:10489000DF91CF911F910F9108950F931F93CF93A5
:1048A000DF9300D0CDB7DEB789839A836B838B818A
:1048B000482F50E089819A8108E010E027E062E00B
:1048C0000E94B62280E02396CDBFDEBFDF91CF915C
:1048D0001F910F9108950F931F93CF93DF931F9212
:1048E0001F92CDB7DEB789839A8389819A8101E0CF
:1048F00010E020E041E050E062E00E94B62280E05B
:104900000F900F90DF91CF911F910F910895CF934A
:10491000DF9300D01F92CDB7DEB789839A836B8374
:104920007C8389819A8167E00E940C2380917A3D83
:1049300090917B3DFC0182819381FC0121818B81DF
:104940009C81FC01208380E02496CDBFDEBFDF91F7
:10495000CF9108954F925F926F927F928F929F9224
:10496000AF92BF92CF92DF92EF92FF920F931F937D
:10497000CF93DF93CDB7DEB72C97CDBFDEBF8F834C
:10498000988749875A876B877C8719828FE38A8348
:104990008981282F30E08A81882F90E0820F931F31
:1049A00099230CF40196959587958B8389859A8533
:1049B000AB85BC85813D2DED920726E0A207B105B0
:1049C00008F401C203C183E08D831C828B81882F90
:1049D00090E0AA2797FDA095BA2FBC01CD010E94B7
:1049E00019BFDC01CB0122E33DE341EE5DE3BC01F5
:1049F000CD010E94CDBFDC01CB016C017D018B811B
:104A0000882F90E0AA2797FDA095BA2FBC01CD0171
:104A10000E9419BFDC01CB019C01AD01C701B601A9
:104A20000E94CDBFDC01CB016C017D018B81882F01
:104A300090E0AA2797FDA095BA2FBC01CD010E9456
:104A400019BFDC01CB012BE13FE249E251E4BC019B
:104A5000CD010E94CDBFDC01CB019C01AD01C7019E
:104A6000B6010E94AFBEDC01CB0126E632EF4AE878
:104A700055E4BC01CD010E94AFBEDC01CB0120E0BA
:104A800030E048EC52E4BC01CD010E94CDBFDC0116
:104A9000CB016C017D0169857A858B859C850E949F
:104AA00017BFDC01CB019C01AD01C701B6010E941B
:104AB00013BF882324F48B818F5F898379C08B8116
:104AC000882F90E0AA2797FDA095BA2FBC01CD01B1
:104AD0000E9419BFDC01CB0122E33DE341EE5DE31F
:104AE000BC01CD010E94CDBFDC01CB016C017D0179
:104AF0008B81882F90E0AA2797FDA095BA2FBC0143
:104B0000CD010E9419BFDC01CB019C01AD01C701A1
:104B1000B6010E94CDBFDC01CB016C017D018B8110
:104B2000882F90E0AA2797FDA095BA2FBC01CD0150
:104B30000E9419BFDC01CB012BE13FE249E251E4C5
:104B4000BC01CD010E94CDBFDC01CB019C01AD01B8
:104B5000C701B6010E94AFBEDC01CB0126E632EFF1
:104B60004AE855E4BC01CD010E94AFBEDC01CB0197
:104B700020E030E048EC52E4BC01CD010E94CDBF02
:104B8000DC01CB016C017D0169857A858B859C8573
:104B90000E9417BFDC01CB019C01AD01C701B6012A
:104BA0000E9413BF882309F416C08B8181508A8329
:104BB0008981282F30E08A81882F90E0820F931F0F
:104BC00099230CF40196959587958B8399818A8119
:104BD000891708F0F8CE69857A858B859C850E94B7
:104BE00017BF6B017C018B81882F90E0AA2797FD6E
:104BF000A095BA2FBC01CD010E9419BFDC01CB01E9
:104C000022E33DE341EE5DE3BC01CD010E94CDBF57
:104C1000DC01CB014C015D018B81882F90E0AA273C
:104C200097FDA095BA2FBC01CD010E9419BFDC01F0
:104C3000CB019C01AD01C501B4010E94CDBFDC01D7
:104C4000CB014C015D018B81882F90E0AA2797FD55
:104C5000A095BA2FBC01CD010E9419BFDC01CB0188
:104C60002BE13FE249E251E4BC01CD010E94CDBFFE
:104C7000DC01CB019C01AD01C501B4010E94AFBEB6
:104C8000DC01CB0126E632EF4AE855E4BC01CD0158
:104C90000E94AFBEDC01CB0120E030E048EC52E4E2
:104CA000BC01CD010E94CDBFDC01CB019C01AD0157
:104CB000C701B6010E94AEBEDC01CB016C017D01D3
:104CC00069857A858B859C850E9417BF4B015C01A5
:104CD0008B81882F90E00196AA2797FDA095BA2F87
:104CE000BC01CD010E9419BFDC01CB0122E33DE3F1
:104CF00041EE5DE3BC01CD010E94CDBFDC01CB01E3
:104D00002C013D018B81882F90E00196AA2797FD09
:104D1000A095BA2FBC01CD010E9419BFDC01CB01C7
:104D20009C01AD01C301B2010E94CDBFDC01CB01EA
:104D30002C013D018B81882F90E00196AA2797FDD9
:104D4000A095BA2FBC01CD010E9419BFDC01CB0197
:104D50002BE13FE249E251E4BC01CD010E94CDBF0D
:104D6000DC01CB019C01AD01C301B2010E94AFBEC9
:104D7000DC01CB0126E632EF4AE855E4BC01CD0167
:104D80000E94AFBEDC01CB0120E030E048EC52E4F1
:104D9000BC01CD010E94CDBFDC01CB019C01AD0166
:104DA000C501B4010E94AEBEDC01CB019C01AD0186
:104DB000C701B6010E94C9BF18160CF004C28B814E
:104DC0008F5F8B8300C204C182E08D8381E08C837E
:104DD0008B81882F90E0AA2797FDA095BA2FBC0160
:104DE000CD010E9419BFDC01CB0125E336EB47EB77
:104DF0005DE3BC01CD010E94CDBFDC01CB016C01A4
:104E00007D018B81882F90E0AA2797FDA095BA2F6E
:104E1000BC01CD010E9419BFDC01CB019C01AD0199
:104E2000C701B6010E94CDBFDC01CB016C017D0141
:104E30008B81882F90E0AA2797FDA095BA2FBC01FF
:104E4000CD010E9419BFDC01CB0128E93CE44DE013
:104E500051E4BC01CD010E94CDBFDC01CB019C011E
:104E6000AD01C701B6010E94AFBEDC01CB0120E05D
:104E700038E84AE655E4BC01CD010E94AFBEDC0132
:104E8000CB0120E030E048EC52E4BC01CD010E94AF
:104E9000CDBFDC01CB016C017D0169857A858B85F5
:104EA0009C850E9417BFDC01CB019C01AD01C701AD
:104EB000B6010E9413BF882324F48B818F5F8983FE
:104EC00079C08B81882F90E0AA2797FDA095BA2FF3
:104ED000BC01CD010E9419BFDC01CB0125E336EBFB
:104EE00047EB5DE3BC01CD010E94CDBFDC01CB01EE
:104EF0006C017D018B81882F90E0AA2797FDA095FA
:104F0000BA2FBC01CD010E9419BFDC01CB019C016D
:104F1000AD01C701B6010E94CDBFDC01CB016C0120
:104F20007D018B81882F90E0AA2797FDA095BA2F4D
:104F3000BC01CD010E9419BFDC01CB0128E93CE492
:104F40004DE051E4BC01CD010E94CDBFDC01CB019D
:104F50009C01AD01C701B6010E94AFBEDC01CB01CF
:104F600020E038E84AE655E4BC01CD010E94AFBE1E
:104F7000DC01CB0120E030E048EC52E4BC01CD0183
:104F80000E94CDBFDC01CB016C017D0169857A8572
:104F90008B859C850E9417BFDC01CB019C01AD0174
:104FA000C701B6010E9413BF882309F416C08B8184
:104FB00081508A838981282F30E08A81882F90E070
:104FC000820F931F99230CF40196959587958B83F7
:104FD00099818A81891708F0F7CE69857A858B8552
:104FE0009C850E9417BF6B017C018B81882F90E00C
:104FF000AA2797FDA095BA2FBC01CD010E9419BF29
:10500000DC01CB0125E336EB47EB5DE3BC01CD01D1
:105010000E94CDBFDC01CB014C015D018B81882F4B
:1050200090E0AA2797FDA095BA2FBC01CD010E9460
:1050300019BFDC01CB019C01AD01C501B4010E9487
:10504000CDBFDC01CB014C015D018B81882F90E04D
:10505000AA2797FDA095BA2FBC01CD010E9419BFC8
:10506000DC01CB0128E93CE44DE051E4BC01CD0179
:105070000E94CDBFDC01CB019C01AD01C501B40193
:105080000E94AFBEDC01CB0120E038E84AE655E4DF
:10509000BC01CD010E94AFBEDC01CB0120E030E0BD
:1050A00048EC52E4BC01CD010E94CDBFDC01CB0134
:1050B0009C01AD01C701B6010E94AEBEDC01CB016F
:1050C0006C017D0169857A858B859C850E9417BF5F
:1050D0004B015C018B81882F90E00196AA2797FDF8
:1050E000A095BA2FBC01CD010E9419BFDC01CB01F4
:1050F00025E336EB47EB5DE3BC01CD010E94CDBF5C
:10510000DC01CB012C013D018B81882F90E00196C1
:10511000AA2797FDA095BA2FBC01CD010E9419BF07
:10512000DC01CB019C01AD01C301B2010E94CDBFE6
:10513000DC01CB012C013D018B81882F90E0019691
:10514000AA2797FDA095BA2FBC01CD010E9419BFD7
:10515000DC01CB0128E93CE44DE051E4BC01CD0188
:105160000E94CDBFDC01CB019C01AD01C301B201A6
:105170000E94AFBEDC01CB0120E038E84AE655E4EE
:10518000BC01CD010E94AFBEDC01CB0120E030E0CC
:1051900048EC52E4BC01CD010E94CDBFDC01CB0143
:1051A0009C01AD01C501B4010E94AEBEDC01CB0182
:1051B0009C01AD01C701B6010E94C9BF18161CF4BD
:1051C0008B818F5F8B839E012A5F3F4F8F819885F4
:1051D000B9010E9487248E81833318F08B818F5F01
:1051E0008B838E818F3018F08E8188231CF48B8105
:1051F00081508B838F81988563E30E940C238C817F
:10520000882F90E09C0133272695379522278B81A4
:10521000882F90E0982F8827990F282B392B8D8184
:10522000882F90E09695982F882797958795822BC1
:10523000932BAC018F81988500E81FEF20E063E39A
:105240000E94B62280E02C96CDBFDEBFDF91CF91C9
:105250001F910F91FF90EF90DF90CF90BF90AF9094
:105260009F908F907F906F905F904F9008950F93D5
:105270001F93CF93DF9300D0CDB7DEB789839A8396
:105280006B838B81823030F08B818B3019F08B8176
:105290008D3010F08FEF27C08B818A3019F48BE0AE
:1052A0008B8309C08B818C3019F48CE08B8303C015
:1052B0008B8182508B8389819A8162E30E940C23C7
:1052C0008B81882F90E082959295907F9827807FA0
:1052D0009827AC0189819A8100EF10E020E062E319
:1052E0000E94B62280E02396CDBFDEBFDF91CF9132
:1052F0001F910F910895CF93DF93CDB7DEB72B9712
:10530000CDBFDEBF8E839F83488759876A877B879F
:1053100088859985AA85BB85893C2BE3920724E083
:10532000A207B10550F488859985AA85BB85873287
:105330002AE79207A105B10510F481E05FC082E081
:105340008D838D81282F30E040E050E0888599855D
:10535000AA85BB85BC01CD010E9434BDDC01CB0117
:1053600089839A83AB83BC831AC08D818F5F8D83C1
:105370008D81282F30E040E050E088859985AA850E
:10538000BB85BC01CD010E9434BDDC01CB0189830A
:105390009A83AB83BC838D818D3009F40BC08981E6
:1053A0009A81AB81BC81813927E7920728E0A20767
:1053B000B105D8F28D8181508D838D818B3019F4A8
:1053C0008D8181508D838D81282F30E040E050E029
:1053D00088859985AA85BB85BC01CD010E9434BD15
:1053E0009B01AC018E819F81BA01A9010E94AA2470
:1053F0008E819F816D810E94372980E02B96CDBFE1
:10540000DEBFDF91CF9108956F927F928F929F922E
:10541000AF92BF92CF92DF92EF92FF920F931F93C2
:10542000CF93DF93CDB7DEB72B97CDBFDEBF898398
:105430009A836B83EC82FD820E831F8328873987D2
:105440004A875B8789819A81009711F481E01EC0A9
:105450006C807D808E809F80A884B984CA84DB8420
:1054600089819A81E62CF72C082D192D2A2D3B2DA8
:105470004C2D5D2D6B810E94A936882311F081E0AF
:1054800005C089819A810E946F5280E02B96CDBF22
:10549000DEBFDF91CF911F910F91FF90EF90DF90D2
:1054A000CF90BF90AF909F908F907F906F90089516
:1054B0000F931F93CF93DF9300D0CDB7DEB78983CF
:1054C0009A836B8389819A81009711F481E032C0BD
:1054D0008B81823010F083E02DC089819A8161E355
:1054E0000E940C23882311F082E024C08B81482F76
:1054F00050E089819A8100E014E02AE061E30E9493
:10550000B62289819A816AE10E940C23882311F0D6
:1055100082E010C081E09B81992309F080E0482F50
:1055200050E089819A8100E210E025E06AE10E9462
:10553000B62280E02396CDBFDEBFDF91CF911F91D1
:105540000F910895CF93DF9300D01F92CDB7DEB7B0
:1055500089839A836B837C8389819A81009711F474
:1055600081E03FC08B819C81009711F483E039C0BA
:1055700089819A8161E30E940C23882311F082E0E3
:1055800030C080917E3D90917F3D88279470892F17
:10559000992786958695282F8B819C81FC012083F5
:1055A00089819A816AE10E940C23882311F082E0AC
:1055B00018C08B819C81FC01208180917E3D90915F
:1055C0007F3D8072992796958795929582958F70E9
:1055D00089279F70892728238B819C81FC01208348
:1055E00080E02496CDBFDEBFDF91CF9108950F9369
:1055F0001F93CF93DF9300D01F92CDB7DEB789837F
:105600009A836B837C8389819A81009711F481E06E
:105610003BC08B819C818230910510F083E034C0C7
:105620008B819C81009729F08FEF9FEF8B839C8368
:1056300002C01B821C8289819A8163E20E940C2332
:10564000882311F082E020C04B815C8189819A819E
:105650000FEF1FEF20E063E20E94B62289819A815A
:1056600063E20E940C23882311F082E00DC08B813D
:105670009C81AC01517089819A810FEF1FEF20E06E
:1056800063E20E94B62280E02496CDBFDEBFDF91A8
:10569000CF911F910F9108950F931F93CF93DF9395
:1056A00000D0CDB7DEB789839A836B8389819A81D5
:1056B000009709F414C089819A8160E00E940C234C
:1056C000882309F00CC08B81482F50E089819A8192
:1056D00000E01FE028E060E00E94B6220000239670
:1056E000CDBFDEBFDF91CF911F910F9108950F9332
:1056F0001F93CF93DF93CDB7DEB72897CDBFDEBF23
:105700008D839E836F8348878F81882F90E09C01D3
:105710003695322F2227379527958885882F90E058
:10572000880F991F82959295907F9827807F982760
:10573000822B932B89839A8380EA90E08B839C83CE
:105740008D819E8160E00E940C232B813C814981E8
:105750005A818D819E81890120E060E00E94B622FD
:105760002896CDBFDEBFDF91CF911F910F91089595
:105770000F931F93CF93DF93CDB7DEB72797CDBF9E
:10578000DEBF8D839E836F838F81882F90E00024FE
:10579000969587950794969587950794982F802DD1
:1057A00089839A8380E490E08B839C838D819E81A2
:1057B00060E00E940C232B813C8149815A818D81BC
:1057C0009E81890120E060E00E94B6222796CDBF2D
:1057D000DEBFDF91CF911F910F9108950F931F931B
:1057E000CF93DF93CDB7DEB72797CDBFDEBF8D83D5
:1057F0009E836F838F81882F90E0880F991F880F79
:10580000991F89839A8384E090E08B839C838D81A8
:105810009E8160E00E940C232B813C8149815A814A
:105820008D819E81890120E060E00E94B62227964A
:10583000CDBFDEBFDF91CF911F910F9108950F93E0
:105840001F93CF93DF93CDB7DEB72897CDBFDEBFD1
:105850008D839E836F8348878F81882F90E09C0182
:10586000220F331F8885882F90E0822B932B89830A
:105870009A8383E090E08B839C838D819E8160E09E
:105880000E940C232B813C8149815A818D819E810C
:10589000890120E060E00E94B6222896CDBFDEBFDD
:1058A000DF91CF911F910F9108950F931F93CF9385
:1058B000DF93CDB7DEB72897CDBFDEBF8D839E8344
:1058C0006F8348878F81843010F081E039C08F81E9
:1058D0008230E0F48885882F90E0880F991F8983B3
:1058E0009A8382E090E08B839C838D819E8160E02F
:1058F0000E940C232B813C8149815A818D819E819C
:10590000890120E060E00E94B62219C08885882FB6
:1059100090E089839A8381E090E08B839C838D81E2
:105920009E8160E00E940C232B813C8149815A8139
:105930008D819E81890120E060E00E94B62280E096
:105940002896CDBFDEBFDF91CF911F910F910895B3
:10595000CF92EF920F931F93CF93DF93CDB7DEB724
:105960002C97CDBFDEBF8D839E836F8348872987A9
:105970000A87EB86CC868F81882F90E09C013327A5
:105980002695379522278885882F90E090E4899F77
:10599000902D88271124282B392B8985882F90E07A
:1059A000982F88279295990F907E282B392B8A85DE
:1059B000882F90E0982F88279295907F282B392B5D
:1059C0008B85882F90E0982F8827990F990F990F32
:1059D000282B392B8C85882F90E0982F8827990FBA
:1059E000990F822B932B89839A8380E09CEF8B8382
:1059F0009C838D819E8161E00E940C232B813C81E0
:105A000049815A818D819E81890120E061E00E9457
:105A1000B6222C96CDBFDEBFDF91CF911F910F91A3
:105A2000EF90CF9008950F931F93CF93DF93CDB74F
:105A3000DEB72897CDBFDEBF8D839E836F834887F7
:105A40008F81843010F081E040C08F818230F0F48B
:105A50008885882F90E09927869597958827898350
:105A60009A8380E090E88B839C838D819E8161E0A6
:105A70000E940C232B813C8149815A818D819E811A
:105A8000890120E061E00E94B6221EC08885882F2F
:105A900090E090E4899F902D8827112489839A8330
:105AA00080E090E48B839C838D819E8161E00E94E5
:105AB0000C232B813C8149815A818D819E818901F2
:105AC00020E061E00E94B62280E02896CDBFDEBFD4
:105AD000DF91CF911F910F9108950F931F93CF9353
