:100000000C9496030C94B7030C94B7030C94B703A9
:100010000C94B7030C94B7030C94B7030C94B70378
:100020000C94B7030C94B7030C94B7030C94B70368
:100030000C94B7030C94CC860C94B7030C94B703C0
:100040000C94B7030C94B7030C94B7030C94B70348
:100050000C94B7030C94B7030C94B7030C94B70338
:100060000C94B7030C9482090C94B7030C94B10957
:100070000C94B7030C94B7030C94B7030C94B70318
:100080000C94B7030C94B7030C94B7030C94B70308
:100090000C94B7030C94B7030C94B7030C94B703F8
:1000A0000C94B7030C94B7030C94B7030C94B703E8
:1000B0000C94B7030C94B7030C94FE860C94B7030E
:1000C0000C94B7030C94B7030C94B7030C94B703C8
:1000D0000C94B7030C94B7030C94B7030C94B703B8
:1000E0000C94B7030C94B7030C94B7030C94B703A8
:1000F0000C94B7030C94B7030C94B7030C94B70398
:100100000C94B7030C94B7030C94B7030C94B70387
:100110000C94B7030C94B7030C94B7030C94B70377
:100120000C94B7030C94B7030C94B7030C94B70367
:100130000C94B7030C94B7030C94B7030C94B70357
:100140000C94B7030C94B7030C94B7030C94B70347
:100150000C94B7030C94B7030C94B7030C94B70337
:100160000C94B7030C94B7030C94B7030C94B70327
:100170000C94B7030C94B7030C94B7030C94B70317
:100180000C94B7030C94B7030C94B7030C94B70307
:100190000C94B7030C94B7030C94B7030C94B703F7
:1001A0000C94B7030C94B7030C94B7030C94B703E7
:1001B0000C94B7030C94B7030C94B7030C94B703D7
:1001C0000C94B7030C94B7030C94B7030C94B703C7
:1001D0000C94B7030C94B7030C94B7030C94B703B7
:1001E0000C94B7030C94B7030119FC18F718F21814
:1001F000ED18E818E318AC3FB73FC23FCD3FD83FFA
:10020000F33FFE3F094014401F4043404E405940D9
:1002100064406F408A409540A040AB40B6403753A1
:100220005B536B538A53A453D753FB53585A2E54E2
:10023000395444544F545A54655470547B54865422
:100240009754A854B354BE54C954D454DF54EA54F8
:10025000F55400550B55585A585A165535554F55A3
:10026000585A69559255CA55DA55EA55585A585A46
:10027000585A585A585A585AF5550556145624562D
:100280002F563F5654566F56585A585A585A585A1D
:10029000585A585A7A568F56A956BE56D356585A57
:1002A000585A585A585A585A585ADE56F3560D57F3
:1002B0002D5747576B57805790579B57B057CF577D
:1002C000DA57EF57FA5705581A58255830584058FA
:1002D0004B58565866587158585A90589B58B558AC
:1002E000D458585A585AEE58FE580E591E592E597D
:1002F000435958596D5982598D599D59A859B35927
:10030000BE59C959D459DF59EA59F559005A0B5AFF
:10031000165A215A2C5A375A425A585A4D5A946DE5
:10032000AB6DB06DBE6DCC6D106E156E4B6E666EA6
:100330006B6E956EB06EB56E837D887D8D7D927D82
:10034000977D9C7DA17DA67DAB7DB07DB57DBA7D81
:10035000BF7DC47DC97DCE7D0C94EA550C94679019
:100360000C94AB0B0C9444540C942C080C94B80AC9
:100370000C94837D0C94F2180C9469550C94DA5506
:100380000C94BA060C947C0E0C9424560C944D09D3
:100390000C9490120C9475130C947B540C949058FC
:1003A0000C946B570C94D4580C94CB850C94F90492
:1003B0000C944B6E0C946B530C9422120C94080703
:1003C0000C94B57D0C94D3560C94FC180C944757A0
:1003D0000C941E590C94C1030C94C7030C9425581B
:1003E0000C94887D0C94800C0C94977D0C941F4089
:1003F0000C94BE590C9443400C942C5A0C94975472
:100400000C9466580C94B2060C94D7530C94EF5786
:100410000C940B5A0C94E6030C94A8060C94BA7D29
:100420000C94585A0C94CD030C94EB0A0C94B06DB8
:100430000C949C7D0C94EA590C94C97D0C944D5AF3
:100440000C94DE030C94C23F0C94BE540C9496079B
:100450000C9495400C94375A0C9422040C94D45963
:100460000C944A0D0C948B080C94C3040C9404084F
:100470000C9405560C94B07D0C94AE060C94666EEC
:100480000C94E4030C943F560C9446070C94BE560F
:100490000C949B580C94DA570C94B3590C94DE04CA
:1004A0000C94E3180C94AB400C944E400C947A5688
:1004B0000C948A400C9401190C94A7050C94A8592B
:1004C0000C9454560C94B73F0C948A530C94FE58D9
:1004D0000C94FA570C94A17D0C94DF590C945A0B90
:1004E0000C94AB7D0C94A4530C94DE560C94585988
:1004F0000C946F400C9490570C940B550C9436044C
:100500000C94165A0C9411150C94AA0A0C941440CD
:100510000C9464080C942D570C94B0570C94F33F32
:100520000C942E540C942F050C9471580C948654F2
:100530000C9459400C940E590C9405580C945A5430
:100540000C94F3560C946B6E0C94E8180C9414569F
:100550000C94927D0C9437530C944F550C946D5918
:100560000C9400550C94425A0C94ED180C943206DD
:100570000C94EA540C946B050C94CF570C9443598B
:100580000C94CC6D0C94005A0C9470540C94AC3FA9
:100590000C9482590C94BF030C949D590C94AB6D30
:1005A0000C94A0400C94C47D0C940D570C94B64050
:1005B0000C94CB030C94FE3F0C946E070C94C9036F
:1005C0000C9464400C94C8150C94B06E0C94C20545
:1005D0000C94A67D0C948D590C942C040C94D4543A
:1005E0000C9414050C9442140C9416550C94FB5363
:1005F0000C94DF540C94ED150C9418090C94156EA2
:100600000C94B5580C94C5030C94BE070C945B5322
:100610000C94950D0C94946D0C946E060C94D83F2C
:100620000C9456040C9440580C94EE580C94CD3F06
:100630000C944B580C94B56E0C9492040C94F55990
:100640000C941A580C94AF150C948D7D0C940940A1
:100650000C94F7180C94CE7D0C942F560C94FA142D
:100660000C9439540C9440040C946F560C94A85478
:100670000C94A9560C94D6070C94B3540C94A8046B
:100680000C94FE050C948F560C9430580C94956E77
:100690000C94FF0B0C946C0C0C94CA550C94BF7DFD
:1006A0000C942E590C94215A0C9465540C94106E91
:1006B0000C949B570C94F5550C94BE6D0C945658A5
:1006C0000C94F5540C9492550C94EE070C941E0760
:1006D0000C944F540C94C9540C9480570C94C3033D
:1006E0000C94C9590C9435556364696E6F707375B9
:1006F00078585B00BCE5ACC59C85960392C19121FE
:1007000090961D03ED01DCFDCCF5BCE5ACC5A86EF3
:10071000BCE5ACC59C85960392C1912190961D03C2
:10072000ED01DCFDCCF5BCE5ACC5A86E11241FBE07
:10073000CFEFCDBFDFE3DEBF00E00CBF1AE3A0E0E8
:10074000B0E2E0E5F1E901E00BBF02C007900D92D5
:10075000A63DB107D9F71CE3A6EDBAE301C01D928F
:10076000A33CB107E1F70E9472BD0C94A6C80C949B
:1007700000006150710981099109D9F7089580E05D
:10078000089580E0089580E0089580E0089580E075
:10079000089580E0089580E008958091D921909196
:1007A000DA212091DA3A3091DB3A821B930B0196E1
:1007B0008093DA3A9093DB3A80E008951092DA3A27
:1007C0001092DB3A80E0089580E0089580918923BB
:1007D00090918A23A0918B23B0918C23AC01BD0111
:1007E000415051096109710944365105610571058E
:1007F00058F4AC01BD0140515109610971094135FD
:1008000051056105710550F486E297E29F938F933D
:100810000E9456C20F900F9081E008958136910595
:10082000A105B10558F08156910991E001C0990FD9
:100830008A95EAF79093442580E0089580934425B3
:1008400080E008958CE297E29F938F930E9456C2B6
:100850000F900F9080E008958CE297E29F938F9322
:100860000E9456C20F900F9080E008958CE297E2AC
:100870009F938F930E9456C20F900F9080E008952F
:100880008091DF249091E024A091E124B091E224B2
:100890000A97A105B10540F086E297E29F938F93F6
:1008A0000E9456C20F900F9080E0089580913322ED
:1008B00090913422A0913522B0913622AC01BD0135
:1008C00041505109610971094436510561057105AD
:1008D00058F4AC01BD01405151096109710941351C
:1008E00051056105710550F486E297E29F938F935D
:1008F0000E9456C20F900F9081E0089581369105B5
:10090000A105B10558F08156910991E001C0990FF8
:100910008A95EAF79093442580E0089580934425D2
:1009200080E008958091C3229091C422A091C522B5
:10093000B091C6220297A105B10540F080E497E28C
:100940009F938F930E9456C20F900F9080E008955E
:10095000E5EDF2E283818F9382818F9381818F9382
:1009600080818F93809144251F928F9386E597E233
:100970009F938F930E9456C28DB79EB708968DBFE6
:100980009EBF80E00895E7EEF2E283818F9382813B
:100990008F9381818F9380818F93809144251F92C3
:1009A0008F9385E697E29F938F930E9456C28DB7EF
:1009B0009EB708968DBF9EBF80E00895E9EFF2E2F2
:1009C00083818F9382818F9381818F9380818F9395
:1009D000809144251F928F9384E797E29F938F9392
:1009E0000E9456C28DB79EB708968DBF9EBF80E00D
:1009F0000895EBE0F3E283818F9382818F9381816D
:100A00008F9380818F93809144251F928F9383E8E9
:100A100097E29F938F930E9456C28DB79EB7089618
:100A20008DBF9EBF80E00895E1E4F3E283818F9360
:100A300082818F9381818F9380818F9380914425D0
:100A40001F928F9383E997E29F938F930E9456C2E0
:100A50008DB79EB708968DBF9EBF80E008958091A8
:100A6000FD219091FE21A091FF21B0910022AC01C7
:100A7000BD014150510961097109443651056105B3
:100A8000710558F4AC01BD0140515109610971096A
:100A9000413551056105710550F486E297E29F9357
:100AA0008F930E9456C20F900F9081E00895813677
:100AB0009105A105B10558F08156910991E001C059
:100AC000990F8A95EAF79093442580E008958093E2
:100AD000442580E008958091B5219091B621A091A0
:100AE000B721B091B821AC01BD0141505109610954
:100AF0007109443651056105710558F4AC01BD0119
:100B0000405151096109710941355105610571056E
:100B100050F486E297E29F938F930E9456C20F9003
:100B20000F9081E0089581369105A105B10558F037
:100B30008156910991E001C0990F8A95EAF7909347
:100B4000442580E008958093442580E008958091B5
:100B5000DB3A8F938091DA3A8F9384EA97E29F93FE
:100B60008F930E9456C28091DA3A9091DB3A0196B7
:100B70008093DA3A9093DB3A0F900F900F900F909A
:100B800080E008958091B9209091BA20A091BB2077
:100B9000B091BC20AC01BD014150510961097109FE
:100BA000443651056105710558F4AC01BD01405151
:100BB000510961097109413551056105710550F40B
:100BC00086E297E29F938F930E9456C20F900F90F8
:100BD00081E0089581369105A105B10558F081564F
:100BE000910991E001C0990F8A95EAF79093442505
:100BF00080E008958093442580E00895CF93DF93AB
:100C000000D01F92CDB7DEB7CE010196AA2797FD7F
:100C1000A095BA2F4091B93C5091BA3C411551056D
:100C200011F443EC5CE3662757FD6095762F841B37
:100C3000950BA60BB70BBF93AF939F938F9388EA47
:100C400097E29F938F930E9456C20F900F900F9040
:100C50000F900F900F9080E02496CDBFDEBFDF9104
:100C6000CF9108958091832090918420A091852038
:100C7000B0918620AC01BD01415051096109710953
:100C8000443651056105710558F4AC01BD01405170
:100C9000510961097109413551056105710550F42A
:100CA00086E297E29F938F930E9456C20F900F9017
:100CB00081E0089581369105A105B10558F081566E
:100CC000910991E001C0990F8A95EAF79093442524
:100CD00080E008958093442580E00895682F8091F6
:100CE0000725909108250E949E9880E090E0089545
:100CF000CF93C091442581E08093442540E060E299
:100D000086E09CE30E94335C84E08093442540E0CD
:100D100060E286E09CE30E94335CC0934425CF915F
:100D20000895CF930E947806C09144258C2F83703C
:100D300011F081E001C084E08093442541E060E24D
:100D400086E09CE30E94335CC0934425CF910895D4
:100D50000E9491060E94780680E008950E94E8AC07
:100D600080E008958DEB97E20E9470C20E94E8AC8B
:100D700080E008958F929F92AF92BF92CF92DF92C0
:100D8000EF92FF920F931F930E9491068090AD23E4
:100D90009090AE23A090AF23B090B0239401A50112
:100DA00060E070E080E090E000E20E9455BF80903B
:100DB000BF239090C023A090C123B090C2232829C4
:100DC000E32FE929042F0A29152F1B29E22EFE2ED5
:100DD0009B01AC0160919B2382EF9BE30E9457280B
:100DE000882341F086E297E29F938F930E9456C238
:100DF0000F900F900E94780680E01F910F91FF9056
:100E0000EF90DF90CF90BF90AF909F908F9008951C
:100E10000E9491066091D12382EF9BE30E94EF38FC
:100E2000882341F086E297E29F938F930E9456C2F7
:100E30000F900F900E94780680E008950F931F9303
:100E40000E94910600914F2410915024209151242A
:100E50003091522440919B2350919C2360919D237B
:100E600070919E2382EF9BE30E941A2C892B41F004
:100E700086E297E29F938F930E9456C20F900F9045
:100E80000E94780680E01F910F9108950F931F93A1
:100E90000E949106009161241091622420916324A4
:100EA0003091642440919B2350919C2360919D2319
:100EB00070919E2382EF9BE30E94662B892B41F069
:100EC00086E297E29F938F930E9456C20F900F90F5
:100ED0000E94780680E01F910F9108950F931F9351
:100EE0000E9491060091732410917424209175241E
:100EF0003091762440919B2350919C2360919D23B7
:100F000070919E2382EF9BE30E94C02B892B41F0BE
:100F100086E297E29F938F930E9456C20F900F90A4
:100F20000E94780680E01F910F9108950F931F9300
:100F30000E94910600918524109186242091872497
:100F40003091882440919B2350919C2360919D2354
:100F500070919E2382EF9BE30E94A82A892B41F087
:100F600086E297E29F938F930E9456C20F900F9054
:100F70000E94780680E01F910F9108950E949106CB
:100F8000409197246091892382EF9BE30E94C639A8
:100F9000882341F086E297E29F938F930E9456C286
:100FA0000F900F900E94780680E008950E949106AD
:100FB0004091A9246091892382EF9BE30E948F3A9C
:100FC000882341F086E297E29F938F930E9456C256
:100FD0000F900F900E94780680E008950E9491067D
:100FE0006091BB2482EF9BE30E94563B882341F033
:100FF00086E297E29F938F930E9456C20F900F90C4
:101000000E94780680E008950F931F930E94910636
:101010000091CD241091CE242091CF243091D02462
:1010200040919B2350919C2360919D2370919E231E
:1010300082EF9BE30E94742C892B41F086E297E2B9
:101040009F938F930E9456C20F900F900E94780634
:1010500080E01F910F910895CF92DF92EF92FF925F
:101060000F931F930E949106C090F124D090F22418
:10107000E090F324F090F4240091DF241091E02418
:101080002091E1243091E22440919B2350919C23B4
:1010900060919D2370919E2382EF9BE30E94743F99
:1010A000892B41F086E297E29F938F930E9456C26C
:1010B0000F900F900E94780680E01F910F91FF9093
:1010C000EF90DF90CF900895CF93DF93C7E7D3E2FF
:1010D000488159816A817B8184EF9BE30E94187B60
:1010E0008B818F938A818F9389818F9388818F934E
:1010F000809144251F928F9385EE97E29F938F9363
:101100000E9456C28DB79EB708968DBF9EBF80E0E5
:10111000DF91CF910895CF938091A3219091A42145
:10112000A091A521B091A621C0914425892B8A2B9D
:101130008B2BE9F1C0FF0DC081E0809344250E9414
:10114000910661E070E082EF9BE30E945E520E9494
:101150007806C1FF0DC081E0809344250E9491066E
:1011600061E070E082EF9BE30E945E520E9478068D
:10117000C2FF0DC084E0809344250E94910661E087
:1011800070E082EF9BE30E945E520E947806C3FFEC
:101190004AC084E0809344250E94910661E070E09B
:1011A00082EF9BE30E945E520E9478063CC0C0FF23
:1011B0000DC081E0809344250E94910660E070E0BC
:1011C00082EF9BE30E945E520E947806C1FF0DC031
:1011D00081E0809344250E94910660E070E082EFF8
:1011E0009BE30E945E520E947806C2FF0DC084E01D
:1011F000809344250E94910660E070E082EF9BE3BB
:101200000E945E520E947806C3FF0DC084E0809366
:1012100044250E94910660E070E082EF9BE30E940B
:101220005E520E947806C093442580E0CF910895D5
:1012300087EF97E20E9470C240914D2069E080E004
:1012400090E20C9432BC4091442550E080E090E064
:1012500061E070E09A01082E02C0359527950A9446
:10126000E2F720FF15C0FC01EB5CFA4D2081E22F74
:10127000E695E695E69530E2E39FF0011124FA5FEA
:101280002770DB0102C0AA0FBB1F2A95E2F7A783D4
:10129000019684309105F1F6089560915323709181
:1012A0005423809155239091562360387105810510
:1012B000910528F086E297E20E9470C221C086EF75
:1012C0009BE30E94FB640E942309809156238F9325
:1012D000809155238F93809154238F938091532332
:1012E0008F93809144251F928F9381E098E29F9382
:1012F0008F930E9456C28DB79EB708968DBF9EBF32
:1013000080E008951F920F920FB60F9211240BB632
:101310000F922F933F934F935F936F937F938F938E
:101320009F93AF93BF93EF93FF9320E040E050E093
:1013300060E070E089E095E20E948C96FF91EF9169
:10134000BF91AF919F918F917F916F915F914F91DD
:101350003F912F910F900BBE0F900FBE0F901F90DB
:1013600018951F920F920FB60F9211240BB60F9281
:101370002F933F934F935F936F937F938F939F939D
:10138000AF93BF93EF93FF9389E095E20E94FD96A0
:10139000FF91EF91BF91AF919F918F917F916F914D
:1013A0005F914F913F912F910F900BBE0F900FBE09
:1013B0000F901F901895CF93DF938091500082601B
:1013C000809350008091510081FFFCCFD8EDD4BFB5
:1013D000C1E0C093400065ED7CED82E390E00E94A7
:1013E000B903F894D4BFC093960062E088EB95E20D
:1013F0000E942A8DC82F64E08FE795E20E94418EFB
:10140000C80F23E641E06CED7AE388E09CE30E949C
:101410005EAD23E641E060E47BE38FE89CE30E945D
:101420005EAD61E089E095E20E943097D82F62E0DE
:1014300087EE95E20E943A838C0FC82FCD0F97E07C
:101440009093A2008091A20080688093A200909364
:10145000A20078940E9491AC8AE00E942AAC20E11C
:1014600048E060911D2580912125909122250E94C0
:1014700049A720E149E060911E25809123259091A4
:1014800024250E9449A720E14AE060911F25809110
:101490002525909126250E9449A720E14BE06091E7
:1014A000202580912725909128250E9449A78C2FDF
:1014B000DF91CF91089580E008950E94E8AC80E02C
:1014C0000895EF92FF920F931F93CF93DF9386EFD0
:1014D0009BE30E948D64C82F0E94230984EF9BE345
:1014E0000E948D7BC80FF090442500E010E0EE24B0
:1014F000E3948091442590E0002E02C09595879555
:101500000A94E2F780FF19C08E2D002E01C0880FCB
:101510000A94EAF78093442540E061E086E09CE38A
:101520000E94335CD82F40E060E886E09CE30E9494
:10153000335C8D0FC80FF09244250F5F1F4F0430AE
:101540001105B9F68C2FDF91CF911F910F91FF906C
:10155000EF9008950E94610A882341F086E297E2A5
:101560009F938F930E9456C20F900F9080E0089532
:101570000E94610A80E0089580E008950E94610A57
:1015800080E0089584E198E20E9470C286E298E2C9
:101590009F938F938CE298E29F938F930E9456C201
:1015A00081E498E29F938F9385E598E29F938F93D0
:1015B0000E9456C28BE698E29F938F938FE798E242
:1015C0009F938F930E9456C28DB79EB70C968DBF86
:1015D0009EBF80E008950E94C20A882341F086E2FF
:1015E00097E29F938F930E9456C20F900F9080E0D6
:1015F000089580E0089580E00895CF92DF92EF9201
:10160000FF920F931F93CF93DF931F921F92CDB73B
:10161000DEB79FEF980F9F3008F040C080934425BD
:1016200081E2E82E85E2F82E00E010E098E9C92E6C
:1016300098E2D92E8091442590E0002E02C0959525
:1016400087950A94E2F780FF1FC0AE014F5F5F4F9E
:10165000F801E35EFA4D6081F701808191810E947B
:10166000F1A78A818F9389818F93C8018F5B9F4FE8
:101670009F938F93DF92CF920E9456C20F900F904C
:101680000F900F900F900F900F5F1F4FF2E0EF0E33
:10169000F11C0430110571F680E001C081E00F906B
:1016A0000F90DF91CF911F910F91FF90EF90DF90FE
:1016B000CF900895809144250E94FD0A882341F02F
:1016C00086E297E29F938F930E9456C20F900F90ED
:1016D00080E00895CF92DF92EF92FF920F931F93D5
:1016E000CF93DF938B3068F5062F06950695069508
:1016F00090E2099F800111241A5F677021E030E0B9
:101700007901062E01C0EE0C0A94EAF7CE2CF801FE
:10171000E682C82FD0E0CC0FDD1FD12C8D2D90E0BC
:101720008C179D0754F465E176E185E090E00E9416
:10173000B903F801C782D394F1CFF801E68280E0C3
:1017400001C081E0DF91CF911F910F91FF90EF9049
:10175000DF90CF90089566E080915B210E946A0B34
:10176000882341F086E297E29F938F930E9456C2AE
:101770000F900F9080E00895CF93DF931F92CDB725
:10178000DEB79FEF980F9F30A8F5809344250E9405
:10179000910661E08091F23B9091F33B0E94D791DA
:1017A000BE016F5F7F4F82EF9BE30E94DA2260E011
:1017B0008091F23B9091F33B0E94D7916AE182EFD6
:1017C0009BE30E94E7219F938F938BEA98E29F937C
:1017D0008F930E9456C289811F928F9381ED98E268
:1017E0009F938F930E9456C20E947806CDBFDEBFA2
:1017F00080E001C081E00F90DF91CF9108950E94B9
:101800009106809144250E94BC0B882341F086E21A
:1018100097E29F938F930E9456C20F900F900E9461
:10182000780680E00895CF92DF92EF92FF920F93B7
:101830001F93CF93DF931F92CDB7DEB79FEF980F23
:101840009F3008F03EC0809344250E949106C12C31
:10185000D12C0AEE18E281EBE82E89E2F82E6C2DED
:1018600080E8C816D10409F18C2D837061F4DF92F1
:10187000CF921F930F9369830E9456C20F900F90CF
:101880000F900F90698182EF9BE30E94E7219F9365
:101890008F93FF92EF920E9456C28FEFC81AD80A18
:1018A0000F900F900F900F90DACF8AE090E00E9497
:1018B0006AC282EF9BE30E94B6210E94780680E014
:1018C00001C081E00F90DF91CF911F910F91FF90A8
:1018D000EF90DF90CF9008950E949106809144256B
:1018E0000E94130C882341F086E297E29F938F9326
:1018F0000E9456C20F900F900E94780680E00895D3
:101900000E949106809144250E94130C882341F087
:1019100086E297E29F938F930E9456C20F900F909A
:101920000E94780680E00895BF92CF92DF92EF92F6
:10193000FF920F931F93CF93DF931F92CDB7DEB724
:10194000663008F048C09FEF980F9F3008F043C002
:101950007A01D62E182F809344250E94910660E0CC
:1019600082EF9BE30E94934500E084E0C82EBB24F5
:10197000B394402F6D2D82EF9BE30E94B93C6AE641
:101980007EE689E190E00E94B903143018F4B09229
:10199000442502C0C0924425AE014F5F5F4F60E412
:1019A00086E09CE30E945B5FF70190818981892B2F
:1019B00080831093442582EF9BE30E94173D0F5FC5
:1019C0000830B9F661E082EF9BE30E9493450E94E4
:1019D000780680E001C081E00F90DF91CF911F91E8
:1019E0000F91FF90EF90DF90CF90BF900895CF932D
:1019F0009FEF980F9F3008F04AC0809344250E94C3
:101A0000910661E082EF9BE30E9493456FE082EFD5
:101A10009BE30E941146C0E041E06C2F82EF9BE304
:101A20000E94384440E06C2F82EF9BE30E94A74263
:101A3000CF5FC43089F761E082EF9BE30E94C2442C
:101A400060E082EF9BE30E94114660E082EF9BE33F
:101A50000E94934541E060E082EF9BE30E945222A6
:101A600041E061E082EF9BE30E945222C0E06C2FD4
:101A700082EF9BE30E94FC33CF5FC430C1F782EF5B
:101A80009BE30E94D1340E94780680E001C081E08F
:101A9000CF9108950E949106809144250E94F70CF1
:101AA000882341F086E297E29F938F930E9456C26B
:101AB0000F900F900E94780680E008959FEF980F96
:101AC0009F3040F48093442564E475E286E09CE313
:101AD0000C94661781E00895CF939FEF980F9F3085
:101AE00068F480934425C0E06C2F82EF9BE30E9452
:101AF0009518CF5FC830C1F780E001C081E0CF9179
:101B000008959FEF980F9F3040F48093442582EF13
:101B10009BE30E94811980E0089581E00895AB0164
:101B2000BC0187EA9CE30C941A6260919F22709139
:101B3000A02280918D2290918E220E948F0D882369
:101B400041F086E297E29F938F930E9456C20F90D6
:101B50000F9080E008953F924F925F926F927F9234
:101B60008F929F92AF92BF92CF92DF92EF92FF92AD
:101B70000F931F93CF93DF9300D01F92CDB7DEB7A3
:101B80009FEF980F9F3008F0A1C0382E8093442516
:101B9000E12CF12C682E712C86E3482E89E2582E18
:101BA00090E5C92E99E2D92E24E0A22E29E2B22E88
:101BB0003BE1832E39E2932EC3010E2C02C0959592
:101BC00087950A94E2F780FF77C081E090E00E2CC1
:101BD00002C0880F991F0A94E2F7809344259F93CF
:101BE0008F93A3EFB8E2BF93AF930E9456C28E01CA
:101BF0000F5F1F4F9E012E5F3F4FAE014D5F5F4F46
:101C0000BE016C5F7F4F86E09CE30E94A7608C81E1
:101C10001F928F93A7E0B9E2BF93AF930E9456C281
:101C20008B811F928F93AEE1B9E2BF93AF930E9475
:101C300056C28A811F928F935F924F920E9456C222
:101C400089811F928F93DF92CF920E9456C29E018C
:101C50002E5F3F4FAE014D5F5F4FBE016C5F7F4F08
:101C600085E99CE30E94A7608C811F928F93BF92AD
:101C7000AF920E9456C28B811F928F939F928F9238
:101C80000E9456C28A811F928F9383E399E29F93A9
:101C90008F930E9456C2CDBFDEBF89811F928F9362
:101CA0008DE499E29F938F930E9456C2309244250F
:101CB0000F900F900F900F90BFEFEB1AFB0A84E08C
:101CC000E816F10409F078CF80E001C081E02496A5
:101CD000CDBFDEBFDF91CF911F910F91FF90EF90AD
:101CE000DF90CF90BF90AF909F908F907F906F903C
:101CF0005F904F903F900895809144250E94AB0DD6
:101D0000882341F086E297E29F938F930E9456C208
:101D10000F900F9080E008958F929F92AF92BF92A4
:101D2000CF92DF92EF92FF920F931F93CF93DF93A7
:101D30006B017C019090442500E010E0C0E0A92CEC
:101D4000B12C88248394C501002E02C095958795F7
:101D50000A94E2F780FFBBC0882D002E01C0880FD7
:101D60000A94EAF78093442540E060E185E99CE32A
:101D70000E94335CD82F40E060E285E99CE30E943A
:101D8000335C8D0FC80F40E060E485E99CE30E945E
:101D9000335CC80F40E060E885E99CE30E94335C57
:101DA000C80F81E2C8168AEAD80684E4E806F1047E
:101DB00040F040E060E185E99CE30E94335C41E053
:101DC00073C081ECC81686ECD8068DE2E806F104F3
:101DD00040F040E060E185E99CE30E94335C40E034
:101DE0003BC081E6C81683EED80686E1E806F1041A
:101DF00070F041E060E185E99CE30E94335C41E0E2
:101E000060E285E99CE30E94335C41E053C081EBD2
:101E1000C81681E7D8068BE0E806F10470F041E0CF
:101E200060E185E99CE30E94335C40E060E285E983
:101E30009CE30E94335C41E015C089EDC81688EB35
:101E4000D80685E0E806F104C8F041E060E185E9E4
:101E50009CE30E94335C41E060E285E99CE30E94E0
:101E6000335C40E060E485E99CE30E94335C41E040
:101E700060E885E99CE30E94335C27C040E060E1B4
:101E800085E99CE3C114D104E104F10451F00E94FE
:101E9000335C40E060E285E99CE30E94335C41E012
:101EA00009C00E94335C40E060E285E99CE30E9447
:101EB000335C40E060E485E99CE30E94335C40E0F1
:101EC00060E885E99CE30E94335C909244250F5FB3
:101ED0001F4F0430110509F036CF8C2FDF91CF91C1
:101EE0001F910F91FF90EF90DF90CF90BF90AF9038
:101EF0009F908F900895DF92EF92FF920F931F9320
:101F0000CF93DF938FE0809344252CEF3BE341E0B8
:101F10005CE36FE775E282EF9BE30E945E4CC82FA3
:101F20002DE835E24CEF5BE361E07CE38AEF9BE375
:101F30000E94B119C80FD09144252CEF3BE341E03A
:101F40005CE36AEC75E286E09CE30E94795BC80F73
:101F50002CEF3BE341E05CE368ED75E285E99CE34F
:101F60000E94795BC80F09EA15E22CEF3BE341E0E0
:101F70005CE365EF74E286EF9BE30E941164C80F97
:101F8000D09344252BE935E24CEF5BE361E07CE341
:101F900084EF9BE30E94C666C80F6AEF7BE387EA83
:101FA0009CE30E94FB62E12CF12C0FE010E0D1E0F9
:101FB000C8010E2C02C0959587950A94E2F780FF20
:101FC00098C08D2F0E2C01C0880F0A94EAF78093D9
:101FD000442586E09CE30E94A85BD82E85E99CE31B
:101FE0000E94A85B8D0DC80F40E061E085E99CE38D
:101FF0000E94B55DC80F41E062E085E99CE30E9464
:10200000B55DC80F40E064E085E99CE30E94B55DE2
:10201000C80F40E068E085E99CE30E94B55DC80F09
:1020200040E060E185E99CE30E94B55DC80F40E0B7
:1020300060E285E99CE30E94B55DC80F40E060E482
:1020400085E99CE30E94B55DC80F40E060E885E942
:102050009CE30E94B55DC80F40E061E086E09CE330
:102060000E94B55DC80F40E060E886E09CE30E94F6
:10207000B55DC80F41E061E085E99CE30E94335CF7
:10208000C80F41E064E085E99CE30E94335CC80F1F
:1020900041E068E085E99CE30E94335CC80F41E0C1
:1020A00060E185E99CE30E94335CC80F41E060E297
:1020B00085E99CE30E94335CC80F40E060E485E959
:1020C0009CE30E94335CC80F41E060E885E99CE333
:1020D0000E94335CC80F41E061E086E09CE30E940F
:1020E000335CC80F41E060E886E09CE30E94335C0B
:1020F000C80F8FEFE81AF80A84E0E816F10409F037
:1021000057CF00E010E085E0E82EF12CDD24D394D9
:10211000C701002E02C0959587950A94E2F780FFCB
:102120002CC08D2D002E01C0880F0A94EAF78093F1
:10213000442540E064E086E09CE30E94B55DD82F32
:1021400040E060E286E09CE30E94B55D8D0FC80F21
:1021500041E060E486E09CE30E94B55DC80F41E089
:1021600064E086E09CE30E94335CC80F40E060E2DC
:1021700086E09CE30E94335CC80F0F5F1F4F043062
:10218000110531F6E12CF12C0AE010E0DD24D394A6
:10219000C8010E2C02C0959587950A94E2F780FF3E
:1021A00063C08D2D0E2C01C0880F0A94EAF780932E
:1021B000442540E068E086E09CE30E94B55DD82FAE
:1021C00040E064E086E09CE30E94B55D8D0FC80F9F
:1021D00040E060E486E09CE30E94B55DC80F40E00B
:1021E00060E286E09CE30E94B55DC80F40E060E1DC
:1021F00086E09CE30E94B55DC80F41E060E486E0A4
:102200009CE30E94335CC80F60E472E48FE090E0CE
:102210000E94B90341E068E086E09CE30E94335CE1
:10222000C80F40E060E286E09CE30E94335CC80F88
:1022300041E060E186E09CE30E94335CC80F41E02E
:1022400064E086E09CE30E94335CC80F40E060E4F9
:1022500086E09CE30E94335CC80F41E060E486E0C6
:102260009CE30E94335CC80F8FEFE81AF80A84E001
:10227000E816F10409F08CCF8FE08093442500E04C
:1022800010E08091442590E0002E02C0959587953E
:102290000A94E2F780FF07C041E068E085E99CE32B
:1022A0000E94335CC80F0F5F1F4F0430110549F7C0
:1022B00080E18093050684EF9BE30E940367C80FCB
:1022C0008AEF9BE30E94E019C80F86EF9BE30E9410
:1022D0005B64C80F0E94230981E0809344250E941B
:1022E000910682EF9BE30E949B4CC80F0E947806E8
:1022F00084E0809344250E94910682EF9BE30E9434
:102300009B4CC80F40E06BE178E082EF9BE30E94BA
:10231000D5494FE060E070EA82EF9BE30E94D54927
:102320004AE46EE178E082EF9BE30E94D5494AE4FB
:1023300061E078E082EF9BE30E94D54949E460E0E8
:1023400070E082EF9BE30E94D5494BE467E07EE0BA
:1023500082EF9BE30E94D5494CE460E07FE082EF8E
:102360009BE30E94D5494DE460E073E082EF9BE37C
:102370000E94D5494FE560E271E382EF9BE30E9442
:10238000D54941E566E070E082EF9BE30E94D549C4
:1023900044E560E070E082EF9BE30E94D54947E5A9
:1023A00060E070E082EF9BE30E94D5494AE560E07F
:1023B00070E082EF9BE30E94D54941E661E171E064
:1023C00082EF9BE30E94D5494AE461E078E082EF26
:1023D0009BE30E94D5490E94780600E010E0D1E01E
:1023E0008D2F002E01C0880F0A94EAF780934425B0
:1023F00061E170E081E190E00E948F0DC80F0F5FF6
:102400001F4F0430110561F761E786EF9BE30E94DF
:10241000FB64C80F0E9423098FE08093442584EF5A
:102420009BE30E94D97BC80F60E070E0CB010E9463
:102430008C0E8C0FDF91CF911F910F91FF90EF9039
:10244000DF9008950E947B0F882341F086E297E297
:102450009F938F930E9456C20F900F9080E0089533
:10246000CF93DF939FEF980F9F3008F053C0D82F82
:102470008093442584EF9BE30E94D97BC82F60E0C2
:1024800070E0CB010E948C0EC80F86EF9BE30E9488
:10249000B764C80F0E942309D0FF0DC081E080936C
:1024A00044250E94910640E060E082EF9BE30E9499
:1024B00052220E947806D1FF0DC081E0809344250E
:1024C0000E94910640E061E082EF9BE30E9452226D
:1024D0000E947806D2FF0DC084E0809344250E94BC
:1024E000910640E060E082EF9BE30E9452220E944E
:1024F0007806D3FF11C084E0809344250E949106A2
:1025000040E061E082EF9BE30E9452220E94780645
:102510008C2F03C081E001C08C2FDF91CF910895F3
:10252000809144250E943012882341F086E297E290
:102530009F938F930E9456C20F900F9080E0089552
:10254000CF92DF92EF92FF920F931F93CF93DF937F
:10255000623008F0C0C09FEF980F9F3008F0BBC0FA
:10256000C82F8093442500E010E0D1E0611157C0EE
:102570008091442590E0002E02C0959587950A949D
:10258000E2F780FF1CC08D2F002E01C0880F0A9437
:10259000EAF78093442540E064E086E09CE30E94F3
:1025A000335C40E061E086E09CE30E94335C41E004
:1025B00060E886E09CE30E94335CC09344250F5F93
:1025C0001F4F04301105A1F600E010E0EC2EF12CB5
:1025D000CC24C394D12CC701002E02C095958795B9
:1025E0000A94E2F780FF0EC0C601002E01C0880FDA
:1025F0000A94EAF700FD8695809344250E9491068F
:102600000E9478060F5F1F4F0430110521F7C09319
:10261000442584EF9BE30E948D7B80E05DC0809128
:10262000442590E0002E02C0959587950A94E2F724
:1026300080FF1CC08D2F002E01C0880F0A94EAF77E
:102640008093442541E064E086E09CE30E94335C93
:1026500041E061E086E09CE30E94335C40E060E89A
:1026600086E09CE30E94335CC09344250F5F1F4FBC
:1026700004301105A1F600E010E0EC2EF12CCC2482
:10268000C394D12CC701002E02C0959587950A945A
:10269000E2F780FF0EC0C601002E01C0880F0A9429
:1026A000EAF700FD8695809344250E9491060E94DA
:1026B00078060F5F1F4F0430110521F7C0934425A2
:1026C00084EF9BE30E94D97B60E070E0CB010E9425
:1026D0008C0E80E001C081E0DF91CF911F910F91BE
:1026E000FF90EF90DF90CF90089560914522809108
:1026F00044250E94A012882341F086E297E29F932E
:102700008F930E9456C20F900F9080E00895DF9241
:10271000EF92FF920F931F93CF93DF939FEF980F4A
:102720009F3008F0A6C0D82F8093442561E00E9416
:10273000A01200E010E0C0E0ED2EF12CDD24D394D7
:10274000C701002E02C0959587950A94E2F780FF95
:1027500011C08D2D002E01C0880F0A94EAF78093D6
:10276000442541E061E086E09CE30E94335CC80FB1
:10277000D09344250F5F1F4F0430110509F700E087
:1027800010E0FF24F3948091442590E0002E02C0D5
:10279000959587950A94E2F780FF11C08F2D002E42
:1027A00001C0880F0A94EAF78093442561E170E044
:1027B00081E190E00E948F0DC80FD09344250F5FF8
:1027C0001F4F04301105F9F6D093442561E786EFD9
:1027D0009BE30E94FB64C80F0E94230984EF9BE3E4
:1027E0000E94D97BC80F60E070E0CB010E948C0E84
:1027F000C80FD0FF0DC081E0809344250E94910650
:1028000041E060E082EF9BE30E9452220E94780642
:10281000D1FF0DC081E0809344250E94910641E0E4
:1028200061E082EF9BE30E9452220E947806D2FF71
:102830000DC084E0809344250E94910641E060E051
:1028400082EF9BE30E9452220E947806D3FF0DC0C4
:1028500084E0809344250E94910641E061E082EF8C
:102860009BE30E9452220E947806D09344258C2F2D
:1028700001C081E0DF91CF911F910F91FF90EF9008
:10288000DF900895809144250E948713882341F0AA
:1028900086E297E29F938F930E9456C20F900F900B
:1028A00080E00895EF92FF920F931F93CF93DF93F1
:1028B0009FEF960F9F3008F095C0C62F6093442578
:1028C000E62EF12C882319F100E010E0D1E0C701D9
:1028D000002E02C0959587950A94E2F780FF10C0FC
:1028E0008D2F002E01C0880F0A94EAF780934425AB
:1028F00041E060E886E09CE30E94335CC09344259D
:102900000F5F1F4F0430110511F7D1E02BC084EF8A
:102910009BE30E94D97B60E070E0CB010E948C0EAB
:1029200000E010E0D1E0C701002E02C09595879528
:102930000A94E2F780FF10C08D2F002E01C0880F8F
:102940000A94EAF78093442540E060E886E09CE33F
:102950000E94335CC09344250F5F1F4F0430110564
:1029600011F7D0E0C0FF0DC081E0809344250E94A4
:1029700091064D2F60E082EF9BE30E9452220E945D
:102980007806C1FF0DC081E0809344250E94910626
:102990004D2F61E082EF9BE30E9452220E94780655
:1029A000C2FF0DC084E0809344250E9491064D2F04
:1029B00060E082EF9BE30E9452220E9478068C2FF7
:1029C0008870C3FF10C084E0809344250E94910664
:1029D0004D2F61E082EF9BE30E9452220E94780615
:1029E00080E001C081E0DF91CF911F910F91FF90B6
:1029F000EF9008958091912190919221A09193213F
:102A0000B091942160914425892B8A2B8B2B21F046
:102A100081E00E94521403C080E00E94521480E0C2
:102A200008954F925F926F927F928F929F92AF9292
:102A3000BF92CF92DF92EF92FF920F931F93CF93AB
:102A4000DF93C0906922D0906A22E0906B22F090D0
:102A50006C2220917B2230917C2240917D225091EA
:102A60007E22A8EEB3E00E9419BE2B013C018090AB
:102A7000D5229090D622C091E722D091E8221091E1
:102A8000F9220091412381E0C81685E8D8068FEC31
:102A9000E806F10428F086E297E20E9470C24DC079
:102AA00084EF9BE30E94D97BC701B6010E948C0E84
:102AB00041E064E085E99CE30E94335C61E270E000
:102AC00080E090E00E94B90381E098E1C91696EC9D
:102AD000D90698E0E906F10408F080E08F930F939F
:102AE0001F93DF93CF9382E0A82EB12CC12CD12C61
:102AF000E12CF12C8701A301920160E084EF9BE3BC
:102B00000E94CB6880916C228F9380916B228F936F
:102B100080916A228F93809169228F9380914425BE
:102B20001F928F9388E699E29F938F930E9456C2DB
:102B30008DB79EB70D968DBF9EBF80E0DF91CF9180
:102B40001F910F91FF90EF90DF90CF90BF90AF90CB
:102B50009F908F907F906F905F904F90089584EF3B
:102B60009BE30E94D97B60E070E0CB010E948C0E59
:102B7000809144251F928F938AE799E29F938F93C8
:102B80000E9456C20F900F900F900F9080E0089512
:102B9000CF93DF93CFE2D3E2688179818A819B81F1
:102BA0000E948C0E8B818F938A818F9389818F9362
:102BB00088818F93809144251F928F9387E899E2B3
:102BC0009F938F930E9456C28DB79EB708968DBF74
:102BD0009EBF80E0DF91CF910895CF938091A72091
:102BE0009091A820A091A920B091AA20892B8A2B8E
:102BF0008B2B29F084EF9BE30E94537B0BC084EF67
:102C00009BE30E94D97BC82F60E070E0CB010E945B
:102C10008C0E8C0F882341F086E297E29F938F936E
:102C20000E9456C20F900F9080E0CF91089580E0EF
:102C300008950E9491064FEF5FEF6091F52382EFB8
:102C40009BE30E94054A882341F086E297E29F9326
:102C50008F930E9456C20F900F900E94780680E0DA
:102C600008958091072490910824A0910924B0919F
:102C70000A2483309105A105B10598F084309105AF
:102C8000A105B10571F00897A105B10551F086E2E3
:102C900097E29F938F930E9456C20F900F9081E00E
:102CA00008950E9491066091072482EF9BE30E94A1
:102CB0009F290E94780680E00895CF93DF931F92AA
:102CC000CDB7DEB78091192490911A24A0911B24CE
:102CD000B0911C240697A105B10550F086E297E259
:102CE0009F938F930E9456C20F900F9081E018C05F
:102CF0000E949106AE014F5F5F4F60911924809151
:102D000044250E94940C882341F086E297E29F9329
:102D10008F930E9456C20F900F900E94780680E019
:102D20000F90DF91CF91089580E0089580E008959D
:102D3000CF93DF93C0912B24D0912C240E94910635
:102D400080913D2490913E24A0913F24B091402455
:102D50000197A105B10539F5AE016091192482EF03
:102D60009BE30E94162280911C248F9380911B2448
:102D70008F9380911A248F93809119248F9386EAE0
:102D800099E29F938F930E9456C2DF93CF9389EB72
:102D900099E29F938F930E9456C28DB79EB70A9671
:102DA0008DBF9EBF26C06091192482EF9BE30E94D5
:102DB000E721EC0180911C248F9380911B248F9339
:102DC00080911A248F93809119248F9327EC39E2F4
:102DD0003F932F930E9456C2DF93CF9389EB99E2E2
:102DE0009F938F930E9456C28DB79EB70A968DBF50
:102DF0009EBF0E94780680E0DF91CF9108950F93E7
:102E00001F938A0129E040E050E20E9453B58150AF
:102E10008A3070F440E069E080E090E20E9432BCC9
:102E20008AED99E29F938F930E9456C20F900F9064
:102E300080E01F910F910895EF92FF920F931F93DF
:102E4000CF93DF930097D1F161157105B9F18B0133
:102E50007C0182E597E30E9470C286E697E30E94B8
:102E600070C2C0E0D0E040E0BE01C8010E94551C25
:102E700041E0BE01C8010E94551CBE01C7010E946D
:102E8000BA1C2F96CF3F8FE0D80769F742E0BE010A
:102E9000C8010E94551C43E0BE01C8010E94551C98
:102EA000BE01C7010E94BA1C2F97CE31D10571F720
:102EB0008AE090E00E946AC280E001C081E0DF9178
:102EC000CF911F910F91FF90EF900895BF92CF92F5
:102ED000DF92EF92FF920F931F93CF93DF9300D077
:102EE0001F92CDB7DEB7009709F411C16B017C01C9
:102EF0008FE0B82EFB01B08240E061E0C7010E9484
:102F0000B55D40E062E0C7010E94B55D40E064E06D
:102F1000C7010E94B55D40E068E0C7010E94B55D51
:102F200040E060E1C7010E94B55D40E060E2C7019A
:102F30000E94B55D40E060E4C7010E94B55D40E0DD
:102F400060E8C7010E94B55D40E061E0C7010E94F2
:102F5000335C40E062E0C7010E94335C40E064E023
:102F6000C7010E94335C40E068E0C7010E94335C07
:102F700040E060E1C7010E94335C40E060E2C701CD
:102F80000E94335C40E060E4C7010E94335C40E093
:102F900060E8C7010E94335C85E0F601808341E070
:102FA00061E0C7010E94335C41E064E0C7010E9418
:102FB000335C41E060E1C7010E94335C41E060E4C2
:102FC000C7010E94335C8AE0F601808341E062E041
:102FD000C7010E94335C41E068E0C7010E94335C96
:102FE00041E060E2C7010E94335C41E060E8C70154
:102FF0000E94335C81E0F60180838E010F5F1F4FDA
:103000009E012E5F3F4FAE014D5F5F4FBE016C5F73
:103010007F4FC7010E94A76089811F928F938A8189
:103020001F928F938B811F928F938C811F928F930E
:103030008AE797E39F938F930E9456C282E0F6013E
:1030400080839E012E5F3F4FAE014D5F5F4FBE01FB
:103050006C5F7F4FC7010E94A76089811F928F9389
:103060008A811F928F938B811F928F938C811F92E5
:103070008F9388EA97E39F938F930E9456C284E0D0
:10308000F60180839E012E5F3F4FAE014D5F5F4F83
:10309000BE016C5F7F4FC7010E94A76089811F92AC
:1030A0008F938A811F928F938B811F928F938C8134
:1030B0001F928F9386ED97E39F938F930E9456C242
:1030C00088E0F60180839E012E5F3F4FAE014D5F89
:1030D0005F4FBE016C5F7F4FC7010E94A76089816F
:1030E0001F928F938A811F928F938B811F928F9350
:1030F0008C811F928F9384E098E39F938F930E941B
:1031000056C2F601B082CDBFDEBF80E001C081E0D3
:103110002496CDBFDEBFDF91CF911F910F91FF901D
:10312000EF90DF90CF90BF9008952F923F925F92E3
:103130006F927F928F929F92AF92BF92CF92DF92C7
:10314000EF92FF920F931F93CF93DF931F92CDB710
:10315000DEB7009709F4C1C0683008F0BEC0562E33
:103160003C01AE014F5F5F4F0E94C33300E010E0AF
:1031700042E2242E49E3342E51ECE52E58E3F52E9D
:1031800061E9C62E68E3D62E74E6A72E78E3B72E43
:10319000E2E38E2EE8E39E2E898190E0002E02C0AD
:1031A000959587950A94E2F780FF3CC0802F90E0C8
:1031B000FC013197E730F10548F58827EC50FF4FC7
:1031C0008F4F0C944DBF1F925F929F928F9224C09D
:1031D0001F925F92BF92AF921FC01F925F92DF92C9
:1031E000CF921AC01F925F92FF92EF9215C01F926A
:1031F0005F92A0EFB8E30EC01F925F923F922F92B2
:103200000BC01F925F92A4E5B9E304C01F925F92C6
:10321000A5E8B9E3BF93AF930E9456C20F900F90F9
:103220000F900F900F5F1F4F0830110509F0B4CFBA
:10323000652DC3010E94FC33AE014F5F5F4F652DCA
:10324000C3010E94333400E010E089EE882E89E348
:10325000982E93EBE92E99E3F92E24E4C22E2AE36B
:10326000D22E3DE0A32E3AE3B32E898190E0002ECA
:1032700002C0959587950A94E2F780FF1FC002303F
:1032800071F0033039F0013079F41F925F92BF92F0
:10329000AF920EC01F925F92FF92EF9209C01F92F1
:1032A0005F929F928F9204C01F925F92DF92CF92A3
:1032B0000E9456C20F900F900F900F900F5F1F4FFC
:1032C0000430110591F6652DC3010E946B348AE02C
:1032D00090E00E946AC280E001C081E00F90DF911F
:1032E000CF911F910F91FF90EF90DF90CF90BF9003
:1032F000AF909F908F907F906F905F903F902F90B6
:1033000008950F931F93CF93DF931F92CDB7DEB72E
:10331000009701F18C01BE016F5F7F4F0E94A234C4
:10332000898183FF04C089E69AE30E9470C2898183
:1033300082FF04C08FE89AE30E9470C2898180FFF7
:1033400004C085EB9AE30E9470C2C8010E94D13488
:1033500080E001C081E00F90DF91CF911F910F912C
:103360000895CF93DF93CDB7DEB72897CDBFDEBFEB
:1033700089839A836B837C834D835E832F83388715
:1033800089819A81009711F481E014C089819A8122
:103390002F813885FC01208331838B819C81809330
:1033A000A43B9093A53B8D819E818093A63B9093F7
:1033B000A73B80E02896CDBFDEBFDF91CF91089577
:1033C000CF93DF931F921F92CDB7DEB789839A8385
:1033D00089819A81009711F481E0B0C02091A43BCB
:1033E0003091A53B8091A63B9091A73B41E0B9016C
:1033F0000E94601F89819A81FC0180819181FC017A
:10340000208131814091A43B5091A53B6091A63B26
:103410007091A73B89819A81FC0180819181F9019A
:1034200019952091A43B3091A53B8091A63B9091AA
:10343000A73B40E0B9010E94252089819A81FC01C7
:1034400080819181FC01208131814091A43B509188
:10345000A53B6091A63B7091A73B89819A81FC01B5
:1034600080819181F90119956091A43B7091A53BF0
:103470008091A63B9091A73B2FE043E00E94DC1F88
:1034800089819A81FC0180819181FC0120813181B7
:103490004091A43B5091A53B6091A63B7091A73B06
:1034A00089819A81FC0180819181F901199520918E
:1034B000A43B3091A53B8091A63B9091A73B40E077
:1034C00050E0B9010E94DC1E89819A81FC01808153
:1034D0009181FC01208131814091A43B5091A53B19
:1034E0006091A63B7091A73B89819A81FC01808104
:1034F0009181F90119952091A43B3091A53B8091D0
:10350000A63B9091A73BB9010E94251F89819A8112
:10351000FC0180819181FC01208131814091A43B9B
:103520005091A53B6091A63B7091A73B89819A8100
:10353000FC0180819181F901199580E00F900F9035
:10354000DF91CF910895CF93DF931F921F92CDB754
:10355000DEB789839A8389819A81009711F481E08B
:103560006EC089819A810E94E0192091A43B30911C
:10357000A53B8091A63B9091A73B4FEF57E0B90147
:103580000E94DC1E89819A81FC0180819181FC016D
:10359000208131814091A43B5091A53B6091A63B95
:1035A0007091A73B89819A81FC0180819181F90109
:1035B00019952091A43B3091A53B8091A63B909119
:1035C000A73BB9010E94251F89819A81FC01808156
:1035D0009181FC01208131814091A43B5091A53B18
:1035E0006091A63B7091A73B89819A81FC01808103
:1035F0009181F90119956091A43B7091A53B80914F
:10360000A63B9091A73B2FE040E00E94DC1F898100
:103610009A81FC0180819181FC012081318140915E
:10362000A43B5091A53B6091A63B7091A73B89813B
:103630009A81FC0180819181F901199580E00F90B8
:103640000F90DF91CF910895CF93DF931F921F9238
:10365000CDB7DEB789839A8389819A81009711F467
:1036600081E001C080E00F900F90DF91CF9108952D
:10367000CF93DF931F921F92CDB7DEB789839A83D2
:1036800089819A81009711F481E024C06091A43B64
:103690007091A53B8091A63B9091A73B2FE043E022
:1036A0000E94DC1F89819A81FC0180819181FC014B
:1036B000208131814091A43B5091A53B6091A63B74
:1036C0007091A73B89819A81FC0180819181F901E8
:1036D000199580E00F900F90DF91CF910895CF93CF
:1036E000DF931F921F92CDB7DEB789839A838981BA
:1036F0009A81009711F481E024C02091A43B30917D
:10370000A53B8091A63B9091A73B41E0B9010E9467
:103710009E1F89819A81FC0180819181FC01208119
:1037200031814091A43B5091A53B6091A63B7091A3
:10373000A73B89819A81FC0180819181F9011995CA
:1037400080E00F900F90DF91CF910895CF93DF939A
:103750001F921F92CDB7DEB789839A8389819A81A0
:10376000009711F481E024C06091A43B7091A53BC7
:103770008091A63B9091A73B2FE043E00E94DC1F85
:1037800089819A81FC0180819181FC0120813181B4
:103790004091A43B5091A53B6091A63B7091A73B03
:1037A00089819A81FC0180819181F901199580E0DC
:1037B0000F900F90DF91CF910895CF93DF9300D0BA
:1037C00000D0CDB7DEB789839A834B835C836D834A
:1037D0007E8389819A81009711F481E029C06091EC
:1037E000A43B7091A53BE091A63BF091A73B8B8158
:1037F0009C81AD81BE819C01AD01CF010E946320FF
:1038000089819A81FC0180819181FC012081318133
:103810004091A43B5091A53B6091A63B7091A73B82
:1038200089819A81FC0180819181F901199580E05B
:103830002696CDBFDEBFDF91CF910895CF93DF9362
:103840001F921F92CDB7DEB789839A8389819A81AF
:10385000009711F481E024C06091A43B7091A53BD6
:103860008091A63B9091A73B2FE043E00E94DC1F94
:1038700089819A81FC0180819181FC0120813181C3
:103880004091A43B5091A53B6091A63B7091A73B12
:1038900089819A81FC0180819181F901199580E0EB
:1038A0000F900F90DF91CF910895CF93DF93CDB715
:1038B000DEB72597CDBFDEBF89839A836B837C8378
:1038C0004D8389819A81009711F480E04DC08D81EC
:1038D000843010F082E048C06091A43B7091A53B19
:1038E0008091A63B9091A73B4B815C812D810E94EA
:1038F000531E89819A81FC0180819181FC01208184
:1039000031814091A43B5091A53B6091A63B7091C1
:10391000A73B89819A81FC0180819181F9011995E8
:103920002091A43B3091A53B8091A63B9091A73B71
:103930004D81B9010E949E1E89819A81FC0180817E
:103940009181FC01208131814091A43B5091A53BA4
:103950006091A63B7091A73B89819A81FC0180818F
:103960009181F901199580E02596CDBFDEBFDF91E9
:10397000CF910895CF93DF9300D01F92CDB7DEB7DC
:1039800089839A836B837C8389819A81009711F460
:1039900081E047C02091A43B3091A53B8091A63B9C
:1039A0009091A73B4B815C81B9010E94DC1E89810B
:1039B0009A81FC0180819181FC01208131814091BB
:1039C000A43B5091A53B6091A63B7091A73B898198
:1039D0009A81FC0180819181F90119952091A43B84
:1039E0003091A53B8091A63B9091A73BB9010E94E5
:1039F000251F89819A81FC0180819181FC012081B0
:103A000031814091A43B5091A53B6091A63B7091C0
:103A1000A73B89819A81FC0180819181F9011995E7
:103A200080E02496CDBFDEBFDF91CF910895CF9384
:103A3000DF9300D0CDB7DEB789839A836B8389810A
:103A40009A81009711F481E033C08B81843010F0AB
:103A500082E02EC08B81282F30E081E090E002C010
:103A6000880F991F2A95E2F7282F6091A43B709147
:103A7000A53B8091A63B9091A73B40E00E94DC1FB4
:103A800089819A81FC0180819181FC0120813181B1
:103A90004091A43B5091A53B6091A63B7091A73B00
:103AA00089819A81FC0180819181F901199580E0D9
:103AB0002396CDBFDEBFDF91CF910895CF93DF93E3
:103AC0001F921F92CDB7DEB789839A8389819A812D
:103AD000009711F481E024C06091A43B7091A53B54
:103AE0008091A63B9091A73B2FE040E00E94DC1F15
:103AF00089819A81FC0180819181FC012081318141
:103B00004091A43B5091A53B6091A63B7091A73B8F
:103B100089819A81FC0180819181F901199580E068
:103B20000F900F90DF91CF910895CF93DF9300D046
:103B3000CDB7DEB789839A836B8389819A81009799
:103B400011F481E033C08B81843010F082E02EC00C
:103B50008B81282F30E081E090E002C0880F991F10
:103B60002A95E2F7282F6091A43B7091A53B8091A4
:103B7000A63B9091A73B43E00E94DC1F89819A817C
:103B8000FC0180819181FC01208131814091A43B25
:103B90005091A53B6091A63B7091A73B89819A818A
:103BA000FC0180819181F901199580E02396CDBFB8
:103BB000DEBFDF91CF910895CF93DF931F921F92C5
:103BC000CDB7DEB789839A8389819A81009711F4F2
:103BD00081E024C06091A43B7091A53B8091A63BFD
:103BE0009091A73B2FE043E00E94DC1F89819A81DE
:103BF000FC0180819181FC01208131814091A43BB5
:103C00005091A53B6091A63B7091A73B89819A8119
:103C1000FC0180819181F901199580E00F900F904E
:103C2000DF91CF910895CF93DF9300D0CDB7DEB76A
:103C300089839A836B8389819A81009711F481E04B
:103C40002CC08B81813029F08B81882311F082E098
:103C500024C02091A43B3091A53B8091A63B90913C
:103C6000A73B4B81B9010E94601F89819A81FC01A9
:103C700080819181FC01208131814091A43B509150
:103C8000A53B6091A63B7091A73B89819A81FC017D
:103C900080819181F901199580E02396CDBFDEBF27
:103CA000DF91CF910895CF93DF93CDB7DEB72797FC
:103CB000CDBFDEBF89839A836B837C834D835E8314
:103CC0002F8389819A81FC01108289819A8123E066
:103CD000FC01218389819A8123E0FC01248389816D
:103CE0009A81FC01828193812F81FC01208389814B
:103CF0009A81FC018281938101962D813E813F70E2
:103D0000329522952F7023273F702327FC012083B3
:103D100089819A81FC018281938102962D8122956D
:103D2000207FFC0120838B819C81FC011482000098
:103D30002796CDBFDEBFDF91CF910895CF93DF935C
:103D4000CDB7DEB72597CDBFDEBF89839A836B835E
:103D50007C834D8389819A81FC01108289819A81BB
:103D600023E0FC01218389819A8123E0FC012483E3
:103D700089819A81FC01828193812D812860FC01D7
:103D8000208389819A81FC01828193810196FC01C3
:103D9000108289819A81FC01828193810296FC01C3
:103DA00010828B819C81FC01148200002596CDBF7E
:103DB000DEBFDF91CF910895CF93DF9300D000D085
:103DC000CDB7DEB789839A836B837C834D835E8313
:103DD00089819A81FC01108289819A8123E0FC010A
:103DE000218389819A8123E0FC01248389819A813E
:103DF000FC018281938127E0FC01208389819A81E3
:103E0000FC018281938101962D813E813F70329524
:103E100022952F7023273F702327FC01208389815F
:103E20009A81FC018281938102962D812295207FC7
:103E3000FC0120838B819C81FC011482000026966A
:103E4000CDBFDEBFDF91CF910895CF93DF9300D038
:103E50001F92CDB7DEB789839A836B837C83898178
:103E60009A81FC01108289819A8123E0FC012183DF
:103E700089819A8123E0FC01248389819A81FC0154
:103E8000828193812FE0FC01208389819A81FC014A
:103E9000828193810196FC01108289819A81FC01C3
:103EA000828193810296FC0110828B819C81FC01AE
:103EB000148200002496CDBFDEBFDF91CF9108951C
:103EC000CF93DF93CDB7DEB72597CDBFDEBF898314
:103ED0009A836B837C834D8389819A81FC01108254
:103EE00089819A8123E0FC01218389819A8123E0E1
:103EF000FC01248389819A81FC018281938128E3DA
:103F0000FC01208389819A81FC0182819381019641
:103F1000FC01108289819A81FC0182819381029641
:103F20002D81FC0120838B819C81FC011482000087
:103F30002596CDBFDEBFDF91CF910895CF93DF935C
:103F4000CDB7DEB72597CDBFDEBF89839A836B835C
:103F50007C834D8389819A81FC01108289819A81B9
:103F600023E0FC01218389819A8123E0FC012483E1
:103F700089819A81FC018281938128E2FC0120835E
:103F800089819A81FC01828193810196FC011082D2
:103F900089819A81FC018281938102962D81FC01A5
:103FA00020838B819C81FC01148200002596CDBF6B
:103FB000DEBFDF91CF910895CF93DF9300D000D083
:103FC000CDB7DEB789839A836B837C834D832E8341
:103FD00089819A81FC01108289819A8123E0FC0108
:103FE000218389819A8123E0FC01248389819A813C
:103FF000FC018281938120E2FC01208389819A81E6
:10400000FC01828193810196FC01108289819A8151
:10401000FC018281938102962D81222F30E022952E
:104020003295307F3227207F3227322F2E81232B6B
:10403000FC0120838B819C81FC0114820000269668
:10404000CDBFDEBFDF91CF910895CF93DF93CDB782
:10405000DEB72597CDBFDEBF89839A836B837C83D0
:104060004D8389819A81FC01108289819A8123E0A4
:10407000FC01218389819A8123E0FC0124838981C9
:104080009A81FC018281938120E3FC012083898154
:104090009A81FC01828193810196FC0110828981C1
:1040A0009A81FC018281938102962D81FC012083FB
:1040B0008B819C81FC01148200002596CDBFDEBF60
:1040C000DF91CF910895CF93DF93CDB7DEB72897D7
:1040D000CDBFDEBF89839A836B837C832D833E8330
:1040E0004F83588789819A81FC01108289819A8146
:1040F00023E0FC01218389819A8123E0FC01248350
:1041000089819A81FC01228133818D819E81AF81D9
:10411000B885CD01AA27BB27F901808389819A81BF
:10412000FC01828193819C012F5F3F4F8D819E8195
:10413000AF81B885892F9A2FAB2FBB27F9018083D8
:1041400089819A81FC018281938102962D81FC01F3
:1041500020838B819C81FC01148200002896CDBFB6
:10416000DEBFDF91CF910895CF93DF93CDB7DEB758
:1041700080E098E4A8EEB1E0BC01CD01DF91CF91E1
:104180000895CF93DF931F92CDB7DEB719820E94B7
:10419000B420DC01CB012981222F30E0022E04C0A3
:1041A000B695A795979587950A94D2F7BC01CD014E
:1041B0000F90DF91CF910895CF93DF93CDB7DEB706
:1041C0000E94C120DC01CB01BC01CD01DF91CF9168
:1041D0000895CF93DF93CDB7DEB70E94DC20DC01DA
:1041E000CB01BC01CD01DF91CF910895CF93DF9337
:1041F000CDB7DEB70E94E920DC01CB01BC01CD01C7
:10420000DF91CF9108956150710981099109D9F722
:104210000895EF92FF920F931F93CF93DF93CDB743
:10422000DEB72897CDBFDEBF89839A836B834C832B
:104230005D832E830F8318878E81282F30E08C8139
:104240009D81AC0102C0440F551F2A95E2F7809171
:10425000A83B9091A93BFC01228133816091A83B4E
:104260007091A93B8091AA3B9091AB3BEF81F8857F
:104270007F018A014B810E94CA5A89819A81FC017F
:1042800080819181FC01208131814091A83B509136
:10429000A93B6091AA3B7091AB3B89819A81FC015B
:1042A00080819181F901199500002896CDBFDEBF6C
:1042B000DF91CF911F910F91FF90EF900895CF93D1
:1042C000DF9300D0CDB7DEB789839A836B832091CB
:1042D000A83B3091A93B8091AA3B9091AB3B4B818D
:1042E000B9010E94325B89819A81FC0180819181B0
:1042F000FC01208131814091A83B5091A93B609104
:10430000AA3B7091AB3B89819A81FC0180819181AC
:10431000F90119958091A83B9091A93BFC018281FC
:1043200093810196FC018081882F90E0382F22270D
:104330008091A83B9091A93BFC01828193810296D8
:10434000FC018081882F90E0822B932B8093AC3BE3
:104350009093AD3B8091A83B9091A93BFC0180815B
:104360002396CDBFDEBFDF91CF9108950F931F93AA
:10437000CF93DF931F921F92CDB7DEB789839A83C5
:1043800089819A810FEF1FEF20E040E050E06CE65A
:104390000E94092189819A810FEF1FEF20E040E000
:1043A00050E06DE60E94092189819A810FEF1FEF8D
:1043B00020E040E050E064E60E94092180E090E0C7
:1043C0000F900F90DF91CF911F910F910895CF9390
:1043D000DF9300D0CDB7DEB789839A836B83898161
:1043E0009A816B810E945F218091A83B9091A93BAB
:1043F000FC01828193810196FC018081882F90E0ED
:10440000382F22278091A83B9091A93BFC01828103
:1044100093810296FC018081882F90E0822B932B60
:104420002396CDBFDEBFDF91CF9108950F931F93E9
:10443000CF93DF93CDB7DEB72597CDBFDEBF89839E
:104440009A836B834C835D834C815D8189819A81E2
:104450000FEF1FEF20E06B810E94092180E025967D
:10446000CDBFDEBFDF91CF911F910F910895CF9304
:10447000DF931F921F92CDB7DEB789839A8389811C
:104480009A816FE70E945F218091A83B9091A93BA0
:10449000FC0182819381FC0182810F900F90DF915A
:1044A000CF9108950F931F93CF93DF9300D01F9266
:1044B000CDB7DEB789839A836B834C8389819A81D8
:1044C0006AE10E945F218C818823C9F08B81882357
:1044D00059F489819A810CE010E022E040E050E03C
:1044E0006AE10E94092123C089819A8103E010E0DA
:1044F00020E040E050E06AE10E94092118C08B8171
:10450000882359F489819A810CE010E022E043E08D
:1045100050E06AE10E9409210AC089819A8103E082
:1045200010E020E043E050E06AE10E94092180E0D1
:104530002496CDBFDEBFDF91CF911F910F910895DB
:104540000F931F93CF93DF9300D0CDB7DEB789834E
:104550009A836B838B81482F50E089819A8108E090
:1045600010E027E062E00E94092180E02396CDBFA1
:10457000DEBFDF91CF911F910F9108950F931F938D
:10458000CF93DF931F921F92CDB7DEB789839A83B3
:1045900089819A8101E010E020E041E050E062E092
:1045A0000E94092180E00F900F90DF91CF911F9121
:1045B0000F910895CF93DF9300D01F92CDB7DEB750
:1045C00089839A836B837C8389819A8167E00E94C7
:1045D0005F218091A83B9091A93BFC01828193814E
:1045E000FC0121818B819C81FC01208380E0249649
:1045F000CDBFDEBFDF91CF9108954F925F926F9252
:104600007F928F929F92AF92BF92CF92DF92EF9262
:10461000FF920F931F93CF93DF93CDB7DEB72C9705
:10462000CDBFDEBF8F83988749875A876B877C878A
:1046300019828FE38A838981282F30E08A81882F2D
:1046400090E0820F931F99230CF40196959587951E
:104650008B8389859A85AB85BC85813D2DED92073D
:1046600026E0A207B10508F401C203C183E08D83EF
:104670001C828B81882F90E0AA2797FDA095BA2FE6
:10468000BC01CD010E9409C0DC01CB0122E33DE366
:1046900041EE5DE3BC01CD010E94BDC0DC01CB0158
:1046A0006C017D018B81882F90E0AA2797FDA09552
:1046B000BA2FBC01CD010E9409C0DC01CB019C01D5
:1046C000AD01C701B6010E94BDC0DC01CB016C0188
:1046D0007D018B81882F90E0AA2797FDA095BA2FA6
:1046E000BC01CD010E9409C0DC01CB012BE13FE2FE
:1046F00049E251E4BC01CD010E94BDC0DC01CB0107
:104700009C01AD01C701B6010E949FBFDC01CB0136
:1047100026E632EF4AE855E4BC01CD010E949FBF76
:10472000DC01CB0120E030E048EC52E4BC01CD01DB
:104730000E94BDC0DC01CB016C017D0169857A85D9
:104740008B859C850E9407C0DC01CB019C01AD01DB
:10475000C701B6010E9403C0882324F48B818F5FB8
:10476000898379C08B81882F90E0AA2797FDA09537
:10477000BA2FBC01CD010E9409C0DC01CB0122E3AC
:104780003DE341EE5DE3BC01CD010E94BDC0DC0113
:10479000CB016C017D018B81882F90E0AA2797FDCA
:1047A000A095BA2FBC01CD010E9409C0DC01CB014C
:1047B0009C01AD01C701B6010E94BDC0DC01CB0167
:1047C0006C017D018B81882F90E0AA2797FDA09531
:1047D000BA2FBC01CD010E9409C0DC01CB012BE145
:1047E0003FE249E251E4BC01CD010E94BDC0DC01C1
:1047F000CB019C01AD01C701B6010E949FBFDC0146
:10480000CB0126E632EF4AE855E4BC01CD010E9417
:104810009FBFDC01CB0120E030E048EC52E4BC015A
:10482000CD010E94BDC0DC01CB016C017D01698519
:104830007A858B859C850E9407C0DC01CB019C0199
:10484000AD01C701B6010E9403C0882309F416C058
:104850008B8181508A838981282F30E08A81882F3B
:1048600090E0820F931F99230CF4019695958795FC
:104870008B8399818A81891708F0F8CE69857A85BA
:104880008B859C850E9407C06B017C018B81882FE2
:1048900090E0AA2797FDA095BA2FBC01CD010E94F8
:1048A00009C0DC01CB0122E33DE341EE5DE3BC0145
:1048B000CD010E94BDC0DC01CB014C015D018B81AB
:1048C000882F90E0AA2797FDA095BA2FBC01CD01B3
:1048D0000E9409C0DC01CB019C01AD01C501B401FE
:1048E0000E94BDC0DC01CB014C015D018B81882F92
:1048F00090E0AA2797FDA095BA2FBC01CD010E9498
:1049000009C0DC01CB012BE13FE249E251E4BC01EB
:10491000CD010E94BDC0DC01CB019C01AD01C501F0
:10492000B4010E949FBFDC01CB0126E632EF4AE8CA
:1049300055E4BC01CD010E949FBFDC01CB0120E00A
:1049400030E048EC52E4BC01CD010E94BDC0DC0166
:10495000CB019C01AD01C701B6010E949EBFDC01E5
:10496000CB016C017D0169857A858B859C850E94D0
:1049700007C04B015C018B81882F90E00196AA272C
:1049800097FDA095BA2FBC01CD010E9409C0DC01A2
:10499000CB0122E33DE341EE5DE3BC01CD010E948A
:1049A000BDC0DC01CB012C013D018B81882F90E043
:1049B0000196AA2797FDA095BA2FBC01CD010E94B0
:1049C00009C0DC01CB019C01AD01C301B2010E9411
:1049D000BDC0DC01CB012C013D018B81882F90E013
:1049E0000196AA2797FDA095BA2FBC01CD010E9480
:1049F00009C0DC01CB012BE13FE249E251E4BC01FB
:104A0000CD010E94BDC0DC01CB019C01AD01C30101
:104A1000B2010E949FBFDC01CB0126E632EF4AE8DB
:104A200055E4BC01CD010E949FBFDC01CB0120E019
:104A300030E048EC52E4BC01CD010E94BDC0DC0175
:104A4000CB019C01AD01C501B4010E949EBFDC01F8
:104A5000CB019C01AD01C701B6010E94B9C0181677
:104A60000CF004C28B818F5F8B8300C204C182E093
:104A70008D8381E08C838B81882F90E0AA2797FD1E
:104A8000A095BA2FBC01CD010E9409C0DC01CB0169
:104A900025E336EB47EB5DE3BC01CD010E94BDC0D1
:104AA000DC01CB016C017D018B81882F90E0AA276E
:104AB00097FDA095BA2FBC01CD010E9409C0DC0171
:104AC000CB019C01AD01C701B6010E94BDC0DC0154
:104AD000CB016C017D018B81882F90E0AA2797FD87
:104AE000A095BA2FBC01CD010E9409C0DC01CB0109
:104AF00028E93CE44DE051E4BC01CD010E94BDC079
:104B0000DC01CB019C01AD01C701B6010E949FBF32
:104B1000DC01CB0120E038E84AE655E4BC01CD01D8
:104B20000E949FBFDC01CB0120E030E048EC52E462
:104B3000BC01CD010E94BDC0DC01CB016C017D0137
:104B400069857A858B859C850E9407C0DC01CB0135
:104B50009C01AD01C701B6010E9403C0882324F463
:104B60008B818F5F898379C08B81882F90E0AA2702
:104B700097FDA095BA2FBC01CD010E9409C0DC01B0
:104B8000CB0125E336EB47EB5DE3BC01CD010E9491
:104B9000BDC0DC01CB016C017D018B81882F90E0D1
:104BA000AA2797FDA095BA2FBC01CD010E9409C08C
:104BB000DC01CB019C01AD01C701B6010E94BDC063
:104BC000DC01CB016C017D018B81882F90E0AA274D
:104BD00097FDA095BA2FBC01CD010E9409C0DC0150
:104BE000CB0128E93CE44DE051E4BC01CD010E9439
:104BF000BDC0DC01CB019C01AD01C701B6010E9423
:104C00009FBFDC01CB0120E038E84AE655E4BC0157
:104C1000CD010E949FBFDC01CB0120E030E048ECD9
:104C200052E4BC01CD010E94BDC0DC01CB016C018E
:104C30007D0169857A858B859C850E9407C0DC0192
:104C4000CB019C01AD01C701B6010E9403C08823BE
:104C500009F416C08B8181508A838981282F30E026
:104C60008A81882F90E0820F931F99230CF401967C
:104C7000959587958B8399818A81891708F0F7CE5E
:104C800069857A858B859C850E9407C06B017C01B4
:104C90008B81882F90E0AA2797FDA095BA2FBC01A1
:104CA000CD010E9409C0DC01CB0125E336EB47EBC7
:104CB0005DE3BC01CD010E94BDC0DC01CB014C0114
:104CC0005D018B81882F90E0AA2797FDA095BA2FD0
:104CD000BC01CD010E9409C0DC01CB019C01AD01EA
:104CE000C501B4010E94BDC0DC01CB014C015D01D6
:104CF0008B81882F90E0AA2797FDA095BA2FBC0141
:104D0000CD010E9409C0DC01CB0128E93CE44DE063
:104D100051E4BC01CD010E94BDC0DC01CB019C016E
:104D2000AD01C501B4010E949FBFDC01CB0120E0B1
:104D300038E84AE655E4BC01CD010E949FBFDC0182
:104D4000CB0120E030E048EC52E4BC01CD010E94F0
:104D5000BDC0DC01CB019C01AD01C701B6010E94C1
:104D60009EBFDC01CB016C017D0169857A858B8555
:104D70009C850E9407C04B015C018B81882F90E0CD
:104D80000196AA2797FDA095BA2FBC01CD010E94DC
:104D900009C0DC01CB0125E336EB47EB5DE3BC0149
:104DA000CD010E94BDC0DC01CB012C013D018B81F6
:104DB000882F90E00196AA2797FDA095BA2FBC01F5
:104DC000CD010E9409C0DC01CB019C01AD01C301F2
:104DD000B2010E94BDC0DC01CB012C013D018B81E1
:104DE000882F90E00196AA2797FDA095BA2FBC01C5
:104DF000CD010E9409C0DC01CB0128E93CE44DE073
:104E000051E4BC01CD010E94BDC0DC01CB019C017D
:104E1000AD01C301B2010E949FBFDC01CB0120E0C4
:104E200038E84AE655E4BC01CD010E949FBFDC0191
:104E3000CB0120E030E048EC52E4BC01CD010E94FF
:104E4000BDC0DC01CB019C01AD01C501B4010E94D4
:104E50009EBFDC01CB019C01AD01C701B6010E94E0
:104E6000B9C018161CF48B818F5F8B839E012A5F5B
:104E70003F4F8F819885B9010E94DA228E8183335A
:104E800018F08B818F5F8B838E818F3018F08E812D
:104E900088231CF48B8181508B838F81988563E3F9
:104EA0000E945F218C81882F90E09C0133272695FA
:104EB000379522278B81882F90E0982F8827990F8C
:104EC000282B392B8D81882F90E09695982F882755
:104ED00097958795822B932BAC018F81988500E85D
:104EE0001FEF20E063E30E94092180E02C96CDBFF4
:104EF000DEBFDF91CF911F910F91FF90EF90DF9078
:104F0000CF90BF90AF909F908F907F906F905F9069
:104F10004F9008950F931F93CF93DF9300D0CDB799
:104F2000DEB789839A836B838B81823030F08B81EB
:104F30008B3019F08B818D3010F08FEF27C08B8173
:104F40008A3019F48BE08B8309C08B818C3019F483
:104F50008CE08B8303C08B8182508B8389819A8103
:104F600062E30E945F218B81882F90E08295929569
:104F7000907F9827807F9827AC0189819A8100EFE4
:104F800010E020E062E30E94092180E02396CDBF7B
:104F9000DEBFDF91CF911F910F910895CF93DF93E3
:104FA000CDB7DEB72B97CDBFDEBF8E839F834887FB
:104FB00059876A877B8788859985AA85BB85893CBF
:104FC0002BE3920724E0A207B10550F48885998568
:104FD000AA85BB8587322AE79207A105B10510F49F
:104FE00081E05FC082E08D838D81282F30E040E03A
:104FF00050E088859985AA85BB85BC01CD010E94BA
:1050000024BEDC01CB0189839A83AB83BC831AC0A5
:105010008D818F5F8D838D81282F30E040E050E0BF
:1050200088859985AA85BB85BC01CD010E9424BED7
:10503000DC01CB0189839A83AB83BC838D818D3066
:1050400009F40BC089819A81AB81BC81813927E742
:10505000920728E0A207B105D8F28D8181508D8397
:105060008D818B3019F48D8181508D838D81282F16
:1050700030E040E050E088859985AA85BB85BC0179
:10508000CD010E9424BE9B01AC018E819F81BA019B
:10509000A9010E94FD228E819F816D810E948A2735
:1050A00080E02B96CDBFDEBFDF91CF9108956F9248
:1050B0007F928F929F92AF92BF92CF92DF92EF92A8
:1050C000FF920F931F93CF93DF93CDB7DEB72B974C
:1050D000CDBFDEBF89839A836B83EC82FD820E8312
:1050E0001F83288739874A875B8789819A81009740
:1050F00011F481E01EC06C807D808E809F80A8842A
:10510000B984CA84DB8489819A81E62CF72C082D26
:10511000192D2A2D3B2D4C2D5D2D6B810E94FC34C9
:10512000882311F081E005C089819A810E94C150D5
:1051300080E02B96CDBFDEBFDF91CF911F910F9105
:10514000FF90EF90DF90CF90BF90AF909F908F90A7
:105150007F906F9008950F931F93CF93DF9300D0AC
:10516000CDB7DEB789839A836B8389819A81009753
:1051700011F481E032C08B81823010F083E02DC0C9
:1051800089819A8161E30E945F21882311F082E086
:1051900024C08B81482F50E089819A8100E014E07F
:1051A0002AE061E30E94092189819A816AE10E94D3
:1051B0005F21882311F082E010C081E09B81992358
:1051C00009F080E0482F50E089819A8100E210E0E8
:1051D00025E06AE10E94092180E02396CDBFDEBF71
:1051E000DF91CF911F910F910895CF93DF9300D05E
:1051F0001F92CDB7DEB789839A836B837C838981C5
:105200009A81009711F481E03FC08B819C810097C7
:1052100011F483E039C089819A8161E30E945F21A2
:10522000882311F082E030C08091AC3B9091AD3B7F
:1052300088279470892F992786958695282F8B81AA
:105240009C81FC01208389819A816AE10E945F210F
:10525000882311F082E018C08B819C81FC012081A1
:105260008091AC3B9091AD3B807299279695879544
:10527000929582958F7089279F70892728238B812B
:105280009C81FC01208380E02496CDBFDEBFDF91AE
:10529000CF9108950F931F93CF93DF9300D01F9268
:1052A000CDB7DEB789839A836B837C8389819A81AA
:1052B000009711F481E03BC08B819C818230910585
:1052C00010F083E034C08B819C81009729F08FEF30
:1052D0009FEF8B839C8302C01B821C8289819A81F1
:1052E00063E20E945F21882311F082E020C04B819D
:1052F0005C8189819A810FEF1FEF20E063E20E94B9
:10530000092189819A8163E20E945F21882311F03B
:1053100082E00DC08B819C81AC01517089819A81A2
:105320000FEF1FEF20E063E20E94092180E0249646
:10533000CDBFDEBFDF91CF911F910F9108950F93E5
:105340001F93CF93DF9300D0CDB7DEB789839A83C5
:105350006B8389819A81009709F414C089819A81AD
:1053600060E00E945F21882309F00CC08B81482FE8
:1053700050E089819A8100E01FE028E060E00E940F
:10538000092100002396CDBFDEBFDF91CF911F9191
:105390000F9108950F931F93CF93DF93CDB7DEB78F
:1053A0002897CDBFDEBF8D839E836F8348878F8113
:1053B000882F90E09C013695322F2227379527952C
:1053C0008885882F90E0880F991F82959295907F0D
:1053D0009827807F9827822B932B89839A8380EA52
:1053E00090E08B839C838D819E8160E00E945F2191
:1053F0002B813C8149815A818D819E81890120E0E8
:1054000060E00E9409212896CDBFDEBFDF91CF91D9
:105410001F910F9108950F931F93CF93DF93CDB7F3
:10542000DEB72797CDBFDEBF8D839E836F838F81CD
:10543000882F90E0002496958795079496958795F8
:105440000794982F802D89839A8380E490E08B8342
:105450009C838D819E8160E00E945F212B813C8135
:1054600049815A818D819E81890120E060E00E94FE
:1054700009212796CDBFDEBFDF91CF911F910F91FC
:1054800008950F931F93CF93DF93CDB7DEB7279780
:10549000CDBFDEBF8D839E836F838F81882F90E089
:1054A000880F991F880F991F89839A8384E090E061
:1054B0008B839C838D819E8160E00E945F212B8184
:1054C0003C8149815A818D819E81890120E060E083
:1054D0000E9409212796CDBFDEBFDF91CF911F919A
:1054E0000F9108950F931F93CF93DF93CDB7DEB73E
:1054F0002897CDBFDEBF8D839E836F8348878F81C2
:10550000882F90E09C01220F331F8885882F90E020
:10551000822B932B89839A8383E090E08B839C83F7
:105520008D819E8160E00E945F212B813C814981B9
:105530005A818D819E81890120E060E00E940921CD
:105540002896CDBFDEBFDF91CF911F910F910895B7
:105550000F931F93CF93DF93CDB7DEB72897CDBFBF
:10556000DEBF8D839E836F8348878F81843010F0E8
:1055700081E039C08F818230E0F48885882F90E007
:10558000880F991F89839A8382E090E08B839C83A4
:105590008D819E8160E00E945F212B813C81498149
:1055A0005A818D819E81890120E060E00E9409215D
:1055B00019C08885882F90E089839A8381E090E0E4
:1055C0008B839C838D819E8160E00E945F212B8173
:1055D0003C8149815A818D819E81890120E060E072
:1055E0000E94092180E02896CDBFDEBFDF91CF91D8
:1055F0001F910F910895CF92EF920F931F93CF9326
:10560000DF93CDB7DEB72C97CDBFDEBF8D839E83F2
:105610006F83488729870A87EB86CC868F81882FFE
:1056200090E09C0133272695379522278885882F7F
:1056300090E090E4899F902D88271124282B392B06
:105640008985882F90E0982F88279295990F907ED2
:10565000282B392B8A85882F90E0982F88279295C0
:10566000907F282B392B8B85882F90E0982F8827C7
:10567000990F990F990F282B392B8C85882F90E043
:10568000982F8827990F990F822B932B89839A83C0
:1056900080E09CEF8B839C838D819E8161E00E94E2
:1056A0005F212B813C8149815A818D819E818901B5
:1056B00020E061E00E9409212C96CDBFDEBFDF9182
:1056C000CF911F910F91EF90CF9008950F931F935B
:1056D000CF93DF93CDB7DEB72897CDBFDEBF8D83E5
:1056E0009E836F8348878F81843010F081E040C0B3
:1056F0008F818230F0F48885882F90E099278695F5
:105700009795882789839A8380E090E88B839C8390
:105710008D819E8161E00E945F212B813C814981C6
:105720005A818D819E81890120E061E00E940921DA
:105730001EC08885882F90E090E4899F902D88274F
:10574000112489839A8380E090E48B839C838D81EC
:105750009E8161E00E945F212B813C8149815A81B9
:105760008D819E81890120E061E00E94092180E015
:105770002896CDBFDEBFDF91CF911F910F91089585
:105780000F931F93CF93DF93CDB7DEB72897CDBF8D
:10579000DEBF8D839E836F8348878F81843010F0B6
:1057A00081E040C08F818230F8F48885882F90E0B6
:1057B000982F8827990F990F990F89839A8380E0F2
:1057C00098E08B839C838D819E8161E00E945F21A4
:1057D0002B813C8149815A818D819E81890120E004
:1057E00061E00E9409211DC08885882F90E0982FD4
:1057F0008827990F990F89839A8380E094E08B839F
:105800009C838D819E8161E00E945F212B813C8180
:1058100049815A818D819E81890120E061E00E9449
:10582000092180E02896CDBFDEBFDF91CF911F9187
:105830000F9108950F931F93CF93DF93CDB7DEB7EA
:105840002897CDBFDEBF8D839E836F8348878F816E
:10585000843010F081E040C08F818230F8F4888578
:10586000882F90E0982F88279295990F907E8983B2
:105870009A8380E090E28B839C838D819E8161E09E
:105880000E945F212B813C8149815A818D819E81BB
:10589000890120E061E00E9409211DC08885882FD0
:1058A00090E0982F88279295907F89839A8380E053
:1058B00090E18B839C838D819E8161E00E945F21BA
:1058C0002B813C8149815A818D819E81890120E013
:1058D00061E00E94092180E02896CDBFDEBFDF9104
:1058E000CF911F910F9108950F931F93CF93DF9343
:1058F000CDB7DEB72897CDBFDEBF8D839E836F8384
:1059000048878F81843010F081E0A0C0888588307E
:1059100010F081E09BC08885843061F488E196E2D4
:10592000892F8F9388E196E28F930E9456C20F9041
:105930000F9018868F81882F90E08130910579F142
:10594000823091051CF4009751F07DC082309105A2
:1059500009F43FC08330910509F45BC074C08885A9
:10596000882F90E0880F991F880F991F880F991F23
:1059700089839A8388E390E08B839C838D819E81C9
:1059800065E70E945F212B813C8149815A818D818D
:105990009E81890120E065E70E94092156C0888523
:1059A000882F90E089839A8387E090E08B839C83A3
:1059B0008D819E8165E70E945F212B813C81498119
:1059C0005A818D819E81890120E065E70E9409212D
:1059D0003CC08885882F90E0880F991F880F991FF9
:1059E000880F991F89839A8388E390E08B839C8337
:1059F0008D819E8165E70E945F212B813C814981D9
:105A00005A818D819E81890120E065E70E940921EC
:105A10001CC08885882F90E089839A8387E090E076
:105A20008B839C838D819E8165E70E945F212B8102
:105A30003C8149815A818D819E81890120E065E701
:105A40000E94092102C081E001C080E02896CDBFFC
:105A5000DEBFDF91CF911F910F9108950F931F9398
:105A6000CF93DF93CDB7DEB72A97CDBFDEBF8D834F
:105A70009E836F83488729870A878F81882F90E0CC
:105A80009C013695322F2227379527958885882FB8
:105A900090E00024969587950794969587950794AE
:105AA000982F802D282B392B8985882F90E0880FFF
:105AB000991F82959295907F9827807F9827282B11
:105AC000392B8A85882F90E082959295907F982730
:105AD000807F9827822B932B89839A8380EF90E095
