:100000000C9437190C9458190C9458190C945819CD
:100010000C9458190C9458190C9458190C9458199C
:100020000C9458190C9458190C9458190C9458198C
:100030000C9458190C94A31B0C9458190C9458192F
:100040000C9458190C9458190C9458190C9458196C
:100050000C9458190C9458190C9458190C9458195C
:100060000C9458190C94BE5E0C9458190C94945E20
:100070000C9458190C9458190C9458190C9458193C
:100080000C9458190C9458190C9458190C9458192C
:100090000C9458190C9458190C9458190C9458191C
:1000A0000C9458190C9458190C9458190C9458190C
:1000B0000C9458190C9458190C947B1B0C945819D7
:1000C0000C9458190C9458190C9458190C945819EC
:1000D0000C9458190C9458190C9458190C945819DC
:1000E0000C9458190C9458190C9458190C945819CC
:1000F0000C9458190C9458190C9458190C945819BC
:100100000C9458190C9458190C9458190C945819AB
:100110000C9458190C9458190C9458190C9458199B
:100120000C9458190C9458190C9458190C9458198B
:100130000C9458190C9458190C9458190C9458197B
:100140000C9458190C9458190C9458190C9458196B
:100150000C9458190C9458190C9458190C9458195B
:100160000C9458190C9458190C9458190C9458194B
:100170000C9458190C9458190C9458190C9458193B
:100180000C9458190C9458190C9458190C9458192B
:100190000C9458190C9458190C9458190C9458191B
:1001A0000C9458190C9458190C9458190C9458190B
:1001B0000C9458190C9458190C9458190C945819FB
:1001C0000C9458190C9458190C9458190C945819EB
:1001D0000C9458190C9458190C9458190C945819DB
:1001E0000C9458190C9458196B1C3E1C681C411C2B
:1001F000441C471C4A1C4D1C501C531C561C591CAB
:100200005C1C5F1C621C651C752579257D2583257A
:10021000892597259D25A325A725AB25BD25C12586
:10022000C525CB25D125DF25E525EB25EF25F325B4
:100230009F3DA93DB33DBD3DC73DD13DDB3D124294
:10024000E53DEF3DF93D033E0D3E173E213E2B3E81
:10025000353E3F3E493E533E5D3E673E713E7B3EEE
:10026000853E8F3E993EA33EAD3EB73EC13ECB3E5E
:10027000D53EDF3EE93EF33EFD3E073F113F1B3FCB
:10028000253F2F3F393F433F4D3F573F613F6B3F36
:10029000753F7F3F893F933F9D3F1242124212427A
:1002A000124212421242A73FB13FBB3FC53FCF3F70
:1002B000D93F1242124212421242E33FED3FF73F52
:1002C00001400B4015401F40294033403D4047400E
:1002D00051405B4065406F40794083408D4097407E
:1002E000A140AB40B540BF40C9401242D340DD40C1
:1002F000E740F140FB4005410F41194123412D41A9
:10030000374141414B4155415F41694173417D4115
:10031000874191419B41A541AF41B941C341CD4185
:10032000D741E141EB41F541FF4109427A727672D2
:100330004372767248724D72517256725B725F727E
:10034000647269726D720C94D13D0C9450610C947E
:10035000405F0C94573F0C9433400C94C1250C948F
:1003600068650C9458610C945F410C94213E0C9488
:1003700097250C941C620C94441C0C94B9410C9469
:10038000D3580C94EB410C946B3F0C94C53F0C94E8
:10039000D6600C94205F0C9431610C943C560C9404
:1003A000AF410C9479250C947F3F0C9453590C94D5
:1003B00014600C94095F0C9443720C94365F0C9497
:1003C000A73F0C940B400C943A560C94613F0C944C
:1003D00009420C940F410C940D3E0C949F3D0C94DB
:1003E00003610C945C610C94493E0C9412420C9491
:1003F000561C0C94E33F0C94A1400C9476720C9420
:100400004D1C0C9454610C942C5F0C9437410C944B
:10041000CC5C0C944E560C94BD250C942F3F0C9440
:10042000993E0C945F1C0C941B3F0C9438640C9404
:10043000C5250C943F3E0C945B720C94F73F0C94D2
:100440005F720C94265F0C942B3E0C945A560C94BD
:100450005C1C0C94755F0C94D93F0C9449600C940F
:1004600005410C9483250C9471610C940D610C94DE
:10047000353E0C94713E0C94CB3E0C94AD580C94CC
:1004800020640C94DD400C9412560C94E5250C94D9
:10049000B13F0C94DB3D0C9466600C94E93E0C94E7
:1004A000DF5F0C94325F0C94E53D0C94AB400C94F0
:1004B000D3400C94AB250C9495560C940B590C948A
:1004C000AD3E0C9498620C94BD3D0C943E1C0C9473
:1004D000C9400C9454560C94F3250C94F4550C9488
:1004E0002F590C94075F0C9495610C943D400C942B
:1004F0009A600C940B650C94EF250C949D3F0C9422
:10050000B33D0C940F5F0C94B6570C94AB620C94F3
:1005100019410C94651C0C94BF580C946B1C0C94E2
:1005200073410C94F93D0C94F1400C9483400C946D
:1005300069720C947A720C948D400C94531C0C9438
:10054000345F0C9451720C94F33E0C94ED3F0C9478
:100550007B3E0C94673E0C94DC1A0C9477590C94F7
:10056000533E0C9401400C94B5590C94FF410C94EB
:100570007D410C943C5F0C9438560C9451400C9483
:10058000CF3F0C9427610C9455410C94681C0C943B
:100590001F400C94A5410C94753F0C94033E0C94A1
:1005A0009D250C94225F0C9447890C94113F0C9468
:1005B000D1250C94621C0C9470650C9455580C94C5
:1005C00089250C94DF3E0C9411610C94FD3E0C9433
:1005D00041410C94893F0C94FB400C94B5400C9421
:1005E0003E5F0C94CB250C94EB250C94501C0C9482
:1005F000385F0C94E1410C94B73E0C94173E0C9478
:1006000023410C9460560C942E5F0C948F3E0C94F6
:10061000A93D0C94164E0C94C2620C94C3410C94E8
:10062000BB3F0C946F400C942A5F0C9491410C9446
:10063000EF3D0C9469410C94471C0C94591C0C948C
:10064000073F0C94E7400C9446610C940A560C94B6
:100650006D720C94C5600C94305F0C94ED5E0C943C
:10066000253F0C9429400C94393F0C94C73D0C94C1
:1006700048720C945B400C9447400C94A3250C9456
:100680005D3E0C9489580C944A1C0C94A7250C943C
:10069000F5410C9497400C9464720C94C7590C94D7
:1006A000C13E0C9439620C943A5F0C94E7580C9458
:1006B0002D410C944D720C9441650C9415400C9492
:1006C00034580C94E0570C94AA5F0C9475250C9444
:1006D0009B410C94BF400C944B410C94933F0C9461
:1006E000A33E0C9465400C94D53E0C94CD410C94E3
:1006F0004D3F0C94433F0C9487410C947D250C9402
:1007000056720C94AA600C94853E0C9420620C9452
:10071000D7410C94F7640C9479400C94DF250C9429
:10072000245F0C94411C0C941B610C94285F63643F
:10073000696E6F70737578585B0001DF0001D5003A
:1007400001CC0001C20001B90001B00001A8000104
:100750009F00019900019100018900018000017949
:1007600000017100016C01016401015F0101590187
:10077000015201014B01014401013D010137020118
:100780002F02012A02012402011F02011A02011490
:1007900002010E020108020101020287010280012A
:1007A000027A01027401026C01026601025F020218
:1007B0005E02025802025202024C02024602023F4C
:1007C00002023A02023603022F03022A0302240322
:1007D000021F04021E04021804021204020E040284
:1007E000080402020404BE0104B80104B10104AB10
:1007F0000104A60204A002049C02049602049002D2
:10080000048B02048502048002047A020474020448
:100810006F03046B03046603046003045E0304585F
:1008200003045403044F03044A0304450304400330
:10083000043C04043704043304042E04042A04048E
:100840002404042004041E04041A040416040412DC
:1008500004040D0404090404040404000408BC0096
:1008600008B70008B20008AE0008A90008A40008F4
:10087000A000089C00089700089300088F01088CCE
:1008800001088801088401087F01087B01087601BE
:10089000087201086F01086B01086701086301080D
:1008A0005F01085C01085801085401085101084F14
:1008B00002084C02084802084402084102083D02AE
:1008C000083902083602083202082F02082C0208F2
:1008D00028020825021D03ED01DCFDCCF5BCE5ACCA
:1008E000C5A86EBCE5ACC59C85960392C1912190CC
:1008F000966572726F723A20756E7265636F676E7D
:10090000697A656420636F6D6D616E64206F7074C9
:10091000696F6E0A00596F7520686176652062659F
:10092000656E206772616E74656420726F6F7420EB
:100930007065726D697373696F6E73210A00546814
:100940006973206973206E6F7420616E206F70650B
:10095000726174696E672073797374656D210A0022
:10096000436F6D6D616E64733A0A0055736167651C
:100970003A205B636D645D205B2D7C2D2D5D5B619A
:100980007267315D205B2D7C2D2D5D5B617267325E
:100990005D2E2E2E0A005475726E206F6666206FD3
:1009A0007574707574732028706572206368616E49
:1009B0006E656C292E0053657420707265736361D7
:1009C0006C617220666F722063616C6C6962726127
:1009D00074696F6E2E005365742063616C6C69627C
:1009E000726174696F6E204E206469766964657205
:1009F0002E004368616E676520696E7465726E6172
:100A00006C207265666572656E63652044414320A3
:100A10006F757470757420766F6C746167650041D2
:100A200044524636353138204C6F772042616E642F
:100A300000414452463635313820486967682062A3
:100A4000616E64005365742074686520524653419A
:100A500020617474656E74756174696F6E2E2030D8
:100A600020746F203238202830644220746F202D8B
:100A700032386442292E004269742062616E672018
:100A80006F7065726174696F6E2E20313A207772D3
:100A900069746520303A207265616400426974208F
:100AA00062616E672064617461206F662044414317
:100AB0002E004269742062616E6720616464726511
:100AC0007373206F66204441432E0045786563753B
:100AD000746520746865207365726465732074653D
:100AE00073742E2028302D3529207465737420707E
:100AF00061747465726E2E0053657420746865208D
:100B0000696E746572706F6C6174696F6E20317894
:100B10002830292C2032782831292C20347828328A
:100B2000292C203878283429206F722031367828F3
:100B300038292E00456E61626C652074686520500E
:100B4000412028706F77657220616D706C696669ED
:100B50006572292070726F74656374696F6E2063AB
:100B60006972637569742E203120746F20656E611F
:100B7000626C652E005365742074686520636D6433
:100B800020696E7075742066726F6D204A455344FB
:100B9000283029206F72205350492831292E0053C4
:100BA00065742074686520284629206672616D6529
:100BB0007320706572206D756C74692D6672616D3D
:100BC000652E005365742074686520284D292063C4
:100BD0006F6E7665727465727320706572206C69D1
:100BE0006E6B2E005365742074686520284C292094
:100BF0006C616E657320706572206C696E6B2E007F
:100C0000536574207468652066726571206F757411
:100C1000707574206F662065787465726E616C20E3
:100C200044414320636C6B20616674657220696E79
:100C30007465726E616C20434C4B206369726375FE
:100C4000697420284D487A292E004572726F722EE1
:100C50000A001D03ED01DCFDCCF5BCE5ACC5A86EBA
:100C6000BCE5ACC59C85960392C19121909601DFAD
:100C70000001D50001CC0001C20001B90001B000A3
:100C800001A800019F000199000191000189000164
:100C90008000017900017100016C01016401015FB4
:100CA00001015901015201014B01014401013D01C2
:100CB000013702012F02012A02012402011F020151
:100CC0001A02011402010E02010802010102028748
:100CD00001028001027A01027401026C01026601C4
:100CE000025F02025E02025802025202024C02023B
:100CF0004602023F02023A02023603022F03022A90
:100D000003022403021F04021E0402180402120438
:100D1000020E0402080402020404BE0104B8010425
:100D2000B10104AB0104A60204A002049C020496D3
:100D300002049002048B02048502048002047A02F9
:100D4000047402046F03046B030466030460030469
:100D50005E03045803045403044F03044A03044588
:100D600003044003043C04043704043304042E0445
:100D7000042A04042404042004041E04041A0404A1
:100D80001604041204040D040409040404040400F9
:100D90000408BC0008B70008B20008AE0008A900AB
:100DA00008A40008A000089C000897000893000809
:100DB0008F01088C01088801088401087F01087BE5
:100DC00001087601087201086F01086B01086701CC
:100DD000086301085F01085C010858010854010814
:100DE0005101084F02084C02084802084402084119
:100DF00002083D02083902083602083202082F02B2
:100E0000082C020828020825025072696E747320AB
:100E10006F7574207468652068656C70206D656EF0
:100E20007520666F722074686520626F6172642E2F
:100E30000045786974732066726F6D2074686973F9
:100E400020626F617264206261636B20746F207432
:100E50006865204449474954414C20626F6172647F
:100E60002E00426F6F746C6F61646572206F7074D6
:100E7000696F6E732E004F4E2F4F46462073776971
:100E800074636865732C202830206973204F4646B0
:100E90002C2031206973204F4E2900436F6D6D6106
:100EA0006E647320666F7220616363657373696E2D
:100EB000672074686520686561727462656174207A
:100EC00073746174757300436F6E74726F6C73200A
:100ED00074686520626F617264206C6576656C2051
:100EE00066756E6374696F6E732E205365717565D8
:100EF0006E7469616C2065786563206F662061722D
:100F000067756D656E74732E005265616420616E45
:100F10006420777269746520636F6D6D616E6473B0
:100F200020666F7220646562756767696E672E0060
:100F3000436F6D6D616E647320666F7220736574AC
:100F400074696E6720484D433938382067726F7571
:100F5000702064656C6179732E00436F6D6D616EF6
:100F6000647320666F722073657474696E67204ABB
:100F70004553442F504C4C204E2F522064697669C3
:100F80006465727300436F6D6D616E647320666F8C
:100F9000722073657474696E6720746865204C4DA7
:100FA0004B30343832382064656C617920636C6F63
:100FB000636B732E00436F6D6D616E647320666F9B
:100FC000722073657474696E6720746865204C4D77
:100FD0004B30343832382064656C617920636C6F33
:100FE000636B732E00436F6D6D616E647320666F6B
:100FF00072206D616E6167696E6720746865204359
:101000004C4B2067656E65726174696F6E20746801
:10101000726F756768204C4D4B30343832382C2055
:10102000414435363234522C20484D433938372E1E
:1010300000436F6D6D616E647320666F72206D6129
:101040006E6167696E672074686520434C4B20674A
:10105000656E65726174696F6E207468726F756712
:1010600068204C4D4B30343832382C2041443536D2
:101070003234522C20484D433938372E0050726993
:101080006E7473206F7574207468652068656C7069
:10109000206D656E7520666F722074686520626FC2
:1010A0006172642E0045786974732066726F6D20DA
:1010B0007468697320626F617264206261636B207F
:1010C000746F20746865204449474954414C20623C
:1010D0006F6172642E00426F6F746C6F6164657231
:1010E000206F7074696F6E732E004F4E2F4F4646FF
:1010F0002073776974636865732C202830206973C6
:10110000204F46462C2031206973204F4E29005332
:10111000746174757320616E642066756E637469A2
:101120006F6E73207573656420666F7220636865E7
:10113000636B696E672074686520626F6172642EEC
:101140002000436F6E74726F6C7320746865206248
:101150006F617264206C6576656C2066756E637471
:10116000696F6E732E2053657175656E7469616C5D
:101170002065786563206F6620617267756D656EA6
:1011800074732E0045786563757465732074657398
:101190007420766563746F72732E0052656769738D
:1011A0007465722064756D707320666F722072654D
:1011B00073706563746976652070657269706865BF
:1011C00072616C732E00436F6E74726F6C73207457
:1011D00068652066726F6E74656E64205246207377
:1011E000776974636865732E00436F6D6D616E641B
:1011F0007320666F7220746865204144524636350C
:101200003138207661726961626C65206761696E50
:1012100020616D706C69666965722E005072696E2E
:101220007473206F7574207468652068656C702015
:101230006D656E7520666F722074686520626F61DF
:1012400072642E0045786974732066726F6D207425
:1012500068697320626F617264206261636B2074DD
:101260006F20746865204449474954414C20626F9F
:101270006172642E00426F6F746C6F6164657220DE
:101280006F7074696F6E732E004F4E2F4F4646205D
:1012900073776974636865732C2028302069732024
:1012A0004F46462C2031206973204F4E2900436F52
:1012B0006E74726F6C732074686520626F61726403
:1012C000206C6576656C2066756E6374696F6E73ED
:1012D0002E2053657175656E7469616C2065786543
:1012E00063206F6620617267756D656E74732E0082
:1012F00050726F76696465732074686520737461D9
:10130000747573206F662074686520626F61726403
:101310002E0052656769737465722064756D707311
:1013200020666F72207265737065637469766520DC
:101330007065726970686572616C732E00436F6EC0
:1013400074726F6C73207468652066726F6E74655A
:101350006E642052462073776974636865732E004B
:10136000436F6D6D616E647320666F722074686583
:101370002044414333384A38342E0052756E73206E
:10138000737065636966696564207465737420763B
:101390006563746F72206F662074686520414452E3
:1013A00046363531380052756E7320737065636947
:1013B00066696564207465737420766563746F7202
:1013C000206F6620746865204144433136445833A9
:1013D00037300052756E7320737065636966696596
:1013E00064207465737420766563746F72206F6611
:1013F0002074686520504341393533382E00436CE2
:1014000065617220746865207370656369666965DB
:1014100064204750494F582070696E206C6F772EBA
:10142000005365742074686520737065636966692C
:101430006564204750494F582070696E206869677D
:10144000682E0039252114FE13D313A6137B1350E5
:1014500072696E7473206F757420696E2076657280
:10146000626F7365206D6F64652E203120746F206C
:10147000656E61626C652E004E6F20617267756DDE
:10148000656E74206E65636573736172792E0045B5
:101490006E7465722074686520626F6F746C6F6122
:1014A0006465722E00484D43393837004C4D4B303F
:1014B000343032380052657475726E73204D435566
:1014C0002064657669636520696E666F726D61740C
:1014D000696F6E2E00476574732C20616E642074F2
:1014E00068656E207265736574732C20504C4C20B7
:1014F0004C6F7373206F66204C6F636B2053746165
:101500007475732E004765747320504C4C204C6FDB
:10151000636B2044657465637420537461747573E0
:101520000048656172746265617420696E697469EE
:10153000616C697A6174696F6E2066756E63746937
:101540006F6E20746F2073657420636F756E7465A1
:101550007220746F20300048656172746265617436
:101560002066756E6374696F6E20746F2072657388
:101570006574207468652068656172746265617461
:1015800020636F756E746572004865617274626580
:1015900061742066756E6374696F6E20746F20616C
:1015A0006E642066726F6D20746865207365727654
:1015B00065720053656C6563747320474C45206DFC
:1015C0006F64653A204D43555F474C4528312920CB
:1015D0006F722053594E54485F465047415F474C05
:1015E00045202832290050726F7669646573207433
:1015F000686520616D6F756E74206F662052414D75
:10160000206C65667420286279746573292E0050F9
:10161000726F7669646573207468652074656D7097
:10162000657261747572652028302D31292E004253
:101630006C696E6B7320746865204C454420612092
:10164000737065636966696564206E756D62657245
:10165000206F662074696D65732E005072696E7418
:1016600073206F75742074686520736F667477617A
:10167000726520616E6420686172647761726520B2
:1016800076657273696F6E2E005475726E73206585
:10169000766572797468696E67206F66662E00548D
:1016A00075726E206F66662070657269706865720B
:1016B000616C732E00506F776572206379636C657F
:1016C000207065726970686572616C7320616E6408
:1016D0002072756E7320626F61726420696E697426
:1016E0002028706572206368616E6E656C292E001B
:1016F00052756E7320646961676E6F7374696320DD
:101700006F6E207065726970686572616C202870F8
:101710006572206368616E6E656C292E2053686F58
:10172000756C64207072696E7420616C6C207265D7
:10173000676973746572732E005475726E206F6ED4
:10174000206F7574707574732028706572206368DB
:10175000616E6E656C292E00526577726974652022
:10176000616C6C207265677320666F7220656E74A1
:1017700069726520626F6172642E00526561642037
:10178000616E6420777269746520636F6D6D616E40
:10179000647320666F7220646562756767696E673F
:1017A0002E004765742F73657420484D432052788E
:1017B0002042756666657220626961732028302058
:1017C00069732064656661756C742C203120666FC6
:1017D000722073696E75736F6469616C202F206E5F
:1017E0006F6E2D4C565045434C20414320636F751E
:1017F000706C696E672E29004765742F73657420BD
:10180000484D43207265666572656E636520696E3A
:1018100070757420646976696465727320287661D6
:101820006C696420646976696465727320617265AD
:10183000203D20325E6E2C206E3D312E2E3529004B
:101840004765742F7365742064656C6179206C69D9
:101850006E6520736574706F696E742E00476574D1
:101860002F73657420746865206F757470757420AB
:101870006C61756E63682070686173652E005365D6
:1018800074206569746865722053594E43206F72E5
:1018900020534C4950207573696E6720535049207E
:1018A000636F6D6D756E69636174696F6E2E00474D
:1018B00065742F736574207468652053594E4320F6
:1018C00064656C617920646976696465722E005381
:1018D000656C65637473206265747765656E2074EA
:1018E00068652074776F20484D4339383820646527
:1018F000766963657320287265666572656E6365D7
:1019000020616E64206C6D6B292E0053657420631A
:101910006C6F636B20646976696465722E00536531
:1019200074204E206469766964657220666F722047
:10193000504C4C2E005365742052206469766964C3
:10194000657220666F7220504C4C2E0053656C659A
:101950006374206469766964657220746F207365AE
:10196000742E00536574206469676974616C206427
:10197000656C617920636C6F636B2E0053656C65D9
:1019800063742064657669636520636C6F636B2E96
:101990000053656C656374204A455344206F722080
:1019A000504C4C2E0052652D73796368726F6E69CE
:1019B0007A65206F757470757420646976696465E2
:1019C00072732066726F6D20626F7468204C4D4B8D
:1019D0007300536574207468652044414320636F2D
:1019E0006E74726F6C6C696E6720584F205672650A
:1019F000662C20302D34303936206672616374696C
:101A00006F6E20566578740049737375652053595D
:101A1000535245462070756C7365732066726F6D06
:101A2000204A4553442E00456E61626C65206578FE
:101A3000742D31304D487A207265666572656E632B
:101A400065202831292E005072696E7473206F75DD
:101A50007420696E20766572626F7365206D6F64A5
:101A6000652E203120746F20656E61626C652E00DA
:101A7000456E7465722074686520626F6F746C6F58
:101A8000616465722E004E6F20617267756D656EC0
:101A900074206E65636573736172792E00414443EF
:101AA00031364458333730004144524636353138A8
:101AB00000484D433833784C5036470052657475B2
:101AC000726E73204D4355206465766963652069A5
:101AD0006E666F726D6174696F6E2E00504C4C2093
:101AE0004C6F636B20446574656374696F6E204D41
:101AF000656368616E69736D2E004865617274621A
:101B000065617420696E7469616C697A6174696F6A
:101B10006E2066756E6374696F6E20746F207365D6
:101B20007420636F756E74657220746F203000438B
:101B30006F6D6D616E6420666F722072657365747F
:101B400074696E6720746865206865617274626587
:101B500061742076616C756520666F7220746865AB
:101B600020525820626F61726400436F6D6D616E28
:101B70006420666F72207072696E74696E6720747B
:101B800068652063757272656E7420686561727431
:101B9000626561742076616C7565206F662074687B
:101BA0006520525820626F6172640053656C6563F2
:101BB000747320474C45206D6F64653A204D435542
:101BC0005F474C45283129206F7220465047415FBE
:101BD000474C452028322900426C696E6B73207493
:101BE0006865204C454420612073706563696669AF
:101BF0006564206E756D626572206F662074696D14
:101C000065732E0050726F76696465732074686521
:101C10002074656D70657261747572652028302D51
:101C200031292E004F757470757473206120313620
:101C30002D62697420726570656174696E672073C6
:101C4000657175656E6365205B302C2032363238E5
:101C5000302C20302C202D32363332385D20667205
:101C60006F6D207468652041444320636F72652E58
:101C700000456E61626C696E672074686520535917
:101C80005352454620646574656374696F6E2067BE
:101C90006174652E203120746F20656E61626C6501
:101CA0002C203020746F2064697361626C6500546D
:101CB0006865204144432077696C6C206F757470AF
:101CC0007574204A455344205465737420506174E0
:101CD0007465726E732E20303A206F66662C203148
:101CE0003A204432312E352C20323A204B32382ED5
:101CF000352C20333A2072707420494C412C20340A
:101D00003A2072616D702C20353A20484947482EA0
:101D100000546865204144432077696C6C20656EEF
:101D200061626C65207468652053595352454620A2
:101D3000646574656374696F6E206761746520669D
:101D40006F72204A45534420696E697469616C69F9
:101D50007A6174696F6E2E0050726F766964657374
:101D60002074686520616D6F756E74206F662052F7
:101D7000414D206C65667420286279746573292E44
:101D8000005072696E7473206F75742074686520DA
:101D9000736F66747761726520616E64206861722A
:101DA00064776172652076657273696F6E2E005478
:101DB00075726E732065766572797468696E6720D6
:101DC0006F66662E005475726E206F6666207065B1
:101DD000726970686572616C732E00506F776572FE
:101DE000206379636C6520706572697068657261E3
:101DF0006C7320616E642072756E7320626F617205
:101E00006420696E69742028706572206368616E51
:101E10006E656C292E005475726E206F6666206F99
:101E20007574707574732028706572206368616EB4
:101E30006E656C292E0052756E7320646961676E41
:101E40006F73746963206F6E207065726970686566
:101E500072616C2028706572206368616E6E656CBB
:101E6000292E2053686F756C64207072696E74201F
:101E7000616C6C207265676973746572732E0054AF
:101E800075726E206F6E206F757470757473202874
:101E9000706572206368616E6E656C292E005265F4
:101EA000777269746520616C6C2072656773206657
:101EB0006F7220656E7469726520626F6172642E44
:101EC0000044756D707320616C6C207468652072BD
:101ED000656769737465727320666F7220746865D4
:101EE0002041445246363531380044756D707320B8
:101EF0007468652072656769737465727320666FB4
:101F0000722074686520726567756C617220616EFD
:101F100064205246204750494F580044756D7073F5
:101F200020616C6C207468652072656769737465E4
:101F3000727320666F7220746865204144433136A5
:101F400044583337302E00414446343335352F4121
:101F5000444635333535206175746F63616C206597
:101F60006E61626C6520283120666F7220656E613B
:101F7000626C65293E3E00414446343335352F417D
:101F800044463533353520446972656374205265A3
:101F900067697374657220416363657373203C3CA9
:101FA000323862697420646174613E3C34626974E1
:101FB00020616464726573733E3E0053656C6563B3
:101FC00074732044534120417474656E7561746963
:101FD0006F6E2C2028303A203064426D202D3E2038
:101FE0003132373A2033312E373564426D29005370
:101FF000656C65637420504C4C204F75747075741B
:1020000020506F7765722028303A202D3464426D5D
:102010002C20313A202D3164426D2C20323A20326E
:1020200064426D2C20333A203564426D29004D7591
:1020300074657320746865204C4F20467265717515
:10204000656E63792053796E74686573697A657219
:10205000207768656E20757365640053656C6563F1
:1020600074732074686520636F72726563742046B0
:10207000696C7465722042616E6B20666F722061BC
:1020800020676976656E206672657175656E637925
:1020900020696E206B487A00456E61626C652F4442
:1020A000697361626C652056434F204F757470757B
:1020B00074204672657175656E637920446F756230
:1020C0006C65720053657420504C4C2056434F2071
:1020D0004F757470757420446976696465722076F2
:1020E000616C75652E20312C20322C20342C20364A
:1020F000202E2E2036320053657420504C4C204642
:102100006565646261636B20446976696465722009
:1021100076616C75652E20313620746F203532342F
:102120003235350053657420504C4C20496E707523
:102130007420446976696465722076616C75652ED9
:10214000203120746F2031363338330053656C658D
:102150006374207468652074617267657420504CE4
:102160004C2028302920484D43383330202831294D
:1021700020484D43383333005365747320426173F4
:10218000652042616E64205661726163746F7220D3
:10219000766F6C746167652028302D3430393629AC
:1021A000203056202D20322E355600504C4C2049E0
:1021B0006E707574205265666572656E6365204643
:1021C00072657175656E637900537765657073200C
:1021D000484D43383333206672657175656E637997
:1021E0002066726F6D20302E3247487A20746F203F
:1021F0003647487A20776974682061207374657067
:10220000206F662031304D487A0053657473206624
:10221000726571206F6620484D43383333206F75E7
:10222000747075742C20696E204B487A2E004279A8
:102230007061737320746865204C4E41206F6E206E
:1022400074686520686967682062616E642E204248
:10225000797061737328312920746865204C4E4170
:10226000206F72206E6F742830292E0043686F6FC4
:1022700073652074686520686967682028302E358A
:102280002D362047487A29206F72206C6F772028DE
:102290004443202D20302E352047487A2920626182
:1022A0006E642E2048696768283129206F72206C7F
:1022B0006F772830292E00536574205647412773C5
:1022C000207077722D6D6F64652062617365642084
:1022D0006F6E204C5020636F726E6572206672655F
:1022E000712E20312069662066696C746572206DDC
:1022F0006F646520616E642033314D487A203C2044
:1023000042572C20656C7365203630204D487A206A
:102310003C2042570053657420564741277320697B
:102320006E70757420616E616C6F67206174746586
:102330006E756174696F6E20696E2064422E20474D
:102340006F6573207468726F756768204144353615
:102350003234522E00536574205647412773207043
:102360006F737420616D70206761696E2E20302D4F
:10237000313A20332F3964422E005365742056477A
:1023800041277320616E616C6F67206761696E2EF3
:1023900020302E31644220636F6E74726F6C6C65F6
:1023A000642C20496E7075743A2030202D2037320D
:1023B0003020282D3130326442202D202D333064DE
:1023C000422900536574205647412773206469678A
:1023D0006974616C206761696E2E203364422069E4
:1023E0006E6372656D656E74732C20496E707574C2
:1023F0003A2030202D2038202834326442202D20ED
:10240000363664422900436865636B20696620564E
:102410004741206761696E20697320746F6F20489F
:1024200069676820666F7220746865204144432E96
:102430002028303A204E6F2C20313A2059657329DC
:102440000053656C65637420564741204368616E94
:102450006E656C2028303A20426F74682C20493A0F
:1024600020312C20513A20322900476574205647EC
:10247000412773206761696E2E00536574205647AB
:10248000412773206761696E2E202843616C6C734D
:1024900020646761696E20616E6420616761696EA6
:1024A000292E20496E7075743A2030202D20393540
:1024B00020282D36306442202D20333564422900F7
:1024C000536574205647412773204C5020636F7228
:1024D0006E6572206672657120696E204D487A2E95
:1024E00000427970617373207468652056474127F4
:1024F00073204C502066696C7465722E20312074F4
:102500006F20656E61626C652E004E756C6C207478
:102510006865205647412773206F75747075742065
:102520004443206F6666736574732E203120746F88
:1025300020656E61626C652E005370656369667913
:10254000207768696368206368616E6E656C2061DE
:102550002C622C632C64204F5220626974206D61C0
:10256000736B2E204D5553542073706563696679E3
:102570002066697273742E005072696E7473206FD6
:10258000757420696E20766572626F7365206D6F59
:1025900064652E203120746F20656E61626C652E3B
:1025A000004E6F20617267756D656E74206E656395
:1025B0006573736172792E00456E7465722074685C
:1025C0006520626F6F746C6F616465722E00484D98
:1025D000433833784C5036470044414333384A3807
:1025E000340053656C65637420474C45206D6F64FF
:1025F000653A204D43555F474C45283129204650C8
:1026000047415F474C4528322900456E61626C6541
:1026100073204A455344205359535245462047613D
:102620007465004F757470757420656E61626C65B9
:10263000283129206F722064697361626C652830CB
:10264000292E0050726F7669646573207468652066
:10265000616D6F756E74206F662052414D206C6500
:10266000667420286279746573292E0050726F7623
:1026700069646573207468652074656D7065726146
:10268000747572652028302D31292E00426C696ED8
:102690006B7320746865204C45442061207370651D
:1026A000636966696564206E756D626572206F6628
:1026B0002074696D65732E005072696E7473206F9B
:1026C00075742074686520736F6674776172652015
:1026D000616E6420686172647761726520766572EC
:1026E00073696F6E2E005475726E73206576657215
:1026F000797468696E67206F66662E005475726E15
:10270000206F6666207065726970686572616C73AF
:102710002E00506F776572206379636C6520706559
:10272000726970686572616C7320616E6420727585
:102730006E7320626F61726420696E697420287004
:102740006572206368616E6E656C292E0054757227
:102750006E206F6666206F757470757473202870B4
:102760006572206368616E6E656C292E0052756E0D
:102770007320646961676E6F73746963206F6E2084
:102780007065726970686572616C2028706572206E
:102790006368616E6E656C292E2053686F756C647A
:1027A000207072696E7420616C6C20726567697349
:1027B000746572732E005475726E206F6E206F7583
:1027C00074707574732028706572206368616E6E12
:1027D000656C292E005265777269746520616C6C96
:1027E000207265677320666F7220656E746972650A
:1027F00020626F6172642E0052657475726E732070
:102800004D43552064657669636520696E666F7215
:102810006D6174696F6E2E004C6F636B204465743C
:10282000656374696F6E204D656368616E69736D71
:102830000048656172746265617420696E697469CB
:10284000616C697A6174696F6E2066756E63746914
:102850006F6E20746F2073657420636F756E74657E
:102860007220746F203000436F6D6D616E6420665E
:102870006F7220726573657474696E672074686521
:102880002063757272656E7420686561727462652A
:1028900061742076616C7565206F662054582062E3
:1028A0006F61726400436F6D6D616E6420666F725C
:1028B000207468652063757272656E742068656146
:1028C0007274626561742076616C7565206F662034
:1028D00074686520545820626F6172640044756D9D
:1028E00070732074686520726567697374657273AC
:1028F00020666F72207468652044414333384A383B
:10290000340044756D707320746865207265676962
:10291000737465727320666F7220746865207265C7
:1029200067756C617220616E642052462047504981
:102930004F5800414446343335352F4144463533F2
:102940003535206175746F63616C20656E61626CF2
:102950006520283120666F7220656E61626C652982
:102960003E3E00414446343335352F4144463533ED
:1029700035352044697265637420526567697374E4
:10298000657220416363657373203C3C3238626931
:102990007420646174613E3C3462697420616464D3
:1029A000726573733E3E00524620417474656E75C5
:1029B00061746F722053657474696E672028303AB1
:1029C00020306442202D3E203132373A202D3331E1
:1029D0002E373564422900504C4C204F7574707569
:1029E0007420506F7765722028303A202D3464426D
:1029F0006D2C20313A202D3164426D2C20323A204A
:102A00002B3264426D2C20333A202B3564426D29E1
:102A10000053656C656374732074686520636F721E
:102A2000726563742046696C7465722042616E6BD6
:102A300020666F72206120676976656E2066726518
:102A40007175656E637920696E206B487A004D75EB
:102A500074657320746865204C4F204672657175EB
:102A6000656E63792053796E74686573697A6572EF
:102A7000207768656E207573656400456E61626CD1
:102A8000652F44697361626C652056434F204F7512
:102A900074707574204672657175656E6379204433
:102AA0006F75626C65720053657420504C4C2056F3
:102AB000434F204F7574707574204469766964655E
:102AC000722076616C75652E20312C20322C2034DA
:102AD0002C2036202E2E2036320053657420504C88
:102AE0004C20466565646261636B20446976696465
:102AF00065722076616C75652E20313620746F20EA
:102B00003532343235350053657420504C4C2049F1
:102B10006E70757420446976696465722076616CA4
:102B200075652E203120746F2031363338330053D1
:102B3000656C656374207468652074617267657480
:102B400020504C4C2028302920484D433833302029
:102B500028312920484D43383333004E656564736E
:102B600020746F2062652063616C6C6564206C6109
:102B700073742E2053657473207468652049512046
:102B80004D6F64756C61746F722E202869652E20FC
:102B90002D69203137202D71203133202D6D2900F2
:102BA00053657420746865204951204D6F64756CBD
:102BB00061746F722051206269617320766F6C744A
:102BC0006167652028696E2064562C2066726F6DDF
:102BD00020302D3234206456292E00536574207421
:102BE0006865204951204D6F64756C61746F722067
:102BF00049206269617320766F6C74616765202873
:102C0000696E2064562C2066726F6D20302D323430
:102C1000206456292E00504C4C2052656665726522
:102C20006E636520496E7075742028696E206B484C
:102C30007A2900536574732066726571206F66206F
:102C4000484D43383333206F75747075742C206988
:102C50006E204B487A2E004279706173732074683D
:102C600065204C4E41206F6E20746865206869674E
:102C7000682062616E642E2042797061737328311E
:102C80002920746865204C4E41206F72206E6F744D
:102C90002830292E0043686F6F73652074686520A3
:102CA000686967682028302E352D362047487A29F4
:102CB000206F72206C6F7720284443202D20302E07
:102CC000352047487A292062616E642E2048696762
:102CD00068283129206F72206C6F772830292E00E8
:102CE00052657475726E7320746865206F72276404
:102CF000206C616E65206572726F7273206F662042
:102D00007468652066697273742034206C616E6526
:102D10007300536574207468652073656C65637413
:102D20006564205461702076616C756520666F72F1
:102D30002074686520536D616C6C20467261637409
:102D4000696F6E616C2044656C617900536D616CD4
:102D50006C204672616374696F6E616C2044656CAF
:102D60006179205461702073656C6563746F7200C3
:102D70004C61726765204672616374696F6E616C45
:102D80002044656C61792C20436F656666696369D0
:102D9000656E74205365742073656C656374696F28
:102DA0006E2E2028496E20446174617368656574D5
:102DB00029005365742074686520446974686572DD
:102DC00020416D706C69747564652C2030206973C6
:102DD000204D6178696D756D2028342062697473A7
:102DE0002900456E61626C652F44697361626C6590
:102DF00020446974686572204D6978657200456E7B
:102E000061626C652F44697361626C65204469740A
:102E1000686572696E6700456E61626C652F446912
:102E20007361626C6520496E7665727365205369C3
:102E30006E632046696C74657200536D616C6C2022
:102E40004672616374696F6E616C2044656C617970
:102E500020506174682053657474696E6773005301
:102E60006D616C6C204672616374696F6E616C2079
:102E700044656C61792053657474696E6773004CA6
:102E800061726765204672616374696F6E616C2060
:102E900044656C61792053657474696E6773005181
:102EA0004D43207068617365206F66667365742C8E
:102EB000203132626974732C202D302E35202D2064
:102EC000302E34393937352C20726566657220749E
:102ED0006F2064617461736865657400514D4320AF
:102EE0006761696E206F66667365742C203131628C
:102EF0006974732C20646563696D616C20706E74F5
:102F00002040206C656674206F6620626974392CDD
:102F10002072616E67652030202D20312E393939BD
:102F2000302C204C53423D302E303030393736363D
:102F300000514D43204443206F66667365742C2016
:102F40003133626974732C206D65617375726564C9
:102F500020696E20444143204C5342277300496E40
:102F6000697469616C697A657320616E6420636F4E
:102F70006E6669677572657320746865204A45538B
:102F800044206C696E6B2E0044756D70206F7574F3
:102F900020616C6C206F66207468652072656769BB
:102FA00073746572732E00476574732074686520AE
:102FB00074656D7065726174757265206F662074DA
:102FC0006865204441432E00456E61626C65207443
:102FD0006865206D697865722E203120746F2065D8
:102FE0006E61626C652E0053657420746865204EB6
:102FF000434F206C6F7765722033322D6269747392
:103000002072656769737465722C207772697465C4
:1030100020746F2075707065722033322D62697470
:103020007320666972737421212A2A005365742003
:10303000746865204E434F2075707065722033327E
:103040002D626974732072656769737465722E00EE
:103050005370656369667920776869636820696E73
:103060007465726E616C20444143206368616E6ECA
:10307000656C3A2028302D332920412D442E0053F1
:103080007065636966792077686963682063686141
:103090006E6E656C20612C622C632C642C204F5268
:1030A00020626974206D61736B2E204D555354203E
:1030B000737065636966792066697273742E003176
:1030C00010E50FB50F850F5A0F300F090FC70E9B74
:1030D0000E760E620E310E090EE911C6119B118497
:1030E0001142110F11EA10D610A5107D1060133D8A
:1030F000131213F012AE128912751244121C124FE1
:103100001478148F14AC14A51489155715211505BE
:1031100015D514B51458173917F016B5169F16891A
:10312000165B162F160F16E615B31591197B17CFE0
:1031300018AF187E185D184018F817A21791194C8F
:103140001935191E190B1991197C19631991197CDC
:10315000196319081AA519271A081AD219471A70DB
:103160001A861A3925B11AA81A9D1A39256A1B2FF1
:103170001BFA1ADC1ABC1A39259E1E7F1E361E1633
:103180001EDB1DC51DAF1D811D581D111DAF1C71FE
:103190001C241C041CD81BAB1B39251B1FEA1EC199
:1031A0001E39256C222E220A22C921AB2178214CFE
:1031B000212421F720C42098205B202E20EF1FBB64
:1031C0001F771F471F39250A25E124C0247A246A66
:1031D0002441240624C3237A2355231523B72278B8
:1031E00025A125B8257F30D925CE257F30D527B616
:1031F000276D274D271227FC26E626B8268C266C3D
:1032000026432623260A26E2257F30A52867283173
:10321000281828F8277F300229DD287F30952C5781
:103220002C332C162CDB2BA02B5B2B2F2B072BDA14
:103230002AA72A7B2A4E2A112AD729A729632933AC
:10324000297F3050302C30E72FC82FA72F882F5ED2
:103250002F312FDC2E9F2E7F2E5F2E3A2E172EFE23
:103260002DE22DB22D702D4C2D122DE02C001124AD
:103270001FBECFEFCDBFDFE5DEBF00E00CBF1DE21C
:10328000A0E0B0E2E4EAF0E301E00BBF02C0079087
:103290000D92A63AB107D9F716E3A6EABDE201C03E
:1032A0001D92A032B107E1F70E94A78D0C945098AF
:1032B0000C940000CF93DF93E091B52DF091B62DE3
:1032C000A091B72DB091B82D8091BB2D9091BC2DC0
:1032D00018962D913C9119978217930718F5169619
:1032E0004D915C9117979C012F5F3F4F2093BB2D11
:1032F0003093BC2D2781EA01C80FD91F2883209164
:10330000BB2D3091BC2D18968D919C911997281743
:10331000390718F482E083830AC087E08383109220
:10332000BF2D05C083E0838389EF8093BF2DDF919C
:10333000CF910895E091B52DF091B62DA091B72DC4
:10334000B091B82D8091B92D9091BA2D14962D91F0
:103350003C9115978217930764F49C012F5F3F4FB0
:103360002093B92D3093BA2DA80FB91F11968C91C7
:1033700022C08091BB2D9091BC2D18962D913C912F
:10338000199782179307C8F42091BD2D222321F0AD
:10339000868181608683089516962D913C911797BA
:1033A000AC014F5F5F4F4093BB2D5093BC2DD901B3
:1033B000A80FB91F8C918783089583E083831092AF
:1033C000BF2D0895FC019481937081E0913009F044
:1033D00080E008958091BF2D8038E1F38091B52D74
:1033E0009091B62D0E94E219811101C0F7CF809112
:1033F000BF2D1092BE2D08958FBF08958FB7F894FA
:1034000008959091BE2D992319F081110DC0FFCF21
:103410000E94FE1991E09093BE2D90E89093BF2DED
:103420000E94FC1980E0089586EF089560E078E43A
:1034300088EE91E008950C94161A0C941B1A0C94C3
:103440001D1A0C941F1ADC01ED91FC911197486331
:103450004087ED91FC91660F63870895FC016083BE
:1034600071834283538324833583DC01AA5BBF4F7E
:103470001C9211961C9211961C9211961C92E25B62
:10348000FF4F10820895FF920F931F93CF93DF9306
:10349000009771F16115710559F1F42EEB018C0162
:1034A0008A850E94011A811124C00093B52D1093C2
:1034B000B62DC093B72DD093B82D1092B92D109280
:1034C000BA2D1092BB2D1092BC2DF092BD2D88818B
:1034D000880F2C813D81232B11F4F1108160F801BC
:1034E0008683DF91CF911F910F91FF900C94EA1981
:1034F00088EFDF91CF911F910F91FF9008950C9469
:10350000431ADF92EF92FF920F931F93CF93DF93B3
:103510001F92CDB7DEB78C01DC011296ED90FC90C6
:1035200013971092AB2D1092AE2D1092AF2D609389
:10353000B02D7093B12D842F90E08093B22D909395
:10354000B32D1092B42DD12CF8018085D81630F50A
:10355000D8011696ED91FC911797608170E08D2D42
:1035600090E00D2C02C0759567950A94E2F760FF14
:1035700017C01496ED91FC911597E80FF91F808103
:103580008093AA2D422F6AEA7DE2C70129830E9417
:103590007F1A2981811106C0222311F080E003C027
:1035A000D394D2CF81E00F90DF91CF911F910F91F3
:1035B000FF90EF90DF900895CF92DF92EF92FF920D
:1035C0000F931F93CF93DF936C017B018A01FB0163
:1035D000C1818FEF8C0F8F3020F081E0F801808364
:1035E0004EC0FB012481822F6C2F0E944A8F9111C3
:1035F000F4CF211102C0C0E019C0D0E0F7018481EE
:103600006C2F0E944A8FD817B0F7F701628173813F
:10361000DC9F600D711D112420E04C2FC6010E941B
:10362000811A811102C0DF5FE9CFC1E0F801D181C9
:10363000D03110F184818823F9F0DF506D2F0E9482
:103640004A8F9111CACFF12CF80184816D2F0E940D
:103650004A8FF81688F4F80162817381FD9E600D2F
:10366000711D112421E04D2FC6010E94811A811184
:1036700002C0F394E9CFC1E0F801C0838C2FDF9141
:10368000CF911F910F91FF90EF90DF90CF90089511
:10369000FC01DB0114968C91858388EB818381E0AA
:1036A0008483E5EBFDE211861286E0EAF0E0828198
:1036B00082608283789480E00895E091B52DF09146
:1036C000B62D848183FF06C08860848383E0838372
:1036D00086EF0EC0982F947121F083E083838FEFE3
:1036E00007C086FD0C949A1987FD0C945A198BEF2C
:1036F0008093BF2D08951F920F920FB60F92112441
:103700000BB60F922F933F934F935F936F937F93DB
:103710008F939F93AF93BF93EF93FF930E945D1B93
:10372000FF91EF91BF91AF919F918F917F916F9199
:103730005F914F913F912F910F900BBE0F900FBE55
:103740000F901F9018951F920F920FB60F92112491
:103750000BB60F922F933F934F935F936F937F938B
:103760008F939F93AF93BF93EF93FF930E945D1B43
:10377000FF91EF91BF91AF919F918F917F916F9149
:103780005F914F913F912F910F900BBE0F900FBE05
:103790000F901F901895CF93DF931F92CDB7DEB790
:1037A0006983FC01E65BFF4FBE016F5F7F4F808145
:1037B00091810E94963591E089270F90DF91CF91FA
:1037C0000895FB01108283E1818384E08483A281D8
:1037D000B3811C92A281B38111961C92A281B38104
:1037E00012961C920280F381E02D43830895EF929C
:1037F000FF920F931F93FC01108284E081838483E6
:10380000A281B3811C93A281B38111960C93A281F2
:10381000B3811296FC920280F381E02D8E2D807F81
:103820004F70482B4383FB0114821F910F91FF902F
:10383000EF9008958823A9F020E030E090E0482F31
:1038400050E0BA01022E02C0759567950A94E2F71E
:1038500060FD922F2F5F3F4F2730310591F7892F61
:10386000089583E0089590E08031910588F5FC018A
:103870008827EC50FF4F8F4F0C945B9086E792E0C7
:10388000089582EE94E0089588E196E0089588E531
:1038900097E008958EE898E0089584EC99E0089503
:1038A0008AEF9AE008958AE39CE0089580E79DE01E
:1038B000089586EA9EE008958CED9FE008958CE1DE
:1038C00091E1089582E592E1089588E893E10895F1
:1038D0008CEA93E0089586E391E008950F931F9397
:1038E000CF93DF93009709F4F0C06115710509F4D7
:1038F000EEC0EB018C0160E00E94927981110CC056
:103900008091A62D9091A72DA091A82DB091A92DC1
:1039100088839983AA83BB8361E0C8010E9492795E
:1039200081110CC08091A62D9091A72DA091A82D5A
:10393000B091A92D8C839D83AE83BF8362E0C801C3
:103940000E94927981110CC08091A62D9091A72D93
:10395000A091A82DB091A92D88879987AA87BB87A8
:1039600063E0C8010E94927981110CC08091A62D5C
:103970009091A72DA091A82DB091A92D8C879D87FE
:10398000AE87BF8764E0C8010E94927981110CC0A4
:103990008091A62D9091A72DA091A82DB091A92D31
:1039A000888B998BAA8BBB8B65E0C8010E949279AA
:1039B00081110CC08091A62D9091A72DA091A82DCA
:1039C000B091A92D8C8B9D8BAE8BBF8B66E0C8010F
:1039D0000E94927981110CC08091A62D9091A72D03
:1039E000A091A82DB091A92D888F998FAA8FBB8FF8
:1039F00067E0C8010E94927981110CC08091A62DC8
:103A00009091A72DA091A82DB091A92D8C8F9D8F5D
:103A1000AE8FBF8F68E0C8010E94927981110CC0FF
:103A20008091A62D9091A72DA091A82DB091A92DA0
:103A300088A399A3AAA3BBA369E0C8010E949279B5
:103A400081110CC08091A62D9091A72DA091A82D39
:103A5000B091A92D8CA39DA3AEA3BFA36AE0C8011A
:103A60000E94927981110CC08091A62D9091A72D72
:103A7000A091A82DB091A92D88A799A7AAA7BBA707
:103A80006BE0C8010E94927981110CC08091A62D33
:103A90009091A72DA091A82DB091A92D8CA79DA79D
:103AA000AEA7BFA76CE0C8010E949279811111C036
:103AB0004091A62D5091A72D6091A82D7091A92D10
:103AC00048AB59AB6AAB7BAB05C081E003C083E078
:103AD00001C080E0DF91CF911F910F9108958F92E7
:103AE0009F92AF92BF92CF92DF92EF92FF920F938D
:103AF0004A015B0120EF8222642F6F70CC24CA94AC
:103B0000DC2C760100E0A50194010E94CD7E80E0CE
:103B10000F91FF90EF90DF90CF90BF90AF909F906C
:103B20008F900895CF92DF92EF92FF920F930097BC
:103B300029F14115510521E06207710550F4411545
:103B400051056105710549F441E050E060E070E025
:103B500004C04FEF5FEF60E070E0BA0155274427E3
:103B60009A01AB0120613460CC24CA94DC2C76012C
:103B700000E06CE00E94CD7E80E001C081E00F910A
:103B8000FF90EF90DF90CF900895CF92DF92EF9269
:103B9000FF920F931F930097C9F1C22E062F10E0DA
:103BA00020E030E054E0000F111F221F331F5A9510
:103BB000D1F72066D12CE12CF12C6CE0CC0CDD1C73
:103BC000EE1CFF1C6A95D1F7EE24FF240C291D2959
:103BD0002E293F2950E060E070E0BA0155274427C4
:103BE000442755276F70772768017901C42AD52AA1
:103BF000E62AF72AA7019601CC24CA94DC2C760188
:103C000000E06BE00E94CD7E80E001C081E01F916A
:103C10000F91FF90EF90DF90CF900895CF92DF92B9
:103C2000EF92FF920F93009771F0CC24CA94DC2C92
:103C3000760100E02BE030E341E650E06BE00E94CB
:103C4000CD7E80E001C081E00F91FF90EF90DF908A
:103C5000CF900895CF92DF92EF92FF920F931F9330
:103C6000009709F463C0C02E522F0E2D10E020E003
:103C700030E074E0000F111F221F331F7A95D1F737
:103C80000071112722273327206CD12CE12CF12C35
:103C9000E5E0CC0CDD1CEE1CFF1CEA95D1F770E2D0
:103CA000C722DD24EE24FF240C291D292E293F29BB
:103CB000C52ED12CE12CF12CF6E0CC0CDD1CEE1C39
:103CC000FF1CFA95D1F70C291D292E293F29C62E54
:103CD000D12CE12CF12CADE1CC0CDD1CEE1CFF1C39
:103CE000AA95D1F70C291D292E293F2950E060E023
:103CF00070E0BAE1440F551F661F771FBA95D1F7E0
:103D00004427552766277C7168017901C42AD52A82
:103D1000E62AF72AA7019601CC24CA94DC2C760166
:103D200000E06AE00E94CD7E80E001C081E01F914A
:103D30000F91FF90EF90DF90CF900895CF92DF9298
:103D4000EF92FF920F931F93009709F44AC06623E6
:103D500009F449C0423008F046C0223008F043C0A0
:103D6000042FE62F422F50E060E070E024E0440F83
:103D7000551F661F771F2A95D1F740715527662773
:103D80007727606C10E020E030E0F5E0000F111FB5
:103D9000221F331FFA95D1F70072112722273327EC
:103DA000402B512B622B732B0E2F10E020E030E0C4
:103DB000A6E0000F111F221F331FAA95D1F76A0139
:103DC0007B01C02AD12AE22AF32AA7019601CC243A
:103DD000CA94DC2C760100E06AE00E94CD7E80E08F
:103DE00003C081E001C083E01F910F91FF90EF902D
:103DF000DF90CF9008958F929F92AF92BF92CF9213
:103E0000DF92EF92FF920F931F9349015A014E2DBB
:103E1000009709F463C0611101C061E0003220F431
:103E2000011103C001E001C00FE1403220F4411153
:103E300003C041E001C04FE1811424E09206A104D7
:103E4000B10450F481149104A104B10459F4812CFB
:103E5000912C5401839406C088248A9413E0912EF7
:103E6000A12CB12C10E020E030E059E0000F111F30
:103E7000221F331F5A95D1F700271E73222733279D
:103E8000362B50E060E070E0E4E0440F551F661F01
:103E9000771FEA95D1F7407F517066277727042B6B
:103EA000152B262B372BFEE0880C991CAA1CBB1C5B
:103EB000FA95D1F7882440EC9422BB24A9019801FB
:103EC000282939294A295B29CC24CA94DC2C76017B
:103ED00000E069E00E94CD7E80E001C081E01F919A
:103EE0000F91FF90EF90DF90CF90BF90AF909F9099
:103EF0008F900895CF92DF92EF92FF920F930097E9
:103F000071F0CC24CA94DC2C760100E028E234E085
:103F10004DE250E168E00E94CD7E80E001C081E08A
:103F20000F91FF90EF90DF90CF9008958F929F9226
:103F3000AF92BF92CF92DF92EF92FF920F931F93B7
:103F4000FC01942F309709F48AC0623008F089C0D0
:103F5000422F243008F043E0023008F082C03E2DAA
:103F6000343008F033E021E02C1508F47AC08C2CB2
:103F7000C92ECF01D12CE12CF12C2CE0CC0CDD1C76
:103F8000EE1CFF1C2A95D1F7CC2420E7D222EE2488
:103F9000FF246894F4F8912CA12CB12C54E0880CE7
:103FA000991CAA1CBB1C5A95D1F720E182229924A6
:103FB000AA24BB24C828D928EA28FB28802E912CC3
:103FC000A12CB12C77E0880C991CAA1CBB1C7A95FB
:103FD000D1F7C828D928EA28FB28832E912CA12CB8
:103FE000B12CE5E0880C991CAA1CBB1CEA95D1F702
:103FF00020E682229924AA24BB24C828D928EA28AA
:10400000FB28062F10E020E030E0F9E1000F111F3F
:10401000221F331FFA95D1F700271127222732706C
:10402000C02AD12AE22AF32A50E060E070E0762F1D
:10403000652F542F442744275370662777279A010A
:10404000AB012C293D294E295F29CC24CA94DC2CB4
:10405000760100E067E00E94CD7E80E003C081E051
:1040600001C083E01F910F91FF90EF90DF90CF9000
:10407000BF90AF909F908F9008950F931F93CF9311
:10408000DF93DC01ED91FC9111972085246020875E
:104090008C010A5B1F4FF8012081ED91FC912032C9
:1040A00018F5EC018485D8019C91FE01E90FF11D02
:1040B0008683EA81FB811995F80180818F5F808377
:1040C000085F1F4FD8018C91E881F981882349F05E
:1040D00082E0818766E0CE010E94F688F8011082B6
:1040E0000CC083E0818709C026E0218762E0DF9170
:1040F000CF911F910F910C94F688DF91CF911F9172
:104100000F910895CF93DF93EC01E881F9818085C9
:104110008B7F8087E881F981828580648287EC814A
:10412000FD81199561E0CE01DF91CF910C94F68865
:10413000CF93DF93EC01C25BDF4F2881DC01ED916F
:10414000FC91222339F022E0218766E00E94F68864
:10415000188215C0DC01A85BBF4F21E02C9311969B
:104160001C9220852B7F2087FC01EA5BFF4F108289
:1041700031961082DC01ED91FC9183E08187DF9123
:10418000CF910895DC01ED91FC91228521FD0C94E5
:10419000FD880C943D20DC01ED91FC91228522FFED
:1041A00009C0FC01EA5BFF4F108231961082329603
:1041B00024E00AC023FF0CC0FC01EA5BFF4F108221
:1041C00031961082329623E0208331971082089531
:1041D00026FF05C020FD0C9498200C94822027FD1A
:1041E0000C94C22065E00C94F688009709F4C6C0D0
:1041F000803C910511F460E105C0811524E092072F
:1042000019F464E080E0B8C0803821E0920711F42E
:1042100062E0F8CF811521E0920711F461E0F2CF5E
:10422000803823E0920711F461E00BC0803923E06D
:10423000920711F461E012C0811522E0920719F48F
:1042400062E081E099C0803422E0920711F462E0DC
:1042500005C0803223E0920719F464E082E08CC04C
:10426000811528E0920711F461E07FC0811529E0F3
:10427000920711F461E06CC081152AE0920711F4F5
:1042800061E079C081152BE0920711F461E053C021
:10429000803428E0920711F462E067C0803429E09E
:1042A000920711F462E054C080342AE0920711F4BE
:1042B00062E061C0803928E0920711F464E055C0E3
:1042C000803929E0920711F464E042C080392AE085
:1042D000920711F464E04FC080392BE0920711F48B
:1042E00064E029C0803C28E0920711F468E03DC0FA
:1042F000803C29E0920711F468E02AC0803C2AE063
:10430000920711F468E037C0803A28E0920711F470
:1043100060E12BC0803A29E0920711F460E118C0F7
:10432000803A2AE0920711F460E125C0803A2BE040
:10433000920719F460E186E01FC0803B28E09207F5
:1043400011F460E212C0803B29E0920719F460E2A8
:1043500084E012C0803B2AE0920711F460E20BC0B7
:10436000803824E0920719F460E483E005C0803AC5
:10437000944021F460E485E00C94163508956F9222
:104380007F928F929F92AF92BF92CF92EF920F93B4
:104390001F93CF93DF935C014B01EA0139010E9427
:1043A000211AF4012081318142815381220F331F70
:1043B000441F551F0E94568FDA01C9010597A109B4
:1043C000B109F40184839583A683B783C5010E9454
:1043D000F5209801A301B501CE010E942E1A4C2DA3
:1043E0006E2DCE01DF91CF911F910F91EF90CF9065
:1043F000BF90AF909F908F907F906F900C94231AF6
:10440000CF92DF92EF92FF920F931F93CF93DF93A0
:104410008C01EB010E94211AC880D980EA80FB80C0
:10442000A7019601220F331F441F551F0E94568F6C
:10443000DA01C9010597A109B1098C839D83AE8377
:10444000BF83C8010E94F520BE01C8010E94481B1D
:10445000992787FD9095DF91CF911F910F91FF9044
:10446000EF90DF90CF900895BF92CF92DF92EF92BE
:10447000FF920F931F93CF93DF936623F9F0D62E0D
:10448000EC01F12CF8E3BF2E88819981009791F11E
:1044900049895A89BE016C5F7F4F4115510581F4EE
:1044A000EA81FB81B08AEA81FB81B18A88819981A6
:1044B0000E940022F3946896FD10E6CF80E01BC0B6
:1044C0000D891E892B893C89E0ECCE2EEF880E9455
:1044D000BF21E989FA898F859889E65BFF4F808340
:1044E0009183E989FA898D859E85E45BFF4F8083FE
:1044F0009183E0CF8F2DDF91CF911F910F91FF908E
:10450000EF90DF90CF90BF9008958F92AF92CF92AF
:10451000EF920F931F93CF93DF93009731F1EC014C
:104520001F9281E08F938F938F9388248394AA2482
:10453000A39482E0C82EEE24E39401E010E020E092
:1045400040E060E0CE010E94216F66E070E0CE01A5
:104550000E942C7260E070E0CE010E942C720F90DD
:104560000F900F900F9080E001C081E0DF91CF911C
:104570001F910F91EF90CF90AF908F90089500977B
:1045800021F00E94852280E0089581E008950C9436
:10459000BF228F92AF92CF92EF92FF920F931F9311
:1045A000009799F0812C23E0A22ECC24C39430E60E
:1045B000E32EF12C01E010E020E438E74DE751E074
:1045C00060E00E94217580E001C081E01F910F91A1
:1045D000FF90EF90CF90AF908F9008950F931F931F
:1045E000CF93009711F1683010F541155105F9F09E
:1045F0008A01C62F69E40E94095281111AC020E085
:1046000031E00C2E02C0220F331F0A94E2F7E09132
:10461000DD2DF091DE2D2E233F2302C03695279508
:10462000CA95E2F7F801208305C081E003C083E06A
:1046300001C082E0CF911F910F910895DF92EF9218
:10464000FF920F931F93CF93DF931F92CDB7DEB7E7
:10465000009701F1423000F56830F0F4D42E262F97
:104660007C016AE429830E940952382F2981811133
:1046700015C000E011E0022E02C0000F111F0A94C5
:10468000E2F74D2D50E06AE4C70139830E943C52A5
:10469000398105C031E003C033E001C032E0832F2F
:1046A0000F90DF91CF911F910F91FF90EF90DF90CE
:1046B00008950F931F93CF930097A9F16830A8F541
:1046C0004115510591F18A01C62F643060F46FE500
:1046D0000E940952882311F082E028C094E0C99F0B
:1046E000B00111240AC0C45060E60E940952811131
:1046F000F3CFF4E0CF9FB001112427E030E0062E85
:1047000002C0220F331F0A94E2F74091DD2D509131
:10471000DE2D2423352302C0369527956A95E2F7CE
:10472000F801208303C081E001C083E0CF911F9195
:104730000F910895EF92FF920F931F93CF93DF9302
:10474000009709F443C0683008F042C0483008F0D0
:104750003FC0142FC62F7C016430D8F46FE50E944F
:104760000952D82F882311F0D2E033C084E0C89FCB
:104770009001112487E090E002C0880F991F2A95CC
:10478000E2F72C2F220F220F412F50E08C016FE512
:1047900019C0C45060E60E940952D82F8111E4CF9D
:1047A00084E0C89F9001112487E090E002C0880F48
:1047B000991F2A95E2F72C2F220F220F412F50E04C
:1047C0008C0160E6C7010E943C5203C0D1E001C0E9
:1047D000D3E08D2FDF91CF911F910F91FF90EF903C
:1047E00008950F931F93CF93009719F1683018F530
:1047F0004115510501F18A01C62FCC0F69E40E94D1
:10480000095281111AC023E030E00C2E02C0220FA1
:10481000331F0A94E2F74091DD2D5091DE2D2423C1
:10482000352302C036952795CA95E2F7F801208313
:1048300005C081E003C083E001C082E0CF911F91F9
:104840000F910895DF92EF92FF920F931F93CF93F2
:10485000DF931F92CDB7DEB7009709F1683008F5F6
:104860004430F8F4D42E262F7C01220F69E42983EA
:104870000E940952382F2981811115C003E010E0F0
:10488000022E02C0000F111F0A94E2F74D2D50E0D6
:1048900069E4C70139830E943C52398105C031E087
:1048A00003C033E001C032E0832F0F90DF91CF913E
:1048B0001F910F91FF90EF90DF900895EF92FF927C
:1048C0000F931F93CF93DF93EC018B017A016BE47D
:1048D0000E940952E091C22DF091C32D0280F38114
:1048E000E02D92819F70F70190836CE4CE010E94CD
:1048F0000952E091C22DF091C32D0280F381E02D89
:1049000081818F71F801808380E0DF91CF911F91C9
:104910000F91FF90EF900895CF92DF92FF920F9347
:104920001F93CF93DF931F92CDB7DEB76C01F62EA6
:104930006BE449830E940952498150E00FE010E086
:1049400020E06BE4C6010E943C526CE4C6010E9468
:1049500009524F2D50E000E01FE128E06CE4C60151
:104960000E943C5280E00F90DF91CF911F910F91F8
:10497000FF90DF90CF900895AF92BF92CF92DF92D9
:10498000EF92FF920F931F93CF93DF93009709F459
:104990003FC061157105F1F141155105D9F121159E
:1049A0003105C1F101151105A9F179016A015B0118
:1049B000EC016CE40E940952882311F082E02BC0C4
:1049C0008091DD2D8F71F50180836DE4CE010E9411
:1049D00009528111F3CF8091DE2DF60180836BE4C3
:1049E000CE010E9409528111E9CF8091DD2DF7019E
:1049F00080836CE4CE010E9409528111DFCF2091A7
:104A0000DD2D3091DE2D22273F71F801308303C068
:104A100081E001C083E0DF91CF911F910F91FF9062
:104A2000EF90DF90CF90BF90AF900895892B11F059
:104A300083E0089581E00895DF92EF92FF920F9353
:104A40001F93CF93DF931F92CDB7DEB77C01D62E95
:104A500062E249830E94095203E010E04981980113
:104A6000241B3109C901880F991F02C0000F111FB3
:104A70008A95E2F7220F4D2D50E062E2C7010E94B5
:104A80003C5280E00F90DF91CF911F910F91FF90EA
:104A9000EF90DF9008958F929F92BF92CF92DF9216
:104AA000EF92FF920F931F93CF93DF931F92CDB797
:104AB000DEB74C01B62E680179016AE149830E9494
:104AC00009524981BB2029F081E0B81609F449C098
:104AD00092C050E04A30510508F08DC0FA01882795
:104AE000EC5FFE4F8F4F0C945B9000E010EC2EE0DB
:104AF00007C000E01EE329E003C00EEF11E021E053
:104B0000A6016EE675C00FEF13E020E0A6016FE688
:104B10006FC0A701662777270FEF1FEF20E060E740
:104B2000C4010E943C5200E010EE2DE003C00FEFE4
:104B300013E020E0A60161E75BC00FEF11E020E089
:104B4000A60162E755C000E01EEF29E007C000EFB4
:104B500011E024E003C00CE010E022E0A60163E7CE
:104B600047C050E04A30510508F045C0FA01882797
:104B7000E25FFE4F8F4F0C945B9000E010EC2EE054
:104B800007C000E01EE329E003C00EEF11E021E0C2
:104B9000A60166E72DC00FEF13E020E0A60167E74E
:104BA00027C0A701662777270FEF1FEF20E068E7F0
:104BB000C4010E943C5200E010EE2DE003C00FEF54
:104BC00013E020E0A60169E713C00FEF11E020E039
:104BD000A6016AE70DC000E01EEF29E007C000EF64
:104BE00011E024E003C00CE010E022E0A6016BE736
:104BF000C4010E943C5280E00F90DF91CF911F9141
:104C00000F91FF90EF90DF90CF90BF909F908F908B
:104C10000895CF93DF93EB0160E30E940952E09186
:104C2000C22DF091C32D0280F381E02D828190E0AE
:104C30008883998380E0DF91CF910895EF92FF926E
:104C40000F931F93CF93DF931F92CDB7DEB70097DB
:104C5000D9F0AB017C010FEF1FEF20E060E30E9471
:104C60003C526FE1C7010E940952382F81110EC0DA
:104C700002E010E021E041E050E06FE1C70139833C
:104C80000E943C52398103C031E001C032E0832FE1
:104C90000F90DF91CF911F910F91FF90EF900895AA
:104CA000CF93DF93EB016FE20E940952E091C22D96
:104CB000F091C32D0280F381E02D82818170888381
:104CC00080E0DF91CF910895EF92FF920F931F93B1
:104CD000CF937C01C62F6FE20E9409524C2F50E007
:104CE00001E010E020E06FE2C7010E943C5280E04A
:104CF000CF911F910F91FF90EF9008951F93CF9345
:104D0000DF93162FEA016AE10E940952113081F007
:104D100028F01230C9F01330B9F017C0E091C22D5D
:104D2000F091C32D0280F381E02D828181700AC051
:104D3000E091C22DF091C32D0280F381E02D82819C
:104D400086958170888301C0188280E0DF91CF91C1
:104D50001F9108950F931F93613079F048F06230EE
:104D600089F06330B1F450E008E010E023E00EC0B9
:104D700050E001E010E020E009C050E002E010E067
:104D800021E004C050E004E010E022E06AE10E946B
:104D90003C5280E01F910F910895CF93DF930097CD
:104DA00071F06115710569F0EB016EE10E94095225
:104DB000811109C09091DD2D9F70988305C081E01D
:104DC00003C083E001C082E0DF91CF9108958F920C
:104DD0009F92BF92CF92DF92EF92FF920F931F9319
:104DE000CF93DF93009709F46DC0603108F06DC078
:104DF000EC01C12CD12CE62EF12C5FE0852E912CFC
:104E00006EE1CE010E940952882319F042E0B42ECF
:104E10005EC084010C2C02C0000F111F0A94E2F73F
:104E20002C2DA7016EE1CE010E943C5284E0C80EF9
:104E3000D11C80E1C816D10419F724E0C22ED12C70
:104E40003FE0832E912C6FE1CE010E940952B82ED3
:104E50008111DCCF84010C2C02C0000F111F0A94B9
:104E6000E2F72C2DA7016FE1CE010E943C5284E0B5
:104E7000C80ED11C80E1C816D10429F7C12CD12C51
:104E80009FE0892E912C88E0C816D10499F060E249
:104E9000CE010E9409528111B9CF84010C2C02C0AD
:104EA000000F111F0A94E2F72C2DA70160E2CE013A
:104EB0000E943C5284E0C80ED11C80E1C816D10487
:104EC00011F705C0BB24B39402C083E0B82E8B2D2C
:104ED000DF91CF911F910F91FF90EF90DF90CF90D6
:104EE000BF909F908F900895AF92BF92CF92DF9224
:104EF000FF920F931F93CF93DF93009709F453C052
:104F00004115510509F451C0623008F04EC0EA0164
:104F1000F62E6C0160E00E940952882311F082E0B5
:104F200045C0AF2CB12C00E010E20F2C02C015954B
:104F300007950A94E2F78091DD2D9091DE2D0823EC
:104F400019238DE090E08A199B0902C016950795F8
:104F50008A95E2F760E0C6010E9409528111DFCF15
:104F600020E030E802C036952795FA94E2F74091A8
:104F7000DD2D5091DE2D242335234FE050E04A19DA
:104F80005B0902C0369527954A95E2F7232B21F05D
:104F9000012B31F018820AC0012B11F491E001C0FD
:104FA00092E0988303C081E001C083E0DF91CF915C
:104FB0001F910F91FF90DF90CF90BF90AF90089519
:104FC000AF92BF92DF92EF92FF920F931F93CF9316
:104FD000DF931F92CDB7DEB70097B9F14230B8F535
:104FE0006230A8F5E42ED62E5C0160E00E940952E2
:104FF000882311F032E02CC0F12C00E010E80D2CD9
:1050000002C0169507950A94E2F72FE02D19A70123
:1050100060E0C5010E943C5260E0C5010E94095257
:10502000382F8111E7CF00E010E20D2C02C015955A
:1050300007950A94E2F72DE02D19A70160E0C5015C
:1050400039830E943C52398103C031E001C033E012
:10505000832F0F90DF91CF911F910F91FF90EF90D1
:10506000DF90BF90AF900895CF93DF930097B1F09A
:1050700061157105A9F0EB0166E20E9409528111E8
:1050800011C02091DD2D3091DE2D207F332794E05B
:10509000369527959A95E1F7288305C081E003C0EE
:1050A00083E001C082E0DF91CF910895EF92FF92FB
:1050B0000F931F93CF93DF930097A1F06031A0F47B
:1050C000C62F7C0166E20E940952D82F81110EC0C2
:1050D0004C2F50E000EF10E024E066E2C7010E9490
:1050E0003C5205C0D1E003C0D3E001C0D2E08D2F17
:1050F000DF91CF911F910F91FF90EF9008951F9333
:10510000CF93DF930097E1F041155105D9F064305A
:10511000C8F4EA01162F66E20E940952811114C0F8
:105120002091DD2D3091DE2D22273F70232F332754
:1051300002C0369527951A95E2F72170288305C09D
:1051400081E003C083E001C082E0DF91CF911F9135
:105150000895EF92FF920F931F93CF93DF931F92C7
:10516000CDB7DEB7009799F1423098F52FE9260FB9
:10517000243078F5042F162F7C0166E20E94095234
:10518000782F811128C02091DE2D30E06FE9610F6A
:1051900060FD06C0002311F0236007C02C7F05C00E
:1051A000002311F02C6001C0237F2093DD2D30936C
:1051B000DE2D4091DD2D5091DE2D00E01FE028E036
:1051C00066E2C70179830E943C52798105C071E093
:1051D00003C073E001C072E0872F0F90DF91CF9181
:1051E0001F910F91FF90EF9008951F93CF93DF933E
:1051F0000097D1F041155105C9F06430B8F4EA01C7
:10520000162F66E20E940952811112C09091DE2D84
:10521000292F22952F7030E002C0369527951A95D8
:10522000E2F72170288305C081E003C083E001C05C
:1052300082E0DF91CF911F910895EF92FF920F933B
:105240001F93CF93DF931F92CDB7DEB70097B1F1D5
:105250004230B0F52FE9260F243090F5042F162F99
:105260007C0166E20E940952782F81112BC0809147
:10527000DE2D282F22952F7030E06FE9610F60FD41
:1052800006C0002311F0236007C02C7F05C0002357
:1052900011F02C6001C0237F2093DD2D3093DE2D93
:1052A0004091DD2D5091DE2D00E010EF2CE066E204
:1052B000C70179830E943C52798105C071E003C027
:1052C00073E001C072E0872F0F90DF91CF911F91A3
:1052D0000F91FF90EF900895CF93DF93009781F0A7
:1052E0006115710579F0EB0162E00E9409528111AC
:1052F0000BC09091DD2D95FB992790F9988305C0FF
:1053000081E003C083E001C082E0DF91CF91089586
:10531000EF92FF920F931F93CF93DF930097A1F02B
:105320006230A0F4C62F7C0162E00E940952D82F9F
:1053300081110EC04C2F50E000E210E025E062E049
:10534000C7010E943C5205C0D1E003C0D3E001C0B8
:10535000D2E08D2FDF91CF911F910F91FF90EF90B1
:105360000895CF93DF93009781F06115710579F06F
:10537000EB0162E00E94095281110BC09091DD2D7A
:1053800096FB992790F9988305C081E003C083E0DC
:1053900001C082E0DF91CF910895EF92FF920F93C9
:1053A0001F93CF93DF930097A1F06230A0F4C62F34
:1053B0007C0162E00E940952D82F81110EC04C2F4F
:1053C00050E000E410E026E062E0C7010E943C5299
:1053D00005C0D1E003C0D3E001C0D2E08D2FDF9142
:1053E000CF911F910F91FF90EF900895CF93DF938E
:1053F000009779F06115710571F0EB016DE00E9485
:10540000095281110AC09091DE2D92959F70988368
:1054100005C081E003C083E001C082E0DF91CF914D
:105420000895CF92DF92EF92FF920F931F93CF9345
:10543000DF931F921F92CDB7DEB7009749F1611538
:10544000710541F18B017C0162E00E940952282F15
:10545000811122C08091DD2D84FBCC24C0F8D12C99
:10546000BE016F5F7F4FC7012A830E94F6298981A1
:105470002A81882321F0CD2839F481E006C0CD2887
:1054800019F0F801108209C082E0F801808305C09C
:1054900021E003C023E001C022E0822F0F900F9093
:1054A000DF91CF911F910F91FF90EF90DF90CF9000
:1054B0000895EF92FF920F931F93CF93DF9300977E
:1054C000A1F06031A0F4C62F7C016DE00E9409526A
:1054D000D82F81110EC04C2F50E000E010EF2CE0CF
:1054E0006DE0C7010E943C5205C0D1E003C0D3E08B
:1054F00001C0D2E08D2FDF91CF911F910F91FF90CE
:10550000EF900895FF920F931F93CF93DF9300972F
:1055100079F1623080F5EC01611116C00E94592AC0
:1055200062E0CE010E940952F82E882319F092E021
:10553000F92E23C000E110E024E041E050E062E0F9
:10554000CE010E943C5219C062E00E940952F82E1E
:105550008111EDCF00E110E024E040E050E062E096
:10556000CE010E943C5262E0CE010E94592A05C041
:10557000FF24F39402C083E0F82E8F2DDF91CF91AA
:105580001F910F91FF900895CF93DF930097B1F093
:1055900061157105A9F0EB016FE10E9409528111BB
:1055A00011C02091DD2D3091DE2D207F332794E036
:1055B000369527959A95E1F7288305C081E003C0C9
:1055C00083E001C082E0DF91CF910895EF92FF92D6
:1055D0000F931F93CF93DF930097A1F06031A0F456
:1055E000C62F7C016FE10E940952D82F81110EC095
:1055F0004C2F50E000EF10E024E06FE1C7010E9463
:105600003C5205C0D1E003C0D3E001C0D2E08D2FF1
:10561000DF91CF911F910F91FF90EF900895CF935D
:10562000DF93009791F0623090F44115510579F0C5
:10563000EA016C5E0E94095281110BC02091DD2DA0
:105640003091DE2D2883398305C081E003C083E0DB
:1056500001C082E0DF91CF9108952F923F924F9247
:105660005F926F927F928F929F92AF92BF92CF92F2
:10567000DF92EF92FF920F931F93CF93DF93EC0192
:105680003B014A012901180161E30E940952F50119
:10569000408150E000E010EE23E061E3CE010E9483
:1056A0003C5262E3CE010E940952F301408150E076
:1056B00000E01FEF28E062E3CE010E943C5262E36B
:1056C000CE010E940952F401408150E000EF10E049
:1056D00024E062E3CE010E943C52F7014081437016
:1056E000F0E84F9FA0011124F60180818F71F4E052
:1056F0008F9FC0011124482B592BF201808190E02B
:105700009927869597958827482B592BF1018081F9
:105710008F7390E0982F8827990F482B592B0FEF04
:105720001FEF20E063E3CE010E943C5280E0DF9156
:10573000CF911F910F91FF90EF90DF90CF90BF908E
:10574000AF909F908F907F906F905F904F903F9021
:105750002F9008950097B1F061157105A9F04115DA
:10576000510591F02115310579F04093C22D5093E8
:10577000C32D2093C02D3093C12DFC016083718314
:1057800080E0089581E0089583E00895EF92FF920C
:105790000F931F93CF93DF931F92CDB7DEB7009780
:1057A00099F07C016CE60E940952382F81110EC0DD
:1057B00000E010EF2CE040E050E06CE6C7013983D8
:1057C0000E943C52398103C031E001C032E0832F96
:1057D0000F90DF91CF911F910F91FF90EF9008955F
:1057E000CF93DF93EB016DE30E940952E091C22D4C
:1057F000F091C32D0280F381E02D8181807790E0CC
:1058000024E0959587952A95E1F7888380E0DF91DC
:10581000CF910895EF92FF920F931F93CF937C0146
:10582000C62F6DE30E9409524C2F50E000E010E7B4
:105830002CE06DE3C7010E943C5280E0CF911F91A4
:105840000F91FF90EF900895CF93DF93EB0162E00B
:105850000E940952E091C22DF091C32D0280F38184
:10586000E02D818182958170888380E0DF91CF91E6
:105870000895EF92FF920F931F93CF937C01C62F51
:1058800062E00E9409524C2F50E000E010E12CE051
:1058900062E0C7010E943C5280E0CF911F910F91BE
:1058A000FF90EF9008950F931F93CF93DF938B0199
:1058B000EA016BE10E940952E091C22DF091C32DE3
:1058C0000280F381E02D81818F70F8018083E09167
:1058D000C22DF091C32D0280F381E02D818180776C
:1058E00090E024E0959587952A95E1F7888380E0FC
:1058F000DF91CF911F910F910895EF92FF920F9337
:105900001F93CF93DF931F92CDB7DEB77C01162F85
:105910006BE149830E940952498180E1489F100D43
:105920001124412F50E000E01FE728E06BE1C701A0
:105930000E943C5280E00F90DF91CF911F910F9118
:10594000FF90EF900895EF92FF920F931F93CF93E4
:10595000DF937C01D62FC42F60E00E94095280E1C2
:10596000D89FB001112488E0C89FA0011124462BC4
:10597000572B08E110E020E060E0C7010E943C5294
:10598000DF91CF911F910F91FF90EF900895CF93EA
:10599000DF93EB016BE10E940952E091C22DF0917F
:1059A000C32D0280F381E02D82818F73888380E094
:1059B000DF91CF910895EF92FF920F931F93CF93B2
:1059C0007C01C62F6BE10E9409524C2F50E00FE37F
:1059D00010E020E06BE1C7010E943C5280E0CF91D3
:1059E0001F910F91FF90EF900895EF92FF920F9308
:1059F0001F93CF93DF93009751F16115710549F122
:105A00004115510531F18A017B01EC016DE20E94E3
:105A10000952882311F082E01DC08091DD2D909104
:105A2000DE2D8770992721E0892B09F420E0F7010A
:105A300020836EE2CE010E9409528111ECCF2091A9
:105A4000DD2D3091DE2DF8012083318303C081E00C
:105A500001C083E0DF91CF911F910F91FF90EF90F4
:105A60000895AF92BF92CF92DF92FF920F931F9350
:105A7000CF93DF931F92CDB7DEB70097E1F162308D
:105A8000E0F56A01F62E5C016DE20E94095288235E
:105A900011F032E033C008E010E023E040E050E0D5
:105AA0006DE2C5010E943C526DE2C5010E9409529F
:105AB0008111EFCF81E007E010E020E0F81203C091
:105AC00043E050E002C040E050E06DE2C5010E94BA
:105AD0003C526EE2C5010E940952382F8111D9CF84
