:100000000C9439190C945A190C945A190C945A19C5
:100010000C945A190C945A190C945A190C945A1994
:100020000C945A190C945A190C945A190C945A1984
:100030000C945A190C941D510C945A190C945A1979
:100040000C945A190C945A190C945A190C945A1964
:100050000C945A190C945A190C945A190C945A1954
:100060000C945A190C94951E0C945A190C946B1EEE
:100070000C945A190C945A190C945A190C945A1934
:100080000C945A190C945A190C945A190C945A1924
:100090000C945A190C945A190C945A190C945A1914
:1000A0000C945A190C945A190C945A190C945A1904
:1000B0000C945A190C945A190C94F5500C945A1922
:1000C0000C945A190C945A190C945A190C945A19E4
:1000D0000C945A190C945A190C945A190C945A19D4
:1000E0000C945A190C945A190C945A190C945A19C4
:1000F0000C945A190C945A190C945A190C945A19B4
:100100000C945A190C945A190C945A190C945A19A3
:100110000C945A190C945A190C945A190C945A1993
:100120000C945A190C945A190C945A190C945A1983
:100130000C945A190C945A190C945A190C945A1973
:100140000C945A190C945A190C945A190C945A1963
:100150000C945A190C945A190C945A190C945A1953
:100160000C945A190C945A190C945A190C945A1943
:100170000C945A190C945A190C945A190C945A1933
:100180000C945A190C945A190C945A190C945A1923
:100190000C945A190C945A190C945A190C945A1913
:1001A0000C945A190C945A190C945A190C945A1903
:1001B0000C945A190C945A190C945A190C945A19F3
:1001C0000C945A190C945A190C945A190C945A19E3
:1001D0000C945A190C945A190C945A190C945A19D3
:1001E0000C945A190C945A194A364E3652365836CF
:1001F0005E366C36723678367C3680369236963677
:100200009A36A036A636B436BA36C036C436C836A4
:10021000AD43B743C143CB43D543DF43E943204814
:10022000F343FD43074411441B4425442F44394400
:1002300043444D44574461446B4475447F4489446E
:1002400093449D44A744B144BB44C544CF44D944DE
:10025000E344ED44F74401450B4515451F45294549
:1002600033453D45474551455B4565456F457945B6
:1002700083458D459745A145AB45204820482048FA
:10028000204820482048B545BF45C945D345DD45F0
:10029000E7452048204820482048F145FB450546D1
:1002A0000F46194623462D46374641464B4655468E
:1002B0005F46694673467D46874691469B46A546FE
:1002C000AF46B946C346CD46D7462048E146EB4641
:1002D000F546FF46094713471D47274731473B4728
:1002E00045474F47594763476D47774781478B4796
:1002F00095479F47A947B347BD47C747D147DB4706
:10030000E547EF47F94703480D481748974C6A4CB3
:10031000944C6D4C704C734C764C794C7C4C7F4CAF
:10032000824C854C884C8B4C8E4C914C9E709A70B4
:1003300067709A706C70717075707A707F7083706E
:1003400088708D7091700C94EE250C9475440C940B
:1003500011440C947F440C94C4540C94CD460C94DA
:100360003E540C944D260C9497250C948E4C0C9472
:10037000824C0C946F450C9477470C9448540C9421
:10038000565A0C94BD550C94F9540C9472360C9436
:100390005B450C945A550C947D460C949E700C94BD
:1003A0003D450C948B230C9491460C9417550C945A
:1003B0004A540C94BA360C9488700C947C4C0C946F
:1003C0003B470C949A360C94C1430C948B4C0C9480
:1003D000631E0C946D470C9483700C94EA590C9432
:1003E000ED440C940F460C94B8510C94C61E0C941A
:1003F0003F1F0C94C8360C94CB430C949E590C941C
:10040000FA5A0C941D470C94A8550C9405460C946C
:1004100050540C9495470C9483450C942F440C94A1
:1004200003480C94BA1F0C9446540C94A6360C94B2
:1004300091700C948B470C9496360C94DF430C947B
:10044000FF580C94DB470C949F470C9437460C9450
:10045000CF440C94FB450C9441460C94D9440C9425
:1004600089440C94F3430C944A360C94B3470C948F
:1004700031470C9400560C9461440C9452360C9401
:10048000914C0C946D250C94B1440C94F5460C944D
:100490006D4C0C94BB440C94C41E0C940A1F0C9419
:1004A000974C0C9478360C944C540C9485550C94C1
:1004B000AD430C9467700C94A7440C94A5460C941F
:1004C0008C590C94D3450C943E560C9411550C94B5
:1004D00019460C94BD470C94D7460C944B570C947A
:1004E00055460C9401450C94704C0C9465450C9445
:1004F0003A540C949D440C947F700C941F540C94AB
:1005000015450C9452540C948B270C9456550C940E
:1005100036540C9409470C941D540C94D5430C94F8
:10052000C9450C9458540C94944C0C944F250C943D
:100530006B440C94E1550C9481470C9475700C94A9
:100540008B560C944A1F0C94F9470C944E540C94FF
:1005500057440C94FF460C94ED550C94C5440C94F0
:1005600042540C9447450C949A700C94884C0C940B
:100570007A700C9444540C941F450C94DD450C94F3
:1005800040540C9417480C9479450C94325A0C94AE
:1005900043440C948F540C940D480C94E01E0C941E
:1005A000C4360C94E3440C9473460C946C360C944F
:1005B00027470C946C700C9463470C9497450C94EB
:1005C00039440C9492360C9425440C947F4C0C9432
:1005D000F1450C9438540C941B440C94EB460C9449
:1005E0004B460C943C540C945A540C94794C0C94F7
:1005F0008D450C94C6590C94C3460C9451450C94EB
:10060000D5580C94F7440C9413470C9423460C943F
:10061000C7470C9434590C9429450C94B9460C9452
:1006200033450C942D460C94AB450C9493440C9498
:10063000BF450C946F560C940B450C94AC1F0C9456
:1006400056560C94E9430C9445470C941D550C9454
:1006500059470C9452550C949B460C9477560C9425
:100660005F460C940E5A0C9407440C9480360C94FC
:10067000FD430C9469460C94EF470C94E1240C94D0
:10068000A1450C94A9470C94C0360C9458360C9490
:100690004F470C94E7450C94B5450C945E360C948A
:1006A000D4870C94E1460C94854C0C94C41F0C9494
:1006B000D1470C94AF460C9487460C944D440C944F
:1006C000734C0C94764C0C94A0360C947C360C94A1
:1006D00056540C94B7430C946A4C0C9493550C9458
:1006E00017560C9468590C946A550C9471700C94BC
:1006F0000B550C944E360C9420480C947F1F0C9490
:10070000AA5A0C9465250C94B2590C94B61F0C94FB
:10071000E85A0C94E5470C9489550C94B4360C9423
:1007200025540C9471250C948D700C9454540C9495
:100730009D256364696E6F70737578585B0001DF87
:100740000001D50001CC0001C20001B90001B000D8
:1007500001A800019F000199000191000189000199
:100760008000017900017100016C01016401015FE9
:1007700001015901015201014B01014401013D01F7
:10078000013702012F02012A02012402011F020186
:100790001A02011402010E0201080201010202877D
:1007A00001028001027A01027401026C01026601F9
:1007B000025F02025E02025802025202024C020270
:1007C0004602023F02023A02023603022F03022AC5
:1007D00003022403021F04021E040218040212046E
:1007E000020E0402080402020404BE0104B801045B
:1007F000B10104AB0104A60204A002049C02049609
:1008000002049002048B02048502048002047A022E
:10081000047402046F03046B03046603046003049E
:100820005E03045803045403044F03044A030445BD
:1008300003044003043C04043704043304042E047A
:10084000042A04042404042004041E04041A0404D6
:100850001604041204040D0404090404040404002E
:100860000408BC0008B70008B20008AE0008A900E0
:1008700008A40008A000089C00089700089300083E
:100880008F01088C01088801088401087F01087B1A
:1008900001087601087201086F01086B0108670101
:1008A000086301085F01085C010858010854010849
:1008B0005101084F02084C0208480208440208414E
:1008C00002083D02083902083602083202082F02E7
:1008D000082C020828020825021D03ED01DCFDCCCE
:1008E000F5BCE5ACC5A86EBCE5ACC59C859603928D
:1008F000C1912190966572726F723A20756E726521
:10090000636F676E697A656420636F6D6D616E6495
:10091000206F7074696F6E0A00596F752068617678
:1009200065206265656E206772616E746564207211
:100930006F6F74207065726D697373696F6E732168
:100940000A0054686973206973206E6F7420616EA9
:10095000206F7065726174696E6720737973746556
:100960006D210A00436F6D6D616E64733A0A005524
:10097000736167653A205B636D645D205B2D7C2D40
:100980002D5D5B617267315D205B2D7C2D2D5D5B84
:10099000617267325D2E2E2E0A005475726E206FC2
:1009A0006666206F75747075747320287065722088
:1009B0006368616E6E656C292E00536574207072D9
:1009C000657363616C617220666F722063616C6C29
:1009D0006962726174696F6E2E0053657420636181
:1009E0006C6C6962726174696F6E204E2064697606
:1009F000696465722E004368616E676520696E7474
:100A000065726E616C207265666572656E636520E5
:100A1000444143206F757470757420766F6C7461F7
:100A20006765004144524636353138204C6F772097
:100A300042616E640041445246363531382048697F
:100A400067682062616E6400536574207468652075
:100A50005246534120617474656E74756174696F98
:100A60006E2E203020746F203238202830644220CF
:100A7000746F202D32386442292E0042697420623E
:100A8000616E67206F7065726174696F6E2E2031C0
:100A90003A20777269746520303A2072656164008B
:100AA0004269742062616E672064617461206F66C0
:100AB000204441432E004269742062616E672061C8
:100AC000646472657373206F66204441432E004551
:100AD00078656375746520746865207365726465F4
:100AE0007320746573742E2028302D352920746589
:100AF0007374207061747465726E2E005365742077
:100B000074686520696E746572706F6C6174696F6A
:100B10006E2031782830292C2032782831292C2059
:100B200034782832292C203878283429206F7220F4
:100B30003136782838292E00456E61626C65207444
:100B400068652050412028706F77657220616D7054
:100B50006C6966696572292070726F746563746967
:100B60006F6E20636972637569742E203120746F13
:100B700020656E61626C652E005365742074686533
:100B800020636D6420696E7075742066726F6D20CD
:100B90004A455344283029206F7220535049283148
:100BA000292E005365742074686520284629206624
:100BB00072616D657320706572206D756C74692D3E
:100BC0006672616D652E0053657420746865202817
:100BD0004D2920636F6E766572746572732070653F
:100BE00072206C696E6B2E005365742074686520EA
:100BF000284C29206C616E657320706572206C69C9
:100C00006E6B2E0053657420746865206672657182
:100C1000206F7574707574206F66206578746572C6
:100C20006E616C2044414320636C6B206166746587
:100C30007220696E7465726E616C20434C4B206348
:100C400069726375697420284D487A292E004572AF
:100C5000726F722E0A001D03ED01DCFDCCF5BCE5C0
:100C6000ACC5A86EBCE5ACC59C85960392C191212C
:100C7000909601DF0001D50001CC0001C20001B94E
:100C80000001B00001A800019F000199000191003E
:100C9000018900018000017900017100016C0101EE
:100CA0006401015F01015901015201014B0101443D
:100CB00001013D01013702012F02012A0201240234
:100CC000011F02011A02011402010E0201080201B1
:100CD0000102028701028001027A01027401026CA2
:100CE00001026601025F02025E0202580202520223
:100CF000024C02024602023F02023A02023603029C
:100D00002F03022A03022403021F04021E040218F6
:100D100004021204020E0402080402020404BE01CA
:100D200004B80104B10104AB0104A60204A002044A
:100D30009C02049602049002048B02048502048043
:100D400002047A02047402046F03046B0304660352
:100D5000046003045E03045803045403044F0304B3
:100D60004A03044503044003043C040437040433E9
:100D700004042E04042A04042404042004041E048D
:100D8000041A04041604041204040D0404090404DF
:100D9000040404000408BC0008B70008B20008AE50
:100DA0000008A90008A40008A000089C00089700FB
:100DB000089300088F01088C010888010884010845
:100DC0007F01087B01087601087201086F01086B3A
:100DD00001086701086301085F01085C0108580108
:100DE000085401085101084F02084C020848020843
:100DF0004402084102083D0208390208360208325E
:100E000002082F02082C02082802082502507269E5
:100E10006E7473206F7574207468652068656C70DB
:100E2000206D656E7520666F722074686520626F34
:100E30006172642E0045786974732066726F6D204C
:100E40007468697320626F617264206261636B20F1
:100E5000746F20746865204449474954414C2062AE
:100E60006F6172642E00426F6F746C6F61646572A3
:100E7000206F7074696F6E732E004F4E2F4F464671
:100E80002073776974636865732C20283020697338
:100E9000204F46462C2031206973204F4E290043B5
:100EA0006F6D6D616E647320666F72206163636540
:100EB0007373696E67207468652068656172746217
:100EC0006561742073746174757300436F6E74721E
:100ED0006F6C732074686520626F617264206C654A
:100EE00076656C2066756E6374696F6E732E205321
:100EF000657175656E7469616C2065786563206FD6
:100F00006620617267756D656E74732E005265613F
:100F10006420616E6420777269746520636F6D6D03
:100F2000616E647320666F722064656275676769BD
:100F30006E672E00436F6D6D616E647320666F7215
:100F40002073657474696E6720484D4339383820C2
:100F500067726F75702064656C6179732E00436FE2
:100F60006D6D616E647320666F7220736574746951
:100F70006E67204A4553442F504C4C204E2F522030
:100F8000646976696465727300436F6D6D616E6448
:100F90007320666F722073657474696E672074685D
:100FA00065204C4D4B30343832382064656C6179A3
:100FB00020636C6F636B732E00436F6D6D616E64A5
:100FC0007320666F722073657474696E672074682D
:100FD00065204C4D4B30343832382064656C617973
:100FE00020636C6F636B732E00436F6D6D616E6475
:100FF0007320666F72206D616E6167696E67207421
:10100000686520434C4B2067656E65726174696F3B
:101010006E207468726F756768204C4D4B303438A1
:1010200032382C20414435363234522C20484D433E
:101030003938372E00436F6D6D616E647320666FB3
:1010400072206D616E6167696E6720746865204308
:101050004C4B2067656E65726174696F6E207468B1
:10106000726F756768204C4D4B30343832382C2005
:10107000414435363234522C20484D433938372ECE
:10108000005072696E7473206F75742074686520E7
:1010900068656C70206D656E7520666F722074686F
:1010A0006520626F6172642E0045786974732066F2
:1010B000726F6D207468697320626F617264206260
:1010C00061636B20746F20746865204449474954FC
:1010D000414C20626F6172642E00426F6F746C6FBE
:1010E00061646572206F7074696F6E732E004F4E6D
:1010F0002F4F46462073776974636865732C2028E8
:1011000030206973204F46462C2031206973204FD0
:101110004E290053746174757320616E6420667586
:101120006E6374696F6E73207573656420666F7289
:1011300020636865636B696E672074686520626F01
:101140006172642E2000436F6E74726F6C73207432
:10115000686520626F617264206C6576656C2066DC
:10116000756E6374696F6E732E2053657175656E4D
:101170007469616C2065786563206F6620617267B1
:10118000756D656E74732E0045786563757465734F
:10119000207465737420766563746F72732E0052C9
:1011A000656769737465722064756D707320666F0E
:1011B00072207265737065637469766520706572FC
:1011C0006970686572616C732E00436F6E74726F24
:1011D0006C73207468652066726F6E74656E64202F
:1011E00052462073776974636865732E00436F6D90
:1011F0006D616E647320666F72207468652041446F
:10120000524636353138207661726961626C6520EC
:101210006761696E20616D706C69666965722E0028
:101220005072696E7473206F7574207468652068DD
:10123000656C70206D656E7520666F7220746865D0
:1012400020626F6172642E00457869747320667243
:101250006F6D207468697320626F617264206261CF
:10126000636B20746F20746865204449474954417A
:101270004C20626F6172642E00426F6F746C6F61FC
:10128000646572206F7074696F6E732E004F4E2FFD
:101290004F46462073776974636865732C20283045
:1012A000206973204F46462C2031206973204F4E11
:1012B0002900436F6E74726F6C73207468652062CE
:1012C0006F617264206C6576656C2066756E637400
:1012D000696F6E732E2053657175656E7469616CEC
:1012E0002065786563206F6620617267756D656E35
:1012F00074732E0050726F7669646573207468652C
:1013000020737461747573206F6620746865206241
:101310006F6172642E005265676973746572206430
:10132000756D707320666F7220726573706563747B
:10133000697665207065726970686572616C732E7C
:1013400000436F6E74726F6C7320746865206672F0
:101350006F6E74656E64205246207377697463689B
:1013600065732E00436F6D6D616E647320666F72DE
:10137000207468652044414333384A38342E005283
:10138000756E732073706563696669656420746542
:10139000737420766563746F72206F66207468655D
:1013A0002041445246363531380052756E732073F1
:1013B0007065636966696564207465737420766519
:1013C00063746F72206F66207468652041444331F6
:1013D0003644583337300052756E7320737065632E
:1013E0006966696564207465737420766563746FDB
:1013F00072206F6620746865205043413935333858
:101400002E00436C6561722074686520737065639B
:101410006966696564204750494F582070696E209D
:101420006C6F772E00536574207468652073706547
:10143000636966696564204750494F582070696E3A
:1014400020686967682E003D2525140214D713AA69
:10145000137F135072696E7473206F757420696EF8
:1014600020766572626F7365206D6F64652E203122
:1014700020746F20656E61626C652E004E6F206176
:101480007267756D656E74206E65636573736172E6
:10149000792E00456E7465722074686520626F6FE6
:1014A000746C6F616465722E00484D4339383700A3
:1014B0004C4D4B30343032380052657475726E7357
:1014C000204D43552064657669636520696E666FBB
:1014D000726D6174696F6E2E00476574732C2061A4
:1014E0006E64207468656E207265736574732C2059
:1014F000504C4C204C6F7373206F66204C6F636BA5
:10150000205374617475732E004765747320504CBA
:101510004C204C6F636B2044657465637420537476
:1015200061747573004865617274626561742069E5
:101530006E697469616C697A6174696F6E20667531
:101540006E6374696F6E20746F2073657420636FAF
:10155000756E74657220746F203000486561727416
:10156000626561742066756E6374696F6E20746F56
:101570002072657365742074686520686561727493
:101580006265617420636F756E7465720048656191
:101590007274626561742066756E6374696F6E2023
:1015A000746F20616E642066726F6D2074686520B0
:1015B0007365727665720053656C6563747320475A
:1015C0004C45206D6F64653A204D43555F474C454F
:1015D000283129206F722053594E54485F46504796
:1015E000415F474C45202832290050726F7669646C
:1015F00065732074686520616D6F756E74206F6609
:101600002052414D206C65667420286279746573A0
:10161000292E0050726F76696465732074686520A6
:1016200074656D70657261747572652028302D3136
:10163000292E00426C696E6B7320746865204C45DE
:1016400044206120737065636966696564206E7506
:101650006D626572206F662074696D65732E00502F
:1016600072696E7473206F75742074686520736F6F
:1016700066747761726520616E6420686172647758
:101680006172652076657273696F6E2E0054757293
:101690006E732065766572797468696E67206F660F
:1016A000662E005475726E206F66662070657269D2
:1016B00070686572616C732E00506F77657220637D
:1016C00079636C65207065726970686572616C73AE
:1016D00020616E642072756E7320626F6172642087
:1016E000696E69742028706572206368616E6E652A
:1016F0006C292E0052756E7320646961676E6F737A
:10170000746963206F6E20706572697068657261BC
:101710006C2028706572206368616E6E656C292E7E
:101720002053686F756C64207072696E7420616CF0
:101730006C207265676973746572732E00547572DC
:101740006E206F6E206F75747075747320287065CD
:1017500072206368616E6E656C292E005265777227
:1017600069746520616C6C207265677320666F72A6
:1017700020656E7469726520626F6172642E00521A
:1017800065616420616E6420777269746520636F9F
:101790006D6D616E647320666F722064656275673B
:1017A00067696E672E004765742F73657420484D16
:1017B00043205278204275666665722062696173C3
:1017C0002028302069732064656661756C742C2054
:1017D0003120666F722073696E75736F6469616C16
:1017E000202F206E6F6E2D4C565045434C204143A8
:1017F00020636F75706C696E672E29004765742FC2
:1018000073657420484D43207265666572656E632A
:101810006520696E70757420646976696465727399
:10182000202876616C6964206469766964657273E6
:1018300020617265203D20325E6E2C206E3D312E7F
:101840002E3529004765742F7365742064656C61BB
:1018500079206C696E6520736574706F696E742E83
:10186000004765742F73657420746865206F757404
:10187000707574206C61756E636820706861736543
:101880002E00536574206569746865722053594E43
:1018900043206F7220534C4950207573696E672046
:1018A00053504920636F6D6D756E69636174696F24
:1018B0006E2E004765742F7365742074686520531D
:1018C000594E432064656C6179206469766964656A
:1018D000722E0053656C656374732062657477655E
:1018E000656E207468652074776F20484D433938E1
:1018F0003820646576696365732028726566657251
:10190000656E636520616E64206C6D6B292E0053DB
:10191000657420636C6F636B2064697669646572BB
:101920002E00536574204E206469766964657220C8
:10193000666F7220504C4C2E005365742052206408
:1019400069766964657220666F7220504C4C2E0077
:1019500053656C656374206469766964657220748C
:101960006F207365742E0053657420646967697411
:10197000616C2064656C617920636C6F636B2E0011
:1019800053656C6563742064657669636520636C78
:101990006F636B2E0053656C656374204A45534436
:1019A000206F7220504C4C2E0052652D7379636865
:1019B000726F6E697A65206F7574707574206469D2
:1019C0007669646572732066726F6D20626F7468E9
:1019D000204C4D4B7300536574207468652044415E
:1019E0004320636F6E74726F6C6C696E6720584F22
:1019F00020567265662C20302D34303936206672C0
:101A0000616374696F6E20566578740049737375ED
:101A100065205359535245462070756C7365732089
:101A200066726F6D204A4553442E00456E61626CAC
:101A300065206578742D31304D487A207265666571
:101A400072656E6365202831292E005072696E74AC
:101A500073206F757420696E20766572626F73658E
:101A6000206D6F64652E203120746F20656E616279
:101A70006C652E00456E7465722074686520626F17
:101A80006F746C6F616465722E004E6F20617267B7
:101A9000756D656E74206E65636573736172792E02
:101AA00000414443313644583337300041445246B4
:101AB0003635313800484D433833784C503647007E
:101AC00052657475726E73204D4355206465766956
:101AD000636520696E666F726D6174696F6E2E004A
:101AE000504C4C204C6F636B204465746563746983
:101AF0006F6E204D656368616E69736D2E00486579
:101B00006172746265617420696E7469616C697A6E
:101B10006174696F6E2066756E6374696F6E207490
:101B20006F2073657420636F756E74657220746FB7
:101B3000203000436F6D6D616E6420666F7220729D
:101B40006573657474696E67207468652068656183
:101B50007274626561742076616C756520666F725F
:101B60002074686520525820626F61726400436F70
:101B70006D6D616E6420666F72207072696E74693B
:101B80006E67207468652063757272656E74206874
:101B900065617274626561742076616C7565206F31
:101BA000662074686520525820626F617264005329
:101BB000656C6563747320474C45206D6F64653AAE
:101BC000204D43555F474C45283129206F722046F0
:101BD0005047415F474C452028322900426C696ECE
:101BE0006B7320746865204C4544206120737065D8
:101BF000636966696564206E756D626572206F66E3
:101C00002074696D65732E0050726F766964657318
:101C1000207468652074656D706572617475726595
:101C20002028302D31292E004F7574707574732063
:101C3000612031362D626974207265706561746946
:101C40006E672073657175656E6365205B302C204F
:101C500032363238302C20302C202D323633323888
:101C60005D2066726F6D2074686520414443206377
:101C70006F72652E00456E61626C696E67207468D4
:101C800065205359535245462064657465637469F1
:101C90006F6E20676174652E203120746F20656E31
:101CA00061626C652C203020746F206469736162FE
:101CB0006C6500546865204144432077696C6C2052
:101CC0006F7574707574204A45534420546573745D
:101CD000205061747465726E732E20303A206F66E6
:101CE000662C20313A204432312E352C20323A20D5
:101CF0004B32382E352C20333A2072707420494CE8
:101D0000412C20343A2072616D702C20353A2048E5
:101D10004947482E00546865204144432077696C48
:101D20006C20656E61626C65207468652053595340
:101D300052454620646574656374696F6E206761FF
:101D4000746520666F72204A45534420696E697439
:101D500069616C697A6174696F6E2E0050726F767A
:101D6000696465732074686520616D6F756E742099
:101D70006F662052414D206C65667420286279742C
:101D80006573292E005072696E7473206F7574200C
:101D900074686520736F66747761726520616E6424
:101DA0002068617264776172652076657273696F0D
:101DB0006E2E005475726E73206576657279746844
:101DC000696E67206F66662E005475726E206F66AE
:101DD00066207065726970686572616C732E005060
:101DE0006F776572206379636C65207065726970C6
:101DF000686572616C7320616E642072756E732009
:101E0000626F61726420696E697420287065722047
:101E10006368616E6E656C292E005475726E206F5A
:101E20006666206F757470757473202870657220F3
:101E30006368616E6E656C292E0052756E73206446
:101E40006961676E6F73746963206F6E207065726D
:101E50006970686572616C202870657220636861C2
:101E60006E6E656C292E2053686F756C64207072DD
:101E7000696E7420616C6C20726567697374657239
:101E8000732E005475726E206F6E206F75747075AE
:101E900074732028706572206368616E6E656C29AA
:101EA0002E005265777269746520616C6C207265D2
:101EB000677320666F7220656E7469726520626F49
:101EC0006172642E0044756D707320616C6C2074B7
:101ED00068652072656769737465727320666F72D6
:101EE00020746865204144524636353138004475C7
:101EF0006D707320746865207265676973746572AC
:101F00007320666F722074686520726567756C61F6
:101F10007220616E64205246204750494F58004459
:101F2000756D707320616C6C2074686520726567D4
:101F300069737465727320666F72207468652041DE
:101F40004443313644583337302E0041444634330D
:101F500035352F41444635333535206175746F630F
:101F6000616C20656E61626C6520283120666F723D
:101F700020656E61626C65293E3E00414446343303
:101F800035352F4144463533353520446972656314
:101F90007420526567697374657220416363657369
:101FA00073203C3C323862697420646174613E3C49
:101FB0003462697420616464726573733E3E0053D9
:101FC000656C656374732044534120417474656E7D
:101FD000756174696F6E2C2028303A203064426D30
:101FE000202D3E203132373A2033312E37356442AE
:101FF0006D290053656C65637420504C4C204F75FF
:102000007470757420506F7765722028303A202DD7
:102010003464426D2C20313A202D3164426D2C20E5
:10202000323A203264426D2C20333A203564426DBE
:1020300029004D7574657320746865204C4F2046E7
:1020400072657175656E63792053796E7468657316
:10205000697A6572207768656E20757365640053D0
:10206000656C656374732074686520636F72726554
:1020700063742046696C7465722042616E6B2066E1
:102080006F72206120676976656E20667265717572
:10209000656E637920696E206B487A00456E6162D7
:1020A0006C652F44697361626C652056434F204F05
:1020B0007574707574204672657175656E637920EC
:1020C000446F75626C65720053657420504C4C20EF
:1020D00056434F204F757470757420446976696457
:1020E00065722076616C75652E20312C20322C2093
:1020F000342C2036202E2E2036320053657420508A
:102100004C4C20466565646261636B204469766966
:102110006465722076616C75652E20313620746F8F
:10212000203532343235350053657420504C4C2004
:10213000496E7075742044697669646572207661B1
:102140006C75652E203120746F20313633383300A2
:1021500053656C656374207468652074617267658B
:102160007420504C4C2028302920484D43383330BF
:102170002028312920484D43383333005365747388
:1021800020426173652042616E6420566172616312
:10219000746F7220766F6C746167652028302D34FF
:1021A00030393629203056202D20322E3556005019
:1021B0004C4C20496E707574205265666572656E70
:1021C0006365204672657175656E63790053776546
:1021D00065707320484D43383333206672657175DE
:1021E000656E63792066726F6D20302E3247487AB3
:1021F00020746F203647487A207769746820612000
:1022000073746570206F662031304D487A005365D5
:1022100074732066726571206F6620484D433833B1
:1022200033206F75747075742C20696E204B487A5A
:102230002E0042797061737320746865204C4E41A2
:10224000206F6E2074686520686967682062616E1F
:10225000642E204279706173732831292074686577
:10226000204C4E41206F72206E6F742830292E0052
:1022700043686F6F736520746865206869676820BC
:1022800028302E352D362047487A29206F72206C51
:102290006F7720284443202D20302E352047487A60
:1022A000292062616E642E204869676828312920E0
:1022B0006F72206C6F772830292E0053657420567A
:1022C00047412773207077722D6D6F6465206261BE
:1022D000736564206F6E204C5020636F726E657260
:1022E00020667265712E20312069662066696C74E3
:1022F0006572206D6F646520616E642033314D48D6
:102300007A203C2042572C20656C736520363020A3
:102310004D487A203C20425700536574205647416F
:10232000277320696E70757420616E616C6F672011
:10233000617474656E756174696F6E20696E206476
:10234000422E20476F6573207468726F756768202E
:10235000414435363234522E00536574205647417D
:10236000277320706F737420616D70206761696ED0
:102370002E20302D313A20332F3964422E00536500
:102380007420564741277320616E616C6F67206728
:1023900061696E2E20302E31644220636F6E74723C
:1023A0006F6C6C65642C20496E7075743A20302017
:1023B0002D2037323020282D3130326442202D201C
:1023C0002D333064422900536574205647412773EA
:1023D000206469676974616C206761696E2E2033BF
:1023E000644220696E6372656D656E74732C20495A
:1023F0006E7075743A2030202D20382028343264D5
:1024000042202D20363664422900436865636B20E4
:10241000696620564741206761696E2069732074A0
:102420006F6F204869676820666F72207468652046
:102430004144432E2028303A204E6F2C20313A2040
:10244000596573290053656C6563742056474120B4
:102450004368616E6E656C2028303A20426F746864
:102460002C20493A20312C20513A2032290047654E
:1024700074205647412773206761696E2E005365AB
:1024800074205647412773206761696E2E202843C8
:10249000616C6C7320646761696E20616E64206199
:1024A0006761696E292E20496E7075743A2030205C
:1024B0002D20393520282D36306442202D2033350B
:1024C00064422900536574205647412773204C50BD
:1024D00020636F726E6572206672657120696E206E
:1024E0004D487A2E004279706173732074686520BC
:1024F0005647412773204C502066696C7465722ED4
:10250000203120746F20656E61626C652E004E75FF
:102510006C6C20746865205647412773206F757472
:10252000707574204443206F6666736574732E2043
:102530003120746F20656E61626C652E005370658A
:1025400063696679207768696368206368616E6E85
:10255000656C20612C622C632C64204F52206269D0
:1025600074206D61736B2E204D555354207370652C
:10257000636966792066697273742E005072696EA1
:102580007473206F757420696E20766572626F7344
:1025900065206D6F64652E203120746F20656E613B
:1025A000626C652E004E6F20617267756D656E748A
:1025B000206E65636573736172792E00456E746574
:1025C000722074686520626F6F746C6F61646572ED
:1025D0002E00484D433833784C5036470044414331
:1025E00033384A38340053656C65637420474C4572
:1025F000206D6F64653A204D43555F474C45283147
:102600002920465047415F474C4528322900456EF6
:1026100061626C6573204A455344205359535245B7
:10262000462047617465004F757470757420656E3F
:1026300061626C65283129206F7220646973616260
:102640006C652830292E0050726F7669646573209E
:1026500074686520616D6F756E74206F66205241DD
:102660004D206C65667420286279746573292E008C
:1026700050726F7669646573207468652074656D47
:1026800070657261747572652028302D31292E00B5
:10269000426C696E6B7320746865204C4544206100
:1026A00020737065636966696564206E756D626527
:1026B00072206F662074696D65732E005072696EAA
:1026C0007473206F75742074686520736F667477F7
:1026D00061726520616E6420686172647761726501
:1026E0002076657273696F6E2E005475726E73205A
:1026F00065766572797468696E67206F66662E000C
:102700005475726E206F66662070657269706865B8
:1027100072616C732E00506F776572206379636C01
:1027200065207065726970686572616C7320616E96
:10273000642072756E7320626F61726420696E69C5
:10274000742028706572206368616E6E656C292E36
:10275000005475726E206F6666206F7574707574A4
:10276000732028706572206368616E6E656C292E17
:102770000052756E7320646961676E6F737469636C
:10278000206F6E207065726970686572616C2028B8
:10279000706572206368616E6E656C292E205368C7
:1027A0006F756C64207072696E7420616C6C20723D
:1027B00065676973746572732E005475726E206F4D
:1027C0006E206F7574707574732028706572206345
:1027D00068616E6E656C292E00526577726974654A
:1027E00020616C6C207265677320666F7220656E65
:1027F0007469726520626F6172642E00526574752F
:10280000726E73204D435520646576696365206957
:102810006E666F726D6174696F6E2E004C6F636BC4
:1028200020446574656374696F6E204D65636861EB
:102830006E69736D004865617274626561742069C8
:102840006E697469616C697A6174696F6E2066750E
:102850006E6374696F6E20746F2073657420636F8C
:10286000756E74657220746F203000436F6D6D61FA
:102870006E6420666F7220726573657474696E672A
:10288000207468652063757272656E742068656176
:102890007274626561742076616C7565206F662064
:1028A000545820626F61726400436F6D6D616E6495
:1028B00020666F72207468652063757272656E742D
:1028C000206865617274626561742076616C7565FB
:1028D000206F662074686520545820626F617264AE
:1028E0000044756D70732074686520726567697344
:1028F0007465727320666F7220746865204441436A
:1029000033384A38340044756D707320746865201C
:1029100072656769737465727320666F722074687C
:102920006520726567756C617220616E6420524625
:10293000204750494F5800414446343335352F41E4
:10294000444635333535206175746F63616C20659D
:102950006E61626C6520283120666F7220656E6141
:10296000626C65293E3E00414446343335352F4183
:1029700044463533353520446972656374205265A9
:1029800067697374657220416363657373203C3CAF
:10299000323862697420646174613E3C34626974E7
:1029A00020616464726573733E3E00524620417438
:1029B00074656E7561746F722053657474696E67A7
:1029C0002028303A20306442202D3E203132373AE0
:1029D000202D33312E373564422900504C4C204F86
:1029E000757470757420506F7765722028303A20A6
:1029F0002D3464426D2C20313A202D3164426D2CEF
:102A000020323A202B3264426D2C20333A202B3571
:102A100064426D290053656C656374732074686546
:102A200020636F72726563742046696C74657220EE
:102A300042616E6B20666F72206120676976656EF9
:102A4000206672657175656E637920696E206B48CA
:102A50007A004D7574657320746865204C4F20466C
:102A600072657175656E63792053796E74686573EC
:102A7000697A6572207768656E20757365640045B4
:102A80006E61626C652F44697361626C65205643A8
:102A90004F204F7574707574204672657175656E40
:102AA000637920446F75626C6572005365742050C1
:102AB0004C4C2056434F204F7574707574204469F8
:102AC00076696465722076616C75652E20312C20E4
:102AD000322C20342C2036202E2E20363200536506
:102AE0007420504C4C20466565646261636B2044E1
:102AF0006976696465722076616C75652E20313661
:102B000020746F20353234323535005365742050CF
:102B10004C4C20496E707574204469766964657206
:102B20002076616C75652E203120746F203136332C
:102B300038330053656C6563742074686520746174
:102B40007267657420504C4C2028302920484D4332
:102B50003833302028312920484D43383333004E54
:102B60006565647320746F2062652063616C6C65B9
:102B700064206C6173742E205365747320746865CF
:102B8000204951204D6F64756C61746F722E20283E
:102B900069652E202D69203137202D712031332099
:102BA0002D6D290053657420746865204951204DAE
:102BB0006F64756C61746F7220512062696173205B
:102BC000766F6C746167652028696E2064562C20CE
:102BD00066726F6D20302D3234206456292E0053DA
:102BE000657420746865204951204D6F64756C616F
:102BF000746F722049206269617320766F6C746112
:102C000067652028696E2064562C2066726F6D20DF
:102C1000302D3234206456292E00504C4C20526501
:102C2000666572656E636520496E707574202869EB
:102C30006E206B487A290053657473206672657143
:102C4000206F6620484D43383333206F757470759C
:102C5000742C20696E204B487A2E00427970617383
:102C60007320746865204C4E41206F6E2074686537
:102C700020686967682062616E642E204279706105
:102C8000737328312920746865204C4E41206F727F
:102C9000206E6F742830292E0043686F6F73652093
:102CA00074686520686967682028302E352D3620C5
:102CB00047487A29206F72206C6F77202844432080
:102CC0002D20302E352047487A292062616E642EEF
:102CD0002048696768283129206F72206C6F772837
:102CE00030292E0052657475726E732074686520E9
:102CF0006F722764206C616E65206572726F7273EB
:102D0000206F6620746865206669727374203420B1
:102D10006C616E657300536574207468652073651B
:102D20006C6563746564205461702076616C7565B0
:102D300020666F722074686520536D616C6C20464C
:102D400072616374696F6E616C2044656C617900B7
:102D5000536D616C6C204672616374696F6E616C57
:102D60002044656C6179205461702073656C6563E3
:102D7000746F72004C61726765204672616374699A
:102D80006F6E616C2044656C61792C20436F6566C1
:102D900066696369656E74205365742073656C653C
:102DA0006374696F6E2E2028496E204461746173CC
:102DB00068656574290053657420746865204469EA
:102DC0007468657220416D706C69747564652C203F
:102DD00030206973204D6178696D756D202834202D
:102DE000626974732900456E61626C652F44697372
:102DF00061626C6520446974686572204D6978650C
:102E00007200456E61626C652F44697361626C6526
:102E100020446974686572696E6700456E61626C12
:102E2000652F44697361626C6520496E76657273C3
:102E3000652053696E632046696C74657200536D3A
:102E4000616C6C204672616374696F6E616C2044C2
:102E5000656C617920506174682053657474696E83
:102E6000677300536D616C6C204672616374696FA7
:102E70006E616C2044656C61792053657474696E71
:102E80006773004C61726765204672616374696F95
:102E90006E616C2044656C61792053657474696E51
:102EA000677300514D43207068617365206F6666DB
:102EB0007365742C203132626974732C202D302E8E
:102EC00035202D20302E34393937352C2072656667
:102ED000657220746F206461746173686565740045
:102EE000514D43206761696E206F66667365742C6F
:102EF000203131626974732C20646563696D616C83
:102F000020706E742040206C656674206F662062AD
:102F10006974392C2072616E67652030202D203154
:102F20002E393939302C204C53423D302E30303040
:102F30003937363600514D43204443206F6666735F
:102F400065742C203133626974732C206D65617354
:102F50007572656420696E20444143204C534227BA
:102F60007300496E697469616C697A657320616E7A
:102F70006420636F6E666967757265732074686537
:102F8000204A455344206C696E6B2E0044756D7069
:102F9000206F757420616C6C206F662074686520EA
:102FA0007265676973746572732E00476574732068
:102FB0007468652074656D706572617475726520E2
:102FC0006F6620746865204441432E00456E61623F
:102FD0006C6520746865206D697865722E203120DB
:102FE000746F20656E61626C652E00536574207489
:102FF0006865204E434F206C6F7765722033322D09
:10300000626974732072656769737465722C2077C6
:103010007269746520746F20757070657220333228
:103020002D6269747320666972737421212A2A00E3
:1030300053657420746865204E434F207570706529
:10304000722033322D6269747320726567697374FC
:1030500065722E00537065636966792077686963CD
:103060006820696E7465726E616C20444143206310
:1030700068616E6E656C3A2028302D332920412D11
:10308000442E0053706563696679207768696368C8
:10309000206368616E6E656C20612C622C632C6409
:1030A0002C204F5220626974206D61736B2E204D6D
:1030B000555354207370656369667920666972732D
:1030C000742E003510E90FB90F890F5E0F340F0D04
:1030D0000FCB0E9F0E7A0E660E350E0D0EED11CA39
:1030E000119F11881146111311EE10DA10A91081E9
:1030F00010641341131613F412B2128D1279124890
:1031000012201253147C149314B014A9148D155B5F
:103110001525150915D914B9145C173D17F416B9FE
:1031200016A3168D165F1633161316EA15B71595E6
:10313000197F17D318B318821861184418FC17A602
:103140001795195019391922190F199519801967EE
:10315000199519801967190C1AA9192B1A0C1AD666
:10316000194B1A741A8A1A3D25B51AAC1AA11A3DC0
:10317000256E1B331BFE1AE01AC01A3D25A21E83C2
:103180001E3A1E1A1EDF1DC91DB31D851D5C1D15AF
:103190001DB31C751C281C081CDC1BAF1B3D251F08
:1031A0001FEE1EC51E3D25702232220E22CD21AFFC
:1031B000217C2150212821FB20C8209C205F203227
:1031C00020F31FBF1F7B1F4B1F3D250E25E524C489
:1031D000247E246E2445240A24C7237E23592319E0
:1031E00023BB227C25A525BC258330DD25D2258364
:1031F00030D927BA277127512716270027EA26BC7E
:103200002690267026472627260E26E6258330A9F7
:10321000286B2835281C28FC2783300629E12883C1
:1032200030992C5B2C372C1A2CDF2BA42B5F2B33E3
:103230002B0B2BDE2AAB2A7F2A522A152ADB29AB3D
:103240002967293729833054303030EB2FCC2FAB0E
:103250002F8C2F622F352FE02EA32E832E632E3E30
:103260002E1B2E022EE62DB62D742D502D162DE47C
:103270002C0011241FBECFEFCDBFDFE5DEBF00E085
:103280000CBF11E3A0E0B0E2EAE4FBE301E00BBF16
:1032900002C007900D92A631B107D9F729E3A6E144
:1032A000B1E301C01D92A639B207E1F70E94F29284
:1032B0000C94A39D0C940000DF92EF92FF920F9369
:1032C0001F93CF93DF9300D0CDB7DEB780919000EE
:1032D0008983809191008A83809192008B838E01F3
:1032E0000F5F1F4F89E2E82E87E2F82E93E0D92E78
:1032F000D00EF80181918F011F928F93FF92EF9270
:103300000E945B970F900F900F900F90D012F1CF0B
:103310008AE090E00E946D9780E02396CDBFDEBFEB
:10332000DF91CF911F910F91FF90EF90DF90089563
:103330006150710981099109D9F708958F929F927F
:10334000AF92BF92CF92DF92EF92FF920F931F93B3
:10335000CF93DF936B017C019090202600E010E07A
:10336000C0E0A92CB12C88248394C501002E02C092
:10337000959587950A94E2F780FFACC0882D002EC2
:1033800001C0880F0A94EAF78093202640E060E1AC
:103390008CE299E30E946282D82F40E060E28CE2E6
:1033A00099E30E9462828D0FC80F40E060E48CE2D6
:1033B00099E30E946282C80F40E060E88CE299E3E2
:1033C0000E946282C80F81E2C8168AEAD80684E4A5
:1033D000E806F10440F040E060E18CE299E30E94ED
:1033E000628241E064C081E6C81683EED80686E1B9
:1033F000E806F10440F041E060E18CE299E30E94CC
:10340000628241E033C081EBC81681E7D8068BE0C9
:10341000E806F10470F041E060E18CE299E30E947B
:10342000628240E060E28CE299E30E94628241E0C5
:1034300034C089EDC81688EBD80685E0E806F104AB
:1034400040F041E060E18CE299E30E94628241E059
:103450001EC040E060E182E0C816D104E104F1043E
:1034600060F08CE299E30E94628240E060E28CE2CC
:1034700099E30E94628241E020C08CE299E3C1148A
:10348000D104E104F10481F00E94628240E060E234
:103490008CE299E30E94628240E060E48CE299E36E
:1034A0000E94628241E00FC00E94628240E060E2BE
:1034B0008CE299E30E94628240E060E48CE299E34E
:1034C0000E94628240E060E88CE299E30E9462829E
:1034D000909220260F5F1F4F0430110509F045CF51
:1034E0008C2FDF91CF911F910F91FF90EF90DF9084
:1034F000CF90BF90AF909F908F900895CF93C09141
:10350000202681E08093202640E060E282E399E378
:103510000E94628284E08093202640E060E282E3A1
:1035200099E30E946282C0932026CF910895CF93A1
:103530000E947E1AC09120268C2F837011F081E0AA
:1035400001C084E08093202641E060E282E399E3B9
:103550000E946282C0932026CF910895EF92FF923D
:103560000F931F93CF93DF9386E299E30E94337FFB
:10357000C82F80E399E30E94EE53C80FF0902026F5
:103580008FE08093202600E010E0EE24E394809109
:10359000202690E0002E02C0959587950A94E2F7C8
:1035A00080FF19C08E2D002E01C0880F0A94EAF703
:1035B0008093202640E061E082E399E30E946282EA
:1035C000D82F40E060E882E399E30E9462828D0F89
:1035D000C80FF09220260F5F1F4F04301105B9F677
:1035E0008C2FDF91CF911F910F91FF90EF90089555
:1035F000EF92FF920F931F93CF93DF9300E010E0C1
:10360000C0E0EE24E394F12CC701002E02C0880F25
:10361000991F0A94E2F79C0125703327232B31F17F
:103620008093202640E064E082E399E30E94938146
:10363000D82F40E060E282E399E30E9493818D0FEE
:10364000C80F41E060E482E399E30E949381C80FD0
:1036500041E064E082E399E30E946282C80F40E0A7
:1036600060E282E399E30E946282C80F0F5F1F4FFE
:103670000430110549F6E12CF12C01E010E0C801FD
:103680000E2C02C0880F991F0A94E2F79C012A7041
:103690003327232B09F47EC08093202640E064E08A
:1036A00082E399E30E949381D82F40E068E082E3AF
:1036B00099E30E9493818D0FC80F40E060E182E39F
:1036C00099E30E949381C80F40E060E282E399E3AE
:1036D0000E949381C80F40E060E482E399E30E9476
:1036E0009381C80F41E064E082E399E30E94628223
:1036F000C80F40E060E482E399E30E946282C80F51
:1037000041E060E282E399E30E946282C80F40E0F8
:1037100060E182E399E30E946282C80F40E068E0C2
:1037200082E399E30E946282C80F41E060E482E391
:1037300099E30E946282C80F65E176E185E090E03E
:103740000E94981941E060E182E399E30E9462825D
:10375000C80F6AE171E480E090E00E94981940E0AF
:1037600060E182E399E30E946282C80F40E060E278
:1037700082E399E30E946282C80F6AE171E480E00B
:1037800090E00E94981941E060E182E399E30E9491
:103790006282C80F8FEFE81AF80A84E0E816F10495
:1037A00009F06DCF8FE0809320268C2FDF91CF9191
:1037B0001F910F91FF90EF900895EF92FF920F935A
:1037C0001F93CF93DF93CFE0C09320262CE139E302
:1037D00041E259E36AED76E28EE299E30E94C15B31
:1037E00028EE36E24CE159E361E279E38AE199E3BC
:1037F0000E94D41FD09120262CE139E341E259E305
:103800006CE976E282E399E30E9412832CE139E3CA
:1038100041E259E36AEA76E28CE299E30E9412837C
:103820002CE139E341E259E368EB76E28AE299E37D
:103830000E94FC4B04E017E22CE139E341E259E33A
:103840006EE270E286E299E30E94507FD0932026D8
:1038500026EF36E24CE159E361E279E380E399E354
:103860000E9434706AE179E388E699E30E94727FEE
:10387000C0932026C0E0D0E00FE010E0EE24E394F7
:103880008FE0F82EC8010C2E02C0959587950A94FA
:10389000E2F780FF84C08E2D0C2E01C0880F0A94A1
:1038A000EAF78093202682E399E30E94C9828CE2A2
:1038B00099E30E94C98240E061E08CE299E30E94B2
:1038C000938141E062E08CE299E30E94938140E0C1
:1038D00064E08CE299E30E94938140E068E08CE22E
:1038E00099E30E94938140E060E18CE299E30E94B9
:1038F000938140E060E28CE299E30E94938140E092
:1039000060E48CE299E30E94938140E060E88CE2FD
:1039100099E30E94938140E061E082E399E30E9491
:10392000938140E060E882E399E30E94938141E063
:1039300061E08CE299E30E94628241E064E08CE203
:1039400099E30E94628241E068E08CE299E30E9480
:10395000628241E060E18CE299E30E94628241E090
:1039600060E28CE299E30E94628240E060E48CE2D3
:1039700099E30E94628241E060E88CE299E30E9450
:10398000628241E061E082E399E30E94628241E069
:1039900060E882E399E30E946282F09220262196F9
:1039A000C430D10509F06ECF0E947E1AA8958FE031
:1039B00080932026C0E0D0E08091202690E00C2E5D
:1039C00002C0959587950A94E2F780FF06C041E012
:1039D00068E08CE299E30E9462822196C430D105AE
:1039E00059F780E399E30E94B6708AE199E30E9457
:1039F000182286E299E30E94477F0E94D558A89535
:103A000081E0809320260E94971A8EE299E30E941B
:103A10007B5EC82F882321F08EE297E20E94739785
:103A2000D4E0D09320260E94971A8EE299E30E9458
:103A30007B5EC80FD9F08EE497E20E9473978EE602
:103A400097E20E94739781E0809320260E94971A44
:103A50008EE299E30E947B5EC82FD09320260E94BD
:103A6000971A8EE299E30E947B5EC80FA895CC233B
:103A7000C9F08CE997E20E94739781E08093202639
:103A80000E94971A8EE299E30E94115EC82FA895B2
:103A900084E0809320260E94971A8EE299E30E9488
:103AA000115EC80FA895CC23D9F086ED97E20E944D
:103AB00073970E94D558A89581E0809320260E9494
:103AC000971A8EE299E30E947B5EC82F84E0809370
:103AD00020260E94971A8EE299E30E947B5EC80F0F
:103AE0000E947E1AA895CC2321F08FE098E20E94D4
:103AF000739700E010E0D1E08D2F002E01C0880FF9
:103B00000A94EAF78093202641E150E061E170E0F9
:103B100088E699E30E94A583C80F0F5F1F4F04300A
:103B2000110551F761E786E299E30E94037FC80F10
:103B30008FE08093202680E399E30E94B453C80F5E
:103B400060E070E0CB010E949E198C0FDF91CF9155
:103B50001F910F91FF90EF9008950F931F93CF93B4
:103B6000DF93C0E0D0E00BE218E28C2F0E94112B13
:103B70001F928F93DF93CF931F930F930E945B97B6
:103B800021960F900F900F900F900F900F90C630CE
:103B9000D10559F780E0DF91CF911F910F910895E2
:103BA000DF92EF92FF920F931F93CF93DF93CDB7E6
:103BB000DEB72B97CDBFDEBFCE0101960E94328BC0
:103BC0008E010F5F1F4F89E2E82E87E2F82E9BE0FF
:103BD000D92ED00EF80181918F011F928F93FF9201
:103BE000EF920E945B970F900F900F900F90D01262
:103BF000F1CF8AE090E00E946D9780E02B96CDBFD8
:103C0000DEBFDF91CF911F910F91FF90EF90DF907A
:103C10000895CF938DE398E29F938F9380E498E289
:103C20009F938F930E945B9783E598E29F938F9376
:103C30008CE598E29F938F930E945B9788E698E2C9
:103C40009F938F9381E898E29F938F930E945B9755
:103C50008FE898E29F938F9383EA98E29F938F93E4
:103C60000E945B9781EB98E29F938F930E945B97F2
:103C70000E94D01DC82F85EC98E29F938F930E94DD
:103C80005B970E945C19C80F82ED98E29F938F9317
:103C90000E945B97809193001F928F938BE69AE22C
:103CA0009F938F930E945B9781EE98E20E94739797
:103CB0000E94AD1D2DB73EB7265E3F4F2DBF3EBFC4
:103CC0008C0FCF910895682F8CE090E20E942D68B0
:103CD00080E090E008951F920F920FB60F9211248A
:103CE0000BB60F922F933F934F935F936F937F93F6
:103CF0008F939F93AF93BF93EF93FF938CE090E2EA
:103D00000E94196BFF91EF91BF91AF919F918F919D
:103D10007F916F915F914F913F912F910F900BBECB
:103D20000F900FBE0F901F9018951F920F920FB615
:103D30000F9211240BB60F922F933F934F935F93E3
:103D40006F937F938F939F93AF93BF93EF93FF9363
:103D500020E040E050E060E070E08CE090E20E9403
:103D6000C96BFF91EF91BF91AF919F918F917F911F
:103D70006F915F914F913F912F910F900BBE0F90DC
:103D80000FBE0F901F90189580E0089580919125A7
:103D900090919225A0919325B09194258130910521
:103DA000A105B10511F481E005C00297A105B10597
:103DB00029F482E0809395248093942480E00895F0
:103DC000CF93DF9300D01F92CDB7DEB720918E390D
:103DD00030918F392115310511F426E939E3CE01EF
:103DE0000196821B930B1F921F929F938F9380E1EA
:103DF00099E29F938F930E945B970F900F900F9083
:103E00000F900F900F9080E02496CDBFDEBFDF9122
:103E1000CF9108958091B3259091B425A091B525B7
:103E2000B091B625AC01BD0141505109610971093C
:103E3000443651056105710558F4AC01BD0140518E
:103E4000510961097109413551056105710530F468
:103E500085E299E20E94739781E008958136910589
:103E6000A105B10540F08156910991E001C0990F7B
:103E70008A95EAF7892F8093202680E00895809123
:103E8000202681508F3020F085E299E20E947397BE
:103E900080E008958091A3249091A424A091A5246A
:103EA000B091A624AC01BD014150510961097109CD
:103EB000443651056105710558F4AC01BD0140510E
:103EC000510961097109413551056105710530F4E8
:103ED00085E299E20E94739781E008958136910509
:103EE000A105B10540F08156910991E001C0990FFB
:103EF0008A95EAF7892F8093202680E008950F9312
:103F00001F93CF93DF93C0913C25CB30D8F480E44E
:103F100080930606D0E0CC0FDD1F10E000E4812F77
:103F200090E08C179D0754F465E176E185E090E020
:103F30000E949819009307061F5FF1CF80E48093D9
:103F4000060604C085E299E20E94739780E0DF9143
:103F5000CF911F910F9108950E94091E882321F08F
:103F600085E299E20E94739780E008950E94AE1A5C
:103F700080E008950E94AE1A882321F085E299E23C
:103F80000E94739780E008950E94DD1B882321F032
:103F900085E299E20E94739780E0089521E0892BE1
:103FA00009F020E0822F0895009769F0FC0120833A
:103FB0003183609336397093373940933439509355
:103FC000353980E0089581E00895EF92FF920F93D4
:103FD0001F93CF93DF930097D1F06230D0F4462F38
:103FE000EC01E0903639F090373900913439109176
:103FF0003539B701C8010E94467888819981DC0172
:10400000ED91FC91A701B801199580E003C081E012
:1040100001C082E0DF91CF911F910F91FF90EF904F
:104020000895EF92FF920F931F93CF93DF93009722
:10403000C9F0EC01E0903639F0903739009134390D
:10404000109135392FE043E0B701C8010E9419787B
:1040500088819981DC01ED91FC91A701B801199546
:1040600080E001C081E0DF91CF911F910F91FF901F
:10407000EF900895EF92FF920F931F93CF93DF93EA
:10408000009719F1643018F5EC01E0903639F090A2
:1040900037390091343910913539E1E0F0E0CF0142
:1040A00002C0880F991F6A95E2F79C0143E0B701AF
:1040B000C8010E94197888819981DC01ED91FC91F9
:1040C000A701B801199580E003C081E001C082E03A
:1040D000DF91CF911F910F91FF90EF900895EF9294
:1040E000FF920F931F93CF93DF930097C9F0EC01DA
:1040F000E0903639F09037390091343910913539E4
:104100002FE040E0B701C8010E94197888819981A9
:10411000DC01ED91FC91A701B801199580E001C087
:1041200081E0DF91CF911F910F91FF90EF90089563
:10413000EF92FF920F931F93CF93DF93009719F1A4
:10414000643018F5EC01E0903639F0903739009181
:10415000343910913539E1E0F0E0CF0102C0880F29
:10416000991F6A95E2F79C0140E0B701C8010E94DF
:10417000197888819981DC01ED91FC91A701B80142
:10418000199580E003C081E001C082E0DF91CF910A
:104190001F910F91FF90EF900895EF92FF920F9370
:1041A0001F93CF93DF930097C9F0EC01E09036396D
:1041B000F090373900913439109135392FE043E0D0
:1041C000B701C8010E94197888819981DC01ED91BD
:1041D000FC91A701B801199580E001C081E0DF9151
:1041E000CF911F910F91FF90EF900895EF92FF9262
:1041F0000F931F93CF93DF930097C9F0EC01E090EA
:104200003639F090373900913439109135392FE033
:1042100043E0B701C8010E94197888819981DC01C7
:10422000ED91FC91A701B801199580E001C081E0F2
:10423000DF91CF911F910F91FF90EF900895EF9232
:10424000FF920F931F93CF93DF930097C9F0EC0178
:10425000E0903639F0903739009134391091353982
:104260002FE043E0B701C8010E9419788881998145
:10427000DC01ED91FC91A701B801199580E001C026
:1042800081E0DF91CF911F910F91FF90EF90089502
:10429000EF92FF920F931F93CF93DF93009761F1FB
:1042A000AB01EC01E0903639F090373900913439A8
:1042B00010913539B701C8010E946E7888819981C3
:1042C000DC01ED91FC91A701B8011995E090363918
:1042D000F09037390091343910913539B701C80160
:1042E0000E945A7888819981DC01ED91FC91A701A7
:1042F000B801199580E001C081E0DF91CF911F9155
:104300000F91FF90EF900895CF92DF92EF92FF927E
:104310001F93CF93DF93009779F1443078F5142FF2
:10432000AB01EC01C0903639D0903739E090343988
:10433000F0903539212FB601C7010E949E788881FF
:104340009981DC01ED91FC91A601B7011995C0900E
:104350003639D0903739E0903439F0903539412FE3
:10436000B601C7010E948A7888819981DC01ED91AC
:10437000FC91A601B701199580E001C082E0DF91B0
:10438000CF911F91FF90EF90DF90CF900895EF9223
:10439000FF920F931F93CF93DF930097C9F09A0179
:1043A000AB01EC01E0903639F090373900913439A7
:1043B00010913539B701C8010E94F277888199813F
:1043C000DC01ED91FC91A701B801199580E001C0D5
:1043D00081E0DF91CF911F910F91FF90EF900895B1
:1043E000EF92FF920F931F93CF93DF930097C1F04B
:1043F000EC01E0903639F090373900913439109162
:10440000353941E0B701C8010E943278888199812D
:10441000DC01ED91FC91A701B801199580E001C084
:1044200081E0DF91CF911F910F91FF90EF90089560
:10443000EF92FF920F931F93CF93DF93009709F4AE
:104440006DC0EC01E0903639F09037390091343985
:104450001091353941E0B701C8010E944678888142
:104460009981DC01ED91FC91A701B8011995E090CB
:104470003639F0903739009134391091353940E0B0
:10448000B701C8010E94057888819981DC01ED910E
:10449000FC91A701B8011995E0903639F0903739B1
:1044A00000913439109135392FE043E0B701C8014C
:1044B0000E94197888819981DC01ED91FC91A70116
:1044C000B8011995E0903639F090373900913439B8
:1044D0001091353940E050E0B701C8010E946E7874
:1044E00088819981DC01ED91FC91A701B8011995B2
:1044F000E0903639F09037390091343910913539E0
:10450000B701C8010E945A7888819981DC01ED9138
:10451000FC91A701B801199580E001C081E0DF910D
:10452000CF911F910F91FF90EF900895EF92FF921E
:104530000F931F93CF93DF93009709F445C0EC01CD
:104540000E941822E0903639F090373900913439C2
:10455000109135394FEF57E0B701C8010E946E78CE
:1045600088819981DC01ED91FC91A701B801199531
:10457000E0903639F090373900913439109135395F
:10458000B701C8010E945A7888819981DC01ED91B8
:10459000FC91A701B8011995E0903639F0903739B0
:1045A00000913439109135392FE040E0B701C8014E
:1045B0000E94197888819981DC01ED91FC91A70115
:1045C000B801199580E001C081E0DF91CF911F9182
:1045D0000F91FF90EF900895EF92FF920F931F932A
:1045E000CF93DF93C62F60932026E62EF12C8823ED
:1045F00019F100E010E0D1E0C701002E02C095954E
:1046000087950A94E2F780FF10C08D2F002E01C01D
:10461000880F0A94EAF78093202641E060E882E35D
:1046200099E30E946282C09320260F5F1F4F0430DF
:10463000110511F7D1E02BC080E399E30E94B45338
:1046400060E070E0CB010E949E1900E010E0D1E034
:10465000C701002E02C0959587950A94E2F780FF66
:1046600010C08D2F002E01C0880F0A94EAF78093A6
:10467000202640E060E882E399E30E946282C093D2
:1046800020260F5F1F4F0430110511F7D0E0C0FF47
:104690000DC081E0809320260E94971A4D2F60E084
:1046A0008EE299E30E949B7C0E947E1AC1FF0DC09E
:1046B00081E0809320260E94971A4D2F61E08EE2C0
:1046C00099E30E949B7C0E947E1AC2FF0DC084E089
:1046D000809320260E94971A4D2F60E08EE299E386
:1046E0000E949B7C0E947E1AC3FF0DC084E08093D1
:1046F00020260E94971A4D2F61E08EE299E30E94D6
:104700009B7C0E947E1A80E0DF91CF911F910F91D8
:10471000FF90EF90089580916F2590917025A09162
:104720007125B091722560912026892B8A2B8B2BC5
:1047300031F08FEF860F8F3048F481E005C08FEFA6
:10474000860F8F3018F480E00E94EC2280E00895FC
:104750003F924F925F926F927F928F929F92AF9211
:10476000BF92CF92DF92EF92FF920F931F93CF935E
:10477000DF9300D01F92CDB7DEB7382E4B01809368
:104780002026E12CF12C682E712C81E5482E89E23F
:10479000582E96E6C92E99E2D92E2DE7A22E29E2AF
:1047A000B22EC3010E2C02C0959587950A94E2F7AC
:1047B00080FF43C081E090E00E2C02C0880F991F5B
:1047C0000A94E2F7809320269F938F93ACE2B9E29C
:1047D000BF93AF930E945B978E010F5F1F4F9E01A7
:1047E0002E5F3F4FAE014D5F5F4FBE016C5F7F4F4D
:1047F000C4010E947E7F8C811F928F93ADE3B9E24A
:10480000BF93AF930E945B978B811F928F935F92B0
:104810004F920E945B978A811F928F93DF92CF9273
:104820000E945B9789811F928F93BF92AF920E94E3
:104830005B9730922026CDBFDEBFBFEFEB1AFB0A9D
:1048400084E0E816F10409F0ACCF80E02496CDBFF7
:10485000DEBFDF91CF911F910F91FF90EF90DF901E
:10486000CF90BF90AF909F908F907F906F905F9010
:104870004F903F900895CF92DF92EF92FF920F9367
:104880001F93CF93DF931F92CDB7DEB7809320267F
:104890000E94971AC12CD12C05E919E28EE9E82E65
:1048A00089E2F82E6C2D80E8C816D10409F18C2D10
:1048B000837061F4DF92CF921F930F9369830E94FC
:1048C0005B970F900F900F900F9069818EE299E3A4
:1048D0000E9480799F938F93FF92EF920E945B9743
:1048E0008FEFC81AD80A0F900F900F900F90DACF61
:1048F0008AE090E00E946D970E947E1A80E00F90FF
:10490000DF91CF911F910F91FF90EF90DF90CF90AB
:104910000895CF92DF92EF92FF920F931F93CF9360
:10492000DF931F921F92CDB7DEB7809320261982A6
:104930001A8286ECE82E86E2F82E00E010E096EA75
:10494000C92E99E2D92E8091202690E0002E02C037
:10495000959587950A94E2F780FF1FC0AE014F5FDF
:104960005F4FF801E253F94D6081F7018081918139
:104970000E94C18C8A818F9389818F93C8018F5B3C
:104980009F4F9F938F93DF92CF920E945B970F90E0
:104990000F900F900F900F900F900F5F1F4FF2E04E
:1049A000EF0EF11C0430110571F680E00F900F90AE
:1049B000DF91CF911F910F91FF90EF90DF90CF90FB
:1049C0000895809120269FEF980F9F3028F085E270
:1049D00099E20E94739704C00E9489248111F7CF45
:1049E00080E008959F92AF92BF92CF92DF92EF92B4
:1049F000FF920F931F93CF93DF931F92CDB7DEB734
:104A0000E82E80932026198200E010E0F12CA82ED9
:104A1000B12C9924939489EBC82E89E2D82EC50134
:104A2000002E02C0959587950A94E2F780FF24C076
:104A3000892D002E01C0880F0A94EAF78093202662
:104A4000AE014F5F5F4F62E08CE299E30E945181BB
:104A5000F80E89811F928F93809120261F928F9349
:104A6000DF92CF920E945B97E09220260F900F90EA
:104A70000F900F900F900F900F5F1F4F0430110594
:104A800071F68F2D0F90DF91CF911F910F91FF90B5
:104A9000EF90DF90CF90BF90AF909F9008958DE3FF
:104AA00098E29F938F9380E498E29F938F930E9464
:104AB0005B970F900F900F900F9020E040911C2675
:104AC00069E089ED95E20C94529180EE99E20E94A2
:104AD00073970E94148C80E008950E94148C80E0EB
:104AE0000895CF938091D5259091D625A091D72573
:104AF000B091D825892B8A2B8B2B29F080E399E361
:104B00000E94F8530BC080E399E30E94B453C82F6E
:104B100060E070E0CB010E949E198C0F882321F089
:104B200085E299E20E94739780E0CF9108958AE22E
:104B300099E30E94334B80E00895CF93DF93C091B7
:104B40002026409180255091812560918225709189
:104B500083258C2F8370DC2FDC70452B462B472B55
:104B6000C9F0882369F081E0809320260E94971A7B
:104B700061E070E08EE299E30E948F490E947E1A04
:104B8000DD2331F184E0809320260E94971A61E0B2
:104B900070E018C0882369F081E0809320260E948D
:104BA000971A60E070E08EE299E30E948F490E94BC
:104BB0007E1ADD2369F084E0809320260E94971AF4
:104BC00060E070E08EE299E30E948F490E947E1AB5
:104BD000C093202680E0DF91CF910895CF93DF939B
:104BE000D09120268FEF8D0F8F3028F085E299E24B
:104BF0000E9473974EC080E399E30E94B453C82F7C
:104C000060E070E0CB010E949E19C80F86E299E334
:104C10000E942A7FC80FD0FF0DC081E0809320261C
:104C20000E94971A40E060E08EE299E30E949B7C2C
:104C30000E947E1AD1FF0DC081E0809320260E9441
:104C4000971A40E061E08EE299E30E949B7C0E940B
:104C50007E1AD2FF0DC084E0809320260E94971A0E
:104C600040E060E08EE299E30E949B7C0E947E1A05
:104C7000D3FF0DC084E0809320260E94971A40E065
:104C800061E08EE299E30E949B7C0E947E1AC11132
:104C9000ADCF80E0DF91CF9108952F923F924F9258
:104CA0005F926F927F928F929F92AF92BF92CF92BC
:104CB000DF92EF92FF920F931F93CF93DF931F9298
:104CC0001F92CDB7DEB719821A8200E010E06FE0C4
:104CD000E62EF12CCC24C394D12CC701002E02C0A7
:104CE000959587950A94E2F780FF0AC0C601002EC9
:104CF00001C0880F0A94EAF7809320260E94F224CC
:104D00000F5F1F4F0430110541F700E010E084EB06
:104D1000282E8AE2382E9BE9492E9AE2592E27E85E
:104D2000622E2AE2722E38E5A32E3AE2B32E4EE42A
:104D3000E42E4CE0F42E59E4852E5AE2952E85E0BF
:104D400090E0002E02C0959587950A94E2F780FFC7
:104D5000C3C081E0002E01C0880F0A94EAF7809357
:104D6000202619821A820E94971ABE016F5F7F4F18
:104D70008EE299E30E94075C882339F01F928F939B
:104D8000FF92EF9288E09AE20AC08A818F9389812C
:104D90008F93809120261F928F938FE09AE29F93AA
:104DA0008F930E945B970F900F900F900F900F9032
:104DB0000F9019821A82C12CD12C64E66C0D8EE200
:104DC00099E30E94807989839A839F938F93DF92DE
:104DD000CF92809120261F928F93ACE2BAE2BF93CC
:104DE000AF930E945B9719821A829FEFC91AD90A62
:104DF000CDBFDEBFB4E0CB16D104F9F6BE016F5FC4
:104E00007F4F8EE299E30E944F79882379F01F92B9
:104E10008F93FF92EF929F928F920E945B970F90D9
:104E20000F900F900F900F900F9010C08A818F936A
:104E300089818F931F921F92809120261F928F93BA
:104E4000BF92AF920E945B97CDBFDEBF19821A82DC
:104E50008EE299E30E94CD5D20912026892B39F0C6
:104E60001F922F93A1E7BAE2BF93AF9304C01F92A2
:104E70002F937F926F920E945B970F900F900F90ED
:104E80000F908EE299E30E94BF5D909120268823C7
:104E900029F01F929F935F924F9204C01F929F939D
:104EA0003F922F920E945B970F900F900F900F9060
:104EB000809120261F928F93A1EDBAE2BF93AF930A
:104EC0000E945B978EE299E30E94DC7C0E947E1A2E
:104ED0000F900F900F900F900F5F1F4F0430110530
:104EE00009F02DCF8FE00E94892480E00F900F9071
:104EF000DF91CF911F910F91FF90EF90DF90CF90B6
:104F0000BF90AF909F908F907F906F905F904F90E9
:104F10003F902F900895CF93DF9300D0CDB7DEB7A9
:104F20000E94971A19821A82409190248EE299E386
:104F30004B830E94DC7C4B81BE016F5F7F4F8EE212
:104F400099E30E94467D89819A81009729F481EF37
:104F50009AE20E9473970CC09F938F9389EF9AE215
:104F60009F938F930E945B970F900F900F900F90DD
:104F70000E947E1A80E02396CDBFDEBFDF91CF91E5
:104F8000089590915100982381E009F480E00895FC
:104F9000CF93C82F8C2F0E94C1278823D9F3CF919C
:104FA000089508958FBF08958FB7F8940895CF930B
:104FB000C82F0E94D427E0E5F0E020819C2F909537
:104FC00092239083CF910C94D227CF93C82F0E9425
:104FD000D427E0E5F0E090819C2B9083CF910C9456
:104FE000D227883011F00C94E5270895CF93DF93F2
:104FF000C82FD62F0E94D427EC2FF0E0E059FF4FA6
:105000006081D62BD083DF91CF910C94D2271F9350
:10501000CF93DF931F92CDB7DEB7182F69830E941D
:10502000D427E12FF0E0E059FF4F6981609590812E
:10503000692360830F90DF91CF911F910C94D22749
:105040008FEF809370008093710080937200809343
:10505000730080937400809375008093760082E0E3
:105060000E94F12782E00E94C82761E080E490E07E
:105070000E94899481E00C94D727FC01848195815A
:10508000019741F56115710529F180819181468172
:10509000578141505109481B590B228133812817F0
:1050A000390728F42F5F3F4F240F351F02C0281BFC
:1050B000390B2617370770F04617570728F4641B7B
:1050C000750B6150710902C0680F791F608371838D
:1050D00080E0089581E00895FC01428153812081A0
:1050E00031812417350758F4421B530B2681378131
:1050F0002150310981E04217530740F406C0241BB8
:10510000350B81E02130310509F080E00895CF931F
:10511000DF93EC014C815D812A813B81429FC0017C
:10512000439F900D529F900D112428853985820F41
:10513000931F0E945297CE010E946C282E813F81BE
:10514000882351F0888199810196888399838217F9
:10515000930710F0188219828A819B8101968A83B5
:105160009B838217930710F01A821B82CE010E9444
:105170006C2891E08927DF91CF910895FC0181E0AF
:1051800040815181228133814217530709F080E029
:1051900008950F931F93CF93DF93EC018B010E942F
:1051A000BE2881111FC04C815D8188819981489FF3
:1051B0009001499F300D589F300D112468857985E5
:1051C000620F731FC8010E945297888199810196CE
:1051D000888399832E813F818217930728F0188254
:1051E000198202C080E001C081E0DF91CF911F9160
:1051F0000F910895AF92BF92CF92DF92EF92FF92FC
:105200000F931F93CF93DF931F92CDB7DEB7009715
:1052100011F480E021C061157105D9F36A017B01A9
:105220008C01A12CB12CAC14BD0499F3BE016F5FAD
:105230007F4FC8010E94C928811102C081E00CC0C3
:10524000BE016F5F7F4FC7010E9487288823B1F39B
:105250008FEFA81AB80AE7CF0F90DF91CF911F9177
:105260000F91FF90EF90DF90CF90BF90AF90089597
:10527000FC0182819381408151818417950720F43C
:1052800026813781820F931F841B950B0895EF921F
:10529000FF920F931F93CF93DF93009709F46AC097
:1052A000EC010E94BE28811165C02A813B818901E1
:1052B000E12CF12C688179816217730709F449C0E8
:1052C00088859985FC01E20FF31F4081483071F019
:1052D0000115110511F40E811F81015011092115CD
:1052E000310511F42E813F812150310940E050E019
:1052F000FA01EE0DFF1DDC01A20FB31FAC91A83027
:1053000019F060E070E016C062177307D1F34F5FC9
:105310005F4F2115310511F42E813F812150310954
:10532000E7CF2115310511F42E813F81215031093C
:105330006F5F7F4F64177507A1F7DC01A20FB31FE2
:105340004C91483021F0DC01A00FB11F4C937F013C
:10535000B1CFCE010E94382996958795E816F906B7
:1053600018F40883198304C01A821B8218821982D8
:1053700080E001C081E0DF91CF911F910F91FF90FC
:10538000EF9008950F931F93CF93DF93FC01248137
:10539000358121303105F9F48B01EC010E94382967
:1053A00008171907C0F428813981B801620F731FEB
:1053B0008E819F81288539856817790738F0AB0180
:1053C000481B590BF901E40FF51F03C0F901E60F63
:1053D000F71F808101C080E0DF91CF911F910F9175
:1053E0000895AF92BF92DF92EF92FF920F931F93B7
:1053F000CF93DF93009721F10115110509F1DC012D
:105400001696ED91FC911797E217F307C8F0EA01A1
:10541000D62E5C017901E40EF51ECE15DF0581F074
:10542000BE01C5010E94C2299E012F5F3F4F8D1111
:1054300005C0F801C083D18380E003C0E901EDCF4E
:1054400081E0DF91CF911F910F91FF90EF90DF905E
:10545000BF90AF9008958F929F92AF92BF92CF92DC
:10546000DF92EF92FF920F931F93CF93DF93FC0194
:10547000248135812130310509F040C05A016B018A
:105480007C010E9438294C01F60100811181EC0158
:105490002197B801C7010E94C2299FED980F9E3540
:1054A00050F48D3241F0E8010815190551F0F6016C
:1054B0000083118306C00C171D07A8F70F5F1F4F4D
:1054C000E8CF840101501109BE01C7010E94C22921
:1054D00081528E3560F0C815D90571F0F6018081D2
:1054E0009181C81BD90BF501C083D18305C0C017BA
:1054F000D10788F72196E8CF80E001C081E0DF91F5
:10550000CF911F910F91FF90EF90DF90CF90BF90C0
:10551000AF909F908F9008955F926F927F928F923D
:105520009F92AF92BF92CF92DF92EF92FF920F9332
:105530001F93CF93DF93FC01248135812130310506
:1055400051F57B018C010E9438293C01C0E0D0E07C
:10555000C615D70501F16E01570145018E189F0848
:10556000F50151905F01552069F0C614D70479F018
:10557000B601C8010E94C229FFEFCF1ADF0A5812F4
:1055800006C0EBCF892839F0CE01019606C08928E4
:1055900011F02196DDCF80E090E0DF91CF911F9157
:1055A0000F91FF90EF90DF90CF90BF90AF909F90C2
:1055B0008F907F906F905F900895FC011082118210
:1055C000128213820895FC011082118212821382CA
:1055D0004483558326833783608771870895FC0150
:1055E00080E090E0262F30E0D901082E02C0B5956A
:1055F000A7950A94E2F7A0FF05C0DF01A80FB91F25
:1056000050965C9301968830910571F740FF07C072
:1056100041FF02C0658301C0668361830895628390
:1056200008950F931F93CF93DF931F92CDB7DEB7EB
:1056300089830E94938B00EC11E08981F8018083BB
:1056400087E00E947D8BF80184810F90DF91CF91DC
:105650001F910F9108952F923F924F925F926F92F8
:105660007F928F929F92AF92BF92CF92DF92EF92F2
:10567000FF920F931F93CF93DF93CDB7DEB72A9797
:10568000CDBFDEBF4B015C011A012B833C830A872F
:105690006B017C01CC24E894D0F8AB81BC81AB2BAE
:1056A00009F46FC00E94938B2601370100E011E0DE
:1056B0001D822A85222359F0C301B2010E94648B06
:1056C00089839A83019639F021E02D8304C08FEFFE
:1056D0009FEF89839A83D301C2010296A11DB11D58
:1056E0008E839F83A887B987AB81BC81109761F1B6
:1056F00084149504A604B70481F41197AB83BC838A
:10570000BFEF8B1A9B0AAB0ABB0AF10181911F0103
:1057100089838B819C81892BB9F0D301C2010196C9
:10572000A11DB11D88159905AA05BB0569F4AB81BA
:10573000BC811197AB83BC838E809F80A884B98481
:10574000F10181911F018A8349815A81C301B2010C
:105750001E940F004E805F80688479840150110987
:1057600009F0A7CF2D81C701B601222319F00E94AD
:10577000E48B02C00E94FC8B82E0D80EE11CF11C7D
:105780008CCF2A96CDBFDEBFDF91CF911F910F91B5
:10579000FF90EF90DF90CF90BF90AF909F908F9051
:1057A0007F906F905F904F903F902F9008952F9231
:1057B0003F924F925F926F927F928F929F92AF92A1
:1057C000BF92CF92DF92EF92FF920F931F93CF93EE
:1057D000DF931F921F92CDB7DEB75A0179016B019B
:1057E00010E088248A94982CE114F10409F44DC047
:1057F000412C512C32011201002379F0C2010E9488
:10580000798B8983C20101960E94798B8A83898171
:105810009A81019621F011E002C089829A82E114F6
:10582000F10401F1C214D30469F481E0E81AF1082B
:10583000EFEFCE1ADE0AF50181915F018983E11451
:10584000F10481F0C10101968C159D0559F4F1E038
:10585000EF1AF108610122E0C20ED11CF50181911D
:105860005F018A8349815A81C301B2011E940F00EE
:10587000F2E04F0E511C611C711C411422E05206D3
:105880006104710409F0B7CFAFCF11110E94DC8B16
:105890000F900F90DF91CF911F910F91FF90EF909C
:1058A000DF90CF90BF90AF909F908F907F906F9040
:1058B0005F904F903F902F900C94D48BEF92FF927B
:1058C0000F931F93CF93DF9371707A01E20EF31E53
:1058D000EA018B01041B150BCE01800F911FCE1521
:1058E000DF0521F00E94798B8993F6CFDF91CF916C
:1058F0001F910F91FF90EF900895CF92DF92EF925A
:10590000FF920F931F93CF93DF936B017C01EA010A
:1059100089010E94938B0C0F1D1FC017D10759F0EE
:10592000C701B6010E94698B89938FEFC81AD80A04
:10593000E80AF80AF2CFDF91CF911F910F91FF9003
:10594000EF90DF90CF900895CF92DF92EF92FF9289
:105950001F93CF93DF93C0ECD1E01A85EAE3EA8787
:105960006883C72ED82EE92EFF24C982AA27BB2719
:105970008A832C83BB27A52F942F832F8D83CA0165
:10598000AA27BB278E8361E08BEC91E00E9489946B
:105990001A87DF91CF911F91FF90EF90DF90CF900A
:1059A00008950E94938B80E30C947D8BCF93DF93BB
:1059B0001F92CDB7DEB789830E94938B898120E245
:1059C000829FC0011124E0ECF1E012829183808378
:1059D00082E30F90DF91CF910C947D8BCF93DF9377
:1059E0001F92CDB7DEB789830E94938B898120E215
:1059F000829FC0011124E0ECF1E012829183808348
:105A000084E30F90DF91CF910C947D8BCF93DF9344
:105A10001F92CDB7DEB789830E94938B898120E2E4
:105A2000829FC0011124E0ECF1E012829183808317
:105A300085E30F90DF91CF910C947D8BCF93DF9313
:105A40001F921F92CDB7DEB76A8389830E94938B22
:105A50000E94738B8981E82FF0E0F05F6A81608398
:105A60000F900F90DF91CF910C946D8B0F931F933C
:105A7000CF938C010E94938BC0E0F80161918F015C
:105A80008C2F0E941E2DCF5FC032B9F7CF911F918E
:105A90000F9108950E94938B8091CF0181FF05C0E3
:105AA00086E38093CA010C948E8B0895CF93DF9385
:105AB000D82F0E944A2D0E94938BC0E06D2F8C2F0F
:105AC0000E941E2DCF5FC032C9F7DF91CF9108959C
:105AD0008FEF0E94562D0C94D12CCF93C82F8FEFAF
