:100000000C9435170C9456170C9456170C945617DD
:100010000C9456170C9456170C9456170C945617AC
:100020000C9456170C9456170C9456170C9456179C
:100030000C9456170C944B440C9456170C9456176A
:100040000C9456170C9456170C9456170C9456177C
:100050000C9456170C9456170C9456170C9456176C
:100060000C9456170C9492620C9456170C94686278
:100070000C9456170C9456170C9456170C9456174C
:100080000C9456170C9456170C9456170C9456173C
:100090000C9456170C9456170C9456170C9456172C
:1000A0000C9456170C9456170C9456170C9456171C
:1000B0000C9456170C9456170C9423440C94561712
:1000C0000C9456170C9456170C9456170C945617FC
:1000D0000C9456170C9456170C9456170C945617EC
:1000E0000C9456170C9456170C9456170C945617DC
:1000F0000C9456170C9456170C9456170C945617CC
:100100000C9456170C9456170C9456170C945617BB
:100110000C9456170C9456170C9456170C945617AB
:100120000C9456170C9456170C9456170C9456179B
:100130000C9456170C9456170C9456170C9456178B
:100140000C9456170C9456170C9456170C9456177B
:100150000C9456170C9456170C9456170C9456176B
:100160000C9456170C9456170C9456170C9456175B
:100170000C9456170C9456170C9456170C9456174B
:100180000C9456170C9456170C9456170C9456173B
:100190000C9456170C9456170C9456170C9456172B
:1001A0000C9456170C9456170C9456170C9456171B
:1001B0000C9456170C9456170C9456170C9456170B
:1001C0000C9456170C9456170C9456170C945617FB
:1001D0000C9456170C9456170C9456170C945617EB
:1001E0000C9456170C94561709180D181118151859
:1001F00019181D18211825181A2F132FC52E132F63
:10020000D22E132FDF2E132FEC2E132FF92E132F98
:10021000062FC62FC62FE72F0130A82FA32F13308C
:100220000630BC2FB22FC12FB72FDD30D930BB30F5
:10023000D930C030D930C530D930CA30D930CF30BC
:10024000D930D430D631CC316031CC317231CC316F
:100250008431CC319631CC31A831CC31BA310D3327
:100260000933EB320933F0320933F5320933FA320C
:100270000933FF3209330433EB33E3338F33E33392
:100280009D33E333AB33E333B933E333C733E33382
:10029000D5334E354A352C354A3531354A35363524
:1002A0004A353B354A3540354A35453518361136DD
:1002B000C3351136D0351136DD351136EA351136F4
:1002C000F73511360436F436F036D236F036D736F6
:1002D000F036DC36F036E136F036E636F036EB3620
:1002E0009C3795374737953754379537613795376A
:1002F0006E3795377B3795378837B448B048924882
:10030000B0489748B0489C48B048A148B048A64873
:10031000B048AB482D4929490B4929491049294979
:10032000154929491A4929491F4929492449FA4A9D
:10033000F34AA54AF34AB24AF34ABF4AF34ACC4ABF
:10034000F34AD94AF34AE64A0C94F53C0C946031DE
:100350000C9454370C94DC360C94753E0C94403558
:100360000C94433A0C94FA320C9410490C940242C7
:100370000C94A5400C94D7360C94482B0C940D1873
:100380000C9415180C947F280C94502B0C94F53277
:100390000C94F0360C949C480C94294C0C94AB3380
:1003A0000C9409330C94714B0C94614B0C94EE3902
:1003B0000C94EC2E0C942D400C94C52E0C94FA4AFF
:1003C0000C9413300C9411180C9461370C949D33D9
:1003D0000C94392B0C9404360C94BA310C94EB36F3
:1003E0000C94F92E0C94DD300C944C2B0C94F639B3
:1003F0000C94144C0C9492480C94132F0C94D035FC
:100400000C94123A0C94FF320C94F4360C94EB3F9B
:100410000C94102B0C94A32F0C94D94A0C946A3A88
:100420000C94E72F0C9454410C94B4480C948527F9
:100430000C94D93A0C9404330C9447370C94183E1E
:100440000C94D22E0C947F270C94533F0C94B72F0E
:100450000C94B23E0C9406300C940F280C940D337F
:100460000C94E1360C94062F0C9401300C94B22FAE
:100470000C942D490C94266C0C94F0320C94D930C9
:100480000C94DF2E0C94DE400C94314C0C949C3771
:100490000C9411360C942D290C94993A0C94C12F7C
:1004A0000C94783A0C94DD350C94FA390C94482A63
:1004B0000C94A7410C94C5300C94E3330C945A2B44
:1004C0000C94CA300C94C62F0C9483270C94553E80
:1004D0000C9409180C94BF4A0C940F3F0C947D2780
:1004E0000C945C400C9487270C94D6310C947B2799
:1004F0000C941D180C948F330C94A6480C94643DF6
:100500000C9424520C94D2360C94A63C0C941F2BC1
:100510000C944A4B0C94F2390C9472310C94EA35D9
:100520000C94A54A0C94E4290C94213D0C94D533E9
:100530000C94B0480C94183B0C94D23E0C94363575
:100540000C941A2F0C94F34A0C94823D0C94513A5B
:100550000C94C3350C94BC2F0C94E33D0C945A625C
:100560000C948E3F0C9481270C9466520C94B933F2
:100570000C942D4C0C9496310C94BB300C94F039A7
:100580000C940B490C94C53D0C94F4390C9418361A
:100590000C94D4300C94A8520C94EC390C942C3557
:1005A0000C94A82F0C94D2280C9431350C94AB48A1
:1005B0000C9425180C94E04B0C9417410C949F2735
:1005C0000C941A490C94E64A0C94EB320C94C0300B
:1005D0000C9421180C94E6360C9488370C9445350D
:1005E0000C9429490C94C7330C94863A0C94CF3060
:1005F0000C94A1480C9497480C94504B0C943B35A8
:100600000C9495370C94B24A0C944E350C940E52BF
:100610000C94AE3F0C947B370C946E370C944A3597
:100620000C9424490C9415490C94CC4A0C948C4B92
:100630000C941F490C94A8310C9484310C94AC2A6E
:100640000C94F7350C94F8390C9419180C94CC319F
:100650000C94EB336364696E6F70737578585B004C
:100660004552524F523A204661696C656420746F5E
:1006700020736574001D03ED01DCFDCCF5BCE5AC19
:10068000C5A86EBCE5ACC59C85960392C19121902E
:10069000961D03ED01DCFDCCF5BCE5ACC5A86EBC38
:1006A000E5ACC59C85960392C191219096657272C6
:1006B0006F723A20756E7265636F676E697A6564F2
:1006C00020636F6D6D616E64206F7074696F6E0A68
:1006D00000596F752068617665206265656E2067D8
:1006E00072616E74656420726F6F74207065726DD4
:1006F000697373696F6E73210A00546869732069A6
:1007000073206E6F7420616E206F70657261746902
:100710006E672073797374656D210A00436F6D6D88
:10072000616E64733A0A0055736167653A205B63D2
:100730006D645D205B2D7C2D2D5D5B617267315D8D
:10074000205B2D7C2D2D5D5B617267325D2E2E2E20
:100750000A005475726E206F6666206F757470752E
:1007600074732028706572206368616E6E656C29F1
:100770002E00536574207072657363616C61722022
:10078000666F722063616C6C6962726174696F6E0E
:100790002E005365742063616C6C696272617469C8
:1007A0006F6E204E20646976696465722E0043681E
:1007B000616E676520696E7465726E616C2072652A
:1007C000666572656E636520444143206F75747081
:1007D000757420766F6C74616765004144524636CB
:1007E000353138204C6F772042616E6400414452AD
:1007F000463635313820486967682062616E64008A
:1008000053657420746865205246534120617474A6
:10081000656E74756174696F6E2E203020746F2060
:100820003238202830644220746F202D32386442E0
:10083000292E004269742062616E67206F706572B4
:100840006174696F6E2E20313A2077726974652069
:10085000303A2072656164004269742062616E679B
:100860002064617461206F66204441432E00426918
:10087000742062616E672061646472657373206FB7
:1008800066204441432E0045786563757465207485
:1008900068652073657264657320746573742E20B7
:1008A00028302D3529207465737420706174746547
:1008B000726E2E005365742074686520696E7465CD
:1008C00072706F6C6174696F6E2031782830292CDA
:1008D0002032782831292C2034782832292C2038CD
:1008E00078283429206F72203136782838292E0054
:1008F000456E61626C6520746865205041202870E7
:100900006F77657220616D706C6966696572292008
:1009100070726F74656374696F6E2063697263755A
:1009200069742E203120746F20656E61626C652EB3
:10093000005365742074686520636D6420696E706F
:1009400075742066726F6D204A4553442830292003
:100950006F72205350492831292E0053657420743A
:10096000686520284629206672616D657320706570
:1009700072206D756C74692D6672616D652E005301
:1009800065742074686520284D2920636F6E766534
:10099000727465727320706572206C696E6B2E00C4
:1009A0005365742074686520284C29206C616E653D
:1009B0007320706572206C696E6B2E005365742015
:1009C0007468652066726571206F75747075742027
:1009D0006F662065787465726E616C2044414320B7
:1009E000636C6B20616674657220696E7465726EEB
:1009F000616C20434C4B20636972637569742028D5
:100A00004D487A292E005072696E7473206F757488
:100A1000207468652068656C70206D656E75206651
:100A20006F722074686520626F6172642E00457871
:100A30006974732066726F6D207468697320626FC9
:100A4000617264206261636B20746F20746865203A
:100A50004449474954414C20626F6172642E004200
:100A60006F6F746C6F61646572206F7074696F6E04
:100A7000732E004F4E2F4F4646207377697463687C
:100A800065732C202830206973204F46462C203176
:100A9000206973204F4E2900436F6D6D616E647342
:100AA00020666F7220616363657373696E6720747B
:100AB0006865206865617274626561742073746131
:100AC00074757300436F6E74726F6C732074686515
:100AD00020626F617264206C6576656C2066756E4D
:100AE0006374696F6E732E2053657175656E7469DA
:100AF000616C2065786563206F6620617267756D33
:100B0000656E74732E005265616420616E64207797
:100B10007269746520636F6D6D616E647320666FBA
:100B20007220646562756767696E672E00436F6D3A
:100B30006D616E647320666F722073657474696E84
:100B40006720484D433938382067726F75702064CC
:100B5000656C6179732E00436F6D6D616E647320F7
:100B6000666F722073657474696E67204A455344DA
:100B70002F504C4C204E2F52206469766964657268
:100B80007300436F6D6D616E647320666F722073C6
:100B9000657474696E6720746865204C4D4B303401
:100BA0003832382064656C617920636C6F636B73D5
:100BB0002E00436F6D6D616E647320666F722073DB
:100BC000657474696E6720746865204C4D4B3034D1
:100BD0003832382064656C617920636C6F636B73A5
:100BE0002E00436F6D6D616E647320666F72206DB1
:100BF000616E6167696E672074686520434C4B20A5
:100C000067656E65726174696F6E207468726F7566
:100C10006768204C4D4B30343832382C20414435F5
:100C2000363234522C20484D433938372E00436F2A
:100C30006D6D616E647320666F72206D616E6167A9
:100C4000696E672074686520434C4B2067656E654C
:100C5000726174696F6E207468726F756768204C7A
:100C60004D4B30343832382C2041443536323452F2
:100C70002C20484D433938372E005072696E7473FA
:100C8000206F7574207468652068656C70206D65D0
:100C90006E7520666F722074686520626F61726481
:100CA0002E0045786974732066726F6D20746869D0
:100CB0007320626F617264206261636B20746F20C5
:100CC000746865204449474954414C20626F617201
:100CD000642E00426F6F746C6F61646572206F7078
:100CE00074696F6E732E004F4E2F4F4646207377F8
:100CF0006974636865732C202830206973204F461F
:100D0000462C2031206973204F4E290053746174A2
:100D1000757320616E642066756E6374696F6E739F
:100D2000207573656420666F7220636865636B6904
:100D30006E672074686520626F6172642E200043C4
:100D40006F6E74726F6C732074686520626F61726D
:100D500064206C6576656C2066756E6374696F6E71
:100D6000732E2053657175656E7469616C206578AA
:100D70006563206F6620617267756D656E74732E92
:100D800000457865637574657320746573742076A7
:100D90006563746F72732E00526567697374657250
:100DA0002064756D707320666F7220726573706554
:100DB0006374697665207065726970686572616CCC
:100DC000732E00436F6E74726F6C732074686520AD
:100DD00066726F6E74656E64205246207377697414
:100DE000636865732E00436F6D6D616E647320667A
:100DF0006F72207468652041445246363531382080
:100E00007661726961626C65206761696E20616DEF
:100E1000706C69666965722E005072696E74732019
:100E20006F7574207468652068656C70206D656EE0
:100E30007520666F722074686520626F6172642E1F
:100E40000045786974732066726F6D2074686973E9
:100E500020626F617264206261636B20746F207422
:100E60006865204449474954414C20626F6172646F
:100E70002E00426F6F746C6F61646572206F7074C6
:100E8000696F6E732E004F4E2F4F46462073776961
:100E900074636865732C202830206973204F4646A0
:100EA0002C2031206973204F4E2900436F6E7472DD
:100EB0006F6C732074686520626F617264206C656A
:100EC00076656C2066756E6374696F6E732E205341
:100ED000657175656E7469616C2065786563206FF6
:100EE0006620617267756D656E74732E0050726F47
:100EF00076696465732074686520737461747573B2
:100F0000206F662074686520626F6172642E0052E3
:100F1000656769737465722064756D707320666FA0
:100F2000722072657370656374697665207065728E
:100F30006970686572616C732E00436F6E74726FB6
:100F40006C73207468652066726F6E74656E6420C1
:100F500052462073776974636865732E00436F6D22
:100F60006D616E647320666F722074686520444101
:100F70004333384A38342E0052756E7320737065CF
:100F8000636966696564207465737420766563744B
:100F90006F72206F66207468652041445246363572
:100FA00031380052756E73207370656369666965C8
:100FB00064207465737420766563746F72206F6645
:100FC000207468652041444331364458333730003B
:100FD00052756E7320737065636966696564207409
:100FE00065737420766563746F72206F6620746811
:100FF0006520504341393533382E00436C656172AA
:10100000207468652073706563696669656420474C
:1010100050494F582070696E206C6F772E005365D1
:1010200074207468652073706563696669656420FF
:101030004750494F582070696E20686967682E00D4
:1010400036211E10FB0FD00FA30F780F5072696E60
:101050007473206F757420696E20766572626F7389
:1010600065206D6F64652E203120746F20656E6180
:10107000626C652E004E6F20617267756D656E74CF
:10108000206E65636573736172792E00456E7465B9
:10109000722074686520626F6F746C6F6164657232
:1010A0002E00484D43393837004C4D4B30343032E8
:1010B000380052657475726E73204D435520646517
:1010C0007669636520696E666F726D6174696F6EB3
:1010D0002E00476574732C20616E64207468656E01
:1010E000207265736574732C20504C4C204C6F73C8
:1010F00073206F66204C6F636B205374617475733B
:101100002E004765747320504C4C204C6F636B204D
:101110004465746563742053746174757300486525
:101120006172746265617420696E697469616C6969
:101130007A6174696F6E2066756E6374696F6E2074
:10114000746F2073657420636F756E74657220749C
:101150006F20300048656172746265617420667545
:101160006E6374696F6E20746F207265736574208E
:101170007468652068656172746265617420636F6C
:10118000756E746572004865617274626561742081
:1011900066756E6374696F6E20746F20616E642073
:1011A00066726F6D20746865207365727665720073
:1011B00053656C6563747320474C45206D6F64659F
:1011C0003A204D43555F474C45283129206F722006
:1011D00053594E54485F465047415F474C4520287D
:1011E00032290050726F76696465732074686520D7
:1011F000616D6F756E74206F662052414D206C6575
:10120000667420286279746573292E0050726F7697
:1012100069646573207468652074656D70657261BA
:10122000747572652028302D31292E00426C696E4C
:101230006B7320746865204C454420612073706591
:10124000636966696564206E756D626572206F669C
:101250002074696D65732E005072696E7473206F0F
:1012600075742074686520736F6674776172652089
:10127000616E642068617264776172652076657260
:1012800073696F6E2E005475726E73206576657289
:10129000797468696E67206F66662E005475726E89
:1012A000206F6666207065726970686572616C7324
:1012B0002E00506F776572206379636C65207065CE
:1012C000726970686572616C7320616E64207275FA
:1012D0006E7320626F61726420696E697420287079
:1012E0006572206368616E6E656C292E0052756EA2
:1012F0007320646961676E6F73746963206F6E2019
:101300007065726970686572616C20287065722002
:101310006368616E6E656C292E2053686F756C640E
:10132000207072696E7420616C6C207265676973DD
:10133000746572732E005475726E206F6E206F7517
:1013400074707574732028706572206368616E6EA6
:10135000656C292E005265777269746520616C6C2A
:10136000207265677320666F7220656E746972659E
:1013700020626F6172642E005265616420616E6448
:1013800020777269746520636F6D6D616E64732080
:10139000666F7220646562756767696E672E0047C5
:1013A00065742F73657420484D4320527820427530
:1013B0006666657220626961732028302069732037
:1013C00064656661756C742C203120666F722073C1
:1013D000696E75736F6469616C202F206E6F6E2D5E
:1013E0004C565045434C20414320636F75706C69E7
:1013F0006E672E29004765742F73657420484D432E
:10140000207265666572656E636520696E707574BD
:10141000206469766964657273202876616C6964FA
:1014200020646976696465727320617265203D206D
:10143000325E6E2C206E3D312E2E352900476574AC
:101440002F7365742064656C6179206C696E65200A
:10145000736574706F696E742E004765742F7365C1
:101460007420746865206F7574707574206C617574
:101470006E63682070686173652E00536574206523
:1014800069746865722053594E43206F7220534C23
:101490004950207573696E672053504920636F6D02
:1014A0006D756E69636174696F6E2E004765742F88
:1014B000736574207468652053594E432064656CCD
:1014C000617920646976696465722E0053656C6584
:1014D000637473206265747765656E207468652037
:1014E00074776F20484D43393838206465766963D6
:1014F000657320287265666572656E636520616E2E
:1015000064206C6D6B292E0053657420636C6F63CF
:101510006B20646976696465722E00536574204E91
:10152000206469766964657220666F7220504C4C45
:101530002E005365742052206469766964657220B8
:10154000666F7220504C4C2E0053656C656374209E
:101550006469766964657220746F207365742E0007
:10156000536574206469676974616C2064656C619B
:101570007920636C6F636B2E0053656C6563742018
:1015800064657669636520636C6F636B2E005365D9
:101590006C656374204A455344206F7220504C4C54
:1015A0002E0052652D73796368726F6E697A6520BB
:1015B0006F757470757420646976696465727320E0
:1015C00066726F6D20626F7468204C4D4B730053D0
:1015D0006574207468652044414320636F6E7472A3
:1015E0006F6C6C696E6720584F20567265662C20B0
:1015F000302D34303936206672616374696F6E2025
:101600005665787400497373756520535953524574
:10161000462070756C7365732066726F6D204A4545
:1016200053442E00456E61626C65206578742D31DF
:10163000304D487A207265666572656E6365202854
:1016400031292E005072696E7473206F7574206991
:101650006E20766572626F7365206D6F64652E20F3
:101660003120746F20656E61626C652E00456E746A
:1016700065722074686520626F6F746C6F61646559
:10168000722E004E6F20617267756D656E74206EEC
:1016900065636573736172792E004144433136444A
:1016A0005833373000414452463635313800484DC2
:1016B000433833784C5036470052657475726E73F8
:1016C000204D43552064657669636520696E666FB9
:1016D000726D6174696F6E2E00504C4C204C6F63BC
:1016E0006B20446574656374696F6E204D65636833
:1016F000616E69736D2E0048656172746265617414
:1017000020696E7469616C697A6174696F6E2066B4
:10171000756E6374696F6E20746F207365742063D7
:101720006F756E74657220746F203000436F6D6D3D
:10173000616E6420666F7220726573657474696E81
:1017400067207468652068656172746265617420E1
:1017500076616C756520666F7220746865205258DA
:1017600020626F61726400436F6D6D616E6420660C
:101770006F72207072696E74696E6720746865207C
:1017800063757272656E74206865617274626561FA
:10179000742076616C7565206F66207468652052D0
:1017A0005820626F6172640053656C6563747320C6
:1017B000474C45206D6F64653A204D43555F474C5B
:1017C00045283129206F7220465047415F474C45DC
:1017D0002028322900426C696E6B73207468652082
:1017E0004C454420612073706563696669656420B7
:1017F0006E756D626572206F662074696D65732EFB
:101800000050726F76696465732074686520746532
:101810006D70657261747572652028302D31292EC6
:10182000004F75747075747320612031362D6269B4
:101830007420726570656174696E67207365717577
:10184000656E6365205B302C2032363238302C20B8
:10185000302C202D32363332385D2066726F6D2089
:101860007468652041444320636F72652E00456EA5
:1018700061626C696E6720746865205359535245E4
:101880004620646574656374696F6E206761746572
:101890002E203120746F20656E61626C652C2030C3
:1018A00020746F2064697361626C65005468652000
:1018B0004144432077696C6C206F75747075742097
:1018C0004A455344205465737420506174746572A2
:1018D0006E732E20303A206F66662C20313A2044F9
:1018E00032312E352C20323A204B32382E352C20F6
:1018F000333A2072707420494C412C20343A2072C3
:10190000616D702C20353A20484947482E005468B4
:1019100065204144432077696C6C20656E61626C80
:101920006520746865205359535245462064657498
:10193000656374696F6E206761746520666F7220DD
:101940004A45534420696E697469616C697A6174AF
:10195000696F6E2E0050726F7669646573207468CB
:101960006520616D6F756E74206F662052414D2049
:101970006C65667420286279746573292E00507234
:10198000696E7473206F75742074686520736F6658
:10199000747761726520616E64206861726477613A
:1019A00072652076657273696F6E2E005475726E63
:1019B000732065766572797468696E67206F6666F4
:1019C0002E005475726E206F6666207065726970A5
:1019D000686572616C732E00506F77657220637951
:1019E000636C65207065726970686572616C7320E4
:1019F000616E642072756E7320626F61726420691B
:101A00006E69742028706572206368616E6E656C03
:101A1000292E005475726E206F6666206F75747083
:101A20007574732028706572206368616E6E656CD2
:101A3000292E0052756E7320646961676E6F73742E
:101A40006963206F6E207065726970686572616C81
:101A50002028706572206368616E6E656C292E2087
:101A600053686F756C64207072696E7420616C6C61
:101A7000207265676973746572732E005475726E97
:101A8000206F6E206F757470757473202870657286
:101A9000206368616E6E656C292E005265777269ED
:101AA000746520616C6C207265677320666F7220AC
:101AB000656E7469726520626F6172642E00447590
:101AC0006D707320616C6C20746865207265676945
:101AD000737465727320666F722074686520414468
:101AE0005246363531380044756D70732074686520
:101AF0002072656769737465727320666F722074F3
:101B0000686520726567756C617220616E64205231
:101B100046204750494F580044756D707320616CE2
:101B20006C207468652072656769737465727320D0
:101B3000666F7220746865204144433136445833DF
:101B400037302E00414446343335352F4144463535
:101B5000333535206175746F63616C20656E616229
:101B60006C6520283120666F7220656E61626C653D
:101B7000293E3E00414446343335352F41444635F5
:101B80003335352044697265637420526567697323
:101B900074657220416363657373203C3C32386224
:101BA000697420646174613E3C34626974206164CC
:101BB00064726573733E3E0053656C656374732095
:101BC00044534120417474656E756174696F6E2C65
:101BD0002028303A203064426D202D3E20313237AB
:101BE0003A2033312E373564426D290053656C65D8
:101BF000637420504C4C204F757470757420506F76
:101C00007765722028303A202D3464426D2C2031C3
:101C10003A202D3164426D2C20323A203264426DDC
:101C20002C20333A203564426D29004D757465735C
:101C300020746865204C4F204672657175656E632F
:101C4000792053796E74686573697A657220776854
:101C5000656E20757365640053656C6563747320ED
:101C600074686520636F72726563742046696C7472
:101C700065722042616E6B20666F72206120676919
:101C800076656E206672657175656E637920696E22
:101C9000206B487A00456E61626C652F4469736100
:101CA000626C652056434F204F75747075742046E2
:101CB00072657175656E637920446F75626C6572CB
:101CC0000053657420504C4C2056434F204F757480
:101CD00070757420446976696465722076616C75EC
:101CE000652E20312C20322C20342C2036202E2E14
:101CF0002036320053657420504C4C204665656494
:101D00006261636B20446976696465722076616CF8
:101D100075652E20313620746F20353234323535DA
:101D20000053657420504C4C20496E7075742044EB
:101D30006976696465722076616C75652E20312044
:101D4000746F2031363338330053656C656374200B
:101D50007468652074617267657420504C4C20284B
:101D6000302920484D433833302028312920484D30
:101D700043383333005365747320426173652042E6
:101D8000616E64205661726163746F7220766F6C4D
:101D9000746167652028302D34303936292030565B
:101DA000202D20322E355600504C4C20496E707537
:101DB00074205265666572656E6365204672657152
:101DC00075656E63790053776565707320484D4380
:101DD000383333206672657175656E63792066727B
:101DE0006F6D20302E3247487A20746F2036474876
:101DF0007A207769746820612073746570206F663B
:101E00002031304D487A00536574732066726571D5
:101E1000206F6620484D43383333206F75747075DA
:101E2000742C20696E204B487A2E004279706173C1
:101E30007320746865204C4E41206F6E2074686575
:101E400020686967682062616E642E204279706143
:101E5000737328312920746865204C4E41206F72BD
:101E6000206E6F742830292E0043686F6F736520D1
:101E700074686520686967682028302E352D362003
:101E800047487A29206F72206C6F772028444320BE
:101E90002D20302E352047487A292062616E642E2D
:101EA0002048696768283129206F72206C6F772875
:101EB00030292E00536574205647412773207077D0
:101EC000722D6D6F6465206261736564206F6E2092
:101ED0004C5020636F726E657220667265712E20A1
:101EE000312069662066696C746572206D6F646567
:101EF00020616E642033314D487A203C2042572CBB
:101F000020656C7365203630204D487A203C204295
:101F1000570053657420564741277320696E7075CA
:101F20007420616E616C6F6720617474656E756199
:101F300074696F6E20696E2064422E20476F65734E
:101F4000207468726F7567682041443536323452A8
:101F50002E0053657420564741277320706F7374A9
:101F600020616D70206761696E2E20302D313A201E
:101F7000332F3964422E005365742056474127732E
:101F800020616E616C6F67206761696E2E20302E54
:101F900031644220636F6E74726F6C6C65642C20C8
:101FA000496E7075743A2030202D20373230202849
:101FB0002D3130326442202D202D333064422900EF
:101FC00053657420564741277320646967697461BB
:101FD0006C206761696E2E2033644220696E6372E3
:101FE000656D656E74732C20496E7075743A20307F
:101FF000202D2038202834326442202D20363664AB
:10200000422900436865636B20696620564741207A
:102010006761696E20697320746F6F204869676813
:1020200020666F7220746865204144432E2028305A
:102030003A204E6F2C20313A2059657329005365A0
:102040006C65637420564741204368616E6E656C11
:102050002028303A20426F74682C20493A20312CD5
:1020600020513A2032290047657420564741277392
:10207000206761696E2E00536574205647412773AF
:10208000206761696E2E202843616C6C7320646741
:1020900061696E20616E6420616761696E292E201E
:1020A000496E7075743A2030202D20393520282D46
:1020B00036306442202D2033356442290053657444
:1020C000205647412773204C5020636F726E657213
:1020D000206672657120696E204D487A2E00427923
:1020E0007061737320746865205647412773204CD4
:1020F000502066696C7465722E203120746F2065E3
:102100006E61626C652E004E756C6C207468652083
:102110005647412773206F757470757420444320AF
:102120006F6666736574732E203120746F20656E40
:1021300061626C652E00537065636966792077680B
:10214000696368206368616E6E656C20612C622C27
:10215000632C64204F5220626974206D61736B2E72
:10216000204D555354207370656369667920666904
:102170007273742E005072696E7473206F757420C0
:10218000696E20766572626F7365206D6F64652E6F
:10219000203120746F20656E61626C652E004E6F79
:1021A00020617267756D656E74206E65636573730B
:1021B0006172792E00456E746572207468652062C4
:1021C0006F6F746C6F616465722E00484D433833D5
:1021D000784C5036470044414333384A3834005332
:1021E000656C65637420474C45206D6F64653A20CB
:1021F0004D43555F474C4528312920465047415FA4
:10220000474C4528322900456E61626C6573204A4F
:102210004553442053595352454620476174650045
:102220004F757470757420656E61626C6528312914
:10223000206F722064697361626C652830292E00FA
:1022400050726F76696465732074686520616D6F84
:10225000756E74206F662052414D206C6566742047
:10226000286279746573292E0050726F76696465EF
:1022700073207468652074656D7065726174757221
:10228000652028302D31292E00426C696E6B732039
:10229000746865204C4544206120737065636966ED
:1022A000696564206E756D626572206F6620746961
:1022B0006D65732E005072696E7473206F75742093
:1022C00074686520736F66747761726520616E64EF
:1022D0002068617264776172652076657273696FD8
:1022E0006E2E005475726E7320657665727974680F
:1022F000696E67206F66662E005475726E206F6679
:1023000066207065726970686572616C732E00502A
:102310006F776572206379636C6520706572697090
:10232000686572616C7320616E642072756E7320D3
:10233000626F61726420696E697420287065722012
:102340006368616E6E656C292E005475726E206F25
:102350006666206F757470757473202870657220BE
:102360006368616E6E656C292E0052756E73206411
:102370006961676E6F73746963206F6E2070657238
:102380006970686572616C2028706572206368618D
:102390006E6E656C292E2053686F756C64207072A8
:1023A000696E7420616C6C20726567697374657204
:1023B000732E005475726E206F6E206F7574707579
:1023C00074732028706572206368616E6E656C2975
:1023D0002E005265777269746520616C6C2072659D
:1023E000677320666F7220656E7469726520626F14
:1023F0006172642E0052657475726E73204D435580
:102400002064657669636520696E666F726D6174BC
:10241000696F6E2E004C6F636B2044657465637446
:10242000696F6E204D656368616E69736D00486504
:102430006172746265617420696E697469616C6946
:102440007A6174696F6E2066756E6374696F6E2051
:10245000746F2073657420636F756E746572207479
:102460006F203000436F6D6D616E6420666F722067
:10247000726573657474696E67207468652063752E
:102480007272656E74206865617274626561742031
:1024900076616C7565206F6620545820626F61729A
:1024A0006400436F6D6D616E6420666F72207468A6
:1024B000652063757272656E7420686561727462FE
:1024C0006561742076616C7565206F66207468653F
:1024D00020545820626F6172640044756D707320DF
:1024E0007468652072656769737465727320666FBE
:1024F00072207468652044414333384A38340044BC
:10250000756D707320746865207265676973746592
:10251000727320666F722074686520726567756CCF
:10252000617220616E64205246204750494F580026
:10253000414446343335352F414446353335352013
:102540006175746F63616C20656E61626C652028D3
:102550003120666F7220656E61626C65293E3E00B7
:10256000414446343335352F4144463533353520E3
:10257000446972656374205265676973746572207B
:10258000416363657373203C3C3238626974206434
:102590006174613E3C346269742061646472657385
:1025A000733E3E00524620417474656E7561746FCF
:1025B000722053657474696E672028303A20306445
:1025C00042202D3E203132373A202D33312E3735FF
:1025D00064422900504C4C204F7574707574205023
:1025E0006F7765722028303A202D3464426D2C209C
:1025F000313A202D3164426D2C20323A202B326446
:10260000426D2C20333A202B3564426D29005365EE
:102610006C656374732074686520636F72726563A0
:10262000742046696C7465722042616E6B20666F1F
:1026300072206120676976656E20667265717565C6
:102640006E637920696E206B487A004D75746573EE
:1026500020746865204C4F204672657175656E6305
:10266000792053796E74686573697A65722077682A
:10267000656E207573656400456E61626C652F44FC
:10268000697361626C652056434F204F7574707595
:1026900074204672657175656E637920446F75624A
:1026A0006C65720053657420504C4C2056434F208B
:1026B0004F7574707574204469766964657220760C
:1026C000616C75652E20312C20322C20342C203664
:1026D000202E2E2036320053657420504C4C20465C
:1026E0006565646261636B20446976696465722024
:1026F00076616C75652E20313620746F203532344A
:102700003235350053657420504C4C20496E70753D
:102710007420446976696465722076616C75652EF3
:10272000203120746F2031363338330053656C65A7
:102730006374207468652074617267657420504CFE
:102740004C2028302920484D433833302028312967
:1027500020484D43383333004E6565647320746FF1
:102760002062652063616C6C6564206C6173742EFB
:10277000205365747320746865204951204D6F643F
:10278000756C61746F722E202869652E202D69206A
:102790003137202D71203133202D6D290053657480
:1027A00020746865204951204D6F64756C61746FA9
:1027B000722051206269617320766F6C7461676565
:1027C0002028696E2064562C2066726F6D20302D93
:1027D0003234206456292E005365742074686520B5
:1027E0004951204D6F64756C61746F72204920628D
:1027F00069617320766F6C746167652028696E204B
:1028000064562C2066726F6D20302D323420645651
:10281000292E00504C4C205265666572656E6365CA
:1028200020496E7075742028696E206B487A2900E3
:10283000536574732066726571206F6620484D433E
:10284000383333206F75747075742C20696E204B8B
:10285000487A2E0042797061737320746865204C49
:102860004E41206F6E207468652068696768206239
:10287000616E642E2042797061737328312920744F
:102880006865204C4E41206F72206E6F742830298D
:102890002E0043686F6F73652074686520686967F0
:1028A000682028302E352D362047487A29206F722F
:1028B000206C6F7720284443202D20302E35204770
:1028C000487A292062616E642E2048696768283141
:1028D00029206F72206C6F772830292E0052657482
:1028E00075726E7320746865206F722764206C6146
:1028F0006E65206572726F7273206F6620746865F2
:102900002066697273742034206C616E65730053A5
:102910006574207468652073656C656374656420F4
:102920005461702076616C756520666F72207468E2
:102930006520536D616C6C204672616374696F6EC3
:10294000616C2044656C617900536D616C6C20464C
:1029500072616374696F6E616C2044656C6179208B
:102960005461702073656C6563746F72004C6172A2
:102970006765204672616374696F6E616C2044659F
:102980006C61792C20436F656666696369656E7456
:10299000205365742073656C656374696F6E2E20B7
:1029A00028496E2044617461736865657429005319
:1029B0006574207468652044697468657220416D8F
:1029C000706C69747564652C2030206973204D61CA
:1029D00078696D756D20283420626974732900450B
:1029E0006E61626C652F44697361626C6520446935
:1029F00074686572204D6978657200456E61626C1D
:102A0000652F44697361626C6520446974686572FE
:102A1000696E6700456E61626C652F44697361621F
:102A20006C6520496E76657273652053696E63200C
:102A300046696C74657200536D616C6C20467261FE
:102A40006374696F6E616C2044656C6179205061BC
:102A500074682053657474696E677300536D616C9C
:102A60006C204672616374696F6E616C2044656CA2
:102A700061792053657474696E6773004C61726785
:102A800065204672616374696F6E616C2044656C89
:102A900061792053657474696E677300514D4320EA
:102AA0007068617365206F66667365742C203132BF
:102AB000626974732C202D302E35202D20302E3459
:102AC000393937352C20726566657220746F206441
:102AD000617461736865657400514D432067616975
:102AE0006E206F66667365742C2031316269747371
:102AF0002C20646563696D616C20706E74204020C9
:102B00006C656674206F6620626974392C2072616E
:102B10006E67652030202D20312E393939302C2038
:102B20004C53423D302E3030303937363600514D1F
:102B300043204443206F66667365742C20313362F2
:102B40006974732C206D6561737572656420696E9C
:102B500020444143204C5342277300496E697469F5
:102B6000616C697A657320616E6420636F6E66695B
:102B7000677572657320746865204A455344206CFC
:102B8000696E6B2E0044756D70206F757420616CDA
:102B90006C206F6620746865207265676973746560
:102BA00072732E0047657473207468652074656DB8
:102BB0007065726174757265206F66207468652037
:102BC0004441432E00456E61626C65207468652047
:102BD0006D697865722E203120746F20656E616298
:102BE0006C652E0053657420746865204E434F2039
:102BF0006C6F7765722033322D6269747320726551
:102C00006769737465722C20777269746520746FBC
:102C10002075707065722033322D6269747320667E
:102C20006972737421212A2A0053657420746865BF
:102C3000204E434F2075707065722033322D6269CB
:102C400074732072656769737465722E00537065C2
:102C50006369667920776869636820696E74657254
:102C60006E616C20444143206368616E6E656C3A0E
:102C70002028302D332920412D442E0053706563C8
:102C8000696679207768696368206368616E6E653C
:102C90006C20612C622C632C642C204F52206269C2
:102CA00074206D61736B2E204D55535420737065E5
:102CB000636966792066697273742E002E0CE20BCC
:102CC000B20B820B570B2D0B060BC40A980A730A22
:102CD0005F0A2E0A060AE60DC30D980D810D3F0D01
:102CE0000C0DE70CD30CA20C7A0C5D0F3A0F0F0FF2
:102CF000ED0EAB0E860E720E410E190E4C107510B5
:102D00008C10A910A210861154111E110211D2109C
:102D1000B21055133613ED12B2129C1286125812CD
:102D20002C120C12E311B0118E157813CC14AC14C4
:102D30007B145A143D14F5139F138E154915321543
:102D40001B1508158E15791560158E1579156015EA
:102D50000516A21524160516CF1544166D168316F2
:102D60003621AE16A5169A16362167172C17F716B8
:102D7000D916B91636219B1A7C1A331A131AD81988
:102D8000C219AC197E1955190E19AC186E182118F4
:102D90000118D517A8173621181BE71ABE1A3621B5
:102DA000691E2B1E071EC61DA81D751D491D211D50
:102DB000F41CC11C951C581C2B1CEC1BB81B741B51
:102DC000441B36210721DE20BD20772067203E20CE
:102DD0000320C01F771F521F121FB41E75219E2192
:102DE000B5217C2CD621CB217C2CD223B3236A2382
:102DF0004A230F23F922E322B522892269224022A5
:102E000020220722DF217C2CA22464242E241524D6
:102E1000F5237C2CFF24DA247C2C9228542830289B
:102E20001328D8279D2758272C270427D726A426E0
:102E300078264B260E26D425A425602530257C2C0B
:102E40004D2C292CE42BC52BA42B852B5B2B2E2B57
:102E5000D92A9C2A7C2A5C2A372A142AFB29DF29B2
:102E6000AF296D2949290F29DD2811241FBECFEF75
:102E7000CDBFDFE5DEBF00E00CBF19E3A0E0B0E2AC
:102E8000E0EEF6EF00E00BBF02C007900D92A0321B
:102E9000B107D9F711E4A0E2B9E301C01D92AB3844
:102EA000B107E1F70E9486700C946E7B0C940000D1
:102EB00060E078E488EE91E008950C9458170C9443
:102EC0005D170C945F176150710981099109D9F759
:102ED00008950C946117CF93DF93FC01DB011082FE
:102EE00082E081838483C281D381842F8695877019
:102EF00088836281738180E8489FA0011124E901E1
:102F000088818770482BEB0149831C9282E11196DE
:102F10008C93119783E014968C93149712962D91AD
:102F20003C91139782819381EC018881E901888328
:102F300012962D913C91139782819381EC018981A6
:102F4000E901898312960D90BC91A02D0280F38136
:102F5000E02D818112968C93DF91CF910895CF92CD
:102F6000DF92EF92FF920F931F93CF93DF93FC01B9
:102F70000E211F21108282E081838483A281B3818C
:102F8000C80196958795E701D695C7959C2F909592
:102F9000E90158819523892B8C93A281B3810795F0
:102FA00000270795E794EE24E794E0948981E822CE
:102FB000E02A1196EC920280F381E02DD6019C91DB
:102FC000977081818078982B842F8F70B8E08B9FC9
:102FD000A0011124492B4183EB011C82DF91CF9189
:102FE0001F910F91FF90EF90DF90CF9008950F9376
:102FF0001F93462F50E04830510568F5DC01FA0177
:103000000FEF1FEF20E08827EC50FF4F8F4F0C94FD
:10301000977340E050E060E01BC04FE050E061E09B
:1030200017C041E050E062E013C04AE350E063E0C3
:103030000FC04BE050E064E00BC040E250E065E0C0
:1030400007C041E050E066E003C040E050E067E0C8
:10305000CD010E9451501F910F910895EF92FF9260
:103060000F931F93CF93DF930097A1F17B01EC01A6
:103070006E33710530F08FED96E20E94387583E073
:103080002AC064E08DE3E816F10451F4CE010E94F9
:10309000235100E110E024E040E050E064E015C07E
:1030A000CE010E94235100E110E024E041E050E015
:1030B00064E0CE010E94515067E0CE010E9423518E
:1030C0000FE310E020E0A70167E0CE010E9451501D
:1030D00080E001C081E0DF91CF911F910F91FF90BF
:1030E000EF900895EF92FF920F931F93CF93DF938A
:1030F000009791F06630710588F47B01EC0162E085
:103100000E94235103E010E020E0A70162E0CE011D
:103110000E94515080E003C081E001C083E0DF9154
:10312000CF911F910F91FF90EF900895CF936F3340
:1031300021E0720709F409C208F009C16E3121E0EB
:10314000720709F4FCC108F086C06D3021E07207F7
:1031500009F423C208F040C0653021E0720709F489
:103160001CC2E0F4611521E0720709F4E4C148F4DF
:103170006115710509F413C26230710509F40DC2BD
:103180000AC2633021E0720709F407C208F0DBC10C
:10319000613021E0720709F4D0C1FDC1683021E03F
:1031A000720709F4C8C158F4663021E0720709F4C7
:1031B000C6C1673021E0720709F4C3C1ECC16B30AE
:1031C00021E0720709F4E9C108F0BDC1693021E0CE
:1031D000720709F4B2C1DFC1653121E0720709F459
:1031E000DCC1F0F4603121E0720709F4A4C158F4A5
:1031F0006E3021E0720709F4A2C16F3021E072073E
:1032000009F49FC1C8C1633121E0720709F4C5C147
:1032100008F099C1613121E0720709F48EC1BBC188
:10322000693121E0720709F4B8C140F4673121E047
:10323000720709F486C108F07EC181C16C3121E0BA
:10324000720709F480C108F0A8C16B3121E0720750
:1032500009F4A3C1A0C16F3221E0720709F471C162
:1032600008F03FC0663221E0720709F468C1F0F44B
:10327000613221E0720709F460C158F46F3121E036
:10328000720709F45EC1603221E0720709F453C18C
:1032900082C1643221E0720709F455C108F07DC192
:1032A000633221E0720709F478C175C16B3221E005
:1032B000720709F472C168F4683221E0720709F4F8
:1032C0003AC108F43EC1693221E0720709F435C100
:1032D00062C16D3221E0720709F45FC108F02FC1AD
:1032E00032C1673321E0720709F42BC1C8F463339C
:1032F00021E0720709F451C158F4603321E07207EC
:1033000009F419C1613321E0720709F416C143C100
:10331000653321E0720709F440C108F010C113C100
:103320006B3321E0720709F406C148F4693321E0E8
:10333000720709F41AC108F030C1C1E231C16D331E
:1033400021E0720709F4FFC008F00FC126C16C35F7
:1033500021E0720709F411C108F079C06E3421E050
:10336000720708F042C06C3421E0720708F015C102
:10337000653421E0720709F4EEC0E0F4623421E024
:10338000720709F402C158F4603421E0720709F4AD
:10339000ECC0613421E0720709F4FFC0FCC0633463
:1033A00021E0720709F4D3C0643421E0720709F404
:1033B000F4C0F1C0683421E0720709F4E0C060F4A1
:1033C000663421E0720709F4EAC0673421E072072D
:1033D00009F0E1C0C8E1E4C06A3421E0720709F4F1
:1033E000DCC008F4CCC0C6E1DBC0643521E0720764
:1033F00009F4B3C0B8F4603521E0720709F4B5C030
:1034000058F46E3421E0720709F4A3C06F3421E050
:10341000720709F4A0C0BFC0613521E0720709F44A
:10342000AEC0BBC0683521E0720709F496C030F425
:10343000663521E0720709F490C0AFC06A3521E01B
:10344000720709F48CC008F4A8C0CEE1A9C06B369D
:1034500021E0720709F48FC0A8F5653621E07207F4
:10346000F8F4633621E0720708F097C06F3521E069
:10347000720709F476C058F46D3521E0720709F43B
:1034800080C06E3521E0720709F487C084C06136C0
:1034900021E0720709F467C008F47FC0C4EA80C065
:1034A000683621E0720730F4663621E0720708F0D2
:1034B00074C05BC0693621E0720709F458C008F097
:1034C00058C053C0643721E0720709F45AC0A8F409
:1034D0006E3621E0720709F450C008F45EC062370E
:1034E00021E0720709F44BC008F057C0613721E0B2
:1034F000720709F050C0CAEA53C0633821E072076E
:1035000009F443C070F46D3721E07207E1F16238CD
:1035100021E07207D1F16C3721E07207E1F5C5E1D6
:103520003FC0653821E07207A1F188F1683821E0D9
:10353000720799F130C0CFE033C0C4E431C0C2EBB0
:103540002FC0C5E52DC0C8E02BC0C9E029C0CDE51E
:1035500027C0C0EC25C0CFE723C0C1E021C0C5E033
:103560001FC0CBE31DC0C4E01BC0C3E019C0C9E548
:1035700017C0CFE115C0CDEB13C0CBE111C0C2E045
:103580000FC0CAE00DC0C3E30BC0C6E009C0C0E570
:1035900007C0CDE005C0C0E006C0C0E001C0C0E18A
:1035A0004C2F0E9404548C2FCF910895CF936F33EA
:1035B00021E0720709F40CC208F00CC16E3121E061
:1035C000720709F401C208F086C06D3021E072076D
:1035D00009F414C208F040C0653021E0720709F414
:1035E0000DC2E0F4611521E0720709F4E7C148F467
:1035F0006115710509F414C26230710509F40EC237
:103600000BC2633021E0720709F408C208F0DAC186
:10361000613021E0720709F4D3C1FEC1683021E0B6
:10362000720709F4CBC158F4663021E0720709F43F
:10363000CBC1673021E0720709F4C8C1EDC16B301E
:1036400021E0720709F4EAC108F0BCC1693021E049
:10365000720709F4B5C1E0C1653121E0720709F4D0
:10366000CDC1F0F4603121E0720709F4A7C158F42C
:103670006E3021E0720709F4A7C16F3021E07207B4
:1036800009F4A4C1C9C1633121E0720709F4C6C1BC
:1036900008F098C1613121E0720709F491C1BCC101
:1036A000693121E0720709F4B9C140F4673121E0C2
:1036B000720709F48BC108F081C186C16C3121E029
:1036C000720709F47FC108F099C16B3121E07207DC
:1036D00009F4A4C1A1C16F3221E0720709F476C1D7
:1036E00008F03FC0663221E0720709F46DC1F0F4C2
:1036F000613221E0720709F463C158F46F3121E0AF
:10370000720709F463C1603221E0720709F456C1FF
:1037100083C1643221E0720709F454C108F06EC11C
:10372000633221E0720709F479C176C16B3221E07E
:10373000720709F473C168F4683221E0720709F472
:103740003DC108F443C1693221E0720709F438C170
:1037500063C16D3221E0720709F450C108F034C131
:1037600031C1673321E0720709F430C1C8F4633313
:1037700021E0720709F452C158F4603321E0720766
:1037800009F41CC1613321E0720709F419C144C175
:10379000653321E0720709F431C108F015C112C187
:1037A0006D3321E0720758F46B3321E0720708F0A3
:1037B00035C1693321E0720709F422C113C16D33A9
:1037C00021E0720709F4FAC06E3321E0720709F4B0
:1037D00007C122C16C3521E0720709F40FC108F05E
:1037E00079C06E3421E0720708F042C06C3421E0E9
:1037F000720708F013C1653421E0720709F4EEC0C6
:10380000E0F4623421E0720709F400C158F4603436
:1038100021E0720709F4F4C0613421E0720709F471
:10382000FDC0FAC0633421E0720709F4D3C06434E8
:1038300021E0720709F4F2C0EFC0683421E072079A
:1038400009F4DEC060F4663421E0720709F4E8C0D0
:10385000673421E0720709F0DFC0C8E1E2C06A34D2
:1038600021E0720709F4DAC008F4CAC0C6E1D9C081
:10387000643521E0720709F4B5C0B8F4603521E081
:10388000720709F4ADC058F46E3421E0720709F4F0
:10389000A3C06F3421E0720709F4A0C0BDC0613538
:1038A00021E0720709F4ACC0B9C0683521E07207A5
:1038B00009F498C030F4663521E0720709F492C02B
:1038C000ADC06A3521E0720709F48EC008F4A6C0C5
:1038D000CEE1A7C06B3621E0720709F48DC0A8F5D0
:1038E000653621E07207F0F4633621E0720708F0D4
:1038F00095C06F3521E0720709F478C058F46D3532
:1039000021E0720709F47EC06E3521E0720709F4E8
:1039100085C082C0613621E0720709F469C008F0F1
:1039200067C07CC0683621E0720730F4663621E05B
:10393000720708F073C06EC0693621E0720709F49F
:1039400059C008F467C0CFE16CC0643721E072074A
:1039500009F458C0A8F46E3621E0720709F44EC08D
:1039600008F45CC0623721E0720709F449C008F02E
:1039700055C0613721E0720709F04EC0CAEA51C054
:10398000633821E0720709F441C070F46D3721E01B
:103990007207D1F1623821E07207C1F16C3721E082
:1039A0007207D1F5C5E13DC0653821E0720791F19C
:1039B00078F1683821E0720789F12EC0C8E031C083
:1039C000C4E42FC0C8E22DC0C2EB2BC0C5E529C09E
:1039D000C9E027C0CEE525C0C0EC23C0CFE721C099
:1039E000C3E01FC0C1E01DC0C1E41BC0CBE319C0D0
:1039F000C4E017C0C1E515C0CDEB13C0CBE111C0C9
:103A0000C2E00FC0CAE00DC0C3E30BC0C6E009C0EE
:103A1000C0E507C0CDE005C0C0E006C0C0E001C001
:103A2000C0E14C2F0E9404548C2FCF910895CF9366
:103A3000DF93009701F1EC0140E860E070E00E9444
:103A4000045440E160E070E0CE010E94045440E084
:103A500062E070E0CE010E94045443E069E471E04A
:103A6000CE010E9404544BE36FE571E0CE010E9449
:103A7000045480E001C081E0DF91CF910895CF939D
:103A8000DF93EC0164E00E9496519F938F9385E051
:103A900097E29F938F930E941E7564E0CE010E946F
:103AA0009651292F30E0217033273F932F9380E3E5
:103AB0009DE29F938F930E941E758DB79EB70896C7
:103AC0008DBF9EBF80E0DF91CF9108950F931F932C
:103AD000CF93DF930097F1F08B01EC016230710519
:103AE00030F082E197E20E94387583E014C064E010
:103AF0000E949651482F012B11F0426001C04D7F6A
:103B000050E00FEF1FEF20E064E0CE010E94515023
:103B100080E001C081E0DF91CF911F910F91089566
:103B2000CF92DF92EF92FF920F931F93CF93DF9389
:103B30001F92CDB7DEB7009711F16C0166E00E94CD
:103B40009651382F3D7FE32EF12C0FEF1FEF20E031
:103B5000A70166E0C60139830E9451503981326065
:103B6000432F50E020E066E0C6010E94515020E063
:103B7000A70166E0C6010E94515080E001C081E0CB
:103B80000F90DF91CF911F910F91FF90EF90DF90F9
:103B9000CF900895EF92FF920F931F93CF93DF93EF
:103BA0000097C9F0EC0166E00E9496517C01E89410
:103BB000E0F8FF240FEF1FEF20E0A70166E0CE0141
:103BC0000E945150A701416020E066E0CE010E94B2
:103BD000515080E001C081E0DF91CF911F910F91A2
:103BE000FF90EF9008950097B1F067E00E94965122
:103BF000880F892F881F990B91959F938F9380E34E
:103C00009DE29F938F930E941E750F900F900F90CF
:103C10000F9080E0089581E008950097B1F066E08C
:103C20000E949651292F269530E0217033273F932B
:103C30002F9380E39DE29F938F930E941E750F90B8
:103C40000F900F900F9080E0089581E008950F93FA
:103C50001F93CF93DF930097C1F062307105B8F4E2
:103C60008B01EC0166E00E949651482F012B11F464
:103C70004B7F01C0446050E00FEF1FEF20E066E093
:103C8000CE010E94515080E003C081E001C083E07A
:103C9000DF91CF911F910F9108950097B1F062E0ED
:103CA0000E949651880F892F881F990B91959F9399
:103CB0008F9380E39DE29F938F930E941E750F90D8
:103CC0000F900F900F9080E0089581E00895EF929B
:103CD000FF920F931F93CF93DF937C01EB0100972B
:103CE00041F16230710570F0DF936F9382E397E2E8
:103CF0009F938F930E941E750F900F900F900F90BF
:103D000083E018C064E00E949651880F892F881FB5
:103D1000990B9195AC01477F5170219709F4486048
:103D20000FEF1FEF20E064E0C7010E94515080E0D8
:103D300001C081E0DF91CF911F910F91FF90EF9033
:103D400008950097C9F064E00E949651880F892F6A
:103D5000881F990B919583FB882780F91F928F9379
:103D600084EA98E39F938F930E941E750F900F90A3
:103D70000F900F9080E0089581E008959091510098
:103D8000982381E009F480E00895CF93C82F8C2F09
:103D90000E94BE1E8823D9F3CF91089508958FBF46
:103DA00008958FB7F8940895CF93C82F0E94D11E1D
:103DB000E0E5F0E020819C2F909592239083CF91B5
:103DC0000C94CF1ECF93C82F0E94D11EE0E5F0E0E7
:103DD00090819C2B9083CF910C94CF1E883011F052
:103DE0000C94E21E0895CF93DF93C82FD62F0E9424
:103DF000D11EEC2FF0E0E059FF4F6081D62BD0832D
:103E0000DF91CF910C94CF1E1F93CF93DF931F921E
:103E1000CDB7DEB7182F69830E94D11EE12FF0E0E5
:103E2000E059FF4F698160959081692360830F900D
:103E3000DF91CF911F910C94CF1E8FEF8093700074
:103E4000809371008093720080937300809374005C
:103E5000809375008093760082E00E94EE1E82E0DF
:103E60000E94C51E61E080E490E00E94757281E0CE
:103E70000C94D41EFC0184819581019741F5611554
:103E8000710529F180819181468157814150510905
:103E9000481B590B228133812817390728F42F5FDB
:103EA0003F4F240F351F02C0281B390B2617370739
:103EB00070F04617570728F4641B750B61507109A1
:103EC00002C0680F791F6083718380E0089581E0EC
:103ED0000895FC01428153812081318124173507E7
:103EE00058F4421B530B268137812150310981E060
:103EF0004217530740F406C0241B350B81E02130E4
:103F0000310509F080E00895CF93DF93EC014C81F7
:103F10005D812A813B81429FC001439F900D529F4A
:103F2000900D112428853985820F931F0E941575E5
:103F3000CE010E94691F2E813F81882351F0888124
:103F400099810196888399838217930710F01882CC
:103F500019828A819B8101968A839B8382179307AA
:103F600010F01A821B82CE010E94691F91E08927FE
:103F7000DF91CF910895FC0181E040815181228140
:103F800033814217530709F080E008950F931F9380
:103F9000CF93DF93EC018B010E94BB1F81111FC0E7
:103FA0004C815D8188819981489F9001499F300DA6
:103FB000589F300D112468857985620F731FC801E1
:103FC0000E941575888199810196888399832E8135
:103FD0003F818217930728F01882198202C080E07F
:103FE00001C081E0DF91CF911F910F910895AF92B1
:103FF000BF92CF92DF92EF92FF920F931F93CF93D6
:10400000DF931F92CDB7DEB7009711F480E021C097
:1040100061157105D9F36A017B018C01A12CB12CCA
:10402000AC14BD0499F3BE016F5F7F4FC8010E94BD
:10403000C61F811102C081E00CC0BE016F5F7F4FBF
:10404000C7010E94841F8823B1F38FEFA81AB80A12
:10405000E7CF0F90DF91CF911F910F91FF90EF90DD
:10406000DF90CF90BF90AF900895FC018281938143
:10407000408151818417950720F426813781820F72
:10408000931F841B950B0895EF92FF920F931F933C
:10409000CF93DF93009709F46AC0EC010E94BB1F25
:1040A000811165C02A813B818901E12CF12C688155
:1040B00079816217730709F449C088859985FC01E5
:1040C000E20FF31F4081483071F00115110511F422
:1040D0000E811F81015011092115310511F42E8126
:1040E0003F812150310940E050E0FA01EE0DFF1D03
:1040F000DC01A20FB31FAC91A83019F060E070E0B2
:1041000016C062177307D1F34F5F5F4F211531055A
:1041100011F42E813F8121503109E7CF211531055E
:1041200011F42E813F81215031096F5F7F4F641759
:104130007507A1F7DC01A20FB31F4C91483021F0A5
:10414000DC01A00FB11F4C937F01B1CFCE010E94C3
:10415000352096958795E816F90618F40883198393
:1041600004C01A821B821882198280E001C081E09B
:10417000DF91CF911F910F91FF90EF9008950F93D2
:104180001F93CF93DF93FC012481358121303105CA
:10419000F9F48B01EC010E94352008171907C0F4CF
:1041A00028813981B801620F731F8E819F81288514
:1041B00039856817790738F0AB01481B590BF901AD
:1041C000E40FF51F03C0F901E60FF71F808101C05E
:1041D00080E0DF91CF911F910F910895AF92BF9230
:1041E000DF92EF92FF920F931F93CF93DF9300978D
:1041F00021F10115110509F1DC011696ED91FC91F3
:104200001797E217F307C8F0EA01D62E5C0179018F
:10421000E40EF51ECE15DF0581F0BE01C5010E943A
:10422000BF209E012F5F3F4F8D1105C0F801C08355
:10423000D18380E003C0E901EDCF81E0DF91CF9130
:104240001F910F91FF90EF90DF90BF90AF90089576
:104250008F929F92AF92BF92CF92DF92EF92FF9296
:104260000F931F93CF93DF93FC012481358121307D
:10427000310509F040C05A016B017C010E943520D4
:104280004C01F60100811181EC012197B801C701B1
:104290000E94BF209FED980F9E3550F48D3241F063
:1042A000E8010815190551F0F6010083118306C0D5
:1042B0000C171D07A8F70F5F1F4FE8CF84010150AF
:1042C0001109BE01C7010E94BF2081528E3560F0E6
:1042D000C815D90571F0F60180819181C81BD90BF1
:1042E000F501C083D18305C0C017D10788F7219697
:1042F000E8CF80E001C081E0DF91CF911F910F9165
:10430000FF90EF90DF90CF90BF90AF909F908F90F5
:1043100008955F926F927F928F929F92AF92BF9219
:10432000CF92DF92EF92FF920F931F93CF93DF9381
:10433000FC01248135812130310551F57B018C014F
:104340000E9435203C01C0E0D0E0C615D70501F140
:104350006E01570145018E189F08F50151905F01CC
:10436000552069F0C614D70479F0B601C8010E943F
:10437000BF20FFEFCF1ADF0A581206C0EBCF892803
:1043800039F0CE01019606C0892811F02196DDCFC3
:1043900080E090E0DF91CF911F910F91FF90EF901F
:1043A000DF90CF90BF90AF909F908F907F906F9055
:1043B0005F900895FC011082118212821382089589
:1043C000FC0110821182128213824483558326835A
:1043D0003783608771870895FC0180E090E0262F85
:1043E00030E0D901082E02C0B595A7950A94E2F7EE
:1043F000A0FF05C0DF01A80FB91F50965C9301967E
:104400008830910571F740FF07C041FF02C0658306
:1044100001C0668361830895628308950F931F939B
:10442000CF93DF931F92CDB7DEB789830E948C6450
:1044300000EC11E08981F801808387E00E947664B6
:10444000F80184810F90DF91CF911F910F91089512
:104450002F923F924F925F926F927F928F929F9294
:10446000AF92BF92CF92DF92EF92FF920F931F9382
:10447000CF93DF93CDB7DEB72A97CDBFDEBF4B0119
:104480005C011A012B833C830A876B017C01CC24DD
:10449000E894D0F8AB81BC81AB2B09F46FC00E94CB
:1044A0008C642601370100E011E01D822A85222359
:1044B00059F0C301B2010E945D6489839A83019619
:1044C00039F021E02D8304C08FEF9FEF89839A8319
:1044D000D301C2010296A11DB11D8E839F83A887BF
:1044E000B987AB81BC81109761F184149504A6044F
:1044F000B70481F41197AB83BC83BFEF8B1A9B0A7F
:10450000AB0ABB0AF10181911F0189838B819C81D8
:10451000892BB9F0D301C2010196A11DB11D8815E7
:104520009905AA05BB0569F4AB81BC811197AB83E2
:10453000BC838E809F80A884B984F10181911F0182
:104540008A8349815A81C301B2011E940F004E80B3
:104550005F80688479840150110909F0A7CF2D810B
:10456000C701B601222319F00E94DD6402C00E9437
:10457000F56482E0D80EE11CF11C8CCF2A96CDBFE9
:10458000DEBFDF91CF911F910F91FF90EF90DF90F1
:10459000CF90BF90AF909F908F907F906F905F90E3
:1045A0004F903F902F9008952F923F924F925F929D
:1045B0006F927F928F929F92AF92BF92CF92DF9233
:1045C000EF92FF920F931F93CF93DF931F921F924F
:1045D000CDB7DEB75A0179016B0110E088248A94C7
:1045E000982CE114F10409F44DC0412C512C3201F6
:1045F0001201002379F0C2010E9472648983C20112
:1046000001960E9472648A8389819A81019621F0C1
:1046100011E002C089829A82E114F10401F1C2140E
:10462000D30469F481E0E81AF108EFEFCE1ADE0A4C
:10463000F50181915F018983E114F10481F0C101E9
:1046400001968C159D0559F4F1E0EF1AF10861010E
:1046500022E0C20ED11CF50181915F018A8349815C
:104660005A81C301B2011E940F00F2E04F0E511C9B
:10467000611C711C411422E052066104710409F0AE
:10468000B7CFAFCF11110E94D5640F900F90DF917B
:10469000CF911F910F91FF90EF90DF90CF90BF903F
:1046A000AF909F908F907F906F905F904F903F90D2
:1046B0002F900C94CD64EF92FF920F931F93CF93A2
:1046C000DF9371707A01E20EF31EEA018B01041B85
:1046D000150BCE01800F911FCE15DF0521F00E9432
:1046E00072648993F6CFDF91CF911F910F91FF9064
:1046F000EF900895CF92DF92EF92FF920F931F9366
:10470000CF93DF936B017C01EA0189010E948C64E5
:104710000C0F1D1FC017D10759F0C701B6010E9429
:10472000626489938FEFC81AD80AE80AF80AF2CFB0
:10473000DF91CF911F910F91FF90EF90DF90CF907D
:104740000895CF92DF92EF92FF921F93CF93DF9362
:10475000C0ECD1E01A85EAE3EA876883C72ED82E39
:10476000E92EFF24C982AA27BB278A832C83BB2773
:10477000A52F942F832F8D83CA01AA27BB278E8351
:1047800061E08BEC91E00E9475721A87DF91CF9106
:104790001F91FF90EF90DF90CF9008950E948C645E
:1047A00080E30C947664CF93DF931F92CDB7DEB78E
:1047B00089830E948C64898120E2829FC001112438
:1047C000E0ECF1E012829183808382E30F90DF912D
:1047D000CF910C947664CF93DF931F92CDB7DEB761
:1047E00089830E948C64898120E2829FC001112408
:1047F000E0ECF1E012829183808384E30F90DF91FB
:10480000CF910C947664CF93DF931F92CDB7DEB730
:1048100089830E948C64898120E2829FC0011124D7
:10482000E0ECF1E012829183808385E30F90DF91C9
:10483000CF910C947664CF93DF931F921F92CDB7E4
:10484000DEB76A8389830E948C640E946C648981CC
:10485000E82FF0E0F05F6A8160830F900F90DF91A6
:10486000CF910C9466640F931F93CF938C010E9499
:104870008C64C0E0F80161918F018C2F0E941B2491
:10488000CF5FC032B9F7CF911F910F9108950E9469
:104890008C648091CF0181FF05C086E38093CA01BB
:1048A0000C9487640895CF93DF93D82F0E944724F8
:1048B0000E948C64C0E06D2F8C2F0E941B24CF5F60
:1048C000C032C9F7DF91CF9108958FEF0E94532432
:1048D0000C94CE23CF93C82F8FEF0E9453248C2F9C
:1048E000CF910C94D3232F923F924F925F926F926D
:1048F0007F928F929F92AF92BF92CF92DF92EF9270
:10490000FF920F931F93CF93DF93CDB7DEB76897D6
:10491000CDBFDEBF009709F4A3C0672B09F4A3C085
:104920004115510509F4A2C00A8B1B8B122F4A01B5
:104930007C011D821E820E943520212F30E02E87AF
:104940003F8789010E5F1F4FBC0161507109C7018C
:104950000E94BF208D30E1F4C7010E944420C701AE
:104960000E943520888B998BAE014D5F5F4FBE0151
:104970006B5F7F4FC7010E9428218F83811108C080
:104980006B807C80AD80BE802401C12CD12C26C0E0
:104990000F839AC2D201ED91FC91E00FF11F30809C
:1049A000332069F0B8016A0D7B1DC7010E94BF204A
:1049B000831105C00F5F1F4F0615170559F7F20148
:1049C00080819181FC01E00FF11F8081F6E04F0EA4
:1049D000511C882359F02FEFC21AD20A8E859F8569
:1049E000C816D90618F400E010E0E6CFB501C701FB
:1049F0000E94BF208C3641F03AEE432E35E2532E12
:104A000085010A5E154212C0B5016F5F7F4FC70175
:104A10000E94BF20833781F7C7010E943520BC0167
:104A2000C7010E943A1F8DE897E268C1B801640D82
:104A3000751DC7010E94BF20D2019D912D018913D0
:104A400018C0BEEE4B16B5E25B0681F7C7010E94A7
:104A50003520BC01C7010E943A1F8EEA97E24EC181
:104A6000B1E0BF8331C2E1E0EF832EC2F1E0FF830A
:104A70002BC2A60CB71CA982BA8286E08C9DA0012D
:104A80008D9D500D11249401240F351F28873987DF
:104A90001C861D86A12CB12CEE85FF85EC15FD052D
:104AA00009F4EDC049815A8128893989241B350BC5
:104AB0008E010F5F1F4F6DE2C7010E94EE20882319
:104AC00029F0A114B10409F0E7C0EAC0A114B104AF
:104AD00009F0E2C0AE014D5F5F4FBE016F5F7F4FD7
:104AE000C7010E9428212B813C812A873B87232BE9
:104AF00099F2A980BA80B50161507109C7010E947D
:104B0000BF208D3271F4B50162507109C7010E9456
:104B1000BF2021E090E08D3209F020E0622E792E56
:104B200002C0612C712CA885B98514968C91282F10
:104B300030E02C8B3D8B812C912C212C312C2C891D
:104B40003D892216330608F084C0A885B9851296DF
:104B50000D911C911397B1E06B16710451F5F8019A
:104B6000E80DF91D42805380A20100E010E0DA0157
:104B70002D91AD012223A9F0B8016A0D7B1DC7015B
:104B8000288F4E8B5F8B0E94BF20288D4E895F89B6
:104B9000821307C00F5F1F4F2A853B85021713073B
:104BA00031F7F201E00FF11F8081882309F4B1C0D1
:104BB0000BC0B501C7010E94BF20F801E80DF91D27
:104BC0009481891709F4A5C0FFEF2F1A3F0A21E14C
:104BD000820E911CB4CF80E090E09801205E364CAC
:104BE0004901D9011C92892B09F0CAC0B1E1B29DDB
:104BF000F001B39DF00D1124A885B98512968D9111
:104C00009C911397E80FF91F87819085A185B28544
:104C100085879687A787B08BA982BA822A853B852C
:104C20002B833C8321E1229DF001239DF00D112473
:104C3000A885B98512968D919C911397E80FF91F5D
:104C40000190F081E02D1995EA89FB899081890F07
:104C50008083A885B98514968C9190E031E020E09E
:104C60008215930509F030E0A32EB22E29813A81F6
:104C70008B819C81820F931F89839A830DCF288912
:104C80003989232B09F40CC182E697E20E9438751A
:104C9000A114B10409F410C182E697E20E943875AC
:104CA000C7010E943520BC01C7010E943A1F8889B4
:104CB0009989892B29F1AB2851F4AE85BF85AC15B4
:104CC000BD0529F0EC85FD85EF2BD1F408C02C85BE
:104CD0003D85232B21F031E03C0D3F83F5C024E0DE
:104CE00030E04DE068E877E2A885B9858D919C9128
:104CF0000E94BF6F8F838111EECFE6C00E9438758E
:104D000085E897E29F938F930E941E750F900F90F6
:104D1000DBC08C859D8501968C879D878A859B85C8
:104D20008A0D9B1D89839A83AE014D5F5F4FBE0143
:104D30006F5F7F4FC7010E9428214B805C80898173
:104D40009A8120E2622E29E3722E00E010E0DC015D
:104D5000A052B9434D010415150581F041145104C9
:104D600009F439CFB401660D771DC7010E94BF2039
:104D7000F30181933F010F5F1F4FEDCFC8012DCF8E
:104D800069807A80B30161507109C7010E94BF2018
:104D90008D3209F42BCF31E1329D5001339DB00C9F
:104DA0001124A885B9851296ED91FC911397EA0D0F
:104DB000FB1D8681811106C03D96FF93EF93ABE505
:104DC000B7E23FC0813021F43D96FF93EF9357C087
:104DD000823079F5A80141505109F4013197808161
:104DE00090EE980F9F35A0F0FA01E05EF64C10822D
:104DF000E885F98582819381FC01EA0DFB1D61E262
:104E000079E3838594850E9415750B831C830ACFF3
:104E1000873251F30931110538F7B801660D771D56
:104E2000C7010E94BF20D4018D934D010F5F1F4F1A
:104E3000D1CF833009F0F6CE3D96FF93EF93A3EBED
:104E4000BDE2BF93AF93A0E2B9E3BF93AF930E94DB
:104E500068750F900F900F900F900F900F90892B07
:104E600009F0E0CEA885B98512968D919C91139793
:104E7000A80EB91EBDE0AB0EB11CBF92AF92AFE55C
:104E8000B7E2BF93AF93A0E2B9E3BF93AF930E94A1
:104E900068750F900F900F900F900F900F90C2CEEB
:104EA000A114B10409F0F8CEC7010E943520BC015D
:104EB000C7010E943A1F24CFC7010E943520BC01C0
:104EC000C7010E943A1FF9CE8F816896CDBFDEBF21
:104ED000DF91CF911F910F91FF90EF90DF90CF90D6
:104EE000BF90AF909F908F907F906F905F904F900A
:104EF0003F902F90089580E0089580E0089580E02D
:104F0000089580E0089580E0089580E0089580E0AD
:104F10000895EBEFF5E290E0A481B5812C91281380
:104F200007C02EE0929FC001112485509A4D08952C
:104F30009F5F3E96953081F780E090E008958091E4
:104F4000E7239091E823A091E923B091EA23892BEC
:104F50008A2B8B2B29F081E08093A50688E007C07F
:104F600084E08093A50688E08093A50681E0809385
:104F7000A6068091EA238F938091E9238F938091F5
:104F8000E8238F938091E7238F9386ED97E29F9399
:104F90008F930E941E750F900F900F900F900F909F
:104FA0000F9080E00895DF92EF92FF920F931F938E
:104FB000CF93DF9300D0CDB7DEB780919000898387
:104FC000809191008A83809192008B838E010F5F84
:104FD0001F4F86EEE82E87E2F82E93E0D92ED00EF2
:104FE000F80181918F011F928F93FF92EF920E949F
:104FF0001E750F900F900F900F90D012F1CF8AE096
:1050000090E00E94327580E02396CDBFDEBFDF9135
:10501000CF911F910F91FF90EF90DF9008950F9324
:10502000CF930091F92260911B2340912C23209172
:10503000702380910A2390910B23A0910C23B091AF
:105040000D230097A105B10509F58091E822909103
:10505000E922A091EA22B091EB2281309105A105CD
:10506000B10521F4602F8CE699E307C00297A105F2
:10507000B10531F4602F8AE699E30E94BD3222C067
:105080008BEE97E20E94387581E036C00197A1054A
:10509000B105E1F48091E8229091E922A091EA2201
:1050A000B091EB2281309105A105B10519F48CE690
:1050B00099E306C00297A105B10511F78AE699E3C5
:1050C0000E943233C82F8823B1F005C08EE098E2E9
:1050D0000E943875C1E080E696E09F938F9385E447
:1050E00098E29F938F930E941E750F900F900F90E0
:1050F0000F908C2F01C080E0CF910F910895CF9336
:1051000040917122509172226091732270917422A9
:105110008091FA219091FB21A091FC21B091FD2179
:105120004115510561057105B9F481309105A1055D
:10513000B10519F48CE699E306C00297A105B10503
:1051400029F48AE699E30E94803616C08BEE97E236
:105150000E94387581E024C081309105A105B10518
:1051600019F48CE699E306C00297A105B10571F721
:105170008AE699E30E94922DC82F882381F080E669
:1051800096E09F938F9388E598E29F938F930E9478
:105190001E750F900F900F900F908C2F01C080E024
:1051A000CF910895CF9340916022509161226091F8
:1051B0006222709163228091FA219091FB21A0914B
:1051C000FC21B091FD214115510561057105D9F40E
:1051D00081309105A105B10529F460910B228CE67F
:1051E00099E308C00297A105B10539F460910B223B
:1051F0008AE699E30E94A7361AC08BEE97E20E94D6
:10520000387581E028C081309105A105B10529F4E8
:1052100020910B228CE699E308C00297A105B10505
:1052200061F720910B228AE699E30E940C37C82F80
:10523000882381F080E696E09F938F9380E798E241
:105240009F938F930E941E750F900F900F900F9059
:105250008C2F01C080E0CF9108951F93CF93DF93EF
:105260001F92CDB7DEB740914F22509150226091EE
:105270005122709152228091FA219091FB21A091AC
:10528000FC21B091FD21452B462B472BE1F48130C9
:105290009105A105B10519F48CE699E306C00297C2
:1052A000A105B10551F48AE699E30E940838182F48
:1052B00073C00397A105B10591F18BEE97E20E94AF
:1052C000387581E07CC081309105A105B10581F47C
:1052D0008CE699E30E945E3940914F225091502212
:1052E0006091512270915222282F8CE699E314C0CC
:1052F00082309105A105B105E1F68CE699E30E94A3
:105300005E3940914F22509150226091512270910C
:105310005222282F8AE699E30E946538C8CF83E09D
:1053200080930A208CE699E30E945E39282F1F9211
:105330008F9381E898E29F938F9329830E941E7533
:105340008AE699E30E945E39182F1F928F938DE8A9
:1053500098E29F938F930E941E75CDBFDEBF298177
:10536000211751F089E998E29F938F930E941E754F
:105370000F900F9083E023C040914F225091502214
:1053800060915122709152228CE699E30E94653817
:10539000182F81E080930A20112381F080E696E0A7
:1053A0009F938F9386EB98E29F938F930E941E7535
:1053B0000F900F900F900F90812F01C080E00F9001
:1053C000DF91CF911F910895CF9340913E2250914C
:1053D0003F2260914022709141228091FA21909168
:1053E000FB21A091FC21B091FD21411551056105E2
:1053F0007105C1F481309105A105B10519F48CE660
:1054000099E306C00297A105B10531F48AE699E354
:105410000E946A39C82F27C08BEE97E20E94387528
:1054200081E034C081309105A105B10519F48CE605
:1054300099E307C082309105A105B10529F48AE6F8
:1054400099E30E94D02DE6CF0397A105B10521F77E
:1054500083E080930A208CE699E30E94D02DC82F28
:1054600081E080930A20CC2381F080E696E09F9330
:105470008F9386EB98E29F938F930E941E750F90F7
:105480000F900F900F908C2F01C080E0CF91089566
:10549000CF9340912D2250912E2260912F22709116
:1054A00030228091FA219091FB21A091FC21B091B2
:1054B000FD214115510561057105C1F4813091054A
:1054C000A105B10519F48CE699E306C00297A10580
:1054D000B10531F48AE699E30E949139C82F27C0BB
:1054E0008BEE97E20E94387581E034C081309105DF
:1054F000A105B10519F48CE699E307C08230910546
:10550000A105B10529F48AE699E30E940E2EE6CFA3
:105510000397A105B10521F783E080930A208CE66B
:1055200099E30E940E2EC82F81E080930A20CC239D
:1055300081F080E696E09F938F9383EC98E29F93AF
:105540008F930E941E750F900F900F900F908C2FCD
:1055500001C080E0CF910895CF9340911C225091DB
:105560001D2260911E2270911F228091FA2190913C
:10557000FB21A091FC21B091FD2141155105610550
:105580007105C1F481309105A105B10519F48CE6CE
:1055900099E306C00297A105B10531F48AE699E3C3
:1055A0000E94C439C82F27C08BEE97E20E9438753D
:1055B00081E034C081309105A105B10519F48CE674
:1055C00099E307C082309105A105B10529F48AE667
:1055D00099E30E944C2EE6CF0397A105B10521F770
:1055E00083E080930A208CE699E30E944C2EC82F1A
:1055F00081E080930A20CC2381F080E696E09F939F
:105600008F9383EC98E29F938F930E941E750F9067
:105610000F900F900F908C2F01C080E0CF910895D4
:10562000CF938AE699E30E944554C82F65E176E15D
:1056300085E090E00E9462628C2FCF910895CF9315
:105640008CE699E30E94DA54C82F65E176E185E0A3
:1056500090E00E9462628AE699E30E944554C80F76
:1056600065E176E185E090E00E9462628C2FCF9147
:105670000895CF938CE699E30E94DA54C82F65E130
:1056800076E185E090E00E9462628C2FCF910895D0
:105690008AE699E30C94B5548CE699E30C94B554DE
:1056A0008CE699E30E94B55480ED98E20E9438752B
:1056B00080E00895CF936091092470910A2486E4D4
:1056C00099E30E94064EC82F8823C1F080910C24D4
:1056D0008F9380910B248F9380910A248F938091D4
:1056E00009248F9382EE98E29F938F930E941E75F8
:1056F0000F900F900F900F900F900F908C2FCF91D5
:1057000008958CE499E30E94C85088E499E30E94CC
:10571000C85063E070E08CE699E30E94755363E043
:1057200070E08AE699E30E947553E0EAF6E084E0CF
:10573000858388E0858382E08683809306060E94C5
:105740000D6580E008958F929F92AF92BF92CF92A5
:10575000DF92EF92FF920F931F93CF93DF9300EAB4
:1057600016E0D4E0F801D58388E0858391E0968344
:10577000C12C96E0D92E22E0A22EF601A68230E8B6
:10578000E32E36E0F32EF701A58240E2B42EB58277
:10579000D683858380E4868380E885836AE07BE81E
:1057A00082E090E00E946262F801A5826AE27CE2F7
:1057B0008AE090E00E9462628AE10E9489279C014F
:1057C0004CE359E361E479E386E499E30E942B50CA
:1057D000C82F86E499E30E94574FC80F60E086E423
:1057E00099E30E941E4DC80F86E499E30E94D54FAD
:1057F000C80F64E476E086E499E30E94064EC80F81
:1058000065E372E880E090E00E946262F601A582A2
:1058100065E372E880E090E00E9462628DE10E94A0
:1058200089278C012CE339E341E459E369E070E214
:1058300088E499E30E94354CC80F88E499E30E94FC
:10584000E650C80F88E499E30E943C50C80F50E628
:10585000852E56E0952EF401B682B5828CE10E9429
:1058600089278C012CE339E341E459E368E070E2D5
:105870008CE499E30E94354CC80F8CE499E30E94B4
:10588000E650C80F8CE499E30E943C50C80F80E1B9
:10589000F40186838583F601A682A58265E07DE01A
:1058A00080E090E00E94626288E10E9489279C016A
:1058B0004CE359E361E479E38CE699E30E94DA5220
:1058C000C80FF701A68265E372E880E090E00E94CD
:1058D00062628CE699E30E94171DC80F8CE699E37B
:1058E0000E943253C80F65E372E880E090E00E94A6
:1058F00062628CE699E30E94DA54C80F65E176E1B2
:1059000085E090E00E94626263E070E08CE699E3DB
:105910000E94755365E176E185E090E00E94626245
:1059200089E10E9489279C014CE359E361E479E312
:105930008AE699E30E94DA52C80FF701B68265E35E
:1059400072E880E090E00E9462628AE699E30E9439
:10595000171DC80F65E176E185E090E00E94626264
:10596000D09326068AE699E30E94EB52C80F65E3BE
:1059700072E880E090E00E9462628AE699E30E9409
:105980004554C80F65E176E185E090E00E946262CF
:1059900063E070E08AE699E30E9475538C2FDF91F3
:1059A000CF911F910F91FF90EF90DF90CF90BF901C
:1059B000AF909F908F9008950F931F93CF93DF9395
:1059C000C0E0D0E00BE019E28C2F0E940E221F9263
:1059D0008F93DF93CF931F930F930E941E75219691
:1059E0000F900F900F900F900F900F90C630D10531
:1059F00059F780E0DF91CF911F910F910895DF92C9
:105A0000EF92FF920F931F93CF93DF93CDB7DEB743
:105A10002B97CDBFDEBFCE0101960E942B648E0175
:105A20000F5F1F4F86EEE82E87E2F82E9BE0D92EFF
:105A3000D00EF80181918F011F928F93FF92EF9208
:105A40000E941E750F900F900F900F90D012F1CF03
:105A50008AE090E00E94327580E02B96CDBFDEBFD9
:105A6000DF91CF911F910F91FF90EF90DF900895FC
:105A7000CF938DE199E29F938F9382E299E29F9376
:105A80008F930E941E7585E399E29F938F938EE317
:105A900099E29F938F930E941E758AE499E29F93E7
:105AA0008F9383E599E29F938F930E941E7581E601
:105AB00099E29F938F9385E799E29F938F930E943A
:105AC0001E7583E899E29F938F930E941E750E9432
:105AD000FF2CC82F87E999E29F938F930E941E7530
