:100000000C9459140C947A140C947A140C947A1459
:100010000C947A140C947A140C947A140C947A1428
:100020000C947A140C947A140C947A140C947A1418
:100030000C947A140C94DD690C947A140C947A1450
:100040000C947A140C947A140C947A140C947A14F8
:100050000C947A140C947A140C947A140C947A14E8
:100060000C947A140C946A1B0C947A140C94991BBB
:100070000C947A140C947A140C947A140C947A14C8
:100080000C947A140C947A140C947A140C947A14B8
:100090000C947A140C947A140C947A140C947A14A8
:1000A0000C947A140C947A140C947A140C947A1498
:1000B0000C947A140C947A140C940F6A0C947A149D
:1000C0000C947A140C947A140C947A140C947A1478
:1000D0000C947A140C947A140C947A140C947A1468
:1000E0000C947A140C947A140C947A140C947A1458
:1000F0000C947A140C947A140C947A140C947A1448
:100100000C947A140C947A140C947A140C947A1437
:100110000C947A140C947A140C947A140C947A1427
:100120000C947A140C947A140C947A140C947A1417
:100130000C947A140C947A140C947A140C947A1407
:100140000C947A140C947A140C947A140C947A14F7
:100150000C947A140C947A140C947A140C947A14E7
:100160000C947A140C947A140C947A140C947A14D7
:100170000C947A140C947A140C947A140C947A14C7
:100180000C947A140C947A140C947A140C947A14B7
:100190000C947A140C947A140C947A140C947A14A7
:1001A0000C947A140C947A140C947A140C947A1497
:1001B0000C947A140C947A140C947A140C947A1487
:1001C0000C947A140C947A140C947A140C947A1477
:1001D0000C947A140C947A140C947A140C947A1467
:1001E0000C947A140C947A140C54235428543654D6
:1001F0003B5476547B54B154CC54D154FB542055C9
:1002000025559C62A162A662AB62B062B562BA6219
:10021000BF62C462C962CE62D362D862DD62E2624A
:10022000E7620C940C540C94EE140C94F2170C949A
:10023000DB1E0C9484140C94A9200C9424150C94AB
:1002400081170C948C1F0C94DC680C9497140C94FC
:1002500010170C947B540C94BF620C94FB540C94B8
:10026000561E0C94A6620C94E2620C947A1D0C94B7
:10027000AE1A0C94161A0C94DB160C949F260C9450
:100280001C760C94CC540C94CE620C948E180C9466
:100290003F150C94E1150C943B540C94D31D0C9415
:1002A000D3620C9429190C94DD260C94B8260C9476
:1002B000D7210C94E8180C94B0620C94BC170C94E1
:1002C000B7160C94D1540C944D1D0C94C1180C9479
:1002D0000C1B0C9445170C949E1E0C9423540C94E8
:1002E00086210C9428540C94C4620C9482140C94AF
:1002F000B1540C941F250C94C9620C94A1620C9407
:1003000093190C94101E0C94B8170C9420550C944F
:10031000C4170C94D2160C9449190C9436540C94AE
:1003200019240C9466160C943A1A0C94DD620C9401
:1003300032160C9475150C94B5620C9409150C9436
:1003400090150C945A150C94D8620C94AB620C94D2
:10035000E7620C949D140C940F250C949C620C94F1
:1003600039190C94DA240C9469190C9476540C9471
:10037000BA620C94A7250C94501A0C9486140C9411
:1003800025556364696E6F70737578585B00BCE5C2
:10039000ACC59C85960392C1912190961D03ED01F9
:1003A000DCFDCCF5BCE5ACC5A86EBCE5ACC59C8558
:1003B000960392C1912190961D03ED01DCFDCCF5D1
:1003C000BCE5ACC5A86E436F6D6D616E647320664D
:1003D0006F722074686520414452463635313820AA
:1003E0007661726961626C65206761696E20616D1A
:1003F000706C69666965722E00436F6E74726F6C03
:1004000073207468652066726F6E74656E64205226
:10041000462073776974636865732E005265676957
:10042000737465722064756D707320666F722072CC
:10043000657370656374697665207065726970684C
:100440006572616C732E0045786563757465732001
:100450007465737420766563746F72732E00436FD6
:100460006E74726F6C732074686520626F61726461
:10047000206C6576656C2066756E6374696F6E734B
:100480002E2053657175656E7469616C20657865A1
:1004900063206F6620617267756D656E74732E00E0
:1004A00053746174757320616E642066756E637435
:1004B000696F6E73207573656420666F7220636860
:1004C00065636B696E672074686520626F61726432
:1004D0002E20004F4E2F4F46462073776974636875
:1004E00065732C202830206973204F46462C20311C
:1004F000206973204F4E2900426F6F746C6F6164E6
:100500006572206F7074696F6E732E004578697420
:10051000732066726F6D207468697320626F6172F8
:1005200064206261636B20746F20746865204449A5
:10053000474954414C20626F6172642E00507269C9
:100540006E7473206F7574207468652068656C70B4
:10055000206D656E7520666F722074686520626F0D
:100560006172642E00C603F9031C0447045E04A0F4
:1005700004D304F8040C053D05537065636966797E
:10058000207768696368206368616E6E656C2061BE
:100590002C622C632C64204F5220626974206D61A0
:1005A000736B2E204D5553542073706563696679C3
:1005B0002066697273742E004E756C6C20746865C9
:1005C000205647412773206F75747075742044431B
:1005D000206F6666736574732E203120746F2065FA
:1005E0006E61626C652E004279706173732074686D
:1005F00065205647412773204C502066696C74650E
:10060000722E203120746F20656E61626C652E0041
:10061000536574205647412773204C5020636F72F6
:100620006E6572206672657120696E204D487A2E63
:1006300000536574205647412773206761696E2E09
:10064000202843616C6C7320646761696E20616E61
:100650006420616761696E292E20496E7075743A55
:100660002030202D20393520282D36306442202D91
:10067000203335644229004765742056474127736B
:10068000206761696E2E0053656C65637420564760
:1006900041204368616E6E656C2028303A20426FBD
:1006A00074682C20493A20312C20513A20322900FC
:1006B000436865636B20696620564741206761691E
:1006C0006E20697320746F6F204869676820666FB9
:1006D0007220746865204144432E2028303A204E11
:1006E0006F2C20313A2059657329005365742056C8
:1006F00047412773206469676974616C2067616989
:100700006E2E2033644220696E6372656D656E746F
:10071000732C20496E7075743A2030202D203820BB
:100720002834326442202D20363664422900536535
:100730007420564741277320616E616C6F67206794
:1007400061696E2E20302E31644220636F6E7472A8
:100750006F6C6C65642C20496E7075743A20302083
:100760002D2037323020282D3130326442202D2088
:100770002D33306442290053657420564741277356
:1007800020706F737420616D70206761696E2E2018
:10079000302D313A20332F3964422E0053657420B6
:1007A000564741277320696E70757420616E616CC5
:1007B0006F6720617474656E756174696F6E20690E
:1007C0006E2064422E20476F6573207468726F75C7
:1007D000676820414435363234522E005365742008
:1007E0005647412773207077722D6D6F64652062C4
:1007F00061736564206F6E204C5020636F726E656C
:100800007220667265712E20312069662066696CDF
:10081000746572206D6F646520616E642033314DA4
:10082000487A203C2042572C20656C736520363076
:10083000204D487A203C204257007905B805E7054D
:100840001006310677068706B006EB062E077707F7
:100850009C07DC0743686F6F7365207468652068C8
:100860006967682028302E352D362047487A2920A0
:100870006F72206C6F7720284443202D20302E3556
:100880002047487A292062616E642E204869676893
:10089000283129206F72206C6F772830292E004272
:1008A000797061737320746865204C4E41206F6EBF
:1008B0002074686520686967682062616E642E2014
:1008C00042797061737328312920746865204C4E19
:1008D00041206F72206E6F742830292E005365748A
:1008E000732066726571206F6620484D433833333C
:1008F000206F75747075742C20696E204B487A2EA9
:100900000053776565707320484D43383333206654
:1009100072657175656E63792066726F6D20302E19
:100920003247487A20746F203647487A20776974B6
:100930006820612073746570206F662031304D48E7
:100940007A00504C4C20496E707574205265666573
:1009500072656E6365204672657175656E637900B8
:100960005365747320426173652042616E64205642
:1009700061726163746F7220766F6C746167652059
:1009800028302D3430393629203056202D20322E73
:1009900035560053656C6563742074686520746116
:1009A0007267657420504C4C2028302920484D43F4
:1009B0003833302028312920484D43383333005311
:1009C000657420504C4C20496E70757420446976D3
:1009D000696465722076616C75652E203120746FB4
:1009E0002031363338330053657420504C4C204648
:1009F0006565646261636B20446976696465722031
:100A000076616C75652E20313620746F2035323456
:100A10003235350053657420504C4C2056434F20DE
:100A20004F757470757420446976696465722076B8
:100A3000616C75652E20312C20322C20342C203610
:100A4000202E2E20363200456E61626C652F44697F
:100A50007361626C652056434F204F7574707574D6
:100A6000204672657175656E637920446F75626C9E
:100A700065720053656C65637473207468652063E8
:100A80006F72726563742046696C7465722042618E
:100A90006E6B20666F72206120676976656E2066D6
:100AA00072657175656E637920696E206B487A0096
:100AB0004D7574657320746865204C4F20467265CF
:100AC0007175656E63792053796E74686573697AA0
:100AD0006572207768656E20757365640053656C78
:100AE00065637420504C4C204F75747075742050A1
:100AF0006F7765722028303A202D3464426D2C20A7
:100B0000313A202D3164426D2C20323A2032644239
:100B10006D2C20333A203564426D290053656C6595
:100B20006374732044534120417474656E7561741D
:100B3000696F6E2C2028303A203064426D202D3EA3
:100B4000203132373A2033312E373564426D290057
:100B5000414446343335352F41444635333535200D
:100B600044697265637420526567697374657220A5
:100B7000416363657373203C3C323862697420645E
:100B80006174613E3C3462697420616464726573AF
:100B9000733E3E00790554089F08DD0801094209AB
:100BA00060099309BF09E709140A470A730AB00AE2
:100BB000DD0A1C0B500B44756D707320616C6C204A
:100BC0007468652072656769737465727320666FF7
:100BD00072207468652041444331364458333730BD
:100BE0002E0044756D7073207468652072656769A6
:100BF000737465727320666F722074686520726505
:100C000067756C617220616E6420524620475049BE
:100C10004F580044756D707320616C6C207468656A
:100C20002072656769737465727320666F722074D1
:100C30006865204144524636353138007905B60B97
:100C4000E20B130C53657420746865207370656340
:100C50006966696564204750494F582070696E2065
:100C6000686967682E00436C65617220746865204E
:100C7000737065636966696564204750494F582001
:100C800070696E206C6F772E0052756E73207370D2
:100C9000656369666965642074657374207665634D
:100CA000746F72206F662074686520504341393537
:100CB00033382E0052756E732073706563696669F0
:100CC0006564207465737420766563746F72206F39
:100CD00066207468652041444331364458333730C8
:100CE0000052756E73207370656369666965642070
:100CF0007465737420766563746F72206F662074F8
:100D00006865204144524636353138007905440C37
:100D1000660C890CB40CE10C52657772697465201D
:100D2000616C6C207265677320666F7220656E74EB
:100D300069726520626F6172642E005475726E2054
:100D40006F6E206F757470757473202870657220D3
:100D50006368616E6E656C292E0052756E73206437
:100D60006961676E6F73746963206F6E207065725E
:100D70006970686572616C202870657220636861B3
:100D80006E6E656C292E2053686F756C64207072CE
:100D9000696E7420616C6C2072656769737465722A
:100DA000732E005475726E206F6666206F757470B6
:100DB0007574732028706572206368616E6E656C4F
:100DC000292E00506F776572206379636C652070FF
:100DD00065726970686572616C7320616E642072FF
:100DE000756E7320626F61726420696E6974202869
:100DF000706572206368616E6E656C292E00547593
:100E0000726E206F666620706572697068657261C7
:100E10006C732E005475726E7320657665727974EA
:100E200068696E67206F66662E005072696E747313
:100E3000206F75742074686520736F6674776172B3
:100E40006520616E642068617264776172652076E6
:100E5000657273696F6E2E0050726F766964657388
:100E60002074686520616D6F756E74206F66205206
:100E7000414D206C65667420286279746573292E53
:100E800000546865204144432077696C6C20656E8E
:100E900061626C6520746865205359535245462041
:100EA000646574656374696F6E206761746520663C
:100EB0006F72204A45534420696E697469616C6998
:100EC0007A6174696F6E2E00546865204144432036
:100ED00077696C6C206F7574707574204A45534443
:100EE0002054657374205061747465726E732E2083
:100EF000303A206F66662C20313A204432312E354C
:100F00002C20323A204B32382E352C20333A2072A6
:100F1000707420494C412C20343A2072616D702C41
:100F200020353A20484947482E00456E61626C6979
:100F30006E67207468652053595352454620646596
:100F400074656374696F6E20676174652E2031204B
:100F5000746F20656E61626C652C203020746F2088
:100F600064697361626C65004F7574707574732089
:100F7000612031362D626974207265706561746913
:100F80006E672073657175656E6365205B302C201C
:100F900032363238302C20302C202D323633323855
:100FA0005D2066726F6D2074686520414443206344
:100FB0006F72652E0050726F766964657320746875
:100FC000652074656D706572617475726520283076
:100FD0002D31292E00426C696E6B73207468652078
:100FE0004C454420612073706563696669656420BF
:100FF0006E756D626572206F662074696D65732E03
:101000000053656C6563747320474C45206D6F64B5
:10101000653A204D43555F474C45283129206F7272
:1010200020465047415F474C45202832290079052A
:10103000180D3B0D5A0DA30DC30DFE0D140E2A0EF7
:10104000580E810EC80E2A0F680FB50FD50F01106C
:10105000436F6D6D616E6420666F72207072696E91
:1010600074696E67207468652063757272656E744A
:10107000206865617274626561742076616C756563
:10108000206F662074686520525820626F61726418
:1010900000436F6D6D616E6420666F7220726573C0
:1010A000657474696E672074686520686561727420
:1010B000626561742076616C756520666F7220745C
:1010C000686520525820626F6172640048656172E1
:1010D000746265617420696E7469616C697A6174A7
:1010E000696F6E2066756E6374696F6E20746F2011
:1010F00073657420636F756E74657220746F203031
:101100000050109110CC10484D433833784C503675
:101110004700414452463635313800414443313668
:101120004458333730007905071112111B114E6FE7
:1011300020617267756D656E74206E65636573738B
:101140006172792E002E11456E7465722074686587
:1011500020626F6F746C6F616465722E004711506E
:1011600072696E7473206F757420696E2076657273
:10117000626F7365206D6F64652E203120746F205F
:10118000656E61626C652E005F11436F6D6D616EFF
:10119000647320666F72207468652044414333385D
:1011A0004A38342E00436F6E74726F6C732074680B
:1011B000652066726F6E74656E6420524620737788
:1011C0006974636865732E0052656769737465722C
:1011D0002064756D707320666F7220726573706520
:1011E0006374697665207065726970686572616C98
:1011F000732E0050726F7669646573207468652081
:10120000737461747573206F662074686520626FF3
:101210006172642E00436F6E74726F6C7320746819
:101220006520626F617264206C6576656C206675FE
:101230006E6374696F6E732E2053657175656E747D
:1012400069616C2065786563206F662061726775DF
:101250006D656E74732E004F4E2F4F464620737788
:101260006974636865732C202830206973204F46A9
:10127000462C2031206973204F4E2900426F6F7435
:101280006C6F61646572206F7074696F6E732E008D
:1012900045786974732066726F6D20746869732075
:1012A000626F617264206261636B20746F20746886
:1012B00065204449474954414C20626F6172642E55
:1012C000005072696E7473206F75742074686520A5
:1012D00068656C70206D656E7520666F722074682D
:1012E0006520626F6172642E008A11A511C811F326
:1012F00011151257127C129012C112537065636956
:101300006679207768696368206368616E6E656CD2
:1013100020612C622C632C642C204F522062697453
:10132000206D61736B2E204D55535420737065638F
:101330006966792066697273742E005370656369FB
:10134000667920776869636820696E7465726E617A
:101350006C20444143206368616E6E656C3A2028BE
:10136000302D332920412D442E005365742074689C
:10137000652066726571206F7574707574206F6674
:101380002065787465726E616C2044414320636C03
:101390006B20616674657220696E7465726E616C33
:1013A00020434C4B206369726375697420284D4853
:1013B0007A292E0053657420746865204E434F20AF
:1013C00075707065722033322D6269747320726596
:1013D0006769737465722E005365742074686520A4
:1013E0004E434F206C6F7765722033322D626974E3
:1013F000732072656769737465722C2077726974E3
:101400006520746F2075707065722033322D6269AB
:10141000747320666972737421212A2A00536574DB
:101420002074686520284C29206C616E65732070DB
:101430006572206C696E6B2E00536574207468654C
:1014400020284D2920636F6E766572746572732053
:10145000706572206C696E6B2E0053657420746821
:101460006520284629206672616D6573207065725B
:10147000206D756C74692D6672616D652E00536503
:10148000742074686520636D6420696E70757420C3
:1014900066726F6D204A455344283029206F7220B0
:1014A0005350492831292E00456E61626C652074C5
:1014B0006865206D697865722E203120746F206513
:1014C0006E61626C652E00456E61626C65207468A9
:1014D000652050412028706F77657220616D706CB7
:1014E0006966696572292070726F74656374696FCB
:1014F0006E20636972637569742E203120746F20C9
:10150000656E61626C652E00536574207468652099
:10151000696E746572706F6C6174696F6E2031787A
:101520002830292C2032782831292C203478283270
:10153000292C203878283429206F722031367828D9
:1015400038292E00457865637574652074686520B8
:1015500073657264657320746573742E2028302D52
:1015600035292074657374207061747465726E2EF1
:101570000047657473207468652074656D706572CA
:101580006174757265206F662074686520444143FC
:101590002E0044756D70206F757420616C6C206F27
:1015A0006620746865207265676973746572732E4E
:1015B00000496E697469616C697A657320616E6453
:1015C00020636F6E66696775726573207468652045
:1015D0004A455344206C696E6B2E00426974206248
:1015E000616E672061646472657373206F66204466
:1015F00041432E004269742062616E672064617409
:1016000061206F66204441432E004269742062616C
:101610006E67206F7065726174696F6E2E20313A4B
:1016200020777269746520303A20726561640051D8
:101630004D43204443206F66667365742C2031331C
:10164000626974732C206D656173757265642069BD
:101650006E20444143204C5342277300514D432098
:101660006761696E206F66667365742C2031316224
:101670006974732C20646563696D616C20706E748D
:101680002040206C656674206F6620626974392C76
:101690002072616E67652030202D20312E39393956
:1016A000302C204C53423D302E30303039373636D6
:1016B00000514D43207068617365206F66667365E5
:1016C000742C203132626974732C202D302E352019
:1016D0002D20302E34393937352C207265666572ED
:1016E00020746F20646174617368656574004C6177
:1016F000726765204672616374696F6E616C204425
:10170000656C61792053657474696E677300536DFD
:10171000616C6C204672616374696F6E616C204409
:10172000656C61792053657474696E677300536DDD
:10173000616C6C204672616374696F6E616C2044E9
:10174000656C617920506174682053657474696EAA
:10175000677300456E61626C652F44697361626CEA
:101760006520496E76657273652053696E63204605
:10177000696C74657200456E61626C652F446973B3
:1017800061626C6520446974686572696E670045C2
:101790006E61626C652F44697361626C6520446997
:1017A00074686572204D69786572005365742074A1
:1017B00068652044697468657220416D706C697455
:1017C0007564652C2030206973204D6178696D75D2
:1017D0006D202834206269747329004C617267653A
:1017E000204672616374696F6E616C2044656C6140
:1017F000792C20436F656666696369656E74205352
:1018000065742073656C656374696F6E2E2028495A
:101810006E204461746173686565742900536D615D
:101820006C6C204672616374696F6E616C204465F4
:101830006C6179205461702073656C6563746F729C
:1018400000536574207468652073656C6563746506
:1018500064205461702076616C756520666F72201B
:1018600074686520536D616C6C20467261637469A5
:101870006F6E616C2044656C617900FB123B13B4A0
:1018800013D813A81471159215B1152F165C16B143
:1018900016EE160E172E17531776178F17AB17DB8A
:1018A000171D18411843686F6F73652074686520B1
:1018B000686967682028302E352D362047487A29F8
:1018C000206F72206C6F7720284443202D20302E0B
:1018D000352047487A292062616E642E2048696766
:1018E00068283129206F72206C6F772830292E00EC
:1018F00042797061737320746865204C4E41206F8B
:101900006E2074686520686967682062616E642E65
:101910002042797061737328312920746865204CE6
:101920004E41206F72206E6F742830292E0053654F
:1019300074732066726571206F6620484D4338339A
:1019400033206F75747075742C20696E204B487A43
:101950002E005365742074686520524653412061FF
:101960007474656E74756174696F6E2E20302074A6
:101970006F203238202830644220746F202D323896
:101980006442292E00504C4C205265666572656E8B
:10199000636520496E7075742028696E206B487AE3
:1019A000290053657420746865204951204D6F6487
:1019B000756C61746F722049206269617320766F63
:1019C0006C746167652028696E2064562C206672ED
:1019D0006F6D20302D3234206456292E00536574EB
:1019E00020746865204951204D6F64756C61746F77
:1019F000722051206269617320766F6C7461676533
:101A00002028696E2064562C2066726F6D20302D60
:101A10003234206456292E004E6565647320746F3D
:101A20002062652063616C6C6564206C6173742E48
:101A3000205365747320746865204951204D6F648C
:101A4000756C61746F722E202869652E202D6920B7
:101A50003137202D71203133202D6D290053656CD5
:101A600065637420746865207461726765742050C2
:101A70004C4C2028302920484D4338333020283121
:101A80002920484D433833330053657420504C4C63
:101A900020496E7075742044697669646572207699
:101AA000616C75652E203120746F203136333833E8
:101AB0000053657420504C4C204665656462616338
:101AC0006B20446976696465722076616C75652E59
:101AD00020313620746F203532343235350053656D
:101AE0007420504C4C2056434F204F7574707574C1
:101AF00020446976696465722076616C75652E2074
:101B0000312C20322C20342C2036202E2E20363220
:101B100000456E61626C652F44697361626C65207B
:101B200056434F204F7574707574204672657175F9
:101B3000656E637920446F75626C6572004D7574D3
:101B4000657320746865204C4F2046726571756519
:101B50006E63792053796E74686573697A65722053
:101B60007768656E20757365640053656C65637492
:101B7000732074686520636F7272656374204669B0
:101B80006C7465722042616E6B20666F72206120FA
:101B9000676976656E206672657175656E6379201A
:101BA000696E206B487A00504C4C204F75747075EC
:101BB0007420506F7765722028303A202D346442AB
:101BC0006D2C20313A202D3164426D2C20323A2088
:101BD0002B3264426D2C20333A202B3564426D2920
:101BE00000524620417474656E7561746F722053A3
:101BF000657474696E672028303A20306442202D65
:101C00003E203132373A202D33312E373564422988
:101C100000414446343335352F414446353335355C
:101C200020446972656374205265676973746572D4
:101C300020416363657373203C3C323862697420D1
:101C4000646174613E3C34626974206164647265ED
:101C500073733E3E00FB12A518F0182E198519A2C9
:101C600019DD19181A5D1A891AB11ADE1A111B3DED
:101C70001B6A1BA71BE11B111C44756D707320743C
:101C800068652072656769737465727320666F7228
:101C90002074686520726567756C617220616E647E
:101CA000205246204750494F580044756D707320AC
:101CB0007468652072656769737465727320666FF6
:101CC00072207468652044414333384A383400FB3D
:101CD00012791CAA1C436F6D6D616E6420666F7271
:101CE000207468652063757272656E742068656122
:101CF0007274626561742076616C7565206F662010
:101D000074686520545820626F61726400436F6D7F
:101D10006D616E6420666F7220726573657474699C
:101D20006E67207468652063757272656E742068D2
:101D300065617274626561742076616C7565206F8F
:101D40006620545820626F61726400486561727445
:101D50006265617420696E697469616C697A617425
:101D6000696F6E2066756E6374696F6E20746F2084
:101D700073657420636F756E74657220746F2030A4
:101D800000FB12D51C0D1D4B1D52657772697465E1
:101D900020616C6C207265677320666F7220656EBF
:101DA0007469726520626F6172642E005475726E80
:101DB000206F6E206F757470757473202870657253
:101DC000206368616E6E656C292E0052756E7320FB
:101DD000646961676E6F73746963206F6E207065EC
:101DE000726970686572616C202870657220636822
:101DF000616E6E656C292E2053686F756C6420705F
:101E000072696E7420616C6C2072656769737465A9
:101E100072732E005475726E206F6666206F757433
:101E2000707574732028706572206368616E6E65CA
:101E30006C292E00506F776572206379636C652082
:101E40007065726970686572616C7320616E642080
:101E500072756E7320626F61726420696E6974209E
:101E600028706572206368616E6E656C292E00545F
:101E700075726E206F666620706572697068657233
:101E8000616C732E005475726E732065766572797D
:101E90007468696E67206F66662E005072696E7492
:101EA00073206F75742074686520736F6674776132
:101EB000726520616E64206861726477617265206A
:101EC00076657273696F6E2E00426C696E6B73205B
:101ED000746865204C4544206120737065636966B1
:101EE000696564206E756D626572206F6620746925
:101EF0006D65732E0050726F766964657320746827
:101F00006520616D6F756E74206F662052414D20A3
:101F10006C65667420286279746573292E0050728E
:101F20006F7669646573207468652074656D70658B
:101F30007261747572652028302D31292E004F751D
:101F40007470757420656E61626C65283129206F2C
:101F5000722064697361626C652830292E00456EB9
:101F600061626C6573204A4553442053595352456E
:101F70004620476174650053656C65637420474C67
:101F800045206D6F64653A204D43555F474C4528A9
:101F9000312920465047415F474C4528322900FBF4
:101FA00012891DAC1DCB1D141E341E6F1E851E9B79
:101FB0001EC91E1E1FF51E3E1F5E1F771F44414394
:101FC00033384A383400484D433833784C5036471C
:101FD00000414452463635313820486967682062EE
:101FE000616E64004144524636353138204C6F777B
:101FF0002042616E6400FB12BD1FC61F456E7465F2
:10200000722074686520626F6F746C6F61646572B2
:102010002E00FC1F4E6F20617267756D656E742017
:102020006E65636573736172792E00142050726956
:102030006E7473206F757420696E20766572626F9E
:102040007365206D6F64652E203120746F20656E7E
:1020500061626C652E002D20436F6D6D616E64733F
:1020600020666F72206D616E6167696E67207468AB
:102070006520434C4B2067656E65726174696F6EB5
:10208000207468726F756768204C4D4B303438325D
:10209000382C20414435363234522C20484D4339B7
:1020A00038372E00436F6D6D616E647320666F72FA
:1020B000206D616E6167696E672074686520434CAE
:1020C0004B2067656E65726174696F6E207468720B
:1020D0006F756768204C4D4B30343832382C2041B6
:1020E0004435363234522C20484D433938372E008F
:1020F000436F6D6D616E647320666F7220736574DB
:1021000074696E6720746865204C4D4B30343832EA
:10211000382064656C617920636C6F636B732E008B
:10212000436F6D6D616E647320666F7220736574AA
:1021300074696E6720746865204C4D4B30343832BA
:10214000382064656C617920636C6F636B732E005B
:10215000436F6D6D616E647320666F72207365747A
:1021600074696E67204A4553442F504C4C204E2FC3
:102170005220646976696465727300436F6D6D61A6
:102180006E647320666F722073657474696E672065
:10219000484D433938382067726F75702064656C1C
:1021A0006179732E005265616420616E64207772DC
:1021B00069746520636F6D6D616E647320666F7204
:1021C00020646562756767696E672E00436F6E7481
:1021D000726F6C732074686520626F617264206C2A
:1021E0006576656C2066756E6374696F6E732E20FC
:1021F00053657175656E7469616C206578656320DF
:102200006F6620617267756D656E74732E00436F23
:102210006D6D616E647320666F72206163636573B8
:1022200073696E67207468652068656172746265A1
:10223000617420737461747573004F4E2F4F46465E
:102240002073776974636865732C20283020697364
:10225000204F46462C2031206973204F4E290042E2
:102260006F6F746C6F61646572206F7074696F6EEC
:10227000732E0045786974732066726F6D207468E0
:10228000697320626F617264206261636B20746F96
:1022900020746865204449474954414C20626F616D
:1022A00072642E005072696E7473206F757420749E
:1022B00068652068656C70206D656E7520666F724C
:1022C0002074686520626F6172642E005820A4201B
:1022D000F020202150217B21A521CC210E223A2261
:1022E0005F227322A422456E61626C65206578745A
:1022F0002D31304D487A207265666572656E636572
:10230000202831292E004973737565205359535283
:1023100045462070756C7365732066726F6D204A38
:102320004553442E0053657420746865204441432E
:1023300020636F6E74726F6C6C696E6720584F20EB
:10234000567265662C20302D343039362066726125
:102350006374696F6E2056657874004368616E67B8
:102360006520696E7465726E616C20726566657257
:10237000656E636520444143206F757470757420E9
:10238000766F6C746167650052652D73796368724E
:102390006F6E697A65206F757470757420646976E4
:1023A00069646572732066726F6D20626F74682055
:1023B0004C4D4B7300E62206232523062388235326
:1023C000656C656374204A455344206F7220504CFD
:1023D0004C2E0053656C6563742064657669636593
:1023E00020636C6F636B2E005365742064696769AA
:1023F00074616C2064656C617920636C6F636B2E13
:1024000000BF23D323E823BF23D323E82353656CE2
:10241000656374206469766964657220746F2073E3
:1024200065742E0053657420522064697669646572
:102430007220666F7220504C4C2E00536574204EF3
:10244000206469766964657220666F7220504C4C16
:102450002E005365742063616C6C696272617469EB
:102460006F6E204E20646976696465722E00536534
:1024700074207072657363616C617220666F722084
:1024800063616C6C6962726174696F6E2E00536572
:102490007420636C6F636B20646976696465722E67
:1024A00000BF230D2424243B248E2453656C6563D4
:1024B0007473206265747765656E20746865207436
:1024C000776F20484D4339383820646576696365F5
:1024D0007320287265666572656E636520616E643F
:1024E000206C6D6B292E004765742F736574207402
:1024F00068652053594E432064656C617920646996
:1025000076696465722E0053657420656974686528
:10251000722053594E43206F7220534C49502075FE
:1025200073696E672053504920636F6D6D756E69D6
:10253000636174696F6E2E004765742F7365742034
:10254000746865206F7574707574206C61756E6346
:10255000682070686173652E004765742F73657419
:102560002064656C6179206C696E65207365747098
:102570006F696E742E00AB24E72407253825592592
:102580005265616420616E642077726974652063AE
:102590006F6D6D616E647320666F72206465627525
:1025A0006767696E672E00BF238025526577726961
:1025B000746520616C6C207265677320666F722091
:1025C000656E7469726520626F6172642E00547565
:1025D000726E206F6E206F75747075747320287022
:1025E0006572206368616E6E656C292E0052756E8F
:1025F0007320646961676E6F73746963206F6E2006
:102600007065726970686572616C202870657220EF
:102610006368616E6E656C292E2053686F756C64FB
:10262000207072696E7420616C6C207265676973CA
:10263000746572732E005475726E206F6666206F1B
:102640007574707574732028706572206368616E8C
:102650006E656C292E00506F776572206379636C0C
:1026600065207065726970686572616C7320616E57
:10267000642072756E7320626F61726420696E6986
:10268000742028706572206368616E6E656C292EF7
:10269000005475726E206F6666207065726970688E
:1026A0006572616C732E005475726E732065766569
:1026B00072797468696E67206F66662E0050726961
:1026C0006E7473206F75742074686520736F667400
:1026D0007761726520616E642068617264776172EF
:1026E000652076657273696F6E2E00426C696E6B41
:1026F0007320746865204C454420612073706563C5
:102700006966696564206E756D626572206F66200A
:1027100074696D65732E0050726F766964657320FD
:102720007468652074656D7065726174757265207A
:1027300028302D31292E0050726F76696465732020
:1027400074686520616D6F756E74206F66205241EC
:102750004D206C65667420286279746573292E009B
:1027600053656C6563747320474C45206D6F6465D9
:102770003A204D43555F474C45283129206F722040
:1027800053594E54485F465047415F474C452028B7
:10279000322900AB25CE25ED2556269126A726BD4C
:1027A00026EB261727372760274865617274626514
:1027B00061742066756E6374696F6E20746F20613A
:1027C0006E642066726F6D20746865207365727622
:1027D0006572004865617274626561742066756E29
:1027E0006374696F6E20746F2072657365742074F2
:1027F00068652068656172746265617420636F75D5
:102800006E746572004865617274626561742069F6
:102810006E697469616C697A6174696F6E2066753E
:102820006E6374696F6E20746F2073657420636FBC
:10283000756E74657220746F203000A927D3270548
:10284000284C4D4B303430323800484D43393837FE
:102850000041284A284E6F20617267756D656E745D
:10286000206E65636573736172792E005528456E1D
:102870007465722074686520626F6F746C6F616438
:1028800065722E006E285072696E7473206F7574B5
:1028900020696E20766572626F7365206D6F646566
:1028A0002E203120746F20656E61626C652E00866B
:1028B000280011241FBECFEFCDBFDFE3DEBF00E055
:1028C0000CBF10E3A0E0B0E2EEE0FAE601E00BBFDF
:1028D00002C007900D92A834B107D9F718E3A8E415
:1028E000B0E301C01D92AF3BB107E1F70E94A8AB76
:1028F0000C9405B50C94000061507109810991098F
:10290000D9F7089580E0089580E008958091D1205E
:102910009091D22020914A3030914B30821B930B02
:10292000019680934A3090934B3080E00895109246
:102930004A3010924B3080E008958091BD239091F1
:10294000BE23A091BF23B091C023AC01BD01415073
:10295000510961097109443651056105710558F441
:10296000AC01BD0140515109610971094135510561
:1029700061057105F8F483E296E29F938F930E94BC
:10298000B5AE8091C0238F938091BF238F938091A8
:10299000BE238F938091BD238F938BE296E29F930A
:1029A0008F930E94B5AE8DB79EB708968DBF9EBF20
:1029B00081E0089581369105A105B10558F0815651
:1029C000910991E001C0990F8A95EAF790935624F6
:1029D00080E008958093562480E00895E2E0F3E2D9
:1029E00083818F9382818F9381818F9380818F9355
:1029F000809156241F928F938BE396E29F938F933F
:102A00000E94B5AE8DB79EB708968DBF9EBF80E081
:102A10000895E4E2F3E283818F9382818F93818131
:102A20008F9380818F93809156241F928F938EE491
:102A300096E29F938F930E94B5AE8DB79EB708968E
:102A40008DBF9EBF80E00895E5E3F3E283818F931D
:102A500082818F9381818F9380818F93809156247F
:102A60001F928F938DE596E29F938F930E94B5AE50
:102A70008DB79EB708968DBF9EBF80E00895E6E4AF
:102A8000F3E283818F9382818F9381818F93808101
:102A90008F93809156241F928F938CE696E29F939A
:102AA0008F930E94B5AE8DB79EB708968DBF9EBF1F
:102AB00080E00895E7E5F3E283818F9382818F932D
:102AC00081818F9380818F93809156241F928F9361
:102AD0008BE796E29F938F930E94B5AE8DB79EB71A
:102AE00008968DBF9EBF80E00895EAE8F3E28381F7
:102AF0008F9382818F9381818F9380818F93809137
:102B000056241F928F938BE896E29F938F930E9497
:102B1000B5AE8DB79EB708968DBF9EBF80E0089575
:102B20008091032290910422A0910522B091062267
:102B3000AC01BD014150510961097109443651058B
:102B40006105710558F4AC01BD014051510961099D
:102B500071094135510561057105F8F483E296E28A
:102B60009F938F930E94B5AE809106228F938091A0
:102B700005228F93809104228F93809103228F935B
:102B80008BE296E29F938F930E94B5AE8DB79EB76E
:102B900008968DBF9EBF81E0089581369105A105FD
:102BA000B10558F08156910991E001C0990F8A95BD
:102BB000EAF79093562480E008958093562480E0AD
:102BC00008958091F3209091F420A091F520B09188
:102BD000F620AC01BD01415051096109710944362B
:102BE00051056105710558F4AC01BD014051510911
:102BF000610971094135510561057105F8F483E2F8
:102C000096E29F938F930E94B5AE8091F6208F93AA
:102C10008091F5208F938091F4208F938091F32001
:102C20008F938BE296E29F938F930E94B5AE8DB700
:102C30009EB708968DBF9EBF81E0089581369105AD
:102C4000A105B10558F08156910991E001C0990F95
:102C50008A95EAF79093562480E00895809356244D
:102C600080E00895CF93DF9300D01F92CDB7DEB7F9
:102C7000CE010196AA2797FDA095BA2F4091B538AD
:102C80005091B6384115510511F44FEB58E36627C2
:102C900057FD6095762F841B950BA60BB70BBF9342
:102CA000AF939F938F938CE996E29F938F930E94AB
:102CB000B5AE0F900F900F900F900F900F9080E097
:102CC0002496CDBFDEBFDF91CF910895809155242A
:102CD0001F928F9381EB96E29F938F930E94B5AEE4
:102CE000809154241F928F938BEC96E29F938F9345
:102CF0000E94B5AE8091F2219091F321A091F42130
:102D0000B091F5212DB73EB7285F3F4F2DBF3EBF95
:102D100081309105A105B10531F481E080935524FE
:102D20008093542409C00297A105B10529F482E0DB
:102D30008093552480935424809155241F928F931F
:102D400085EE96E29F938F930E94B5AE80915424B6
:102D50001F928F938BEF96E29F938F930E94B5AE55
:102D60008DB79EB708968DBF9EBF80E00895809175
:102D70004B308F9380914A308F9381E197E29F93FC
:102D80008F930E94B5AE80914A3090914B3001965E
:102D900080934A3090934B300F900F900F900F908C
:102DA00080E00895682F80911724909118240E9444
:102DB000537E80E0089561E070E00090362202C00A
:102DC000660F771F0A94E2F741E088E798E30E94D4
:102DD000452A882341F083E296E29F938F930E94D5
:102DE000B5AE0F900F90809139228F938091382249
:102DF0008F93809137228F93809136228F93809189
:102E000056241F928F9385E197E29F938F930E94A0
:102E1000B5AE8DB79EB708968DBF9EBF80E0089572
:102E200061E070E00090472202C0660F771F0A94AD
:102E3000E2F740E088E798E30E94452A882341F0C2
:102E400083E296E29F938F930E94B5AE0F900F900E
:102E500080914A228F93809149228F9380914822BA
:102E60008F93809147228F93809156241F928F9346
:102E700085E197E29F938F930E94B5AE8DB79EB781
:102E800008968DBF9EBF80E0089580919E2090910E
:102E90009F20A091A020B091A120892B8A2B8B2B61
:102EA00029F083E998E30E94354504C083E998E35B
:102EB0000E949645882341F083E296E29F938F9388
:102EC0000E94B5AE0F900F908091A1208F938091BA
:102ED000A0208F9380919F208F9380919E208F932D
:102EE000809156241F928F9382E397E29F938F9352
:102EF0000E94B5AE8DB79EB708968DBF9EBF80E08D
:102F000008958091AF209091B020A091B120B09110
:102F1000B220892B8A2B8B2B71F485E898E30E94D1
:102F20001C35882341F083E296E29F938F930E94A1
:102F3000B5AE0F900F908091B2208F938091B12009
:102F40008F938091B0208F938091AF208F93809149
:102F500056241F928F9384E497E29F938F930E944D
:102F6000B5AE8DB79EB708968DBF9EBF80E0089521
:102F70000E949D9280E0089586E597E20E94CFAE80
:102F80000E949D9280E00895CF93DF931F921F923D
:102F9000CDB7DEB7AE014E5F5F4F60E083E998E3E7
:102FA0000E945547AE014F5F5F4F61E083E998E3B0
:102FB0000E94554789811F928F938A811F928F9318
:102FC0008DE797E29F938F930E94B5AE0F900F907D
:102FD0000F900F900F900F9080E00F900F90DF9167
:102FE000CF9108952F923F924F925F926F927F926E
:102FF0008F929F92AF92BF92CF92DF92EF92FF9209
:103000000F931F93CF93DF93CDB7DEB72797CDBF35
:10301000DEBF8FEFC82E84E2D82EE12CF12C00E029
:1030200010E097E9292E97E2392E8091562490E0FE
:10303000002E02C0959587950A94E2F780FF4BC059
:10304000C70189509B4D5C01FC01F081FD83F601B5
:103050006080718020E14E2D6D81C3010E94FE8C45
:10306000F501F181FE83F6014280538020E141E0C9
:103070004E0D6E81C2010E94FE8C22E3812C912CA8
:10308000A12CB12CAE014D5F5F4F6D81C3012F8329
:103090000E94538DAE014F5F5F4F6E81C2010E944F
:1030A000538D8B819C81A80EB91E89819A81880ECF
:1030B000991E2F81215031F79F928F92BF92AF922C
:1030C000C8018F5B9F4F9F938F933F922F920E94D7
:1030D000B5AECDBFDEBF0F5F1F4F92E0E90EF11C12
:1030E000E4E0CE0ED11C0430110509F09ECF80E043
:1030F0002796CDBFDEBFDF91CF911F910F91FF903B
:10310000EF90DF90CF90BF90AF909F908F907F9087
:103110006F905F904F903F902F90089560919B2308
:1031200070919C2380919D2390919E23603871051E
:103130008105910528F088EB97E20E94CFAE1FC071
:103140008AE698E30E94F94980919E238F938091AB
:103150009D238F9380919C238F9380919B238F93AA
:10316000809156241F928F938EEB97E29F938F93BB
:103170000E94B5AE8DB79EB708968DBF9EBF80E00A
:103180000895CF93DF93CCEAD3E2488159816A81D5
:103190007B8188E698E30E943B608B818F938A81D4
:1031A0008F9389818F9388818F93809156241F926A
:1031B0008F9381ED97E29F938F930E94B5AE8DB769
:1031C0009EB708968DBF9EBF80E0DF91CF91089596
:1031D000CF93DF931F921F92CDB7DEB719821A8269
:1031E000BE016F5F7F4F83E998E30E94AE4588235D
:1031F00041F083EE97E29F938F930E94B5AE0F90BC
:103200000F908BEE97E20E94CFAE89811F928F9331
:1032100083E098E29F938F930E94B5AE8A811F92BC
:103220008F9381E198E29F938F930E94B5AE809136
:1032300056241F928F938FE198E29F938F930E9461
:10324000B5AECDBFDEBF80E00F900F90DF91CF9184
:10325000089585E898E30E94CA27882341F083E215
:1032600096E29F938F930E94B5AE0F900F9080E0EF
:10327000089583E998E30E947727882341F083E249
:1032800096E29F938F930E94B5AE0F900F9080E0CF
:10329000089566E574E288E798E30E945C28882335
:1032A00041F083E296E29F938F930E94B5AE0F9018
:1032B0000F90809156241F928F9380E398E29F9302
:1032C0008F930E94B5AE0F900F900F900F9080E0FB
:1032D00008956091AE2185E898E30E949A3888238A
:1032E00041F083E296E29F938F930E94B5AE0F90D8
:1032F0000F908091B1218F938091B0218F93809115
:10330000AF218F938091AE218F9386E498E29F93B3
:103310008F930E94B5AE0F900F900F900F900F906B
:103320000F9080E00895CF9380919D2190919E21F0
:10333000A0919F21B091A0210697A105B10540F071
:1033400083E296E29F938F930E94B5AE0F900F9009
:1033500080919D2190919E21A0919F21B091A021CB
:1033600082309105A105B10529F170F40097A105FE
:10337000B105D1F00197A105B10571F589E798E292
:103380000E94CFAEC8E029C084309105A105B105E7
:10339000E9F0B0F00597A105B105F1F483EC98E2EE
:1033A0000E94CFAECAE019C085E698E20E94CFAE77
:1033B000C0E013C08AE898E20E94CFAEC7E00DC01B
:1033C0008BE998E20E94CFAEC5E007C083EB98E29C
:1033D0000E94CFAEC6E001C0C0E060E085E898E39F
:1033E0000E94853F60E085E898E30E949A386C2F40
:1033F00085E898E30E94EB3FC63031F462E070E06C
:1034000085E898E30E94544060E085E898E30E94D4
:103410001A4361E085E898E30E949A3861E085E804
:1034200098E30E94853F80E0CF91089560E085E8B1
:1034300098E30E949A3860E085E898E30E94853F0F
:1034400060E085E898E30E94EB3F61E085E898E35F
:103450000E941A4361E085E898E30E94853F61E09D
:1034600085E898E30E949A3889ED98E20E94CFAEF1
:1034700080E008958CEF98E29F938F938FEF98E20E
:103480009F938F930E94B5AE0F900F900F900F9067
:1034900021E0409149206AE080E090E20C941CAA6F
:1034A0008091AD229091AE22A091AF22B091B02236
:1034B000AC01BD0141505109610971094436510502
:1034C0006105710558F4AC01BD0140515109610914
:1034D00071094135510561057105F8F483E296E201
:1034E0009F938F930E94B5AE8091B0228F9380916D
:1034F000AF228F938091AE228F938091AD228F93D4
:103500008BE296E29F938F930E94B5AE8DB79EB7E4
:1035100008968DBF9EBF81E0089581369105A10573
:10352000B10550F08156910991E001C0990F8A953B
:10353000EAF79093562402C0809356248091562433
:103540001F928F9382E199E29F938F930E94B5AE71
:103550000F900F900F900F9080E008958091692256
:1035600090916A22A0916B22B0916C22AC01BD01B6
:1035700041505109610971094436510561057105D0
:1035800058F4AC01BD01405151096109710941353F
:10359000510561057105F8F483E296E29F938F93DC
:1035A0000E94B5AE80916C228F9380916B228F9395
:1035B00080916A228F93809169228F938BE296E2A9
:1035C0009F938F930E94B5AE8DB79EB708968DBF1F
:1035D0009EBF81E0089581369105A105B10550F0A7
:1035E0008156910991E001C0990F8A95EAF790936D
:1035F000562402C080935624809156241F928F93A4
:1036000082E199E29F938F930E94B5AE0F900F9045
:103610000F900F9080E0089580917C2090917D2004
:10362000A0917E20B0917F20AC01BD014150510995
:1036300061097109443651056105710558F4AC0101
:10364000BD014051510961097109413551056105BB
:103650007105F8F483E296E29F938F930E94B5AED2
:1036600080917F208F9380917E208F9380917D2009
:103670008F9380917C208F938BE296E29F938F9320
:103680000E94B5AE8DB79EB708968DBF9EBF81E0F4
:10369000089581369105A105B10550F08156910933
:1036A00091E001C0990F8A95EAF79093562402C0E1
:1036B00080935624809156241F928F9382E199E241
:1036C0009F938F930E94B5AE0F900F900F900F9025
:1036D00080E008951F920F920FB60F9211240BB63F
:1036E0000F922F933F934F935F936F937F938F939B
:1036F0009F93AF93BF93EF93FF9320E040E050E0A0
:1037000060E070E089E194E20E94417CFF91EF91DA
:10371000BF91AF919F918F917F916F915F914F91E9
:103720003F912F910F900BBE0F900FBE0F901F90E7
:1037300018951F920F920FB60F9211240BB60F928D
:103740002F933F934F935F936F937F938F939F93A9
:10375000AF93BF93EF93FF9389E194E20E94B27C11
:10376000FF91EF91BF91AF919F918F917F916F9159
:103770005F914F913F912F910F900BBE0F900FBE15
:103780000F901F901895CF92DF92EF92FF920F93B8
:103790001F93CF93DF9380EAC82E86E0D82E91E066
:1037A000D60111969C93119782E011968C93E0E0DC
:1037B000F6E09283828324E0E22EE28238E0F32E68
:1037C000F28200E1018330E2318320E42283A0E22F
:1037D000B6E012969C93129712968C9312971296BB
:1037E000EC9212971296FC92129760E476E0EB014D
:1037F0003983298310E81983E0E8F6E031832183D7
:103800001183F18211960C93119711962C931197B5
:1038100040E656E0EA013983E18211963C93119724
:1038200011961C932983018399838983E982F98204
:10383000D60111960C93119711963C9311971196FE
:103840002C93119711961C93EB0199838983918393
:103850008183DF91CF911F910F91FF90EF90DF90C7
:10386000CF900895CF93DF93809150008260809332
:1038700050008091510081FFFCCFD8EDD4BFC1E052
:10388000C093400065ED7CED82E390E00E947C14E3
:10389000F894D4BFC093960062E087E994E20E9456
:1038A000D170C82F64E08EE594E20E94E871C80FE1
:1038B00023EF31E041E050E06CE470E38AE798E305
:1038C0000E9413932BED35E041E050E060E472E399
:1038D00087E898E30E94139361E089E194E20E94F3
:1038E000E57CD82F62E086EC94E20E944B668C0F58
:1038F000C82FCD0F97E09093A2008091A20080681E
:103900008093A2009093A20078940E9446928AE04D
:103910000E94DF9120E148E060912D2480913124C4
:10392000909132240E94FE8C20E149E060912E2487
:1039300080913324909134240E94FE8C20E14AE04F
:1039400060912F2480913524909136240E94FE8C22
:1039500020E14BE06091302480913724909138240D
:103960000E94FE8C20E140E061E080E092E00E9455
:10397000FE8C20E141E062E080E092E00E94FE8C5B
:1039800020E142E061E080E092E00E94FE8C20E1D4
:1039900043E062E080E092E00E94FE8C20E144E09F
:1039A00061E080E092E00E94FE8C20E145E062E070
:1039B00080E092E00E94FE8C20E146E061E080E041
:1039C00092E00E94FE8C20E147E062E080E092E01D
:1039D0000E94FE8C0E94C31B8C2FDF91CF91089513
:1039E0009F92AF92BF92CF92DF92EF92FF920F938E
:1039F0001F93CF93DF931F92CDB7DEB7198200E0FC
:103A000010E0F12C8FE0A82EB12C9924939491E230
:103A1000C92E99E2D92E2FE0E22EC501002E02C058
:103A2000959587950A94E2F780FF24C0892D002E92
:103A300001C0880F0A94EAF780935624AE014F5FC5
:103A40005F4F62E081E998E30E94882CF80E89813B
:103A50001F928F93809156241F928F93DF92CF9263
:103A60000E94B5AEE09256240F900F900F900F90E9
:103A70000F900F900F5F1F4F0430110571F68F2DBF
:103A80000F90DF91CF911F910F91FF90EF90DF90FA
:103A9000CF90BF90AF909F9008950E94F01C882314
:103AA00041F083E296E29F938F930E94B5AE0F9010
:103AB0000F9080E008950E949D9280E00895CF933A
:103AC0008AE698E30E948B49C82F88E698E30E9413
:103AD000AF60C80F40E064E088E798E30E94452AA1
:103AE000C80F40E068E088E798E30E94452A8C0F01
:103AF000CF9108950E945F1D882341F083E296E2F2
:103B00009F938F930E94B5AE0F900F9080E0089521
:103B100080E00895CF938FE0809356248AE698E35F
:103B20000E94A449C82F83E998E30E948545C80FE5
:103B300085E898E30E944736C80F88E698E30E941C
:103B4000C760C80F40E064E088E798E30E94452A18
:103B5000C80F40E068E088E798E30E94452AC80F54
:103B600040E060E488E798E30E94452AC80F6AE3D2
:103B70007FE880E090E00E947C1440E060E888E705
:103B800098E30E94452AC80F6AE37FE880E090E04E
:103B90000E947C1440E060E288E798E30E94452A96
:103BA0008C0FCF9108950E948A1D882341F083E2F3
:103BB00096E29F938F930E94B5AE0F900F9080E096
:103BC00008958CEF98E29F938F938FEF98E29F93E5
:103BD0008F930E94B5AE88E499E29F938F938FE410
:103BE00099E29F938F930E94B5AE8BE599E29F93E4
:103BF0008F9383E799E29F938F930E94B5AE81E8FC
:103C000099E29F938F9385E999E29F938F930E9406
:103C1000B5AE8DB79EB740968DBF9EBF80E008952C
:103C20000E94E11D882341F083E296E29F938F93E7
:103C30000E94B5AE0F900F9080E008956230A0F51D
:103C40009FEF980F9F3080F5809356246130A1F448
:103C500041E062E088E798E30E94452A40E064E0A2
:103C600088E798E30E94452A41E068E088E798E306
:103C70000E94452A80E0089540E062E088E798E3EA
:103C80000E94452A41E064E088E798E30E94452AC3
:103C900040E068E088E798E30E94452A88E698E3D8
:103CA0000E94AF6080E0089581E008956091BE2297
:103CB000809156240E941E1E882341F083E296E2E2
:103CC0009F938F930E94B5AE0F900F908091C12269
:103CD0008F938091C0228F938091BF228F93809188
:103CE000BE228F93809156241F928F9383EA99E28C
:103CF0009F938F930E94B5AE8DB79EB708968DBFE8
:103D00009EBF80E008956230B8F49FEF980F9F3017
:103D100098F480935624613039F441E088E798E3C1
:103D20000E94452A80E0089540E061E088E798E33A
:103D30000E94452A80E0089581E008956091CF2295
:103D4000809156240E94831E882341F083E296E2EC
:103D50009F938F930E94B5AE0F900F908091D222C7
:103D60008F938091D1228F938091D0228F938091D5
:103D7000CF228F93809156241F928F938AEB99E2E2
:103D80009F938F930E94B5AE8DB79EB708968DBF57
:103D90009EBF80E00895603460F49FEF980F9F30DD
:103DA00040F48093562483E998E30E94C64680E05D
:103DB000089581E008958091CE239091CF23A09122
:103DC000D023B091D12380349105A105B10560F0D5
:103DD0008FE390E0A0E0B0E08093CE239093CF23D8
:103DE000A093D023B093D1238091F0239091F1231D
:103DF000A091F223B091F3230097A105B10541F5FD
:103E00006091CE23809156240E94CB1E882321F0FE
:103E100082ED99E20E94CFAE8091D1238F93809161
:103E2000D0238F938091CF238F938091CE238F9334
:103E3000809156241F928F9382EE99E29F938F93E5
:103E40000E94B5AE8DB79EB708968DBF9EBF11C0BC
:103E50004091CE230197A105B10531F460E083E9DB
:103E600098E30E94E74605C061E083E998E30E9479
:103E7000E74680E00895CF92DF92EF92FF920F9392
:103E80001F93CF93DF931F92CDB7DEB79FEF980FAD
:103E90009F30B8F58093562400E010E085EFC82EDF
:103EA00089E2D82E9EEFE92E99E2F92E802F8370B9
:103EB00051F41F930F93DF92CF920E94B5AE0F90F3
:103EC0000F900F900F90AE014F5F5F4FB80185E8E4
:103ED00098E30E94123689811F928F93FF92EF928E
:103EE0000E94B5AE0F5F1F4F0F900F900F900F9075
:103EF00001371105D9F68AE090E00E94C9AE80E052
:103F000001C081E00F90DF91CF911F910F91FF9041
:103F1000EF90DF90CF900895CF93DF931F92CDB7AE
:103F2000DEB7809156240E943B1F882341F083E234
:103F300096E29F938F930E94B5AE0F900F90809161
:103F400056241F928F9386E09AE29F938F930E944C
:103F5000B5AE86E19AE20E94CFAEBE016F5F7F4FA1
:103F600085E898E30E94E3420F900F900F900F9026
:103F70008981811105C084E29AE20E94CFAE04C01B
:103F800082E49AE20E94CFAEBE016F5F7F4F85E868
:103F900098E30E94C7418981811105C08CE59AE2AE
:103FA0000E94CFAE04C085E89AE20E94CFAEBE0167
:103FB0006F5F7F4F85E898E30E9489418981811175
:103FC00005C08AEA9AE20E94CFAE04C089EC9AE268
:103FD0000E94CFAEBE016F5F7F4F85E898E30E94DD
:103FE00045418981811105C084EE9AE20E94CFAEDD
:103FF00004C082E19BE20E94CFAEBE016F5F7F4FA3
:1040000085E898E30E9432428981811105C08CE2E3
:104010009BE20E94CFAE04C08FE59BE20E94CFAE30
:10402000BE016F5F7F4F85E898E30E94034189815D
:10403000811105C08EE89BE20E94CFAE04C083EBE5
:104040009BE20E94CFAE80E00F90DF91CF91089568
:104050000F931F93CF93DF9300D01F92CDB7DEB79E
:104060009FEF980F9F3008F06BC0809356248E010D
:104070000F5F1F4F9E012E5F3F4FAE014D5F5F4FA1
:10408000BE016C5F7F4F88E798E30E94B92E8C8158
:104090001F928F9387ED9BE29F938F930E94B5AE03
:1040A0008B811F928F938EEE9BE29F938F930E9442
:1040B000B5AE8A811F928F9386E09CE29F938F9387
:1040C0000E94B5AE89811F928F9380E29CE29F93FC
:1040D0008F930E94B5AE9E012E5F3F4FAE014D5FA4
:1040E0005F4FBE016C5F7F4F81E998E30E94B92E5C
:1040F0008C811F928F9384ED9BE29F938F930E94FC
:10410000B5AE8B811F928F938BEE9BE29F938F9323
:104110000E94B5AE8A811F928F9383E09CE29F93A9
:104120008F930E94B5AE89811F928F938DE19CE29F
:104130009F938F930E94B5AECDBFDEBF80E001C0DC
:1041400081E02496CDBFDEBFDF91CF911F910F910B
:104150000895809156240E942820882341F083EE00
:1041600097E29F938F930E94B5AE0F900F9080912E
:1041700056241F928F9388E39CE29F938F930E9413
:10418000B5AE0F900F900F900F9080E00895CF92F2
:10419000DF92EF92FF920F931F93CF93DF931F92C3
:1041A0001F92CDB7DEB79FEF980F9F3008F0A2C0E7
:1041B0008093562420E148E060912D2480913124A1
:1041C000909132240E94FE8C20E149E060912E24DF
:1041D00080913324909134240E94FE8C20E14AE0A7
:1041E00060912F2480913524909136240E94FE8C7A
:1041F00020E14BE060913024809137249091382465
:104200000E94FE8C19821A8281E3E82E84E2F82E45
:1042100000E010E09AE4C92E9CE2D92E8091562449
:1042200090E0002E02C0959587950A94E2F780FFF2
:104230001FC0AE014F5F5F4FF801E35DFB4D608132
:10424000F701808191810E94A68D8A818F93898157
:104250008F93C8018F5B9F4F9F938F93DF92CF9275
:104260000E94B5AE0F900F900F900F900F900F908F
:104270000F5F1F4FF2E0EF0EF11C0430110571F6D5
:1042800020E140E061E080E092E00E94FE8C20E1CD
:1042900041E062E080E092E00E94FE8C20E142E09A
:1042A00061E080E092E00E94FE8C20E143E062E069
:1042B00080E092E00E94FE8C20E144E061E080E03A
:1042C00092E00E94FE8C20E145E062E080E092E016
:1042D0000E94FE8C20E146E061E080E092E00E94D6
:1042E000FE8C20E147E062E080E092E00E94FE8CDC
:1042F00080E001C081E00F900F90DF91CF911F917E
:104300000F91FF90EF90DF90CF9008958091562409
:104310000E94C720882341F083E296E29F938F9307
:104320000E94B5AE0F900F9080E00895CF92DF927B
:10433000EF92FF920F931F93CF93DF938B3068F52B
:10434000062F06950695069590E2099F8001112497
:104350001A5F677021E030E07901062E01C0EE0C93
:104360000A94EAF7CE2CF801E682C82FD0E0CC0FF1
:10437000DD1FD12C8D2D90E08C179D0754F465E145
:1043800076E185E090E00E947C14F801C782D39426
:10439000F1CFF801E68280E001C081E0DF91CF91AA
:1043A0001F910F91FF90EF90DF90CF90089568E2FA
:1043B0008091E1210E949621882341F083E296E2D8
:1043C0009F938F930E94B5AE0F900F901F9288E23B
:1043D0008F938091E4218F938091E3218F9380913B
:1043E000E2218F938091E1218F938DE59CE29F9351
:1043F0008F930E94B5AE8DB79EB708968DBF9EBFB6
:1044000080E00895CF92DF92EF92FF926B017C01E2
:1044100040E060E181E998E30E94452A40E060E2E3
:1044200081E998E30E94452A40E060E481E998E34D
:104430000E94452A40E060E881E998E30E94452A0D
:1044400081E2C8168AEAD80684E4E806F10440F05E
:1044500040E060E181E998E30E94452A41E072C0B2
:1044600081ECC81686ECD8068DE2E806F10440F02F
:1044700040E060E181E998E30E94452A40E03BC0CA
:1044800081E6C81683EED80686E1E806F10470F0EE
:1044900041E060E181E998E30E94452A41E060E261
:1044A00081E998E30E94452A41E052C081EBC81699
:1044B00081E7D8068BE0E806F10470F041E060E1A6
:1044C00081E998E30E94452A40E060E281E998E3AF
:1044D0000E94452A41E015C089EDC81688EBD80630
:1044E00085E0E806F104C8F041E060E181E998E385
:1044F0000E94452A41E060E281E998E30E94452A52
:1045000040E060E481E998E30E94452A41E060E8E8
:1045100081E998E30E94452A26C040E060E181E9F4
:1045200098E3CD28CE28CF2851F00E94452A40E0BC
:1045300060E281E998E30E94452A41E009C00E94B7
:10454000452A40E060E281E998E30E94452A40E084
:1045500060E481E998E30E94452A40E060E881E94F
:1045600098E30E94452A80E0FF90EF90DF90CF9083
:1045700008950F931F93CF93DF9310928438DFE059
:10458000D09356242EE638E343E758E369EA74E211
:1045900088E798E30E948B29C82F2EE638E343E78B
:1045A00058E367EB74E281E998E30E948B29C80F16
:1045B0002EE534E24EE658E363E778E383E998E3D7
:1045C0000E94C044C80F2CE634E24EE658E363E78D
:1045D00078E385E898E30E94BC30C80F2AE734E20C
:1045E0004EE658E363E778E388E698E30E94C44B1D
:1045F000C80F08E814E22EE638E343E758E365E025
:1046000074E28AE698E30E940F49C80FD0935624BB
:1046100088E798E30E94BA29C80F81E998E30E94CD
:10462000BA29C80F40E060E881E998E30E94C72BEF
:10463000C80F40E060E481E998E30E94C72BC80FEF
:1046400040E060E281E998E30E94C72BC80F40E098
:1046500060E181E998E30E94C72BC80F40E068E061
:1046600081E998E30E94C72BC80F40E064E081E92C
:1046700098E30E94C72BC80F41E062E081E998E30C
:104680000E94C72BC80F40E061E081E998E30E94D7
:10469000C72BC80F40E064E088E798E30E94C72B6F
:1046A000C80F40E068E088E798E30E94C72BC80F76
:1046B00040E060E188E798E30E94C72BC80F40E024
:1046C00060E288E798E30E94C72BC80F40E062E0F1
:1046D00088E798E30E94C72BC80F40E061E088E7B5
:1046E00098E30E94C72BC80F40E060E488E798E396
:1046F0000E94C72BC80F40E060E888E798E30E945B
:10470000C72BC80F41E061E081E998E30E94452A88
:10471000C80F41E068E081E998E30E94452AC80F8C
:1047200041E064E088E798E30E94452AC80F41E031
:1047300068E088E798E30E94452AC80F41E060E1FD
:1047400088E798E30E94452AC80F41E060E288E7C5
:1047500098E30E94452AC80F6AE37FE880E090E072
:104760000E947C1441E060E888E798E30E94452AB3
:10477000C80F6AE37FE880E090E00E947C1441E08B
:1047800060E488E798E30E94452AC80F41E062E0B0
:1047900088E798E30E94452AC80F40E061E088E777
:1047A00098E30E94452AC80F6AE67EE689E190E018
:1047B0000E947C14D09356248AE698E30E945949BB
:1047C000C80F83E998E30E94FD44C80F85E898E389
:1047D0000E94EB30C80F00E010E08091562490E07A
:1047E000002E02C0959587950A94E2F780FF07C0D6
:1047F00041E068E081E998E30E94452AC80F0F5F15
:104800001F4F0430110549F788E698E30E94014CD8
:10481000C80F88E698E30E94D860C80F60E070E097
:10482000CB010E9402228C0FDF91CF911F910F913B
:1048300008950E94B922882341F083E296E29F9373
:104840008F930E94B5AE0F900F9080E00895CF93A4
:104850009FEF980F9F3008F0AAC08093562441E044
:1048600060E881E998E30E94452AC82F40E060E4AF
:1048700081E998E30E94452AC80F41E060E281E99E
:1048800098E30E94452AC80F41E060E181E998E37E
:104890000E94452AC80F41E064E081E998E30E9444
:1048A000452AC80F40E061E088E798E30E94452A66
:1048B000C80F41E062E088E798E30E94452AC80FEC
:1048C00041E064E088E798E30E94452AC80F41E090
:1048D00068E088E798E30E94452AC80F41E060E15C
:1048E00088E798E30E94452AC80F41E060E288E724
:1048F00098E30E94452AC80F6AE37FE880E090E0D1
:104900000E947C1441E060E888E798E30E94452A11
:10491000C80F6AE37FE880E090E00E947C1441E0E9
:1049200060E488E798E30E94452AC80F6AE37FE8BD
:1049300080E090E00E947C1485E898E30E94EB30D0
:104940008AE698E30E947249C80F83E998E30E94BF
:104950003545C80F85E898E30E94F631C80F88E610
:1049600098E30E94D860C80F60E070E0CB010E941D
:104970000222C80F41E060E881E998E30E94452ADD
:10498000C80F40E060E481E998E30E94452AC80F1F
:1049900041E060E281E998E30E94452AC80F41E0C6
:1049A00060E181E998E30E94452A8C0F01C081E013
:1049B000CF910895809156240E942724882341F0A6
:1049C00083E296E29F938F930E94B5AE0F900F9073
:1049D00080E00895CF939FEF980F9F30E8F4809385
:1049E00056248AE698E30E94B549C82F83E998E3E4
:1049F0000E949645C80F85E898E30E941C35C80FB1
:104A000088E698E30E94D860C80F60E070E0CB01B0
:104A10000E9402228C0F01C081E0CF910895809105
:104A200056240E94EA24882341F083E296E29F9371
:104A30008F930E94B5AE0F900F9080E008954F9233
:104A40005F926F927F928F929F92AF92BF92CF921E
:104A5000DF92EF92FF920F931F93CF93DF93C0905B
:104A6000E022D090E122E090E222F090E322209137
:104A70000223309103234091042350910523A8EE93
:104A8000B3E00E9431AC2B013C0180902423909034
:104A90002523C0913523D0913623109146230091D0
:104AA0008A2381E0C81685E8D8068FECE806F10471
:104AB00028F088EB97E20E94CFAE37C088E698E3F3
:104AC0000E94D860C701B6010E94022241E064E062
:104AD00081E998E30E94452A61E270E080E090E07D
:104AE0000E947C1481E098E1C91696ECD90698E002
:104AF000E906F10408F080E08F930F931F93DF9392
:104B0000CF9382E0A82EB12CC12CD12CE12CF12C1A
:104B10008701A301920161E088E698E30E94214E9B
:104B20000F900F900F900F900F9080E0DF91CF913A
:104B30001F910F91FF90EF90DF90CF90BF90AF90BB
:104B40009F908F907F906F905F904F9008952F92DD
:104B50003F924F925F926F927F928F929F92AF920D
:104B6000BF92CF92DF92EF92FF920F931F93CF935A
:104B7000DF93CDB7DEB72997CDBFDEBF8AE090E0E7
:104B80000E94C9AE1F921F928FE69CE29F938F9363
:104B90000E94B5AE0F900F900F900F901886198657
:104BA000912C712C19821A82612C1B821C821D820D
:104BB0001E821F8228EC222E312C412C512CE7E042
:104BC000F0E0CC24C394AC2DB0E0A20191010E948E
:104BD00031ACDC01CB0188549D40A109B109893475
:104BE0009D40A105B10560F080E4C81206C082E7CF
:104BF0009CE20E94CFAE81E08CC0CC0C319719F7BB
:104C000088E698E30E94D860A8EEB3E0A201910183
:104C10000E9431AC0E940222C201B10125E030E0C5
:104C200040E050E00E9448AC812CA12C790101E4C5
:104C300010E020E43BE14FE553E160E088E698E3D3
:104C40000E94584D68857985892D972D28EA36E18F
:104C500040E050E00E9448AC69017A018C819D815E
:104C6000AE81BF8182179307A407B50741F188EA97
:104C7000A82E96E1B92EC12CD12CE12CF12C00E00C
:104C800010E028853985492D572D69817A81862D37
:104C90009B810E946CACC22ED32EE42EF52E5F9326
:104CA0004F933F932F93A8EABCE2BF93AF930E9428
:104CB000B5AE0F900F900F900F900F900F90A8959A
:104CC000FFEF2F1A3F0A4F0A5F0A28853985492DC1
:104CD000572D69817A81862D9B81A4E60E944CAD77
:104CE00028873987942E752E69837A83682E9B8353
:104CF00021E7221627E132064104510429F0CC8233
:104D0000DD82EE82FF825BCF8AE090E00E94C9AE36
:104D100080E02996CDBFDEBFDF91CF911F910F912B
:104D2000FF90EF90DF90CF90BF90AF909F908F90CB
:104D30007F906F905F904F903F902F90089588E6FE
:104D400098E30E94D86060E070E0CB010E940222EC
:104D5000809156241F928F9380EB9CE29F938F93B8
:104D60000E94B5AE0F900F900F900F9080E00895C5
:104D7000CF93DF93C9E7D3E2688179818A819B81F0
:104D80000E9402228B818F938A818F9389818F93D6
:104D900088818F93809156241F928F938DEB9CE294
:104DA0009F938F930E94B5AE8DB79EB708968DBF27
:104DB0009EBF80E0DF91CF910895CF9380918D20A9
:104DC00090918E20A0918F20B0919020892B8A2BDA
:104DD0008B2B29F088E698E30E9476600BC088E66A
:104DE00098E30E94D860C82F60E070E0CB010E9479
:104DF00002228C0F882341F083E296E29F938F93E7
:104E00000E94B5AE0F900F90809190208F9380916B
:104E10008F208F9380918E208F9380918D208F9300
:104E2000809156241F928F938CED9CE29F938F93D9
:104E30000E94B5AE8DB79EB708968DBF9EBF80E02D
:104E4000CF9108950F931F938A012AE040E050E22A
:104E50000E94EF9B81508B3078F421E040E06AE0C3
:104E600080E090E20E941CAA80EF9CE29F938F93C7
:104E70000E94B5AE0F900F9080E01F910F910895A2
:104E800085E196E1A5E0B0E00197A109B109E1F75C
:104E900008951F93CF93DF93009721F1EC0187E4EE
:104EA0009EE20E94CFAE86EE9EE20E94CFAE8BE5E0
:104EB0009EE20E94CFAE8FE79EE20E94CFAE10E04E
:104EC000612FCE010E94F9490E944027175E1038D9
:104ED000B9F717E6612FCE010E94F9490E944027D9
:104EE0001951F8CF81E0DF91CF911F910895EF9292
:104EF000FF920F931F93CF93DF931F921F92CDB713
:104F0000DEB70097E9F18C0185EA9EE20E94CFAE00
:104F100085EE9EE20E94CFAE40E560E0C8010E94AF
:104F2000E746AE014F5F5F4F60E0C8010E94554702
:104F30008A818F9389818F9389EBE82E8EE2F82EF8
:104F4000FF92EF920E94B5AE40E561E0C8010E9479
:104F5000E746AE014F5F5F4F61E0C8010E945547D1
:104F60008A818F9389818F93FF92EF920E94B5AED1
:104F70008AE090E00E94C9AECDBFDEBF80E001C0F4
:104F800081E00F900F90DF91CF911F910F91FF90D3
:104F9000EF900895EF92FF920F931F93CF93DF93BB
:104FA00000D0CDB7DEB7009709F456C08C018CEC69
:104FB0009EE20E94CFAE83EE9EE20E94CFAEBE0183
:104FC0006D5F7F4FC8010E94FF368B811F928F93C8
:104FD0008AEF9EE29F938F930E94B5AEBE016F5FF2
:104FE0007F4FC8010E94CE378A818F9389818F932A
:104FF0008DE09FE29F938F930E94B5AE62E0C8015F
:105000000E949636BE016D5F7F4FC8010E94C83670
:105010008B811F928F9380E2E82E8FE2F82EFF9211
:10502000EF920E94B5AE60E0C8010E949636BE01C4
:105030006D5F7F4FC8010E94C8368B811F928F938E
:10504000FF92EF920E94B5AE8AE090E00E94C9AE56
:10505000CDBFDEBF80E001C081E02396CDBFDEBFC3
:10506000DF91CF911F910F91FF90EF900895CF9313
:10507000DF930097E9F0EC0182E39FE20E94CFAE5C
:1050800085EE9EE20E94CFAECE010E94014CCE0181
:105090000E94766086E49FE20E94CFAE8AE69FE29D
:1050A0000E94CFAE8AE090E00E94C9AE80E001C0CD
:1050B00081E0DF91CF910895BF92CF92DF92EF927E
:1050C000FF920F931F93CF93DF9300D01F92CDB722
:1050D000DEB7009709F411C16B017C018FE0B82E97
:1050E000FB01B08240E061E0C7010E94C72B40E0B5
:1050F00062E0C7010E94C72B40E064E0C7010E9444
:10510000C72B40E068E0C7010E94C72B40E060E188
:10511000C7010E94C72B40E060E2C7010E94C72B75
:1051200040E060E4C7010E94C72B40E060E8C7018F
:105130000E94C72B40E061E0C7010E94452A40E081
:1051400062E0C7010E94452A40E064E0C7010E9476
:10515000452A40E068E0C7010E94452A40E060E13E
:10516000C7010E94452A40E060E2C7010E94452A2B
:1051700040E060E4C7010E94452A40E060E8C701C2
:105180000E94452A85E0F601808341E061E0C70185
:105190000E94452A41E064E0C7010E94452A41E09F
:1051A00060E1C7010E94452A41E060E4C7010E9416
:1051B000452A8AE0F601808341E062E0C7010E944F
:1051C000452A41E068E0C7010E94452A41E060E2CB
:1051D000C7010E94452A41E060E8C7010E94452AB4
:1051E00081E0F60180838E010F5F1F4F9E012E5FCD
:1051F0003F4FAE014D5F5F4FBE016C5F7F4FC701F8
:105200000E94B92E89811F928F938A811F928F935A
:105210008B811F928F938C811F928F938FE89FE2D7
:105220009F938F930E94B5AE82E0F60180839E012A
:105230002E5F3F4FAE014D5F5F4FBE016C5F7F4FF2
:10524000C7010E94B92E89811F928F938A811F9274
:105250008F938B811F928F938C811F928F938DEBF5
:105260009FE29F938F930E94B5AE84E0F601808306
:105270009E012E5F3F4FAE014D5F5F4FBE016C5FE1
:105280007F4FC7010E94B92E89811F928F938A8117
:105290001F928F938B811F928F938C811F928F937C
:1052A0008BEE9FE29F938F930E94B5AE88E0F6014C
:1052B00080839E012E5F3F4FAE014D5F5F4FBE0169
:1052C0006C5F7F4FC7010E94B92E89811F928F9317
:1052D0008A811F928F938B811F928F938C811F9253
:1052E0008F9389E190E39F938F930E94B5AEF6016F
:1052F000B082CDBFDEBF80E001C081E02496CDBF8B
:10530000DEBFDF91CF911F910F91FF90EF90DF9063
:10531000CF90BF900895CF93DF93CDB7DEB7289796
:10532000CDBFDEBF89839A836B837C834D835E838D
:105330002F83388789819A81009711F481E014C006
:105340008D819E8180931C3890931D388F81988524
:1053500080931E3890931F3889819A812B813C81DC
:10536000FC012083318380E02896CDBFDEBFDF9132
:10537000CF910895CF93DF931F921F92CDB7DEB7E1
:1053800089839A8389819A81009711F481E078C09A
:1053900080911E3890911F38FC01108280911E3838
:1053A00090911F3822E0FC01218380911E3890915A
:1053B0001F38FC018281938121E0FC0120838091D0
:1053C0001E3890911F38FC01828193810196FC0167
:1053D000108280911E3890911F38FC018281938148
:1053E000029622E0FC01208380911E3890911F38A4
:1053F000FC01828193810396FC01108280911E380A
:1054000090911F38FC0182819381049623E0FC0176
:10541000208380911E3890911F38FC0182819381F6
:1054200005962FEFFC01208380911E3890911F3844
:1054300026E0FC01248380911C3890911D3820E1E6
:10544000FC01218380911C3890911D38FC0114824D
:1054500089819A81FC0180819181FC0120813181C7
:1054600040911C3850911D3860911E3870911F3842
:1054700089819A81FC0180819181F901199580E0EF
:105480000F900F90DF91CF910895CF93DF93CDB719
:10549000DEB72597CDBFDEBF8A839B836C834D83A8
:1054A0008A819B81009711F481E0AAC019828091C2
:1054B0001E3890911F38FC01108280911E38909107
:1054C0001F3821E0FC01218380911E3890911F3804
:1054D000FC018281938121E0FC01208380911E38B0
:1054E00090911F3821E0FC01248380911C38909119
:1054F0001D3820E1FC01218380911C3890911D38DA
:1055000021E0FC0124838A819B81FC0180819181BF
:10551000FC012081318140911C3850911D386091EF
:105520001E3870911F388A819B81FC018081918196
:10553000F901199580911C3890911D38FC018281E8
:105540009381FC01808189838D81882329F0998151
:105550008C81892B898306C08C81982F90958981B5
:105560008923898380911E3890911F38FC01108215
:1055700080911E3890911F3822E0FC012183809198
:105580001E3890911F38FC018281938121E0FC013B
:10559000208380911E3890911F38FC018281938175
:1055A00001962981FC01208380911E3890911F383B
:1055B00022E0FC01248380911C3890911D3820E169
:1055C000FC01218380911C3890911D38FC011482CC
:1055D0008A819B81FC0180819181FC012081318144
:1055E00040911C3850911D3860911E3870911F38C1
:1055F0008A819B81FC0180819181F901199580E06C
:105600002596CDBFDEBFDF91CF910895CF93DF9375
:10561000CDB7DEB72597CDBFDEBF8A839B836C8372
:105620004D838A819B81009711F481E0AAC0198281
:1056300080911E3890911F38FC01108280911E3895
:1056400090911F3821E0FC01218380911E389091B8
:105650001F38FC018281938122E0FC01208380912C
:105660001E3890911F3821E0FC01248380911C3862
:1056700090911D3820E1FC01218380911C3890918C
:105680001D3821E0FC0124838A819B81FC018081FB
:105690009181FC012081318140911C3850911D384D
:1056A00060911E3870911F388A819B81FC01808136
:1056B0009181F901199580911C3890911D38FC0158
:1056C00082819381FC01808189838D81882329F0E7
:1056D00099818C81892B898306C08C81982F909524
:1056E00089818923898380911E3890911F38FC011C
:1056F000108280911E3890911F3822E0FC01218396
:1057000080911E3890911F38FC018281938122E0A4
:10571000FC01208380911E3890911F38FC0182810A
:10572000938101962981FC01208380911E389091FC
:105730001F3822E0FC01248380911C3890911D3891
:1057400020E1FC01218380911C3890911D38FC01DF
:1057500014828A819B81FC0180819181FC012081DE
:10576000318140911C3850911D3860911E387091E4
:105770001F388A819B81FC0180819181F9011995F3
:1057800080E02596CDBFDEBFDF91CF910895CF9306
:10579000DF93CDB7DEB72597CDBFDEBF8A839B836E
:1057A0006C834D838A819B81009711F481E0AAC0AC
:1057B000198280911E3890911F38FC0110828091CF
:1057C0001E3890911F3821E0FC01218380911E3802
:1057D00090911F38FC018281938123E0FC0120839A
:1057E00080911E3890911F3821E0FC012483809124
:1057F0001C3890911D3820E1FC01218380911C38D8
:1058000090911D3821E0FC0124838A819B81FC0159
:1058100080819181FC012081318140911C3850911F
:105820001D3860911E3870911F388A819B81FC0160
:1058300080819181F901199580911C3890911D38D2
:10584000FC0182819381FC01808189838D81882381
:1058500029F099818C81892B898306C08C81982FAE
:10586000909589818923898380911E3890911F3872
:10587000FC01108280911E3890911F3822E0FC01BB
:10588000218380911E3890911F38FC018281938181
:1058900023E0FC01208380911E3890911F38FC0189
:1058A0008281938101962981FC01208380911E3899
:1058B00090911F3822E0FC01248380911C38909144
:1058C0001D3820E1FC01218380911C3890911D3806
:1058D000FC0114828A819B81FC0180819181FC0101
:1058E0002081318140911C3850911D3860911E38C3
:1058F00070911F388A819B81FC0180819181F9011F
:10590000199580E02596CDBFDEBFDF91CF91089538
:10591000CF93DF93CDB7DEB72597CDBFDEBF8983A9
:105920009A836B834C835D8389819A81009711F4FC
:1059300081E05AC080911E3890911F38FC0110827E
:1059400080911E3890911F3821E0FC0121838091C5
:105950001E3890911F38FC0182819381FC011082D6
:1059600080911E3890911F3821E0FC0124838091A2
:105970001C3890911D3820E1FC01218380911C3856
:1059800090911D3821E0FC01248389819A81FC01DA
:1059900080819181FC012081318140911C3850919E
:1059A0001D3860911E3870911F3889819A81FC01E1
:1059B00080819181F901199580911C3890911D3851
:1059C000FC0182819381FC0190818B818923882352
:1059D00031F08C819D8121E0FC01208304C08C8109
:1059E0009D81FC01108280E02596CDBFDEBFDF9156
:1059F000CF910895CF93DF93CDB7DEB72597CDBF75
:105A0000DEBF89839A836B834C835D8389819A810E
:105A1000009711F481E05BC080911E3890911F388F
:105A2000FC01108280911E3890911F3821E0FC010A
:105A3000218380911E3890911F38FC0182819381CF
:105A400021E0FC01208380911E3890911F3821E0D5
:105A5000FC01248380911C3890911D3820E1FC01C9
:105A6000218380911C3890911D3821E0FC01248312
:105A700089819A81FC0180819181FC0120813181A1
:105A800040911C3850911D3860911E3870911F381C
:105A900089819A81FC0180819181F9011995809118
:105AA0001C3890911D38FC0182819381FC0190810A
:105AB0008B818923882331F08C819D8121E0FC0139
:105AC000208304C08C819D81FC01108280E025969A
:105AD000CDBFDEBFDF91CF910895CF93DF93CDB7D8
