:100000000C941D170C943E170C943E170C943E173D
:100010000C943E170C943E170C943E170C943E170C
:100020000C943E170C943E170C943E170C943E17FC
:100030000C943E170C943E170C943E170C943E17EC
:100040000C943E170C943E170C943E170C943E17DC
:100050000C943E170C943E170C943E170C943E17CC
:100060000C943E170C9477170C943E170C944D1774
:100070000C943E170C943E170C943E170C943E17AC
:100080000C943E170C943E170C943E170C943E179C
:100090000C943E170C943E170C943E170C943E178C
:1000A0000C943E170C943E170C943E170C943E177C
:1000B0000C943E170C943E170C943E170C943E176C
:1000C0000C943E170C943E170C943E170C943E175C
:1000D0000C943E170C943E170C943E170C943E174C
:1000E0000C943E170C943E170C943E170C943E173C
:1000F0000C943E170C943E170C943E170C943E172C
:100100000C943E170C943E170C943E170C943E171B
:100110000C943E170C943E170C943E170C943E170B
:100120000C943E170C943E170C943E170C943E17FB
:100130000C943E170C943E170C943E170C943E17EB
:100140000C943E170C943E170C943E170C943E17DB
:100150000C943E170C943E170C943E170C943E17CB
:100160000C943E170C943E170C943E170C943E17BB
:100170000C943E170C943E170C943E170C943E17AB
:100180000C943E170C943E170C943E170C943E179B
:100190000C943E170C943E170C943E170C943E178B
:1001A0000C943E170C943E170C943E170C943E177B
:1001B0000C943E170C943E170C943E170C943E176B
:1001C0000C943E170C943E170C943E170C943E175B
:1001D0000C943E170C943E170C943E170C943E174B
:1001E0000C943E170C943E17424C3F4CF74AFA4A87
:1001F000FD4A004B034B064B094B0C4B0F4B124B6C
:10020000154B184B1B4B1E4B214B244B274B2A4B9A
:100210002D4B304B334B364B394B3C4B3F4B424BCA
:10022000454B484B4B4B4E4B514B544B574B5A4BFA
:100230005D4B604B634B664B694B6C4B6F4B724B2A
:10024000754B784B7B4B7E4B814B844B874B8A4B5A
:100250008D4B904B934B964B994B9C4B9F4BA24B8A
:10026000A54BA84BAB4BAE4BB14BB44BB74BBA4BBA
:10027000BD4BC04BC34BC64BC94BCC4BCF4BD24BEA
:10028000D54BD84BDB4BDE4BE14BE44BE74BEA4B1A
:10029000ED4BF04BF34BF64BF94BFC4BFF4B024C49
:1002A000054C084C0B4C0E4C114C144C174C1A4C72
:1002B0001D4C204C234C264C294C2C4C2F4C324CA2
:1002C000354C384C0C94F83C0C942D4B0C948A4BC8
:1002D0000C94B1310C94BE300C9402320C94514BFE
:1002E0000C94364B0C9400330C94A3300C94724B4A
:1002F0000C9414390C94F74A0C94B44B0C94DB4BCB
:100300000C94D54B0C943C3A0C94234C0C94174C05
:100310000C9456330C94443B0C947E4B0C94D84B69
:100320000C94484B0C94874B0C94FD4A0C945B380E
:100330000C94904B0C94024C0C940E3D0C94154B69
:100340000C94214B0C94334B0C942F4C0C947E3812
:100350000C946C360C942A310C94814B0C94CC4B3D
:100360000C946C4B0C94354C0C94E7310C94964BDC
:100370000C94EE390C944D390C94BA4B0C94CC2F50
:100380000C94424B0C949F4B0C94384C0C9440179B
:100390000C94A0390C94F4300C94694B0C94CC312F
:1003A0000C94C64B0C94C04B0C94394B0C94244BBE
:1003B0000C944E4B0C9463380C94084C0C943F4BAB
:1003C0000C94BD4B0C94623D0C94B2320C940B4CCB
:1003D0000C94CF4B0C94E9380C941B4B0C940F4BA2
:1003E0000C9437320C947B4B0C945A4B0C941A4C53
:1003F0000C94EA4B0C94264C0C94064B0C94304B0A
:100400000C9460310C944B4B0C942A4B0C949E3DF5
:100410000C94D24B0C941A3D0C94A54B0C94094BA4
:100420000C94F04B0C94FA4A0C94784B0C943A3E92
:100430000C942E360C94F9380C9499390C94423A59
:100440000C9465390C94AE4B0C94844B0C94114C69
:100450000C9464320C94E14B0C9436380C94ED4BB4
:100460000C94FC4B0C948F3A0C940F310C94B74BBA
:100470000C94124B0C94B14B0C949C4B0C94994BD8
:100480000C941F380C940C4B0C94D9300C948D4B5D
:100490000C94324C0C94F64B0C9488300C942C3009
:1004A0000C94AB4B0C940F3E0C94363B0C94523B8B
:1004B0000C94AC1A0C9451350C943F4C0C94973A14
:1004C0000C943A380C943C4B0C94754B0C942C4C7B
:1004D0000C945D4B0C94A84B0C94A24B0C94FF4BCA
:1004E0000C9445310C94274B0C94C34B0C949631CF
:1004F0000C94004B0C946F4B0C94204C0C94184BA8
:100500000C94144C0C940E4C0C94424C0C94DE4BFA
:100510000C94294C0C9425380C94E44B0C94163D07
:100520000C94604B0C94634B0C94664B0C941D4CD8
:100530000C94DA380C94E74B0C94C94B0C947B3137
:100540000C94934B0C94CE2F0C943D350C94034B90
:100550000C94E23A0C94454B0C9438380C941E4B96
:100560000C94054C0C94933A0C94F34B0C94544B10
:100570000C94574B0C948B3A0C94E63D0C94F94B2D
:100580000C940A356364696E6F70737578585B00FC
:100590000A504C4C205354415455530A004C4D586A
:1005A00020504C4C3A20556E6C6F636B65642C2068
:1005B0005674756E65204C6F77200A004C4D58209C
:1005C000504C4C3A20496E76616C696420737461BA
:1005D00074650A004C4D5820504C4C3A204C6F63C7
:1005E0006B6564200A004C4D5820504C4C3A205505
:1005F0006E6C6F636B65642C205674756E65204855
:10060000696768200A004552524F523A204C4D58B3
:100610002047656E65726963204572726F720A00C9
:100620004552524F523A2057726974696E6720746E
:100630006F20696E76616C696420616464726573B1
:10064000733A20001D03ED01DCFDCCF5BCE5ACC523
:10065000A86EBCE5ACC59C85960392C1912190968D
:100660006572726F723A20756E7265636F676E693C
:100670007A656420636F6D6D616E64206F7074695C
:100680006F6E0A00596F7520686176652062656536
:100690006E206772616E74656420726F6F74207073
:1006A00065726D697373696F6E73210A00546869AE
:1006B00073206973206E6F7420616E206F70657295
:1006C0006174696E672073797374656D210A0043E4
:1006D0006F6D6D616E64733A0A0055736167653AB8
:1006E000205B636D645D205B2D7C2D2D5D5B6172F5
:1006F00067315D205B2D7C2D2D5D5B617267325D06
:100700002E2E2E0A005475726E206F6666206F754D
:1007100074707574732028706572206368616E6EE2
:10072000656C292E00536574207072657363616C6B
:10073000617220666F722063616C6C6962726174B1
:10074000696F6E2E005365742063616C6C69627210
:100750006174696F6E204E20646976696465722EDB
:10076000004368616E676520696E7465726E616CC6
:10077000207265666572656E636520444143206F33
:10078000757470757420766F6C7461676500414490
:10079000524636353138204C6F772042616E640006
:1007A00041445246363531382048696768206261D5
:1007B0006E6400536574207468652052465341206E
:1007C000617474656E74756174696F6E2E2030206B
:1007D000746F203238202830644220746F202D320C
:1007E000386442292E004269742062616E67206F6E
:1007F0007065726174696F6E2E20313A207772696C
:10080000746520303A207265616400426974206228
:10081000616E672064617461206F66204441432EDD
:10082000004269742062616E67206164647265735E
:1008300073206F66204441432E00457865637574CC
:1008400065207468652073657264657320746573D0
:10085000742E2028302D3529207465737420706122
:10086000747465726E2E0053657420746865206917
:100870006E746572706F6C6174696F6E2031782868
:1008800030292C2032782831292C2034782832291C
:100890002C203878283429206F7220313678283877
:1008A000292E00456E61626C652074686520504198
:1008B0002028706F77657220616D706C696669655C
:1008C00072292070726F74656374696F6E2063693A
:1008D00072637569742E203120746F20656E6162B9
:1008E0006C652E005365742074686520636D642008
:1008F000696E7075742066726F6D204A4553442886
:100900003029206F72205350492831292E00536519
:10091000742074686520284629206672616D6573AD
:1009200020706572206D756C74692D6672616D65DD
:100930002E005365742074686520284D2920636F4C
:100940006E7665727465727320706572206C696E64
:100950006B2E005365742074686520284C29206C28
:10096000616E657320706572206C696E6B2E00532A
:100970006574207468652066726571206F75747087
:100980007574206F662065787465726E616C2044A2
:10099000414320636C6B20616674657220696E74DC
:1009A00065726E616C20434C4B206369726375699C
:1009B0007420284D487A292E001D03ED01DCFDCC62
:1009C000F5BCE5ACC5A86EBCE5ACC59C85960392AC
:1009D000C1912190965072696E7473206F75742066
:1009E0007468652068656C70206D656E7520666F33
:1009F000722074686520626F6172642E00457869A8
:100A000074732066726F6D207468697320626F6101
:100A10007264206261636B20746F20746865204487
:100A200049474954414C20626F6172642E00426F05
:100A30006F746C6F61646572206F7074696F6E7330
:100A40002E004F4E2F4F46462073776974636865BA
:100A5000732C202830206973204F46462C203120EB
:100A60006973204F4E2900436F6D6D616E64732072
:100A7000666F7220616363657373696E6720746863
:100A80006520686561727462656174207374617455
:100A9000757300436F6E74726F6C73207468652099
:100AA000626F617264206C6576656C2066756E633A
:100AB00074696F6E732E2053657175656E7469610C
:100AC0006C2065786563206F6620617267756D655F
:100AD0006E74732E005265616420616E64207772BB
:100AE00069746520636F6D6D616E647320666F72EB
:100AF00020646562756767696E672E00436F6D6D70
:100B0000616E647320666F722073657474696E67BA
:100B100020484D433938382067726F7570206465FE
:100B20006C6179732E00436F6D6D616E6473206626
:100B30006F722073657474696E67204A4553442F41
:100B4000504C4C204E2F5220646976696465727354
:100B500000436F6D6D616E647320666F7220736504
:100B60007474696E6720746865204C4D4B3034385E
:100B700032382064656C617920636C6F636B732E0F
:100B800000436F6D6D616E647320666F72207365D4
:100B90007474696E6720746865204C4D4B3034382E
:100BA00032382064656C617920636C6F636B732EDF
:100BB00000436F6D6D616E647320666F72206D61AE
:100BC0006E6167696E672074686520434C4B2067CF
:100BD000656E65726174696F6E207468726F756797
:100BE00068204C4D4B30343832382C204144353657
:100BF0003234522C20484D433938372E00436F6D24
:100C00006D616E647320666F72206D616E616769DD
:100C10006E672074686520434C4B2067656E657273
:100C20006174696F6E207468726F756768204C4DCF
:100C30004B30343832382C20414435363234522C43
:100C400020484D433938372E005072696E74732036
:100C50006F7574207468652068656C70206D656EB2
:100C60007520666F722074686520626F6172642EF1
:100C70000045786974732066726F6D2074686973BB
:100C800020626F617264206261636B20746F2074F4
:100C90006865204449474954414C20626F61726441
:100CA0002E00426F6F746C6F61646572206F707498
:100CB000696F6E732E004F4E2F4F46462073776933
:100CC00074636865732C202830206973204F464672
:100CD0002C2031206973204F4E29005374617475A4
:100CE0007320616E642066756E6374696F6E732025
:100CF0007573656420666F7220636865636B696EE7
:100D0000672074686520626F6172642E2000436FF3
:100D10006E74726F6C732074686520626F617264A8
:100D2000206C6576656C2066756E6374696F6E7392
:100D30002E2053657175656E7469616C20657865E8
:100D400063206F6620617267756D656E74732E0027
:100D50004578656375746573207465737420766572
:100D600063746F72732E00526567697374657220C5
:100D700064756D707320666F722072657370656341
:100D800074697665207065726970686572616C73EC
:100D90002E00436F6E74726F6C73207468652066EA
:100DA000726F6E74656E6420524620737769746347
:100DB0006865732E00436F6D6D616E647320666F9E
:100DC00072207468652041445246363531382076A9
:100DD00061726961626C65206761696E20616D7026
:100DE0006C69666965722E005072696E7473206F4B
:100DF0007574207468652068656C70206D656E750B
:100E000020666F722074686520626F6172642E00C4
:100E100045786974732066726F6D207468697320F9
:100E2000626F617264206261636B20746F2074680A
:100E300065204449474954414C20626F6172642ED9
:100E400000426F6F746C6F61646572206F707469BB
:100E50006F6E732E004F4E2F4F4646207377697486
:100E6000636865732C202830206973204F46462C18
:100E70002031206973204F4E2900436F6E74726FCA
:100E80006C732074686520626F617264206C657693
:100E9000656C2066756E6374696F6E732E20536582
:100EA0007175656E7469616C2065786563206F6625
:100EB00020617267756D656E74732E0050726F7667
:100EC0006964657320746865207374617475732038
:100ED0006F662074686520626F6172642E005265CF
:100EE0006769737465722064756D707320666F72C4
:100EF00020726573706563746976652070657269C8
:100F000070686572616C732E00436F6E74726F6CE3
:100F100073207468652066726F6E74656E6420520B
:100F2000462073776974636865732E00436F6D6D37
:100F3000616E647320666F7220746865204441435B
:100F400033384A38342E0052756E732073706563DF
:100F50006966696564207465737420766563746F6F
:100F600072206F66207468652041445246363531E0
:100F7000380052756E7320737065636966696564C5
:100F8000207465737420766563746F72206F6620B9
:100F90007468652041444331364458333730005239
:100FA000756E732073706563696669656420746526
:100FB000737420766563746F72206F662074686541
:100FC00020504341393533382E00436C656172201F
:100FD000746865207370656369666965642047504D
:100FE000494F582070696E206C6F772E00536574DE
:100FF000207468652073706563696669656420475D
:1010000050494F582070696E20686967682E000546
:1010100021ED0FCA0F9F0F720F470F5072696E7448
:1010200073206F757420696E20766572626F7365C8
:10103000206D6F64652E203120746F20656E6162B3
:101040006C652E004E6F20617267756D656E742041
:101050006E65636573736172792E00456E74657297
:101060002074686520626F6F746C6F616465722EA6
:1010700000484D43393837004C4D4B30343032380E
:101080000052657475726E73204D43552064657609
:1010900069636520696E666F726D6174696F6E2E2B
:1010A00000476574732C20616E64207468656E203F
:1010B0007265736574732C20504C4C204C6F7373A5
:1010C000206F66204C6F636B205374617475732EB0
:1010D000004765747320504C4C204C6F636B204468
:1010E0006574656374205374617475730048656139
:1010F00072746265617420696E697469616C697A81
:101100006174696F6E2066756E6374696F6E2074AA
:101110006F2073657420636F756E74657220746FD1
:101120002030004865617274626561742066756E76
:101130006374696F6E20746F2072657365742074B8
:1011400068652068656172746265617420636F759B
:101150006E746572004865617274626561742066C0
:10116000756E6374696F6E20746F20616E642066A3
:10117000726F6D20746865207365727665720053B6
:10118000656C6563747320474C45206D6F64653AE8
:10119000204D43555F474C45283129206F7220531D
:1011A000594E54485F465047415F474C45202832CE
:1011B000290050726F7669646573207468652061D8
:1011C0006D6F756E74206F662052414D206C6566A0
:1011D0007420286279746573292E0050726F7669C5
:1011E000646573207468652074656D7065726174E0
:1011F0007572652028302D31292E00426C696E6B86
:101200007320746865204C454420612073706563C9
:101210006966696564206E756D626572206F66200F
:1012200074696D65732E005072696E7473206F75EA
:10123000742074686520736F6674776172652061CD
:101240006E6420686172647761726520766572737E
:10125000696F6E2E005475726E73206576657279B3
:101260007468696E67206F66662E005475726E2012
:101270006F6666207065726970686572616C732E46
:1012800000506F776572206379636C6520706572BA
:101290006970686572616C7320616E642072756E2E
:1012A0007320626F61726420696E697420287065B2
:1012B00072206368616E6E656C292E0052756E73C4
:1012C00020646961676E6F73746963206F6E20704C
:1012D00065726970686572616C2028706572206340
:1012E00068616E6E656C292E2053686F756C642082
:1012F0007072696E7420616C6C20726567697374BA
:101300006572732E005475726E206F6E206F757447
:10131000707574732028706572206368616E6E65E5
:101320006C292E005265777269746520616C6C209F
:101330007265677320666F7220656E7469726520CE
:10134000626F6172642E005265616420616E642078
:10135000777269746520636F6D6D616E647320666A
:101360006F7220646562756767696E672E004765F6
:10137000742F73657420484D43205278204275665F
:101380006665722062696173202830206973206469
:10139000656661756C742C203120666F72207369EC
:1013A0006E75736F6469616C202F206E6F6E2D4CAB
:1013B000565045434C20414320636F75706C696EF5
:1013C000672E29004765742F73657420484D4320AC
:1013D0007265666572656E636520696E70757420EE
:1013E0006469766964657273202876616C6964202B
:1013F000646976696465727320617265203D20328C
:101400005E6E2C206E3D312E2E3529004765742FDF
:101410007365742064656C6179206C696E652073F6
:101420006574706F696E742E004765742F736574F0
:1014300020746865206F7574707574206C61756EAA
:1014400063682070686173652E0053657420656958
:10145000746865722053594E43206F7220534C4973
:1014600050207573696E672053504920636F6D6D0E
:10147000756E69636174696F6E2E004765742F73B2
:101480006574207468652053594E432064656C610F
:101490007920646976696465722E0053656C6563B2
:1014A0007473206265747765656E20746865207456
:1014B000776F20484D433938382064657669636515
:1014C0007320287265666572656E636520616E645F
:1014D000206C6D6B292E0053657420636C6F636BF9
:1014E00020646976696465722E00536574204E200D
:1014F0006469766964657220666F7220504C4C2E68
:1015000000536574205220646976696465722066B0
:101510006F7220504C4C2E0053656C6563742064D0
:1015200069766964657220746F207365742E005348
:101530006574206469676974616C2064656C6179A5
:1015400020636C6F636B2E0053656C65637420645D
:10155000657669636520636C6F636B2E0053656C01
:10156000656374204A455344206F7220504C4C2EC2
:101570000052652D73796368726F6E697A65206FAA
:101580007574707574206469766964657273206619
:10159000726F6D20626F7468204C4D4B7300536501
:1015A00074207468652044414320636F6E74726FC9
:1015B0006C6C696E6720584F20567265662C20301F
:1015C0002D34303936206672616374696F6E20562F
:1015D00065787400497373756520535953524546B5
:1015E0002070756C7365732066726F6D204A455369
:1015F000442E00456E61626C65206578742D313033
:101600004D487A207265666572656E636520283183
:10161000292E005072696E7473206F757420696E84
:1016200020766572626F7365206D6F64652E203160
:1016300020746F20656E61626C652E00456E746566
:10164000722074686520626F6F746C6F616465727C
:101650002E004E6F20617267756D656E74206E6529
:10166000636573736172792E004144433136445887
:1016700033373000414452463635313800484D4307
:101680003833784C5036470052657475726E73204B
:101690004D43552064657669636520696E666F7297
:1016A0006D6174696F6E2E00504C4C204C6F636BF3
:1016B00020446574656374696F6E204D656368616D
:1016C0006E69736D2E004865617274626561742085
:1016D000696E7469616C697A6174696F6E20667590
:1016E0006E6374696F6E20746F2073657420636F0E
:1016F000756E74657220746F203000436F6D6D617C
:101700006E6420666F7220726573657474696E67AB
:101710002074686520686561727462656174207602
:10172000616C756520666F72207468652052582060
:10173000626F61726400436F6D6D616E6420666FED
:1017400072207072696E74696E67207468652063B8
:10175000757272656E742068656172746265617419
:101760002076616C7565206F66207468652052581C
:1017700020626F6172640053656C65637473204707
:101780004C45206D6F64653A204D43555F474C458D
:10179000283129206F7220465047415F474C452031
:1017A00028322900426C696E6B7320746865204C86
:1017B0004544206120737065636966696564206EC5
:1017C000756D626572206F662074696D65732E0099
:1017D00050726F7669646573207468652074656DF6
:1017E00070657261747572652028302D31292E0064
:1017F0004F75747075747320612031362D62697471
:1018000020726570656174696E67207365717565B6
:101810006E6365205B302C2032363238302C20301D
:101820002C202D32363332385D2066726F6D207475
:1018300068652041444320636F72652E00456E61E8
:10184000626C696E6720746865205359535245462F
:1018500020646574656374696F6E20676174652EBA
:10186000203120746F20656E61626C652C20302001
:10187000746F2064697361626C650054686520410F
:1018800044432077696C6C206F7574707574204ABE
:101890004553442054657374205061747465726EAE
:1018A000732E20303A206F66662C20313A20443265
:1018B000312E352C20323A204B32382E352C203325
:1018C0003A2072707420494C412C20343A207261C5
:1018D0006D702C20353A20484947482E00546865E1
:1018E000204144432077696C6C20656E61626C65B1
:1018F00020746865205359535245462064657465C9
:101900006374696F6E206761746520666F72204A28
:1019100045534420696E697469616C697A617469C0
:101920006F6E2E0050726F766964657320746865FF
:1019300020616D6F756E74206F662052414D206C72
:1019400065667420286279746573292E0050726967
:101950006E7473206F75742074686520736F66747D
:101960007761726520616E6420686172647761726C
:10197000652076657273696F6E2E005475726E7392
:101980002065766572797468696E67206F66662E69
:10199000005475726E206F6666207065726970689B
:1019A0006572616C732E00506F7765722063796386
:1019B0006C65207065726970686572616C73206116
:1019C0006E642072756E7320626F61726420696E3E
:1019D00069742028706572206368616E6E656C2979
:1019E0002E005475726E206F6666206F7574707568
:1019F00074732028706572206368616E6E656C294F
:101A00002E0052756E7320646961676E6F7374691E
:101A100063206F6E207065726970686572616C20FA
:101A200028706572206368616E6E656C292E205384
:101A3000686F756C64207072696E7420616C6C20C4
:101A40007265676973746572732E005475726E20C7
:101A50006F6E206F757470757473202870657220B6
:101A60006368616E6E656C292E00526577726974C9
:101A70006520616C6C207265677320666F722065EB
:101A80006E7469726520626F6172642E0044756DB8
:101A9000707320616C6C207468652072656769736F
:101AA0007465727320666F722074686520414452B9
:101AB00046363531380044756D7073207468652082
:101AC00072656769737465727320666F72207468DB
:101AD0006520726567756C617220616E6420524684
:101AE000204750494F580044756D707320616C6CED
:101AF0002074686520726567697374657273206607
:101B00006F7220746865204144433136445833373E
:101B1000302E00414446343335352F414446353369
:101B20003535206175746F63616C20656E61626C20
:101B30006520283120666F7220656E61626C6529B0
:101B40003E3E00414446343335352F41444635331B
:101B50003535204469726563742052656769737412
:101B6000657220416363657373203C3C323862695F
:101B70007420646174613E3C346269742061646401
:101B8000726573733E3E0053656C656374732044E5
:101B9000534120417474656E756174696F6E2C20B9
:101BA00028303A203064426D202D3E203132373AC1
:101BB0002033312E373564426D290053656C6563DF
:101BC0007420504C4C204F757470757420506F7792
:101BD00065722028303A202D3464426D2C20313A31
:101BE000202D3164426D2C20323A203264426D2C1B
:101BF00020333A203564426D29004D757465732099
:101C0000746865204C4F204672657175656E637906
:101C10002053796E74686573697A65722077686598
:101C20006E20757365640053656C6563747320740E
:101C3000686520636F72726563742046696C7465B1
:101C4000722042616E6B20666F7220612067697638
:101C5000656E206672657175656E637920696E20A8
:101C60006B487A00456E61626C652F4469736162EE
:101C70006C652056434F204F757470757420467202
:101C8000657175656E637920446F75626C6572006D
:101C900053657420504C4C2056434F204F75747040
:101CA000757420446976696465722076616C756527
:101CB0002E20312C20322C20342C2036202E2E2089
:101CC00036320053657420504C4C20466565646282
:101CD00061636B20446976696465722076616C7516
:101CE000652E20313620746F203532343235350080
:101CF00053657420504C4C20496E707574204469B3
:101D000076696465722076616C75652E2031207469
:101D10006F2031363338330053656C65637420743B
:101D200068652074617267657420504C4C202830BF
:101D30002920484D433833302028312920484D434D
:101D400038333300536574732042617365204261F8
:101D50006E64205661726163746F7220766F6C746A
:101D60006167652028302D343039362920305620DF
:101D70002D20322E355600504C4C20496E70757413
:101D8000205265666572656E636520467265717581
:101D9000656E63790053776565707320484D4338ED
:101DA0003333206672657175656E63792066726F74
:101DB0006D20302E3247487A20746F203647487A9B
:101DC000207769746820612073746570206F6620C5
:101DD00031304D487A005365747320667265712006
:101DE0006F6620484D43383333206F7574707574B7
:101DF0002C20696E204B487A2E00427970617373F3
:101E000020746865204C4E41206F6E2074686520F8
:101E1000686967682062616E642E20427970617320
:101E20007328312920746865204C4E41206F722040
:101E30006E6F742830292E0043686F6F73652074AD
:101E4000686520686967682028302E352D36204760
:101E5000487A29206F72206C6F7720284443202D08
:101E600020302E352047487A292062616E642E206A
:101E700048696768283129206F72206C6F77283095
:101E8000292E0053657420564741277320707772BE
:101E90002D6D6F6465206261736564206F6E204CE8
:101EA0005020636F726E657220667265712E2031EC
:101EB0002069662066696C746572206D6F646520A8
:101EC000616E642033314D487A203C2042572C20EB
:101ED000656C7365203630204D487A203C2042578F
:101EE0000053657420564741277320696E707574DE
:101EF00020616E616C6F6720617474656E756174CA
:101F0000696F6E20696E2064422E20476F657320D2
:101F10007468726F75676820414435363234522ECA
:101F20000053657420564741277320706F737420E7
:101F3000616D70206761696E2E20302D313A20333B
:101F40002F3964422E005365742056474127732071
:101F5000616E616C6F67206761696E2E20302E3173
:101F6000644220636F6E74726F6C6C65642C2049E0
:101F70006E7075743A2030202D2037323020282D95
:101F80003130326442202D202D33306442290053F9
:101F90006574205647412773206469676974616CD2
:101FA000206761696E2E2033644220696E6372651A
:101FB0006D656E74732C20496E7075743A203020F4
:101FC0002D2038202834326442202D2036366442B9
:101FD0002900436865636B20696620564741206786
:101FE00061696E20697320746F6F2048696768208B
:101FF000666F7220746865204144432E2028303A71
:10200000204E6F2C20313A20596573290053656C9E
:1020100065637420564741204368616E6E656C208D
:1020200028303A20426F74682C20493A20312C2005
:10203000513A2032290047657420564741277320C2
:102040006761696E2E0053657420564741277320DF
:102050006761696E2E202843616C6C732064676130
:10206000696E20616E6420616761696E292E204966
:102070006E7075743A2030202D20393520282D3689
:10208000306442202D20333564422900536574208A
:102090005647412773204C5020636F726E65722043
:1020A0006672657120696E204D487A2E0042797003
:1020B00061737320746865205647412773204C5024
:1020C0002066696C7465722E203120746F20656EF5
:1020D00061626C652E004E756C6C207468652056CC
:1020E00047412773206F7574707574204443206FC7
:1020F0006666736574732E203120746F20656E617F
:10210000626C652E00537065636966792077686933
:102110006368206368616E6E656C20612C622C635D
:102120002C64204F5220626974206D61736B2E20E5
:102130004D555354207370656369667920666972E2
:1021400073742E005072696E7473206F75742069F9
:102150006E20766572626F7365206D6F64652E20E8
:102160003120746F20656E61626C652E004E6F20A9
:10217000617267756D656E74206E656365737361FA
:1021800072792E00456E7465722074686520626FE6
:102190006F746C6F616465722E00484D43383378FC
:1021A0004C5036470044414333384A383400536575
:1021B0006C65637420474C45206D6F64653A204D13
:1021C00043555F474C4528312920465047415F47DA
:1021D0004C4528322900456E61626C6573204A4582
:1021E0005344205359535245462047617465004F6C
:1021F000757470757420656E61626C652831292074
:102200006F722064697361626C652830292E0050FA
:10221000726F76696465732074686520616D6F758F
:102220006E74206F662052414D206C6566742028C4
:102230006279746573292E0050726F7669646573D4
:10224000207468652074656D70657261747572655F
:102250002028302D31292E00426C696E6B7320745A
:102260006865204C45442061207370656369666928
:102270006564206E756D626572206F662074696D8D
:1022800065732E005072696E7473206F75742074BC
:10229000686520736F66747761726520616E642073
:1022A00068617264776172652076657273696F6EBA
:1022B0002E005475726E7320657665727974686944
:1022C0006E67206F66662E005475726E206F6666AC
:1022D000207065726970686572616C732E00506F52
:1022E000776572206379636C6520706572697068C8
:1022F0006572616C7320616E642072756E7320620A
:102300006F61726420696E69742028706572206341
:1023100068616E6E656C292E005475726E206F6652
:1023200066206F75747075747320287065722063F1
:1023300068616E6E656C292E0052756E732064693B
:1023400061676E6F73746963206F6E207065726968
:1023500070686572616C2028706572206368616EB8
:102360006E656C292E2053686F756C6420707269DD
:102370006E7420616C6C207265676973746572732A
:102380002E005475726E206F6E206F7574707574A8
:10239000732028706572206368616E6E656C292EEB
:1023A000005265777269746520616C6C2072656794
:1023B0007320666F7220656E7469726520626F614A
:1023C00072642E0052657475726E73204D435520F1
:1023D00064657669636520696E666F726D617469A4
:1023E0006F6E2E004C6F636B204465746563746977
:1023F0006F6E204D656368616E69736D004865613D
:1024000072746265617420696E697469616C697A5D
:102410006174696F6E2066756E6374696F6E207487
:102420006F2073657420636F756E74657220746FAE
:10243000203000436F6D6D616E6420666F72207294
:102440006573657474696E6720746865206375725E
:1024500072656E742068656172746265617420765D
:10246000616C7565206F6620545820626F617264DC
:1024700000436F6D6D616E6420666F7220746865D5
:102480002063757272656E7420686561727462652E
:1024900061742076616C7565206F662074686520B4
:1024A000545820626F6172640044756D70732074BB
:1024B00068652072656769737465727320666F72F0
:1024C000207468652044414333384A3834004475E9
:1024D0006D707320746865207265676973746572C6
:1024E0007320666F722074686520726567756C6111
:1024F0007220616E64205246204750494F58004177
:102500004446343335352F41444635333535206123
:1025100075746F63616C20656E61626C6520283133
:1025200020666F7220656E61626C65293E3E0041D7
:102530004446343335352F41444635333535204410
:1025400069726563742052656769737465722041AE
:102550006363657373203C3C323862697420646144
:1025600074613E3C346269742061646472657373A3
:102570003E3E00524620417474656E7561746F7200
:102580002053657474696E672028303A20306442A5
:10259000202D3E203132373A202D33312E3735640D
:1025A000422900504C4C204F757470757420506F48
:1025B0007765722028303A202D3464426D2C20310A
:1025C0003A202D3164426D2C20323A202B32644265
:1025D0006D2C20333A202B3564426D290053656CF5
:1025E000656374732074686520636F7272656374C9
:1025F0002046696C7465722042616E6B20666F7252
:10260000206120676976656E206672657175656EFA
:10261000637920696E206B487A004D75746573206C
:10262000746865204C4F204672657175656E6379DC
:102630002053796E74686573697A6572207768656E
:102640006E207573656400456E61626C652F446928
:102650007361626C652056434F204F7574707574BA
:10266000204672657175656E637920446F75626C82
:1026700065720053657420504C4C2056434F204FD8
:10268000757470757420446976696465722076612A
:102690006C75652E20312C20322C20342C203620D5
:1026A0002E2E2036320053657420504C4C20466547
:1026B00065646261636B2044697669646572207643
:1026C000616C75652E20313620746F2035323432BE
:1026D00035350053657420504C4C20496E7075742C
:1026E00020446976696465722076616C75652E2078
:1026F0003120746F2031363338330053656C656395
:1027000074207468652074617267657420504C4C45
:102710002028302920484D433833302028312920C3
:10272000484D43383333004E6565647320746F2021
:1027300062652063616C6C6564206C6173742E202B
:102740005365747320746865204951204D6F64751A
:102750006C61746F722E202869652E202D692031DE
:1027600037202D71203133202D6D290053657420C1
:10277000746865204951204D6F64756C61746F7287
:102780002051206269617320766F6C7461676520E7
:1027900028696E2064562C2066726F6D20302D32B1
:1027A00034206456292E00536574207468652049CE
:1027B00051204D6F64756C61746F7220492062699D
:1027C000617320766F6C746167652028696E206480
:1027D000562C2066726F6D20302D323420645629BD
:1027E0002E00504C4C205265666572656E63652004
:1027F000496E7075742028696E206B487A290053E1
:102800006574732066726571206F6620484D433889
:102810003333206F75747075742C20696E204B48AB
:102820007A2E0042797061737320746865204C4E73
:1028300041206F6E20746865206869676820626156
:102840006E642E2042797061737328312920746878
:1028500065204C4E41206F72206E6F742830292EF7
:102860000043686F6F7365207468652068696768E6
:102870002028302E352D362047487A29206F7220A7
:102880006C6F7720284443202D20302E3520474878
:102890007A292062616E642E204869676828312990
:1028A000206F72206C6F772830292E005265747566
:1028B000726E7320746865206F722764206C616E7D
:1028C00065206572726F7273206F66207468652070
:1028D00066697273742034206C616E657300536591
:1028E00074207468652073656C6563746564205436
:1028F00061702076616C756520666F722074686502
:1029000020536D616C6C204672616374696F6E61F7
:102910006C2044656C617900536D616C6C2046726B
:10292000616374696F6E616C2044656C61792054D9
:1029300061702073656C6563746F72004C617267BF
:1029400065204672616374696F6E616C2044656CCA
:1029500061792C20436F656666696369656E7420D2
:102960005365742073656C656374696F6E2E2028DF
:10297000496E20446174617368656574290053650C
:1029800074207468652044697468657220416D70B4
:102990006C69747564652C2030206973204D6178F2
:1029A000696D756D20283420626974732900456E45
:1029B00061626C652F44697361626C65204469745F
:1029C000686572204D6978657200456E61626C655C
:1029D0002F44697361626C6520446974686572692B
:1029E0006E6700456E61626C652F44697361626C4D
:1029F0006520496E76657273652053696E63204663
:102A0000696C74657200536D616C6C204672616311
:102A100074696F6E616C2044656C617920506174DB
:102A2000682053657474696E677300536D616C6CD4
:102A3000204672616374696F6E616C2044656C61DD
:102A4000792053657474696E6773004C61726765B1
:102A5000204672616374696F6E616C2044656C61BD
:102A6000792053657474696E677300514D4320700B
:102A700068617365206F66667365742C20313262FD
:102A80006974732C202D302E35202D20302E3439B2
:102A90003937352C20726566657220746F20646149
:102AA0007461736865657400514D43206761696E98
:102AB000206F66667365742C203131626974732CE3
:102AC00020646563696D616C20706E742040206CB9
:102AD000656674206F6620626974392C2072616E9D
:102AE00067652030202D20312E393939302C204C8B
:102AF00053423D302E3030303937363600514D4359
:102B0000204443206F66667365742C2031336269FC
:102B100074732C206D6561737572656420696E2015
:102B2000444143204C5342277300496E69746961E4
:102B30006C697A657320616E6420636F6E66696785
:102B40007572657320746865204A455344206C692A
:102B50006E6B2E0044756D70206F757420616C6C07
:102B6000206F66207468652072656769737465728A
:102B7000732E0047657473207468652074656D70EA
:102B800065726174757265206F6620746865204493
:102B900041432E00456E61626C6520746865206D4E
:102BA000697865722E203120746F20656E61626CC9
:102BB000652E0053657420746865204E434F206C69
:102BC0006F7765722033322D626974732072656786
:102BD00069737465722C20777269746520746F2034
:102BE00075707065722033322D6269747320666966
:102BF00072737421212A2A00536574207468652039
:102C00004E434F2075707065722033322D626974A7
:102C1000732072656769737465722E005370656303
:102C200069667920776869636820696E7465726E79
:102C3000616C20444143206368616E6E656C3A208C
:102C400028302D332920412D442E005370656369AF
:102C50006679207768696368206368616E6E656C69
:102C600020612C622C632C642C204F5220626974EA
:102C7000206D61736B2E204D555354207370656326
:102C80006966792066697273742E00FD0BB10B8141
:102C90000B510B260BFC0AD50A930A670A420A2E2F
:102CA0000AFD09D509B50D920D670D500D0E0DDB0E
:102CB0000CB60CA20C710C490C2C0F090FDE0EBCCB
:102CC0000E7A0E550E410E100EE80D1B1044105BCF
:102CD000107810711055112311ED10D110A1108131
:102CE0001024130513BC1281126B1255122712FB0C
:102CF00011DB11B2117F115D1547139B147B144A30
:102D00001429140C14C4136E135D1518150115EA5B
:102D100014D7145D1548152F155D1548152F15D4BA
:102D2000157115F315D4159E1513163C165216057C
:102D3000217D167416691605213617FB16C616A8CE
:102D400016881605216A1A4B1A021AE219A7199158
:102D5000197B194D192419DD187B183D18F017D06F
:102D600017A41777170521E71AB61A8D1A05213807
:102D70001EFA1DD61D951D771D441D181DF01CC380
:102D80001C901C641C271CFA1BBB1B871B431B13BA
:102D90001B0521D620AD208C20462036200D20D2C8
:102DA0001F8F1F461F211FE11E831E44216D21849A
:102DB000214B2CA5219A214B2CA1238223392319A5
:102DC00023DE22C822B2228422582238220F22EF88
:102DD00021D621AE214B2C71243324FD23E423C4BE
:102DE000234B2CCE24A9244B2C61282328FF27E237
:102DF00027A7276C272727FB26D326A62673264737
:102E0000261A26DD25A32573252F25FF244B2C1CF0
:102E10002CF82BB32B942B732B542B2A2BFD2AA885
:102E20002A6B2A4B2A2B2A062AE329CA29AE297E95
:102E3000293C291829DE28AC280011241FBECFEF19
:102E4000CDBFDFE5DEBF00E00CBF13E3A0E0B0E2E2
:102E5000EEEDF0EC00E00BBF02C007900D92AE3E2D
:102E6000B107D9F71CE3AEEEB3E301C01D92AA345B
:102E7000B107E1F70E94B1550C946D600C9400000D
:102E8000682F8CEB90E20E944C4280E008956150E4
:102E9000710981099109D9F708951F920F920FB610
:102EA0000F9211240BB60F922F933F934F935F9382
:102EB0006F937F938F939F93AF93BF93EF93FF9302
:102EC0008CEB90E20E945C42FF91EF91BF91AF9139
:102ED0009F918F917F916F915F914F913F912F9132
:102EE0000F900BBE0F900FBE0F901F9018951F9262
:102EF0000F920FB60F9211240BB60F922F933F93A0
:102F00004F935F936F937F938F939F93AF93BF93F1
:102F1000EF93FF9320E040E050E060E070E08CEB46
:102F200090E20E948642FF91EF91BF91AF919F91F5
:102F30008F917F916F915F914F913F912F910F9062
:102F40000BBE0F900FBE0F901F90189560E078E4B5
:102F500088EE91E008950C94A6170C94AB170C948E
:102F6000AD17FC018281881F8827881F0895FC0106
:102F7000838108956150710981099109D9F70895F4
:102F800060E078E488EE91E008950C94C0170C940A
:102F9000C5170C94C7170C94C917FC018281881FB0
:102FA0008827881F08950C94CD17FC01838108950C
:102FB000CF93DF93EB010E94D5178883DF91CF91E8
:102FC0000895FC0163830895FC01908190649083CF
:102FD0000895E82FE695E695E69590E2E99FF001E1
:102FE0001124FA5F3085282F277081E090E0022EAF
:102FF00001C0880F0A94EAF7932F982381E009F41F
:1030000080E00895E82FE695E695E69540E2E49F96
:10301000F0011124FA5F877021E030E0A90102C0BD
:10302000440F551F8A95E2F7662311F045830895F2
:10303000468308950C94B117CF93DF93EB010E9460
:10304000B7178883DF91CF9108950C94AF17FC01D7
:103050009081906190830895FC0163830895E82F27
:10306000E695E695E69540E2E49FF0011124FA5FCB
:10307000877021E030E0A90102C0440F551F8A95F6
:10308000E2F745830895E82FE695E695E69540E258
:10309000E49FF0011124FA5F877021E030E0A9017C
:1030A00002C0440F551F8A95E2F746830895FC013C
:1030B000009749F0643038F491859C7F9064692BC7
:1030C000618780E0089581E008958F929F92AF928A
:1030D000BF92DF92EF92FF920F931F93CF93DF93F4
:1030E0001F921F92CDB7DEB74C01D62EDC0112968F
:1030F000ED91FC911397E080F18018966C9180E03F
:1031000090E0582F8617F0F4D4011696ED91FC91BB
:103110001797208130E0082E02C0359527950A9434
:10312000E2F7019620FFEDCF1496ED91FC911597F3
:10313000E50FF11D60E0808149837A830E940218C7
:103140007A8149810D2D172FD40E5801D01689F0A0
:103150000F5F1F4FF5016081C7010E94E117C70192
:103160000E94D3178823D9F3B501C7010E94D8174D
:10317000ECCFD40118965C9120E030E0422F251767
:10318000D8F4D4011696ED91FC911797808190E0C8
:10319000022E02C0959587950A94E2F72F5F3F4F64
:1031A00080FFECCF1496ED91FC911597E40FF11D83
:1031B00061E080810E94021880E00F900F90DF9103
:1031C000CF911F910F91FF90EF90DF90BF90AF9044
:1031D0009F908F9008956F927F928F929F92AF925F
:1031E000BF92CF92DF92EF92FF920F931F93CF93F4
:1031F000DF93EC01B62E072F142FEA81FB81C080EC
:10320000D180EA85FB858081843031F4EC85FD85B1
:1032100061E081810E940218F12C8885F816C0F4C3
:10322000EE81FF81208130E08F2D90E00F2C02C0D5
:10323000359527950A94E2F720FF08C0EC81FD81BF
:10324000E80FF91F60E080810E940218F394E5CF37
:10325000EB2CF02EB10EBE1461F0F70161917F01ED
:10326000C6010E94E117C6010E94D3178823D9F333
:10327000F2CFF12C8885F816C0F4EE81FF818081B1
:1032800090E02F2D30E00F2C02C0959587950A9481
:10329000E2F780FF08C0EC81FD81E20FF31F61E0DF
:1032A00080810E940218F394E5CFEA85FB85808136
:1032B000813009F04AC0EC85FD8561E081810E9482
:1032C00002180E94CB174B015C019B01A50160E035
:1032D00070E080E090E0215C3D4B404F5F4F6F4FCE
:1032E0007F4F8F4F9F4FA12CACE7BA2EB2E9CB2E68
:1032F000D12CE12CF12C00E010E00E94A957B9017B
:10330000CA010E94BA17EC85FD8560E081810E94A8
:1033100002188885F81608F0E0C0EE81FF818081F0
:1033200090E02F2D30E00F2C02C0959587950A94E0
:10333000E2F780FF08C0EC81FD81E20FF31F60E03F
:1033400080810E940218F394E4CF8230B9F5EC85B5
:10335000FD8561E080810E940218EC85FD858281F7
:103360000E94E9178823C9F3EC85FD8560E0808120
:103370000E940218EC85FD8582810E94E917811167
:10338000F9CFF12C8885F81608F0A7C0EE81FF81EF
:10339000808190E02F2D30E00F2C02C0959587950D
:1033A0000A94E2F780FF08C0EC81FD81E20FF31F71
:1033B00060E080810E940218F394E4CF833009F02A
:1033C00062C0EC85FD8561E080810E9402180E9448
:1033D000CB174B015C019B01A50160E070E080E030
:1033E00090E001E00E94925839014A01B62FA72FC0
:1033F000F82FE92F02E00E94925859016A017B01DF
:103400008C019301A4016B2F7A2F8F2F9E2F0E9486
:10341000AB5829513C4F4F4F5F4F6F4F7F4F8F4FEE
:103420009F4FE0E8AE2EF5E2BF2EC12CD12CE12C4F
:10343000F12C00E010E00E94A957B901CA010E94D6
:10344000BA17EC85FD8560E080810E9402188885AE
:10345000F81608F042C0EE81FF81808190E02F2DA8
:1034600030E00F2C02C0959587950A94E2F780FF13
:1034700008C0EC81FD81E20FF31F60E080810E94B3
:103480000218F394E4CF843041F5EC85FD8561E0CA
:1034900081810E940218F12C8885F816C0F4EE8113
:1034A000FF81808190E02F2D30E00F2C02C0959598
:1034B00087950A94E2F780FF08C0EC81FD81E20F56
:1034C000F31F60E080810E940218F394E5CFEC8541
:1034D000FD8560E081810E94021880E0DF91CF913C
:1034E0001F910F91FF90EF90DF90CF90BF90AF9022
:1034F0009F908F907F906F900895DC01FB011C924C
:1035000081E011968C93119714961C92108282E19F
:10351000818383E08483A281B38140684C93A2813C
:10352000B38111961C920280F381E02D12820895DE
:10353000FC01108283E081838483A281B3814F7771
:103540004C93A281B38111963C930280F381E02DCC
:103550002283FB01148208955F926F927F928F9273
:103560009F92AF92BF92CF92DF92EF92FF920F9312
:103570001F93CF93DF931F92CDB7DEB75C014B0152
:103580003A011982DC011296ED91FC911397508457
:1035900019968C91199786FF21C0852D837D808790
:1035A0001296ED91FC91139719968C9119978C7244
:1035B0009085892B80871296ED91FC911397048159
:1035C000158126813781C12CD12C76014085BE0121
:1035D0006F5F7F4F808191810E947943F401118157
:1035E0008FEF810F8F3010F081E06CC02481822F2B
:1035F000612F0E9479579111F7CF211102C0912CB0
:103600001AC000E0D40114968C91612F0E94795762
:103610000817A8F7F40162817381019F600D711D85
:103620001124412FC5010E94EB18811102C00F5FC8
:10363000E9CF99249394F3011181103120F1848111
:10364000882309F11F50612F0E9479579111CCCF27
:10365000812CF3018481612F0E947957881698F498
:10366000D30112966D917C911397819E600D711D0F
:103670001124412FC5010E946518811102C0839455
:10368000E8CF99249394D5011296ED91FC9113976C
:10369000508619968C91199786FF13C01296ED915A
:1036A000FC9113970481158126813781C12CD12C7F
:1036B00076014085BE016F5F7F4F808191810E94BE
:1036C0007943892D0F90DF91CF911F910F91FF903A
:1036D000EF90DF90CF90BF90AF909F908F907F90B2
:1036E0006F905F9008958F929F92AF92BF92CF920A
:1036F000DF92EF92FF920F931F93CF93DF931F926E
:10370000CDB7DEB7662309F44AC0862E19825C0164
:10371000912CA114B10409F444C043E050E060E1ED
:10372000F501828193810E943D2A43E050E060E2EE
:10373000F501828193810E943D2A40E050E060E4DF
:10374000F501828193810E943D2A41E050E060E8CA
:10375000F501828193810E943D2AF501808191814A
:103760000E949C45F5010481158126813781C12C79
:10377000D12C76014085BE016F5F7F4F80819181A2
:103780000E947943F501808191810E94E41793940E
:10379000F9E0AF0EB11C9810BCCF80E003C081E00F
:1037A00001C0892D0F90DF91CF911F910F91FF9054
:1037B000EF90DF90CF90BF90AF909F908F90089543
:1037C000AB01982F969596959695877021E030E0FD
:1037D000B90101C0660F8A95EAF720E2929FC00105
:1037E00011249A5F0C943D2AFF920F931F93CF935D
:1037F000DF93662349F0D62F8C01C0E007C0CF5F6E
:10380000025F1F4FCD1302C080E017C001151105E4
:1038100099F0F12CF8018085F81688F7D8011496F4
:10382000ED91FC911597EF0DF11D63E070E0808143
:103830000E94E01BF394EECF8C2FDF91CF911F916C
:103840000F91FF900895AF92BF92CF92DF92EF92C7
:10385000FF920F931F93CF93DF93009709F409C151
:10386000162FEC011F926F9384E896E29F938F933B
:103870000E941D5A0F900F900F900F90A12CB12C09
:103880006501A3941330C8F1E12CF12C870120E0ED
:1038900030E0A9016BE1CE010E94DE4917E0E12E84
:1038A000F12C00E010E020E030E0A9016CE2CE0154
:1038B0000E94DE4943E0A42EB12CC12CD12CE12C76
:1038C000F12C870120E030E0A9016EE2CE010E94D8
:1038D000DE49A12CB12C6501A39416E0E12EF12C58
:1038E00000E010E021E030E040E050E06CE2CE018A
:1038F0000E94DE4980E996E27BC01230D9F5E12CC6
:10390000F12C870120E030E0A9016BE1CE010E949B
:10391000DE4916E0E12EF12C00E010E020E030E07E
:10392000A9016CE2CE010E94DE49B3E0AB2EB12CBE
:10393000C12CD12C1BE0E12EF12C00E010E020E0A6
:1039400030E0A9016DE2CE010E94DE49A12CB12C2C
:103950006501A39417E0E12EF12C00E010E021E0D6
:1039600030E040E050E06CE2CE010E94DE4980ECA5
:1039700096E23EC0112309F43FC0E12CF12C8701EF
:1039800020E030E0A9016BE1CE010E94DE4916E0A3
:10399000E12EF12C00E010E020E030E0A9016CE223
:1039A000CE010E94DE4963E0A62EB12CC12CD12CA1
:1039B0001BE0E12EF12C00E010E021E030E040E0DF
:1039C00050E06DE2CE010E94DE49A12CB12C6501D0
:1039D000A39417E0E12EF12C00E010E021E030E0AC
:1039E00040E050E06CE2CE010E94DE4980EF96E2BA
:1039F0000E94375A80E03EC0E12CF12C870121E083
:103A000030E040E050E06BE1CE010E94DE4916E07C
:103A1000E12EF12C00E010E020E030E0A9016CE2A2
:103A2000CE010E94DE4993E0A92EB12CC12CD12CED
:103A30001BE0E12EF12C00E010E022E030E040E05D
:103A400050E06DE2CE010E94DE49A12CB12C65014F
:103A5000A39417E0E12EF12C00E010E021E030E02B
:103A600040E050E06CE2CE010E94DE498EE197E238
:103A7000BFCF81E0DF91CF911F910F91FF90EF9029
:103A8000DF90CF90BF90AF9008952F923F924F92CA
:103A90005F926F927F928F929F92AF92BF92CF92DE
:103AA000DF92EF92FF920F931F93CF93DF93CDB7E7
:103AB000DEB72D97CDBFDEBF4C014E835F83688795
:103AC00079870A871B872C873D87E98215012601A4
:103AD000009709F49CC3DB01CA014C97A109B10905
:103AE000843E9F4FA740B10518F08EE497E217C2BD
:103AF0008A859B85AC85BD850197A109B1098F3F5A
:103B00009105A105B10518F086E597E208C289E3A1
:103B1000A8168AE4B806C104D10418F08EE597E22D
:103B2000FEC18BA19CA1ADA1BEA10597A109B109C0
:103B300084379540A105B10518F089E697E2EFC1F9
:103B40008FA1803418F083E797E2E9C15F924F922A
:103B50003F92AF928DE797E29F938F930E941D5AF9
:103B600060E0C4010E9426493B017F936F938BE87C
:103B700097E29F938F930E941D5ACDBFDEBF6728A7
:103B800031F448E156E660E0C4010E943A49A12CB4
:103B9000B12C6501A39419E0E12EF12C00E010E0B6
:103BA00021E030E040E050E060E0C4010E94DE49E6
:103BB0001EE0E12EF12C00E010E020E030E0A90151
:103BC00067E0C4010E94DE4921E030E040E050E0BF
:103BD00060E0C4010E94DE49B9E92B16BAE33B0656
:103BE0004104510408F44DC0B3E0AB2EB12CC12CFC
:103BF000D12CE12CF12C870121E030E040E050E0B5
:103C00006EE2C4010E94DE49A12CB12C6501A3948F
:103C100017E0E12EF12C00E010E021E030E040E080
:103C200050E06CE2C4010E94DE4916E0E12EF12C66
:103C300000E010E020E030E0A9016CE2C4010E9445
:103C4000DE49E12CF12C870121E030E040E050E03A
:103C50006BE1C4010E94DE4923E0A22EB12CC12CED
:103C6000D12C1BE0E12EF12C00E010E022E030E04E
:103C700040E050E06DE2C4010E94DE498EE197E22F
:103C8000EBC02DE422162DE132064104510408F464
:103C900040C0A12CB12C6501A394E12CF12C87012B
:103CA00020E030E0A9016BE1C4010E94DE4916E08A
:103CB000E12EF12C00E010E020E030E0A9016CE200
:103CC000C4010E94DE4973E0A72EB12CC12CD12C77
:103CD0001BE0E12EF12C00E010E021E030E040E0BC
:103CE00050E06DE2C4010E94DE49A12CB12C6501B7
:103CF000A39417E0E12EF12C00E010E021E030E089
:103D000040E050E06CE2C4010E94DE4980EF96E2A0
:103D1000A3C081E7281687E138064104510408F45E
:103D20003FC0A12CB12C6501A394E12CF12C87019B
:103D300020E030E0A9016BE1C4010E94DE4916E0F9
:103D4000E12EF12C00E010E020E030E0A9016CE26F
:103D5000C4010E94DE4993E0A92EB12CC12CD12CC4
:103D60001BE0E12EF12C00E010E020E030E0A901A2
:103D70006DE2C4010E94DE49A12CB12C6501A3941F
:103D800017E0E12EF12C00E010E021E030E040E00F
:103D900050E06CE2C4010E94DE4980EC96E25CC017
:103DA0009BE0291631044104510408F453C0A12CAE
:103DB000B12C6501A394E12CF12C870120E030E0C7
:103DC000A9016BE1C4010E94DE4916E0E12EF12C4D
:103DD00000E010E021E030E040E050E06CE2C4019F
:103DE0000E94DE496CE2C4010E9426499F938F9392
:103DF0007F936F9382EA97E29F938F930E941D5A5D
:103E0000E3E0AE2EB12CC12CD12CE12CF12C87019A
:103E100020E030E0A9016EE2C4010E94DE49A12C3D
:103E2000B12C6501A39417E0E12EF12C00E010E025
:103E300020E030E0A9016CE2C4010E94DE4980E983
:103E400096E20E94375A0F900F900F900F900F90AC
:103E50000F9004C082EB97E20E94375A9FA1892FEE
:103E600090E0A0E0B0E08A839B83AC83BD830FE346
:103E7000A02EB12CC12CD12C18E0E12EF12C00E0A9
:103E800010E09C01AD016CE2C4010E94DE49E12C0E
:103E9000F12C87012A813B814C815D816DE2C40157
:103EA0000E94DE4937E0A32EB12CC12CD12C20E09A
:103EB00030E0A9016CE2C4010E94DE494FE3A42E68
:103EC000B12CC12CD12C18E0E12EF12C00E010E037
:103ED00021E030E040E050E065E2C4010E94DE49AC
:103EE000A981A23021F1A43021F1A63029F1A83016
:103EF00031F1AC3039F1A03141F1A83149F1A032B2
:103F000051F1A03359F1A03461F1A83469F1A03620
:103F100071F1A03879F1A03C81F184EC97E29F9394
:103F20008F930E941D5A0F900F9083E071C1712CE6
:103F300026C07724739423C012E0712E20C0B3E012
:103F40007B2E1DC0A4E07A2E1AC0F5E07F2E17C08C
:103F5000E6E07E2E14C077E0772E11C068E0762E62
:103F60000EC059E0752E0BC04AE0742E08C03BE02D
:103F7000732E05C02CE0722E02C09DE0792E1F9298
:103F80007F928DED97E29F938F930E941D5A272D6C
:103F900030E040E050E0FFE1AF2EB12CC12CD12C3D
:103FA00016E0E12EF12C00E010E06BE4C4010E9469
:103FB000DE498CEE97E20E94375A0F900F900F90D7
:103FC0000F90A12CB12C6501A3941EE0E12EF12CE1
:103FD00000E010E0772059F021E030E040E050E0D0
:103FE0006FE1C4010E94DE498AEF97E209C020E038
:103FF00030E0A9016FE1C4010E94DE498EE098E241
:104000000E94375AA12CB12C6501AA9414E0E12E2C
:10401000F12C00E010E02A853B854C855D856BE046
:10402000C4010E94DE4982E298E20E94375A8BA1C5
:104030009CA1ADA1BEA185369105A105B105D0F425
:1040400053E0A52EB12CC12CD12C17E0E12EF12C80
:1040500000E010E020E030E0A90160E0C4010E942F
:10406000DE498BA19CA1ADA1BEA10A97A105B10516
:10407000C8F546C08BA19CA1ADA1BEA18739910511
:10408000A105B10578F433E0A32EB12CC12CD12CBD
:1040900017E0E12EF12C00E010E021E030E040E0FC
:1040A00050E01CC08BA19CA1ADA1BEA113E0A12E2C
:1040B000B12CC12CD12C17E0E12EF12C00E010E046
:1040C000893C9105A105B10528F422E030E040E0EB
:1040D00050E004C023E030E040E050E060E0C40184
:1040E0000E94DE49E3E0AE2EB12CC12CD12C15E0AC
:1040F000E12EF12C00E010E020E030E0A9010EC03C
:1041000063E0A62EB12CC12CD12C15E0E12EF12CB0
:1041100000E010E021E030E040E050E060E0C40169
:104120000E94DE4999E929169AE3390641045104AF
:1041300008F1A12CB12C6501A394E12CF12C87018D
:1041400021E030E040E050E06BE1C4010E94DE4934
:1041500043E0A42EB12CC12CD12C1BE0E12EF12C7C
:1041600000E010E022E030E040E050E06DE2C40109
:104170000E94DE494E815F8168857985C4010E9475
:104180007A4980E398E20E94375A40E050E06BE2BF
:10419000C4010E943A4940E050E06AE2C4010E9432
:1041A0003A49A12CB12C6501A39413E0E12EF12C26
:1041B00000E010E021E030E040E050E060E0C401C9
:1041C0000E94DE4920E030E0A90160E0C4010E94C5
:1041D000DE4921E030E040E050E060E0C4010E94B0
:1041E000DE491EE0E12EF12C00E010E020E030E09E
:1041F000A90160E0C4010E94DE4921E030E040E016
:1042000050E060E0C4010E94DE4980E001C081E02E
:104210002D96CDBFDEBFDF91CF911F910F91FF9003
:10422000EF90DF90CF90BF90AF909F908F907F9056
:104230006F905F904F903F902F900895892B11F0D1
:1042400083E0089581E00895CF93DF93009779F09C
:10425000EA010E947C3B81110CC0E091F63BF09199
:10426000F73B0280F381E02D9281988303C081E0C7
:1042700001C082E0DF91CF9108950F931F93CF93F8
:10428000DF931F92CDB7DEB7009791F061157105EE
:1042900089F08B01AE014F5F5F4F65E070E00E94D7
:1042A0002421811109C099819170F801908305C082
:1042B00081E003C083E001C082E00F90DF91CF91E5
:1042C0001F910F910895892B11F083E0089581E0EB
:1042D0000895892B11F083E0089581E00895892BDA
:1042E00011F083E0089581E00895892B11F083E0B7
:1042F000089581E00895892B11F083E0089581E00D
:1043000008950F93009749F0462F0FEF20E06FE5D7
:1043100070E00E94AA3C80E001C081E00F91089506
:104320000F93009779F0623078F420E8629FA00143
:104330001124406200EA20E069E570E00E94D13C6F
:1043400080E003C081E001C083E00F9108950F93E6
:10435000009759F0623058F4462F01E020E06FE4F6
:1043600070E00E94D13C80E003C081E001C083E0A6
:104370000F9108950F93009749F000E827E041E07E
:1043800066E270E00E94D13C80E001C081E00F91C4
:104390000895009721F00E94BA2180E0089581E0FD
:1043A0000895009721F00E94BA2180E0089581E0ED
:1043B0000895009721F00E94BA2180E0089581E0DD
:1043C0000895FF920F931F93CF93DF93009791F17E
:1043D000623090F5423080F5142FF62EEC0100E1AA
:1043E00024E041E065E570E00E94D13C00E225E078
:1043F00040E066E270E0CE010E94D13CFF2029F04F
:104400001123F1F010EF4FEF04C01123B9F010ECBD
:104410004FE00FEF20E060E270E0CE010E94D13C5F
:1044200000EF20E0412F61E270E0CE010E94D13C1C
:1044300080E009C081E007C083E005C040E0E9CF2B
:1044400010E340EFE6CFDF91CF911F910F91FF90E6
:1044500008950F93009759F0623058F4462F01E009
:1044600020E065E070E00E944B3C80E003C081E00A
:1044700001C083E00F910895EF92FF920F93CF93C5
:10448000DF930097F1F0EC0101E820E041E860E003
:1044900070E00E944B3CE12CF12C01E020E041E077
:1044A00067EF70E0CE010E94A43CE12C80E1F82E81
:1044B00020E041E067EF70E0CE010E94A43C80E084
:1044C00001C081E0DF91CF910F91FF90EF900895AF
:1044D000892B11F083E0089581E00895892B11F074
:1044E00083E0089581E00895892B11F083E0089519
:1044F00081E00895892B11F083E0089581E008950B
:10450000892B11F083E0089581E00895892B11F043
:1045100083E0089581E00895892B11F083E00895E8
:1045200081E00895892B11F083E0089581E00895DA
:10453000892B11F083E0089581E00895892B11F013
:1045400083E0089581E00895892B11F083E00895B8
:1045500081E00895892B11F083E0089581E00895AA
:10456000892B11F083E0089581E00895892B11F0E3
:1045700083E0089581E00895892B11F083E0089588
:1045800081E00895892B11F083E0089581E008957A
:10459000892B11F083E0089581E00895892B11F0B3
:1045A00083E0089581E00895EF92FF920F931F93A7
:1045B000CF93DF930097B9F08A017B01EC0162E0B1
:1045C0000E94553CB701CE010E947C3B81110DC079
:1045D000E091F63BF091F73B0280F381E02D928170
:1045E000F801908303C081E001C082E0DF91CF91A8
:1045F0001F910F91FF90EF9008950F931F93CF930A
:10460000DF931F92CDB7DEB7009789F06115710572
:1046100081F08B01AE014F5F5F4F6FE570E00E944C
:10462000D422811108C09981F801908305C081E0EE
:1046300003C083E001C082E00F90DF91CF911F9112
:104640000F910895EF92FF920F931F93CF93DF93F3
:104650000097B9F08A017B01EC0161E00E94553CB2
:10466000B701CE010E947C3B81110DC0E091F63B69
:10467000F091F73B0280F381E02D9281F801908365
:1046800003C081E001C082E0DF91CF911F910F91C3
:10469000FF90EF9008950F931F93CF93DF931F9296
:1046A000CDB7DEB70097A1F06115710599F08B01C8
:1046B000AE014F5F5F4F69E570E00E9422238111D8
:1046C0000BC09981991F9927991FF801908305C004
:1046D00081E003C083E001C082E00F90DF91CF91C1
:1046E0001F910F9108950F931F93CF93DF931F9204
:1046F000CDB7DEB7009791F06115710589F08B0198
:10470000AE014F5F5F4F6FE470E00E942223811182
:1047100009C099819170F801908305C081E003C0C0
:1047200083E001C082E00F90DF91CF911F910F9144
:1047300008958F929F92AF92BF92CF92DF92EF92A5
:10474000FF920F931F93CF93DF931F92CDB7DEB7E6
:10475000009709F469C06115710509F467C0411536
:10476000510509F463C02115310509F45FC0E11456
:10477000F10409F45BC0012B09F458C0CD2809F4F9
:1047800055C069015A014B018C01AE014F5F5F4F6B
:1047900065E570E00E942223882311F082E047C083
:1047A000898182958170F4018083AE014F5F5F4FF4
:1047B00066E270E0C8010E9422238111EFCF898157
:1047C00085FB882780F9F5018083AE014F5F5F4F3D
:1047D00060E270E0C8010E9422238111DFCF89814D
:1047E000982F92959F70F60190838F70F7018083C8
:1047F000AE014F5F5F4F61E270E0C8010E9422236B
:104800008111CCCF9981292F207330E044E0359578
:1048100027954A95E1F7F60120839295969596950E
:104820009370F701908303C081E001C083E00F9093
:10483000DF91CF911F910F91FF90EF90DF90CF907C
:10484000BF90AF909F908F900895CF92DF92EF929C
:10485000FF920F93CF93DF931F92CDB7DEB70097F0
:1048600009F43FC07C018EE398E20E94375AAE0102
:104870004F5F5F4F60E270E0C7010E942223998181
:104880001F929F931F928F9388E4C82E88E2D82EA0
:10489000DF92CF920E941D5A8BE598E20E94375A10
:1048A0000FEF20E04FEF60E270E0C7010E94D13CC3
:1048B0008EE398E20E94375AAE014F5F5F4F60E28D
:1048C00070E0C7010E94222399811F929F931F923B
:1048D0008F93DF92CF920E941D5ACDBFDEBF80E042
:1048E00001C081E00F90DF91CF910F91FF90EF9089
:1048F000DF90CF900895892B11F083E0089581E037
:104900000895EF92FF920F93CF93DF93009709F4EE
:1049100062C0EC0160E070E00E943D2661E0CE01E3
:104920000E94292200E225E041E069E570E0CE0125
:104930000E94D13CE12CF12C00E827E041E060E04E
:1049400070E0CE010E949E3CE12C80E1F82E27E031
:1049500041E060E070E0CE010E949E3CE12CF12C31
:1049600001E020E041E060E070E0CE010E94A43C64
:10497000E12C90E1F92E20E041E060E070E0CE0112
:104980000E94A43CE12CF12C20E040E060E070E0CB
:10499000CE010E94A43CE12C20E1F22E20E040E078
:1049A00060E070E0CE010E94A43CE12CF12C0FE10C
:1049B00020E040E066E070E0CE010E949E3CE12CE9
:1049C00030E1F32E20E040E066E070E0CE010E948E
:1049D0009E3C80E001C081E0DF91CF910F91FF907C
:1049E000EF900895DC01FB011C9281E011968C93FD
:1049F000119714961C92108282E1818383E0848354
:104A0000A281B38150685C93A281B38111964C93CB
:104A10000280F381E02D12820895EF920F93FC0142
:104A2000108283E081838483A281B3815F775C936A
:104A3000A281B38111964C930280F381E02D0E2167
:104A40000283FB0114820F91EF900895CF93DF93BF
:104A5000EC01462F6091323C7091333C8091303CA8
:104A60009091313C0E94F446888199814091323C7A
:104A70005091333C6091303C7091313CDC01ED91C0
:104A8000FC911995E091323CF091333C0280F38126
:104A9000E02D81818083E091323CF091333C808134
:104AA000DF91CF910895EF920F93CF93DF93EC01B5
:104AB000A091323CB091333CE42F01C0EE0F2A9517
:104AC000EAF712962D913C911397E02E0E2F462F68
:104AD000BD018091303C9091313C0E940B47888110
:104AE00099814091323C5091333C6091303C7091BF
:104AF000313CDC01ED91FC91DF91CF910F91EF9072
:104B00001994892B11F083E0089581E00895DF92D4
:104B1000EF92FF920F931F93CF93DF931F92CDB726
:104B2000DEB7009751F16115710549F17B018C01E8
:104B30009E012F5F3F4F40E050E06AE170E00E942D
:104B40006822882311F082E01BC0998191FBDD244B
:104B5000D0F89E012F5F3F4F40E050E06BE170E0E6
:104B6000C8010E9468228111EECF298123FB992779
:104B700090F99D21F701908303C081E001C083E09B
:104B80000F90DF91CF911F910F91FF90EF90DF90E9
:104B90000895892B11F083E0089581E00895892B11
:104BA00011F083E0089581E00895892B11F083E0EE
:104BB000089581E00895892B11F083E0089581E044
:104BC0000895892B11F083E0089581E00895892BE1
:104BD00011F083E0089581E00895CF92DF92EF9283
:104BE000FF920F931F93CF93DF931F921F92CDB726
:104BF000DEB7009789F1623088F5162F6C01E12C41
:104C0000F12C02E021E0462F6AE170E00E947B2453
:104C10009E012F5F3F4F40E050E06BE170E0C60126
:104C20000E946822382F81111BC088E0189FB001B4
:104C300011244981477F462B498308EE20E06BE130
:104C400070E0C6013A830E947B2460E070E0C601F8
:104C50000E9469213A8105C031E003C033E001C000
:104C600032E0832F0F900F90DF91CF911F910F9122
:104C7000FF90EF90DF90CF900895892B11F083E0A3
:104C8000089581E00895892B11F083E0089581E073
:104C90000895892B11F083E0089581E00895892B10
:104CA00011F083E0089581E00895892B11F083E0ED
:104CB000089581E00895892B11F083E0089581E043
:104CC0000895892B11F083E0089581E00895892BE0
:104CD00011F083E0089581E00895892B11F083E0BD
:104CE000089581E00895892B11F083E0089581E013
:104CF0000895892B11F083E0089581E00895892BB0
:104D000011F083E0089581E00895892B11F083E08C
:104D1000089581E00895892B11F083E0089581E0E2
:104D20000895892B11F083E0089581E00895892B7F
:104D300011F083E0089581E00895892B11F083E05C
:104D4000089581E00895892B11F083E0089581E0B2
:104D50000895892B11F083E0089581E00895892B4F
:104D600011F083E0089581E00895892B11F083E02C
:104D7000089581E00895892B11F083E0089581E082
:104D80000895892B11F083E0089581E00895892B1F
:104D900011F083E0089581E00895892B11F083E0FC
:104DA000089581E00895892B11F083E0089581E052
:104DB0000895892B11F083E0089581E00895892BEF
:104DC00011F083E0089581E00895892B11F083E0CC
:104DD000089581E00895892B11F083E0089581E022
:104DE0000895892B11F083E0089581E00895892BBF
:104DF00011F083E0089581E00895892B11F083E09C
:104E0000089581E00895892B11F083E0089581E0F1
:104E10000895892B11F083E0089581E00895909121
:104E20005100982381E009F480E00895CF93C82FC2
:104E30008C2F0E940F278823D9F3CF9108950895CE
:104E40008FBF08958FB7F8940895CF93C82F0E940D
:104E50002227E0E5F0E020819C2F9095922390831B
:104E6000CF910C942027CF93C82F0E942227E0E5F2
:104E7000F0E090819C2B9083CF910C942027883078
:104E800011F00C9433270895CF93DF93C82FD62FBA
:104E90000E942227EC2FF0E0E059FF4F6081D62BD3
:104EA000D083DF91CF910C9420271F93CF93DF9372
:104EB0001F92CDB7DEB7182F69830E942227E12FFA
:104EC000F0E0E059FF4F698160959081692360832C
:104ED0000F90DF91CF911F910C9420278FEF80933B
:104EE00070008093710080937200809373008093B0
:104EF0007400809375008093760082E00E943F27C3
:104F000082E00E94162761E080E490E00E946857EA
:104F100081E00C942527FC0184819581019741F55E
:104F20006115710529F18081918146815781415038
:104F30005109481B590B228133812817390728F45E
:104F40002F5F3F4F240F351F02C0281B390B261738
:104F5000370770F04617570728F4641B750B61502C
:104F6000710902C0680F791F6083718380E0089522
:104F700081E00895FC014281538120813181241711
:104F8000350758F4421B530B2681378121503109D4
:104F900081E04217530740F406C0241B350B81E023
:104FA0002130310509F080E00895CF93DF93EC01C3
:104FB0004C815D812A813B81429FC001439F900DBE
:104FC000529F900D112428853985820F931F0E94CE
:104FD000145ACE010E94BA272E813F81882351F0B6
:104FE000888199810196888399838217930710F0AD
:104FF000188219828A819B8101968A839B838217FA
:10500000930710F01A821B82CE010E94BA2791E00A
:105010008927DF91CF910895FC0181E04081518182
:10502000228133814217530709F080E008950F93DE
:105030001F93CF93DF93EC018B010E940C28811109
:105040001FC04C815D8188819981489F9001499F53
:10505000300D589F300D112468857985620F731FBC
:10506000C8010E94145A8881998101968883998386
:105070002E813F818217930728F01882198202C07F
:1050800080E001C081E0DF91CF911F910F910895E1
:10509000AF92BF92CF92DF92EF92FF920F931F9346
:1050A000CF93DF931F92CDB7DEB7009711F480E066
:1050B00021C061157105D9F36A017B018C01A12C16
:1050C000B12CAC14BD0499F3BE016F5F7F4FC801D2
:1050D0000E941728811102C081E00CC0BE016F5FE1
:1050E0007F4FC7010E94D5278823B1F38FEFA81AFD
:1050F000B80AE7CF0F90DF91CF911F910F91FF90EA
:10510000EF90DF90CF90BF90AF900895FC01828127
:105110009381408151818417950720F4268137813E
:10512000820F931F841B950B0895EF92FF920F93AC
:105130001F93CF93DF93009709F46AC0EC010E949C
:105140000C28811165C02A813B818901E12CF12C59
:10515000688179816217730709F449C08885998548
:10516000FC01E20FF31F4081483071F00115110579
:1051700011F40E811F81015011092115310511F41F
:105180002E813F812150310940E050E0FA01EE0DBF
:10519000FF1DDC01A20FB31FAC91A83019F060E035
:1051A00070E016C062177307D1F34F5F5F4F211590
:1051B000310511F42E813F8121503109E7CF2115AE
:1051C000310511F42E813F81215031096F5F7F4FEE
:1051D00064177507A1F7DC01A20FB31F4C9148308B
:1051E00021F0DC01A00FB11F4C937F01B1CFCE01A4
:1051F0000E94862896958795E816F90618F4088384
:10520000198304C01A821B821882198280E001C0AF
:1052100081E0DF91CF911F910F91FF90EF90089562
:105220000F931F93CF93DF93FC01248135812130AD
:105230003105F9F48B01EC010E9486280817190743
:10524000C0F428813981B801620F731F8E819F815C
:10525000288539856817790738F0AB01481B590B49
:10526000F901E40FF51F03C0F901E60FF71F808174
:1052700001C080E0DF91CF911F910F910895AF920F
:10528000BF92DF92EF92FF920F931F93CF93DF9322
:10529000009721F10115110509F1DC011696ED9138
:1052A000FC911797E217F307C8F0EA01D62E5C01CC
:1052B0007901E40EF51ECE15DF0581F0BE01C501B2
:1052C0000E9410299E012F5F3F4F8D1105C0F801EC
:1052D000C083D18380E003C0E901EDCF81E0DF919D
:1052E000CF911F910F91FF90EF90DF90BF90AF9003
:1052F00008958F929F92AF92BF92CF92DF92EF92DA
:10530000FF920F931F93CF93DF93FC01248135818C
:105310002130310509F040C05A016B017C010E9427
:1053200086284C01F60100811181EC012197B8011A
:10533000C7010E9410299FED980F9E3550F48D32C1
:1053400041F0E8010815190551F0F60100831183B9
:1053500006C00C171D07A8F70F5F1F4FE8CF840189
:1053600001501109BE01C7010E94102981528E35DA
:1053700060F0C815D90571F0F60180819181C81BD4
:10538000D90BF501C083D18305C0C017D10788F7B9
:105390002196E8CF80E001C081E0DF91CF911F919D
:1053A0000F91FF90EF90DF90CF90BF90AF909F90C4
:1053B0008F9008955F926F927F928F929F92AF929B
:1053C000BF92CF92DF92EF92FF920F931F93CF93F2
:1053D000DF93FC01248135812130310551F57B01BA
:1053E0008C010E9486283C01C0E0D0E0C615D7059C
:1053F00001F16E01570145018E189F08F50151908A
:105400005F01552069F0C614D70479F0B601C801D0
:105410000E941029FFEFCF1ADF0A581206C0EBCF07
:10542000892839F0CE01019606C0892811F021960D
:10543000DDCF80E090E0DF91CF911F910F91FF9041
:10544000EF90DF90CF90BF90AF909F908F907F9024
:105450006F905F900895FC01108211821282138276
:105460000895FC01108211821282138244835583B5
:1054700026833783608771870895FC0180E090E080
:10548000262F30E0D901082E02C0B595A7950A94C1
:10549000E2F7A0FF05C0DF01A80FB91F50965C938B
:1054A00001968830910571F740FF07C041FF02C0A7
:1054B000658301C0668361830895628308950F93B5
:1054C0001F93CF93DF931F92CDB7DEB789830E94DE
:1054D000564E00EC11E08981F801808387E00E943C
:1054E000404EF80184810F90DF91CF911F910F9171
:1054F00008952F923F924F925F926F927F928F9278
:105500009F92AF92BF92CF92DF92EF92FF920F9352
:105510001F93CF93DF93CDB7DEB72A97CDBFDEBF02
:105520004B015C011A012B833C830A876B017C01D0
:10553000CC24E894D0F8AB81BC81AB2B09F46FC0CC
:105540000E94564E2601370100E011E01D822A8597
:10555000222359F0C301B2010E94274E89839A8306
:10556000019639F021E02D8304C08FEF9FEF8983EE
:105570009A83D301C2010296A11DB11D8E839F8320
:10558000A887B987AB81BC81109761F18414950419
:10559000A604B70481F41197AB83BC83BFEF8B1AC9
:1055A0009B0AAB0ABB0AF10181911F0189838B81A0
:1055B0009C81892BB9F0D301C2010196A11DB11DB7
:1055C00088159905AA05BB0569F4AB81BC811197C3
:1055D000AB83BC838E809F80A884B984F1018191C4
:1055E0001F018A8349815A81C301B2011E940F00B1
:1055F0004E805F80688479840150110909F0A7CF3B
:105600002D81C701B601222319F00E94A74E02C0C6
:105610000E94BF4E82E0D80EE11CF11C8CCF2A966E
:10562000CDBFDEBFDF91CF911F910F91FF90EF9023
:10563000DF90CF90BF90AF909F908F907F906F90B2
:105640005F904F903F902F9008952F923F924F92EE
:105650005F926F927F928F929F92AF92BF92CF9202
:10566000DF92EF92FF920F931F93CF93DF931F92DE
:105670001F92CDB7DEB75A0179016B0110E0882483
:105680008A94982CE114F10409F44DC0412C512C5A
:1056900032011201002379F0C2010E943C4E89833D
:1056A000C20101960E943C4E8A8389819A810196AB
:1056B00021F011E002C089829A82E114F10401F123
:1056C000C214D30469F481E0E81AF108EFEFCE1AAE
:1056D000DE0AF50181915F018983E114F10481F013
:1056E000C10101968C159D0559F4F1E0EF1AF108FE
:1056F000610122E0C20ED11CF50181915F018A8314
:1057000049815A81C301B2011E940F00F2E04F0E8D
:10571000511C611C711C411422E052066104710489
:1057200009F0B7CFAFCF11110E949F4E0F900F908D
:10573000DF91CF911F910F91FF90EF90DF90CF906D
:10574000BF90AF909F908F907F906F905F904F90A1
:105750003F902F900C94974EEF92FF920F931F93D0
:10576000CF93DF9371707A01E20EF31EEA018B0191
:10577000041B150BCE01800F911FCE15DF0521F004
:105780000E943C4E8993F6CFDF91CF911F910F91EC
:10579000FF90EF900895CF92DF92EF92FF920F93D8
:1057A0001F93CF93DF936B017C01EA0189010E9473
:1057B000564E0C0F1D1FC017D10759F0C701B60177
:1057C0000E942C4E89938FEFC81AD80AE80AF80A6B
:1057D000F2CFDF91CF911F910F91FF90EF90DF906B
:1057E000CF900895CF92DF92EF92FF921F93CF93C5
:1057F000DF93C0ECD1E01A85EAE3EA876883C72E1D
:10580000D82EE92EFF24C982AA27BB278A832C839E
:10581000BB27A52F942F832F8D83CA01AA27BB27CF
:105820008E8361E08BEC91E00E9468571A87DF91CC
:10583000CF911F91FF90EF90DF90CF9008950E943D
:10584000564E80E30C94404ECF93DF931F92CDB71A
:10585000DEB789830E94564E898120E2829FC00173
:105860001124E0ECF1E012829183808382E30F90B7
:10587000DF91CF910C94404ECF93DF931F92CDB721
:10588000DEB789830E94564E898120E2829FC00143
:105890001124E0ECF1E012829183808384E30F9085
:1058A000DF91CF910C94404ECF93DF931F92CDB7F1
:1058B000DEB789830E94564E898120E2829FC00113
:1058C0001124E0ECF1E012829183808385E30F9054
:1058D000DF91CF910C94404ECF93DF931F921F9294
:1058E000CDB7DEB76A8389830E94564E0E94364E3A
:1058F0008981E82FF0E0F05F6A8160830F900F905C
:10590000DF91CF910C94304E0F931F93CF938C0166
:105910000E94564EC0E0F80161918F018C2F0E94C9
:105920006C2CCF5FC032B9F7CF911F910F910895C2
:105930000E94564E8091CF0181FF05C086E380937F
:10594000CA010C94514E0895CF93DF93D82F0E9433
:10595000982C0E94564EC0E06D2F8C2F0E946C2C0C
:10596000CF5FC032C9F7DF91CF9108958FEF0E94CA
:10597000A42C0C941F2CCF93C82F8FEF0E94A42C23
:105980008C2FCF910C94242C2F923F924F925F92A8
:105990006F927F928F929F92AF92BF92CF92DF923F
:1059A000EF92FF920F931F93CF93DF93CDB7DEB7A4
:1059B0006897CDBFDEBF009709F4A3C0672B09F439
:1059C000A3C04115510509F4A2C00A8B1B8B122FED
:1059D0004A017C011D821E820E948628212F30E010
:1059E0002E873F8789010E5F1F4FBC0161507109EF
:1059F000C7010E9410298D30E1F4C7010E9495284B
:105A0000C7010E948628888B998BAE014D5F5F4F3E
:105A1000BE016B5F7F4FC7010E9479298F8381117F
:105A200008C06B807C80AD80BE802401C12CD12C4D
:105A300026C00F839AC2D201ED91FC91E00FF11FB5
:105A40003080332069F0B8016A0D7B1DC7010E94C8
:105A50001029831105C00F5F1F4F0615170559F751
:105A6000F20180819181FC01E00FF11F8081F6E05D
:105A70004F0E511C882359F02FEFC21AD20A8E857F
:105A80009F85C816D90618F400E010E0E6CFB501EE
:105A9000C7010E9410298C3641F03CE7432E35E2C5
:105AA000532E85010C57154212C0B5016F5F7F4F11
:105AB000C7010E941029833781F7C7010E948628F9
:105AC000BC01C7010E948B2785E998E268C1B80133
:105AD000640D751DC7010E941029D2019D912D01F1
