:100000000C9443190C9464190C9464190C9464199D
:100010000C9464190C9464190C9464190C9464196C
:100020000C9464190C9464190C9464190C9464195C
:100030000C9464190C94642F0C9464190C94641936
:100040000C9464190C9464190C9464190C9464193C
:100050000C9464190C9464190C9464190C9464192C
:100060000C9464190C945D810C9464190C94338184
:100070000C9464190C9464190C9464190C9464190C
:100080000C9464190C9464190C9464190C946419FC
:100090000C9464190C9464190C9464190C946419EC
:1000A0000C9464190C9464190C9464190C946419DC
:1000B0000C9464190C9464190C943C2F0C946419DE
:1000C0000C9464190C9464190C9464190C946419BC
:1000D0000C9464190C9464190C9464190C946419AC
:1000E0000C9464190C9464190C9464190C9464199C
:1000F0000C9464190C9464190C9464190C9464198C
:100100000C9464190C9464190C9464190C9464197B
:100110000C9464190C9464190C9464190C9464196B
:100120000C9464190C9464190C9464190C9464195B
:100130000C9464190C9464190C9464190C9464194B
:100140000C9464190C9464190C9464190C9464193B
:100150000C9464190C9464190C9464190C9464192B
:100160000C9464190C9464190C9464190C9464191B
:100170000C9464190C9464190C9464190C9464190B
:100180000C9464190C9464190C9464190C946419FB
:100190000C9464190C9464190C9464190C946419EB
:1001A0000C9464190C9464190C9464190C946419DB
:1001B0000C9464190C9464190C9464190C946419CB
:1001C0000C9464190C9464190C9464190C946419BB
:1001D0000C9464190C9464190C9464190C946419AB
:1001E0000C9464190C946419582654263626542607
:1001F0003B26542640265426452654264A26542675
:100200004F26D126CD26AF26CD26B426CD26B9261B
:10021000CD26BE26CD26C326CD26C8266A2766272C
:10022000482766274D2766275227662757276627C0
:100230005C2766276127DF27DB27BD27DB27C2274F
:10024000DB27C727DB27CC27DB27D127DB27D627D0
:10025000C329BC296E29BC297B29BC298829BC2932
:100260009529BC29A229BC29AF29562A532A412AFB
:10027000532A442A532A472A532A4A2A532A4D2AC0
:10028000532A502AE22AE22A032B1D2BC42ABF2A12
:100290002F2B222BD82ACE2ADD2AD32A4D2C432CD1
:1002A000D72B432CE92B432CFB2B432C0D2C432C1D
:1002B0001F2C432C312C7D3E6E3E803E6B3E713EAA
:1002C0006E3E743E773E743E6B3E803E6E3E743EA4
:1002D0007D3E773E713E8E3E8E3E8E3E8E3E8E3E03
:1002E000903E8E3E8E3E903E8C3E8C3E8C3E8C3EB2
:1002F0008C3E8C3E8C3E9F409740434097405140FF
:1003000097405F4097406D4097407B4097408940C1
:100310000242FE41E041FE41E541FE41EA41FE412B
:10032000EF41FE41F441FE41F941CC42C5427742E2
:10033000C5428442C5429142C5429E42C542AB423B
:10034000C542B842A843A4438643A4438B43A44375
:100350009043A4439543A4439A43A4439F435044EA
:100360004944FB4349440844494415444944224410
:1003700049442F4449443C447E597B5933583658AC
:1003800039583C583F584258455848584B584E5891
:100390005158545857585A585D58605863586658C1
:1003A00069586C586F587258755878587B587E58F1
:1003B0008158845887588A588D5890589358965821
:1003C00099589C589F58A258A558A858AB58AE5851
:1003D000B158B458B758BA58BD58C058C358C65881
:1003E000C958CC58CF58D258D558D858DB58DE58B1
:1003F000E158E458E758EA58ED58F058F358F658E1
:10040000F958FC58FF580259055908590B590E590B
:100410001159145917591A591D5920592359265938
:1004200029592C592F593259355938593B593E5968
:100430004159445947594A594D5950595359565998
:1004400059595C595F596259655968596B596E59C8
:10045000715974590C9445580C9403370C94E92B3A
:100460000C94334B0C9420590C94CE2A0C94D558F0
:100470000C9408590C9457370C9465590C94B45843
:100480000C942F590C94F64A0C9429370C944A5921
:100490000C949D370C94773E0C9460580C946052E9
:1004A0000C94A43B0C94432C0C9425370C9490583A
:1004B0000C948F4A0C9451400C94903E0C94DD2A7D
:1004C0000C94BF3B0C940D370C9448580C94D32AD1
:1004D0000C94DF3A0C9454260C94FD360C944F3750
:1004E0000C946E4A0C941D590C94C0580C94D65A16
:1004F0000C9423590C9477420C94DF270C94503EB3
:100500000C944D2A0C948E3E0C948A580C94925064
:100510000C9475580C94E7580C94F04A0C94C3262C
:100520000C94EF410C94743E0C943E590C945E4A2A
:100530000C946D400C949A430C9405370C949529B7
:100540000C947B400C9454580C9415370C94F05830
:100550000C9436260C94BA4A0C94BF2A0C94433758
:100560000C9448270C94D13A0C9418390C946B4F86
:100570000C94D33A0C94E44A0C946E3E0C94EE50D6
:100580000C9493580C94C3290C9451580C94073A2A
:100590000C9440260C94B7580C94E24E0C9442589C
:1005A0000C9433580C94513A0C9478580C945F592D
:1005B0000C94C42A0C9414590C94FC4F0C943C4495
:1005C0000C94ED580C940E590C9474590C94A85832
:1005D0000C94FA4A0C94442A0C94CF580C94113A77
:1005E0000C94AE580C94D1260C94B8420C94E22A88
:1005F0000C94B4260C9402420C94D72B0C94C33C5C
:100600000C94FB430C9431370C94F6580C947159AC
:100610000C947E590C9487580C94C5420C94F53672
:100620000C944B580C947E580C94D8580C94222B54
:100630000C9466580C943F370C9405590C94FF2F7A
:100640000C942F370C94173D0C940E510C944B378F
:100650000C94E5410C9449370C94BF3D0C94C7278A
:100660000C9435590C941D370C943B590C944F261F
:100670000C9462590C9445370C9498500C94612753
:100680000C94604A0C94744A0C94624A0C94224470
:100690000C946B590C9417590C940B590C94A25848
:1006A0000C94FB360C94A8430C94BA580C94803EDE
:1006B0000C949F400C947B580C94203A0C94532A31
:1006C0000C9469580C9423370C945A580C946B3D35
:1006D0000C94DB270C94DB580C94684A0C94D25889
:1006E0000C94C6580C947D3E0C9499580C9459590E
:1006F0000C94C8510C9421370C943C580C946F58AE
:100700000C9491420C94FE4A0C947A4A0C946A4AD6
:100710000C94A5580C94B94F0C9419370C944D3780
:100720000C94562A0C94F4410C94FF580C943958AC
:100730000C945C590C942C590C943B260C94452633
:100740000C9444590C9452270C9437370C94385914
:100750000C945A520C94FC580C948D4A0C944D599C
:100760000C9484580C940D2C0C9429590C94AB586F
:100770000C9443400C9458380C941F370C944159F6
:100780000C94FB2B0C9450440C94024B0C94EA58A0
:100790000C946B3E0C9405520C94BD270C945F4056
:1007A0000C949E420C941A3B0C9456590C946C5821
:1007B0000C947B590C94FB4E0C949F580C94BC29C0
:1007C0000C941B370C946A270C94BD580C944D273D
:1007D0000C94B9260C948C3E0C94AF290C94F936E9
:1007E0000C9427370C9408440C94EE380C94EA418E
:1007F0000C94F7360C94D82A0C946E290C94D627B6
:100800000C94F3580C94D1270C94D6510C94965810
:100810000C9486430C9439370C944A2A0C94414B1F
:100820000C94CD260C9468590C94F9410C945826DC
:100830000C94663C0C9490430C94E1580C94472A19
:100840000C9411590C943B370C9402590C941F3C96
:100850000C94312C0C94A4430C94502A0C940F3714
:100860000C943A500C9457270C945A4F0C948F3791
:100870000C94DF750C94412A0C944D2C0C94475920
:100880000C949C580C94F9580C94C8260C949638E7
:100890000C948B4A0C94C73E0C946F370C943337EE
:1008A0000C9435370C944E580C9463580C94753A4C
:1008B0000C94D0500C9457580C9441370C94CC277E
:1008C0000C943F580C942B370C943D370C94784F74
:1008D0000C9497400C948D580C946E590C94B1580C
:1008E0000C94DC3B0C942B810C94CC580C94A229D6
:1008F0000C94664A0C945C270C94EA4A0C94C358F6
:100900000C94AF260C94E4580C948B430C94C2279F
:100910000C9489400C94713E0C941D2B0C940B523A
:100920000C94BE260C9449440C94E0410C949F43D3
:100930000C9411520C94C9580C9481580C9407379C
:100940000C94093B0C941F2C0C9415440C94444FAC
:100950000C94CC420C9472580C94DE580C94AB421C
:100960000C949F4A0C942F2B0C94644A0C94365888
:100970000C942F440C947B290C9495430C94265989
:100980000C94FE410C944A260C9453590C945D58D7
:100990000C942D370C9488290C9447370C946627B7
:1009A0000C941A590C9484420C9417370C943259B5
:1009B0000C94032B0C9450590C946C4A4552524F92
:1009C000523A204661696C656420746F20736574C7
:1009D000001D03ED01DCFDCCF5BCE5ACC5A86EBC8B
:1009E000E5ACC59C85960392C191219096507269A1
:1009F0006E7473206F7574207468652068656C7000
:100A0000206D656E7520666F722074686520626F58
:100A10006172642E0045786974732066726F6D2070
:100A20007468697320626F617264206261636B2015
:100A3000746F20746865204449474954414C2062D2
:100A40006F6172642E00426F6F746C6F61646572C7
:100A5000206F7074696F6E732E004F4E2F4F464695
:100A60002073776974636865732C2028302069735C
:100A7000204F46462C2031206973204F4E290043D9
:100A80006F6D6D616E647320666F72206163636564
:100A90007373696E6720746865206865617274623B
:100AA0006561742073746174757300436F6E747242
:100AB0006F6C732074686520626F617264206C656E
:100AC00076656C2066756E6374696F6E732E205345
:100AD000657175656E7469616C2065786563206FFA
:100AE0006620617267756D656E74732E0052656164
:100AF0006420616E6420777269746520636F6D6D28
:100B0000616E647320666F722064656275676769E1
:100B10006E672E00436F6D6D616E647320666F7239
:100B20002073657474696E6720484D4339383820E6
:100B300067726F75702064656C6179732E00436F06
:100B40006D6D616E647320666F7220736574746975
:100B50006E67204A4553442F504C4C204E2F522054
:100B6000646976696465727300436F6D6D616E646C
:100B70007320666F722073657474696E6720746881
:100B800065204C4D4B30343832382064656C6179C7
:100B900020636C6F636B732E00436F6D6D616E64C9
:100BA0007320666F722073657474696E6720746851
:100BB00065204C4D4B30343832382064656C617997
:100BC00020636C6F636B732E00436F6D6D616E6499
:100BD0007320666F72206D616E6167696E67207445
:100BE000686520434C4B2067656E65726174696F60
:100BF0006E207468726F756768204C4D4B303438C6
:100C000032382C20414435363234522C20484D4362
:100C10003938372E00436F6D6D616E647320666FD7
:100C200072206D616E6167696E672074686520432C
:100C30004C4B2067656E65726174696F6E207468D5
:100C4000726F756768204C4D4B30343832382C2029
:100C5000414435363234522C20484D433938372EF2
:100C6000005072696E7473206F757420746865200B
:100C700068656C70206D656E7520666F7220746893
:100C80006520626F6172642E004578697473206616
:100C9000726F6D207468697320626F617264206284
:100CA00061636B20746F2074686520444947495420
:100CB000414C20626F6172642E00426F6F746C6FE2
:100CC00061646572206F7074696F6E732E004F4E91
:100CD0002F4F46462073776974636865732C20280C
:100CE00030206973204F46462C2031206973204FF5
:100CF0004E290053746174757320616E64206675AB
:100D00006E6374696F6E73207573656420666F72AD
:100D100020636865636B696E672074686520626F25
:100D20006172642E2000436F6E74726F6C73207456
:100D3000686520626F617264206C6576656C206600
:100D4000756E6374696F6E732E2053657175656E71
:100D50007469616C2065786563206F6620617267D5
:100D6000756D656E74732E00457865637574657373
:100D7000207465737420766563746F72732E0052ED
:100D8000656769737465722064756D707320666F32
:100D90007220726573706563746976652070657220
:100DA0006970686572616C732E00436F6E74726F48
:100DB0006C73207468652066726F6E74656E642053
:100DC00052462073776974636865732E00436F6DB4
:100DD0006D616E647320666F722074686520414493
:100DE000524636353138207661726961626C652011
:100DF0006761696E20616D706C69666965722E004D
:100E00005072696E7473206F757420746865206801
:100E1000656C70206D656E7520666F7220746865F4
:100E200020626F6172642E00457869747320667267
:100E30006F6D207468697320626F617264206261F3
:100E4000636B20746F20746865204449474954419E
:100E50004C20626F6172642E00426F6F746C6F6120
:100E6000646572206F7074696F6E732E004F4E2F21
:100E70004F46462073776974636865732C20283069
:100E8000206973204F46462C2031206973204F4E35
:100E90002900436F6E74726F6C73207468652062F2
:100EA0006F617264206C6576656C2066756E637424
:100EB000696F6E732E2053657175656E7469616C10
:100EC0002065786563206F6620617267756D656E59
:100ED00074732E0050726F76696465732074686550
:100EE00020737461747573206F6620746865206266
:100EF0006F6172642E005265676973746572206455
:100F0000756D707320666F7220726573706563749F
:100F1000697665207065726970686572616C732EA0
:100F200000436F6E74726F6C732074686520667214
:100F30006F6E74656E6420524620737769746368BF
:100F400065732E00436F6D6D616E647320666F7202
:100F5000207468652044414333384A38342E0052A7
:100F6000756E732073706563696669656420746566
:100F7000737420766563746F72206F662074686581
:100F80002041445246363531380052756E73207315
:100F9000706563696669656420746573742076653D
:100FA00063746F72206F662074686520414443311A
:100FB0003644583337300052756E73207370656352
:100FC0006966696564207465737420766563746FFF
:100FD00072206F662074686520504341393533387C
:100FE0002E00436C656172207468652073706563C0
:100FF0006966696564204750494F582070696E20C2
:101000006C6F772E0053657420746865207370656B
:10101000636966696564204750494F582070696E5E
:1010200020686967682E001D210510E20FB70F8A3E
:101030000F5F0F5072696E7473206F757420696E44
:1010400020766572626F7365206D6F64652E203146
:1010500020746F20656E61626C652E004E6F20619A
:101060007267756D656E74206E656365737361720A
:10107000792E00456E7465722074686520626F6F0A
:10108000746C6F616465722E00484D4339383700C7
:101090004C4D4B30343032380052657475726E737B
:1010A000204D43552064657669636520696E666FDF
:1010B000726D6174696F6E2E00476574732C2061C8
:1010C0006E64207468656E207265736574732C207D
:1010D000504C4C204C6F7373206F66204C6F636BC9
:1010E000205374617475732E004765747320504CDF
:1010F0004C204C6F636B204465746563742053749B
:101100006174757300486561727462656174206909
:101110006E697469616C697A6174696F6E20667555
:101120006E6374696F6E20746F2073657420636FD3
:10113000756E74657220746F20300048656172743A
:10114000626561742066756E6374696F6E20746F7A
:1011500020726573657420746865206865617274B7
:101160006265617420636F756E74657200486561B5
:101170007274626561742066756E6374696F6E2047
:10118000746F20616E642066726F6D2074686520D4
:101190007365727665720053656C6563747320477E
:1011A0004C45206D6F64653A204D43555F474C4573
:1011B000283129206F722053594E54485F465047BA
:1011C000415F474C45202832290050726F76696490
:1011D00065732074686520616D6F756E74206F662D
:1011E0002052414D206C65667420286279746573C5
:1011F000292E0050726F76696465732074686520CB
:1012000074656D70657261747572652028302D315A
:10121000292E00426C696E6B7320746865204C4502
:1012200044206120737065636966696564206E752A
:101230006D626572206F662074696D65732E005053
:1012400072696E7473206F75742074686520736F93
:1012500066747761726520616E642068617264777C
:101260006172652076657273696F6E2E00547572B7
:101270006E732065766572797468696E67206F6633
:10128000662E005475726E206F66662070657269F6
:1012900070686572616C732E00506F7765722063A1
:1012A00079636C65207065726970686572616C73D2
:1012B00020616E642072756E7320626F61726420AB
:1012C000696E69742028706572206368616E6E654E
:1012D0006C292E0052756E7320646961676E6F739E
:1012E000746963206F6E20706572697068657261E1
:1012F0006C2028706572206368616E6E656C292EA3
:101300002053686F756C64207072696E7420616C14
:101310006C207265676973746572732E0054757200
:101320006E206F6E206F75747075747320287065F1
:1013300072206368616E6E656C292E00526577724B
:1013400069746520616C6C207265677320666F72CA
:1013500020656E7469726520626F6172642E00523E
:1013600065616420616E6420777269746520636FC3
:101370006D6D616E647320666F722064656275675F
:1013800067696E672E004765742F73657420484D3A
:1013900043205278204275666665722062696173E7
:1013A0002028302069732064656661756C742C2078
:1013B0003120666F722073696E75736F6469616C3A
:1013C000202F206E6F6E2D4C565045434C204143CC
:1013D00020636F75706C696E672E29004765742FE6
:1013E00073657420484D43207265666572656E634F
:1013F0006520696E707574206469766964657273BE
:10140000202876616C69642064697669646572730A
:1014100020617265203D20325E6E2C206E3D312EA3
:101420002E3529004765742F7365742064656C61DF
:1014300079206C696E6520736574706F696E742EA7
:10144000004765742F73657420746865206F757428
:10145000707574206C61756E636820706861736567
:101460002E00536574206569746865722053594E67
:1014700043206F7220534C4950207573696E67206A
:1014800053504920636F6D6D756E69636174696F48
:101490006E2E004765742F73657420746865205341
:1014A000594E432064656C6179206469766964658E
:1014B000722E0053656C6563747320626574776582
:1014C000656E207468652074776F20484D43393805
:1014D0003820646576696365732028726566657275
:1014E000656E636520616E64206C6D6B292E005300
:1014F000657420636C6F636B2064697669646572E0
:101500002E00536574204E206469766964657220EC
:10151000666F7220504C4C2E00536574205220642C
:1015200069766964657220666F7220504C4C2E009B
:1015300053656C65637420646976696465722074B0
:101540006F207365742E0053657420646967697435
:10155000616C2064656C617920636C6F636B2E0035
:1015600053656C6563742064657669636520636C9C
:101570006F636B2E0053656C656374204A4553445A
:10158000206F7220504C4C2E0052652D7379636889
:10159000726F6E697A65206F7574707574206469F6
:1015A0007669646572732066726F6D20626F74680D
:1015B000204C4D4B73005365742074686520444182
:1015C0004320636F6E74726F6C6C696E6720584F46
:1015D00020567265662C20302D34303936206672E4
:1015E000616374696F6E2056657874004973737512
:1015F00065205359535245462070756C73657320AE
:1016000066726F6D204A4553442E00456E61626CD0
:1016100065206578742D31304D487A207265666595
:1016200072656E6365202831292E005072696E74D0
:1016300073206F757420696E20766572626F7365B2
:10164000206D6F64652E203120746F20656E61629D
:101650006C652E00456E7465722074686520626F3B
:101660006F746C6F616465722E004E6F20617267DB
:10167000756D656E74206E65636573736172792E26
:1016800000414443313644583337300041445246D8
:101690003635313800484D433833784C50364700A2
:1016A00052657475726E73204D435520646576697A
:1016B000636520696E666F726D6174696F6E2E006E
:1016C000504C4C204C6F636B2044657465637469A7
:1016D0006F6E204D656368616E69736D2E0048659D
:1016E0006172746265617420696E7469616C697A93
:1016F0006174696F6E2066756E6374696F6E2074B5
:101700006F2073657420636F756E74657220746FDB
:10171000203000436F6D6D616E6420666F722072C1
:101720006573657474696E672074686520686561A7
:101730007274626561742076616C756520666F7283
:101740002074686520525820626F61726400436F94
:101750006D6D616E6420666F72207072696E74695F
:101760006E67207468652063757272656E74206898
:1017700065617274626561742076616C7565206F55
:10178000662074686520525820626F61726400534D
:10179000656C6563747320474C45206D6F64653AD2
:1017A000204D43555F474C45283129206F72204614
:1017B0005047415F474C452028322900426C696EF2
:1017C0006B7320746865204C4544206120737065FC
:1017D000636966696564206E756D626572206F6607
:1017E0002074696D65732E0050726F76696465733D
:1017F000207468652074656D7065726174757265BA
:101800002028302D31292E004F7574707574732087
:10181000612031362D62697420726570656174696A
:101820006E672073657175656E6365205B302C2073
:1018300032363238302C20302C202D3236333238AC
:101840005D2066726F6D207468652041444320639B
:101850006F72652E00456E61626C696E67207468F8
:101860006520535953524546206465746563746915
:101870006F6E20676174652E203120746F20656E55
:1018800061626C652C203020746F20646973616222
:101890006C6500546865204144432077696C6C2076
:1018A0006F7574707574204A455344205465737481
:1018B000205061747465726E732E20303A206F660A
:1018C000662C20313A204432312E352C20323A20F9
:1018D0004B32382E352C20333A2072707420494C0C
:1018E000412C20343A2072616D702C20353A20480A
:1018F0004947482E00546865204144432077696C6D
:101900006C20656E61626C65207468652053595364
:1019100052454620646574656374696F6E20676123
:10192000746520666F72204A45534420696E69745D
:1019300069616C697A6174696F6E2E0050726F769E
:10194000696465732074686520616D6F756E7420BD
:101950006F662052414D206C656674202862797450
:101960006573292E005072696E7473206F75742030
:1019700074686520736F66747761726520616E6448
:101980002068617264776172652076657273696F31
:101990006E2E005475726E73206576657279746868
:1019A000696E67206F66662E005475726E206F66D2
:1019B00066207065726970686572616C732E005084
:1019C0006F776572206379636C65207065726970EA
:1019D000686572616C7320616E642072756E73202D
:1019E000626F61726420696E69742028706572206C
:1019F0006368616E6E656C292E005475726E206F7F
:101A00006666206F75747075747320287065722017
:101A10006368616E6E656C292E0052756E7320646A
:101A20006961676E6F73746963206F6E2070657291
:101A30006970686572616C202870657220636861E6
:101A40006E6E656C292E2053686F756C6420707201
:101A5000696E7420616C6C2072656769737465725D
:101A6000732E005475726E206F6E206F75747075D2
:101A700074732028706572206368616E6E656C29CE
:101A80002E005265777269746520616C6C207265F6
:101A9000677320666F7220656E7469726520626F6D
:101AA0006172642E0044756D707320616C6C2074DB
:101AB00068652072656769737465727320666F72FA
:101AC00020746865204144524636353138004475EB
:101AD0006D707320746865207265676973746572D0
:101AE0007320666F722074686520726567756C611B
:101AF0007220616E64205246204750494F5800447E
:101B0000756D707320616C6C2074686520726567F8
:101B100069737465727320666F7220746865204102
:101B20004443313644583337302E00414446343331
:101B300035352F41444635333535206175746F6333
:101B4000616C20656E61626C6520283120666F7261
:101B500020656E61626C65293E3E00414446343327
:101B600035352F4144463533353520446972656338
:101B7000742052656769737465722041636365738D
:101B800073203C3C323862697420646174613E3C6D
:101B90003462697420616464726573733E3E0053FD
:101BA000656C656374732044534120417474656EA1
:101BB000756174696F6E2C2028303A203064426D54
:101BC000202D3E203132373A2033312E37356442D2
:101BD0006D290053656C65637420504C4C204F7523
:101BE0007470757420506F7765722028303A202DFC
:101BF0003464426D2C20313A202D3164426D2C200A
:101C0000323A203264426D2C20333A203564426DE2
:101C100029004D7574657320746865204C4F20460B
:101C200072657175656E63792053796E746865733A
:101C3000697A6572207768656E20757365640053F4
:101C4000656C656374732074686520636F72726578
:101C500063742046696C7465722042616E6B206605
:101C60006F72206120676976656E20667265717596
:101C7000656E637920696E206B487A00456E6162FB
:101C80006C652F44697361626C652056434F204F29
:101C90007574707574204672657175656E63792010
:101CA000446F75626C65720053657420504C4C2013
:101CB00056434F204F75747075742044697669647B
:101CC00065722076616C75652E20312C20322C20B7
:101CD000342C2036202E2E203632005365742050AE
:101CE0004C4C20466565646261636B20446976698B
:101CF0006465722076616C75652E20313620746FB4
:101D0000203532343235350053657420504C4C2028
:101D1000496E7075742044697669646572207661D5
:101D20006C75652E203120746F20313633383300C6
:101D300053656C65637420746865207461726765AF
:101D40007420504C4C2028302920484D43383330E3
:101D50002028312920484D433833330053657473AC
:101D600020426173652042616E6420566172616336
:101D7000746F7220766F6C746167652028302D3423
:101D800030393629203056202D20322E355600503D
:101D90004C4C20496E707574205265666572656E94
:101DA0006365204672657175656E6379005377656A
:101DB00065707320484D4338333320667265717502
:101DC000656E63792066726F6D20302E3247487AD7
:101DD00020746F203647487A207769746820612024
:101DE00073746570206F662031304D487A005365FA
:101DF00074732066726571206F6620484D433833D6
:101E000033206F75747075742C20696E204B487A7E
:101E10002E0042797061737320746865204C4E41C6
:101E2000206F6E2074686520686967682062616E43
:101E3000642E20427970617373283129207468659B
:101E4000204C4E41206F72206E6F742830292E0076
:101E500043686F6F736520746865206869676820E0
:101E600028302E352D362047487A29206F72206C75
:101E70006F7720284443202D20302E352047487A84
:101E8000292062616E642E20486967682831292004
:101E90006F72206C6F772830292E0053657420569E
:101EA00047412773207077722D6D6F6465206261E2
:101EB000736564206F6E204C5020636F726E657284
:101EC00020667265712E20312069662066696C7407
:101ED0006572206D6F646520616E642033314D48FA
:101EE0007A203C2042572C20656C736520363020C8
:101EF0004D487A203C204257005365742056474194
:101F0000277320696E70757420616E616C6F672035
:101F1000617474656E756174696F6E20696E20649A
:101F2000422E20476F6573207468726F7567682052
:101F3000414435363234522E0053657420564741A1
:101F4000277320706F737420616D70206761696EF4
:101F50002E20302D313A20332F3964422E00536524
:101F60007420564741277320616E616C6F6720674C
:101F700061696E2E20302E31644220636F6E747260
:101F80006F6C6C65642C20496E7075743A2030203B
:101F90002D2037323020282D3130326442202D2040
:101FA0002D3330644229005365742056474127730E
:101FB000206469676974616C206761696E2E2033E3
:101FC000644220696E6372656D656E74732C20497E
:101FD0006E7075743A2030202D20382028343264F9
:101FE00042202D20363664422900436865636B2009
:101FF000696620564741206761696E2069732074C5
:102000006F6F204869676820666F7220746865206A
:102010004144432E2028303A204E6F2C20313A2064
:10202000596573290053656C6563742056474120D8
:102030004368616E6E656C2028303A20426F746888
:102040002C20493A20312C20513A20322900476572
:1020500074205647412773206761696E2E005365CF
:1020600074205647412773206761696E2E202843EC
:10207000616C6C7320646761696E20616E642061BD
:102080006761696E292E20496E7075743A20302080
:102090002D20393520282D36306442202D2033352F
:1020A00064422900536574205647412773204C50E1
:1020B00020636F726E6572206672657120696E2092
:1020C0004D487A2E004279706173732074686520E0
:1020D0005647412773204C502066696C7465722EF8
:1020E000203120746F20656E61626C652E004E7524
:1020F0006C6C20746865205647412773206F757497
:10210000707574204443206F6666736574732E2067
:102110003120746F20656E61626C652E00537065AE
:1021200063696679207768696368206368616E6EA9
:10213000656C20612C622C632C64204F52206269F4
:1021400074206D61736B2E204D5553542073706550
:10215000636966792066697273742E005072696EC5
:102160007473206F757420696E20766572626F7368
:1021700065206D6F64652E203120746F20656E615F
:10218000626C652E004E6F20617267756D656E74AE
:10219000206E65636573736172792E00456E746598
:1021A000722074686520626F6F746C6F6164657211
:1021B0002E00484D433833784C5036470044414355
:1021C00033384A38340053656C65637420474C4596
:1021D000206D6F64653A204D43555F474C4528316B
:1021E0002920465047415F474C4528322900456E1B
:1021F00061626C6573204A455344205359535245DC
:10220000462047617465004F757470757420656E63
:1022100061626C65283129206F7220646973616284
:102220006C652830292E0050726F766964657320C2
:1022300074686520616D6F756E74206F6620524101
:102240004D206C65667420286279746573292E00B0
:1022500050726F7669646573207468652074656D6B
:1022600070657261747572652028302D31292E00D9
:10227000426C696E6B7320746865204C4544206124
:1022800020737065636966696564206E756D62654B
:1022900072206F662074696D65732E005072696ECE
:1022A0007473206F75742074686520736F6674771B
:1022B00061726520616E6420686172647761726525
:1022C0002076657273696F6E2E005475726E73207E
:1022D00065766572797468696E67206F66662E0030
:1022E0005475726E206F66662070657269706865DD
:1022F00072616C732E00506F776572206379636C26
:1023000065207065726970686572616C7320616EBA
:10231000642072756E7320626F61726420696E69E9
:10232000742028706572206368616E6E656C292E5A
:10233000005475726E206F6666206F7574707574C8
:10234000732028706572206368616E6E656C292E3B
:102350000052756E7320646961676E6F7374696390
:10236000206F6E207065726970686572616C2028DC
:10237000706572206368616E6E656C292E205368EB
:102380006F756C64207072696E7420616C6C207261
:1023900065676973746572732E005475726E206F71
:1023A0006E206F7574707574732028706572206369
:1023B00068616E6E656C292E00526577726974656E
:1023C00020616C6C207265677320666F7220656E89
:1023D0007469726520626F6172642E005265747553
:1023E000726E73204D43552064657669636520697C
:1023F0006E666F726D6174696F6E2E004C6F636BE9
:1024000020446574656374696F6E204D656368610F
:102410006E69736D004865617274626561742069EC
:102420006E697469616C697A6174696F6E20667532
:102430006E6374696F6E20746F2073657420636FB0
:10244000756E74657220746F203000436F6D6D611E
:102450006E6420666F7220726573657474696E674E
:10246000207468652063757272656E74206865619A
:102470007274626561742076616C7565206F662088
:10248000545820626F61726400436F6D6D616E64B9
:1024900020666F72207468652063757272656E7451
:1024A000206865617274626561742076616C75651F
:1024B000206F662074686520545820626F617264D2
:1024C0000044756D70732074686520726567697368
:1024D0007465727320666F7220746865204441438E
:1024E00033384A38340044756D7073207468652041
:1024F00072656769737465727320666F72207468A1
:102500006520726567756C617220616E6420524649
:10251000204750494F5800414446343335352F4108
:10252000444635333535206175746F63616C2065C1
:102530006E61626C6520283120666F7220656E6165
:10254000626C65293E3E00414446343335352F41A7
:1025500044463533353520446972656374205265CD
:1025600067697374657220416363657373203C3CD3
:10257000323862697420646174613E3C346269740B
:1025800020616464726573733E3E0052462041745C
:1025900074656E7561746F722053657474696E67CB
:1025A0002028303A20306442202D3E203132373A04
:1025B000202D33312E373564422900504C4C204FAA
:1025C000757470757420506F7765722028303A20CA
:1025D0002D3464426D2C20313A202D3164426D2C13
:1025E00020323A202B3264426D2C20333A202B3596
:1025F00064426D290053656C65637473207468656B
:1026000020636F72726563742046696C7465722012
:1026100042616E6B20666F72206120676976656E1D
:10262000206672657175656E637920696E206B48EE
:102630007A004D7574657320746865204C4F204690
:1026400072657175656E63792053796E7468657310
:10265000697A6572207768656E20757365640045D8
:102660006E61626C652F44697361626C65205643CC
:102670004F204F7574707574204672657175656E64
:10268000637920446F75626C6572005365742050E5
:102690004C4C2056434F204F75747075742044691C
:1026A00076696465722076616C75652E20312C2008
:1026B000322C20342C2036202E2E2036320053652A
:1026C0007420504C4C20466565646261636B204405
:1026D0006976696465722076616C75652E20313685
:1026E00020746F20353234323535005365742050F4
:1026F0004C4C20496E70757420446976696465722B
:102700002076616C75652E203120746F2031363350
:1027100038330053656C6563742074686520746198
:102720007267657420504C4C2028302920484D4356
:102730003833302028312920484D43383333004E78
:102740006565647320746F2062652063616C6C65DD
:1027500064206C6173742E205365747320746865F3
:10276000204951204D6F64756C61746F722E202862
:1027700069652E202D69203137202D7120313320BD
:102780002D6D290053657420746865204951204DD2
:102790006F64756C61746F7220512062696173207F
:1027A000766F6C746167652028696E2064562C20F2
:1027B00066726F6D20302D3234206456292E0053FE
:1027C000657420746865204951204D6F64756C6193
:1027D000746F722049206269617320766F6C746136
:1027E00067652028696E2064562C2066726F6D2004
:1027F000302D3234206456292E00504C4C20526526
:10280000666572656E636520496E7075742028690F
:102810006E206B487A290053657473206672657167
:10282000206F6620484D43383333206F75747075C0
:10283000742C20696E204B487A2E004279706173A7
:102840007320746865204C4E41206F6E207468655B
:1028500020686967682062616E642E204279706129
:10286000737328312920746865204C4E41206F72A3
:10287000206E6F742830292E0043686F6F736520B7
:1028800074686520686967682028302E352D3620E9
:1028900047487A29206F72206C6F772028444320A4
:1028A0002D20302E352047487A292062616E642E13
:1028B0002048696768283129206F72206C6F77285B
:1028C00030292E0052657475726E7320746865200D
:1028D0006F722764206C616E65206572726F72730F
:1028E000206F6620746865206669727374203420D6
:1028F0006C616E6573005365742074686520736540
:102900006C6563746564205461702076616C7565D4
:1029100020666F722074686520536D616C6C204670
:1029200072616374696F6E616C2044656C617900DB
:10293000536D616C6C204672616374696F6E616C7B
:102940002044656C6179205461702073656C656307
:10295000746F72004C6172676520467261637469BE
:102960006F6E616C2044656C61792C20436F6566E5
:1029700066696369656E74205365742073656C6560
:102980006374696F6E2E2028496E204461746173F0
:10299000686565742900536574207468652044690E
:1029A0007468657220416D706C69747564652C2063
:1029B00030206973204D6178696D756D2028342051
:1029C000626974732900456E61626C652F44697396
:1029D00061626C6520446974686572204D69786530
:1029E0007200456E61626C652F44697361626C654B
:1029F00020446974686572696E6700456E61626C37
:102A0000652F44697361626C6520496E76657273E7
:102A1000652053696E632046696C74657200536D5E
:102A2000616C6C204672616374696F6E616C2044E6
:102A3000656C617920506174682053657474696EA7
:102A4000677300536D616C6C204672616374696FCB
:102A50006E616C2044656C61792053657474696E95
:102A60006773004C61726765204672616374696FB9
:102A70006E616C2044656C61792053657474696E75
:102A8000677300514D43207068617365206F6666FF
:102A90007365742C203132626974732C202D302EB2
:102AA00035202D20302E34393937352C207265668B
:102AB000657220746F206461746173686565740069
:102AC000514D43206761696E206F66667365742C93
:102AD000203131626974732C20646563696D616CA7
:102AE00020706E742040206C656674206F662062D2
:102AF0006974392C2072616E67652030202D203179
:102B00002E393939302C204C53423D302E30303064
:102B10003937363600514D43204443206F66667383
:102B200065742C203133626974732C206D65617378
:102B30007572656420696E20444143204C534227DE
:102B40007300496E697469616C697A657320616E9E
:102B50006420636F6E66696775726573207468655B
:102B6000204A455344206C696E6B2E0044756D708D
:102B7000206F757420616C6C206F6620746865200E
:102B80007265676973746572732E0047657473208C
:102B90007468652074656D70657261747572652006
:102BA0006F6620746865204441432E00456E616263
:102BB0006C6520746865206D697865722E203120FF
:102BC000746F20656E61626C652E005365742074AD
:102BD0006865204E434F206C6F7765722033322D2D
:102BE000626974732072656769737465722C2077EB
:102BF0007269746520746F2075707065722033324D
:102C00002D6269747320666972737421212A2A0007
:102C100053657420746865204E434F20757070654D
:102C2000722033322D626974732072656769737420
:102C300065722E00537065636966792077686963F1
:102C40006820696E7465726E616C20444143206334
:102C500068616E6E656C3A2028302D332920412D35
:102C6000442E0053706563696679207768696368EC
:102C7000206368616E6E656C20612C622C632C642D
:102C80002C204F5220626974206D61736B2E204D91
:102C90005553542073706563696679206669727351
:102CA000742E00150CC90B990B690B3E0B140BED20
:102CB0000AAB0A7F0A5A0A460A150AED09CD0DAA7F
:102CC0000D7F0D680D260DF30CCE0CBA0C890C612E
:102CD0000C440F210FF60ED40E920E6D0E590E28D5
:102CE0000E000E33105C107310901089106D113BA4
:102CF000110511E910B91099103C131D13D4129944
:102D00001283126D123F121312F311CA119711752B
:102D1000155F13B3149314621441142414DC138646
:102D2000137515301519150215EF14751560154733
:102D300015751560154715EC1589150B16EC15B6AC
:102D4000152B1654166A161D2195168C1681161D04
:102D5000214E171317DE16C016A0161D21821A6306
:102D60001A1A1AFA19BF19A919931965193C19F5F4
:102D700018931855180818E817BC178F171D21FF4E
:102D80001ACE1AA51A1D21501E121EEE1DAD1D8F42
:102D90001D5C1D301D081DDB1CA81C7C1C3F1C126B
:102DA0001CD31B9F1B5B1B2B1B1D21EE20C520A4CE
:102DB000205E204E202520EA1FA71F5E1F391FF925
:102DC0001E9B1E5C2185219C21632CBD21B22163A9
:102DD0002CB9239A2351233123F622E022CA229CC4
:102DE000227022502227220722EE21C621632C893D
:102DF000244B241524FC23DC23632CE624C1246308
:102E00002C79283B281728FA27BF2784273F271328
:102E100027EB26BE268B265F263226F525BB258B83
:102E20002547251725632C342C102CCB2BAC2B8B52
:102E30002B6C2B422B152BC02A832A632A432A1E74
:102E40002AFB29E229C629962954293029F628C4C3
:102E5000280A504C4C205354415455530A004C4DB1
:102E60005820504C4C3A20556E6C6F636B65642C47
:102E7000205674756E65204C6F77200A004C4D58B3
:102E800020504C4C3A20496E76616C696420737412
:102E90006174650A004C4D5820504C4C3A204C6FE0
:102EA000636B6564200A004C4D5820504C4C3A200E
:102EB000556E6C6F636B65642C205674756E65205F
:102EC00048696768200A004552524F523A204C4DDB
:102ED000582047656E65726963204572726F720A89
:102EE000004552524F523A2057726974696E6720FA
:102EF000746F20696E76616C6964206164647265C8
:102F000073733A20001D03ED01DCFDCCF5BCE5AC8C
:102F1000C5A86EBCE5ACC59C85960392C191219075
:102F2000966572726F723A20756E7265636F676E26
:102F3000697A656420636F6D6D616E64206F707473
:102F4000696F6E0A00596F75206861766520626549
:102F5000656E206772616E74656420726F6F742095
:102F60007065726D697373696F6E73210A005468BE
:102F70006973206973206E6F7420616E206F7065B5
:102F8000726174696E672073797374656D210A00CC
:102F9000436F6D6D616E64733A0A005573616765C6
:102FA0003A205B636D645D205B2D7C2D2D5D5B6144
:102FB0007267315D205B2D7C2D2D5D5B6172673208
:102FC0005D2E2E2E0A005475726E206F6666206F7D
:102FD0007574707574732028706572206368616EF3
:102FE0006E656C292E005365742070726573636181
:102FF0006C617220666F722063616C6C69627261D1
:1030000074696F6E2E005365742063616C6C696225
:10301000726174696F6E204E2064697669646572AE
:103020002E004368616E676520696E7465726E611B
:103030006C207265666572656E636520444143204D
:103040006F757470757420766F6C7461676500417C
:1030500044524636353138204C6F772042616E64D9
:10306000004144524636353138204869676820624D
:10307000616E640053657420746865205246534144
:1030800020617474656E74756174696F6E2E203082
:1030900020746F203238202830644220746F202D35
:1030A00032386442292E004269742062616E6720C2
:1030B0006F7065726174696F6E2E20313A2077727D
:1030C00069746520303A2072656164004269742039
:1030D00062616E672064617461206F6620444143C1
:1030E0002E004269742062616E67206164647265BB
:1030F0007373206F66204441432E004578656375E5
:1031000074652074686520736572646573207465E6
:1031100073742E2028302D35292074657374207027
:1031200061747465726E2E00536574207468652036
:10313000696E746572706F6C6174696F6E2031783E
:103140002830292C2032782831292C203478283234
:10315000292C203878283429206F7220313678289D
:1031600038292E00456E61626C65207468652050B8
:10317000412028706F77657220616D706C69666997
:103180006572292070726F74656374696F6E206355
:103190006972637569742E203120746F20656E61C9
:1031A000626C652E005365742074686520636D64DD
:1031B00020696E7075742066726F6D204A455344A5
:1031C000283029206F72205350492831292E00536E
:1031D00065742074686520284629206672616D65D3
:1031E0007320706572206D756C74692D6672616DE7
:1031F000652E005365742074686520284D2920636E
:103200006F6E7665727465727320706572206C697A
:103210006E6B2E005365742074686520284C29203D
:103220006C616E657320706572206C696E6B2E0028
:10323000536574207468652066726571206F7574BB
:10324000707574206F662065787465726E616C208D
:1032500044414320636C6B20616674657220696E23
:103260007465726E616C20434C4B206369726375A8
:10327000697420284D487A292E006364696E6F7046
:10328000737578585B0011241FBECFEFCDBFDFE50B
:10329000DEBF00E00CBF12E4A0E0B0E2E2EBFBE135
:1032A00001E00BBF02C007900D92AA3CB107D9F70D
:1032B0002BE4AAECB2E401C01D92A533B207E1F7FA
:1032C0000E948C810C94D78D0C9400009091510039
:1032D000982381E009F480E00895CF93C82F8C2FC4
:1032E0000E9466198823D9F3CF91089508958FBF5E
:1032F00008958FB7F8940895CF93C82F0E94791935
:10330000E0E5F0E020819C2F909592239083CF916F
:103310000C947719CF93C82F0E947919E0E5F0E05B
:1033200090819C2B9083CF910C947719883011F069
:103330000C948A190895CF93DF93C82FD62F0E943B
:103340007919EC2FF0E0E059FF4F6081D62BD08344
:10335000DF91CF910C9477191F93CF93DF931F9236
:10336000CDB7DEB7182F69830E947919E12FF0E0FD
:10337000E059FF4F698160959081692360830F90C8
:10338000DF91CF911F910C9477198FEF809370008C
:103390008093710080937200809373008093740017
:1033A000809375008093760082E00E94961982E0F7
:1033B0000E946D1961E080E490E00E94758481E0D4
:1033C0000C947C19FC0184819581019741F561156C
:1033D000710529F1808191814681578141505109C0
:1033E000481B590B228133812817390728F42F5F96
:1033F0003F4F240F351F02C0281B390B26173707F4
:1034000070F04617570728F4641B750B615071095B
:1034100002C0680F791F6083718380E0089581E0A6
:103420000895FC01428153812081318124173507A1
:1034300058F4421B530B268137812150310981E01A
:103440004217530740F406C0241B350B81E021309E
:10345000310509F080E00895CF93DF93EC014C81B2
:103460005D812A813B81429FC001439F900D529F05
:10347000900D112428853985820F931F0E947E8725
:10348000CE010E94111A2E813F81882351F088813C
:1034900099810196888399838217930710F0188287
:1034A00019828A819B8101968A839B838217930765
:1034B00010F01A821B82CE010E94111A91E0892716
:1034C000DF91CF910895FC0181E0408151812281FB
:1034D00033814217530709F080E008950F931F933B
:1034E000CF93DF93EC018B010E94631A81111FC0FF
:1034F0004C815D8188819981489F9001499F300D61
:10350000589F300D112468857985620F731FC8019B
:103510000E947E87888199810196888399832E8174
:103520003F818217930728F01882198202C080E039
:1035300001C081E0DF91CF911F910F910895AF926B
:10354000BF92CF92DF92EF92FF920F931F93CF9390
:10355000DF931F92CDB7DEB7009711F480E021C052
:1035600061157105D9F36A017B018C01A12CB12C85
:10357000AC14BD0499F3BE016F5F7F4FC8010E9478
:103580006E1A811102C081E00CC0BE016F5F7F4FD7
:10359000C7010E942C1A8823B1F38FEFA81AB80A2A
:1035A000E7CF0F90DF91CF911F910F91FF90EF9098
:1035B000DF90CF90BF90AF900895FC0182819381FE
:1035C000408151818417950720F426813781820F2D
:1035D000931F841B950B0895EF92FF920F931F93F7
:1035E000CF93DF93009709F46AC0EC010E94631A3D
:1035F000811165C02A813B818901E12CF12C688110
:1036000079816217730709F449C088859985FC019F
:10361000E20FF31F4081483071F00115110511F4DC
:103620000E811F81015011092115310511F42E81E0
:103630003F812150310940E050E0FA01EE0DFF1DBD
:10364000DC01A20FB31FAC91A83019F060E070E06C
:1036500016C062177307D1F34F5F5F4F2115310515
:1036600011F42E813F8121503109E7CF2115310519
:1036700011F42E813F81215031096F5F7F4F641714
:103680007507A1F7DC01A20FB31F4C91483021F060
:10369000DC01A00FB11F4C937F01B1CFCE010E947E
:1036A000DD1A96958795E816F90618F408831983AC
:1036B00004C01A821B821882198280E001C081E056
:1036C000DF91CF911F910F91FF90EF9008950F938D
:1036D0001F93CF93DF93FC01248135812130310585
:1036E000F9F48B01EC010E94DD1A08171907C0F4E8
:1036F00028813981B801620F731F8E819F812885CF
:1037000039856817790738F0AB01481B590BF90167
:10371000E40FF51F03C0F901E60FF71F808101C018
:1037200080E0DF91CF911F910F910895AF92BF92EA
:10373000DF92EF92FF920F931F93CF93DF93009747
:1037400021F10115110509F1DC011696ED91FC91AD
:103750001797E217F307C8F0EA01D62E5C0179014A
:10376000E40EF51ECE15DF0581F0BE01C5010E94F5
:10377000671B9E012F5F3F4F8D1105C0F801C0836D
:10378000D18380E003C0E901EDCF81E0DF91CF91EB
:103790001F910F91FF90EF90DF90BF90AF90089531
:1037A0008F929F92AF92BF92CF92DF92EF92FF9251
:1037B0000F931F93CF93DF93FC0124813581213038
:1037C000310509F040C05A016B017C010E94DD1AED
:1037D0004C01F60100811181EC012197B801C7016C
:1037E0000E94671B9FED980F9E3550F48D3241F07B
:1037F000E8010815190551F0F6010083118306C090
:103800000C171D07A8F70F5F1F4FE8CF8401015069
:103810001109BE01C7010E94671B81528E3560F0FD
:10382000C815D90571F0F60180819181C81BD90BAB
:10383000F501C083D18305C0C017D10788F7219651
:10384000E8CF80E001C081E0DF91CF911F910F911F
:10385000FF90EF90DF90CF90BF90AF909F908F90B0
:1038600008955F926F927F928F929F92AF92BF92D4
:10387000CF92DF92EF92FF920F931F93CF93DF933C
:10388000FC01248135812130310551F57B018C010A
:103890000E94DD1A3C01C0E0D0E0C615D70501F159
:1038A0006E01570145018E189F08F50151905F0187
:1038B000552069F0C614D70479F0B601C8010E94FA
:1038C000671BFFEFCF1ADF0A581206C0EBCF89281B
:1038D00039F0CE01019606C0892811F02196DDCF7E
:1038E00080E090E0DF91CF911F910F91FF90EF90DA
:1038F000DF90CF90BF90AF909F908F907F906F9010
:103900005F900895FC011082118212821382089543
:10391000FC01108211821282138244835583268314
:103920003783608771870895FC0180E090E0262F3F
:1039300030E0D901082E02C0B595A7950A94E2F7A8
:10394000A0FF05C0DF01A80FB91F50965C93019638
:103950008830910571F740FF07C041FF02C06583C1
:1039600001C0668361830895628308950F931F9356
:10397000CF93DF931F92CDB7DEB789830E949E79E4
:1039800000EC11E08981F801808387E00E9488794A
:10399000F80184810F90DF91CF911F910F910895CD
:1039A0002F923F924F925F926F927F928F929F924F
:1039B000AF92BF92CF92DF92EF92FF920F931F933D
:1039C000CF93DF93CDB7DEB72A97CDBFDEBF4B01D4
:1039D0005C011A012B833C830A876B017C01CC2498
:1039E000E894D0F8AB81BC81AB2B09F46FC00E9486
:1039F0009E792601370100E011E01D822A852223ED
:103A000059F0C301B2010E946F7989839A830196AC
:103A100039F021E02D8304C08FEF9FEF89839A83D3
:103A2000D301C2010296A11DB11D8E839F83A88779
:103A3000B987AB81BC81109761F184149504A60409
:103A4000B70481F41197AB83BC83BFEF8B1A9B0A39
:103A5000AB0ABB0AF10181911F0189838B819C8193
:103A6000892BB9F0D301C2010196A11DB11D8815A2
:103A70009905AA05BB0569F4AB81BC811197AB839D
:103A8000BC838E809F80A884B984F10181911F013D
:103A90008A8349815A81C301B2011E940F004E806E
:103AA0005F80688479840150110909F0A7CF2D81C6
:103AB000C701B601222319F00E94EF7902C00E94CB
:103AC000077A82E0D80EE11CF11C8CCF2A96CDBF7C
:103AD000DEBFDF91CF911F910F91FF90EF90DF90AC
:103AE000CF90BF90AF909F908F907F906F905F909E
:103AF0004F903F902F9008952F923F924F925F9258
:103B00006F927F928F929F92AF92BF92CF92DF92ED
:103B1000EF92FF920F931F93CF93DF931F921F9209
:103B2000CDB7DEB75A0179016B0110E088248A9481
:103B3000982CE114F10409F44DC0412C512C3201B0
:103B40001201002379F0C2010E9484798983C201A5
:103B500001960E9484798A8389819A81019621F055
:103B600011E002C089829A82E114F10401F1C214C9
:103B7000D30469F481E0E81AF108EFEFCE1ADE0A07
:103B8000F50181915F018983E114F10481F0C101A4
:103B900001968C159D0559F4F1E0EF1AF1086101C9
:103BA00022E0C20ED11CF50181915F018A83498117
:103BB0005A81C301B2011E940F00F2E04F0E511C56
:103BC000611C711C411422E052066104710409F069
:103BD000B7CFAFCF11110E94E7790F900F90DF910F
:103BE000CF911F910F91FF90EF90DF90CF90BF90FA
:103BF000AF909F908F907F906F905F904F903F908D
:103C00002F900C94DF79EF92FF920F931F93CF9335
:103C1000DF9371707A01E20EF31EEA018B01041B3F
:103C2000150BCE01800F911FCE15DF0521F00E94EC
:103C300084798993F6CFDF91CF911F910F91FF90F7
:103C4000EF900895CF92DF92EF92FF920F931F9320
:103C5000CF93DF936B017C01EA0189010E949E7979
:103C60000C0F1D1FC017D10759F0C701B6010E94E4
:103C7000747989938FEFC81AD80AE80AF80AF2CF44
:103C8000DF91CF911F910F91FF90EF90DF90CF9038
:103C90000895CF92DF92EF92FF921F93CF93DF931D
:103CA000C0ECD1E01A85EAE3EA876883C72ED82EF4
:103CB000E92EFF24C982AA27BB278A832C83BB272E
:103CC000A52F942F832F8D83CA01AA27BB278E830C
:103CD00061E08BEC91E00E9475841A87DF91CF91AF
:103CE0001F91FF90EF90DF90CF9008950E949E79F2
:103CF00080E30C948879CF93DF931F92CDB7DEB722
:103D000089830E949E79898120E2829FC0011124CB
:103D1000E0ECF1E012829183808382E30F90DF91E7
:103D2000CF910C948879CF93DF931F92CDB7DEB7F4
:103D300089830E949E79898120E2829FC00111249B
:103D4000E0ECF1E012829183808384E30F90DF91B5
:103D5000CF910C948879CF93DF931F92CDB7DEB7C4
:103D600089830E949E79898120E2829FC00111246B
:103D7000E0ECF1E012829183808385E30F90DF9184
:103D8000CF910C948879CF93DF931F921F92CDB778
:103D9000DEB76A8389830E949E790E947E79898139
:103DA000E82FF0E0F05F6A8160830F900F90DF9161
:103DB000CF910C9478790F931F93CF938C010E942D
:103DC0009E79C0E0F80161918F018C2F0E94C31E83
:103DD000CF5FC032B9F7CF911F910F9108950E9424
:103DE0009E798091CF0181FF05C086E38093CA014F
:103DF0000C9499790895CF93DF93D82F0E94EF1EEA
:103E00000E949E79C0E06D2F8C2F0E94C31ECF5F51
:103E1000C032C9F7DF91CF9108958FEF0E94FB1E4A
:103E20000C94761ECF93C82F8FEF0E94FB1E8C2F11
:103E3000CF910C947B1E2F923F924F925F926F9284
:103E40007F928F929F92AF92BF92CF92DF92EF922A
:103E5000FF920F931F93CF93DF93CDB7DEB7689791
:103E6000CDBFDEBF009709F4A3C0672B09F4A3C040
:103E70004115510509F4A2C00A8B1B8B122F4A0170
:103E80007C011D821E820E94DD1A212F30E02E87C8
:103E90003F8789010E5F1F4FBC0161507109C70147
:103EA0000E94671B8D30E1F4C7010E94EC1AC70124
:103EB0000E94DD1A888B998BAE014D5F5F4FBE016A
:103EC0006B5F7F4FC7010E94D01B8F83811108C099
:103ED0006B807C80AD80BE802401C12CD12C26C09B
:103EE0000F839AC2D201ED91FC91E00FF11F308057
:103EF000332069F0B8016A0D7B1DC7010E94671B62
:103F0000831105C00F5F1F4F0615170559F7F20102
:103F100080819181FC01E00FF11F8081F6E04F0E5E
:103F2000511C882359F02FEFC21AD20A8E859F8523
:103F3000C816D90618F400E010E0E6CFB501C701B5
:103F40000E94671B8C3641F034E9432E38E2532E31
:103F500085010459184212C0B5016F5F7F4FC70138
:103F60000E94671B833781F7C7010E94DD1ABC01DD
:103F7000C7010E94E2198EEF99E268C1B801640D91
:103F8000751DC7010E94671BD2019D912D018913E8
:103F900018C0B8E94B16B8E25B0681F7C7010E946A
:103FA000DD1ABC01C7010E94E2198FE19AE24EC1FD
:103FB000B1E0BF8331C2E1E0EF832EC2F1E0FF83C5
:103FC0002BC2A60CB71CA982BA8286E08C9DA001E8
:103FD0008D9D500D11249401240F351F288739879A
:103FE0001C861D86A12CB12CEE85FF85EC15FD05E8
:103FF00009F4EDC049815A8128893989241B350B80
:104000008E010F5F1F4F6DE2C7010E94961B882330
:1040100029F0A114B10409F0E7C0EAC0A114B10469
:1040200009F0E2C0AE014D5F5F4FBE016F5F7F4F91
:10403000C7010E94D01B2B813C812A873B87232B01
:1040400099F2A980BA80B50161507109C7010E9437
:10405000671B8D3271F4B50162507109C7010E946E
:10406000671B21E090E08D3209F020E0622E792E6E
:1040700002C0612C712CA885B98514968C91282FCB
:1040800030E02C8B3D8B812C912C212C312C2C89D8
:104090003D892216330608F084C0A885B98512969A
:1040A0000D911C911397B1E06B16710451F5F80155
:1040B000E80DF91D42805380A20100E010E0DA0112
:1040C0002D91AD012223A9F0B8016A0D7B1DC70116
:1040D000288F4E8B5F8B0E94671B288D4E895F89CE
:1040E000821307C00F5F1F4F2A853B8502171307F6
:1040F00031F7F201E00FF11F8081882309F4B1C08C
:104100000BC0B501C7010E94671BF801E80DF91D3E
:104110009481891709F4A5C0FFEF2F1A3F0A21E106
:10412000820E911CB4CF80E090E098012253354B71
:104130004901D9011C92892B09F0CAC0B1E1B29D95
:10414000F001B39DF00D1124A885B98512968D91CB
:104150009C911397E80FF91F87819085A185B285FF
:1041600085879687A787B08BA982BA822A853B85E7
:104170002B833C8321E1229DF001239DF00D11242E
:10418000A885B98512968D919C911397E80FF91F18
:104190000190F081E02D1995EA89FB899081890FC2
:1041A0008083A885B98514968C9190E031E020E059
:1041B0008215930509F030E0A32EB22E29813A81B1
:1041C0008B819C81820F931F89839A830DCF2889CD
:1041D0003989232B09F40CC186ED99E20E94A1874D
:1041E000A114B10409F410C186ED99E20E94A187DF
:1041F000C7010E94DD1ABC01C7010E94E21988892B
:104200009989892B29F1AB2851F4AE85BF85AC156E
:10421000BD0529F0EC85FD85EF2BD1F408C02C8578
:104220003D85232B21F031E03C0D3F83F5C024E098
:1042300030E04DE069EF79E2A885B9858D919C91D8
:104240000E945E808F838111EECFE6C00E94A1871D
:104250008CE999E29F938F930E9487870F900F902C
:10426000DBC08C859D8501968C879D878A859B8583
:104270008A0D9B1D89839A83AE014D5F5F4FBE01FE
:104280006F5F7F4FC7010E94D01B4B805C8089818C
:104290009A812EEC622E2AE4722E00E010E0DC01FE
:1042A000AE5CBA444D010415150581F0411451046A
:1042B00009F439CFB401660D771DC7010E94671B51
:1042C000F30181933F010F5F1F4FEDCFC8012DCF49
:1042D00069807A80B30161507109C7010E94671B30
:1042E0008D3209F42BCF31E1329D5001339DB00C5A
:1042F0001124A885B9851296ED91FC911397EA0DCA
:10430000FB1D8681811106C03D96FF93EF93AFECB4
:10431000B9E23FC0813021F43D96FF93EF9357C03F
:10432000823079F5A80141505109F401319780811B
:1043300090EE980F9F35A0F0FA01E253F54B1082F2
:10434000E885F98582819381FC01EA0DFB1D6FEC04
:104350007AE4838594850E947E870B831C830ACF31
:10436000873251F30931110538F7B801660D771D11
:10437000C7010E94671BD4018D934D010F5F1F4F32
:10438000D1CF833009F0F6CE3D96FF93EF93A8E0AE
:10439000BDE2BF93AF93AEECBAE4BF93AF930E947C
:1043A000D1870F900F900F900F900F900F90892B47
:1043B00009F0E0CEA885B98512968D919C9113974E
:1043C000A80EB91EBDE0AB0EB11CBF92AF92A3ED1B
:1043D000B9E2BF93AF93AEECBAE4BF93AF930E9440
:1043E000D1870F900F900F900F900F900F90C2CE2B
:1043F000A114B10409F0F8CEC7010E94DD1ABC0176
:10440000C7010E94E21924CFC7010E94DD1ABC0136
:10441000C7010E94E219F9CE8F816896CDBFDEBF39
:10442000DF91CF911F910F91FF90EF90DF90CF9090
:10443000BF90AF909F908F907F906F905F904F90C4
:104440003F902F900895EF92FF920F931F93CF9379
:10445000DF931F921F92CDB7DEB7009709F4AAC071
:10446000611102C034E001C035E0F22E242FE62EA7
:104470008C01483030F087E49AE20E94A18782E004
:104480009AC0E0910A4BF0910B4B1082E0910A4BDD
:10449000F0910B4B81E08183E0910A4BF0910B4B43
:1044A0000280F381E02D3083E0910A4BF0910B4BB9
:1044B0008483E091084BF091094B92E19183E09164
:1044C000084BF091094B0280F381E02D1082E091BE
:1044D000084BF091094B0280F381E02D118240914D
:1044E000084B5091094BDA0114968C93F8018081A6
:1044F000918160910A4B70910B4BDC01ED91FC9125
:104500002A8339831995E091084BF091094B028079
:10451000F381E02D908181812A813981EE2039F06B
:10452000FF2011F0822B09C02095822306C0FF20B6
:1045300011F0922B02C020959223E0910A4BF0914A
:104540000B4B1082E0910A4BF0910B4B23E021833F
:10455000E0910A4BF0910B4B0280F381E02D308308
:10456000E0910A4BF0910B4B0280F381E02D918397
:10457000E0910A4BF0910B4BA281B38112968C9380
:104580002483E091084BF091094B82E181834091B3
:10459000084B5091094BFA011482D8018D919C91DE
:1045A00060910A4B70910B4BDC01ED91FC911995D8
:1045B00080E001C081E00F900F90DF91CF911F91BB
:1045C0000F91FF90EF900895FF920F931F93CF9359
:1045D000DF93009709F4B0C0611102C0D2E001C0BE
:1045E000D3E0F22E8C014423A1F04130A1F04230FF
:1045F000A1F04330A1F04430A1F04530A1F04630A5
:10460000A1F04730A1F087E49AE20E94A18782E0FE
:1046100094C0C1E00DC0C2E00BC0C4E009C0C8E056
:1046200007C0C0E105C0C0E203C0C0E401C0C0E8EB
:10463000E0910A4BF0910B4B1082E0910A4BF09104
:104640000B4B81E08183E0910A4BF0910B4B028090
:10465000F381E02DD083E0910A4BF0910B4B8483E2
:10466000E091084BF091094B1082E091084BF091DA
:10467000094B90E19183E091084BF091094B028046
:10468000F381E02D10824091084B5091094BDA01E3
:1046900014968C93F8018081918160910A4B7091FE
:1046A0000B4BDC01ED91FC911995E091084BF091D9
:1046B000094B0280F381E02D8081FF2011F0C82B8F
:1046C00002C0C095C823E0910A4BF0910B4B1082B9
:1046D000E0910A4BF0910B4B82E08183E0910A4B11
:1046E000F0910B4B0280F381E02DD083E0910A4BD7
:1046F000F0910B4B0280F381E02DC183E0910A4BD6
:10470000F0910B4B8483E091084BF091094B80E1D1
:1047100081834091084B5091094BFA011482D801D2
:104720008D919C9160910A4B70910B4BDC01ED9146
:10473000FC91199580E001C081E0DF91CF911F913C
:104740000F91FF900895CF93DF93009709F45EC017
:10475000DC01E0910A4BF0910B4B1082E0910A4B87
:10476000F0910B4B92E09183E0910A4BF0910B4B4F
:104770000280F381E02D9083E0910A4BF0910B4B86
:104780000280F381E02D1182E0910A4BF0910B4BF6
:10479000C281D38183E08A83C281D3811B82C2819B
:1047A000D38184E08C83C281D3811D82C281D38175
:1047B00085E08E83C281D3811F82C281D38186E04E
:1047C0008887C281D3819FEF9987C281D38187E097
:1047D0008A87C281D3819B878CE08483E091084BD8
:1047E000F091094B81E181834091084B5091094B35
:1047F000FA0114828D919C9160910A4B70910B4B40
:10480000DC01ED91FC91199580E001C081E0DF9120
:10481000CF910895009769F04093084B5093094B4E
:1048200020930A4B30930B4BFC016083718380E033
:10483000089581E00895CF93DF93009709F44EC067
:10484000EA01FC01A0910A4BB0910B4B1C92A09184
:104850000A4BB0910B4B91E011969C93A0910A4B9F
:10486000B0910B4B12960D90BC91A02D6C93A09122
:104870000A4BB0910B4B14969C93A091084BB091AE
:10488000094B1C92A091084BB091094B80E1119605
:104890008C93A091084BB091094B12960D90BC914E
:1048A000A02D1C924091084B5091094BDA011496AF
:1048B0009C938081918160910A4B70910B4BDC013C
:1048C000ED91FC911995E091084BF091094B028014
:1048D000F381E02D8081888380E001C081E0DF9159
:1048E000CF910895DC01FB011C9283E011968C931B
:1048F000119714961C925F71108292E191838483C8
:10490000A281B381852F80688C93A281B381119697
:104910004C930280F381E02D12820895EF920F9361
:10492000FC01108283E0818384835F71A281B38163
:104930005C93A281B38111964C930280F381E02DA8
:10494000E094D9018C91E8220E290283FB011482A4
:104950000F91EF9008954F925F926F927F928F9296
:104960009F92AF92BF92CF92DF92EF92FF921F93EE
:10497000CF93DF936C017B01CAE3D0E21AE0F6012A
:104980006081718180E090E088809980AA80BB80FE
:10499000A50194010E942C8629013A01672B682BFE
:1049A000692BF9F4F7016081718180E090E0A50145
:1049B00094010E942C86672B682B692B91F4F601D9
:1049C00040825182F7016081718180E090E028810E
:1049D00039814A815B810E942C86F70120833183D3
:1049E000CECF115024961111CACFDF91CF911F91D4
:1049F000FF90EF90DF90CF90BF90AF909F908F90FF
:104A00007F906F905F904F900895CF92DF92EF92DA
:104A1000FF9269017A01C114D104E104F10479F033
:104A2000A70196010E942C86562F472F382F292F39
:104A3000B601C701C52ED42EE32EF22EECCFFF9087
:104A4000EF90DF90CF9008959F92AF92BF92CF9258
:104A5000DF92EF92FF920F931F93CF93DF935C014E
:104A6000D62F662349F0613051F48AE59AE20E941C
:104A7000A187912CC2E005C022E0922E01C0912CAA
:104A8000C0E01F92DF938EE69AE29F938F930E947D
:104A900087871F92CF938AE79AE29F938F930E9412
:104AA000878787E0C82ED12CE12CF12C04E010E0A0
:104AB00020E030E04D2F67E471E0C5010E94256DD4
:104AC00093E0C92ED12CE12CF12C02E010E020E083
:104AD00030E04C2F67E471E0C5010E94256D00E0D5
:104AE00010E09801492D67E471E0C5010E94256D31
:104AF0008DB79EB708968DBF9EBF80E0DF91CF91A6
:104B00001F910F91FF90EF90DF90CF90BF90AF90EB
:104B10009F900895009771F164E771E00E94646CC2
:104B2000843199F040F4853071F08A30A1F0811120
:104B300023C082E011C08B3161F08E3141F08731AA
:104B4000D9F485E009C083E007C084E005C086E0B1
:104B500003C087E001C088E01F928F9388E89AE243
:104B60009F938F930E9487870F900F900F900F90C5
:104B700080E0089581E0089583E00895CF93DF9366
:104B8000009709F43FC0D42FC62F613099F06230EE
:104B9000A1F04423C9F18DEE98E29F938F9386E9AB
:104BA0009AE29F938F930E9487870F900F900F90A8
:104BB0000F902AC062E871E002C063E871E00E94D1
:104BC000646C86958170DD2301F1813069F41F9258
:104BD000CF938DEA9AE29F938F930E9487870F90DD
:104BE0000F900F900F900EC01F92CF938BEB9AE215
:104BF0009F938F930E9487870F900F900F900F9035
:104C000080E003C081E001C083E0DF91CF9108958F
:104C1000CF93009709F470C09C018FEF860F8E3000
:104C200010F460FD16C08CE998E29F938F9380EB9F
:104C300098E29F938F938BEC9AE29F938F930E94BD
:104C400087870F900F900F900F900F900F9083E039
:104C500054C0462F50E0FA013197ED30F10520F5B0
:104C60008827EC50FF4F8F4F0C944E866BE071E01D
:104C700080E090E021C063E171E080E090E01CC042
:104C80006BE171E080E090E017C063E271E080E0EA
:104C900090E012C06BE271E080E090E00DC063E351
:104CA00071E080E090E008C060E070E0CB0104C0FB
:104CB00063E071E080E090E0C9010E94646CC82F5D
:104CC000C87F1F92CF9385ED9AE29F938F930E94A6
:104CD000878789E1C89FC02D11241F92CF9383EE4F
:104CE0009AE29F938F930E9487878DB79EB708960D
:104CF0008DBF9EBF80E001C081E0CF910895CF932A
:104D0000009709F463C09C018FEF860F8E3020F46A
:104D1000C62FC17060FF16C08CE998E29F938F93F5
:104D200080EB98E29F938F9387EF9AE29F938F9304
:104D30000E9487870F900F900F900F900F900F9009
:104D4000C3E045C0462F50E0FA013297ED30F1053F
:104D500020F58827EF5FFE4F8F4F0C944E866DE055
:104D600071E080E090E021C065E171E080E090E0DA
:104D70001CC06DE171E080E090E017C065E271E079
:104D800080E090E012C06DE271E080E090E00DC044
:104D900065E371E080E090E008C060E070E0CB0186
:104DA00004C065E071E080E090E0C9010E94646C9D
:104DB0008F701F928F9382E09BE29F938F930E944C
:104DC00087870F900F900F900F9001C0C1E08C2F3C
:104DD000CF9108951F93CF93DF93009731F1EC01AA
:104DE0006DE371E00E94646C182F6CE371E0CE01FA
:104DF0000E94646C8F7190E0982F8827092E000C18
:104E0000AA0BBB0B812BBF93AF939F938F9386E12C
:104E10009BE29F938F930E9487870F900F900F9034
:104E20000F900F900F9080E001C081E0DF91CF9153
:104E30001F910895CF93009709F46EC09C018FEFE6
:104E4000860F8E3010F460FD16C08CE998E29F93B7
:104E50008F9380EB98E29F938F938BEC9AE29F93D2
:104E60008F930E9487870F900F900F900F900F9055
:104E70000F9083E052C0462F50E0FA013197ED3099
:104E8000F10520F58827E25FFE4F8F4F0C944E8688
:104E900069E071E080E090E021C061E171E080E0D4
:104EA00090E01CC069E171E080E090E017C061E231
:104EB00071E080E090E012C069E271E080E090E093
:104EC0000DC061E371E080E090E008C060E070E058
:104ED000CB0104C061E071E080E090E0C9010E9474
:104EE000646CC82F82958F701F928F9387E29BE22C
:104EF0009F938F930E948787CF701F92CF9381E4F7
:104F00009BE29F938F930E9487878DB79EB70896E9
:104F10008DBF9EBF80E001C081E0CF910895CF9307
:104F2000009709F46EC09C018FEF860F8E3010F44D
:104F300060FD16C08CE998E29F938F9380EB98E216
:104F40009F938F938BEC9AE29F938F930E94878716
:104F50000F900F900F900F900F900F9083E052C022
:104F6000462F50E0FA013197ED30F10520F5882702
:104F7000E55EFE4F8F4F0C944E8669E071E080E055
:104F800090E021C061E171E080E090E01CC069E147
:104F900071E080E090E017C061E271E080E090E0B5
:104FA00012C069E271E080E090E00DC061E371E061
:104FB00080E090E008C060E070E0CB0104C061E0F8
:104FC00071E080E090E0C9010E94646CC82F829576
:104FD0008F701F928F9387E29BE29F938F930E9423
:104FE0008787CF701F92CF9381E49BE29F938F932B
:104FF0000E9487878DB79EB708968DBF9EBF80E0C1
:1050000001C081E0CF910895CF93009709F441C08A
:10501000C62F2EEF260F273080F08DEE98E29F935B
:105020008F938AE59BE29F938F930E9487870F90CF
:105030000F900F900F9083E02DC0653079F028F429
:105040006330A1F0643041F005C0673059F040F0A2
:10505000683051F040E00BC044E109C047E107C0AF
:105060004EE105C04BE103C04AE001C045E064E702
:1050700071E00E94E46C1F92CF9388E89AE29F93BC
:105080008F930E9487870F900F900F900F9080E072
:1050900001C081E0CF9108958F929F92AF92BF920D
:1050A000CF92DF92EF920F931F93CF93DF931F92D4
:1050B000CDB7DEB70097A9F16C0106E011E0B801A9
:1050C000C6010E94646C482F48604983B801C6013C
:1050D0000E94E46C085F1F4F0E3381E0180779F7D8
:1050E0008090E94A9090EA4AA090E74AB090E84A56
:1050F00080E1E82E00E09E012F5F3F4F48E351E042
:10510000B401C5010E948E24D6018D919C91DC01D1
:10511000ED91FC91A401B5011995882319F082E065
:1051200001C081E00F90DF91CF911F910F91EF901F
:10513000DF90CF90BF90AF909F908F900895FF9297
:105140000F931F93CF93DF93009709F45CC0F42E65
:10515000D62F8C016130A1F0623019F1442309F49B
:1051600054C08DEE98E29F938F9383E69BE29F93CA
:105170008F930E9487870F900F900F900F9045C0DC
:1051800062E871E00E94646C82FBCC27C0F941E0C8
:1051900062E871E0C8010E94E46C40E062E871E0FE
:1051A00010C063E871E00E94646C82FBCC27C0F9F8
:1051B00041E063E871E0C8010E94E46C40E063E80C
:1051C00071E0C8010E94E46CFF2009F1C13069F46C
:1051D0001F92DF9389E79BE29F938F930E948787BB
:1051E0000F900F900F900F900EC01F92DF9380E9E9
:1051F0009BE29F938F930E9487870F900F900F9051
:105200000F9080E005C081E003C083E001C08C2FD7
:10521000DF91CF911F910F91FF9008954F925F9270
:105220006F927F928F929F92AF92BF92EF92FF9276
:105230000F931F93CF93DF93009709F4E4C0C42F1B
:10524000D62F8C011F924F9387EA9BE29F938F93F7
:105250000E9487872C2F2170B22E1F922F9384EBF0
:105260009BE29F938F930E948787ED2EF12C1F92D4
:10527000DF938EEB9BE29F938F930E9487878FEF44
:105280008C0F2DB73EB7245F3F4F2DBF3EBF8E30F2
:1052900010F4B11015C08CE998E29F938F9380EBC6
:1052A00098E29F938F938BEC9AE29F938F930E9447
:1052B00087870F900F900F900F900F900F907FC0E7
:1052C0004C2F50E0FA013197ED30F10508F054C051
:1052D0008827E85DFE4F8F4F0C944E868EE0482E57
:1052E00055245394612C712C9BE0892E992493941E
:1052F000A12CB12C54C0B6E14B2E55245394612CF3
:10530000712CC3E18C2E99249394A12CB12C47C00D
:10531000FEE14F2E55245394612C712CABE18A2E63
:1053200099249394A12CB12C3AC076E2472E5524AF
:105330005394612C712CE3E28E2E99249394A12C2A
:10534000B12C2DC05EE2452E55245394612C712C56
:105350006BE2862E99249394A12CB12C20C036E3C5
:10536000432E55245394612C712C43E3842E9924AD
:105370009394A12CB12C13C0412C512C3201812CBF
:10538000912C54010CC096E0492E55245394612C65
:10539000712C23E0822E99249394A12CB12CD83126
:1053A00080F08DEE98E29F938F9389EC9BE29F9320
:1053B0008F930E9487870F900F900F900F9083E03C
:1053C00023C0D11107C0B401C8010E94646CC82F6A
:1053D000C17012C0A70183E0440F551F8A95E1F701
:1053E000C42FC760B201C8010E94646C482F4F7C73
:1053F000B201C8010E94E46C4C2FB401C8010E94A4
:10540000E46C80E001C081E0DF91CF911F910F91AA
:10541000FF90EF90BF90AF909F908F907F906F9094
:105420005F904F9008950F931F93009709F471C0F8
:10543000DC018FEF820F8E3010F420FD15C08CE957
:1054400098E29F938F9380EB98E29F938F938BECDE
:105450009AE29F938F930E9487870F900F900F90EF
:105460000F900F900F9045C0022F10E0F801319778
:10547000ED30F105C0F48827EB5CFE4F8F4F0C94A4
:105480004E868DE091E014C085E191E011C08DE180
:1054900091E00EC085E291E00BC08DE291E008C082
:1054A00085E391E005C080E090E002C085E091E0F6
:1054B0005527662777274031510561057105D8F0DA
:1054C0007F936F935F934F9383ED9BE29F938F93B3
:1054D0000E9487878DEE98E29F938F9385EE9BE2E3
:1054E0009F938F930E9487878DB79EB70A968DBF33
:1054F0009EBF83E00FC0411551056105710511F094
:10550000406101C040E0BC01CD010E94E46C80E03C
:1055100001C081E01F910F910895EF92FF920F93C8
:105520001F93CF93DF93009709F485C0F42EE62EE6
:10553000EC018FEF840F8E30A8F08CE998E29F93F6
:105540008F9380EB98E29F938F9387EF9AE29F93DC
:105550008F930E9487870F900F900F900F900F905E
:105560000F9045C0842F90E0FC013397EC30F1059B
:1055700080F48827EE5BFE4F8F4F0C944E866CE1D3
:1055800071E080E090E062C06CE171E080E090E06A
:105590003EC064E071E080E090E018C06CE271E031
:1055A00080E090E053C064E371E080E090E04EC0A2
:1055B0006CE271E080E090E02AC064E371E080E09A
:1055C00090E025C06CE071E080E090E021E02E15D5
:1055D00080F48DEE98E29F938F938FEE9BE29F93E2
:1055E0008F930E9487870F900F900F900F9083E00A
:1055F0003BC08B01CE010E94646CF0FC0FC0482FB1
:105600004E7F4E2912C064E171E080E090E021E01D
:105610002E15F8F28B01CE010E94646C982F9F7BAF
:1056200080E4E89EA0011124492BB801CE010E941C
:10563000E46C80E019C081E017C064E171E080E0B3
:1056400090E004C064E271E080E090E021E02E157B
:1056500008F4BFCF8B01CE010E94646CD0CF64E20E
:1056600071E080E090E0D3CFDF91CF911F910F9157
:10567000FF90EF900895CF92DF92EF92FF92CF9339
:10568000DF93EC016A017B01892B59F1DB01CA012F
:105690000897A109B109883F9F41A105B10580F094
:1056A0008DEE98E29F938F9384E19CE29F938F937A
:1056B0000E9487870F900F900F900F9083E012C089
:1056C000452F562F672F77276CE371E0CE010E949C
:1056D000E46C4C2D6DE371E0CE010E94E46C80E03F
:1056E00001C081E0DF91CF91FF90EF90DF90CF90EC
:1056F00008954F925F926F927F928F929F92AF9296
:10570000BF92CF92DF92EF92FF920F931F93CF93AE
:10571000DF931F92CDB7DEB74C01162F042F892BD4
:1057200009F48FC11F922F9380E29CE29F938F9385
:1057300029830E9487871F921F9388E29CE29F9390
:105740008F930E9487871F920F9381E39CE29F9320
:105750008F930E948787CDBFDEBF29818FEF820F95
:105760008E3010F420FD15C08CE998E29F938F9342
:1057700080EB98E29F938F938BEC9AE29F938F93A9
:105780000E9487870F900F900F900F900F900F90AF
:10579000A6C0822F90E0FC013197ED30F10508F0B2
:1057A00072C08827E25BFE4F8F4F0C944E86EBE071
:1057B000AE2EBB24B39421E0FEE0CF2EDD24D394A3
:1057C000E12CF12CA9E04A2E55245394612C712C24
:1057D00074C053E1A52EBB24B39422E066E1C62E2B
:1057E000DD24D394E12CF12C71E1472E5524539400
:1057F000612C712C62C09BE1A92EBB24B39423E0E1
:105800003EE1C32EDD24D394E12CF12C49E1442E5A
:1058100055245394612C712C50C0A3E2AA2EBB24B2
:10582000B39424E0B6E2CB2EDD24D394E12CF12C0A
:1058300081E2482E55245394612C712C3EC07BE2AA
:10584000A72EBB24B39425E0EEE2CE2EDD24D39424
:10585000E12CF12CF9E24F2E55245394612C712C3C
:105860002CC043E3A42EBB24B39426E056E3C52EFC
:10587000DD24D394E12CF12C61E3462E552453947E
:10588000612C712C1AC0A12CB12C20E0C12CD12C80
:105890007601412C512C320110C083E0A82EBB248C
:1058A000B39420E096E0C92EDD24D394E12CF12CB2
:1058B00044244394542C612C712C113110F4013187
:1058C00080F08DEE98E29F938F9389E39CE29F9303
:1058D0008F930E9487870F900F900F900F9083E017
:1058E000B1C0113051F4013041F4B601C4010E943D
:1058F000646C482F4068B6019FC063E471E0C40146
:1059000029830E94646C482F4F7D63E471E0C401D9
:105910000E94E46C69E371E0C4010E94646C482F4A
:105920004C7F69E371E0C4010E94E46C63E471E0C0
:10593000C4010E94646C482F406163E471E0C401BB
:105940000E94E46CB501C4010E94646C482F4C7F36
:10595000B501C4010E94E46C61E471E0C4010E94DD
:10596000646C41E050E029815A0101C0AA0C2A95DB
:10597000EAF7482F4A2961E471E0C4010E94E46C0F
:10598000103109F410E0003109F400E01295107FA5
:10599000402F412BB201C4010E94E46CB601C40146
:1059A0000E94646C482F4F77B601C4010E94E46CDA
:1059B00064E471E0C4010E94646C4A2D4095482360
:1059C00064E471E0C4010E94E46C63E471E0C4012A
:1059D0000E94646C182F482F406263E471E0C40198
:1059E0000E94E46C412F4F7D63E471E0C4010E948A
:1059F000E46C64E471E0C4010E94646C482F4A299D
:105A000064E471E0C4010E94E46C63E471E0C401E9
:105A10000E94646C8F7D482F426063E471E0C40192
:105A20000E94E46C69E371E0C4010E94646C8C7FA5
:105A3000482F426069E371E0C4010E94E46C80E099
:105A400001C081E00F90DF91CF911F910F91FF90E6
:105A5000EF90DF90CF90BF90AF909F908F907F900E
:105A60006F905F904F900895FC019481937081E056
:105A7000913009F080E008958FBF08958FB7F894B2
:105A8000089560E078E488EE91E008950C94412D4B
:105A90000C94462D0C94482D0C944A2DCF93DF93F3
:105AA000E0911C4BF0911D4BA0911E4BB0911F4BF0
:105AB0008091224B9091234B18962D913C911997F0
:105AC0008217930718F516964D915C9117979C01D4
:105AD0002F5F3F4F2093224B3093234B2781EA01C6
