:100000001C94F4001C9408011C9408011C94080121
:100010001C9408011C9408011C9408011C940801FC
:100020001C9408011C9408011C9408011C940801EC
:100030001C9408011C9408011C9408011C940801DC
:100040001C9408011C9408011C9408011C940801CC
:100050001C9408011C9408011C9408011C940801BC
:100060001C9408011C9408011C9408011C940801AC
:100070001C9408011C9408011C9408011C9408019C
:100080001C94DE021C9408011C9408011C940801B5
:100090001C9408011C9408011C9408011C9408017C
:1000A0001C9408011C9408011C9408011C9408016C
:1000B0001C9408011C9408011C9408011C9408015C
:1000C0001C9408011C9408011C9408011C9408014C
:1000D0001C9408011C9408011C9408011C9408013C
:1000E0001C9408011C9408011C9408011C9408012C
:1000F0001C9408011C9408011C9408011C9408011C
:100100001C9408011C9408011C9408011C9408010B
:100110001C9408011C9408011C9408011C940801FB
:100120001C9408011C9408011C9408011C940801EB
:100130001C9408011C9408011C9408011C940801DB
:100140001C9408011C9408011C9408011C940801CB
:100150001C9408011C9408011C9408011C940801BB
:100160001C9408011C9408011C9408011C940801AB
:100170001C9408011C9408011C9408011C9408019B
:100180001C9408011C9408011C9408011C9408018B
:100190001C9408011C9408011C9408011C9408017B
:1001A0001C9408011C9408011C9408011C9408016B
:1001B0001C9408011C9408011C9408011C9408015B
:1001C0001C9408011C9408011C9408011C9408014B
:1001D0001C9408011C9408011C9408011C9408013B
:1001E0001C9408011C94080111241FBECFEFCDBF41
:1001F000DFE5DEBF02E00CBF20E2A0E0B0E201C01C
:100200001D92A130B207E1F71E94BA041C94220794
:100210001C94000090910020923050F42091A1088D
:1002200027FF06C081E0809300208091A0080895F8
:100230008111F2CF089590910020923058F480936C
:10024000A0088091A10886FFFCCF8091A10880645E
:100250008093A10808952F923F924F925F926F92E0
:100260007F928F929F92AF92BF92CF92DF92EF9246
:10027000FF920F931F93CF93DF93CDB7DEB7C1509B
:10028000D240CDBFDEBF7C01262F8A01653409F044
:1002900050C01E942A038091CC01877F8093CC01AB
:1002A000CE0101966C013C01212C312C210147012A
:1002B000A12CB12C281439044A045B0460F481E0B9
:1002C0001E940A01F30181933F01FFEF2F1A3F0AA9
:1002D0004F0A5F0AEFCF412C512C320148145904C8
:1002E0006A047B0408F080C0F80180819181A281BA
:1002F000B381F60141916F01682F6F7155E0B6959A
:10030000A795979587955A95D1F71E943C03F801C8
:1003100080819181A281B3810196A11DB11D80834D
:100320009183A283B383FFEF4F1A5F0A6F0A7F0A9C
:10033000D5CF663419F0653509F058C0F8018080D2
:100340009180A280B380880C991CAA1CBB1C80825F
:100350009182A282B38281E0CF5FDD4F2883C150BA
:10036000D2401E940A01C82ED12C81E01E940A01AD
:10037000B601782BF801808191811E945A04F8010E
:1003800080819181A281B3810296A11DB11D8083DC
:100390009183A283B383F2E0EF1AF108CF5FDD4FC0
:1003A0002881C150D240E114F104A9F6263429F481
:1003B000C501B4011E94700408C0253531F41E94A3
:1003C00048041E949D041E944C041E949D04F80140
:1003D00080819181A281B381B695A79597958795E4
:1003E00080839183A283B3838DE001C08FE3CF5FCD
:1003F000DD4FCDBFDEBFDF91CF911F910F91FF90F9
:10040000EF90DF90CF90BF90AF909F908F907F90B4
:100410006F905F904F903F902F900895EF92FF92D2
:100420001F93CF93DF937C01162FEA01653441F5CA
:100430008091CC01877F8093CC011E942A03888110
:100440009981AA81BB81682F6F7135E0B695A79518
:10045000979587953A95D1F71E94FC021E941B013F
:1004600088819981AA81BB810196A11DB11D8883D4
:100470009983AA83BB8381E0E81AF10801F760C081
:10048000663429F0653519F0603509F059C0888166
:100490009981AA81BB81880F991FAA1FBB1F8883DE
:1004A0009983AA83BB831634A9F4688179818A81F0
:1004B0009B811E9425041E941B0188819981AA8129
:1004C000BB81BC01CD016F5F7F4F8F4F9F4F1E944B
:1004D000250419C0153561F4888199811E9434046E
:1004E0001E941B018881998101961E9434040BC0CF
:1004F000103559F488811E9432041E941B018881A2
:100500008F5F1E9432041E941B011E949D0448812B
:1005100059816A817B814E5F5F4F6F4F7F4F488368
:1005200059836A837B8382E0E81AF10809F0BBCF24
:100530007695679557954795488359836A837B835A
:10054000DF91CF911F91FF90EF900895EF92FF926E
:100550000F931F93CF93DF93A8E4B0E06C919C912D
:100560008C91809589238C93C0EAD0E058814A8190
:100570008A81887F84608A832FB778948C91816088
:100580008C9380EC91E0FC013585EBECF1E0EE24FE
:10059000E394F12C08ED10E004BFE08273E0FC016D
:1005A000758788956C9358834A8335872FBFDF9171
:1005B000CF911F910F91FF90EF9008951F920F928E
:1005C0000FB60F9211240BB60F928F93EF93FF93F8
:1005D000E0ECF1E085858C7F8587FF91EF918F912D
:1005E0000F900BBE0F900FBE0F901F90189580912B
:1005F000CF0187FDFCCF0895CF93DF931F921F9209
:10060000CDB7DEB76A8389831E94F702898120E221
:10061000829FC00111246A816F71862BA0ECB1E02A
:100620008C9311969C93119712961C92129786E0C8
:100630001A968C931A97EBECF1E021E030E088ED0C
:1006400090E084BF208314968C910F900F90DF91DF
:10065000CF9108951E94F7028091CF0181FF0BC0C6
:1006600086E38093CA01EBECF1E021E030E088ED15
:1006700090E084BF20830895CF93DF9300D0CDB75F
:10068000DEB74B836A8389831E942A03E0ECF1E092
:1006900093E39287898120E2829FC00111246A81BD
:1006A0006F71862B8083918312824B81448385E313
:1006B00082872396CDBFDEBFDF91CF911C94A60227
:1006C000CF93DF931F921F92CDB7DEB76A838983E2
:1006D0001E94F702E0ECF1E093E392878981808336
:1006E000118212826A8164830F900F90DF91CF9103
:1006F0000895CF93DF93EC011E94F70283E3809378
:10070000CA011092C1011092C20190E09093C00101
:1007100089918093C4019F5F9032C1F7DF91CF919F
:100720000895CF93DF931F92CDB7DEB789831E94D0
:10073000F702898120E2829FC0011124E0ECF1E000
:1007400080839183128285E38287EBECF1E021E0E4
:1007500030E088ED90E084BF20830F90DF91CF914F
:100760000895CF93DF931F92CDB7DEB789831E9490
:10077000F702898120E2829FC0011124E0ECF1E0C0
:1007800080839183128282E382870F90DF91CF91E1
:100790001C94A602CF93DF931F92CDB7DEB7898357
:1007A0001E94F702898120E2829FC0011124E0ECAF
:1007B000F1E080839183128284E382870F90DF913E
:1007C000CF911C94A6021E94F70280E38093CA0185
:1007D0001C94A602E0E4F6E081818860818388E0D1
:1007E000858381818B7F81838289837E828B8289CD
:1007F0008C60828BE0EAF8E083E1868380EC87837B
:100800008CE1848308951092A4080895E0EAF4E04E
:1008100010828AE0808785E5838715860895109287
:10082000A804089588ED84BF8FE1809380008091B3
:10083000820080FDFCCF0895E0E8F0E080818C7FAD
:10084000816098ED94BF808308953BB78BBFFB0117
:1008500086913BBF08953BB78BBFFB018791969173
:100860003BBF089542E081C041E07FC08093C0015A
:1008700088278093C1018093C20147E066D0CB01F5
:1008800008958093C40148E060C08091D00108952C
:100890003BB748E11C9437073BB74AE11C94370744
:1008A0003BB740E21C9437073BB78BBFCB0142E21A
:1008B0001C9437073BB70B0143E21C9437073BB747
:1008C0006BBFFA0119BEDC0140E04093CA0150E061
:1008D000879197918D939D935A95D1F73BBF08953A
:1008E0003BB78BBFCB0144E21C9437073BB78BBFB0
:1008F000CB0145E21C9437073BB746E21C9437070F
:100900003BB78BBFCB014AE21C9437073BB78BBF89
:10091000CB014CE21C9437073BB78BBFCB014DE2B8
:100920001C94370748E311C049E30FC028ED20931A
:10093000340021E02093CC0108952091CF0127FDC0
:10094000FCCF22272093CA0108954093CA0128EDC5
:1009500031E0209334003093CB016091C401709159
:10096000C5018091C60199270895FC014093CA01F1
:1009700084910895AF92BF92CF92DF92EF92FF924F
:100980000F931F93CF93DF93CDB7DEB72597CDBFDE
:10099000DEBF2FE38DE093E0215080409040E1F7EF
:1009A00000C0000019821A821B821C821D821092D4
:1009B000002081E08093680098ED94BF90E49093CC
:1009C000A2008093A1068093A5061E94EA03EFE39C
:1009D000FDE023E0E150F0402040E1F700C00000DE
:1009E0008AE01E941B018DE01E941B0182E41E947C
:1009F0001B018FE41E941B018FE41E941B0184E5F0
:100A00001E941B018AE01E941B018DE01E941B01A5
:100A10008FE39DE0E3E081509040E040E1F700C0CB
:100A2000000010E039E2E32EF12C88EE93E001E0C3
:100A30006C01F1E0CF1AD1081816190664F0009382
:100A4000A70621E0E21AF1088EE21E941B0128EEAF
:100A5000C22E23E0D22E80E01E940A018D83482FFF
:100A600050E0212F30E02F593F4F4217530711F428
:100A70001F5F02C08111BBC11A3109F0B9C181E009
:100A800080930020FF24F3948AE01E941B0100E071
:100A900010E0BB24B394FF2009F4B1C1B092A706C3
:100AA00081E01E940A01982F8D83813611F489E527
:100AB0009BC18134A9F481E01E940A01F82E81E0E3
:100AC0001E940A014F2D50E060E070E0762F652FF4
:100AD000542F4427482B49835A836B837C831AC045
:100AE0008834D1F481E01E940A01A82E81E01E947E
:100AF0000A01C82ED12CE12CF12CFE2CED2CDC2C83
:100B0000CC24EA2881E01E940A01C82AC982DA822C
:100B1000EB82FC828DE068C1853639F519821A8234
:100B20001B821C8289819A81AB81BC810097A44081
:100B3000B105A0F41E949D0469817A818B819C810A
:100B40001E94540489819A81AB81BC819E5FAF4F12
:100B5000BF4F89839A83AB83BC83E4CFCE010596D4
:100B60001E9479031E94E303D5CF823629F489E5D8
:100B70001E941B0182E0FFC08234B9F481E01E9410
:100B80000A01082F81E01E940A0110E0102F0027AF
:100B9000082B81E01E940A018D83AE014F5F5F4FE9
:100BA000682FC8011E942B011FC18736B9F481E05C
:100BB0001E940A01082F81E01E940A0110E0102FF4
:100BC0000027082B81E01E940A018D83AE014F5F40
:100BD0005F4F682FC8011E940E0260CF823509F561
:100BE0001E949D0489819A81AB81BC81880F991FD5
:100BF000AA1FBB1FBC01CD016F5F7F4F8F4F9F4F5F
:100C00001E9425041E941B0189819A81AB81BC81AD
:100C1000BC01CD01660F771F881F991F1E94250404
:100C200064C0833631F481E01E940A01082F10E07D
:100C300071CF8334C9F481E01E940A01182B1E94ED
:100C40009D0489819A81B801880F991F1E945A04C6
:100C500089819A81AB81BC810196A11DB11D8983D7
:100C60009A83AB83BC8356CF8D36C1F489819A8138
:100C7000AB81BC810097A240B10508F0B4C01E94BE
:100C80009D0489819A81AB81BC81BC01CD01660F35
:100C9000771F881F991F1E9470043CCF8434A1F4E1
:100CA00081E01E940A01482F89819A81AB81BC8121
:100CB000682F6F7135E0B695A795979587953A950A
:100CC000D1F71E943C0313C08436E9F489819A81DC
:100CD000AB81BC81682F6F7125E0B695A79597957C
:100CE00087952A95D1F71E94FC021E941B018981D9
:100CF0009A81AB81BC810196A11DB11D89839A8324
:100D0000AB83BC83CBCE8C3641F41E949D0481E032
:100D10001E940A011E944104FDCE823729F41E94CC
:100D20009D041E94450460C0863421F41E949D04E5
:100D300080E00BC08E3421F41E949D0481E005C038
:100D4000813531F41E949D0482E01E9436044CC01B
:100D5000803509F4DFCE8C3409F4DCCE853421F4FF
:100D60008DE01E941B014BC0803711F483E53CC01D
:100D7000843729F48BE71E941B0180E035C088E896
:100D8000890F823010F0943521F481E01E940A011D
:100D9000C1CE9335A1F488E51E941B0182E41E9414
:100DA0001B018FE61E941B018FE61E941B0184E736
:100DB0001E941B018BE21E941B018BE215C096351D
:100DC00029F481E31E941B0186E30EC0933741F49E
:100DD00082E41E941B0188E91E941B018EE104C06D
:100DE0009B3109F45BCE8FE31E941B0157CE10E0BC
:100DF0001E141F0414F4C6011BCEF12C45CE8AE04C
:100E00001E941B01F8941E949D041E94030481E01B
:100E10008093A20688ED84BF1092A2001CBEE0E081
:100E2000F0E0199580E090E02596CDBFDEBFDF9120
:100E3000CF911F910F91FF90EF90DF90CF90BF90D7
:100E4000AF900895F894FFCFEE27FF2719BEDC017D
:100E500043E24093CA0150E02DE90D901D9020938C
:100E60003400E89532965A95C1F711240895FC0193
:100E70004093CA012DE920933400E89511243BBF2B
:020E80000895D3
:00000001FF
