:100000000C9474070C9495070C9495070C94950721
:100010000C9495070C9495070C9495070C949507F0
:100020000C9495070C9495070C9495070C949507E0
:100030000C9495070C941C4B0C9495070C94950705
:100040000C9495070C9495070C9495070C949507C0
:100050000C9495070C9495070C9495070C949507B0
:100060000C9495070C94B9100C9495070C94E81017
:100070000C9495070C9495070C9495070C94950790
:100080000C9495070C9495070C9495070C94950780
:100090000C9495070C9495070C9495070C94950770
:1000A0000C9495070C9495070C9495070C94950760
:1000B0000C9495070C9495070C944E4B0C94950753
:1000C0000C9495070C9495070C9495070C94950740
:1000D0000C9495070C9495070C9495070C94950730
:1000E0000C9495070C9495070C9495070C94950720
:1000F0000C9495070C9495070C9495070C94950710
:100100000C9495070C9495070C9495070C949507FF
:100110000C9495070C9495070C9495070C949507EF
:100120000C9495070C9495070C9495070C949507DF
:100130000C9495070C9495070C9495070C949507CF
:100140000C9495070C9495070C9495070C949507BF
:100150000C9495070C9495070C9495070C949507AF
:100160000C9495070C9495070C9495070C9495079F
:100170000C9495070C9495070C9495070C9495078F
:100180000C9495070C9495070C9495070C9495077F
:100190000C9495070C9495070C9495070C9495076F
:1001A0000C9495070C9495070C9495070C9495075F
:1001B0000C9495070C9495070C9495070C9495074F
:1001C0000C9495070C9495070C9495070C9495073F
:1001D0000C9495070C9495070C9495070C9495072F
:1001E0000C9495070C949507A516821896188218FA
:1001F000821882188218821882188218821882182F
:10020000821882188218821882188218821882181E
:10021000821882188218821882188218821882180E
:1002200082188218821882188218821882188218FE
:1002300082188218821882188218821882188218EE
:1002400082188218821882188218821882188218DE
:1002500082188218821882188218821882188218CE
:1002600082188218821882188218821882188218BE
:1002700082188218821882188218821882188218AE
:10028000821882188218821882188218821882189E
:10029000821882188218821882188218821882188E
:1002A000821882188218821882188218821882187E
:1002B000821882188218821882188218821882186E
:1002C000821882188218821882188218821882185E
:1002D000821882188218821882188218821882184E
:1002E000821882188218821882188218821882183E
:1002F000821882188218821882188218821882182E
:10030000821882188218821882188218821882181D
:10031000821882188218821882188218821882180D
:1003200082188218821882188218821882188218FD
:1003300082188218821882188218821882188218ED
:1003400082188218821882188218821882188218DD
:1003500082188218821882188218821882188218CD
:1003600082188218821882188218821882188218BD
:1003700082188218821882188218821882188218AD
:10038000821882188218821882188218821882189D
:10039000821882188218821882188218821882188D
:1003A000821882188218821882188218821882187D
:1003B000821882188218821882188218821882186D
:1003C000821882188218821882188218821882185D
:1003D000821882188218821882188218821882184D
:1003E0008218821882188218AC16B01682189618D5
:1003F000B7169618BE16C816CF16D31682189618BA
:10040000DA169618E116EB16F216F61682189618FA
:10041000FD16961804170E17151719178218961837
:1004200020179618271796183D1741178218961807
:10043000481796184F17591760176417821896189F
:100440006B17961872177C178317871782189618E0
:100450008E17961895179F17A617AA17AE179618F6
:1004600096189618B217B617961896189618C017B9
:100470009618CD17D117D517DC17E0179618E71780
:1004800096189618F117F517F91700189618961878
:1004900004189618081896180C189618101814189E
:1004A0001E18961896182218291896182D1896189E
:1004B0003418381896183C18401844184E189618D6
:1004C0009618961852188218821859185D1896189E
:1004D000821882188218821882188218821882184C
:1004E00061186518821882188218821869187018A5
:1004F00077187E18821882189618CC188F1AA31AAB
:100500008F1A8F1A8F1A8F1A8F1A8F1A8F1A8F1AA3
:100510008F1A8F1A8F1A8F1A8F1A8F1A8F1A8F1A93
:100520008F1A8F1A8F1A8F1A8F1A8F1A8F1A8F1A83
:100530008F1A8F1A8F1A8F1A8F1A8F1A8F1A8F1A73
:100540008F1A8F1A8F1A8F1A8F1A8F1A8F1A8F1A63
:100550008F1A8F1A8F1A8F1A8F1A8F1A8F1A8F1A53
:100560008F1A8F1A8F1A8F1A8F1A8F1A8F1A8F1A43
:100570008F1A8F1A8F1A8F1A8F1A8F1A8F1A8F1A33
:100580008F1A8F1A8F1A8F1A8F1A8F1A8F1A8F1A23
:100590008F1A8F1A8F1A8F1A8F1A8F1A8F1A8F1A13
:1005A0008F1A8F1A8F1A8F1A8F1A8F1A8F1A8F1A03
:1005B0008F1A8F1A8F1A8F1A8F1A8F1A8F1A8F1AF3
:1005C0008F1A8F1A8F1A8F1A8F1A8F1A8F1A8F1AE3
:1005D0008F1A8F1A8F1A8F1A8F1A8F1A8F1A8F1AD3
:1005E0008F1A8F1A8F1A8F1A8F1A8F1A8F1A8F1AC3
:1005F0008F1A8F1A8F1A8F1A8F1A8F1A8F1A8F1AB3
:100600008F1A8F1A8F1A8F1A8F1A8F1A8F1A8F1AA2
:100610008F1A8F1A8F1A8F1A8F1A8F1A8F1A8F1A92
:100620008F1A8F1A8F1A8F1A8F1A8F1A8F1A8F1A82
:100630008F1A8F1A8F1A8F1A8F1A8F1A8F1A8F1A72
:100640008F1A8F1A8F1A8F1A8F1A8F1A8F1A8F1A62
:100650008F1A8F1A8F1A8F1A8F1A8F1A8F1A8F1A52
:100660008F1A8F1A8F1A8F1A8F1A8F1A8F1A8F1A42
:100670008F1A8F1A8F1A8F1A8F1A8F1A8F1A8F1A32
:100680008F1A8F1A8F1A8F1A8F1A8F1A8F1A8F1A22
:100690008F1A8F1A8F1A8F1A8F1A8F1A8F1A8F1A12
:1006A0008F1A8F1A8F1A8F1A8F1A8F1A8F1A8F1A02
:1006B0008F1A8F1A8F1A8F1A8F1A8F1A8F1A8F1AF2
:1006C0008F1A8F1A8F1A8F1A8F1A8F1A8F1A8F1AE2
:1006D0008F1A8F1A8F1A8F1A8F1A8F1A8F1A8F1AD2
:1006E0008F1A8F1A8F1A8F1A8F1A8F1A8F1A8F1AC2
:1006F0008F1A8F1A8F1A8F1A8F1AD318D7188F1A2A
:10070000A31ADE18A31AE518EF18F618FA188F1AAC
:10071000A31A0119A31A0819121919191D198F1AE8
:10072000A31A2419A31A2B1935193C1940198F1A29
:10073000A31A4719A31A4E19A31A641968198F1A14
:10074000A31A6F19A31A7619801987198B198F1A92
:10075000A31A9219A31A9919A319AA19AE198F1AD3
:10076000A31AB519A31ABC19C619CD19D119A31A00
:10077000D519A31AA31AD919DD19E719A31AA31AAF
:10078000EE19A31AF819FC19001A071A0B1AA31A62
:10079000121AA31AA31A161A1A1AA31A1E1AA31A9D
:1007A000A31A221AA31A261AA31A2A1AA31A2E1A4D
:1007B000321A361AA31AA31A3A1AA31A411A451A58
:1007C000A31AA31A4C1AA31AA31A501A541A5E1A7F
:1007D000A31AA31AA31A621A8F1A8F1A691A6D1A0A
:1007E000A31A8F1A8F1A8F1A8F1A8F1A8F1A8F1AAD
:1007F0008F1A711A751A8F1A8F1A8F1A8F1A791AFF
:10080000801A871A8B1A8F1A8F1AA31A94244325D9
:10081000AD244325C6244325DF244325F82443255E
:10082000112543252A25432682264C268226552635
:1008300082265E26822667268226702682267926D2
:10084000B8272F28C9272F28DA272F28EB272F286A
:10085000FC272F280D282F281E28F5283429FE28AC
:10086000342907293429102934291929342922291E
:1008700034292B29E229662AF429662A072A662ABE
:100880001A2A662A2D2A662A402A662A532A172CF3
:10089000562C202C562C292C562C322C562C3B2CEA
:1008A000562C442C562C4D2C162DB62D2C2DB62DF9
:1008B000432DB62D5A2DB62D712DB62D882DB62D62
:1008C0009F2D372F762F402F762F492F762F522F9F
:1008D000762F5B2F762F642F762F6D2FFD30BE3055
:1008E0000631C7300F31D0301831D9302131E230E4
:1008F0002A31EB303331F430C7313E32D8313E3219
:10090000E9313E32FA313E320B323E321C323E3257
:100910002D32F73236330033363309333633123360
:1009200036331B333633243336332D33DC336034E4
:10093000EE3360340134603414346034273460346E
:100940003A3460344D344C358B3555358B355E3506
:100950008B3567358B3570358B3579358B358235F1
:100960007A438743A643B143CB43E543F54305446C
:100970000C94E0170C94001A0C94642F0C94840AC5
:100980000C9434290C94F9170C94712D0C94522F5B
:100990000C94882D0C94BE300C9444180C949F2D0C
:1009A0000C9434180C9460170C94762F0C948B19BB
:1009B0000C9409330C94F5280C9470180C94321A8A
:1009C0000C944D080C94CA0D0C94451A0C94691A99
:1009D0000C947C170C9464190C94292C0C942717F4
:1009E0000C94A70C0C9482350C94CB430C94662A7F
:1009F0000C9472170C94D1190C94DA270C9480196A
:100A00000C9433080C9492190C94E5430C94CD1774
:100A10000C94FD300C94B7160C942F280C940018ED
:100A20000C94C6240C942C2D0C94261A0C949F071D
:100A30000C94A5070C941B330C94F2160C94D3164B
:100A40000C9443260C942A1A0C94751A0C94D030EA
:100A50000C9400330C941D0D0C94AE150C94DD1900
:100A60000C94F6180C943A340C945E350C94DE0F0A
:100A70000C94B6110C9468190C94D3180C94E407D8
:100A80000C94AB070C947A430C941D190C94FC1134
:100A90000C94C0170C946F190C9408190C94AC1694
:100AA0000C9467350C941E180C941E280C94F82492
:100AB0000C94442C0C94801A0C9434100C946034D4
:100AC0000C94AD070C94501A0C94E2300C94D71887
:100AD0000C94600D0C9412330C94162D0C94CD0EC6
:100AE0000C949C150C9424190C9406310C94011947
:100AF0000C9422290C944C350C945C0B0C94B2177A
:100B00000C94200C0C94621A0C942C0A0C94EE3366
:100B10000C948B1A0C94562C0C94322C0C94930D30
:100B20000C9443080C942D180C94E5180C942B1974
:100B30000C9447190C943D170C94E7190C949424C9
:100B40000C94C7310C94FA180C94730E0C940B325D
:100B50000C94DE180C94EA110C94411A0C94510870
:100B60000C94D1170C94B62D0C94CC070C94EF1860
:100B70000C94E7170C9418080C94FD160C944F175E
:100B80000C94DA160C94AD240C9433310C94D831B7
:100B90000C94D9300C9439080C9474100C94C6073A
:100BA0000C944E540C9419170C94172C0C9401347B
:100BB0000C94071A0C94432D0C94361A0C944E186E
:100BC0000C94161A0C940F310C942D2A0C94D517F2
:100BD0000C94B5190C94FA310C942E1A0C94CC1870
:100BE0000C944C260C9469180C948F1A0C9495173D
:100BF0000C94E90F0C94AA190C9459170C943A1AF6
:100C00000C943C190C94871A0C94B3070C94B107FC
:100C10000C9429180C9467260C94EB160C94F43061
:100C20000C94221A0C940B1A0C9455350C94040F46
:100C30000C946B170C9496180C94CF160C942734C4
:100C40000C944D340C94B1430C9452180C942B29F1
:100C50000C943E320C945B2F0C94270F0C9405449B
:100C60000C94372F0C94ED0D0C949F170C94DF24EB
:100C70000C94FC270C9482120C94B8270C947926BF
:100C80000C945A2D0C94FC190C9487170C94C619CB
:100C90000C9420170C94700C0C9435190C949D072F
:100CA0000C94402A0C94F5170C9410180C941E1AEE
:100CB0000C9438180C9422180C948E170C94651808
:100CC0000C9410290C94AE170C94AF070C94532A73
:100CD0000C94B0160C941A1A0C9412190C94BE169B
:100CE0000C9407290C94A9070C94711A0C94541AAB
:100CF0000C9440190C9482260C9443250C94AA0E53
:100D00000C943B2C0C94E9310C94A7070C94E40A46
:100D10000C94A31A0C94EB300C94791A0C94213196
:100D20000C9482140C942A250C94F5430C94B5076A
:100D30000C94F8190C9414180C944D2C0C94E22972
:100D40000C945E1A0C943C180C946D1A0C94DC33C1
:100D50000C9414340C9487430C94D5120C943633B1
:100D60000C94B6170C9470350C94A5160C9455265B
:100D70000C94F1170C94A3070C942D320C941A2A9E
:100D80000C9440180C94EB270C9499190C941709A7
:100D90000C9419290C946D2F0C948B350C94C80B62
:100DA0000C94E1160C9441170C941C320C94F42909
:100DB0000C9404180C9487190C945E260C948D0FD7
:100DC0000C9478090C9411250C9477180C940E1738
:100DD0000C944E190C94202C0C94F7320C94702621
:100DE0000C9459180C9404170C947E180C945D18EC
:100DF0000C94320E0C9476190C945E0F0C94D51949
:100E00000C94CD190C94DC170C94D9190C94AE19D0
:100E10000C94402F0C9461180C9448170C940C18E7
:100E20000C9483170C9464170C94DE0C0C94FE281D
:100E30000C94A3190C94A6170C9482180C941010FF
:100E40000C94C8160C94C7300C94B6080C94F61683
:100E50000C944C1A0C9424330C9408180C943E12E5
:100E60000C942D330C9455080C94AA170C94EE197D
:100E70000C94C9270C9418310C9479350C941517DF
:100E80000C94A6430C94072A0C94BC190C94121AC7
:100E90000C942A310C940D280C94A1070C94191968
:100EA0000C94492F6364696E6F70737578585B009A
:100EB000BCE5ACC59C85960392C1912190961D031B
:100EC000ED01DCFDCCF5BCE5ACC5A86EBCE5ACC560
:100ED0009C85960392C1912190961D03ED01DCFD46
:100EE000CCF5BCE5ACC5A86E11241FBECFEFCDBFBD
:100EF000DFE3DEBF00E00CBF1AE3A0E0B0E2E6E310
:100F0000F6E101E00BBF02C007900D92AE38B107C9
:100F1000D9F71BE3AEE8BAE301C01D92A73FB107C2
:100F2000E1F70E9459810C94198B0C9400006150D8
:100F3000710981099109D9F7089580E0089580E049
:100F4000089580E0089580E0089580E0089580E0AD
:100F5000089580E0089580E0089580E0089580E09D
:100F6000089580E0089580E0089580915E21909139
:100F70005F2120919E3A30919F3A821B930B0196FC
:100F800080939E3A90939F3A80E0089510929E3A03
:100F900010929F3A80E00895E4E7F1E283A18F93F5
:100FA00082A18F9381A18F9380A18F9382E89BE28E
:100FB0009F938F930E94C9840F900F900F900F9072
:100FC0000F900F9080E00895CF93DF9300D01F9291
:100FD000CDB7DEB7CE010196AA2797FDA095BA2F0F
:100FE0004091ED3B5091EE3B4115510511F447EF17
:100FF0005BE3662757FD6095762F841B950BA60B48
:10100000B70BBF93AF939F938F9380E99BE29F931E
:101010008F930E94C9840F900F900F900F900F90A4
:101020000F9080E02496CDBFDEBFDF91CF91089571
:1010300080919F3A8F9380919E3A8F9385EA9BE2AD
:101040009F938F930E94C98480919E3A90919F3A7A
:10105000019680939E3A90939F3A0F900F900F9035
:101060000F9080E0089589EA9BE20E94E38480E08B
:101070000895682F8091C0249091C1240E94855CBE
:1010800080E090E0089583EC9BE30E94F31A87EBE5
:101090009BE20E94E38480E0089583EC9BE30C9440
:1010A000F31A8BEE9BE30C94F31ACF934091F82341
:1010B0005091F9236091FA237091FB238091D423FE
:1010C0009091D523A091D623B091D72341155105F6
:1010D00061057105D9F481309105A105B10531F49F
:1010E00083EC9BE30E94D61FC82F35C00297A10551
:1010F000B10531F48BEE9BE30E94D61FC82F2BC0A5
:1011000082EC9BE20E94E38481E02EC08130910555
:10111000A105B10531F483EC9BE30E948D1FC82F1C
:101120001AC082309105A105B10531F48BEE9BE325
:101130000E948D1FC82F0FC00397A105B10501F7AD
:1011400083E08093DB2483EC9BE30E948D1FC82FF8
:1011500081E08093DB24CC2331F085EE9BE20E947A
:10116000E3848C2F01C080E0CF910895CF9340910C
:101170000A2450910B2460910C2470910D248091CD
:10118000D4239091D523A091D623B091D723411594
:10119000510561057105D9F481309105A105B105AD
:1011A00031F483EC9BE30E948420C82F35C0029762
:1011B000A105B10531F48BEE9BE30E948420C82F7A
:1011C0002BC082EC9BE20E94E38481E02EC0813040
:1011D0009105A105B10531F483EC9BE30E943B200E
:1011E000C82F1AC082309105A105B10531F48BEEEC
:1011F0009BE30E943B20C82F0FC00397A105B105B8
:1012000001F783E08093DB2483EC9BE30E943B2087
:10121000C82F81E08093DB24CC2331F085EE9BE264
:101220000E94E3848C2F01C080E0CF910895CF937A
:1012300040911C2450911D2460911E2470911F2404
:101240008091D4239091D523A091D623B091D72318
:101250004115510561057105D9F481309105A1054C
:10126000B10531F483EC9BE30E944821C82F35C0BF
:101270000297A105B10531F48BEE9BE30E94482152
:10128000C82F2BC082EC9BE20E94E38481E02EC039
:1012900081309105A105B10531F483EC9BE30E94F7
:1012A000FF20C82F1AC082309105A105B10531F485
:1012B0008BEE9BE30E94FF20C82F0FC00397A10570
:1012C000B10501F783E08093DB2483EC9BE30E946C
:1012D000FF20C82F81E08093DB24CC2331F083E012
:1012E0009CE20E94E3848C2F01C080E0CF9108959E
:1012F0001F93CF93DF931F92CDB7DEB740912E247B
:1013000050912F2460913024709131248091D42306
:101310009091D523A091D623B091D723452B462B6E
:10132000472BF9F481309105A105B10531F483EC27
:101330009BE30E945A23182F81C00297A105B10593
:1013400051F48BEE9BE30E945A23182F77C003972A
:10135000A105B105B1F182EC9BE20E94E38481E03A
:1013600076C081309105A105B10599F483EC9BE32A
:101370000E94B02140912E2450912F24609130245E
:1013800070913124282F83EC9BE30E94C921182FF0
:1013900055C082309105A105B105C9F683EC9BE3E8
:1013A0000E94B02140912E2450912F24609130242E
:1013B00070913124282F8BEE9BE30E94C921182FB6
:1013C0003DC083E08093DB2483EC9BE30E94B0214B
:1013D000282F1F928F9381E29CE29F938F93298302
:1013E0000E94C9848BEE9BE30E94B021182F1F92AC
:1013F0008F938DE29CE29F938F930E94C984CDBF0F
:10140000DEBF2981211751F089E39CE29F938F93DE
:101410000E94C9840F900F9083E019C040912E2440
:1014200050912F24609130247091312483EC9BE300
:101430000E94C921182F81E08093DB24112331F011
:1014400083E09CE20E94E384812F01C080E00F9042
:10145000DF91CF911F910895CF93409140245091F7
:10146000412460914224709143248091D42390912F
:10147000D523A091D623B091D723411551056105FD
:101480007105F9F481309105A105B10541F4609130
:10149000E62383EC9BE30E940726C82F2AC002970D
:1014A000A105B10541F46091E6238BEE9BE30E9418
:1014B0000726C82F1EC082EC9BE20E94E38481E0D5
:1014C00021C081309105A105B10541F42091E623A9
:1014D00083EC9BE30E944C24C82F0BC00297A1050C
:1014E000B10549F72091E6238BEE9BE30E944C2443
:1014F000C82FCC2331F086E59CE20E94E3848C2F38
:1015000001C080E0CF910895CF9340915224509133
:10151000532460915424709155248091D423909148
:10152000D523A091D623B091D7234115510561054C
:10153000710559F581309105A105B10571F440910E
:10154000E6235091E7236091E8237091E92383EC2F
:101550009BE30E94F526C82F2CC00297A105B10578
:1015600071F44091E6235091E7236091E823709154
:10157000E9238BEE9BE30E94F526C82F1AC082EC6C
:101580009BE20E94E38481E01DC081309105A105AA
:10159000B10531F483EC9BE30E94AB26C82F09C050
:1015A0000297A105B10559F78BEE9BE30E94AB268C
:1015B000C82FCC2331F088E79CE20E94E3848C2F73
:1015C00001C080E0CF9108950F931F9300913223C3
:1015D00060915623409168232091B0238091442349
:1015E00090914523A0914623B09147230097A105F0
:1015F000B10539F58091202390912123A0912223D8
:10160000B091232381309105A105B10541F4602FEC
:1016100070E083EC9BE30E94DB2B182F41C0029704
:10162000A105B10541F4602F70E08BEE9BE30E94B1
:10163000DB2B182F35C082EC9BE20E94E38481E013
:1016400038C00197A105B10529F58091202390911B
:101650002123A0912223B091232381309105A1055C
:10166000B10551F410E030E050E070E083EC9BE312
:101670000E946429182F14C00297A105B105D9F65C
:1016800010E030E050E070E08BEE9BE30E946429B4
:10169000182F06C081EA9CE20E94E38411E002C098
:1016A000112331F088ED9CE20E94E384812F01C078
:1016B00080E01F910F910895CF9320913223609184
:1016C0005623409168238091C2239091C323A09117
:1016D000C423B091C5230097A105B10539F58091C8
:1016E000202390912123A0912223B09123238130A4
:1016F0009105A105B10541F4622F70E083EC9BE3F5
:101700000E94FB2EC82F39C00297A105B10541F4F4
:10171000622F70E08BEE9BE30E94FB2EC82F2DC042
:1017200082EC9BE20E94E38481E030C00197A10536
:10173000B105E9F48091202390912123A0912223E7
:10174000B091232381309105A105B10531F483ECDB
:101750009BE30E94982CC82F10C00297A105B105E9
:10176000F9F68BEE9BE30E94982CC82F06C081EA05
:101770009CE20E94E384C1E002C0CC2331F088EDFA
:101780009CE20E94E3848C2F01C080E0CF910895F9
:10179000CF9340917A2350917B2360917C23709169
:1017A0007D238091202390912123A0912223B09129
:1017B00023234115510561057105F9F48130910527
:1017C000A105B10541F46091322383EC9BE30E94B3
:1017D000B928C82F2AC00297A105B10541F460912C
:1017E00032238BEE9BE30E94B928C82F1EC082ECE7
:1017F0009BE20E94E38481E021C081309105A10534
:10180000B10541F42091322383EC9BE30E945D27D4
:10181000C82F0BC00297A105B10549F720913223CB
:101820008BEE9BE30E945D27C82FCC2331F088ED1F
:101830009CE20E94E3848C2F01C080E0CF91089548
:10184000CF9340918C2350918D2360918E23709182
:101850008F238091202390912123A0912223B09166
:1018600023234115510561057105D9F48130910596
:10187000A105B10531F483EC9BE30E941D30C82F14
:1018800024C00297A105B10531F48BEE9BE30E94C1
:101890001D30C82F1AC082EC9BE20E94E38481E0D5
:1018A0001DC081309105A105B10531F483EC9BE3A6
:1018B0000E94B82FC82F09C00297A105B10559F79A
:1018C0008BEE9BE30E94B82FC82FCC2331F08CEF16
:1018D0009CE20E94E3848C2F01C080E0CF910895A8
:1018E000CF938091202390912123A0912223B09126
:1018F000232381309105A105B10551F44091322394
:1019000060919E2383EC9BE30E948530C82F14C016
:101910000297A105B10551F44091322360919E23B5
:101920008BEE9BE30E948530C82F06C082EC9BE2C1
:101930000E94E38481E009C0CC2331F08CEF9CE26B
:101940000E94E3848C2F01C080E0CF910895CF9353
:101950004091C6226091D8228091B4229091B52204
:10196000A091B622B091B72281309105A105B105B1
:1019700041F450E070E083EC9BE30E945F33C82F9A
:1019800012C00297A105B10541F450E070E08BEE62
:101990009BE30E945F33C82F06C082EC9BE20E944B
:1019A000E38481E009C0CC2331F087E29DE20E940C
:1019B000E3848C2F01C080E0CF910895CF93809174
:1019C000B4229091B522A091B622B091B722813075
:1019D0009105A105B10571F44091C6225091C7222D
:1019E0006091C8227091C92283EC9BE30E9410355C
:1019F000C82F18C00297A105B10571F44091C62205
:101A00005091C7226091C8227091C9228BEE9BE34E
:101A10000E941035C82F06C082EC9BE20E94E3842E
:101A200081E009C0CC2331F088ED9CE20E94E38480
:101A30008C2F01C080E0CF910895CF938091B42284
:101A40009091B522A091B622B091B7228130910534
:101A5000A105B10581F44091FC225091FD226091D5
:101A6000FE227091FF222091C62283EC9BE30E940C
:101A70008331C82F1AC00297A105B10581F44091A6
:101A8000FC225091FD226091FE227091FF22209154
:101A9000C6228BEE9BE30E948331C82F06C082ECE6
:101AA0009BE20E94E38481E009C0CC2331F087E20D
:101AB0009DE20E94E3848C2F01C080E0CF910895C5
:101AC000CF938091B4229091B522A091B622B0918B
:101AD000B72281309105A105B10541F46091C6227C
:101AE00083EC9BE30E94BB32C82F12C00297A10572
:101AF000B10541F46091C6228BEE9BE30E94BB329C
:101B0000C82F06C082EC9BE20E94E38481E009C0FA
:101B1000CC2331F08AE49DE20E94E3848C2F01C043
:101B200080E0CF910895CF938091A6219091A72135
:101B3000A091A821B091A92181309105A105B105FD
:101B400051F46091B8217091B9218FEA9BE30E9412
:101B50000641C82F14C00297A105B10551F4609148
:101B6000B8217091B9218FEB9BE30E940641C82FE9
:101B700006C08EE69DE20E94E38481E009C0CC238A
:101B800031F080E99DE20E94E3848C2F01C080E067
:101B9000CF9108958091A6219091A721A091A8218D
:101BA000B091A92181309105A105B10531F48FEAE9
:101BB0009BE30E943B4180E008950297A105B10597
:101BC00031F48FEB9BE30E943B4180E008958EE669
:101BD0009DE20E94E38481E00895CF938091DC210F
:101BE0009091DD21A091DE21B091DF21892B8A2BFC
:101BF0008B2B51F080EB9DE29F938F930E94C984C1
:101C00000F900F9081E02CC08091A6219091A72188
:101C1000A091A821B091A92181309105A105B1051C
:101C200031F48FEA9BE30E945342C82F10C0029701
:101C3000A105B10531F48FEB9BE30E945342C82FFD
:101C400006C08EE69DE20E94E38481E009C0CC23B9
:101C500031F08EEC9DE20E94E3848C2F01C080E085
:101C6000CF910895CF938091EE219091EF21A09193
:101C7000F021B091F121892B8A2B8B2B31F080EB55
:101C80009DE20E94E38481E02CC08091A621909186
:101C9000A721A091A821B091A92181309105A1058A
:101CA000B10531F48FEA9BE30E948D42C82F10C02A
:101CB0000297A105B10531F48FEB9BE30E948D42A1
:101CC000C82F06C08EE69DE20E94E38481E009C031
:101CD000CC2331F08CEE9DE20E94E3848C2F01C076
:101CE00080E0CF910895CF938091A6219091A72174
:101CF000A091A821B091A92181309105A105B1053C
:101D000051F460910022709101228FEA9BE30E94BE
:101D10006941C82F14C00297A105B10551F4609123
:101D20000022709101228FEB9BE30E946941C82F32
:101D300006C08EE69DE20E94E38481E009C0CC23C8
:101D400031F08AE09EE20E94E3848C2F01C080E0A3
:101D5000CF9108958091A6219091A721A091A821CB
:101D6000B091A92181309105A105B10531F48FEA27
:101D70009BE30E949E4180E008950297A105B10572
:101D800031F48FEB9BE30E949E4180E008958EE644
:101D90009DE20E94E38481E00895CF938091A62183
:101DA0009091A721A091A821B091A92181309105FE
:101DB000A105B10551F460912422709125228FEA8A
:101DC0009BE30E94CC41C82F14C00297A105B10526
:101DD00051F460912422709125228FEB9BE30E94A5
:101DE000CC41C82F06C08EE69DE20E94E38481E0CC
:101DF00009C0CC2331F08CE29EE20E94E3848C2F58
:101E000001C080E0CF9108958091A6219091A721F3
:101E1000A091A821B091A92181309105A105B1051A
:101E200031F48FEA9BE30E94254280E008950297F7
:101E3000A105B10531F48FEB9BE30E94254280E0C0
:101E400008958EE69DE20E94E38481E00895CF9399
:101E50008091A6219091A721A091A821B091A921BC
:101E600081309105A105B10551F46091482270912E
:101E700049228FEA9BE30E94D542C82F14C00297E3
:101E8000A105B10551F460914822709149228FEB70
:101E90009BE30E94D542C82F06C08EE69DE20E94B9
:101EA000E38481E009C0CC2331F08CEE9DE20E94F6
:101EB000E3848C2F01C080E0CF910895CF9380916F
:101EC000A6219091A721A091A821B091A9218130AC
:101ED0009105A105B10531F48FEA9BE30E941843F7
:101EE000C82F10C00297A105B10531F48FEB9BE319
:101EF0000E941843C82F06C08EE69DE20E94E3842C
:101F000081E009C0CC2331F08CEE9DE20E94E38495
:101F10008C2F01C080E0CF910895CF9380918221D2
:101F200090918321A0918421B0918521892B8A2BC6
:101F30008B2BA9F083EC9BE30E94CE1CC82F83EC73
:101F40009BE30E943C1CC80F8BEE9BE30E94771E14
:101F5000C80F8BEE9BE30E94FB1DC80F0AC083ECE9
:101F60009BE30E94CD35C82F8BEE9BE30E94CD35BD
:101F7000C80FCC2341F08CE49EE29F938F930E9484
:101F8000C9840F900F90809185218F938091842137
:101F90008F93809183218F93809182218F9384E509
:101FA0009EE29F938F930E94C9840F900F900F9091
:101FB0000F900F900F908C2FCF91089582E69EE2A4
:101FC0000E94E384409162206CE080E090E20C94F7
:101FD0001980CF936091AC247091AD248DEA9BE37E
:101FE0000E94CE3AC82F8823C1F08091AF248F93EE
:101FF0008091AE248F938091AD248F938091AC24F7
:102000008F938FE69EE29F938F930E94C9840F90D7
:102010000F900F900F900F900F908C2FCF910895ED
:102020008091882490918924A0918A24B0918B2456
:1020300021E00097A105B10519F02093A50602C083
:102040002093A606BF93AF939F938F9388E99EE258
:102050009F938F930E94C9840F900F900F900F90C1
:102060000F900F9080E0089580916C2290916D22E6
:10207000A0916E22B0916F2281309105A105B1052A
:1020800039F460917E2270917F2283EC9BE30AC039
:102090000297A105B10511F560917E2270917F2212
:1020A0008BEE9BE30E94451B1F928F9388EA9EE272
:1020B0009F938F930E94C9840F900F900F900F9061
:1020C00083E090E0A0E0B0E080936C2290936D22DA
:1020D000A0936E22B0936F2280E0089582EC9BE281
:1020E0000E94E38481E00895CF9380916C229091C7
:1020F0006D22A0916E22B0916F2281309105A105D1
:10210000B10561F460919022709191224091A222D8
:1021100083EC9BE30E94F71BC82F16C00297A10512
:10212000B10561F460919022709191224091A222B8
:102130008BEE9BE30E94F71BC82F06C082EC9BE24C
:102140000E94E38481E013C0CC2321F089EB9EE25E
:102150000E94E38483E090E0A0E0B0E080936C22F2
:1021600090936D22A0936E22B0936F228C2FCF910B
:1021700008951F920F920FB60F9211240BB60F9273
:102180002F933F934F935F936F937F938F939F937F
:10219000AF93BF93EF93FF9320E040E050E060E007
:1021A00070E082EC94E20E94735AFF91EF91BF912C
:1021B000AF919F918F917F916F915F914F913F91DF
:1021C0002F910F900BBE0F900FBE0F901F90189580
:1021D0001F920F920FB60F9211240BB60F922F93EE
:1021E0003F934F935F936F937F938F939F93AF939F
:1021F000BF93EF93FF9382EC94E20E94E45AFF9125
:10220000EF91BF91AF919F918F917F916F915F916E
:102210004F913F912F910F900BBE0F900FBE0F90DB
:102220001F9018951F93CF93DF9380915000826089
:10223000809350008091510081FFFCCF98ED94BFB6
:1022400081E08093400017E01093A200F89494BFBF
:102250008093960061E08FE395E20E947A51C82F47
:1022600065E08CE095E20E949152C80F23E641E0C0
:1022700060EA7AE388EB9BE30E94457123E641E044
:1022800064E07BE385EC9BE30E94457161E082ECB6
:1022900094E20E94175BD82F60E08AE495E20E94E6
:1022A0008A478C0FC82FCD0F1093A2008091A200F7
:1022B00080688093A20078940E9478708AE00E94DF
:1022C000117020E148E061E080E092E00E94306B14
:1022D00020E149E062E080E092E00E94306B8C2FC8
:1022E000DF91CF911F910895CF938130E1F540E1C7
:1022F00060E070E083EC9BE30E94F71BC82F4FE384
:102300006FE571E083EC9BE30E94F71BC80F40E18F
:1023100060E070E08BEE9BE30E94F71BC80F4FE379
:102320006FE571E08BEE9BE30E94F71BC80F83EC17
:102330009BE30E94CE1CC80F83EC9BE30E943C1CD5
:10234000C80F8BEE9BE30E94771EC80F8BEE9BE3BA
:102350000E94FB1DC80F63E070E083EC9BE30E94CA
:10236000451B8C2F01C081E0CF9108958091DB2423
:102370000E947411882341F08DED9EE29F938F930C
:102380000E94C9840F900F908091DB241F928F933D
:1023900086EF9EE29F938F930E94C9840F900F90C7
:1023A0000F900F9080E00895E0EAF6E084E08683E5
:1023B00082E086830E94CF7063E070E083EC9BE351
:1023C0000E94451B63E070E08BEE9BE30E94451B7F
:1023D00080E008950E94D411882341F08CE49EE2AD
:1023E0009F938F930E94C9840F900F9086E09FE285
:1023F0000E94E38480E00895CF9385E19FE20E94EC
:10240000E3840E94D411C82F882341F08CE39FE21B
:102410009F938F930E94C9840F900F908C2FCF9120
:10242000089580E0089580E0089587E59FE20E9486
:10243000E3848CE69FE29F938F9382E79FE29F93D2
:102440008F930E94C98487E89FE29F938F938BE9C3
:102450009FE29F938F930E94C98481EB9FE29F9399
:102460008F9385EC9FE29F938F930E94C9848DB7D1
:102470009EB70C968DBF9EBF80E008950E941512F6
:10248000882341F08CE49EE29F938F930E94C9843D
:102490000F900F908EED9FE20E94E38480E00895FC
:1024A000CF93DF931F921F92CDB7DEB7AE014F5F80
:1024B0005F4F61E080E092E00E94D86B8A818F9349
:1024C00089818F938EEE9FE29F938F930E94C984A0
:1024D000AE014F5F5F4F62E080E092E00E94D86BF8
:1024E0008A818F9389818F938CEF9FE29F938F9343
:1024F0000E94C984CDBFDEBF80E00F900F90DF91B6
:10250000CF9108950E945012882341F08AE090E311
:102510009F938F930E94C9840F900F9080E390E364
:102520000E94E38480E00895CF92DF92EF92FF92C1
:102530000F931F93CF93DF938B3068F5062F06958B
:102540000695069590E2099F800111241A5F677035
:1025500021E030E07901062E01C0EE0C0A94EAF782
:10256000CE2CF801E682C82FD0E0CC0FDD1FD12C95
:102570008D2D90E08C179D0754F465E176E185E0A0
:1025800090E00E949707F801C782D394F1CFF80139
:10259000E68280E001C081E0DF91CF911F910F9131
:1025A000FF90EF90DF90CF9008956CE2809116211C
:1025B0000E949412882341F081E490E39F938F93CB
:1025C0000E94C9840F900F901F928CE28F9380918C
:1025D00019218F93809118218F93809117218F93C8
:1025E000809116218F9389E490E39F938F930E94AB
:1025F000C9848DB79EB708968DBF9EBF80E00895B1
:10260000EF92FF920F931F93CF93DF93C0E0D0E040
:102610003BE5E32E30E3F32E04E610E3CE018370B6
:102620009927892B51F4DF93CF93FF92EF920E9469
:10263000C9840F900F900F900F906C2F8FEA9BE33F
:102640000E94C640880F892F881F990B91959F93F0
:102650008F931F930F930E94C98421960F900F9020
:102660000F900F90C830D105C9F68AE090E0DF9155
:10267000CF911F910F91FF90EF900C94DD84EF921A
:10268000FF920F931F93CF93DF93C0E0D0E03BE521
:10269000E32E30E3F32E04E610E3CE018370992796
:1026A000892B51F4DF93CF93FF92EF920E94C9845C
:1026B0000F900F900F900F906C2F8FEB9BE30E9469
:1026C000C640880F892F881F990B91959F938F93F0
:1026D0001F930F930E94C98421960F900F900F9023
:1026E0000F90C830D105C9F68AE090E0DF91CF9114
:1026F0001F910F91FF90EF900C94DD84EF92FF9269
:102700000F931F93CF93DF938DE690E30E94E384B2
:10271000C0E0D0E00AE710E39BE5E92E90E3F92E54
:10272000CE0103978D3F9105F0F0CE01837099277C
:10273000892B51F4DF93CF93FF92EF920E94C984CB
:102740000F900F900F900F90BE0183EC9BE30E94BF
:10275000451B1F928F931F930F930E94C9840F9064
:102760000F900F900F902196C83881E0D807C1F6DE
:1027700082E890E30E94E384C0E0D0E00AE710E33F
:102780008BE5E82E80E3F82ECE0103978D3F91056F
:10279000F0F0CE0183709927892B51F4DF93CF930A
:1027A000FF92EF920E94C9840F900F900F900F90AC
:1027B000BE018BEE9BE30E94451B1F928F931F93DC
:1027C0000F930E94C9840F900F900F900F90219645
:1027D000C83881E0D807C1F68AE090E0DF91CF9158
:1027E0001F910F91FF90EF900C94DD84CF93DF93B6
:1027F0008EE890E30E94E384C0E8D6E0888581708B
:102800001F928F938BEA90E39F938F930E94C984CA
:102810008885829581701F928F9387EC90E39F93B8
:102820008F930E94C98461E08FEA9BE30E94C640B7
:102830009F938F9382EE90E39F938F930E94C9841E
:1028400061E08FEA9BE30E94C6409F938F9382E0F2
:1028500091E39F938F930E94C98461E08FEB9BE388
:102860000E94C6409F938F9381E291E39F938F9341
:102870000E94C98461E08FEB9BE30E94C6409F9356
:102880008F9380E491E39F938F930E94C98463E0C8
:1028900070E083EC9BE30E94451B1F928F938FE5B2
:1028A00091E39F938F930E94C98463E070E08BEE65
:1028B0009BE30E94451B1F928F938EE791E39F93AA
:1028C0008F930E94C9848DB79EB780968DBF9EBF9F
:1028D0008AE090E00E94DD840E947E138AE090E00E
:1028E0000E94DD848CE991E30E94E3840E9400133E
:1028F00081EB91E30E94E3840E943F1380E0DF912B
:10290000CF9108950E94F613882341F08CE49EE253
:102910009F938F930E94C9840F900F9086EC91E350
:102920000E94E38480E00895ECE0F5E290E0A48169
:10293000B5812C91281307C02AE0929FC001112471
:10294000845F9A4D08959F5F3A96953081F780E0B5
:1029500090E008959F92AF92BF92CF92DF92EF9254
:10296000FF920F931F93CF93DF9300EA16E081E06D
:10297000F8018183868390E8E92E96E0F92E22E023
:10298000A22EF701A182A58230E2B32EB182B582D8
:102990008283D4E0D183D68388E08183858340E13C
:1029A000942E928280E48183868380E8818385836C
:1029B0006AE07BE882E090E00E949707F801D1830B
:1029C000D5836AE27CE28AE090E00E949707F801F2
:1029D000A182A58265E377EB8CE090E00E949707E7
:1029E00020E235E248EA5BE363EB7BE38DEA9BE3BD
:1029F0000E94C537C82F8DEA9BE30E94F437C80FA9
:102A000060E08DEA9BE30E94273CC80F8DEA9BE3C0
:102A10000E94B738C80F64E476E08DEA9BE30E9419
:102A2000CE3AC80F8CE10E9494148C0128EA3BE353
:102A300043EB5BE361EB74E28FEA9BE30E940140AE
:102A4000C80F8FEA9BE30E944B40C80F50E6C52E8B
:102A500056E0D52EF6019682958288E10E94941464
:102A60009C0148EA5BE363EB7BE383EC9BE30E941E
:102A7000B61AC80FF701A68265E372E880E090E01D
:102A80000E94970783EC9BE30E94151BC80F65E328
:102A900072E880E090E00E9497078DE10E94941414
:102AA0008C0128EA3BE343EB5BE360EB74E28FEBE2
:102AB0009BE30E940140C80F8FEB9BE30E944B40B9
:102AC000C80FF601B682B58289E10E9494149C0178
:102AD00048EA5BE363EB7BE38BEE9BE30E94B61A71
:102AE000C80FF701B68265E372E880E090E00E94CB
:102AF00097078BEE9BE30E94151BC80F65E372E8F6
:102B000080E090E00E949707D09326068C2FDF91FB
:102B1000CF911F910F91FF90EF90DF90CF90BF90DA
:102B2000AF909F9008950E94AA14E0EAF6E094E026
:102B3000968392E0968308950E949315882341F02E
:102B40008CE49EE29F938F930E94C9840F900F9014
:102B500083ED91E30E94E38480E008950E94AA142B
:102B6000882341F08CE49EE29F938F930E94C98456
:102B70000F900F9080EE91E30E94E38480E008952F
:102B8000843689F583E090E0A0E0B0E080932023D4
:102B900090932123A0932223B09323238FE090E0EE
:102BA000A0E0B0E08093322390933323A0933423AA
:102BB000B093352310925623109257231092582326
:102BC00010925923109268231092692310926A235D
:102BD00010926B2310929E2310929F231092A02399
:102BE0001092A12358C08037C9F483E090E0A0E0A0
:102BF000B0E08093D4239093D523A093D623B093B1
:102C0000D7238FE090E0A0E0B0E08093E62390939C
:102C1000E723A093E823B093E9233DC0823669F40B
:102C200083E090E0A0E0B0E080936C2290936D226E
:102C3000A0936E22B0936F222EC0813661F583E09F
:102C400090E0A0E0B0E08093B4229093B522A093EE
:102C5000B622B093B7228FE090E0A0E0B0E080937E
:102C6000C6229093C722A093C822B093C92281E1C3
:102C700090E0A0E0B0E08093D8229093D922A09376
:102C8000DA22B093DB228093FC229093FD22A09362
:102C9000FE22B093FF2280E0089580E0089580E056
:102CA00008951092A6211092A7211092A8211092A7
:102CB000A92180E008958DEE91E39F938F930E9468
:102CC000C9840F900F9080E008950F931F938A019D
:102CD0002CE040E050E20E943A7981508D3070F44F
:102CE00040E06CE080E090E20E94198085E092E391
:102CF0009F938F930E94C9840F900F9080E01F9143
:102D00000F910895CF93DF9300D000D0CDB7DEB7F9
:102D10008B839C836D837E83198281E08A838D817E
:102D20009E81CC01A0E0B0E040E050E028E831E036
:102D3000841B950B2817390708F4E4C1FC01882788
:102D4000EC50FF4F8F4F0C944683898180688983B4
:102D5000898180618983EBC1898188608983E7C12A
:102D6000898180658983898185608983E0C18981C2
:102D700082608983898180628983D9C189818061E8
:102D80008983898180628983898180648983CFC1B5
:102D9000898185608983898180658983C8C18981AA
:102DA00088608983C4C189818065898389818560C0
:102DB0008983BDC189818260898389818062898399
:102DC000B6C1898180618983898180628983898193
:102DD00080648983ACC189818660898389818065AB
:102DE0008983A5C1898188608983A1C18981806522
:102DF00089838981856089839AC189818260898379
:102E000089818062898393C1898180618983898175
:102E10008062898389818064898389C18981866090
:102E2000898389818065898382C18981886089835A
:102E30007EC189818065898389818560898377C125
:102E400089818260898389818062898370C1898157
:102E5000886089838981806189838981806289838F
:102E6000898180648983898180688983898184607C
:102E700089838981816089835AC189818860898336
:102E800056C18981806589838981856089834FC125
:102E900089818260898389818062898348C189812F
:102EA0008061898389818062898389818064898343
:102EB0003EC189818660898389818066898337C123
:102EC00089818860898333C189818065898389810B
:102ED000856089832CC18981826089838981806230
:102EE000898325C189818061898389818062898301
:102EF0008981806489831BC18981866089838981F6
:102F00008066898314C189818860898310C1898121
:102F10008065898389818560898309C1898182600F
:102F2000898389818062898302C1898180618983E3
:102F3000898180628983898180648983F8C08981DD
:102F400085608983898180658983F1C089818160F9
:102F50008983EDC0898182608983E9C08981886025
:102F60008983E5C0898183608983E1C0898181602B
:102F70008983898182608983898180618983D7C0BF
:102F80008981826089838981846089838981806164
:102F90008983898180648983CAC089818F67898395
:102FA000C6C0898180618983C2C089818860898324
:102FB000898180618983BBC0898182608983B7C030
:102FC000898180648983898182608983B0C0898195
:102FD0008260898389818460898389818061898312
:102FE000A6C08981806C8983A2C089818F6789830B
:102FF0009EC089818160898389818260898397C02D
:1030000089818260898393C08981816089838FC02F
:103010008981816089838BC089818160898387C030
:1030200089818A60898383C089818A608983898153
:10303000806189838981806C898379C0898180627C
:10304000898375C089818360898389818863898345
:103050006EC08981816089836AC089818460898327
:1030600089818062898363C089818C6089835FC024
:103070008981846E89835BC089818360898357C01D
:1030800089818963898353C089818160898389812A
:103090008861898389818064898349C0898180624C
:1030A000898345C089818360898389818860898318
:1030B0003EC089818A6A89833AC089818260898316
:1030C00036C089818561898332C089818363898320
:1030D0002EC089818460898389818260898327C029
:1030E00089818460898389818260898320C0898104
:1030F0008064898389818061898319C089818D6019
:10310000898315C019821A828E818F938D818F9346
:103110008BE495E2892F8F938BE495E28F930E9445
:10312000C9840F900F900F900F9001C000008A810A
:10313000882341F02D813E818B819C814981B90199
:103140000E94F71B89812696CDBFDEBFDF91CF910C
:103150000895CF93DF9300D000D0CDB7DEB78B8337
:103160009C836D837E83198281E08A838D819E8119
:10317000CC01A0E0B0E040E050E028E831E0841B62
:10318000950B2817390708F4CAC1FC018827E358B2
:10319000FD4F8F4F0C944683898180688983898194
:1031A00080618983D1C1898188608983CDC189810A
:1031B00080658983898185608983C6C189818260B0
:1031C0008983898180628983BFC189818061898384
:1031D000898180628983898180648983B5C189817D
:1031E00085608983898180658983AEC18981886092
:1031F0008983AAC189818065898389818560898362
:10320000A3C18981826089838981806289839CC10D
:1032100089818061898389818062898389818064D1
:10322000898392C18981866089838981806189834C
:103230008BC189818860898387C189818065898301
:1032400089818560898380C1898182608983898140
:103250008062898379C18981806189838981806263
:1032600089838981806489836FC18981866089832C
:1032700089818061898368C189818860898364C10B
:103280008981806589838981856089835DC1898120
:103290008260898389818062898356C1898188603F
:1032A0008983898180618983898180628983898119
:1032B0008064898389818068898389818460898326
:1032C00089818160898340C18981886089833CC10B
:1032D00089818065898389818560898335C18981F8
:1032E000826089838981806289832EC1898180611E
:1032F000898389818062898389818064898324C1EB
:103300008981866089838981806689831DC18981DD
:103310008860898319C189818065898389818560F5
:10332000898312C1898182608983898180628983CE
:103330000BC18981806189838981806289838981C8
:103340008064898301C189818660898389818066DF
:103350008983FAC0898188608983F6C08981806504
:103360008983898185608983EFC0898182608983AF
:10337000898180628983E8C08981806189838981AC
:1033800080628983898180648983DEC089818560C8
:103390008983898180658983D7C089818160898398
:1033A000D3C0898183608983CFC089818860898304
:1033B000CBC0898183608983C7C08981816089830B
:1033C000898182608983898180618983BDC0898187
:1033D00081608983898180688983B6C089818160A1
:1033E0008983898180618983898180648983ACC074
:1033F00089818F678983A8C0898180618983A4C0FE
:1034000089818C6089838981806189839DC089815C
:103410008260898399C0898180648983898182607F
:10342000898392C08981846089838EC08981806C00
:1034300089838AC089818F67898386C089818260F8
:10344000898382C08981816089837EC0898181600E
:1034500089837AC089818160898376C089818A6005
:10346000898372C08981806289836EC0898180620C
:1034700089836AC08981836089838981886389831C
:1034800063C08981846089835FC089818460898306
:1034900089818062898358C089818463898354C00B
:1034A00089818D60898350C0898181608983898108
:1034B0008861898389818064898346C0898180622B
:1034C000898342C0898183608983898188608983F7
:1034D0003BC089818A6A898337C0898182608983F8
:1034E00033C08981856189832FC089818363898302
:1034F0002BC089818460898389818260898324C00B
:103500008981846089838981826089831DC08981E2
:103510008061898319C089818D60898315C0198272
:103520001A828E818F938D818F938BE495E2892F00
:103530008F938BE495E28F930E94C9840F900F9034
:103540000F900F9001C000008A81882341F02D81E7
:103550003E818B819C814981B9010E94F71B898141
:103560002696CDBFDEBFDF91CF910895CF93DF9335
:10357000CDB7DEB72897CDBFDEBF89839A836B8333
:103580007C834D835E832F83388789819A8100975E
:1035900011F481E022C089819A812F813885FC0154
:1035A000208331838B819C818093683B9093693B1E
:1035B0008D819E8180936A3B90936B3B89819A8138
:1035C00042E363E471E00E94F71B89819A8142E340
:1035D00063E471E00E94F71B80E02896CDBFDEBF58
:1035E000DF91CF910895CF93DF931F921F92CDB7B4
:1035F000DEB789839A8389819A81009711F481E0EB
:103600000FC089819A8142E363E471E00E94F71B55
:1036100089819A8142E163E471E00E94F71B80E0B6
:103620000F900F90DF91CF910895CF93DF931F926A
:103630001F92CDB7DEB789839A8389819A810097DB
:1036400011F481E01DC089819A8140E960E070E059
:103650000E94F71B89819A8140E160E070E00E943E
:10366000F71B89819A8140E062E070E00E94F71BBD
:1036700089819A814FE36FE571E00E94F71B80E03A
:103680000F900F90DF91CF910895EF920F93CF930A
:10369000DF9300D000D0CDB7DEB78B839C836D83E2
:1036A0007E838BE38A836091683B7091693B809154
:1036B0006A3B90916B3B9E012E5F3F4FE12C00E0F7
:1036C0004FE551E00E941C378B819C81FC01808179
:1036D0009181FC01208131814091683B5091693B8F
:1036E00060916A3B70916B3B8B819C81FC01808176
:1036F0009181F90119958B819C81FC0180819181D7
:10370000FC01208131814091683B5091693B60917F
:103710006A3B70916B3B8B819C81FC018081918124
:10372000F9011995882311F082E059C02091683B76
:103730003091693B80916A3B90916B3B4D815E81FA
:10374000B9010E9475378B819C81FC018081918138
:10375000FC01208131814091683B5091693B60912F
:103760006A3B70916B3B8B819C81FC0180819181D4
:10377000F90119958091683B9091693BFC01828128
:103780009381FC01828189838AE38A836091683B0B
:103790007091693B80916A3B90916B3B9E012E5FDB
:1037A0003F4FE12C00E04FE551E00E941C378B8138
:1037B0009C81FC0180819181FC01208131814091BB
:1037C000683B5091693B60916A3B70916B3B8B8188
:1037D0009C81FC0180819181F9011995898126964E
:1037E000CDBFDEBFDF91CF910F91EF900895EF92A3
:1037F0000F93CF93DF93CDB7DEB72597CDBFDEBF55
:1038000089839A836B837C834D8389819A81009716
:1038100011F481E029C06091683B7091693B80910F
:103820006A3B90916B3B9E012B5F3F4F4B815C81CC
:10383000E12C00E00E941C3789819A81FC01808183
:103840009181FC01208131814091683B5091693B1D
:1038500060916A3B70916B3B89819A81FC01808108
:103860009181F901199580E02596CDBFDEBFDF91EA
:10387000CF910F91EF900895CF93DF931F921F92F6
:10388000CDB7DEB789839A8389819A81009711F435
:1038900081E07FC089819A8140E069E371E00E9404
:1038A000F71B89819A8143E06EE371E00E94F71B68
:1038B00089819A8140E060E471E00E94F71B898170
:1038C0009A8145E563E471E00E94F71B89819A8142
:1038D00040E069E371E00E94F71B89819A8142E030
:1038E0006AE371E00E94F71B89819A8140E06BE3F3
:1038F00071E00E94F71B89819A8140E060E471E0E9
:103900000E94F71B89819A8145E563E471E00E947A
:10391000F71B89819A8143E06EE371E00E94F71BF7
:1039200089819A8145ED63E471E00E94F71B8981EA
:103930009A8140E060E471E00E94F71B89819A81DE
:1039400045EF63E471E00E94F71B89819A8145EDA0
:1039500063E471E00E94F71B89819A814FEF64E470
:1039600071E00E94F71B89819A8145E563E471E06B
:103970000E94F71B89819A8146E563E471E00E9409
:10398000F71B89819A8142E069E371E00E94F71B8D
:1039900080E00F900F90DF91CF910895CF93DF9348
:1039A00000D01F92CDB7DEB78B839C838B819C8127
:1039B000009711F481E019C18B819C8140E160E0A6
:1039C00070E00E94F71B8B819C8140E062E070E018
:1039D0000E94F71B80E091E089839A830CC02981C3
:1039E0003A818B819C81B9010E94821689819A81DA
:1039F000019689839A8389819A81883321E092078D
:103A000070F38B819C8168E371E00E9482168AE3E7
:103A100091E089839A830CC029813A818B819C81B2
:103A2000B9010E94821689819A81019689839A83BD
:103A300089819A818F3321E0920770F38FE391E0BF
:103A400089839A830CC029813A818B819C81B90139
:103A50000E94821689819A81019689839A8389813D
:103A60009A81853421E0920770F38B819C8149E330
:103A700063E471E00E94F71B8B819C8149E163E460
:103A800071E00E94F71B8B819C8169E371E00E94C9
:103A900082168B819C814FE765E471E00E94F71BE1
:103AA00086E491E089839A830CC029813A818B81D5
:103AB0009C81B9010E94821689819A81019689832D
:103AC0009A8389819A81833521E0920770F382E598
:103AD00091E089839A830CC029813A818B819C81F2
:103AE000B9010E94821689819A81019689839A83FD
:103AF00089819A81803621E0920770F380E691E017
:103B000089839A830CC029813A818B819C81B90178
:103B10000E94821689819A81019689839A8389817C
:103B20009A81863621E0920770F38B819C814AEA64
:103B300061E771E00E94F71B8B819C8142E062E7A4
:103B400071E00E94F71B8B819C816CE771E00E9401
:103B500082168B819C816DE771E00E94821686E659
:103B600091E089839A830CC029813A818B819C8161
:103B7000B9010E94821689819A81019689839A836C
:103B800089819A81813721E0920770F383E791E080
:103B900089839A830CC029813A818B819C81B901E8
:103BA0000E94821689819A81019689839A838981EC
:103BB0009A81853721E0920770F382E891E089834A
:103BC0009A830CC029813A818B819C81B9010E9422
:103BD000821689819A81019689839A8389819A8143
:103BE000893821E0920770F380E02496CDBFDEBFD4
:103BF000DF91CF910895CF93DF931F921F92CDB79E
:103C0000DEB789839A8389819A81009711F481E0D4
:103C100069C089819A8141E563E471E00E94F71BE4
:103C200089819A8143E069E371E00E94F71B8981F1
:103C30009A8140E06AE371E00E94F71B89819A81D2
:103C400048E06BE371E00E94F71B89819A8140E8AC
:103C500060E471E00E94F71B89819A8141E563E489
:103C600071E00E94F71B89819A8143E06EE371E065
:103C70000E94F71B89819A8141ED63E471E00E9403
:103C8000F71B89819A8140E064E471E00E94F71B90
:103C900089819A8141EF63E471E00E94F71B898179
:103CA0009A8141ED63E471E00E94F71B89819A815A
:103CB0004FEF64E471E00E94F71B89819A8141E52E
:103CC00063E471E00E94F71B89819A8143E069E314
:103CD00071E00E94F71B89819A8163E070E00E9485
:103CE000451B80E00F900F90DF91CF910895CF9307
:103CF000DF9300D01F92CDB7DEB78B839C838B817F
:103D00009C81009711F481E002C18B819C8140E18C
:103D100060E070E00E94F71B8B819C8140E062E0D4
:103D200070E00E94F71B80E091E089839A830CC0C9
:103D300029813A818B819C81B9010E94A9188981CE
:103D40009A81019689839A8389819A81883321E0B7
:103D5000920770F38B819C8168E371E00E94A9183F
:103D60008AE391E089839A830CC029813A818B810F
:103D70009C81B9010E94A91889819A810196898341
:103D80009A8389819A818F3321E0920770F38FE3C0
:103D900091E089839A830CC029813A818B819C812F
:103DA000B9010E94A91889819A81019689839A8311
:103DB00089819A81853421E0920770F38B819C81FF
:103DC00049E363E471E00E94F71B8B819C8149E128
:103DD00063E471E00E94F71B8B819C8169E371E0D1
:103DE0000E94A9188B819C814FE765E471E00E94D5
:103DF000F71B86E491E089839A830CC029813A817C
:103E00008B819C81B9010E94A91889819A810196B0
:103E100089839A8389819A81833521E0920770F39F
:103E200082E591E089839A830CC029813A818B8154
:103E30009C81B9010E94A91889819A810196898380
:103E40009A8389819A81863621E0920770F38B816B
:103E50009C814AEA61E771E00E94F71B8B819C819B
:103E600042E062E771E00E94F71B8B819C816CE766
:103E700071E00E94A9188B819C816DE771E00E941E
:103E8000A91886E691E089839A830CC029813A813A
:103E90008B819C81B9010E94A91889819A81019620
:103EA00089839A8389819A81813721E0920770F30F
:103EB00083E791E089839A830CC029813A818B81C1
:103EC0009C81B9010E94A91889819A8101968983F0
:103ED0009A8389819A81853721E0920770F382E87D
:103EE00091E089839A830CC029813A818B819C81DE
:103EF000B9010E94A91889819A81019689839A83C0
:103F000089819A81893821E0920770F380E02496B4
:103F1000CDBFDEBFDF91CF910895CF93DF9300D067
:103F200000D0CDB7DEB789839A834B835C836D83E2
:103F30007E8389819A81009711F481E031C08B8161
:103F40009C81AD81BE81811520E49207A105B10558
:103F500040F48B819C81AD81BE810097A105B105A4
:103F600031F484E795E20E94E38483E019C08B81F9
:103F70009C81AD81BE81892F9A2FAB2FBB27282F23
:103F800089819A81422F65E571E00E94F71B2B81A0
:103F900089819A81422F66E571E00E94F71B80E0DB
:103FA0002696CDBFDEBFDF91CF910895CF93DF93EB
:103FB000CDB7DEB72897CDBFDEBF8F8398878F81BF
:103FC0009885009711F481E050C08F81988566E54F
:103FD00071E00E94451B89838F81988565E571E0BA
:103FE0000E94451B8A831B821C821D821E828A813D
:103FF000882F90E0982F8827AA2797FDA095BA2FA1
:104000002B813C814D815E81822B932BA42BB52B80
:104010008B839C83AD83BE838981882F90E0A0E051
:10402000B0E02B813C814D815E81822B932BA42BB0
:10403000B52B8B839C83AD83BE838E818F938D81C3
:104040008F938C818F938B818F938FE995E2892F4A
:104050008F938FE995E28F930E94C9840F900F9000
:104060000F900F900F900F9080E02896CDBFDEBF8D
:10407000DF91CF910895CF93DF9300D000D0CDB7DB
:10408000DEB789839A834B835C836D837E838981CA
:104090009A81009711F481E031C08B819C81AD81C0
:1040A000BE81811520E49207A105B10540F48B8102
:1040B0009C81AD81BE810097A105B10531F484E7F3
:1040C00095E20E94E38483E019C08B819C81AD81DD
:1040D000BE81892F9A2FAB2FBB27282F89819A81E8
:1040E000422F69E571E00E94F71B2B8189819A813B
:1040F000422F6AE571E00E94F71B80E02696CDBF53
:10410000DEBFDF91CF910895CF93DF93CDB7DEB7B8
:104110002897CDBFDEBF8F8398878F8198850097C2
:1041200011F481E066C08F8198856AE571E00E9494
:10413000451B89838F81988569E571E00E94451B45
:104140008A838A818F738A838A81882F90E0292FBE
:104150002F938F938FEA95E2892F8F938FEA95E2C1
:104160008F930E94C9840F900F900F900F901B8225
:104170001C821D821E828A81882F90E0982F8827BA
:10418000AA2797FDA095BA2F2B813C814D815E8196
:10419000822B932BA42BB52B8B839C83AD83BE8367
:1041A0008981882F90E0A0E0B0E02B813C814D8197
:1041B0005E81822B932BA42BB52B8B839C83AD83A9
:1041C000BE838E818F938D818F938C818F938B8112
:1041D0008F938EEB95E2892F8F938EEB95E28F93E1
:1041E0000E94C9840F900F900F900F900F900F9026
:1041F00080E02896CDBFDEBFDF91CF910895CF93A9
:10420000DF9300D000D0CDB7DEB789839A834B838C
:104210005C836D837E8389819A81009711F481E0AC
:1042200031C08B819C81AD81BE81811520E19207D7
:10423000A105B10540F48B819C81AD81BE810097C1
:10424000A105B10531F48EEC95E20E94E38483E090
:1042500019C08B819C81AD81BE81892F9A2FAB2F94
:10426000BB27282F89819A81422F60E671E00E9446
:10427000F71B2B8189819A81422F61E671E00E94B0
:10428000F71B80E02696CDBFDEBFDF91CF9108956A
:10429000CF93DF93CDB7DEB72897CDBFDEBF8F8337
:1042A00098878F819885009711F481E053C08F81A2
:1042B000988561E671E00E94451B89838F8198850E
:1042C00060E671E00E94451B8A838A818F708A8331
:1042D0001B821C821D821E828A81882F90E0982F6B
:1042E0008827AA2797FDA095BA2F2B813C814D8165
:1042F0005E81822B932BA42BB52B8B839C83AD8368
:10430000BE838981882F90E0A0E0B0E02B813C81C2
:104310004D815E81822B932BA42BB52B8B839C83A9
:10432000AD83BE838E818F938D818F938C818F938C
:104330008B818F9388EF95E2892F8F9388EF95E299
:104340008F930E94C9840F900F900F900F900F9041
:104350000F9080E02896CDBFDEBFDF91CF9108950A
:10436000CF93DF931F921F92CDB7DEB789839A83D5
:1043700089819A81009711F481E006C089819A8130
:1043800068E171E00E94451B0F900F90DF91CF9183
:104390000895CF93DF93CDB7DEB76E97CDBFDEBF65
:1043A000888799874A875B876C877D872E87888572
:1043B0009985009711F481E077C18A859B85AC854A
:1043C000BD85009724E0A207B10540F48A859B854E
:1043D000AC85BD850097A105B10531F488E096E272
:1043E0000E94E38483E060C18E858B838B818F7113
:1043F0008B838B81882F90E0292F2F938F9384E3D9
:1044000096E2892F8F9384E396E28F930E94C9846A
:104410000F900F900F900F9082E0898376C08B8170
:10442000282F30E040E050E08A859B85AC85BD8533
:10443000BC01CD010E945082DC01CB012981222FD9
:1044400030E040E050E0BC01CD010E946C82DC0114
:10445000CB010097A105B10509F044C08981882FDF
:1044600090E0292F2F938F9381E496E2892F8F93E9
:1044700081E496E28F930E94C9840F900F900F9071
:104480000F908B81282F30E040E050E08A859B859B
:10449000AC85BD85BC01CD010E945082DC01CB0101
:1044A0002981222F30E040E050E0BC01CD010E9484
:1044B0006C82DC01CB012B2F2F932A2F2F93292FD6
:1044C0002F938F9389E496E2892F8F9389E496E264
:1044D0008F930E94C9840F900F900F900F900F90B0
:1044E0000F9017C08981883069F484E596E2892F9E
:1044F0008F9384E596E28F930E94C9840F900F906A
:1045000083E0D2C089818F5F89838981893008F4F3
:1045100086CF8981882F90E0292F2F938F9384E86D
:1045200096E2892F8F9384E896E28F930E94C98444
:104530000F900F900F900F9084E08A8389818830CC
:1045400079F08981882F90E0880F991F8295929544
:10455000907F9827807F9827982F8A81892B8A833C
:10456000888599854A8162E671E00E94F71B8B81FC
:10457000282F30E040E050E08A859B85AC85BD85E2
:10458000BC01CD010E945082DC01CB012981222F88
:1045900030E040E050E0BC01CD010E946C82DA01C5
:1045A000C9018C839D83AE83BF838B81282F30E02C
:1045B00040E050E08A859B85AC85BD85BC01CD017E
:1045C0000E945082DC01CB012981222F30E040E0A3
:1045D00050E0BC01CD010E946C82DA01C9012B2F91
:1045E0002F932A2F2F93292F2F938F938CE896E2C6
:1045F000892F8F938CE896E28F930E94C9840F9045
:104600000F900F900F900F900F908C819D81AE8135
:10461000BF81CD01AA27BB27282F88859985422FE6
:1046200063E671E00E94F71B8C819D81AE81BF81A2
:10463000892F9A2FAB2FBB27282F88859985422F4A
:1046400064E671E00E94F71B2C8188859985422FD2
:1046500065E671E00E94F71B8A859B85AC85BD8568
:10466000CD01AA27BB27282F88859985422F66E68A
:1046700071E00E94F71B8A859B85AC85BD85892FDB
:104680009A2FAB2FBB27282F88859985422F67E665
:1046900071E00E94F71B2A8588859985422F68E67C
:1046A00071E00E94F71B80E06E96CDBFDEBFDF9108
:1046B000CF910895CF93DF93CDB7DEB76097CDBF8D
:1046C000DEBF8F87988B8F859889009711F481E0E2
:1046D000DDC08F85988968E671E00E94451B89835B
:1046E0008F85988967E671E00E94451B8A838F85D4
:1046F000988966E671E00E94451B8B838B818370ED
:104700008B831C821D821E821F828B81882F90E0EA
:1047100099278827AA2797FDA095BA2F2C813D813C
:104720004E815F81822B932BA42BB52B8C839D8391
:10473000AE83BF838A81882F90E0982F8827AA278D
:1047400097FDA095BA2F2C813D814E815F81822BF0
:10475000932BA42BB52B8C839D83AE83BF83898140
:10476000882F90E0A0E0B0E02C813D814E815F81F8
:10477000822B932BA42BB52B8C839D83AE83BF837D
:104780008F818F938E818F938D818F938C818F9367
:1047900088E996E2892F8F9388E996E28F930E94A9
:1047A000C9840F900F900F900F900F900F908F85EE
:1047B000988965E671E00E94451B88878F859889F6
:1047C00064E671E00E94451B89878F85988963E6BE
:1047D00071E00E94451B8A878A8583708A871B86C1
:1047E0001C861D861E868A85882F90E0992788273B
:1047F000AA2797FDA095BA2F2B853C854D855E8510
:10480000822B932BA42BB52B8B879C87AD87BE87E0
:104810008985882F90E0982F8827AA2797FDA09553
:10482000BA2F2B853C854D855E85822B932BA42B3F
:10483000B52B8B879C87AD87BE878885882F90E0B6
:10484000A0E0B0E02B853C854D855E85822B932BC7
:10485000A42BB52B8B879C87AD87BE878E858F93C6
:104860008D858F938C858F938B858F9388EA96E2C5
:10487000892F8F9388EA96E28F930E94C9840F90C4
:104880000F900F900F900F900F9080E06096CDBF2B
:10489000DEBFDF91CF910895CF93DF93CDB7DEB721
:1048A0006897CDBFDEBF8A8B9B8B4C8B5D8B6E8BED
:1048B0007F8B288F8A899B89009711F481E0A1C1A1
:1048C000888D8F3038F4888D8170882319F0888D19
:1048D000882331F48CEB96E20E94E38483E091C15B
:1048E00019821A821B821C821D821E821F821886D8
:1048F00019861A861B861C86888D882F90E0AA2729
:1049000097FDA095BA2F41E050E02CE030E0841BE9
:10491000950B2817390708F4B6C0FC018827EA5F11
:10492000FB4F8F4F0C94468380E091E0A0E0B0E015
:1049300089839A83AB83BC8383E091E0A0E0B0E0FD
:104940008D839E83AF83B88784E091E0A0E0B0E0E0
:1049500089879A87AB87BC87A2C088E091E0A0E0F6
:10496000B0E089839A83AB83BC838BE091E0A0E0C5
:10497000B0E08D839E83AF83B8878CE091E0A0E0A8
:10498000B0E089879A87AB87BC8789C080E191E0D6
:10499000A0E0B0E089839A83AB83BC8383E191E09C
:1049A000A0E0B0E08D839E83AF83B88784E191E07F
:1049B000A0E0B0E089879A87AB87BC8770C088E1A8
:1049C00091E0A0E0B0E089839A83AB83BC838BE164
:1049D00091E0A0E0B0E08D839E83AF83B8878CE147
:1049E00091E0A0E0B0E089879A87AB87BC8757C089
:1049F00080E291E0A0E0B0E089839A83AB83BC833E
:104A000083E291E0A0E0B0E08D839E83AF83B8871E
:104A100084E291E0A0E0B0E089879A87AB87BC8709
:104A20003EC088E291E0A0E0B0E089839A83AB8346
:104A3000BC838BE291E0A0E0B0E08D839E83AF83E6
:104A4000B8878CE291E0A0E0B0E089879A87AB87D5
:104A5000BC8725C080E391E0A0E0B0E089839A8321
:104A6000AB83BC8383E391E0A0E0B0E08D839E83C1
:104A7000AF83B88784E391E0A0E0B0E089879A87AC
:104A8000AB87BC870CC019821A821B821C821D82D4
:104A90001E821F82188619861A861B861C868C89A0
:104AA0009D89AE89BF8981329105A105B10530F09C
:104AB00080EE96E20E94E38483E0A3C08C899D8906
:104AC000AE89BF8981309105A105B105E1F5298144
:104AD0003A818A899B89B9010E94451B8D878D8502
:104AE00080748D878D858832B8F029813A818A89D2
:104AF0009B89B9010E94451B8E878E858C7F8E878E
:104B00008E8581608E872D813E818A899B894E8525
:104B1000B9010E94F71B5DC029813A818A899B896E
:104B2000B9010E94451B8F878F858C7F8F878F856A
:104B300082608F872D813E818A899B894F85B9014B
:104B40000E94F71B46C08C899D89AE89BF8980323F
:104B50009105A105B10521F41C8A1D8A1E8A1F8AB0
:104B60002D813E818A899B89B9010E94451B888BD2
:104B70008889882F90E0292F2F938F9388E097E2E0
:104B8000892F8F9388E097E28F930E94C9840F90BA
:104B90000F900F900F9088898C7F888B8889882F41
:104BA00090E0292F2F938F9380E197E2892F8F93A5
:104BB00080E197E28F930E94C9840F900F900F902D
:104BC0000F902D813E818A899B894889B9010E9475
:104BD000F71B29813A818A899B89B9010E94451B6B
:104BE000898B8989807E898B8C899989892B898B8E
:104BF00029813A818A899B894989B9010E94F71BD9
:104C000080E06896CDBFDEBFDF91CF910895CF934E
:104C1000DF93CDB7DEB72897CDBFDEBF8E839F83EE
:104C200068878E819F81009711F481E08EC088850E
:104C30008F3038F488858170882319F0888588231F
:104C400031F48CEB96E20E94E38483E07EC019820B
:104C50001A821B821C828885882F90E0AA2797FDE4
:104C6000A095BA2F41E050E02CE030E0841B950B7A
:104C70002817390708F446C0FC018827ED5EFB4F72
:104C80008F4F0C94468380E091E0A0E0B0E08983F0
:104C90009A83AB83BC833AC088E091E0A0E0B0E0A7
:104CA00089839A83AB83BC8331C080E191E0A0E02B
:104CB000B0E089839A83AB83BC8328C088E191E00C
:104CC000A0E0B0E089839A83AB83BC831FC080E2FD
:104CD00091E0A0E0B0E089839A83AB83BC8316C0E7
:104CE00088E291E0A0E0B0E089839A83AB83BC8343
:104CF0000DC080E391E0A0E0B0E089839A83AB83AC
:104D0000BC8304C019821A821B821C8229813A81C9
:104D10008E819F81B9010E94451B8D838D818F718A
:104D20008D838D81882F90E0292F2F938F9380E2A0
:104D300097E2892F8F9380E297E28F930E94C98434
:104D40000F900F900F900F9080E02896CDBFDEBFA0
:104D5000DF91CF910895CF93DF9300D000D0CDB7EE
:104D6000DEB789839A834B835C836D837E838981DD
:104D70009A81009711F481E032C08B819C81AD81D2
:104D8000BE81811520E29207A105B10548F48B810F
:104D90009C81AD81BE8188309105A105B10530F4BB
:104DA0008DE297E20E94E38483E019C08B819C81AD
:104DB000AD81BE81892F9A2FAB2FBB27282F8981E8
:104DC0009A81422F6AE371E00E94F71B2B8189814F
:104DD0009A81422F6BE371E00E94F71B80E02696D8
:104DE000CDBFDEBFDF91CF910895CF93DF93CDB7D5
:104DF000DEB72897CDBFDEBF8F8398878F819885D8
:104E0000009711F481E053C08F8198856BE371E0C6
:104E10000E94451B89838F8198856AE371E00E9417
:104E2000451B8A838A818F708A831B821C821D8224
:104E30001E828A81882F90E0982F8827AA2797FDC5
:104E4000A095BA2F2B813C814D815E81822B932BC3
:104E5000A42BB52B8B839C83AD83BE838981882F44
:104E600090E0A0E0B0E02B813C814D815E81822BFF
:104E7000932BA42BB52B8B839C83AD83BE838E8118
:104E80008F938D818F938C818F938B818F9387E507
:104E900097E2892F8F9387E597E28F930E94C984C9
:104EA0000F900F900F900F900F900F9080E028962A
:104EB000CDBFDEBFDF91CF910895CF93DF93CDB704
:104EC000DEB76397CDBFDEBF8D879E874F87588B38
:104ED000698B7A8B2B8B8D859E85009711F481E0F1
:104EE00042C119821A821B821C821D821E821F826D
:104EF00018868B898F3038F48B89882321F08B8931
:104F00008170882331F08BE697E20E94E38483E08E
:104F10002AC18A898F9389898F9388898F938F85F6
:104F20008F9380E997E2892F8F9380E997E28F939F
:104F30000E94C9840F900F900F900F900F900F90C8
:104F40008B89882F90E0AA2797FDA095BA2F42E081
:104F500050E02CE030E0841B950B2817390708F44B
:104F60007EC0FC018827E05EFB4F8F4F0C94468388
:104F700084E091E0A0E0B0E089839A83AB83BC83B6
:104F800086E091E0A0E0B0E08D839E83AF83B88798
:104F90006EC08CE091E0A0E0B0E089839A83AB839F
:104FA000BC838EE091E0A0E0B0E08D839E83AF8370
:104FB000B8875DC084E191E0A0E0B0E089839A8386
:104FC000AB83BC8386E191E0A0E0B0E08D839E835B
:104FD000AF83B8874CC08CE191E0A0E0B0E089835A
:104FE0009A83AB83BC838EE191E0A0E0B0E08D8337
:104FF0009E83AF83B8873BC084E291E0A0E0B0E03D
:1050000089839A83AB83BC8386E291E0A0E0B0E021
:105010008D839E83AF83B8872AC08CE291E0A0E0A5
:10502000B0E089839A83AB83BC838EE291E0A0E0F9
:10503000B0E08D839E83AF83B88719C084E391E08D
:10504000A0E0B0E089839A83AB83BC8386E391E0E0
:10505000A0E0B0E08D839E83AF83B88708C019823B
:105060001A821B821C821D821E821F8218868F85D7
:105070009889A989BA898C309105A105B105E8F014
:105080008A898F9389898F9388898F938F858F934E
:1050900082EA97E2892F8F9382EA97E28F930E94A8
:1050A000C9840F900F900F900F900F900F9085EB89
:1050B00097E20E94E38483E056C08F859889A9898E
:1050C000BA890097A105B105A1F42D813E818D8596
:1050D0009E85B9010E94451B8987898581608987E2
:1050E0002D813E818D859E854985B9010E94F71BE2
:1050F00039C02D813E818D859E85B9010E94451B59
:105100008A878A858E7F8A872D813E818D859E85BF
:105110004A85B9010E94F71B8F858150880F8B87C4
:1051200029813A818D859E85B9010E94451B8C8716
:105130008C85817E8C879C858B85892B8C872981AA
:105140003A818D859E854C85B9010E94F71B8A8521
:1051500081608A872D813E818D859E854A85B90132
:105160000E94F71B80E06396CDBFDEBFDF91CF9139
:105170000895CF93DF93CDB7DEB72997CDBFDEBFBC
:105180008F83988769878F819885009711F481E0D4
:1051900095C019821A821B821C8289858F3038F44F
:1051A0008985882321F089858170882331F08BE6F9
:1051B00097E20E94E38483E081C08985882F90E094
:1051C000AA2797FDA095BA2F42E050E02CE030E0EE
:1051D000841B950B2817390708F446C0FC01882763
:1051E000E35DFB4F8F4F0C94468384E091E0A0E099
:1051F000B0E089839A83AB83BC833AC08CE091E0B2
:10520000A0E0B0E089839A83AB83BC8331C084E1A2
:1052100091E0A0E0B0E089839A83AB83BC8328C08F
:105220008CE191E0A0E0B0E089839A83AB83BC83FA
:105230001FC084E291E0A0E0B0E089839A83AB8351
:10524000BC8316C08CE291E0A0E0B0E089839A8331
:10525000AB83BC830DC084E391E0A0E0B0E0898320
:105260009A83AB83BC8304C019821A821B821C827E
:1052700029813A818F819885B9010E94451B8D83D0
:105280008D818E718D838D81882F90E0019695950B
:1052900087958E838E81882F90E0292F2F938F936F
:1052A00081EE97E2892F8F9381EE97E28F930E9490
:1052B000C9840F900F900F900F9080E02996CDBF7A
:1052C000DEBFDF91CF9108950F93CF93DF93CDB7DA
:1052D000DEB76A97CDBFDEBF8D8B9E8B6F8B488FFD
:1052E000298F0A8F8D899E89009711F481E05CC215
:1052F00019821A821B821C821D821E821F821886BE
:1053000019868A8D882F90E0292F2F938F9385EF10
:1053100097E2892F8F9385EF97E28F930E94C9843C
:105320000F900F900F900F908F89882F90E0292F6A
:105330002F938F938DEF97E2892F8F938DEF97E2C5
:105340008F930E94C9840F900F900F900F90888DBB
:10535000882F90E0292F2F938F9386E098E2892F52
:105360008F9386E098E28F930E94C9840F900F90EC
:105370000F900F908A8D8F3038F48A8D882321F01A
:105380008A8D8170882331F48EE098E20E94E38454
:1053900083E00AC28A8D882F90E0AA2797FDA09506
:1053A000BA2F41E050E02CE030E0841B950B281729
:1053B000390708F48BC0FC018827E65CFB4F8F4F50
:1053C0000C94468381E091E0A0E0B0E089839A8369
:1053D000AB83BC8386E091E0A0E0B0E08D839E8348
:1053E000AF83B88719867AC089E091E0A0E0B0E089
:1053F00089839A83AB83BC838EE091E0A0E0B0E028
:105400008D839E83AF83B88781E0898767C081E100
:1054100091E0A0E0B0E089839A83AB83BC8386E10E
:1054200091E0A0E0B0E08D839E83AF83B88782E0F7
:10543000898754C089E191E0A0E0B0E089839A8334
:10544000AB83BC838EE191E0A0E0B0E08D839E83CE
:10545000AF83B88783E0898741C081E291E0A0E013
:10546000B0E089839A83AB83BC8386E291E0A0E0BD
:10547000B0E08D839E83AF83B88784E089872EC098
:1054800089E291E0A0E0B0E089839A83AB83BC839A
:105490008EE291E0A0E0B0E08D839E83AF83B88779
:1054A00085E089871BC081E391E0A0E0B0E08983BB
:1054B0009A83AB83BC8386E391E0A0E0B0E08D8368
:1054C0009E83AF83B88786E0898708C019821A82D5
:1054D0001B821C821D821E821F8218868F89813149
:1054E00018F4888D813130F082E398E20E94E384E1
:1054F00083E05AC191E08F89813009F090E081E02A
:10550000288D213009F080E089238823A1F02D81A6
:105510003E818D899E89B9010E94451B8A878A85B3
:1055200080688A872D813E818D899E894A85B9014F
:105530000E94F71B38C18D899E8963E471E00E9447
:10554000451B8B878B858C7D8B878B8581608B87BB
:105550008D899E894B8563E471E00E94F71B8D89DC
:105560009E8969E371E00E94451B8C878C858C7F46
:105570008C878D899E894C8569E371E00E94F71BB9
:105580008D899E8960E471E00E94451B8D878D8521
:10559000897F8D878D899E894D8560E471E00E94A9
:1055A000F71B2D813E818D899E89B9010E94451B83
:1055B0008E878E858F778E872D813E818D899E89FE
:1055C0004E85B9010E94F71B8D899E8963E471E0C5
:1055D0000E94451B8B878B8580618B878D899E8977
:1055E0004B8563E471E00E94F71B8D899E8960E41E
:1055F00071E00E94451B8D878D858E7F8D878D89FB
:105600009E894D8560E471E00E94F71B8D899E891B
:105610006EE371E00E94451B8F878F8583708F87B3
:105620008F8581608F878D899E894F856EE371E0BC
:105630000E94F71B8D899E8963E471E00E94451BDF
:105640008B878B8580688B878D899E894B8563E4EA
:1056500071E00E94F71B8F89803109F41F8A888DC1
:10566000803109F4188E8F898295807F888B988984
:10567000888D892B888B29813A818D899E894889DB
:10568000B9010E94F71B8D899E8961E471E00E9437
:10569000451B898B8985282F30E081E090E002C08E
:1056A000880F991F2A95E2F7982F8989892B898B72
:1056B0008D899E89498961E471E00E94F71B8D897B
:1056C0009E8964E471E00E94451B8A8B8985282F9E
:1056D00030E081E090E002C0880F991F2A95E2F740
:1056E000982F90958A8989238A8B8D899E894A89EA
:1056F00064E471E00E94F71B8D899E8963E471E088
:105700000E94451B8B878B8580628B878D899E8944
:105710004B8563E471E00E94F71B8B858F7D8B873F
:105720008D899E894B8563E471E00E94F71B8D890A
:105730009E8963E471E00E94451B8B8B8B898C7F73
:105740008B8B8B8983608B8B8D899E894B8963E4DE
:1057500071E00E94F71B8B898C7F8B8B8B89826019
:105760008B8B8D899E894B8963E471E00E94F71BC6
:105770008D899E8969E371E00E94451B8C8B8C8921
:105780008C7F8C8B8C8982608C8B8D899E894C89D7
:1057900069E371E00E94F71B8D899E89498D62E45F
:1057A00071E00E94F71B80E06A96CDBFDEBFDF91FB
:1057B000CF910F910895CF93DF93CDB7DEB72A979E
:1057C000CDBFDEBF888799876A87888599850097CE
:1057D00011F481E0A7C019821A821B821C828A857B
:1057E0008F3038F48A85882321F08A858170882358
:1057F00031F48EE098E20E94E38483E093C08A85CE
:10580000882F90E0AA2797FDA095BA2F41E050E09D
:105810002CE030E0841B950B2817390708F446C0AC
:10582000FC018827E95BFB4F8F4F0C94468381E096
:1058300091E0A0E0B0E089839A83AB83BC833AC057
:1058400089E091E0A0E0B0E089839A83AB83BC83D8
:1058500031C081E191E0A0E0B0E089839A83AB831D
:10586000BC8328C089E191E0A0E0B0E089839A83FD
:10587000AB83BC831FC081E291E0A0E0B0E08983EC
:105880009A83AB83BC8316C089E291E0A0E0B0E0CC
:1058900089839A83AB83BC830DC081E391E0A0E050
:1058A000B0E089839A83AB83BC8304C019821A82D7
:1058B0001B821C8229813A8188859985B9010E94C1
:1058C000451B8D838D8182958F708E838D818F8313
:1058D0008F818F708F838E81882F90E0292F2F9357
:1058E0008F9385E798E2892F8F9385E798E28F93CE
:1058F0000E94C9840F900F900F900F908F81882F76
:1059000090E0292F2F938F938FE898E2892F8F9320
:105910008FE898E28F930E94C9840F900F900F90A8
:105920000F9080E02A96CDBFDEBFDF91CF91089522
:10593000CF93DF93CDB7DEB76997CDBFDEBF8D8B39
:105940009E8B6F8B488F298F8D899E89009711F4CC
:1059500081E04BC219821A821B821C821D821E8228
:105960001F82188619861A861B86898D882F90E0DB
:10597000292F2F938F9385EF97E2892F8F9385EFB0
:1059800097E28F930E94C9840F900F900F900F9011
:105990008F89882F90E0292F2F938F938DEF97E297
:1059A000892F8F938DEF97E28F930E94C9840F9078
:1059B0000F900F900F90888D882F90E0292F2F93B4
:1059C0008F9386E098E2892F8F9386E098E28F93F9
:1059D0000E94C9840F900F900F900F90898D8F3087
:1059E00038F4898D882321F0898D8170882331F4E2
:1059F0008EE098E20E94E38483E0F7C1898D882FCE
:105A000090E0AA2797FDA095BA2F41E050E02CE046
:105A100030E0841B950B2817390708F4A7C0FC0158
:105A20008827EC5AFB4F8F4F0C94468381E091E01E
:105A3000A0E0B0E089839A83AB83BC8386E091E0E9
:105A4000A0E0B0E08D839E83AF83B88783E091E0D0
:105A50008A879B87198692C089E091E0A0E0B0E038
:105A600089839A83AB83BC838EE091E0A0E0B0E0B1
:105A70008D839E83AF83B8878BE091E08A879B8775
:105A800081E089877BC081E191E0A0E0B0E089837B
:105A90009A83AB83BC8386E191E0A0E0B0E08D8384
:105AA0009E83AF83B88783E191E08A879B8782E0FA
:105AB000898764C089E191E0A0E0B0E089839A839E
:105AC000AB83BC838EE191E0A0E0B0E08D839E8348
:105AD000AF83B8878BE191E08A879B8783E08987D2
